{
    "_format": "hh-sol-artifact-1",
    "contractName": "PetTrace",
    "sourceName": "contracts/PetTrace.sol",
    "abi": [
        {
            "inputs": [],
            "stateMutability": "nonpayable",
            "type": "constructor"
        },
        {
            "anonymous": false,
            "inputs": [
                {
                    "indexed": true,
                    "internalType": "address",
                    "name": "newAdmin",
                    "type": "address"
                }
            ],
            "name": "AdminChanged",
            "type": "event"
        },
        {
            "anonymous": false,
            "inputs": [
                {
                    "indexed": true,
                    "internalType": "uint256",
                    "name": "petId",
                    "type": "uint256"
                },
                {
                    "indexed": true,
                    "internalType": "address",
                    "name": "finder",
                    "type": "address"
                },
                {
                    "indexed": false,
                    "internalType": "uint256",
                    "name": "celoAmount",
                    "type": "uint256"
                },
                {
                    "indexed": false,
                    "internalType": "uint256",
                    "name": "cUSDAmount",
                    "type": "uint256"
                },
                {
                    "indexed": false,
                    "internalType": "uint256",
                    "name": "gDollarAmount",
                    "type": "uint256"
                },
                {
                    "indexed": false,
                    "internalType": "uint256",
                    "name": "usdtAmount",
                    "type": "uint256"
                }
            ],
            "name": "BountyClaimed",
            "type": "event"
        },
        {
            "anonymous": false,
            "inputs": [
                {
                    "indexed": true,
                    "internalType": "uint256",
                    "name": "petId",
                    "type": "uint256"
                },
                {
                    "indexed": true,
                    "internalType": "address",
                    "name": "owner",
                    "type": "address"
                },
                {
                    "indexed": false,
                    "internalType": "uint256",
                    "name": "celoAmount",
                    "type": "uint256"
                },
                {
                    "indexed": false,
                    "internalType": "uint256",
                    "name": "cUSDAmount",
                    "type": "uint256"
                },
                {
                    "indexed": false,
                    "internalType": "uint256",
                    "name": "gDollarAmount",
                    "type": "uint256"
                },
                {
                    "indexed": false,
                    "internalType": "uint256",
                    "name": "usdtAmount",
                    "type": "uint256"
                }
            ],
            "name": "BountyRefunded",
            "type": "event"
        },
        {
            "anonymous": false,
            "inputs": [
                {
                    "indexed": true,
                    "internalType": "uint256",
                    "name": "petId",
                    "type": "uint256"
                },
                {
                    "indexed": true,
                    "internalType": "address",
                    "name": "confirmer",
                    "type": "address"
                },
                {
                    "indexed": false,
                    "internalType": "bool",
                    "name": "isOwner",
                    "type": "bool"
                }
            ],
            "name": "ConfirmationAdded",
            "type": "event"
        },
        {
            "anonymous": false,
            "inputs": [
                {
                    "indexed": true,
                    "internalType": "uint256",
                    "name": "petId",
                    "type": "uint256"
                },
                {
                    "indexed": true,
                    "internalType": "address",
                    "name": "finder",
                    "type": "address"
                },
                {
                    "indexed": false,
                    "internalType": "string",
                    "name": "evidenceUrl",
                    "type": "string"
                },
                {
                    "indexed": false,
                    "internalType": "uint256",
                    "name": "timestamp",
                    "type": "uint256"
                }
            ],
            "name": "FinderReportSubmitted",
            "type": "event"
        },
        {
            "anonymous": false,
            "inputs": [
                {
                    "indexed": true,
                    "internalType": "uint256",
                    "name": "petId",
                    "type": "uint256"
                },
                {
                    "indexed": true,
                    "internalType": "address",
                    "name": "finder",
                    "type": "address"
                }
            ],
            "name": "PetFound",
            "type": "event"
        },
        {
            "anonymous": false,
            "inputs": [
                {
                    "indexed": true,
                    "internalType": "uint256",
                    "name": "petId",
                    "type": "uint256"
                },
                {
                    "indexed": true,
                    "internalType": "address",
                    "name": "owner",
                    "type": "address"
                }
            ],
            "name": "PetPosted",
            "type": "event"
        },
        {
            "inputs": [],
            "name": "BOUNTY_TIMEOUT",
            "outputs": [
                {
                    "internalType": "uint256",
                    "name": "",
                    "type": "uint256"
                }
            ],
            "stateMutability": "view",
            "type": "function"
        },
        {
            "inputs": [],
            "name": "CUSD_ADDRESS",
            "outputs": [
                {
                    "internalType": "address",
                    "name": "",
                    "type": "address"
                }
            ],
            "stateMutability": "view",
            "type": "function"
        },
        {
            "inputs": [],
            "name": "GDOLLAR_ADDRESS",
            "outputs": [
                {
                    "internalType": "address",
                    "name": "",
                    "type": "address"
                }
            ],
            "stateMutability": "view",
            "type": "function"
        },
        {
            "inputs": [],
            "name": "MAX_CELO_BOUNTY",
            "outputs": [
                {
                    "internalType": "uint256",
                    "name": "",
                    "type": "uint256"
                }
            ],
            "stateMutability": "view",
            "type": "function"
        },
        {
            "inputs": [],
            "name": "MAX_CUSD_BOUNTY",
            "outputs": [
                {
                    "internalType": "uint256",
                    "name": "",
                    "type": "uint256"
                }
            ],
            "stateMutability": "view",
            "type": "function"
        },
        {
            "inputs": [],
            "name": "MAX_USDT_BOUNTY",
            "outputs": [
                {
                    "internalType": "uint256",
                    "name": "",
                    "type": "uint256"
                }
            ],
            "stateMutability": "view",
            "type": "function"
        },
        {
            "inputs": [],
            "name": "USDT_ADDRESS",
            "outputs": [
                {
                    "internalType": "address",
                    "name": "",
                    "type": "address"
                }
            ],
            "stateMutability": "view",
            "type": "function"
        },
        {
            "inputs": [],
            "name": "admin",
            "outputs": [
                {
                    "internalType": "address",
                    "name": "",
                    "type": "address"
                }
            ],
            "stateMutability": "view",
            "type": "function"
        },
        {
            "inputs": [
                {
                    "internalType": "uint256",
                    "name": "petId",
                    "type": "uint256"
                }
            ],
            "name": "cancelAndRefund",
            "outputs": [],
            "stateMutability": "nonpayable",
            "type": "function"
        },
        {
            "inputs": [
                {
                    "internalType": "uint256",
                    "name": "petId",
                    "type": "uint256"
                },
                {
                    "internalType": "address",
                    "name": "chosenFinder",
                    "type": "address"
                }
            ],
            "name": "chooseFinder",
            "outputs": [],
            "stateMutability": "nonpayable",
            "type": "function"
        },
        {
            "inputs": [
                {
                    "internalType": "uint256",
                    "name": "petId",
                    "type": "uint256"
                }
            ],
            "name": "claimBounty",
            "outputs": [],
            "stateMutability": "nonpayable",
            "type": "function"
        },
        {
            "inputs": [
                {
                    "internalType": "uint256",
                    "name": "petId",
                    "type": "uint256"
                }
            ],
            "name": "confirmFoundByOwner",
            "outputs": [],
            "stateMutability": "nonpayable",
            "type": "function"
        },
        {
            "inputs": [
                {
                    "internalType": "address",
                    "name": "to",
                    "type": "address"
                }
            ],
            "name": "emergencyWithdrawCUSD",
            "outputs": [],
            "stateMutability": "nonpayable",
            "type": "function"
        },
        {
            "inputs": [
                {
                    "internalType": "address",
                    "name": "to",
                    "type": "address"
                }
            ],
            "name": "emergencyWithdrawUSDT",
            "outputs": [],
            "stateMutability": "nonpayable",
            "type": "function"
        },
        {
            "inputs": [
                {
                    "internalType": "uint256",
                    "name": "",
                    "type": "uint256"
                }
            ],
            "name": "escrowedCUSD",
            "outputs": [
                {
                    "internalType": "uint256",
                    "name": "",
                    "type": "uint256"
                }
            ],
            "stateMutability": "view",
            "type": "function"
        },
        {
            "inputs": [
                {
                    "internalType": "uint256",
                    "name": "",
                    "type": "uint256"
                }
            ],
            "name": "escrowedGDOLLAR",
            "outputs": [
                {
                    "internalType": "uint256",
                    "name": "",
                    "type": "uint256"
                }
            ],
            "stateMutability": "view",
            "type": "function"
        },
        {
            "inputs": [
                {
                    "internalType": "uint256",
                    "name": "",
                    "type": "uint256"
                }
            ],
            "name": "escrowedUSDT",
            "outputs": [
                {
                    "internalType": "uint256",
                    "name": "",
                    "type": "uint256"
                }
            ],
            "stateMutability": "view",
            "type": "function"
        },
        {
            "inputs": [
                {
                    "internalType": "uint256",
                    "name": "",
                    "type": "uint256"
                },
                {
                    "internalType": "uint256",
                    "name": "",
                    "type": "uint256"
                }
            ],
            "name": "finderReports",
            "outputs": [
                {
                    "internalType": "address",
                    "name": "finder",
                    "type": "address"
                },
                {
                    "internalType": "string",
                    "name": "evidenceUrl",
                    "type": "string"
                },
                {
                    "internalType": "uint256",
                    "name": "timestamp",
                    "type": "uint256"
                }
            ],
            "stateMutability": "view",
            "type": "function"
        },
        {
            "inputs": [],
            "name": "getAllLostPets",
            "outputs": [
                {
                    "internalType": "uint256[]",
                    "name": "",
                    "type": "uint256[]"
                },
                {
                    "components": [
                        {
                            "internalType": "uint256",
                            "name": "id",
                            "type": "uint256"
                        },
                        {
                            "internalType": "address payable",
                            "name": "owner",
                            "type": "address"
                        },
                        {
                            "internalType": "string",
                            "name": "name",
                            "type": "string"
                        },
                        {
                            "internalType": "string",
                            "name": "breed",
                            "type": "string"
                        },
                        {
                            "internalType": "string",
                            "name": "gender",
                            "type": "string"
                        },
                        {
                            "internalType": "uint128",
                            "name": "sizeCm",
                            "type": "uint128"
                        },
                        {
                            "internalType": "uint128",
                            "name": "ageMonths",
                            "type": "uint128"
                        },
                        {
                            "internalType": "string",
                            "name": "dateTimeLost",
                            "type": "string"
                        },
                        {
                            "internalType": "string",
                            "name": "description",
                            "type": "string"
                        },
                        {
                            "internalType": "string",
                            "name": "imageUrl",
                            "type": "string"
                        },
                        {
                            "internalType": "string",
                            "name": "lastSeenLocation",
                            "type": "string"
                        },
                        {
                            "internalType": "string",
                            "name": "contactName",
                            "type": "string"
                        },
                        {
                            "internalType": "string",
                            "name": "contactPhone",
                            "type": "string"
                        },
                        {
                            "internalType": "string",
                            "name": "contactEmail",
                            "type": "string"
                        },
                        {
                            "internalType": "uint128",
                            "name": "celoBounty",
                            "type": "uint128"
                        },
                        {
                            "internalType": "uint128",
                            "name": "cUSDBounty",
                            "type": "uint128"
                        },
                        {
                            "internalType": "uint128",
                            "name": "USDTBounty",
                            "type": "uint128"
                        },
                        {
                            "internalType": "uint128",
                            "name": "gDollarBounty",
                            "type": "uint128"
                        },
                        {
                            "internalType": "enum PetTrace.PetStatus",
                            "name": "status",
                            "type": "uint8"
                        },
                        {
                            "internalType": "bool",
                            "name": "ownerConfirmed",
                            "type": "bool"
                        },
                        {
                            "internalType": "bool",
                            "name": "finderConfirmed",
                            "type": "bool"
                        },
                        {
                            "internalType": "address",
                            "name": "finder",
                            "type": "address"
                        }
                    ],
                    "internalType": "struct PetTrace.Pet[]",
                    "name": "",
                    "type": "tuple[]"
                }
            ],
            "stateMutability": "view",
            "type": "function"
        },
        {
            "inputs": [],
            "name": "getAllPets",
            "outputs": [
                {
                    "components": [
                        {
                            "internalType": "uint256",
                            "name": "id",
                            "type": "uint256"
                        },
                        {
                            "internalType": "address payable",
                            "name": "owner",
                            "type": "address"
                        },
                        {
                            "internalType": "string",
                            "name": "name",
                            "type": "string"
                        },
                        {
                            "internalType": "string",
                            "name": "breed",
                            "type": "string"
                        },
                        {
                            "internalType": "string",
                            "name": "gender",
                            "type": "string"
                        },
                        {
                            "internalType": "uint128",
                            "name": "sizeCm",
                            "type": "uint128"
                        },
                        {
                            "internalType": "uint128",
                            "name": "ageMonths",
                            "type": "uint128"
                        },
                        {
                            "internalType": "string",
                            "name": "dateTimeLost",
                            "type": "string"
                        },
                        {
                            "internalType": "string",
                            "name": "description",
                            "type": "string"
                        },
                        {
                            "internalType": "string",
                            "name": "imageUrl",
                            "type": "string"
                        },
                        {
                            "internalType": "string",
                            "name": "lastSeenLocation",
                            "type": "string"
                        },
                        {
                            "internalType": "string",
                            "name": "contactName",
                            "type": "string"
                        },
                        {
                            "internalType": "string",
                            "name": "contactPhone",
                            "type": "string"
                        },
                        {
                            "internalType": "string",
                            "name": "contactEmail",
                            "type": "string"
                        },
                        {
                            "internalType": "uint128",
                            "name": "celoBounty",
                            "type": "uint128"
                        },
                        {
                            "internalType": "uint128",
                            "name": "cUSDBounty",
                            "type": "uint128"
                        },
                        {
                            "internalType": "uint128",
                            "name": "USDTBounty",
                            "type": "uint128"
                        },
                        {
                            "internalType": "uint128",
                            "name": "gDollarBounty",
                            "type": "uint128"
                        },
                        {
                            "internalType": "enum PetTrace.PetStatus",
                            "name": "status",
                            "type": "uint8"
                        },
                        {
                            "internalType": "bool",
                            "name": "ownerConfirmed",
                            "type": "bool"
                        },
                        {
                            "internalType": "bool",
                            "name": "finderConfirmed",
                            "type": "bool"
                        },
                        {
                            "internalType": "address",
                            "name": "finder",
                            "type": "address"
                        }
                    ],
                    "internalType": "struct PetTrace.Pet[]",
                    "name": "",
                    "type": "tuple[]"
                }
            ],
            "stateMutability": "view",
            "type": "function"
        },
        {
            "inputs": [
                {
                    "internalType": "uint256",
                    "name": "petId",
                    "type": "uint256"
                }
            ],
            "name": "getFinderReportCount",
            "outputs": [
                {
                    "internalType": "uint256",
                    "name": "",
                    "type": "uint256"
                }
            ],
            "stateMutability": "view",
            "type": "function"
        },
        {
            "inputs": [
                {
                    "internalType": "uint256",
                    "name": "petId",
                    "type": "uint256"
                }
            ],
            "name": "getFinderReports",
            "outputs": [
                {
                    "components": [
                        {
                            "internalType": "address",
                            "name": "finder",
                            "type": "address"
                        },
                        {
                            "internalType": "string",
                            "name": "evidenceUrl",
                            "type": "string"
                        },
                        {
                            "internalType": "uint256",
                            "name": "timestamp",
                            "type": "uint256"
                        }
                    ],
                    "internalType": "struct PetTrace.FinderReport[]",
                    "name": "",
                    "type": "tuple[]"
                }
            ],
            "stateMutability": "view",
            "type": "function"
        },
        {
            "inputs": [
                {
                    "internalType": "uint256",
                    "name": "startIndex",
                    "type": "uint256"
                },
                {
                    "internalType": "uint256",
                    "name": "maxCount",
                    "type": "uint256"
                }
            ],
            "name": "getLostPetIds",
            "outputs": [
                {
                    "internalType": "uint256[]",
                    "name": "ids",
                    "type": "uint256[]"
                },
                {
                    "internalType": "bool",
                    "name": "hasMore",
                    "type": "bool"
                }
            ],
            "stateMutability": "view",
            "type": "function"
        },
        {
            "inputs": [],
            "name": "getLostPetsCount",
            "outputs": [
                {
                    "internalType": "uint256",
                    "name": "",
                    "type": "uint256"
                }
            ],
            "stateMutability": "view",
            "type": "function"
        },
        {
            "inputs": [
                {
                    "internalType": "uint256",
                    "name": "petId",
                    "type": "uint256"
                }
            ],
            "name": "getPetDetails",
            "outputs": [
                {
                    "internalType": "uint256",
                    "name": "",
                    "type": "uint256"
                },
                {
                    "internalType": "address",
                    "name": "",
                    "type": "address"
                },
                {
                    "internalType": "string",
                    "name": "",
                    "type": "string"
                },
                {
                    "internalType": "string",
                    "name": "",
                    "type": "string"
                },
                {
                    "internalType": "string",
                    "name": "",
                    "type": "string"
                },
                {
                    "internalType": "uint128",
                    "name": "",
                    "type": "uint128"
                },
                {
                    "internalType": "uint128",
                    "name": "",
                    "type": "uint128"
                },
                {
                    "internalType": "string",
                    "name": "",
                    "type": "string"
                },
                {
                    "internalType": "string",
                    "name": "",
                    "type": "string"
                },
                {
                    "internalType": "string",
                    "name": "",
                    "type": "string"
                },
                {
                    "internalType": "string",
                    "name": "",
                    "type": "string"
                },
                {
                    "internalType": "string",
                    "name": "",
                    "type": "string"
                },
                {
                    "internalType": "string",
                    "name": "",
                    "type": "string"
                },
                {
                    "internalType": "string",
                    "name": "",
                    "type": "string"
                },
                {
                    "internalType": "uint128",
                    "name": "",
                    "type": "uint128"
                },
                {
                    "internalType": "uint128",
                    "name": "",
                    "type": "uint128"
                },
                {
                    "internalType": "uint128",
                    "name": "",
                    "type": "uint128"
                },
                {
                    "internalType": "uint128",
                    "name": "",
                    "type": "uint128"
                },
                {
                    "internalType": "enum PetTrace.PetStatus",
                    "name": "",
                    "type": "uint8"
                },
                {
                    "internalType": "bool",
                    "name": "",
                    "type": "bool"
                },
                {
                    "internalType": "bool",
                    "name": "",
                    "type": "bool"
                },
                {
                    "internalType": "address",
                    "name": "",
                    "type": "address"
                }
            ],
            "stateMutability": "view",
            "type": "function"
        },
        {
            "inputs": [
                {
                    "internalType": "uint256",
                    "name": "petId",
                    "type": "uint256"
                }
            ],
            "name": "markAsFound",
            "outputs": [],
            "stateMutability": "nonpayable",
            "type": "function"
        },
        {
            "inputs": [],
            "name": "nextPetId",
            "outputs": [
                {
                    "internalType": "uint256",
                    "name": "",
                    "type": "uint256"
                }
            ],
            "stateMutability": "view",
            "type": "function"
        },
        {
            "inputs": [
                {
                    "internalType": "uint256",
                    "name": "",
                    "type": "uint256"
                }
            ],
            "name": "pets",
            "outputs": [
                {
                    "internalType": "uint256",
                    "name": "id",
                    "type": "uint256"
                },
                {
                    "internalType": "address payable",
                    "name": "owner",
                    "type": "address"
                },
                {
                    "internalType": "string",
                    "name": "name",
                    "type": "string"
                },
                {
                    "internalType": "string",
                    "name": "breed",
                    "type": "string"
                },
                {
                    "internalType": "string",
                    "name": "gender",
                    "type": "string"
                },
                {
                    "internalType": "uint128",
                    "name": "sizeCm",
                    "type": "uint128"
                },
                {
                    "internalType": "uint128",
                    "name": "ageMonths",
                    "type": "uint128"
                },
                {
                    "internalType": "string",
                    "name": "dateTimeLost",
                    "type": "string"
                },
                {
                    "internalType": "string",
                    "name": "description",
                    "type": "string"
                },
                {
                    "internalType": "string",
                    "name": "imageUrl",
                    "type": "string"
                },
                {
                    "internalType": "string",
                    "name": "lastSeenLocation",
                    "type": "string"
                },
                {
                    "internalType": "string",
                    "name": "contactName",
                    "type": "string"
                },
                {
                    "internalType": "string",
                    "name": "contactPhone",
                    "type": "string"
                },
                {
                    "internalType": "string",
                    "name": "contactEmail",
                    "type": "string"
                },
                {
                    "internalType": "uint128",
                    "name": "celoBounty",
                    "type": "uint128"
                },
                {
                    "internalType": "uint128",
                    "name": "cUSDBounty",
                    "type": "uint128"
                },
                {
                    "internalType": "uint128",
                    "name": "USDTBounty",
                    "type": "uint128"
                },
                {
                    "internalType": "uint128",
                    "name": "gDollarBounty",
                    "type": "uint128"
                },
                {
                    "internalType": "enum PetTrace.PetStatus",
                    "name": "status",
                    "type": "uint8"
                },
                {
                    "internalType": "bool",
                    "name": "ownerConfirmed",
                    "type": "bool"
                },
                {
                    "internalType": "bool",
                    "name": "finderConfirmed",
                    "type": "bool"
                },
                {
                    "internalType": "address",
                    "name": "finder",
                    "type": "address"
                }
            ],
            "stateMutability": "view",
            "type": "function"
        },
        {
            "inputs": [
                {
                    "internalType": "string",
                    "name": "name",
                    "type": "string"
                },
                {
                    "internalType": "string",
                    "name": "breed",
                    "type": "string"
                },
                {
                    "internalType": "string",
                    "name": "gender",
                    "type": "string"
                },
                {
                    "internalType": "uint128",
                    "name": "sizeCm",
                    "type": "uint128"
                },
                {
                    "internalType": "uint128",
                    "name": "ageMonths",
                    "type": "uint128"
                },
                {
                    "internalType": "string",
                    "name": "dateTimeLost",
                    "type": "string"
                },
                {
                    "internalType": "string",
                    "name": "description",
                    "type": "string"
                },
                {
                    "internalType": "string",
                    "name": "imageUrl",
                    "type": "string"
                },
                {
                    "internalType": "string",
                    "name": "lastSeenLocation",
                    "type": "string"
                },
                {
                    "internalType": "string",
                    "name": "contactName",
                    "type": "string"
                },
                {
                    "internalType": "string",
                    "name": "contactPhone",
                    "type": "string"
                },
                {
                    "internalType": "string",
                    "name": "contactEmail",
                    "type": "string"
                },
                {
                    "internalType": "uint128",
                    "name": "cUSDBounty",
                    "type": "uint128"
                },
                {
                    "internalType": "uint128",
                    "name": "gDollarBounty",
                    "type": "uint128"
                },
                {
                    "internalType": "uint128",
                    "name": "USDTBounty",
                    "type": "uint128"
                }
            ],
            "name": "postLostPet",
            "outputs": [],
            "stateMutability": "payable",
            "type": "function"
        },
        {
            "inputs": [
                {
                    "internalType": "uint256",
                    "name": "",
                    "type": "uint256"
                }
            ],
            "name": "postTime",
            "outputs": [
                {
                    "internalType": "uint256",
                    "name": "",
                    "type": "uint256"
                }
            ],
            "stateMutability": "view",
            "type": "function"
        },
        {
            "inputs": [
                {
                    "internalType": "uint256",
                    "name": "petId",
                    "type": "uint256"
                },
                {
                    "internalType": "string",
                    "name": "evidenceUrl",
                    "type": "string"
                }
            ],
            "name": "submitFinderReport",
            "outputs": [],
            "stateMutability": "nonpayable",
            "type": "function"
        },
        {
            "inputs": [
                {
                    "internalType": "address",
                    "name": "newAdmin",
                    "type": "address"
                }
            ],
            "name": "transferAdmin",
            "outputs": [],
            "stateMutability": "nonpayable",
            "type": "function"
        }
    ],
    "bytecode": "0x6080806040523460355760008054610100600160a81b0319163360081b610100600160a81b0316179055614838908161003b8239f35b600080fdfe61048080604052600436101561001457600080fd5b60003560e01c9081630b5d39fa14613d1c575080630da92f6814613caa5780631850e3a714613c7e5780633f26decd14613b7c5780633fa8be3214613b59578063403f8cc714613b3b57806342c48ded14613a1757806344021ad71461363a578063465c66e91461360b5780634a341581146135df578063543df5a31461335a57806354bb73e1146119065780635521aac51461159d5780635b236d97146113c15780635e23985b1461126157806375829def1461119c5780638b504c17146111315780639dc5ac7214610baf578063a06e00611461101d578063b213aa3714610e46578063b3035b6414610ce8578063b4e849bf14610bb4578063b83056e514610baf578063c189205814610b80578063cfb869bf146108f9578063d25a6f05146108cd578063d32bfb6c146104e1578063d74a48a4146104b5578063d89fd4b41461021a578063ee7afb1c146101eb578063f677b0b7146101b25763f851a4401461018057600080fd5b346101ad5760003660031901126101ad5760005460405160089190911c6001600160a01b03168152602090f35b600080fd5b346101ad5760203660031901126101ad576004356101d36001548210614250565b60005260076020526020604060002054604051908152f35b346101ad5760003660031901126101ad5760206040517362b8b11039fcfe5ab0c56e502b1c372a3d2a9c7a8152f35b346101ad5760203660031901126101ad57600435600154811061023c90614250565b600052600260205260406000208054600160a01b60019003600183015416600583015491600d84015493600e81015492600f820154946002830161027f90613e12565b9061028c60038501613e12565b9061029960048601613e12565b906102a660068701613e12565b906102b360078801613e12565b926102c060088901613e12565b946102cd60098a01613e12565b966102da600a8b01613e12565b986102e7600b8c01613e12565b9a600c016102f490613e12565b9b6040516101405261014051526101405160200152610140516040016102c09052610140516102c00161032691613ed9565b610140518103610140516060015261033d91613ed9565b610140518103610140516080015261035491613ed9565b906001600160801b0381166101405160a0015260801c6101405160c001526101405181036101405160e0015261038991613ed9565b6101405181036101405161010001526103a191613ed9565b6101405181036101405161012001526103b991613ed9565b6101405181036101405161014001526103d191613ed9565b6101405181036101405161016001526103e991613ed9565b61014051810361014051610180015261040191613ed9565b610140518103610140516101a0015261041991613ed9565b926001600160801b038116610140516101c0015260801c610140516101e001528060801c6101405161020001526001600160801b0316610140516102200152610140516102400160ff82169061046e91613f48565b8060081c60ff1615156101405161026001528060101c60ff161515610140516102800152600160a01b600190039060181c16610140516102a0015261014051900361014051f35b346101ad5760203660031901126101ad5760043560005260066020526020604060002054604051908152f35b346101ad5760203660031901126101ad5760043580600052600260205261051960018060a01b036001604060002001541633146145c0565b600160005461052b60ff821615614291565b60ff191617600055806000526002602052604060002090600f8201805460ff811660038110156108b75761055f9015614583565b60181c6001600160a01b031661087257600d83018054600e909401805460009283905590829055838252600360209081526040808420849055600482528084208490556005909152822091909155815460ff19166002179091556001600160801b038084169390821691608090811c91901c848015801561084b575b5050806107a5575b81610701575b8261063f575b604080519586526020860191909152840152606083015233917f9f70c02b620041e5ef7926462e26f0e05d726f6e83957ba9b18db7e1c6a12c209080608081015b0390a36000805460ff19169055005b60405163a9059cbb60e01b81523360048201526024810184905260208160448160007348065fbbe25f71c9282ddf5e1cd6d6a887483d5e5af19081156106f5576000916106c6575b506105ef5760405162461bcd60e51b81526020600482015260126024820152711554d115081c99599d5b990819985a5b195960721b6044820152606490fd5b6106e8915060203d6020116106ee575b6106e08183613df1565b8101906141fa565b86610687565b503d6106d6565b6040513d6000823e3d90fd5b60405163a9059cbb60e01b81523360048201526024810183905260208160448160007362b8b11039fcfe5ab0c56e502b1c372a3d2a9c7a5af19081156106f557600091610786575b506105e95760405162461bcd60e51b815260206004820152601060248201526f11c9081c99599d5b990819985a5b195960821b6044820152606490fd5b61079f915060203d6020116106ee576106e08183613df1565b86610749565b60405163a9059cbb60e01b815233600482015260248101829052602081604481600073765de816845861e75a25fca122bb6898b8b1282a5af19081156106f55760009161082c575b506105e35760405162461bcd60e51b815260206004820152601260248201527118d554d1081c99599d5b990819985a5b195960721b6044820152606490fd5b610845915060203d6020116106ee576106e08183613df1565b866107ed565b600090610869575b600080809381933390f1156106f55784866105db565b506108fc610853565b60405162461bcd60e51b815260206004820152601760248201527f46696e64657220616c72656164792061737369676e65640000000000000000006044820152606490fd5b634e487b7160e01b600052602160045260246000fd5b346101ad5760203660031901126101ad5760043560005260046020526020604060002054604051908152f35b346101ad5760203660031901126101ad57600435600052600260205260406000208054600160a01b60019003600183015416916002810161093990613e12565b61094560038301613e12565b61095160048401613e12565b600584015461096260068601613e12565b61096e60078701613e12565b61097a60088801613e12565b9161098760098901613e12565b93610994600a8a01613e12565b956109a1600b8b01613e12565b976109ae600c8c01613e12565b99600d8c01549d600e8d01549c600f01549d6040516101a0526101a051526101a051602001526101a0516040016102c090526101a0516102c0016109f191613ed9565b6101a05181036101a05160600152610a0891613ed9565b6101a05181036101a05160800152610a1f91613ed9565b906001600160801b0381166101a05160a0015260801c6101a05160c001526101a05181036101a05160e00152610a5491613ed9565b6101a05181036101a0516101000152610a6c91613ed9565b6101a05181036101a0516101200152610a8491613ed9565b6101a05181036101a0516101400152610a9c91613ed9565b6101a05181036101a0516101600152610ab491613ed9565b6101a05181036101a0516101800152610acc91613ed9565b6101a05181036101a0516101a00152610ae491613ed9565b926001600160801b0381166101a0516101c0015260801c6101a0516101e001526001600160801b0381166101a051610200015260801c6101a05161022001526101a0516102400160ff821690610b3991613f48565b8060081c60ff1615156101a05161026001528060101c60ff1615156101a0516102800152600160a01b600190039060181c166101a0516102a001526101a05190036101a051f35b346101ad5760003660031901126101ad5760206040517348065fbbe25f71c9282ddf5e1cd6d6a887483d5e8152f35b61419d565b346101ad5760203660031901126101ad57600435610bd56001548210614250565b60005260076020526040600020805490610bee826143b3565b91610bfc6040519384613df1565b80835260208301809260005260206000206000915b838310610ca357848660405191829160208301906020845251809152604083019060408160051b85010192916000905b828210610c5057505050500390f35b919360019193955060208091603f19898203018552875190848060a01b038251168152604080610c8d858501516060878601526060850190613ed9565b9301519101529601920192018594939192610c41565b60036020600192604051610cb681613dd6565b848060a01b038654168152610ccc858701613e12565b8382015260028601546040820152815201920192019190610c11565b346101ad5760203660031901126101ad57600435610d096001548210614250565b6001600054610d1b60ff821615614291565b60ff1916176000558060005260026020526040600020600f81019060ff82541660038110156108b757610d4e9015614583565b600101546001600160a01b03163314610e085780543360181b6301000000600160b81b031662010000600160b81b031990911617620100001780825560081c60ff16610dd0575b5060405190600082527fc7db73a2d1dc7fd351b6549efad129bbf568e618dbbe683abfa0d1550a96e5ae60203393a36000805460ff19169055005b805460ff1916600117905533817f2c54217aed12a18c71e20e5a6a3f13f8cfddbb2c3a0a5f409861478c7fd39e81600080a381610d95565b60405162461bcd60e51b815260206004820152601660248201527527bbb732b91031b0b73737ba103132903334b73232b960511b6044820152606490fd5b346101ad5760403660031901126101ad576024356001600160a01b038116906004358282036101ad57806000526002602052610e9360018060a01b036001604060002001541633146145c0565b6001600054610ea560ff821615614291565b60ff191617600055806000526002602052600f60406000200160ff81541660038110156108b757610ed69015614583565b8315610fdf5760009260005b836000526007602052604060002054811015610fd65783600052600760205285610f10826040600020613d4e565b50546001600160a01b031614610f2857600101610ee2565b509091925060015b15610f995781546301000000600160b81b03191660189190911b6301000000600160b81b0316178155805462ffffff1916620101011790557f2c54217aed12a18c71e20e5a6a3f13f8cfddbb2c3a0a5f409861478c7fd39e81600080a36000805460ff19169055005b60405162461bcd60e51b815260206004820152601560248201527446696e646572206e6f7420696e207265706f72747360581b6044820152606490fd5b50909192610f30565b60405162461bcd60e51b8152602060048201526016602482015275496e76616c69642066696e646572206164647265737360501b6044820152606490fd5b346101ad5761102b36613d38565b8101600081831161111b578190600154809311611113575b835b8281106110d35750611056906143ca565b916000935b828110611087575061107c9350604051938493604085526040850190613f14565b911060208301520390f35b80600052600260205260ff600f604060002001541660038110156108b757156110b3575b60010161105b565b936110cb81866110c5600194886144f3565b526143a4565b9490506110ab565b80600052600260205260ff600f604060002001541660038110156108b757156110ff575b600101611045565b9061110b6001916143a4565b9190506110f7565b829150611043565b634e487b7160e01b600052601160045260246000fd5b346101ad5760003660031901126101ad57600080600154905b81811061115c57602083604051908152f35b80600052600260205260ff600f604060002001541660038110156108b75715611188575b60010161114a565b916111946001916143a4565b929050611180565b346101ad5760203660031901126101ad576111b5613efe565b6000546111d033600883901c6001600160a01b0316146141c2565b6001600160a01b03821691821561122a57610100600160a81b031990911660089190911b610100600160a81b03161760009081557f7ce7ec0b50378fb6c0186ffb5f48325f6593fcb4ca4386f21861af3129188f5c9080a2005b60405162461bcd60e51b815260206004820152600f60248201526e496e76616c6964206164647265737360881b6044820152606490fd5b346101ad5760203660031901126101ad5760043580600052600260205261129960018060a01b036001604060002001541633146145c0565b60016000546112ab60ff821615614291565b60ff191617600055806000526002602052600f604060002001805460ff811660038110156108b7576112dd9015614583565b601881901c6001600160a01b0316156113875761ff0019166101001780825560101c60ff16611342575b5060405190600182527fc7db73a2d1dc7fd351b6549efad129bbf568e618dbbe683abfa0d1550a96e5ae60203393a36000805460ff19169055005b805460ff19166001179081905560181c6001600160a01b0316817f2c54217aed12a18c71e20e5a6a3f13f8cfddbb2c3a0a5f409861478c7fd39e81600080a381611307565b60405162461bcd60e51b8152602060048201526012602482015271139bc8199a5b99195c88185cdcda59db995960721b6044820152606490fd5b346101ad5760003660031901126101ad576001546113de816143fc565b9060005b81811061140357604051602080825281906113ff90820186613f55565b0390f35b8060019160005260026020526040600020600f6040519161142383613dba565b80548352848060a01b038582015416602084015261144360028201613e12565b604084015261145460038201613e12565b606084015261146560048201613e12565b608084015260058101546001600160801b03811660a085015260801c60c084015261149260068201613e12565b60e08401526114a360078201613e12565b6101008401526114b560088201613e12565b6101208401526114c760098201613e12565b6101408401526114d9600a8201613e12565b6101608401526114eb600b8201613e12565b6101808401526114fd600c8201613e12565b6101a0840152600d8101546001600160801b0381166101c085015260801c6101e0840152600e8101546001600160801b03811661020085015260801c610220840152015461155260ff82166102408401614507565b60ff8160081c16151561026083015260ff8160101c161515610280830152838060a01b039060181c166102a082015261158b82866144f3565b5261159681856144f3565b50016113e2565b346101ad5760403660031901126101ad576004356024356001600160401b0381116101ad576115d0903690600401614170565b90916115df6001548210614250565b60016000546115f160ff821615614291565b60ff191617600055806000526002602052604060002060ff600f8201541660038110156108b7576116229015614583565b600101546001600160a01b031633146118cb57600a821061188f5780600052600760205260406000209260405161165881613dd6565b338152611666368584614513565b946020820195865260408201904282528054680100000000000000008110156118635761169891600182018155613d4e565b929092611879575182546001600160a01b0319166001600160a01b03919091161782559451805190959060018301906001600160401b038111611863576116df8254613d80565b601f811161181b575b506020601f821160011461178e57908060029493927fbd5e23363d3a2ced039666d693de91be3d185f3ac63b315a2cf2c67f4a0825af98999a600092611783575b50508160011b916000199060031b1c19161790555b5191015583604051916040835281604084015260608301376000606085830101524260208201526060813395601f80199101168101030190a36000805460ff19169055005b015190508a80611729565b601f1982169883600052816000209960005b818110611803575099600192849260029796957fbd5e23363d3a2ced039666d693de91be3d185f3ac63b315a2cf2c67f4a0825af9b9c9d106117ea575b505050811b01905561173e565b015160001960f88460031b161c191690558a80806117dd565b838301518c556001909b019a602093840193016117a0565b826000526020600020601f830160051c81019160208410611859575b601f0160051c01905b81811061184d57506116e8565b60008155600101611840565b9091508190611837565b634e487b7160e01b600052604160045260246000fd5b634e487b7160e01b600052600060045260246000fd5b60405162461bcd60e51b8152602060048201526014602482015273125b9d985b1a5908195d9a59195b98d94815549360621b6044820152606490fd5b60405162461bcd60e51b815260206004820152601360248201527213dddb995c8818d85b9b9bdd081c995c1bdc9d606a1b6044820152606490fd5b6101e03660031901126101ad576004356001600160401b0381116101ad57611932903690600401614170565b6103e0526103c0526024356001600160401b0381116101ad57611959903690600401614170565b6103a052610120526044356001600160401b0381116101ad57611980903690600401614170565b61016052610460526064356104408190526001600160801b03811690036101ad576084356102008190526001600160801b03811690036101ad5760a4356001600160401b0381116101ad576119d9903690600401614170565b610220526102805260c4356001600160401b0381116101ad57611a00903690600401614170565b6102a0526102c05260e4356001600160401b0381116101ad57611a27903690600401614170565b610420526102e052610104356001600160401b0381116101ad57611a4f903690600401614170565b61032052610340526001600160401b0361012435116101ad57611a783661012435600401614170565b6104005261038052610144356001600160401b0381116101ad57611aa0903690600401614170565b61036052610300526001600160401b0361016435116101ad57611ac93661016435600401614170565b6102605261024052610184356101e08190526001600160801b03811690036101ad576101a4356101c08190526001600160801b03811690036101ad576101c4356101808190526001600160801b03811690036101ad576001600054611b3160ff821615614291565b60ff191617600055678ac7230489e80000341161331d5769021e19e0c9bab24000006001600160801b036101e05116116132e05769021e19e0c9bab24000006001600160801b036101805116116132a35769021e19e0c9bab24000006001600160801b036101c0511611613268573415801590613253575b801561323e575b8015613229575b156131f25760406101008190528051611bf291611bd49082613df1565b60048152634e616d6560e01b60208201526103e0516103c05161462c565b610100518051611c2591611c069082613df1565b6005815264109c99595960da1b60208201526103a0516101205161462c565b610100518051611d1091611c399082613df1565b600681526523b2b73232b960d11b6020820152611cc5611c60366101605161046051614513565b611cc08151600181101590816131e6575b50610100515190611cbb600f6020848951611c92818c858086019101613eb6565b81016e081b195b99dd1a081a5b9d985b1a59608a1b838201520301601019810185520183613df1565b6145fc565b6147c1565b15611cbb60106020610100515185611ce68297518092858086019101613eb6565b81016f2063616e6e6f7420626520626c616e6b60801b838201520301600f19810185520183613df1565b6101005150611dcf611ce66101005151611d2d6101005182613df1565b600b8152611cbb60106020808401936a2232b9b1b934b83a34b7b760a91b8552611db9611d61366102a0516102c051614513565b611cc08151600a81101590816131d9575b50610100515190611cbb600f88848d611d918b51809285850190613eb6565b81016e081b195b99dd1a081a5b9d985b1a59608a1b8382015203018a19810185520183613df1565b1594610100515196879251809285850190613eb6565b6101005150611e4d611ce66101005151611dec6101005182613df1565b60098152611cbb601060208084019368125b5859d94815549360ba1b8552611db9611e1e36610420516102e051614513565b611cc08151600a81101590816131cd5750610100515190611cbb600f88848d611d918b51809285850190613eb6565b6101005150611eca611ce66101005151611e6a6101005182613df1565b60088152611cbb6010602080840193672637b1b0ba34b7b760c11b8552611db9611e9b366103205161034051614513565b611cc08151600581101590816131cd5750610100515190611cbb600f88848d611d918b51809285850190613eb6565b6101005150611f4b611ce66101005151611ee76101005182613df1565b600c8152611cbb60106020808401936b436f6e74616374206e616d6560a01b8552611db9611f1c366104005161038051614513565b611cc08151600281101590816131c15750610100515190611cbb600f88848d611d918b51809285850190613eb6565b6101005150611fcd611ce66101005151611f686101005182613df1565b600d8152611cbb60106020808401936c436f6e746163742070686f6e6560981b8552611db9611f9e366103605161030051614513565b611cc08151600581101590816131b55750610100515190611cbb600f88848d611d918b51809285850190613eb6565b600a6001600160801b03610440511610158061319e575b156131685760016001600160801b036102005116101580613151575b1561311c5761201e612019366102605161024051614513565b61471b565b156130e5576001600160801b036101c05116613049575b6001600160801b036101e05116612fad575b6001600160801b036101805116612ed6575b60015460e052610100515160c05261207260c051613dba565b60e05160c0515233602060c0510152612092366103e0516103c051614513565b6101005160c05101526120ac366103a05161012051614513565b606060c05101526120c4366101605161046051614513565b608060c05101526001600160801b03610440511660a060c05101526001600160801b03610200511660c080510152612103366102205161028051614513565b60e060c051015261211b366102a0516102c051614513565b61010060c051015261213436610420516102e051614513565b61012060c051015261214d366103205161034051614513565b61014060c0510152612166366104005161038051614513565b61016060c051015261217f366103605161030051614513565b61018060c0510152612198366102605161024051614513565b6101a060c05101526001600160801b0334166101c060c05101526001600160801b036101e051166101e060c05101526001600160801b03610180511661020060c05101526001600160801b036101c0511661022060c0510152600061024060c0510152600061026060c0510152600061028060c051015260006102a060c051015260e05160005260026020526101005160002060c05151815560018060a01b03602060c051015116600182019060018060a01b03166bffffffffffffffffffffffff60a01b8254161790556101005160c05101518051906001600160401b03821161186357819061228c6002850154613d80565b601f8111612e83575b50602090601f8311600114612e1257600092612e07575b50508160011b916000199060031b1c19161760028201555b606060c05101518051906001600160401b0382116118635781906122eb6003850154613d80565b601f8111612db4575b50602090601f8311600114612d4357600092612d38575b50508160011b916000199060031b1c19161760038201555b608060c05101518051906001600160401b03821161186357819061234a6004850154613d80565b601f8111612ce5575b50602090601f8311600114612c7457600092612c69575b50508160011b916000199060031b1c19161760048201555b60c0805160a081015191015160801b6001600160801b0319166001600160801b0391909116176005820155600681019060e060c05101519182516001600160401b038111611863576123d48254613d80565b601f8111612c21575b506020601f8211600114612bbc5781929394600092612bb1575b50508160011b916000199060031b1c19161790555b600781019061010060c05101519182516001600160401b038111611863576124348254613d80565b601f8111612b69575b506020601f8211600114612b045781929394600092612af9575b50508160011b916000199060031b1c19161790555b600881019061012060c05101519182516001600160401b038111611863576124948254613d80565b601f8111612ab1575b506020601f8211600114612a4c5781929394600092612a41575b50508160011b916000199060031b1c19161790555b600981019061014060c05101519182516001600160401b038111611863576124f48254613d80565b601f81116129f9575b506020601f82116001146129945781929394600092612989575b50508160011b916000199060031b1c19161790555b600a81019061016060c05101519182516001600160401b038111611863576125548254613d80565b601f8111612941575b506020601f82116001146128dc57819293946000926128d1575b50508160011b916000199060031b1c19161790555b600b81019061018060c05101519182516001600160401b038111611863576125b48254613d80565b601f8111612889575b506020601f82116001146128245781929394600092612819575b50508160011b916000199060031b1c19161790555b600c8101906101a060c0510151918251926001600160401b038411611863576126158254613d80565b601f81116127d1575b50602090601f851160011461276857600f94916000918361275d575b50508160011b916000199060031b1c19161790555b60c0516101c08101516101e0820151608090811b6001600160801b03199081166001600160801b0393841617600d86015561020084015161022085015190921b16911617600e8301556102400151910160038210156108b757805460c0516102608101516102808201516102a0909201516001600160b81b031990931660ff9095169490941793151560081b61ff00169390931792151560101b62ff0000169290921760189290921b6301000000600160b81b0316919091179055600060015481526006602052426101005182205561274f60015433817ff6be169e9242db299e4065f846c02e09b60f1421201248fe94d6f552e8c8bd448580a36143a4565b600155805460ff1916815580f35b01519050858061263a565b90601f1985169183600052816000209260005b8181106127b95750916001939187600f9894106127a0575b505050811b01905561264f565b015160001960f88460031b161c19169055858080612793565b9293602060018192878601518155019501930161277b565b826000526020600020601f860160051c8101916020871061280f575b601f0160051c01905b818110612803575061261e565b600081556001016127f6565b90915081906127ed565b0151905084806125d7565b601f1982169083600052806000209160005b81811061287157509583600195969710612858575b505050811b0190556125ec565b015160001960f88460031b161c1916905584808061284b565b9192602060018192868b015181550194019201612836565b826000526020600020601f830160051c810191602084106128c7575b601f0160051c01905b8181106128bb57506125bd565b600081556001016128ae565b90915081906128a5565b015190508480612577565b601f1982169083600052806000209160005b81811061292957509583600195969710612910575b505050811b01905561258c565b015160001960f88460031b161c19169055848080612903565b9192602060018192868b0151815501940192016128ee565b826000526020600020601f830160051c8101916020841061297f575b601f0160051c01905b818110612973575061255d565b60008155600101612966565b909150819061295d565b015190508480612517565b601f1982169083600052806000209160005b8181106129e1575095836001959697106129c8575b505050811b01905561252c565b015160001960f88460031b161c191690558480806129bb565b9192602060018192868b0151815501940192016129a6565b826000526020600020601f830160051c81019160208410612a37575b601f0160051c01905b818110612a2b57506124fd565b60008155600101612a1e565b9091508190612a15565b0151905084806124b7565b601f1982169083600052806000209160005b818110612a9957509583600195969710612a80575b505050811b0190556124cc565b015160001960f88460031b161c19169055848080612a73565b9192602060018192868b015181550194019201612a5e565b826000526020600020601f830160051c81019160208410612aef575b601f0160051c01905b818110612ae3575061249d565b60008155600101612ad6565b9091508190612acd565b015190508480612457565b601f1982169083600052806000209160005b818110612b5157509583600195969710612b38575b505050811b01905561246c565b015160001960f88460031b161c19169055848080612b2b565b9192602060018192868b015181550194019201612b16565b826000526020600020601f830160051c81019160208410612ba7575b601f0160051c01905b818110612b9b575061243d565b60008155600101612b8e565b9091508190612b85565b0151905084806123f7565b601f1982169083600052806000209160005b818110612c0957509583600195969710612bf0575b505050811b01905561240c565b015160001960f88460031b161c19169055848080612be3565b9192602060018192868b015181550194019201612bce565b826000526020600020601f830160051c81019160208410612c5f575b601f0160051c01905b818110612c5357506123dd565b60008155600101612c46565b9091508190612c3d565b01519050838061236a565b92506004840160005280600020906000935b601f1984168510612cca576001945083601f19811610612cb1575b505050811b016004820155612382565b015160001960f88460031b161c19169055838080612ca1565b81810151835560209485019460019093019290910190612c86565b909150600484016000526020600020601f840160051c810160208510612d31575b90849392915b601f830160051c82018110612d22575050612353565b60008155859450600101612d0c565b5080612d06565b01519050838061230b565b92506003840160005280600020906000935b601f1984168510612d99576001945083601f19811610612d80575b505050811b016003820155612323565b015160001960f88460031b161c19169055838080612d70565b81810151835560209485019460019093019290910190612d55565b909150600384016000526020600020601f840160051c810160208510612e00575b90849392915b601f830160051c82018110612df15750506122f4565b60008155859450600101612ddb565b5080612dd5565b0151905083806122ac565b92506002840160005280600020906000935b601f1984168510612e68576001945083601f19811610612e4f575b505050811b0160028201556122c4565b015160001960f88460031b161c19169055838080612e3f565b81810151835560209485019460019093019290910190612e24565b909150600284016000526020600020601f840160051c810160208510612ecf575b90849392915b601f830160051c82018110612ec0575050612295565b60008155859450600101612eaa565b5080612ea4565b610100515160a0526323b872dd60e01b60a05152602060a05160a051612f06610180513033600460a05101614559565b0360a05160007348065fbbe25f71c9282ddf5e1cd6d6a887483d5e5af160805260805115612f9f576000608051612f66575b612f4190614361565b60015460005260056020526001600160801b0361018051166101005160002055612059565b5060203d602011612f98575b612f9181612f85612f419360a051613df1565b60a0510160a0516141fa565b9050612f38565b503d612f72565b61010051513d6000823e3d90fd5b61010051516323b872dd60e01b815260208180612fd26101e051303360048501614559565b0381600073765de816845861e75a25fca122bb6898b8b1282a5af18015612f9f576130059160009161302a575b506142dd565b60015460005260036020526001600160801b036101e051166101005160002055612047565b613043915060203d6020116106ee576106e08183613df1565b82612fff565b61010051516323b872dd60e01b81526020818061306e6101c051303360048501614559565b038160007362b8b11039fcfe5ab0c56e502b1c372a3d2a9c7a5af18015612f9f576130a1916000916130c6575b50614320565b60015460005260046020526001600160801b036101c051166101005160002055612035565b6130df915060203d6020116106ee576106e08183613df1565b8261309b565b610100515162461bcd60e51b815260206004820152600d60248201526c125b9d985b1a5908195b585a5b609a1b6044820152606490fd5b610100515162461bcd60e51b815260206004820152600b60248201526a496e76616c69642061676560a81b6044820152606490fd5b5060f06001600160801b0361020051161115612000565b610100515162461bcd60e51b815260206004820152600c60248201526b496e76616c69642073697a6560a01b6044820152606490fd5b5060c86001600160801b0361044051161115611fe4565b6014915011158b611d72565b6064915011158b611d72565b60c8915011158b611d72565b6101f4915011158b611d72565b600a9150111586611c71565b60405162461bcd60e51b815260206004820152600f60248201526e109bdd5b9d1e481c995c5d5a5c9959608a1b6044820152606490fd5b506001600160801b0361018051161515611bb7565b506001600160801b036101c051161515611bb0565b506001600160801b036101e051161515611ba9565b60405162461bcd60e51b8152602060048201526013602482015272472420626f756e747920746f6f206c6172676560681b6044820152606490fd5b60405162461bcd60e51b81526020600482015260156024820152745553445420626f756e747920746f6f206c6172676560581b6044820152606490fd5b60405162461bcd60e51b81526020600482015260156024820152746355534420626f756e747920746f6f206c6172676560581b6044820152606490fd5b60405162461bcd60e51b815260206004820152601560248201527443454c4f20626f756e747920746f6f206c6172676560581b6044820152606490fd5b346101ad5760003660031901126101ad576001546000805b82811061359f575061338c613386826143ca565b916143fc565b600092835b8181106133c2576133b4846113ff85604051938493604085526040850190613f14565b908382036020850152613f55565b80600052600260205260ff600f604060002001541660038110156108b757156133ee575b600101613391565b936135978186613400600194886144f3565b528660005260026020526040600020600f6040519161341e83613dba565b80548352858060a01b038682015416602084015261343e60028201613e12565b604084015261344f60038201613e12565b606084015261346060048201613e12565b608084015260058101546001600160801b03811660a085015260801c60c084015261348d60068201613e12565b60e084015261349e60078201613e12565b6101008401526134b060088201613e12565b6101208401526134c260098201613e12565b6101408401526134d4600a8201613e12565b6101608401526134e6600b8201613e12565b6101808401526134f8600c8201613e12565b6101a0840152600d8101546001600160801b0381166101c085015260801c6101e0840152600e8101546001600160801b03811661020085015260801c610220840152015461354d60ff82166102408401614507565b60ff8160081c16151561026083015260ff8160101c161515610280830152848060a01b039060181c166102a082015261358682876144f3565b5261359181866144f3565b506143a4565b9490506133e6565b80600052600260205260ff600f604060002001541660038110156108b757156135cb575b600101613372565b906135d76001916143a4565b9190506135c3565b346101ad5760203660031901126101ad5760043560005260056020526020604060002054604051908152f35b346101ad5760003660031901126101ad57602060405173765de816845861e75a25fca122bb6898b8b1282a8152f35b346101ad5760203660031901126101ad5760043561365b6001548210614250565b600160005461366d60ff821615614291565b60ff191617600055806000526002602052604060002090600f82015460ff811660038110156108b7576001036139de5760181c6001600160a01b031633036139ac57600d820180546001600160801b0381169384159182801580946139a0575b8015613990575b801561397a575b1561394957600e929092018054600095869055908590558585526003602090815260408087208790556004825280872087905560059091528520949094556001600160801b03841693608090811c9391901c918691613922575b5050806138ae575b8161382d575b8261378e575b604080519586526020860191909152840152606083015233917f29c73474c25316f69215723f555c11ed783cb69fa3aabdfb464fde72486b22e7908060808101610630565b60405163a9059cbb60e01b8152336004820152602481018490529260208460448160007348065fbbe25f71c9282ddf5e1cd6d6a887483d5e5af19081156106f557613806610630927f29c73474c25316f69215723f555c11ed783cb69fa3aabdfb464fde72486b22e79660009161380e575b50614361565b935050613749565b613827915060203d6020116106ee576106e08183613df1565b89613800565b604051630200057560e51b8152336004820152826024820152606060448201526000606482015260208160848160007362b8b11039fcfe5ab0c56e502b1c372a3d2a9c7a5af180156106f55761388a9160009161388f5750614320565b613743565b6138a8915060203d6020116106ee576106e08183613df1565b8761309b565b60405163a9059cbb60e01b815233600482015260248101829052602081604481600073765de816845861e75a25fca122bb6898b8b1282a5af180156106f5576138fe9160009161390357506142dd565b61373d565b61391c915060203d6020116106ee576106e08183613df1565b87612fff565b600090613940575b600080809381933390f1156106f5578486613735565b506108fc61392a565b60405162461bcd60e51b81526020600482015260096024820152684e6f20626f756e747960b81b6044820152606490fd5b506001600160801b03600e8401541615156136db565b50600e83015460801c15156136d4565b508160801c15156136cd565b60405162461bcd60e51b815260206004820152600a6024820152692737ba103334b73232b960b11b6044820152606490fd5b60405162461bcd60e51b815260206004820152601160248201527014195d081b9bdd08199bdd5b99081e595d607a1b6044820152606490fd5b346101ad5760203660031901126101ad57613a30613efe565b613a4860018060a01b0360005460081c1633146141c2565b6040516370a0823160e01b81523060048201526020816024817348065fbbe25f71c9282ddf5e1cd6d6a887483d5e5afa9081156106f557600091613b07575b5060405163a9059cbb60e01b81526001600160a01b039092166004830152602482015260208180604481015b038160007348065fbbe25f71c9282ddf5e1cd6d6a887483d5e5af180156106f557613ae691600091613ae8575b50614212565b005b613b01915060203d6020116106ee576106e08183613df1565b82613ae0565b90506020813d602011613b33575b81613b2260209383613df1565b810103126101ad5751613ab3613a87565b3d9150613b15565b346101ad5760003660031901126101ad576020600154604051908152f35b346101ad5760003660031901126101ad576020604051678ac7230489e800008152f35b346101ad5760203660031901126101ad57613b95613efe565b613bad60018060a01b0360005460081c1633146141c2565b6040516370a0823160e01b815230600482015260208160248173765de816845861e75a25fca122bb6898b8b1282a5afa9081156106f557600091613c4a575b5060405163a9059cbb60e01b81526001600160a01b039092166004830152602482015260208180604481015b0381600073765de816845861e75a25fca122bb6898b8b1282a5af180156106f557613ae691600091613ae85750614212565b90506020813d602011613c76575b81613c6560209383613df1565b810103126101ad5751613c18613bec565b3d9150613c58565b346101ad5760203660031901126101ad5760043560005260036020526020604060002054604051908152f35b346101ad57613cb836613d38565b90600052600760205260406000209081548110156101ad57613cd991613d4e565b5080546001600160a01b03166002613cf360018401613e12565b920154613d126040519384938452606060208501526060840190613ed9565b9060408301520390f35b346101ad5760003660031901126101ad57806276a70060209252f35b60409060031901126101ad576004359060243590565b8054821015613d6a576000526003602060002091020190600090565b634e487b7160e01b600052603260045260246000fd5b90600182811c92168015613db0575b6020831014613d9a57565b634e487b7160e01b600052602260045260246000fd5b91607f1691613d8f565b6102c081019081106001600160401b0382111761186357604052565b606081019081106001600160401b0382111761186357604052565b90601f801991011681019081106001600160401b0382111761186357604052565b9060405191826000825492613e2684613d80565b8084529360018116908115613e945750600114613e4d575b50613e4b92500383613df1565b565b90506000929192526020600020906000915b818310613e78575050906020613e4b9282010138613e3e565b6020919350806001915483858901015201910190918492613e5f565b905060209250613e4b94915060ff191682840152151560051b82010138613e3e565b60005b838110613ec95750506000910152565b8181015183820152602001613eb9565b90602091613ef281518092818552858086019101613eb6565b601f01601f1916010190565b600435906001600160a01b03821682036101ad57565b906020808351928381520192019060005b818110613f325750505090565b8251845260209384019390920191600101613f25565b9060038210156108b75752565b9080602083519182815201916020808360051b8301019401926000915b838310613f8157505050505090565b9091929394601f1982820301835285519081518152600160a01b6001900360208301511660208201526040820151604082016102c090526102c08201613fc691613ed9565b6060830151908281036060840152613fdd91613ed9565b6080830151908281036080840152613ff491613ed9565b60a08301516001600160801b031660a083015260c08301516001600160801b031660c083015260e08301519082810360e084015261403191613ed9565b6101008301519082810361010084015261404a91613ed9565b6101208301519082810361012084015261406391613ed9565b6101408301519082810361014084015261407c91613ed9565b6101608301519082810361016084015261409591613ed9565b610180830151908281036101808401526140ae91613ed9565b6101a0830151908281036101a08401526140c791613ed9565b916101c08101516001600160801b03166101c08301526101e08101516001600160801b03166101e08301526102008101516001600160801b03166102008301526102208101516001600160801b0316610220830152610240810151610240830161413091613f48565b61026081810151151590830152610280808201511515908301526102a0908101516001600160a01b03169101529460209081019493600101920190613f72565b9181601f840112156101ad578235916001600160401b0383116101ad57602083818601950101116101ad57565b346101ad5760003660031901126101ad57602060405169021e19e0c9bab24000008152f35b156141c957565b60405162461bcd60e51b81526020600482015260096024820152682737ba1030b236b4b760b91b6044820152606490fd5b908160209103126101ad575180151581036101ad5790565b1561421957565b60405162461bcd60e51b815260206004820152600f60248201526e151c985b9cd9995c8819985a5b1959608a1b6044820152606490fd5b1561425757565b60405162461bcd60e51b815260206004820152601260248201527114195d08191bd95cc81b9bdd08195e1a5cdd60721b6044820152606490fd5b1561429857565b60405162461bcd60e51b815260206004820152601f60248201527f5265656e7472616e637947756172643a207265656e7472616e742063616c6c006044820152606490fd5b156142e457565b60405162461bcd60e51b815260206004820152601460248201527318d554d1081d1c985b9cd9995c8819985a5b195960621b6044820152606490fd5b1561432757565b60405162461bcd60e51b815260206004820152601260248201527111c9081d1c985b9cd9995c8819985a5b195960721b6044820152606490fd5b1561436857565b60405162461bcd60e51b81526020600482015260146024820152731554d115081d1c985b9cd9995c8819985a5b195960621b6044820152606490fd5b600019811461111b5760010190565b6001600160401b0381116118635760051b60200190565b906143d4826143b3565b6143e16040519182613df1565b82815280926143f2601f19916143b3565b0190602036910137565b90614406826143b3565b6144136040519182613df1565b8281528092614424601f19916143b3565b019060005b82811061443557505050565b60209060405161444481613dba565b600081526000838201526060604082015260608082015260606080820152600060a0820152600060c0820152606060e08201526060610100820152606061012082015260606101408201526060610160820152606061018082015260606101a082015260006101c082015260006101e08201526000610200820152600061022082015260006102408201526000610260820152600061028082015260006102a082015282828501015201614429565b8051821015613d6a5760209160051b010190565b60038210156108b75752565b9291926001600160401b038211611863576040519161453c601f8201601f191660200184613df1565b8294818452818301116101ad578281602093846000960137010152565b6001600160a01b039182168152911660208201526001600160801b03909116604082015260600190565b1561458a57565b60405162461bcd60e51b815260206004820152600e60248201526d506574206e6f742061637469766560901b6044820152606490fd5b156145c757565b60405162461bcd60e51b815260206004820152600d60248201526c2737ba103832ba1037bbb732b960991b6044820152606490fd5b156146045750565b60405162461bcd60e51b815260206004820152908190614628906024830190613ed9565b0390fd5b614637913691614513565b805190600282101591826146fe575b50604051918351928060208601948060208301906146649188613eb6565b8101602081016e081b195b99dd1a081a5b9d985b1a59608a1b90520360200160101981018252600f016146979082613df1565b6146a0916145fc565b6146a9906147c1565b1591604051918291519081602084016146c192613eb6565b8101602081016f2063616e6e6f7420626520626c616e6b60801b905203602001600f19810182526010016146f59082613df1565b613e4b916145fc565b60321015915038614646565b908151811015613d6a570160200190565b60058151106147bb5760008091815b81518310156147a957600160fe1b6001600160f81b031961474b858561470a565b51160361476a5761476257600180925b019161472a565b505050600090565b918280614788575b61477f575b60019061475b565b60019350614777565b50601760f91b6001600160f81b03196147a1838561470a565b511614614772565b92915050816147b6575090565b905090565b50600090565b60005b81518110156147fb57600160fd1b6001600160f81b03196147e5838561470a565b5116036147f4576001016147c4565b5050600090565b505060019056fea2646970667358221220419e02731ce586a5cbcc4362b51db602fe2bb396189afd9d5234004a24dc896664736f6c634300081c0033",
    "linkReferences": {},
    "deployedLinkReferences": {}
}