{
  "contracts/PetTrace.sol": {
    "PetTrace": {
      "abi": [
        {
          "anonymous": false,
          "inputs": [
            {
              "indexed": true,
              "internalType": "uint256",
              "name": "petId",
              "type": "uint256"
            },
            {
              "indexed": true,
              "internalType": "address",
              "name": "finder",
              "type": "address"
            },
            {
              "indexed": false,
              "internalType": "uint256",
              "name": "ethAmount",
              "type": "uint256"
            },
            {
              "indexed": false,
              "internalType": "uint256",
              "name": "cusdAmount",
              "type": "uint256"
            }
          ],
          "name": "BountyClaimed",
          "type": "event"
        },
        {
          "anonymous": false,
          "inputs": [
            {
              "indexed": true,
              "internalType": "uint256",
              "name": "petId",
              "type": "uint256"
            },
            {
              "indexed": true,
              "internalType": "address",
              "name": "owner",
              "type": "address"
            },
            {
              "indexed": false,
              "internalType": "uint256",
              "name": "ethAmount",
              "type": "uint256"
            },
            {
              "indexed": false,
              "internalType": "uint256",
              "name": "cusdAmount",
              "type": "uint256"
            }
          ],
          "name": "BountyRefunded",
          "type": "event"
        },
        {
          "anonymous": false,
          "inputs": [
            {
              "indexed": true,
              "internalType": "uint256",
              "name": "petId",
              "type": "uint256"
            },
            {
              "indexed": true,
              "internalType": "address",
              "name": "confirmer",
              "type": "address"
            },
            {
              "indexed": false,
              "internalType": "bool",
              "name": "isOwner",
              "type": "bool"
            }
          ],
          "name": "ConfirmationAdded",
          "type": "event"
        },
        {
          "anonymous": false,
          "inputs": [
            {
              "indexed": true,
              "internalType": "uint256",
              "name": "petId",
              "type": "uint256"
            },
            {
              "indexed": true,
              "internalType": "address",
              "name": "finder",
              "type": "address"
            }
          ],
          "name": "PetFound",
          "type": "event"
        },
        {
          "anonymous": false,
          "inputs": [
            {
              "indexed": true,
              "internalType": "uint256",
              "name": "petId",
              "type": "uint256"
            },
            {
              "indexed": true,
              "internalType": "address",
              "name": "owner",
              "type": "address"
            }
          ],
          "name": "PetPosted",
          "type": "event"
        },
        {
          "inputs": [],
          "name": "CUSD_ADDRESS",
          "outputs": [
            {
              "internalType": "address",
              "name": "",
              "type": "address"
            }
          ],
          "stateMutability": "view",
          "type": "function"
        },
        {
          "inputs": [
            {
              "internalType": "uint256",
              "name": "petId",
              "type": "uint256"
            }
          ],
          "name": "cancelAndRefund",
          "outputs": [],
          "stateMutability": "nonpayable",
          "type": "function"
        },
        {
          "inputs": [
            {
              "internalType": "uint256",
              "name": "petId",
              "type": "uint256"
            }
          ],
          "name": "claimBounty",
          "outputs": [],
          "stateMutability": "nonpayable",
          "type": "function"
        },
        {
          "inputs": [
            {
              "internalType": "uint256",
              "name": "petId",
              "type": "uint256"
            }
          ],
          "name": "confirmFoundByOwner",
          "outputs": [],
          "stateMutability": "nonpayable",
          "type": "function"
        },
        {
          "inputs": [
            {
              "internalType": "uint256",
              "name": "",
              "type": "uint256"
            }
          ],
          "name": "escrowedCUSD",
          "outputs": [
            {
              "internalType": "uint256",
              "name": "",
              "type": "uint256"
            }
          ],
          "stateMutability": "view",
          "type": "function"
        },
        {
          "inputs": [],
          "name": "getAllLostPets",
          "outputs": [
            {
              "internalType": "uint256[]",
              "name": "",
              "type": "uint256[]"
            },
            {
              "components": [
                {
                  "internalType": "uint256",
                  "name": "id",
                  "type": "uint256"
                },
                {
                  "internalType": "address payable",
                  "name": "owner",
                  "type": "address"
                },
                {
                  "internalType": "string",
                  "name": "name",
                  "type": "string"
                },
                {
                  "internalType": "string",
                  "name": "breed",
                  "type": "string"
                },
                {
                  "internalType": "string",
                  "name": "gender",
                  "type": "string"
                },
                {
                  "internalType": "uint256",
                  "name": "sizeCm",
                  "type": "uint256"
                },
                {
                  "internalType": "uint256",
                  "name": "ageMonths",
                  "type": "uint256"
                },
                {
                  "internalType": "string",
                  "name": "dateTimeLost",
                  "type": "string"
                },
                {
                  "internalType": "string",
                  "name": "description",
                  "type": "string"
                },
                {
                  "internalType": "string",
                  "name": "imageUrl",
                  "type": "string"
                },
                {
                  "internalType": "string",
                  "name": "lastSeenLocation",
                  "type": "string"
                },
                {
                  "internalType": "string",
                  "name": "contactName",
                  "type": "string"
                },
                {
                  "internalType": "string",
                  "name": "contactPhone",
                  "type": "string"
                },
                {
                  "internalType": "string",
                  "name": "contactEmail",
                  "type": "string"
                },
                {
                  "internalType": "uint256",
                  "name": "ethBounty",
                  "type": "uint256"
                },
                {
                  "internalType": "uint256",
                  "name": "cusdBounty",
                  "type": "uint256"
                },
                {
                  "internalType": "bool",
                  "name": "isFound",
                  "type": "bool"
                },
                {
                  "internalType": "bool",
                  "name": "ownerConfirmed",
                  "type": "bool"
                },
                {
                  "internalType": "bool",
                  "name": "finderConfirmed",
                  "type": "bool"
                },
                {
                  "internalType": "address",
                  "name": "finder",
                  "type": "address"
                }
              ],
              "internalType": "struct PetTrace.Pet[]",
              "name": "",
              "type": "tuple[]"
            }
          ],
          "stateMutability": "view",
          "type": "function"
        },
        {
          "inputs": [],
          "name": "getContractCUSDBalance",
          "outputs": [
            {
              "internalType": "uint256",
              "name": "",
              "type": "uint256"
            }
          ],
          "stateMutability": "view",
          "type": "function"
        },
        {
          "inputs": [
            {
              "internalType": "uint256",
              "name": "petId",
              "type": "uint256"
            }
          ],
          "name": "getEscrowedCUSDBalance",
          "outputs": [
            {
              "internalType": "uint256",
              "name": "",
              "type": "uint256"
            }
          ],
          "stateMutability": "view",
          "type": "function"
        },
        {
          "inputs": [],
          "name": "getLostPetsCount",
          "outputs": [
            {
              "internalType": "uint256",
              "name": "",
              "type": "uint256"
            }
          ],
          "stateMutability": "view",
          "type": "function"
        },
        {
          "inputs": [
            {
              "internalType": "uint256",
              "name": "petId",
              "type": "uint256"
            }
          ],
          "name": "markAsFound",
          "outputs": [],
          "stateMutability": "nonpayable",
          "type": "function"
        },
        {
          "inputs": [],
          "name": "nextPetId",
          "outputs": [
            {
              "internalType": "uint256",
              "name": "",
              "type": "uint256"
            }
          ],
          "stateMutability": "view",
          "type": "function"
        },
        {
          "inputs": [
            {
              "internalType": "uint256",
              "name": "",
              "type": "uint256"
            }
          ],
          "name": "pets",
          "outputs": [
            {
              "internalType": "uint256",
              "name": "id",
              "type": "uint256"
            },
            {
              "internalType": "address payable",
              "name": "owner",
              "type": "address"
            },
            {
              "internalType": "string",
              "name": "name",
              "type": "string"
            },
            {
              "internalType": "string",
              "name": "breed",
              "type": "string"
            },
            {
              "internalType": "string",
              "name": "gender",
              "type": "string"
            },
            {
              "internalType": "uint256",
              "name": "sizeCm",
              "type": "uint256"
            },
            {
              "internalType": "uint256",
              "name": "ageMonths",
              "type": "uint256"
            },
            {
              "internalType": "string",
              "name": "dateTimeLost",
              "type": "string"
            },
            {
              "internalType": "string",
              "name": "description",
              "type": "string"
            },
            {
              "internalType": "string",
              "name": "imageUrl",
              "type": "string"
            },
            {
              "internalType": "string",
              "name": "lastSeenLocation",
              "type": "string"
            },
            {
              "internalType": "string",
              "name": "contactName",
              "type": "string"
            },
            {
              "internalType": "string",
              "name": "contactPhone",
              "type": "string"
            },
            {
              "internalType": "string",
              "name": "contactEmail",
              "type": "string"
            },
            {
              "internalType": "uint256",
              "name": "ethBounty",
              "type": "uint256"
            },
            {
              "internalType": "uint256",
              "name": "cusdBounty",
              "type": "uint256"
            },
            {
              "internalType": "bool",
              "name": "isFound",
              "type": "bool"
            },
            {
              "internalType": "bool",
              "name": "ownerConfirmed",
              "type": "bool"
            },
            {
              "internalType": "bool",
              "name": "finderConfirmed",
              "type": "bool"
            },
            {
              "internalType": "address",
              "name": "finder",
              "type": "address"
            }
          ],
          "stateMutability": "view",
          "type": "function"
        },
        {
          "inputs": [
            {
              "internalType": "string",
              "name": "name",
              "type": "string"
            },
            {
              "internalType": "string",
              "name": "breed",
              "type": "string"
            },
            {
              "internalType": "string",
              "name": "gender",
              "type": "string"
            },
            {
              "internalType": "uint256",
              "name": "sizeCm",
              "type": "uint256"
            },
            {
              "internalType": "uint256",
              "name": "ageMonths",
              "type": "uint256"
            },
            {
              "internalType": "string",
              "name": "dateTimeLost",
              "type": "string"
            },
            {
              "internalType": "string",
              "name": "description",
              "type": "string"
            },
            {
              "internalType": "string",
              "name": "imageUrl",
              "type": "string"
            },
            {
              "internalType": "string",
              "name": "lastSeenLocation",
              "type": "string"
            },
            {
              "internalType": "string",
              "name": "contactName",
              "type": "string"
            },
            {
              "internalType": "string",
              "name": "contactPhone",
              "type": "string"
            },
            {
              "internalType": "string",
              "name": "contactEmail",
              "type": "string"
            },
            {
              "internalType": "uint256",
              "name": "cusdBounty",
              "type": "uint256"
            }
          ],
          "name": "postLostPet",
          "outputs": [],
          "stateMutability": "payable",
          "type": "function"
        }
      ],
      "evm": {
        "bytecode": {
          "linkReferences": {},
          "object": "608080604052346015576124fe908161001b8239f35b600080fdfe61024080604052600436101561001457600080fd5b60003560e01c9081631850e3a71461221757508063403f8cc7146121f957806343dc70a71461110957806344021ad714610eae578063465c66e914610e7f5780634837201c14610e53578063543df5a3146109325780635e23985b146107d35780638b504c1714610773578063b3035b6414610603578063cfb869bf1461039f578063d32bfb6c1461014d5763eb462f7b146100af57600080fd5b34610134576000366003190112610134576040516370a0823160e01b815230600482015260208160248173874069fa1eb16d44d622f2e0ca25eea172369bc15afa801561014157600090610109575b602090604051908152f35b506020813d602011610139575b8161012360209383612303565b8101031261013457602090516100fe565b600080fd5b3d9150610116565b6040513d6000823e3d90fd5b346101345760203660031901126101345760043580600052600160205260406000209060018060a01b03600183015416330361036257601082015460ff81166103295760181c6001600160a01b03166102e457600e82016000600f825494018181549355558160005260026020526000604081205582801580156102bd575b505080610207575b60405192835260208301527f86cb66faabc06bafd75e6b3e987a6e463a3d8ec871056b659e5e7b566d92ad5460403393a3005b60405163a9059cbb60e01b815233600482015260248101829052602081604481600073874069fa1eb16d44d622f2e0ca25eea172369bc15af19081156101415760009161028e575b506101d45760405162461bcd60e51b815260206004820152601260248201527110d554d1081c99599d5b990819985a5b195960721b6044820152606490fd5b6102b0915060203d6020116102b6575b6102a88183612303565b8101906123c8565b8461024f565b503d61029e565b6000906102db575b600080809381933390f1156101415782846101cc565b506108fc6102c5565b60405162461bcd60e51b815260206004820152601760248201527f46696e64657220616c72656164792061737369676e65640000000000000000006044820152606490fd5b60405162461bcd60e51b815260206004820152601160248201527014195d08185b1c9958591e48199bdd5b99607a1b6044820152606490fd5b60405162461bcd60e51b815260206004820152601560248201527413db9b1e481bdddb995c8818d85b8818d85b98d95b605a1b6044820152606490fd5b3461013457602036600319011261013457600435600052600160205260406000208054600160a01b600190036001830154166101e052600282016103e290612324565b610220526103f260038301612324565b6103fe60048401612324565b600584015460068501549061041560078701612324565b61042160088801612324565b61042d60098901612324565b9161043a600a8a01612324565b93610447600b8b01612324565b95610454600c8c01612324565b97610461600d8d01612324565b99600e8d01546101c052600f8d01549c601001549b6040516102005261020051526101e0516102005160200152610200516040016102809052610200516102800161022051906104b09161226c565b61020051810361020051606001526104c79161226c565b61020051810361020051608001526104de9161226c565b916102005160a001526102005160c001526102005181036102005160e001526105069161226c565b61020051810361020051610100015261051e9161226c565b6102005181036102005161012001526105369161226c565b61020051810361020051610140015261054e9161226c565b6102005181036102005161016001526105669161226c565b61020051810361020051610180015261057e9161226c565b610200518103610200516101a001526105969161226c565b916101c051610200516101c00152610200516101e0015260ff811615156102005161020001528060081c60ff1615156102005161022001528060101c60ff161515610200516102400152600160a01b600190039060181c1661020051610260015261020051900361020051f35b34610134576020366003190112610134576004358060005260016020526040600020601081019061063860ff8354161561248c565b600101546001600160a01b031680156107395733146106fb5780546301000000600160b81b0319163360181b6301000000600160b81b0316178155805462ff0000198116620100001780835560081c60ff166106c0575b8260405190600082527fc7db73a2d1dc7fd351b6549efad129bbf568e618dbbe683abfa0d1550a96e5ae60203393a3005b62ff00ff19166201000117905533817f2c54217aed12a18c71e20e5a6a3f13f8cfddbb2c3a0a5f409861478c7fd39e81600080a3818061068f565b60405162461bcd60e51b815260206004820152601660248201527527bbb732b91031b0b73737ba103132903334b73232b960511b6044820152606490fd5b60405162461bcd60e51b815260206004820152601260248201527114195d08191bd95cc81b9bdd08195e1a5cdd60721b6044820152606490fd5b346101345760003660031901126101345760008054815b81811061079c57602083604051908152f35b80600052600160205260ff60106040600020015416156107bf575b60010161078a565b916107cb600191612426565b9290506107b7565b34610134576020366003190112610134576004358060005260016020526040600020601081019081549061080a60ff83161561248c565b600101546001600160a01b031633036108f457601881901c6001600160a01b0316156108bf5761ff001981166101001780835560101c60ff16610879575b8260405190600182527fc7db73a2d1dc7fd351b6549efad129bbf568e618dbbe683abfa0d1550a96e5ae60203393a3005b61ffff1916610101179081905560181c6001600160a01b0316817f2c54217aed12a18c71e20e5a6a3f13f8cfddbb2c3a0a5f409861478c7fd39e81600080a38180610848565b60405162461bcd60e51b815260206004820152600d60248201526c139bc8199a5b99195c881e595d609a1b6044820152606490fd5b60405162461bcd60e51b81526020600482015260166024820152754f6e6c79206f776e65722063616e20636f6e6669726d60501b6044820152606490fd5b34610134576000366003190112610134576000808054915b828110610e1c575061095b8161244b565b906109696040519283612303565b8082526109758161244b565b602083019390601f190136853761098b8261244b565b916109996040519384612303565b8083526109a8601f199161244b565b0160005b818110610d6e5750506000805b828110610bce57505050604051916040830190604084525180915260608301939060005b818110610bb857505050818303602083015280519283815260208101906020808660051b8301019301916000915b868310610a185785850386f35b90919293601f1982820301835284519081518152600160a01b60019003602083015116602082015260408201516040820161028090526102808201610a5c9161226c565b6060830151908281036060840152610a739161226c565b6080830151908281036080840152610a8a9161226c565b60a083015160a083015260c083015160c083015260e08301519082810360e0840152610ab59161226c565b61010083015190828103610100840152610ace9161226c565b61012083015190828103610120840152610ae79161226c565b61014083015190828103610140840152610b009161226c565b61016083015190828103610160840152610b199161226c565b61018083015190828103610180840152610b329161226c565b6101a0830151908281036101a0840152610b4b9161226c565b916101c08101516101c08301526101e08101516101e0830152610200810151151561020083015261022081015115156102208301526102408101511515610240830152600160a01b6001900390610260015116906102600152936020019160200192600101919290610a0b565b82518652602095860195909201916001016109dd565b80600052600160205260ff6010604060002001541615610bf1575b6001016109b9565b90610d668183610c0360019489612462565b5283600052826020526040600020601060405191610c20836122e7565b80548352858060a01b0386820154166020840152610c4060028201612324565b6040840152610c5160038201612324565b6060840152610c6260048201612324565b6080840152600581015460a0840152600681015460c0840152610c8760078201612324565b60e0840152610c9860088201612324565b610100840152610caa60098201612324565b610120840152610cbc600a8201612324565b610140840152610cce600b8201612324565b610160840152610ce0600c8201612324565b610180840152610cf2600d8201612324565b6101a0840152600e8101546101c0840152600f8101546101e0840152015460ff8116151561020083015260ff8160081c16151561022083015260ff8160101c161515610240830152848060a01b039060181c16610260820152610d558288612462565b52610d608187612462565b50612426565b919050610be9565b602090604051610d7d816122e7565b600081526000838201526060604082015260608082015260606080820152600060a0820152600060c0820152606060e08201526060610100820152606061012082015260606101408201526060610160820152606061018082015260606101a082015260006101c082015260006101e08201526000610200820152600061022082015260006102408201526000610260820152828287010152016109ac565b80600052600160205260ff6010604060002001541615610e3f575b60010161094a565b90610e4b600191612426565b919050610e37565b346101345760203660031901126101345760043560005260026020526020604060002054604051908152f35b3461013457600036600319011261013457602060405173874069fa1eb16d44d622f2e0ca25eea172369bc18152f35b3461013457602036600319011261013457600435806000526001602052604060002090601082015460ff8116156110b15760181c6001600160a01b0316330361107b57600e820180549283158015808261106e575b15611034576000600f8794018181549655558460005260026020526000604081205561100d575b505080610f65575b60405192835260208301527f2eefa727cced3362efe12827696bbd9df4926abce3c569ddaf6b9634ae1af14760403393a3005b60405163a9059cbb60e01b815233600482015260248101829052602081604481600073874069fa1eb16d44d622f2e0ca25eea172369bc15af190811561014157600091610fee575b50610f325760405162461bcd60e51b815260206004820152601460248201527310d554d1081d1c985b9cd9995c8819985a5b195960621b6044820152606490fd5b611007915060203d6020116102b6576102a88183612303565b84610fad565b60009061102b575b600080809381933390f115610141578284610f2a565b506108fc611015565b60405162461bcd60e51b81526020600482015260126024820152714e6f20626f756e747920746f20636c61696d60701b6044820152606490fd5b50600f8301541515610f03565b60405162461bcd60e51b815260206004820152600e60248201526d2737ba103a3432903334b73232b960911b6044820152606490fd5b60405162461bcd60e51b815260206004820152602a60248201527f506574206e6f7420636f6e6669726d656420617320666f756e6420627920626f6044820152697468207061727469657360b01b6064820152608490fd5b6101a0366003190112610134576004356001600160401b0381116101345761113590369060040161223f565b6101a0526024356001600160401b0381116101345761115890369060040161223f565b61014052610180526044356001600160401b0381116101345761117f90369060040161223f565b919060a4356001600160401b038111610134576111a090369060040161223f565b9060c4356001600160401b038111610134576111c090369060040161223f565b60e4356001600160401b038111610134576111df90369060040161223f565b939094610104356001600160401b0381116101345761120290369060040161223f565b979099610124356001600160401b0381116101345761122590369060040161223f565b9060805299610144356001600160401b0381116101345761124a90369060040161223f565b60c05260e052610164356001600160401b0381116101345761127090369060040161223f565b610160526101205234158015906121ed575b1561219d576101a0511561216457891561211f5761018435612015575b6113669997946113489461131961135799956113789f9c99956112f361133a966000546101005260405160a0526112d760a0516122e7565b6101005160a0515233602060a051015236906101a051906123e0565b604060a051015261130b3661014051610180516123e0565b606060a051015236916123e0565b608060a051015260643560a08051015260843560c060a051015236916123e0565b60e060a051015236916123e0565b61010060a051015236916123e0565b61012060a051015236916123e0565b61014060a051015236906080516123e0565b61016060a051015261138f3660c05160e0516123e0565b61018060a05101526113a83661016051610120516123e0565b6101a060a0510152346101c060a0510152610184356101e060a0510152600061020060a0510152600061022060a0510152600061024060a0510152600061026060a0510152610100516000526001602052604060002060a0515181556001810160018060a01b03602060a0510151166bffffffffffffffffffffffff60a01b8254161790556002810190604060a05101519182516001600160401b0381116119875761145482546122ad565b601f8111611fcd575b506020601f8211600114611f685781929394600092611f5d575b50508160011b916000199060031b1c19161790555b6003810190606060a05101519182516001600160401b038111611987576114b382546122ad565b601f8111611f15575b506020601f8211600114611eb05781929394600092611ea5575b50508160011b916000199060031b1c19161790555b6004810190608060a05101519182516001600160401b0381116119875761151282546122ad565b601f8111611e5d575b506020601f8211600114611df85781929394600092611ded575b50508160011b916000199060031b1c19161790555b60a080510151600582015560c060a05101516006820155600781019060e060a05101519182516001600160401b0381116119875761158882546122ad565b601f8111611da5575b506020601f8211600114611d405781929394600092611d35575b50508160011b916000199060031b1c19161790555b600881019061010060a05101519182516001600160401b038111611987576115e882546122ad565b601f8111611ced575b506020601f8211600114611c885781929394600092611c7d575b50508160011b916000199060031b1c19161790555b600981019061012060a05101519182516001600160401b0381116119875761164882546122ad565b601f8111611c35575b506020601f8211600114611bd05781929394600092611bc5575b50508160011b916000199060031b1c19161790555b600a81019061014060a05101519182516001600160401b038111611987576116a882546122ad565b601f8111611b7d575b506020601f8211600114611b185781929394600092611b0d575b50508160011b916000199060031b1c19161790555b600b81019061016060a05101519182516001600160401b0381116119875761170882546122ad565b601f8111611ac5575b506020601f8211600114611a605781929394600092611a55575b50508160011b916000199060031b1c19161790555b600c81019061018060a05101519182516001600160401b0381116119875761176882546122ad565b601f8111611a0d575b506020601f82116001146119a8578192939460009261199d575b50508160011b916000199060031b1c19161790555b600d81016101a060a05101518051906001600160401b038211611987576117c783546122ad565b601f811161193f575b50602090601f83116001146118d15791806010949261188f96946000926118c6575b50508160011b916000199060031b1c19161790555b60a0516101c0810151600e8301556101e0810151600f830155610200810151929091018054610220830151610240840151610260909401516001600160b81b031990921660ff951515959095169490941793151560081b61ff00169390931791151560101b62ff0000169190911760189290921b6301000000600160b81b0316919091179055565b6118c160005433817ff6be169e9242db299e4065f846c02e09b60f1421201248fe94d6f552e8c8bd44600080a3612426565b600055005b0151905086806117f2565b90601f1983169184600052816000209260005b818110611927575092600192859261188f9896601098961061190e575b505050811b019055611807565b015160001960f88460031b161c19169055868080611901565b929360206001819287860151815501950193016118e4565b836000526020600020601f840160051c8101916020851061197d575b601f0160051c01905b81811061197157506117d0565b60008155600101611964565b909150819061195b565b634e487b7160e01b600052604160045260246000fd5b01519050848061178b565b601f1982169083600052806000209160005b8181106119f5575095836001959697106119dc575b505050811b0190556117a0565b015160001960f88460031b161c191690558480806119cf565b9192602060018192868b0151815501940192016119ba565b826000526020600020601f830160051c81019160208410611a4b575b601f0160051c01905b818110611a3f5750611771565b60008155600101611a32565b9091508190611a29565b01519050848061172b565b601f1982169083600052806000209160005b818110611aad57509583600195969710611a94575b505050811b019055611740565b015160001960f88460031b161c19169055848080611a87565b9192602060018192868b015181550194019201611a72565b826000526020600020601f830160051c81019160208410611b03575b601f0160051c01905b818110611af75750611711565b60008155600101611aea565b9091508190611ae1565b0151905084806116cb565b601f1982169083600052806000209160005b818110611b6557509583600195969710611b4c575b505050811b0190556116e0565b015160001960f88460031b161c19169055848080611b3f565b9192602060018192868b015181550194019201611b2a565b826000526020600020601f830160051c81019160208410611bbb575b601f0160051c01905b818110611baf57506116b1565b60008155600101611ba2565b9091508190611b99565b01519050848061166b565b601f1982169083600052806000209160005b818110611c1d57509583600195969710611c04575b505050811b019055611680565b015160001960f88460031b161c19169055848080611bf7565b9192602060018192868b015181550194019201611be2565b826000526020600020601f830160051c81019160208410611c73575b601f0160051c01905b818110611c675750611651565b60008155600101611c5a565b9091508190611c51565b01519050848061160b565b601f1982169083600052806000209160005b818110611cd557509583600195969710611cbc575b505050811b019055611620565b015160001960f88460031b161c19169055848080611caf565b9192602060018192868b015181550194019201611c9a565b826000526020600020601f830160051c81019160208410611d2b575b601f0160051c01905b818110611d1f57506115f1565b60008155600101611d12565b9091508190611d09565b0151905084806115ab565b601f1982169083600052806000209160005b818110611d8d57509583600195969710611d74575b505050811b0190556115c0565b015160001960f88460031b161c19169055848080611d67565b9192602060018192868b015181550194019201611d52565b826000526020600020601f830160051c81019160208410611de3575b601f0160051c01905b818110611dd75750611591565b60008155600101611dca565b9091508190611dc1565b015190508480611535565b601f1982169083600052806000209160005b818110611e4557509583600195969710611e2c575b505050811b01905561154a565b015160001960f88460031b161c19169055848080611e1f565b9192602060018192868b015181550194019201611e0a565b826000526020600020601f830160051c81019160208410611e9b575b601f0160051c01905b818110611e8f575061151b565b60008155600101611e82565b9091508190611e79565b0151905084806114d6565b601f1982169083600052806000209160005b818110611efd57509583600195969710611ee4575b505050811b0190556114eb565b015160001960f88460031b161c19169055848080611ed7565b9192602060018192868b015181550194019201611ec2565b826000526020600020601f830160051c81019160208410611f53575b601f0160051c01905b818110611f4757506114bc565b60008155600101611f3a565b9091508190611f31565b015190508480611477565b601f1982169083600052806000209160005b818110611fb557509583600195969710611f9c575b505050811b01905561148c565b015160001960f88460031b161c19169055848080611f8f565b9192602060018192868b015181550194019201611f7a565b826000526020600020601f830160051c8101916020841061200b575b601f0160051c01905b818110611fff575061145d565b60008155600101611ff2565b9091508190611fe9565b9591929896939a9794906040516323b872dd60e01b8152336004820152306024820152610184356044820152602081606481600073874069fa1eb16d44d622f2e0ca25eea172369bc15af190811561014157600091612100575b50156120a157600080548152600260205260409020610184359055979a9698949793969195909491939192919061129f565b60405162461bcd60e51b815260206004820152603160248201527f43555344207472616e73666572206661696c65642e20436865636b206170707260448201527037bb30b61030b732103130b630b731b29760791b6064820152608490fd5b612119915060203d6020116102b6576102a88183612303565b8d61206f565b60405162461bcd60e51b815260206004820152601b60248201527f4c617374207365656e206c6f636174696f6e20726571756972656400000000006044820152606490fd5b60405162461bcd60e51b815260206004820152601160248201527014195d081b985b59481c995c5d5a5c9959607a1b6044820152606490fd5b60405162461bcd60e51b815260206004820152602260248201527f45697468657220455448206f72204355534420626f756e747920726571756972604482015261195960f21b6064820152608490fd5b50610184351515611282565b34610134576000366003190112610134576020600054604051908152f35b3461013457602036600319011261013457602090600435600052600282526040600020548152f35b9181601f84011215610134578235916001600160401b038311610134576020838186019501011161013457565b919082519283825260005b848110612298575050826000602080949584010152601f8019910116010190565b80602080928401015182828601015201612277565b90600182811c921680156122dd575b60208310146122c757565b634e487b7160e01b600052602260045260246000fd5b91607f16916122bc565b61028081019081106001600160401b0382111761198757604052565b90601f801991011681019081106001600160401b0382111761198757604052565b9060405191826000825492612338846122ad565b80845293600181169081156123a6575060011461235f575b5061235d92500383612303565b565b90506000929192526020600020906000915b81831061238a57505090602061235d9282010138612350565b6020919350806001915483858901015201910190918492612371565b90506020925061235d94915060ff191682840152151560051b82010138612350565b90816020910312610134575180151581036101345790565b9291926001600160401b0382116119875760405191612409601f8201601f191660200184612303565b829481845281830111610134578281602093846000960137010152565b60001981146124355760010190565b634e487b7160e01b600052601160045260246000fd5b6001600160401b0381116119875760051b60200190565b80518210156124765760209160051b010190565b634e487b7160e01b600052603260045260246000fd5b1561249357565b60405162461bcd60e51b815260206004820152600d60248201526c105b1c9958591e48199bdd5b99609a1b6044820152606490fdfea26469706673582212209ad84b15047175c1cfa97de65b74008b397ac338fc3837e7e3ac8ffc9cbb8b3664736f6c634300081c0033",
          "opcodes": "PUSH1 0x80 DUP1 PUSH1 0x40 MSTORE CALLVALUE PUSH1 0x15 JUMPI PUSH2 0x24FE SWAP1 DUP2 PUSH2 0x1B DUP3 CODECOPY RETURN JUMPDEST PUSH1 0x0 DUP1 REVERT INVALID PUSH2 0x240 DUP1 PUSH1 0x40 MSTORE PUSH1 0x4 CALLDATASIZE LT ISZERO PUSH2 0x14 JUMPI PUSH1 0x0 DUP1 REVERT JUMPDEST PUSH1 0x0 CALLDATALOAD PUSH1 0xE0 SHR SWAP1 DUP2 PUSH4 0x1850E3A7 EQ PUSH2 0x2217 JUMPI POP DUP1 PUSH4 0x403F8CC7 EQ PUSH2 0x21F9 JUMPI DUP1 PUSH4 0x43DC70A7 EQ PUSH2 0x1109 JUMPI DUP1 PUSH4 0x44021AD7 EQ PUSH2 0xEAE JUMPI DUP1 PUSH4 0x465C66E9 EQ PUSH2 0xE7F JUMPI DUP1 PUSH4 0x4837201C EQ PUSH2 0xE53 JUMPI DUP1 PUSH4 0x543DF5A3 EQ PUSH2 0x932 JUMPI DUP1 PUSH4 0x5E23985B EQ PUSH2 0x7D3 JUMPI DUP1 PUSH4 0x8B504C17 EQ PUSH2 0x773 JUMPI DUP1 PUSH4 0xB3035B64 EQ PUSH2 0x603 JUMPI DUP1 PUSH4 0xCFB869BF EQ PUSH2 0x39F JUMPI DUP1 PUSH4 0xD32BFB6C EQ PUSH2 0x14D JUMPI PUSH4 0xEB462F7B EQ PUSH2 0xAF JUMPI PUSH1 0x0 DUP1 REVERT JUMPDEST CALLVALUE PUSH2 0x134 JUMPI PUSH1 0x0 CALLDATASIZE PUSH1 0x3 NOT ADD SLT PUSH2 0x134 JUMPI PUSH1 0x40 MLOAD PUSH4 0x70A08231 PUSH1 0xE0 SHL DUP2 MSTORE ADDRESS PUSH1 0x4 DUP3 ADD MSTORE PUSH1 0x20 DUP2 PUSH1 0x24 DUP2 PUSH20 0x874069FA1EB16D44D622F2E0CA25EEA172369BC1 GAS STATICCALL DUP1 ISZERO PUSH2 0x141 JUMPI PUSH1 0x0 SWAP1 PUSH2 0x109 JUMPI JUMPDEST PUSH1 0x20 SWAP1 PUSH1 0x40 MLOAD SWAP1 DUP2 MSTORE RETURN JUMPDEST POP PUSH1 0x20 DUP2 RETURNDATASIZE PUSH1 0x20 GT PUSH2 0x139 JUMPI JUMPDEST DUP2 PUSH2 0x123 PUSH1 0x20 SWAP4 DUP4 PUSH2 0x2303 JUMP JUMPDEST DUP2 ADD SUB SLT PUSH2 0x134 JUMPI PUSH1 0x20 SWAP1 MLOAD PUSH2 0xFE JUMP JUMPDEST PUSH1 0x0 DUP1 REVERT JUMPDEST RETURNDATASIZE SWAP2 POP PUSH2 0x116 JUMP JUMPDEST PUSH1 0x40 MLOAD RETURNDATASIZE PUSH1 0x0 DUP3 RETURNDATACOPY RETURNDATASIZE SWAP1 REVERT JUMPDEST CALLVALUE PUSH2 0x134 JUMPI PUSH1 0x20 CALLDATASIZE PUSH1 0x3 NOT ADD SLT PUSH2 0x134 JUMPI PUSH1 0x4 CALLDATALOAD DUP1 PUSH1 0x0 MSTORE PUSH1 0x1 PUSH1 0x20 MSTORE PUSH1 0x40 PUSH1 0x0 KECCAK256 SWAP1 PUSH1 0x1 DUP1 PUSH1 0xA0 SHL SUB PUSH1 0x1 DUP4 ADD SLOAD AND CALLER SUB PUSH2 0x362 JUMPI PUSH1 0x10 DUP3 ADD SLOAD PUSH1 0xFF DUP2 AND PUSH2 0x329 JUMPI PUSH1 0x18 SHR PUSH1 0x1 PUSH1 0x1 PUSH1 0xA0 SHL SUB AND PUSH2 0x2E4 JUMPI PUSH1 0xE DUP3 ADD PUSH1 0x0 PUSH1 0xF DUP3 SLOAD SWAP5 ADD DUP2 DUP2 SLOAD SWAP4 SSTORE SSTORE DUP2 PUSH1 0x0 MSTORE PUSH1 0x2 PUSH1 0x20 MSTORE PUSH1 0x0 PUSH1 0x40 DUP2 KECCAK256 SSTORE DUP3 DUP1 ISZERO DUP1 ISZERO PUSH2 0x2BD JUMPI JUMPDEST POP POP DUP1 PUSH2 0x207 JUMPI JUMPDEST PUSH1 0x40 MLOAD SWAP3 DUP4 MSTORE PUSH1 0x20 DUP4 ADD MSTORE PUSH32 0x86CB66FAABC06BAFD75E6B3E987A6E463A3D8EC871056B659E5E7B566D92AD54 PUSH1 0x40 CALLER SWAP4 LOG3 STOP JUMPDEST PUSH1 0x40 MLOAD PUSH4 0xA9059CBB PUSH1 0xE0 SHL DUP2 MSTORE CALLER PUSH1 0x4 DUP3 ADD MSTORE PUSH1 0x24 DUP2 ADD DUP3 SWAP1 MSTORE PUSH1 0x20 DUP2 PUSH1 0x44 DUP2 PUSH1 0x0 PUSH20 0x874069FA1EB16D44D622F2E0CA25EEA172369BC1 GAS CALL SWAP1 DUP2 ISZERO PUSH2 0x141 JUMPI PUSH1 0x0 SWAP2 PUSH2 0x28E JUMPI JUMPDEST POP PUSH2 0x1D4 JUMPI PUSH1 0x40 MLOAD PUSH3 0x461BCD PUSH1 0xE5 SHL DUP2 MSTORE PUSH1 0x20 PUSH1 0x4 DUP3 ADD MSTORE PUSH1 0x12 PUSH1 0x24 DUP3 ADD MSTORE PUSH18 0x10D554D1081C99599D5B990819985A5B1959 PUSH1 0x72 SHL PUSH1 0x44 DUP3 ADD MSTORE PUSH1 0x64 SWAP1 REVERT JUMPDEST PUSH2 0x2B0 SWAP2 POP PUSH1 0x20 RETURNDATASIZE PUSH1 0x20 GT PUSH2 0x2B6 JUMPI JUMPDEST PUSH2 0x2A8 DUP2 DUP4 PUSH2 0x2303 JUMP JUMPDEST DUP2 ADD SWAP1 PUSH2 0x23C8 JUMP JUMPDEST DUP5 PUSH2 0x24F JUMP JUMPDEST POP RETURNDATASIZE PUSH2 0x29E JUMP JUMPDEST PUSH1 0x0 SWAP1 PUSH2 0x2DB JUMPI JUMPDEST PUSH1 0x0 DUP1 DUP1 SWAP4 DUP2 SWAP4 CALLER SWAP1 CALL ISZERO PUSH2 0x141 JUMPI DUP3 DUP5 PUSH2 0x1CC JUMP JUMPDEST POP PUSH2 0x8FC PUSH2 0x2C5 JUMP JUMPDEST PUSH1 0x40 MLOAD PUSH3 0x461BCD PUSH1 0xE5 SHL DUP2 MSTORE PUSH1 0x20 PUSH1 0x4 DUP3 ADD MSTORE PUSH1 0x17 PUSH1 0x24 DUP3 ADD MSTORE PUSH32 0x46696E64657220616C72656164792061737369676E6564000000000000000000 PUSH1 0x44 DUP3 ADD MSTORE PUSH1 0x64 SWAP1 REVERT JUMPDEST PUSH1 0x40 MLOAD PUSH3 0x461BCD PUSH1 0xE5 SHL DUP2 MSTORE PUSH1 0x20 PUSH1 0x4 DUP3 ADD MSTORE PUSH1 0x11 PUSH1 0x24 DUP3 ADD MSTORE PUSH17 0x14195D08185B1C9958591E48199BDD5B99 PUSH1 0x7A SHL PUSH1 0x44 DUP3 ADD MSTORE PUSH1 0x64 SWAP1 REVERT JUMPDEST PUSH1 0x40 MLOAD PUSH3 0x461BCD PUSH1 0xE5 SHL DUP2 MSTORE PUSH1 0x20 PUSH1 0x4 DUP3 ADD MSTORE PUSH1 0x15 PUSH1 0x24 DUP3 ADD MSTORE PUSH21 0x13DB9B1E481BDDDB995C8818D85B8818D85B98D95B PUSH1 0x5A SHL PUSH1 0x44 DUP3 ADD MSTORE PUSH1 0x64 SWAP1 REVERT JUMPDEST CALLVALUE PUSH2 0x134 JUMPI PUSH1 0x20 CALLDATASIZE PUSH1 0x3 NOT ADD SLT PUSH2 0x134 JUMPI PUSH1 0x4 CALLDATALOAD PUSH1 0x0 MSTORE PUSH1 0x1 PUSH1 0x20 MSTORE PUSH1 0x40 PUSH1 0x0 KECCAK256 DUP1 SLOAD PUSH1 0x1 PUSH1 0xA0 SHL PUSH1 0x1 SWAP1 SUB PUSH1 0x1 DUP4 ADD SLOAD AND PUSH2 0x1E0 MSTORE PUSH1 0x2 DUP3 ADD PUSH2 0x3E2 SWAP1 PUSH2 0x2324 JUMP JUMPDEST PUSH2 0x220 MSTORE PUSH2 0x3F2 PUSH1 0x3 DUP4 ADD PUSH2 0x2324 JUMP JUMPDEST PUSH2 0x3FE PUSH1 0x4 DUP5 ADD PUSH2 0x2324 JUMP JUMPDEST PUSH1 0x5 DUP5 ADD SLOAD PUSH1 0x6 DUP6 ADD SLOAD SWAP1 PUSH2 0x415 PUSH1 0x7 DUP8 ADD PUSH2 0x2324 JUMP JUMPDEST PUSH2 0x421 PUSH1 0x8 DUP9 ADD PUSH2 0x2324 JUMP JUMPDEST PUSH2 0x42D PUSH1 0x9 DUP10 ADD PUSH2 0x2324 JUMP JUMPDEST SWAP2 PUSH2 0x43A PUSH1 0xA DUP11 ADD PUSH2 0x2324 JUMP JUMPDEST SWAP4 PUSH2 0x447 PUSH1 0xB DUP12 ADD PUSH2 0x2324 JUMP JUMPDEST SWAP6 PUSH2 0x454 PUSH1 0xC DUP13 ADD PUSH2 0x2324 JUMP JUMPDEST SWAP8 PUSH2 0x461 PUSH1 0xD DUP14 ADD PUSH2 0x2324 JUMP JUMPDEST SWAP10 PUSH1 0xE DUP14 ADD SLOAD PUSH2 0x1C0 MSTORE PUSH1 0xF DUP14 ADD SLOAD SWAP13 PUSH1 0x10 ADD SLOAD SWAP12 PUSH1 0x40 MLOAD PUSH2 0x200 MSTORE PUSH2 0x200 MLOAD MSTORE PUSH2 0x1E0 MLOAD PUSH2 0x200 MLOAD PUSH1 0x20 ADD MSTORE PUSH2 0x200 MLOAD PUSH1 0x40 ADD PUSH2 0x280 SWAP1 MSTORE PUSH2 0x200 MLOAD PUSH2 0x280 ADD PUSH2 0x220 MLOAD SWAP1 PUSH2 0x4B0 SWAP2 PUSH2 0x226C JUMP JUMPDEST PUSH2 0x200 MLOAD DUP2 SUB PUSH2 0x200 MLOAD PUSH1 0x60 ADD MSTORE PUSH2 0x4C7 SWAP2 PUSH2 0x226C JUMP JUMPDEST PUSH2 0x200 MLOAD DUP2 SUB PUSH2 0x200 MLOAD PUSH1 0x80 ADD MSTORE PUSH2 0x4DE SWAP2 PUSH2 0x226C JUMP JUMPDEST SWAP2 PUSH2 0x200 MLOAD PUSH1 0xA0 ADD MSTORE PUSH2 0x200 MLOAD PUSH1 0xC0 ADD MSTORE PUSH2 0x200 MLOAD DUP2 SUB PUSH2 0x200 MLOAD PUSH1 0xE0 ADD MSTORE PUSH2 0x506 SWAP2 PUSH2 0x226C JUMP JUMPDEST PUSH2 0x200 MLOAD DUP2 SUB PUSH2 0x200 MLOAD PUSH2 0x100 ADD MSTORE PUSH2 0x51E SWAP2 PUSH2 0x226C JUMP JUMPDEST PUSH2 0x200 MLOAD DUP2 SUB PUSH2 0x200 MLOAD PUSH2 0x120 ADD MSTORE PUSH2 0x536 SWAP2 PUSH2 0x226C JUMP JUMPDEST PUSH2 0x200 MLOAD DUP2 SUB PUSH2 0x200 MLOAD PUSH2 0x140 ADD MSTORE PUSH2 0x54E SWAP2 PUSH2 0x226C JUMP JUMPDEST PUSH2 0x200 MLOAD DUP2 SUB PUSH2 0x200 MLOAD PUSH2 0x160 ADD MSTORE PUSH2 0x566 SWAP2 PUSH2 0x226C JUMP JUMPDEST PUSH2 0x200 MLOAD DUP2 SUB PUSH2 0x200 MLOAD PUSH2 0x180 ADD MSTORE PUSH2 0x57E SWAP2 PUSH2 0x226C JUMP JUMPDEST PUSH2 0x200 MLOAD DUP2 SUB PUSH2 0x200 MLOAD PUSH2 0x1A0 ADD MSTORE PUSH2 0x596 SWAP2 PUSH2 0x226C JUMP JUMPDEST SWAP2 PUSH2 0x1C0 MLOAD PUSH2 0x200 MLOAD PUSH2 0x1C0 ADD MSTORE PUSH2 0x200 MLOAD PUSH2 0x1E0 ADD MSTORE PUSH1 0xFF DUP2 AND ISZERO ISZERO PUSH2 0x200 MLOAD PUSH2 0x200 ADD MSTORE DUP1 PUSH1 0x8 SHR PUSH1 0xFF AND ISZERO ISZERO PUSH2 0x200 MLOAD PUSH2 0x220 ADD MSTORE DUP1 PUSH1 0x10 SHR PUSH1 0xFF AND ISZERO ISZERO PUSH2 0x200 MLOAD PUSH2 0x240 ADD MSTORE PUSH1 0x1 PUSH1 0xA0 SHL PUSH1 0x1 SWAP1 SUB SWAP1 PUSH1 0x18 SHR AND PUSH2 0x200 MLOAD PUSH2 0x260 ADD MSTORE PUSH2 0x200 MLOAD SWAP1 SUB PUSH2 0x200 MLOAD RETURN JUMPDEST CALLVALUE PUSH2 0x134 JUMPI PUSH1 0x20 CALLDATASIZE PUSH1 0x3 NOT ADD SLT PUSH2 0x134 JUMPI PUSH1 0x4 CALLDATALOAD DUP1 PUSH1 0x0 MSTORE PUSH1 0x1 PUSH1 0x20 MSTORE PUSH1 0x40 PUSH1 0x0 KECCAK256 PUSH1 0x10 DUP2 ADD SWAP1 PUSH2 0x638 PUSH1 0xFF DUP4 SLOAD AND ISZERO PUSH2 0x248C JUMP JUMPDEST PUSH1 0x1 ADD SLOAD PUSH1 0x1 PUSH1 0x1 PUSH1 0xA0 SHL SUB AND DUP1 ISZERO PUSH2 0x739 JUMPI CALLER EQ PUSH2 0x6FB JUMPI DUP1 SLOAD PUSH4 0x1000000 PUSH1 0x1 PUSH1 0xB8 SHL SUB NOT AND CALLER PUSH1 0x18 SHL PUSH4 0x1000000 PUSH1 0x1 PUSH1 0xB8 SHL SUB AND OR DUP2 SSTORE DUP1 SLOAD PUSH3 0xFF0000 NOT DUP2 AND PUSH3 0x10000 OR DUP1 DUP4 SSTORE PUSH1 0x8 SHR PUSH1 0xFF AND PUSH2 0x6C0 JUMPI JUMPDEST DUP3 PUSH1 0x40 MLOAD SWAP1 PUSH1 0x0 DUP3 MSTORE PUSH32 0xC7DB73A2D1DC7FD351B6549EFAD129BBF568E618DBBE683ABFA0D1550A96E5AE PUSH1 0x20 CALLER SWAP4 LOG3 STOP JUMPDEST PUSH3 0xFF00FF NOT AND PUSH3 0x10001 OR SWAP1 SSTORE CALLER DUP2 PUSH32 0x2C54217AED12A18C71E20E5A6A3F13F8CFDDBB2C3A0A5F409861478C7FD39E81 PUSH1 0x0 DUP1 LOG3 DUP2 DUP1 PUSH2 0x68F JUMP JUMPDEST PUSH1 0x40 MLOAD PUSH3 0x461BCD PUSH1 0xE5 SHL DUP2 MSTORE PUSH1 0x20 PUSH1 0x4 DUP3 ADD MSTORE PUSH1 0x16 PUSH1 0x24 DUP3 ADD MSTORE PUSH22 0x27BBB732B91031B0B73737BA103132903334B73232B9 PUSH1 0x51 SHL PUSH1 0x44 DUP3 ADD MSTORE PUSH1 0x64 SWAP1 REVERT JUMPDEST PUSH1 0x40 MLOAD PUSH3 0x461BCD PUSH1 0xE5 SHL DUP2 MSTORE PUSH1 0x20 PUSH1 0x4 DUP3 ADD MSTORE PUSH1 0x12 PUSH1 0x24 DUP3 ADD MSTORE PUSH18 0x14195D08191BD95CC81B9BDD08195E1A5CDD PUSH1 0x72 SHL PUSH1 0x44 DUP3 ADD MSTORE PUSH1 0x64 SWAP1 REVERT JUMPDEST CALLVALUE PUSH2 0x134 JUMPI PUSH1 0x0 CALLDATASIZE PUSH1 0x3 NOT ADD SLT PUSH2 0x134 JUMPI PUSH1 0x0 DUP1 SLOAD DUP2 JUMPDEST DUP2 DUP2 LT PUSH2 0x79C JUMPI PUSH1 0x20 DUP4 PUSH1 0x40 MLOAD SWAP1 DUP2 MSTORE RETURN JUMPDEST DUP1 PUSH1 0x0 MSTORE PUSH1 0x1 PUSH1 0x20 MSTORE PUSH1 0xFF PUSH1 0x10 PUSH1 0x40 PUSH1 0x0 KECCAK256 ADD SLOAD AND ISZERO PUSH2 0x7BF JUMPI JUMPDEST PUSH1 0x1 ADD PUSH2 0x78A JUMP JUMPDEST SWAP2 PUSH2 0x7CB PUSH1 0x1 SWAP2 PUSH2 0x2426 JUMP JUMPDEST SWAP3 SWAP1 POP PUSH2 0x7B7 JUMP JUMPDEST CALLVALUE PUSH2 0x134 JUMPI PUSH1 0x20 CALLDATASIZE PUSH1 0x3 NOT ADD SLT PUSH2 0x134 JUMPI PUSH1 0x4 CALLDATALOAD DUP1 PUSH1 0x0 MSTORE PUSH1 0x1 PUSH1 0x20 MSTORE PUSH1 0x40 PUSH1 0x0 KECCAK256 PUSH1 0x10 DUP2 ADD SWAP1 DUP2 SLOAD SWAP1 PUSH2 0x80A PUSH1 0xFF DUP4 AND ISZERO PUSH2 0x248C JUMP JUMPDEST PUSH1 0x1 ADD SLOAD PUSH1 0x1 PUSH1 0x1 PUSH1 0xA0 SHL SUB AND CALLER SUB PUSH2 0x8F4 JUMPI PUSH1 0x18 DUP2 SWAP1 SHR PUSH1 0x1 PUSH1 0x1 PUSH1 0xA0 SHL SUB AND ISZERO PUSH2 0x8BF JUMPI PUSH2 0xFF00 NOT DUP2 AND PUSH2 0x100 OR DUP1 DUP4 SSTORE PUSH1 0x10 SHR PUSH1 0xFF AND PUSH2 0x879 JUMPI JUMPDEST DUP3 PUSH1 0x40 MLOAD SWAP1 PUSH1 0x1 DUP3 MSTORE PUSH32 0xC7DB73A2D1DC7FD351B6549EFAD129BBF568E618DBBE683ABFA0D1550A96E5AE PUSH1 0x20 CALLER SWAP4 LOG3 STOP JUMPDEST PUSH2 0xFFFF NOT AND PUSH2 0x101 OR SWAP1 DUP2 SWAP1 SSTORE PUSH1 0x18 SHR PUSH1 0x1 PUSH1 0x1 PUSH1 0xA0 SHL SUB AND DUP2 PUSH32 0x2C54217AED12A18C71E20E5A6A3F13F8CFDDBB2C3A0A5F409861478C7FD39E81 PUSH1 0x0 DUP1 LOG3 DUP2 DUP1 PUSH2 0x848 JUMP JUMPDEST PUSH1 0x40 MLOAD PUSH3 0x461BCD PUSH1 0xE5 SHL DUP2 MSTORE PUSH1 0x20 PUSH1 0x4 DUP3 ADD MSTORE PUSH1 0xD PUSH1 0x24 DUP3 ADD MSTORE PUSH13 0x139BC8199A5B99195C881E595D PUSH1 0x9A SHL PUSH1 0x44 DUP3 ADD MSTORE PUSH1 0x64 SWAP1 REVERT JUMPDEST PUSH1 0x40 MLOAD PUSH3 0x461BCD PUSH1 0xE5 SHL DUP2 MSTORE PUSH1 0x20 PUSH1 0x4 DUP3 ADD MSTORE PUSH1 0x16 PUSH1 0x24 DUP3 ADD MSTORE PUSH22 0x4F6E6C79206F776E65722063616E20636F6E6669726D PUSH1 0x50 SHL PUSH1 0x44 DUP3 ADD MSTORE PUSH1 0x64 SWAP1 REVERT JUMPDEST CALLVALUE PUSH2 0x134 JUMPI PUSH1 0x0 CALLDATASIZE PUSH1 0x3 NOT ADD SLT PUSH2 0x134 JUMPI PUSH1 0x0 DUP1 DUP1 SLOAD SWAP2 JUMPDEST DUP3 DUP2 LT PUSH2 0xE1C JUMPI POP PUSH2 0x95B DUP2 PUSH2 0x244B JUMP JUMPDEST SWAP1 PUSH2 0x969 PUSH1 0x40 MLOAD SWAP3 DUP4 PUSH2 0x2303 JUMP JUMPDEST DUP1 DUP3 MSTORE PUSH2 0x975 DUP2 PUSH2 0x244B JUMP JUMPDEST PUSH1 0x20 DUP4 ADD SWAP4 SWAP1 PUSH1 0x1F NOT ADD CALLDATASIZE DUP6 CALLDATACOPY PUSH2 0x98B DUP3 PUSH2 0x244B JUMP JUMPDEST SWAP2 PUSH2 0x999 PUSH1 0x40 MLOAD SWAP4 DUP5 PUSH2 0x2303 JUMP JUMPDEST DUP1 DUP4 MSTORE PUSH2 0x9A8 PUSH1 0x1F NOT SWAP2 PUSH2 0x244B JUMP JUMPDEST ADD PUSH1 0x0 JUMPDEST DUP2 DUP2 LT PUSH2 0xD6E JUMPI POP POP PUSH1 0x0 DUP1 JUMPDEST DUP3 DUP2 LT PUSH2 0xBCE JUMPI POP POP POP PUSH1 0x40 MLOAD SWAP2 PUSH1 0x40 DUP4 ADD SWAP1 PUSH1 0x40 DUP5 MSTORE MLOAD DUP1 SWAP2 MSTORE PUSH1 0x60 DUP4 ADD SWAP4 SWAP1 PUSH1 0x0 JUMPDEST DUP2 DUP2 LT PUSH2 0xBB8 JUMPI POP POP POP DUP2 DUP4 SUB PUSH1 0x20 DUP4 ADD MSTORE DUP1 MLOAD SWAP3 DUP4 DUP2 MSTORE PUSH1 0x20 DUP2 ADD SWAP1 PUSH1 0x20 DUP1 DUP7 PUSH1 0x5 SHL DUP4 ADD ADD SWAP4 ADD SWAP2 PUSH1 0x0 SWAP2 JUMPDEST DUP7 DUP4 LT PUSH2 0xA18 JUMPI DUP6 DUP6 SUB DUP7 RETURN JUMPDEST SWAP1 SWAP2 SWAP3 SWAP4 PUSH1 0x1F NOT DUP3 DUP3 SUB ADD DUP4 MSTORE DUP5 MLOAD SWAP1 DUP2 MLOAD DUP2 MSTORE PUSH1 0x1 PUSH1 0xA0 SHL PUSH1 0x1 SWAP1 SUB PUSH1 0x20 DUP4 ADD MLOAD AND PUSH1 0x20 DUP3 ADD MSTORE PUSH1 0x40 DUP3 ADD MLOAD PUSH1 0x40 DUP3 ADD PUSH2 0x280 SWAP1 MSTORE PUSH2 0x280 DUP3 ADD PUSH2 0xA5C SWAP2 PUSH2 0x226C JUMP JUMPDEST PUSH1 0x60 DUP4 ADD MLOAD SWAP1 DUP3 DUP2 SUB PUSH1 0x60 DUP5 ADD MSTORE PUSH2 0xA73 SWAP2 PUSH2 0x226C JUMP JUMPDEST PUSH1 0x80 DUP4 ADD MLOAD SWAP1 DUP3 DUP2 SUB PUSH1 0x80 DUP5 ADD MSTORE PUSH2 0xA8A SWAP2 PUSH2 0x226C JUMP JUMPDEST PUSH1 0xA0 DUP4 ADD MLOAD PUSH1 0xA0 DUP4 ADD MSTORE PUSH1 0xC0 DUP4 ADD MLOAD PUSH1 0xC0 DUP4 ADD MSTORE PUSH1 0xE0 DUP4 ADD MLOAD SWAP1 DUP3 DUP2 SUB PUSH1 0xE0 DUP5 ADD MSTORE PUSH2 0xAB5 SWAP2 PUSH2 0x226C JUMP JUMPDEST PUSH2 0x100 DUP4 ADD MLOAD SWAP1 DUP3 DUP2 SUB PUSH2 0x100 DUP5 ADD MSTORE PUSH2 0xACE SWAP2 PUSH2 0x226C JUMP JUMPDEST PUSH2 0x120 DUP4 ADD MLOAD SWAP1 DUP3 DUP2 SUB PUSH2 0x120 DUP5 ADD MSTORE PUSH2 0xAE7 SWAP2 PUSH2 0x226C JUMP JUMPDEST PUSH2 0x140 DUP4 ADD MLOAD SWAP1 DUP3 DUP2 SUB PUSH2 0x140 DUP5 ADD MSTORE PUSH2 0xB00 SWAP2 PUSH2 0x226C JUMP JUMPDEST PUSH2 0x160 DUP4 ADD MLOAD SWAP1 DUP3 DUP2 SUB PUSH2 0x160 DUP5 ADD MSTORE PUSH2 0xB19 SWAP2 PUSH2 0x226C JUMP JUMPDEST PUSH2 0x180 DUP4 ADD MLOAD SWAP1 DUP3 DUP2 SUB PUSH2 0x180 DUP5 ADD MSTORE PUSH2 0xB32 SWAP2 PUSH2 0x226C JUMP JUMPDEST PUSH2 0x1A0 DUP4 ADD MLOAD SWAP1 DUP3 DUP2 SUB PUSH2 0x1A0 DUP5 ADD MSTORE PUSH2 0xB4B SWAP2 PUSH2 0x226C JUMP JUMPDEST SWAP2 PUSH2 0x1C0 DUP2 ADD MLOAD PUSH2 0x1C0 DUP4 ADD MSTORE PUSH2 0x1E0 DUP2 ADD MLOAD PUSH2 0x1E0 DUP4 ADD MSTORE PUSH2 0x200 DUP2 ADD MLOAD ISZERO ISZERO PUSH2 0x200 DUP4 ADD MSTORE PUSH2 0x220 DUP2 ADD MLOAD ISZERO ISZERO PUSH2 0x220 DUP4 ADD MSTORE PUSH2 0x240 DUP2 ADD MLOAD ISZERO ISZERO PUSH2 0x240 DUP4 ADD MSTORE PUSH1 0x1 PUSH1 0xA0 SHL PUSH1 0x1 SWAP1 SUB SWAP1 PUSH2 0x260 ADD MLOAD AND SWAP1 PUSH2 0x260 ADD MSTORE SWAP4 PUSH1 0x20 ADD SWAP2 PUSH1 0x20 ADD SWAP3 PUSH1 0x1 ADD SWAP2 SWAP3 SWAP1 PUSH2 0xA0B JUMP JUMPDEST DUP3 MLOAD DUP7 MSTORE PUSH1 0x20 SWAP6 DUP7 ADD SWAP6 SWAP1 SWAP3 ADD SWAP2 PUSH1 0x1 ADD PUSH2 0x9DD JUMP JUMPDEST DUP1 PUSH1 0x0 MSTORE PUSH1 0x1 PUSH1 0x20 MSTORE PUSH1 0xFF PUSH1 0x10 PUSH1 0x40 PUSH1 0x0 KECCAK256 ADD SLOAD AND ISZERO PUSH2 0xBF1 JUMPI JUMPDEST PUSH1 0x1 ADD PUSH2 0x9B9 JUMP JUMPDEST SWAP1 PUSH2 0xD66 DUP2 DUP4 PUSH2 0xC03 PUSH1 0x1 SWAP5 DUP10 PUSH2 0x2462 JUMP JUMPDEST MSTORE DUP4 PUSH1 0x0 MSTORE DUP3 PUSH1 0x20 MSTORE PUSH1 0x40 PUSH1 0x0 KECCAK256 PUSH1 0x10 PUSH1 0x40 MLOAD SWAP2 PUSH2 0xC20 DUP4 PUSH2 0x22E7 JUMP JUMPDEST DUP1 SLOAD DUP4 MSTORE DUP6 DUP1 PUSH1 0xA0 SHL SUB DUP7 DUP3 ADD SLOAD AND PUSH1 0x20 DUP5 ADD MSTORE PUSH2 0xC40 PUSH1 0x2 DUP3 ADD PUSH2 0x2324 JUMP JUMPDEST PUSH1 0x40 DUP5 ADD MSTORE PUSH2 0xC51 PUSH1 0x3 DUP3 ADD PUSH2 0x2324 JUMP JUMPDEST PUSH1 0x60 DUP5 ADD MSTORE PUSH2 0xC62 PUSH1 0x4 DUP3 ADD PUSH2 0x2324 JUMP JUMPDEST PUSH1 0x80 DUP5 ADD MSTORE PUSH1 0x5 DUP2 ADD SLOAD PUSH1 0xA0 DUP5 ADD MSTORE PUSH1 0x6 DUP2 ADD SLOAD PUSH1 0xC0 DUP5 ADD MSTORE PUSH2 0xC87 PUSH1 0x7 DUP3 ADD PUSH2 0x2324 JUMP JUMPDEST PUSH1 0xE0 DUP5 ADD MSTORE PUSH2 0xC98 PUSH1 0x8 DUP3 ADD PUSH2 0x2324 JUMP JUMPDEST PUSH2 0x100 DUP5 ADD MSTORE PUSH2 0xCAA PUSH1 0x9 DUP3 ADD PUSH2 0x2324 JUMP JUMPDEST PUSH2 0x120 DUP5 ADD MSTORE PUSH2 0xCBC PUSH1 0xA DUP3 ADD PUSH2 0x2324 JUMP JUMPDEST PUSH2 0x140 DUP5 ADD MSTORE PUSH2 0xCCE PUSH1 0xB DUP3 ADD PUSH2 0x2324 JUMP JUMPDEST PUSH2 0x160 DUP5 ADD MSTORE PUSH2 0xCE0 PUSH1 0xC DUP3 ADD PUSH2 0x2324 JUMP JUMPDEST PUSH2 0x180 DUP5 ADD MSTORE PUSH2 0xCF2 PUSH1 0xD DUP3 ADD PUSH2 0x2324 JUMP JUMPDEST PUSH2 0x1A0 DUP5 ADD MSTORE PUSH1 0xE DUP2 ADD SLOAD PUSH2 0x1C0 DUP5 ADD MSTORE PUSH1 0xF DUP2 ADD SLOAD PUSH2 0x1E0 DUP5 ADD MSTORE ADD SLOAD PUSH1 0xFF DUP2 AND ISZERO ISZERO PUSH2 0x200 DUP4 ADD MSTORE PUSH1 0xFF DUP2 PUSH1 0x8 SHR AND ISZERO ISZERO PUSH2 0x220 DUP4 ADD MSTORE PUSH1 0xFF DUP2 PUSH1 0x10 SHR AND ISZERO ISZERO PUSH2 0x240 DUP4 ADD MSTORE DUP5 DUP1 PUSH1 0xA0 SHL SUB SWAP1 PUSH1 0x18 SHR AND PUSH2 0x260 DUP3 ADD MSTORE PUSH2 0xD55 DUP3 DUP9 PUSH2 0x2462 JUMP JUMPDEST MSTORE PUSH2 0xD60 DUP2 DUP8 PUSH2 0x2462 JUMP JUMPDEST POP PUSH2 0x2426 JUMP JUMPDEST SWAP2 SWAP1 POP PUSH2 0xBE9 JUMP JUMPDEST PUSH1 0x20 SWAP1 PUSH1 0x40 MLOAD PUSH2 0xD7D DUP2 PUSH2 0x22E7 JUMP JUMPDEST PUSH1 0x0 DUP2 MSTORE PUSH1 0x0 DUP4 DUP3 ADD MSTORE PUSH1 0x60 PUSH1 0x40 DUP3 ADD MSTORE PUSH1 0x60 DUP1 DUP3 ADD MSTORE PUSH1 0x60 PUSH1 0x80 DUP3 ADD MSTORE PUSH1 0x0 PUSH1 0xA0 DUP3 ADD MSTORE PUSH1 0x0 PUSH1 0xC0 DUP3 ADD MSTORE PUSH1 0x60 PUSH1 0xE0 DUP3 ADD MSTORE PUSH1 0x60 PUSH2 0x100 DUP3 ADD MSTORE PUSH1 0x60 PUSH2 0x120 DUP3 ADD MSTORE PUSH1 0x60 PUSH2 0x140 DUP3 ADD MSTORE PUSH1 0x60 PUSH2 0x160 DUP3 ADD MSTORE PUSH1 0x60 PUSH2 0x180 DUP3 ADD MSTORE PUSH1 0x60 PUSH2 0x1A0 DUP3 ADD MSTORE PUSH1 0x0 PUSH2 0x1C0 DUP3 ADD MSTORE PUSH1 0x0 PUSH2 0x1E0 DUP3 ADD MSTORE PUSH1 0x0 PUSH2 0x200 DUP3 ADD MSTORE PUSH1 0x0 PUSH2 0x220 DUP3 ADD MSTORE PUSH1 0x0 PUSH2 0x240 DUP3 ADD MSTORE PUSH1 0x0 PUSH2 0x260 DUP3 ADD MSTORE DUP3 DUP3 DUP8 ADD ADD MSTORE ADD PUSH2 0x9AC JUMP JUMPDEST DUP1 PUSH1 0x0 MSTORE PUSH1 0x1 PUSH1 0x20 MSTORE PUSH1 0xFF PUSH1 0x10 PUSH1 0x40 PUSH1 0x0 KECCAK256 ADD SLOAD AND ISZERO PUSH2 0xE3F JUMPI JUMPDEST PUSH1 0x1 ADD PUSH2 0x94A JUMP JUMPDEST SWAP1 PUSH2 0xE4B PUSH1 0x1 SWAP2 PUSH2 0x2426 JUMP JUMPDEST SWAP2 SWAP1 POP PUSH2 0xE37 JUMP JUMPDEST CALLVALUE PUSH2 0x134 JUMPI PUSH1 0x20 CALLDATASIZE PUSH1 0x3 NOT ADD SLT PUSH2 0x134 JUMPI PUSH1 0x4 CALLDATALOAD PUSH1 0x0 MSTORE PUSH1 0x2 PUSH1 0x20 MSTORE PUSH1 0x20 PUSH1 0x40 PUSH1 0x0 KECCAK256 SLOAD PUSH1 0x40 MLOAD SWAP1 DUP2 MSTORE RETURN JUMPDEST CALLVALUE PUSH2 0x134 JUMPI PUSH1 0x0 CALLDATASIZE PUSH1 0x3 NOT ADD SLT PUSH2 0x134 JUMPI PUSH1 0x20 PUSH1 0x40 MLOAD PUSH20 0x874069FA1EB16D44D622F2E0CA25EEA172369BC1 DUP2 MSTORE RETURN JUMPDEST CALLVALUE PUSH2 0x134 JUMPI PUSH1 0x20 CALLDATASIZE PUSH1 0x3 NOT ADD SLT PUSH2 0x134 JUMPI PUSH1 0x4 CALLDATALOAD DUP1 PUSH1 0x0 MSTORE PUSH1 0x1 PUSH1 0x20 MSTORE PUSH1 0x40 PUSH1 0x0 KECCAK256 SWAP1 PUSH1 0x10 DUP3 ADD SLOAD PUSH1 0xFF DUP2 AND ISZERO PUSH2 0x10B1 JUMPI PUSH1 0x18 SHR PUSH1 0x1 PUSH1 0x1 PUSH1 0xA0 SHL SUB AND CALLER SUB PUSH2 0x107B JUMPI PUSH1 0xE DUP3 ADD DUP1 SLOAD SWAP3 DUP4 ISZERO DUP1 ISZERO DUP1 DUP3 PUSH2 0x106E JUMPI JUMPDEST ISZERO PUSH2 0x1034 JUMPI PUSH1 0x0 PUSH1 0xF DUP8 SWAP5 ADD DUP2 DUP2 SLOAD SWAP7 SSTORE SSTORE DUP5 PUSH1 0x0 MSTORE PUSH1 0x2 PUSH1 0x20 MSTORE PUSH1 0x0 PUSH1 0x40 DUP2 KECCAK256 SSTORE PUSH2 0x100D JUMPI JUMPDEST POP POP DUP1 PUSH2 0xF65 JUMPI JUMPDEST PUSH1 0x40 MLOAD SWAP3 DUP4 MSTORE PUSH1 0x20 DUP4 ADD MSTORE PUSH32 0x2EEFA727CCED3362EFE12827696BBD9DF4926ABCE3C569DDAF6B9634AE1AF147 PUSH1 0x40 CALLER SWAP4 LOG3 STOP JUMPDEST PUSH1 0x40 MLOAD PUSH4 0xA9059CBB PUSH1 0xE0 SHL DUP2 MSTORE CALLER PUSH1 0x4 DUP3 ADD MSTORE PUSH1 0x24 DUP2 ADD DUP3 SWAP1 MSTORE PUSH1 0x20 DUP2 PUSH1 0x44 DUP2 PUSH1 0x0 PUSH20 0x874069FA1EB16D44D622F2E0CA25EEA172369BC1 GAS CALL SWAP1 DUP2 ISZERO PUSH2 0x141 JUMPI PUSH1 0x0 SWAP2 PUSH2 0xFEE JUMPI JUMPDEST POP PUSH2 0xF32 JUMPI PUSH1 0x40 MLOAD PUSH3 0x461BCD PUSH1 0xE5 SHL DUP2 MSTORE PUSH1 0x20 PUSH1 0x4 DUP3 ADD MSTORE PUSH1 0x14 PUSH1 0x24 DUP3 ADD MSTORE PUSH20 0x10D554D1081D1C985B9CD9995C8819985A5B1959 PUSH1 0x62 SHL PUSH1 0x44 DUP3 ADD MSTORE PUSH1 0x64 SWAP1 REVERT JUMPDEST PUSH2 0x1007 SWAP2 POP PUSH1 0x20 RETURNDATASIZE PUSH1 0x20 GT PUSH2 0x2B6 JUMPI PUSH2 0x2A8 DUP2 DUP4 PUSH2 0x2303 JUMP JUMPDEST DUP5 PUSH2 0xFAD JUMP JUMPDEST PUSH1 0x0 SWAP1 PUSH2 0x102B JUMPI JUMPDEST PUSH1 0x0 DUP1 DUP1 SWAP4 DUP2 SWAP4 CALLER SWAP1 CALL ISZERO PUSH2 0x141 JUMPI DUP3 DUP5 PUSH2 0xF2A JUMP JUMPDEST POP PUSH2 0x8FC PUSH2 0x1015 JUMP JUMPDEST PUSH1 0x40 MLOAD PUSH3 0x461BCD PUSH1 0xE5 SHL DUP2 MSTORE PUSH1 0x20 PUSH1 0x4 DUP3 ADD MSTORE PUSH1 0x12 PUSH1 0x24 DUP3 ADD MSTORE PUSH18 0x4E6F20626F756E747920746F20636C61696D PUSH1 0x70 SHL PUSH1 0x44 DUP3 ADD MSTORE PUSH1 0x64 SWAP1 REVERT JUMPDEST POP PUSH1 0xF DUP4 ADD SLOAD ISZERO ISZERO PUSH2 0xF03 JUMP JUMPDEST PUSH1 0x40 MLOAD PUSH3 0x461BCD PUSH1 0xE5 SHL DUP2 MSTORE PUSH1 0x20 PUSH1 0x4 DUP3 ADD MSTORE PUSH1 0xE PUSH1 0x24 DUP3 ADD MSTORE PUSH14 0x2737BA103A3432903334B73232B9 PUSH1 0x91 SHL PUSH1 0x44 DUP3 ADD MSTORE PUSH1 0x64 SWAP1 REVERT JUMPDEST PUSH1 0x40 MLOAD PUSH3 0x461BCD PUSH1 0xE5 SHL DUP2 MSTORE PUSH1 0x20 PUSH1 0x4 DUP3 ADD MSTORE PUSH1 0x2A PUSH1 0x24 DUP3 ADD MSTORE PUSH32 0x506574206E6F7420636F6E6669726D656420617320666F756E6420627920626F PUSH1 0x44 DUP3 ADD MSTORE PUSH10 0x74682070617274696573 PUSH1 0xB0 SHL PUSH1 0x64 DUP3 ADD MSTORE PUSH1 0x84 SWAP1 REVERT JUMPDEST PUSH2 0x1A0 CALLDATASIZE PUSH1 0x3 NOT ADD SLT PUSH2 0x134 JUMPI PUSH1 0x4 CALLDATALOAD PUSH1 0x1 PUSH1 0x1 PUSH1 0x40 SHL SUB DUP2 GT PUSH2 0x134 JUMPI PUSH2 0x1135 SWAP1 CALLDATASIZE SWAP1 PUSH1 0x4 ADD PUSH2 0x223F JUMP JUMPDEST PUSH2 0x1A0 MSTORE PUSH1 0x24 CALLDATALOAD PUSH1 0x1 PUSH1 0x1 PUSH1 0x40 SHL SUB DUP2 GT PUSH2 0x134 JUMPI PUSH2 0x1158 SWAP1 CALLDATASIZE SWAP1 PUSH1 0x4 ADD PUSH2 0x223F JUMP JUMPDEST PUSH2 0x140 MSTORE PUSH2 0x180 MSTORE PUSH1 0x44 CALLDATALOAD PUSH1 0x1 PUSH1 0x1 PUSH1 0x40 SHL SUB DUP2 GT PUSH2 0x134 JUMPI PUSH2 0x117F SWAP1 CALLDATASIZE SWAP1 PUSH1 0x4 ADD PUSH2 0x223F JUMP JUMPDEST SWAP2 SWAP1 PUSH1 0xA4 CALLDATALOAD PUSH1 0x1 PUSH1 0x1 PUSH1 0x40 SHL SUB DUP2 GT PUSH2 0x134 JUMPI PUSH2 0x11A0 SWAP1 CALLDATASIZE SWAP1 PUSH1 0x4 ADD PUSH2 0x223F JUMP JUMPDEST SWAP1 PUSH1 0xC4 CALLDATALOAD PUSH1 0x1 PUSH1 0x1 PUSH1 0x40 SHL SUB DUP2 GT PUSH2 0x134 JUMPI PUSH2 0x11C0 SWAP1 CALLDATASIZE SWAP1 PUSH1 0x4 ADD PUSH2 0x223F JUMP JUMPDEST PUSH1 0xE4 CALLDATALOAD PUSH1 0x1 PUSH1 0x1 PUSH1 0x40 SHL SUB DUP2 GT PUSH2 0x134 JUMPI PUSH2 0x11DF SWAP1 CALLDATASIZE SWAP1 PUSH1 0x4 ADD PUSH2 0x223F JUMP JUMPDEST SWAP4 SWAP1 SWAP5 PUSH2 0x104 CALLDATALOAD PUSH1 0x1 PUSH1 0x1 PUSH1 0x40 SHL SUB DUP2 GT PUSH2 0x134 JUMPI PUSH2 0x1202 SWAP1 CALLDATASIZE SWAP1 PUSH1 0x4 ADD PUSH2 0x223F JUMP JUMPDEST SWAP8 SWAP1 SWAP10 PUSH2 0x124 CALLDATALOAD PUSH1 0x1 PUSH1 0x1 PUSH1 0x40 SHL SUB DUP2 GT PUSH2 0x134 JUMPI PUSH2 0x1225 SWAP1 CALLDATASIZE SWAP1 PUSH1 0x4 ADD PUSH2 0x223F JUMP JUMPDEST SWAP1 PUSH1 0x80 MSTORE SWAP10 PUSH2 0x144 CALLDATALOAD PUSH1 0x1 PUSH1 0x1 PUSH1 0x40 SHL SUB DUP2 GT PUSH2 0x134 JUMPI PUSH2 0x124A SWAP1 CALLDATASIZE SWAP1 PUSH1 0x4 ADD PUSH2 0x223F JUMP JUMPDEST PUSH1 0xC0 MSTORE PUSH1 0xE0 MSTORE PUSH2 0x164 CALLDATALOAD PUSH1 0x1 PUSH1 0x1 PUSH1 0x40 SHL SUB DUP2 GT PUSH2 0x134 JUMPI PUSH2 0x1270 SWAP1 CALLDATASIZE SWAP1 PUSH1 0x4 ADD PUSH2 0x223F JUMP JUMPDEST PUSH2 0x160 MSTORE PUSH2 0x120 MSTORE CALLVALUE ISZERO DUP1 ISZERO SWAP1 PUSH2 0x21ED JUMPI JUMPDEST ISZERO PUSH2 0x219D JUMPI PUSH2 0x1A0 MLOAD ISZERO PUSH2 0x2164 JUMPI DUP10 ISZERO PUSH2 0x211F JUMPI PUSH2 0x184 CALLDATALOAD PUSH2 0x2015 JUMPI JUMPDEST PUSH2 0x1366 SWAP10 SWAP8 SWAP5 PUSH2 0x1348 SWAP5 PUSH2 0x1319 PUSH2 0x1357 SWAP10 SWAP6 PUSH2 0x1378 SWAP16 SWAP13 SWAP10 SWAP6 PUSH2 0x12F3 PUSH2 0x133A SWAP7 PUSH1 0x0 SLOAD PUSH2 0x100 MSTORE PUSH1 0x40 MLOAD PUSH1 0xA0 MSTORE PUSH2 0x12D7 PUSH1 0xA0 MLOAD PUSH2 0x22E7 JUMP JUMPDEST PUSH2 0x100 MLOAD PUSH1 0xA0 MLOAD MSTORE CALLER PUSH1 0x20 PUSH1 0xA0 MLOAD ADD MSTORE CALLDATASIZE SWAP1 PUSH2 0x1A0 MLOAD SWAP1 PUSH2 0x23E0 JUMP JUMPDEST PUSH1 0x40 PUSH1 0xA0 MLOAD ADD MSTORE PUSH2 0x130B CALLDATASIZE PUSH2 0x140 MLOAD PUSH2 0x180 MLOAD PUSH2 0x23E0 JUMP JUMPDEST PUSH1 0x60 PUSH1 0xA0 MLOAD ADD MSTORE CALLDATASIZE SWAP2 PUSH2 0x23E0 JUMP JUMPDEST PUSH1 0x80 PUSH1 0xA0 MLOAD ADD MSTORE PUSH1 0x64 CALLDATALOAD PUSH1 0xA0 DUP1 MLOAD ADD MSTORE PUSH1 0x84 CALLDATALOAD PUSH1 0xC0 PUSH1 0xA0 MLOAD ADD MSTORE CALLDATASIZE SWAP2 PUSH2 0x23E0 JUMP JUMPDEST PUSH1 0xE0 PUSH1 0xA0 MLOAD ADD MSTORE CALLDATASIZE SWAP2 PUSH2 0x23E0 JUMP JUMPDEST PUSH2 0x100 PUSH1 0xA0 MLOAD ADD MSTORE CALLDATASIZE SWAP2 PUSH2 0x23E0 JUMP JUMPDEST PUSH2 0x120 PUSH1 0xA0 MLOAD ADD MSTORE CALLDATASIZE SWAP2 PUSH2 0x23E0 JUMP JUMPDEST PUSH2 0x140 PUSH1 0xA0 MLOAD ADD MSTORE CALLDATASIZE SWAP1 PUSH1 0x80 MLOAD PUSH2 0x23E0 JUMP JUMPDEST PUSH2 0x160 PUSH1 0xA0 MLOAD ADD MSTORE PUSH2 0x138F CALLDATASIZE PUSH1 0xC0 MLOAD PUSH1 0xE0 MLOAD PUSH2 0x23E0 JUMP JUMPDEST PUSH2 0x180 PUSH1 0xA0 MLOAD ADD MSTORE PUSH2 0x13A8 CALLDATASIZE PUSH2 0x160 MLOAD PUSH2 0x120 MLOAD PUSH2 0x23E0 JUMP JUMPDEST PUSH2 0x1A0 PUSH1 0xA0 MLOAD ADD MSTORE CALLVALUE PUSH2 0x1C0 PUSH1 0xA0 MLOAD ADD MSTORE PUSH2 0x184 CALLDATALOAD PUSH2 0x1E0 PUSH1 0xA0 MLOAD ADD MSTORE PUSH1 0x0 PUSH2 0x200 PUSH1 0xA0 MLOAD ADD MSTORE PUSH1 0x0 PUSH2 0x220 PUSH1 0xA0 MLOAD ADD MSTORE PUSH1 0x0 PUSH2 0x240 PUSH1 0xA0 MLOAD ADD MSTORE PUSH1 0x0 PUSH2 0x260 PUSH1 0xA0 MLOAD ADD MSTORE PUSH2 0x100 MLOAD PUSH1 0x0 MSTORE PUSH1 0x1 PUSH1 0x20 MSTORE PUSH1 0x40 PUSH1 0x0 KECCAK256 PUSH1 0xA0 MLOAD MLOAD DUP2 SSTORE PUSH1 0x1 DUP2 ADD PUSH1 0x1 DUP1 PUSH1 0xA0 SHL SUB PUSH1 0x20 PUSH1 0xA0 MLOAD ADD MLOAD AND PUSH12 0xFFFFFFFFFFFFFFFFFFFFFFFF PUSH1 0xA0 SHL DUP3 SLOAD AND OR SWAP1 SSTORE PUSH1 0x2 DUP2 ADD SWAP1 PUSH1 0x40 PUSH1 0xA0 MLOAD ADD MLOAD SWAP2 DUP3 MLOAD PUSH1 0x1 PUSH1 0x1 PUSH1 0x40 SHL SUB DUP2 GT PUSH2 0x1987 JUMPI PUSH2 0x1454 DUP3 SLOAD PUSH2 0x22AD JUMP JUMPDEST PUSH1 0x1F DUP2 GT PUSH2 0x1FCD JUMPI JUMPDEST POP PUSH1 0x20 PUSH1 0x1F DUP3 GT PUSH1 0x1 EQ PUSH2 0x1F68 JUMPI DUP2 SWAP3 SWAP4 SWAP5 PUSH1 0x0 SWAP3 PUSH2 0x1F5D JUMPI JUMPDEST POP POP DUP2 PUSH1 0x1 SHL SWAP2 PUSH1 0x0 NOT SWAP1 PUSH1 0x3 SHL SHR NOT AND OR SWAP1 SSTORE JUMPDEST PUSH1 0x3 DUP2 ADD SWAP1 PUSH1 0x60 PUSH1 0xA0 MLOAD ADD MLOAD SWAP2 DUP3 MLOAD PUSH1 0x1 PUSH1 0x1 PUSH1 0x40 SHL SUB DUP2 GT PUSH2 0x1987 JUMPI PUSH2 0x14B3 DUP3 SLOAD PUSH2 0x22AD JUMP JUMPDEST PUSH1 0x1F DUP2 GT PUSH2 0x1F15 JUMPI JUMPDEST POP PUSH1 0x20 PUSH1 0x1F DUP3 GT PUSH1 0x1 EQ PUSH2 0x1EB0 JUMPI DUP2 SWAP3 SWAP4 SWAP5 PUSH1 0x0 SWAP3 PUSH2 0x1EA5 JUMPI JUMPDEST POP POP DUP2 PUSH1 0x1 SHL SWAP2 PUSH1 0x0 NOT SWAP1 PUSH1 0x3 SHL SHR NOT AND OR SWAP1 SSTORE JUMPDEST PUSH1 0x4 DUP2 ADD SWAP1 PUSH1 0x80 PUSH1 0xA0 MLOAD ADD MLOAD SWAP2 DUP3 MLOAD PUSH1 0x1 PUSH1 0x1 PUSH1 0x40 SHL SUB DUP2 GT PUSH2 0x1987 JUMPI PUSH2 0x1512 DUP3 SLOAD PUSH2 0x22AD JUMP JUMPDEST PUSH1 0x1F DUP2 GT PUSH2 0x1E5D JUMPI JUMPDEST POP PUSH1 0x20 PUSH1 0x1F DUP3 GT PUSH1 0x1 EQ PUSH2 0x1DF8 JUMPI DUP2 SWAP3 SWAP4 SWAP5 PUSH1 0x0 SWAP3 PUSH2 0x1DED JUMPI JUMPDEST POP POP DUP2 PUSH1 0x1 SHL SWAP2 PUSH1 0x0 NOT SWAP1 PUSH1 0x3 SHL SHR NOT AND OR SWAP1 SSTORE JUMPDEST PUSH1 0xA0 DUP1 MLOAD ADD MLOAD PUSH1 0x5 DUP3 ADD SSTORE PUSH1 0xC0 PUSH1 0xA0 MLOAD ADD MLOAD PUSH1 0x6 DUP3 ADD SSTORE PUSH1 0x7 DUP2 ADD SWAP1 PUSH1 0xE0 PUSH1 0xA0 MLOAD ADD MLOAD SWAP2 DUP3 MLOAD PUSH1 0x1 PUSH1 0x1 PUSH1 0x40 SHL SUB DUP2 GT PUSH2 0x1987 JUMPI PUSH2 0x1588 DUP3 SLOAD PUSH2 0x22AD JUMP JUMPDEST PUSH1 0x1F DUP2 GT PUSH2 0x1DA5 JUMPI JUMPDEST POP PUSH1 0x20 PUSH1 0x1F DUP3 GT PUSH1 0x1 EQ PUSH2 0x1D40 JUMPI DUP2 SWAP3 SWAP4 SWAP5 PUSH1 0x0 SWAP3 PUSH2 0x1D35 JUMPI JUMPDEST POP POP DUP2 PUSH1 0x1 SHL SWAP2 PUSH1 0x0 NOT SWAP1 PUSH1 0x3 SHL SHR NOT AND OR SWAP1 SSTORE JUMPDEST PUSH1 0x8 DUP2 ADD SWAP1 PUSH2 0x100 PUSH1 0xA0 MLOAD ADD MLOAD SWAP2 DUP3 MLOAD PUSH1 0x1 PUSH1 0x1 PUSH1 0x40 SHL SUB DUP2 GT PUSH2 0x1987 JUMPI PUSH2 0x15E8 DUP3 SLOAD PUSH2 0x22AD JUMP JUMPDEST PUSH1 0x1F DUP2 GT PUSH2 0x1CED JUMPI JUMPDEST POP PUSH1 0x20 PUSH1 0x1F DUP3 GT PUSH1 0x1 EQ PUSH2 0x1C88 JUMPI DUP2 SWAP3 SWAP4 SWAP5 PUSH1 0x0 SWAP3 PUSH2 0x1C7D JUMPI JUMPDEST POP POP DUP2 PUSH1 0x1 SHL SWAP2 PUSH1 0x0 NOT SWAP1 PUSH1 0x3 SHL SHR NOT AND OR SWAP1 SSTORE JUMPDEST PUSH1 0x9 DUP2 ADD SWAP1 PUSH2 0x120 PUSH1 0xA0 MLOAD ADD MLOAD SWAP2 DUP3 MLOAD PUSH1 0x1 PUSH1 0x1 PUSH1 0x40 SHL SUB DUP2 GT PUSH2 0x1987 JUMPI PUSH2 0x1648 DUP3 SLOAD PUSH2 0x22AD JUMP JUMPDEST PUSH1 0x1F DUP2 GT PUSH2 0x1C35 JUMPI JUMPDEST POP PUSH1 0x20 PUSH1 0x1F DUP3 GT PUSH1 0x1 EQ PUSH2 0x1BD0 JUMPI DUP2 SWAP3 SWAP4 SWAP5 PUSH1 0x0 SWAP3 PUSH2 0x1BC5 JUMPI JUMPDEST POP POP DUP2 PUSH1 0x1 SHL SWAP2 PUSH1 0x0 NOT SWAP1 PUSH1 0x3 SHL SHR NOT AND OR SWAP1 SSTORE JUMPDEST PUSH1 0xA DUP2 ADD SWAP1 PUSH2 0x140 PUSH1 0xA0 MLOAD ADD MLOAD SWAP2 DUP3 MLOAD PUSH1 0x1 PUSH1 0x1 PUSH1 0x40 SHL SUB DUP2 GT PUSH2 0x1987 JUMPI PUSH2 0x16A8 DUP3 SLOAD PUSH2 0x22AD JUMP JUMPDEST PUSH1 0x1F DUP2 GT PUSH2 0x1B7D JUMPI JUMPDEST POP PUSH1 0x20 PUSH1 0x1F DUP3 GT PUSH1 0x1 EQ PUSH2 0x1B18 JUMPI DUP2 SWAP3 SWAP4 SWAP5 PUSH1 0x0 SWAP3 PUSH2 0x1B0D JUMPI JUMPDEST POP POP DUP2 PUSH1 0x1 SHL SWAP2 PUSH1 0x0 NOT SWAP1 PUSH1 0x3 SHL SHR NOT AND OR SWAP1 SSTORE JUMPDEST PUSH1 0xB DUP2 ADD SWAP1 PUSH2 0x160 PUSH1 0xA0 MLOAD ADD MLOAD SWAP2 DUP3 MLOAD PUSH1 0x1 PUSH1 0x1 PUSH1 0x40 SHL SUB DUP2 GT PUSH2 0x1987 JUMPI PUSH2 0x1708 DUP3 SLOAD PUSH2 0x22AD JUMP JUMPDEST PUSH1 0x1F DUP2 GT PUSH2 0x1AC5 JUMPI JUMPDEST POP PUSH1 0x20 PUSH1 0x1F DUP3 GT PUSH1 0x1 EQ PUSH2 0x1A60 JUMPI DUP2 SWAP3 SWAP4 SWAP5 PUSH1 0x0 SWAP3 PUSH2 0x1A55 JUMPI JUMPDEST POP POP DUP2 PUSH1 0x1 SHL SWAP2 PUSH1 0x0 NOT SWAP1 PUSH1 0x3 SHL SHR NOT AND OR SWAP1 SSTORE JUMPDEST PUSH1 0xC DUP2 ADD SWAP1 PUSH2 0x180 PUSH1 0xA0 MLOAD ADD MLOAD SWAP2 DUP3 MLOAD PUSH1 0x1 PUSH1 0x1 PUSH1 0x40 SHL SUB DUP2 GT PUSH2 0x1987 JUMPI PUSH2 0x1768 DUP3 SLOAD PUSH2 0x22AD JUMP JUMPDEST PUSH1 0x1F DUP2 GT PUSH2 0x1A0D JUMPI JUMPDEST POP PUSH1 0x20 PUSH1 0x1F DUP3 GT PUSH1 0x1 EQ PUSH2 0x19A8 JUMPI DUP2 SWAP3 SWAP4 SWAP5 PUSH1 0x0 SWAP3 PUSH2 0x199D JUMPI JUMPDEST POP POP DUP2 PUSH1 0x1 SHL SWAP2 PUSH1 0x0 NOT SWAP1 PUSH1 0x3 SHL SHR NOT AND OR SWAP1 SSTORE JUMPDEST PUSH1 0xD DUP2 ADD PUSH2 0x1A0 PUSH1 0xA0 MLOAD ADD MLOAD DUP1 MLOAD SWAP1 PUSH1 0x1 PUSH1 0x1 PUSH1 0x40 SHL SUB DUP3 GT PUSH2 0x1987 JUMPI PUSH2 0x17C7 DUP4 SLOAD PUSH2 0x22AD JUMP JUMPDEST PUSH1 0x1F DUP2 GT PUSH2 0x193F JUMPI JUMPDEST POP PUSH1 0x20 SWAP1 PUSH1 0x1F DUP4 GT PUSH1 0x1 EQ PUSH2 0x18D1 JUMPI SWAP2 DUP1 PUSH1 0x10 SWAP5 SWAP3 PUSH2 0x188F SWAP7 SWAP5 PUSH1 0x0 SWAP3 PUSH2 0x18C6 JUMPI JUMPDEST POP POP DUP2 PUSH1 0x1 SHL SWAP2 PUSH1 0x0 NOT SWAP1 PUSH1 0x3 SHL SHR NOT AND OR SWAP1 SSTORE JUMPDEST PUSH1 0xA0 MLOAD PUSH2 0x1C0 DUP2 ADD MLOAD PUSH1 0xE DUP4 ADD SSTORE PUSH2 0x1E0 DUP2 ADD MLOAD PUSH1 0xF DUP4 ADD SSTORE PUSH2 0x200 DUP2 ADD MLOAD SWAP3 SWAP1 SWAP2 ADD DUP1 SLOAD PUSH2 0x220 DUP4 ADD MLOAD PUSH2 0x240 DUP5 ADD MLOAD PUSH2 0x260 SWAP1 SWAP5 ADD MLOAD PUSH1 0x1 PUSH1 0x1 PUSH1 0xB8 SHL SUB NOT SWAP1 SWAP3 AND PUSH1 0xFF SWAP6 ISZERO ISZERO SWAP6 SWAP1 SWAP6 AND SWAP5 SWAP1 SWAP5 OR SWAP4 ISZERO ISZERO PUSH1 0x8 SHL PUSH2 0xFF00 AND SWAP4 SWAP1 SWAP4 OR SWAP2 ISZERO ISZERO PUSH1 0x10 SHL PUSH3 0xFF0000 AND SWAP2 SWAP1 SWAP2 OR PUSH1 0x18 SWAP3 SWAP1 SWAP3 SHL PUSH4 0x1000000 PUSH1 0x1 PUSH1 0xB8 SHL SUB AND SWAP2 SWAP1 SWAP2 OR SWAP1 SSTORE JUMP JUMPDEST PUSH2 0x18C1 PUSH1 0x0 SLOAD CALLER DUP2 PUSH32 0xF6BE169E9242DB299E4065F846C02E09B60F1421201248FE94D6F552E8C8BD44 PUSH1 0x0 DUP1 LOG3 PUSH2 0x2426 JUMP JUMPDEST PUSH1 0x0 SSTORE STOP JUMPDEST ADD MLOAD SWAP1 POP DUP7 DUP1 PUSH2 0x17F2 JUMP JUMPDEST SWAP1 PUSH1 0x1F NOT DUP4 AND SWAP2 DUP5 PUSH1 0x0 MSTORE DUP2 PUSH1 0x0 KECCAK256 SWAP3 PUSH1 0x0 JUMPDEST DUP2 DUP2 LT PUSH2 0x1927 JUMPI POP SWAP3 PUSH1 0x1 SWAP3 DUP6 SWAP3 PUSH2 0x188F SWAP9 SWAP7 PUSH1 0x10 SWAP9 SWAP7 LT PUSH2 0x190E JUMPI JUMPDEST POP POP POP DUP2 SHL ADD SWAP1 SSTORE PUSH2 0x1807 JUMP JUMPDEST ADD MLOAD PUSH1 0x0 NOT PUSH1 0xF8 DUP5 PUSH1 0x3 SHL AND SHR NOT AND SWAP1 SSTORE DUP7 DUP1 DUP1 PUSH2 0x1901 JUMP JUMPDEST SWAP3 SWAP4 PUSH1 0x20 PUSH1 0x1 DUP2 SWAP3 DUP8 DUP7 ADD MLOAD DUP2 SSTORE ADD SWAP6 ADD SWAP4 ADD PUSH2 0x18E4 JUMP JUMPDEST DUP4 PUSH1 0x0 MSTORE PUSH1 0x20 PUSH1 0x0 KECCAK256 PUSH1 0x1F DUP5 ADD PUSH1 0x5 SHR DUP2 ADD SWAP2 PUSH1 0x20 DUP6 LT PUSH2 0x197D JUMPI JUMPDEST PUSH1 0x1F ADD PUSH1 0x5 SHR ADD SWAP1 JUMPDEST DUP2 DUP2 LT PUSH2 0x1971 JUMPI POP PUSH2 0x17D0 JUMP JUMPDEST PUSH1 0x0 DUP2 SSTORE PUSH1 0x1 ADD PUSH2 0x1964 JUMP JUMPDEST SWAP1 SWAP2 POP DUP2 SWAP1 PUSH2 0x195B JUMP JUMPDEST PUSH4 0x4E487B71 PUSH1 0xE0 SHL PUSH1 0x0 MSTORE PUSH1 0x41 PUSH1 0x4 MSTORE PUSH1 0x24 PUSH1 0x0 REVERT JUMPDEST ADD MLOAD SWAP1 POP DUP5 DUP1 PUSH2 0x178B JUMP JUMPDEST PUSH1 0x1F NOT DUP3 AND SWAP1 DUP4 PUSH1 0x0 MSTORE DUP1 PUSH1 0x0 KECCAK256 SWAP2 PUSH1 0x0 JUMPDEST DUP2 DUP2 LT PUSH2 0x19F5 JUMPI POP SWAP6 DUP4 PUSH1 0x1 SWAP6 SWAP7 SWAP8 LT PUSH2 0x19DC JUMPI JUMPDEST POP POP POP DUP2 SHL ADD SWAP1 SSTORE PUSH2 0x17A0 JUMP JUMPDEST ADD MLOAD PUSH1 0x0 NOT PUSH1 0xF8 DUP5 PUSH1 0x3 SHL AND SHR NOT AND SWAP1 SSTORE DUP5 DUP1 DUP1 PUSH2 0x19CF JUMP JUMPDEST SWAP2 SWAP3 PUSH1 0x20 PUSH1 0x1 DUP2 SWAP3 DUP7 DUP12 ADD MLOAD DUP2 SSTORE ADD SWAP5 ADD SWAP3 ADD PUSH2 0x19BA JUMP JUMPDEST DUP3 PUSH1 0x0 MSTORE PUSH1 0x20 PUSH1 0x0 KECCAK256 PUSH1 0x1F DUP4 ADD PUSH1 0x5 SHR DUP2 ADD SWAP2 PUSH1 0x20 DUP5 LT PUSH2 0x1A4B JUMPI JUMPDEST PUSH1 0x1F ADD PUSH1 0x5 SHR ADD SWAP1 JUMPDEST DUP2 DUP2 LT PUSH2 0x1A3F JUMPI POP PUSH2 0x1771 JUMP JUMPDEST PUSH1 0x0 DUP2 SSTORE PUSH1 0x1 ADD PUSH2 0x1A32 JUMP JUMPDEST SWAP1 SWAP2 POP DUP2 SWAP1 PUSH2 0x1A29 JUMP JUMPDEST ADD MLOAD SWAP1 POP DUP5 DUP1 PUSH2 0x172B JUMP JUMPDEST PUSH1 0x1F NOT DUP3 AND SWAP1 DUP4 PUSH1 0x0 MSTORE DUP1 PUSH1 0x0 KECCAK256 SWAP2 PUSH1 0x0 JUMPDEST DUP2 DUP2 LT PUSH2 0x1AAD JUMPI POP SWAP6 DUP4 PUSH1 0x1 SWAP6 SWAP7 SWAP8 LT PUSH2 0x1A94 JUMPI JUMPDEST POP POP POP DUP2 SHL ADD SWAP1 SSTORE PUSH2 0x1740 JUMP JUMPDEST ADD MLOAD PUSH1 0x0 NOT PUSH1 0xF8 DUP5 PUSH1 0x3 SHL AND SHR NOT AND SWAP1 SSTORE DUP5 DUP1 DUP1 PUSH2 0x1A87 JUMP JUMPDEST SWAP2 SWAP3 PUSH1 0x20 PUSH1 0x1 DUP2 SWAP3 DUP7 DUP12 ADD MLOAD DUP2 SSTORE ADD SWAP5 ADD SWAP3 ADD PUSH2 0x1A72 JUMP JUMPDEST DUP3 PUSH1 0x0 MSTORE PUSH1 0x20 PUSH1 0x0 KECCAK256 PUSH1 0x1F DUP4 ADD PUSH1 0x5 SHR DUP2 ADD SWAP2 PUSH1 0x20 DUP5 LT PUSH2 0x1B03 JUMPI JUMPDEST PUSH1 0x1F ADD PUSH1 0x5 SHR ADD SWAP1 JUMPDEST DUP2 DUP2 LT PUSH2 0x1AF7 JUMPI POP PUSH2 0x1711 JUMP JUMPDEST PUSH1 0x0 DUP2 SSTORE PUSH1 0x1 ADD PUSH2 0x1AEA JUMP JUMPDEST SWAP1 SWAP2 POP DUP2 SWAP1 PUSH2 0x1AE1 JUMP JUMPDEST ADD MLOAD SWAP1 POP DUP5 DUP1 PUSH2 0x16CB JUMP JUMPDEST PUSH1 0x1F NOT DUP3 AND SWAP1 DUP4 PUSH1 0x0 MSTORE DUP1 PUSH1 0x0 KECCAK256 SWAP2 PUSH1 0x0 JUMPDEST DUP2 DUP2 LT PUSH2 0x1B65 JUMPI POP SWAP6 DUP4 PUSH1 0x1 SWAP6 SWAP7 SWAP8 LT PUSH2 0x1B4C JUMPI JUMPDEST POP POP POP DUP2 SHL ADD SWAP1 SSTORE PUSH2 0x16E0 JUMP JUMPDEST ADD MLOAD PUSH1 0x0 NOT PUSH1 0xF8 DUP5 PUSH1 0x3 SHL AND SHR NOT AND SWAP1 SSTORE DUP5 DUP1 DUP1 PUSH2 0x1B3F JUMP JUMPDEST SWAP2 SWAP3 PUSH1 0x20 PUSH1 0x1 DUP2 SWAP3 DUP7 DUP12 ADD MLOAD DUP2 SSTORE ADD SWAP5 ADD SWAP3 ADD PUSH2 0x1B2A JUMP JUMPDEST DUP3 PUSH1 0x0 MSTORE PUSH1 0x20 PUSH1 0x0 KECCAK256 PUSH1 0x1F DUP4 ADD PUSH1 0x5 SHR DUP2 ADD SWAP2 PUSH1 0x20 DUP5 LT PUSH2 0x1BBB JUMPI JUMPDEST PUSH1 0x1F ADD PUSH1 0x5 SHR ADD SWAP1 JUMPDEST DUP2 DUP2 LT PUSH2 0x1BAF JUMPI POP PUSH2 0x16B1 JUMP JUMPDEST PUSH1 0x0 DUP2 SSTORE PUSH1 0x1 ADD PUSH2 0x1BA2 JUMP JUMPDEST SWAP1 SWAP2 POP DUP2 SWAP1 PUSH2 0x1B99 JUMP JUMPDEST ADD MLOAD SWAP1 POP DUP5 DUP1 PUSH2 0x166B JUMP JUMPDEST PUSH1 0x1F NOT DUP3 AND SWAP1 DUP4 PUSH1 0x0 MSTORE DUP1 PUSH1 0x0 KECCAK256 SWAP2 PUSH1 0x0 JUMPDEST DUP2 DUP2 LT PUSH2 0x1C1D JUMPI POP SWAP6 DUP4 PUSH1 0x1 SWAP6 SWAP7 SWAP8 LT PUSH2 0x1C04 JUMPI JUMPDEST POP POP POP DUP2 SHL ADD SWAP1 SSTORE PUSH2 0x1680 JUMP JUMPDEST ADD MLOAD PUSH1 0x0 NOT PUSH1 0xF8 DUP5 PUSH1 0x3 SHL AND SHR NOT AND SWAP1 SSTORE DUP5 DUP1 DUP1 PUSH2 0x1BF7 JUMP JUMPDEST SWAP2 SWAP3 PUSH1 0x20 PUSH1 0x1 DUP2 SWAP3 DUP7 DUP12 ADD MLOAD DUP2 SSTORE ADD SWAP5 ADD SWAP3 ADD PUSH2 0x1BE2 JUMP JUMPDEST DUP3 PUSH1 0x0 MSTORE PUSH1 0x20 PUSH1 0x0 KECCAK256 PUSH1 0x1F DUP4 ADD PUSH1 0x5 SHR DUP2 ADD SWAP2 PUSH1 0x20 DUP5 LT PUSH2 0x1C73 JUMPI JUMPDEST PUSH1 0x1F ADD PUSH1 0x5 SHR ADD SWAP1 JUMPDEST DUP2 DUP2 LT PUSH2 0x1C67 JUMPI POP PUSH2 0x1651 JUMP JUMPDEST PUSH1 0x0 DUP2 SSTORE PUSH1 0x1 ADD PUSH2 0x1C5A JUMP JUMPDEST SWAP1 SWAP2 POP DUP2 SWAP1 PUSH2 0x1C51 JUMP JUMPDEST ADD MLOAD SWAP1 POP DUP5 DUP1 PUSH2 0x160B JUMP JUMPDEST PUSH1 0x1F NOT DUP3 AND SWAP1 DUP4 PUSH1 0x0 MSTORE DUP1 PUSH1 0x0 KECCAK256 SWAP2 PUSH1 0x0 JUMPDEST DUP2 DUP2 LT PUSH2 0x1CD5 JUMPI POP SWAP6 DUP4 PUSH1 0x1 SWAP6 SWAP7 SWAP8 LT PUSH2 0x1CBC JUMPI JUMPDEST POP POP POP DUP2 SHL ADD SWAP1 SSTORE PUSH2 0x1620 JUMP JUMPDEST ADD MLOAD PUSH1 0x0 NOT PUSH1 0xF8 DUP5 PUSH1 0x3 SHL AND SHR NOT AND SWAP1 SSTORE DUP5 DUP1 DUP1 PUSH2 0x1CAF JUMP JUMPDEST SWAP2 SWAP3 PUSH1 0x20 PUSH1 0x1 DUP2 SWAP3 DUP7 DUP12 ADD MLOAD DUP2 SSTORE ADD SWAP5 ADD SWAP3 ADD PUSH2 0x1C9A JUMP JUMPDEST DUP3 PUSH1 0x0 MSTORE PUSH1 0x20 PUSH1 0x0 KECCAK256 PUSH1 0x1F DUP4 ADD PUSH1 0x5 SHR DUP2 ADD SWAP2 PUSH1 0x20 DUP5 LT PUSH2 0x1D2B JUMPI JUMPDEST PUSH1 0x1F ADD PUSH1 0x5 SHR ADD SWAP1 JUMPDEST DUP2 DUP2 LT PUSH2 0x1D1F JUMPI POP PUSH2 0x15F1 JUMP JUMPDEST PUSH1 0x0 DUP2 SSTORE PUSH1 0x1 ADD PUSH2 0x1D12 JUMP JUMPDEST SWAP1 SWAP2 POP DUP2 SWAP1 PUSH2 0x1D09 JUMP JUMPDEST ADD MLOAD SWAP1 POP DUP5 DUP1 PUSH2 0x15AB JUMP JUMPDEST PUSH1 0x1F NOT DUP3 AND SWAP1 DUP4 PUSH1 0x0 MSTORE DUP1 PUSH1 0x0 KECCAK256 SWAP2 PUSH1 0x0 JUMPDEST DUP2 DUP2 LT PUSH2 0x1D8D JUMPI POP SWAP6 DUP4 PUSH1 0x1 SWAP6 SWAP7 SWAP8 LT PUSH2 0x1D74 JUMPI JUMPDEST POP POP POP DUP2 SHL ADD SWAP1 SSTORE PUSH2 0x15C0 JUMP JUMPDEST ADD MLOAD PUSH1 0x0 NOT PUSH1 0xF8 DUP5 PUSH1 0x3 SHL AND SHR NOT AND SWAP1 SSTORE DUP5 DUP1 DUP1 PUSH2 0x1D67 JUMP JUMPDEST SWAP2 SWAP3 PUSH1 0x20 PUSH1 0x1 DUP2 SWAP3 DUP7 DUP12 ADD MLOAD DUP2 SSTORE ADD SWAP5 ADD SWAP3 ADD PUSH2 0x1D52 JUMP JUMPDEST DUP3 PUSH1 0x0 MSTORE PUSH1 0x20 PUSH1 0x0 KECCAK256 PUSH1 0x1F DUP4 ADD PUSH1 0x5 SHR DUP2 ADD SWAP2 PUSH1 0x20 DUP5 LT PUSH2 0x1DE3 JUMPI JUMPDEST PUSH1 0x1F ADD PUSH1 0x5 SHR ADD SWAP1 JUMPDEST DUP2 DUP2 LT PUSH2 0x1DD7 JUMPI POP PUSH2 0x1591 JUMP JUMPDEST PUSH1 0x0 DUP2 SSTORE PUSH1 0x1 ADD PUSH2 0x1DCA JUMP JUMPDEST SWAP1 SWAP2 POP DUP2 SWAP1 PUSH2 0x1DC1 JUMP JUMPDEST ADD MLOAD SWAP1 POP DUP5 DUP1 PUSH2 0x1535 JUMP JUMPDEST PUSH1 0x1F NOT DUP3 AND SWAP1 DUP4 PUSH1 0x0 MSTORE DUP1 PUSH1 0x0 KECCAK256 SWAP2 PUSH1 0x0 JUMPDEST DUP2 DUP2 LT PUSH2 0x1E45 JUMPI POP SWAP6 DUP4 PUSH1 0x1 SWAP6 SWAP7 SWAP8 LT PUSH2 0x1E2C JUMPI JUMPDEST POP POP POP DUP2 SHL ADD SWAP1 SSTORE PUSH2 0x154A JUMP JUMPDEST ADD MLOAD PUSH1 0x0 NOT PUSH1 0xF8 DUP5 PUSH1 0x3 SHL AND SHR NOT AND SWAP1 SSTORE DUP5 DUP1 DUP1 PUSH2 0x1E1F JUMP JUMPDEST SWAP2 SWAP3 PUSH1 0x20 PUSH1 0x1 DUP2 SWAP3 DUP7 DUP12 ADD MLOAD DUP2 SSTORE ADD SWAP5 ADD SWAP3 ADD PUSH2 0x1E0A JUMP JUMPDEST DUP3 PUSH1 0x0 MSTORE PUSH1 0x20 PUSH1 0x0 KECCAK256 PUSH1 0x1F DUP4 ADD PUSH1 0x5 SHR DUP2 ADD SWAP2 PUSH1 0x20 DUP5 LT PUSH2 0x1E9B JUMPI JUMPDEST PUSH1 0x1F ADD PUSH1 0x5 SHR ADD SWAP1 JUMPDEST DUP2 DUP2 LT PUSH2 0x1E8F JUMPI POP PUSH2 0x151B JUMP JUMPDEST PUSH1 0x0 DUP2 SSTORE PUSH1 0x1 ADD PUSH2 0x1E82 JUMP JUMPDEST SWAP1 SWAP2 POP DUP2 SWAP1 PUSH2 0x1E79 JUMP JUMPDEST ADD MLOAD SWAP1 POP DUP5 DUP1 PUSH2 0x14D6 JUMP JUMPDEST PUSH1 0x1F NOT DUP3 AND SWAP1 DUP4 PUSH1 0x0 MSTORE DUP1 PUSH1 0x0 KECCAK256 SWAP2 PUSH1 0x0 JUMPDEST DUP2 DUP2 LT PUSH2 0x1EFD JUMPI POP SWAP6 DUP4 PUSH1 0x1 SWAP6 SWAP7 SWAP8 LT PUSH2 0x1EE4 JUMPI JUMPDEST POP POP POP DUP2 SHL ADD SWAP1 SSTORE PUSH2 0x14EB JUMP JUMPDEST ADD MLOAD PUSH1 0x0 NOT PUSH1 0xF8 DUP5 PUSH1 0x3 SHL AND SHR NOT AND SWAP1 SSTORE DUP5 DUP1 DUP1 PUSH2 0x1ED7 JUMP JUMPDEST SWAP2 SWAP3 PUSH1 0x20 PUSH1 0x1 DUP2 SWAP3 DUP7 DUP12 ADD MLOAD DUP2 SSTORE ADD SWAP5 ADD SWAP3 ADD PUSH2 0x1EC2 JUMP JUMPDEST DUP3 PUSH1 0x0 MSTORE PUSH1 0x20 PUSH1 0x0 KECCAK256 PUSH1 0x1F DUP4 ADD PUSH1 0x5 SHR DUP2 ADD SWAP2 PUSH1 0x20 DUP5 LT PUSH2 0x1F53 JUMPI JUMPDEST PUSH1 0x1F ADD PUSH1 0x5 SHR ADD SWAP1 JUMPDEST DUP2 DUP2 LT PUSH2 0x1F47 JUMPI POP PUSH2 0x14BC JUMP JUMPDEST PUSH1 0x0 DUP2 SSTORE PUSH1 0x1 ADD PUSH2 0x1F3A JUMP JUMPDEST SWAP1 SWAP2 POP DUP2 SWAP1 PUSH2 0x1F31 JUMP JUMPDEST ADD MLOAD SWAP1 POP DUP5 DUP1 PUSH2 0x1477 JUMP JUMPDEST PUSH1 0x1F NOT DUP3 AND SWAP1 DUP4 PUSH1 0x0 MSTORE DUP1 PUSH1 0x0 KECCAK256 SWAP2 PUSH1 0x0 JUMPDEST DUP2 DUP2 LT PUSH2 0x1FB5 JUMPI POP SWAP6 DUP4 PUSH1 0x1 SWAP6 SWAP7 SWAP8 LT PUSH2 0x1F9C JUMPI JUMPDEST POP POP POP DUP2 SHL ADD SWAP1 SSTORE PUSH2 0x148C JUMP JUMPDEST ADD MLOAD PUSH1 0x0 NOT PUSH1 0xF8 DUP5 PUSH1 0x3 SHL AND SHR NOT AND SWAP1 SSTORE DUP5 DUP1 DUP1 PUSH2 0x1F8F JUMP JUMPDEST SWAP2 SWAP3 PUSH1 0x20 PUSH1 0x1 DUP2 SWAP3 DUP7 DUP12 ADD MLOAD DUP2 SSTORE ADD SWAP5 ADD SWAP3 ADD PUSH2 0x1F7A JUMP JUMPDEST DUP3 PUSH1 0x0 MSTORE PUSH1 0x20 PUSH1 0x0 KECCAK256 PUSH1 0x1F DUP4 ADD PUSH1 0x5 SHR DUP2 ADD SWAP2 PUSH1 0x20 DUP5 LT PUSH2 0x200B JUMPI JUMPDEST PUSH1 0x1F ADD PUSH1 0x5 SHR ADD SWAP1 JUMPDEST DUP2 DUP2 LT PUSH2 0x1FFF JUMPI POP PUSH2 0x145D JUMP JUMPDEST PUSH1 0x0 DUP2 SSTORE PUSH1 0x1 ADD PUSH2 0x1FF2 JUMP JUMPDEST SWAP1 SWAP2 POP DUP2 SWAP1 PUSH2 0x1FE9 JUMP JUMPDEST SWAP6 SWAP2 SWAP3 SWAP9 SWAP7 SWAP4 SWAP11 SWAP8 SWAP5 SWAP1 PUSH1 0x40 MLOAD PUSH4 0x23B872DD PUSH1 0xE0 SHL DUP2 MSTORE CALLER PUSH1 0x4 DUP3 ADD MSTORE ADDRESS PUSH1 0x24 DUP3 ADD MSTORE PUSH2 0x184 CALLDATALOAD PUSH1 0x44 DUP3 ADD MSTORE PUSH1 0x20 DUP2 PUSH1 0x64 DUP2 PUSH1 0x0 PUSH20 0x874069FA1EB16D44D622F2E0CA25EEA172369BC1 GAS CALL SWAP1 DUP2 ISZERO PUSH2 0x141 JUMPI PUSH1 0x0 SWAP2 PUSH2 0x2100 JUMPI JUMPDEST POP ISZERO PUSH2 0x20A1 JUMPI PUSH1 0x0 DUP1 SLOAD DUP2 MSTORE PUSH1 0x2 PUSH1 0x20 MSTORE PUSH1 0x40 SWAP1 KECCAK256 PUSH2 0x184 CALLDATALOAD SWAP1 SSTORE SWAP8 SWAP11 SWAP7 SWAP9 SWAP5 SWAP8 SWAP4 SWAP7 SWAP2 SWAP6 SWAP1 SWAP5 SWAP2 SWAP4 SWAP2 SWAP3 SWAP2 SWAP1 PUSH2 0x129F JUMP JUMPDEST PUSH1 0x40 MLOAD PUSH3 0x461BCD PUSH1 0xE5 SHL DUP2 MSTORE PUSH1 0x20 PUSH1 0x4 DUP3 ADD MSTORE PUSH1 0x31 PUSH1 0x24 DUP3 ADD MSTORE PUSH32 0x43555344207472616E73666572206661696C65642E20436865636B2061707072 PUSH1 0x44 DUP3 ADD MSTORE PUSH17 0x37BB30B61030B732103130B630B731B297 PUSH1 0x79 SHL PUSH1 0x64 DUP3 ADD MSTORE PUSH1 0x84 SWAP1 REVERT JUMPDEST PUSH2 0x2119 SWAP2 POP PUSH1 0x20 RETURNDATASIZE PUSH1 0x20 GT PUSH2 0x2B6 JUMPI PUSH2 0x2A8 DUP2 DUP4 PUSH2 0x2303 JUMP JUMPDEST DUP14 PUSH2 0x206F JUMP JUMPDEST PUSH1 0x40 MLOAD PUSH3 0x461BCD PUSH1 0xE5 SHL DUP2 MSTORE PUSH1 0x20 PUSH1 0x4 DUP3 ADD MSTORE PUSH1 0x1B PUSH1 0x24 DUP3 ADD MSTORE PUSH32 0x4C617374207365656E206C6F636174696F6E2072657175697265640000000000 PUSH1 0x44 DUP3 ADD MSTORE PUSH1 0x64 SWAP1 REVERT JUMPDEST PUSH1 0x40 MLOAD PUSH3 0x461BCD PUSH1 0xE5 SHL DUP2 MSTORE PUSH1 0x20 PUSH1 0x4 DUP3 ADD MSTORE PUSH1 0x11 PUSH1 0x24 DUP3 ADD MSTORE PUSH17 0x14195D081B985B59481C995C5D5A5C9959 PUSH1 0x7A SHL PUSH1 0x44 DUP3 ADD MSTORE PUSH1 0x64 SWAP1 REVERT JUMPDEST PUSH1 0x40 MLOAD PUSH3 0x461BCD PUSH1 0xE5 SHL DUP2 MSTORE PUSH1 0x20 PUSH1 0x4 DUP3 ADD MSTORE PUSH1 0x22 PUSH1 0x24 DUP3 ADD MSTORE PUSH32 0x45697468657220455448206F72204355534420626F756E747920726571756972 PUSH1 0x44 DUP3 ADD MSTORE PUSH2 0x1959 PUSH1 0xF2 SHL PUSH1 0x64 DUP3 ADD MSTORE PUSH1 0x84 SWAP1 REVERT JUMPDEST POP PUSH2 0x184 CALLDATALOAD ISZERO ISZERO PUSH2 0x1282 JUMP JUMPDEST CALLVALUE PUSH2 0x134 JUMPI PUSH1 0x0 CALLDATASIZE PUSH1 0x3 NOT ADD SLT PUSH2 0x134 JUMPI PUSH1 0x20 PUSH1 0x0 SLOAD PUSH1 0x40 MLOAD SWAP1 DUP2 MSTORE RETURN JUMPDEST CALLVALUE PUSH2 0x134 JUMPI PUSH1 0x20 CALLDATASIZE PUSH1 0x3 NOT ADD SLT PUSH2 0x134 JUMPI PUSH1 0x20 SWAP1 PUSH1 0x4 CALLDATALOAD PUSH1 0x0 MSTORE PUSH1 0x2 DUP3 MSTORE PUSH1 0x40 PUSH1 0x0 KECCAK256 SLOAD DUP2 MSTORE RETURN JUMPDEST SWAP2 DUP2 PUSH1 0x1F DUP5 ADD SLT ISZERO PUSH2 0x134 JUMPI DUP3 CALLDATALOAD SWAP2 PUSH1 0x1 PUSH1 0x1 PUSH1 0x40 SHL SUB DUP4 GT PUSH2 0x134 JUMPI PUSH1 0x20 DUP4 DUP2 DUP7 ADD SWAP6 ADD ADD GT PUSH2 0x134 JUMPI JUMP JUMPDEST SWAP2 SWAP1 DUP3 MLOAD SWAP3 DUP4 DUP3 MSTORE PUSH1 0x0 JUMPDEST DUP5 DUP2 LT PUSH2 0x2298 JUMPI POP POP DUP3 PUSH1 0x0 PUSH1 0x20 DUP1 SWAP5 SWAP6 DUP5 ADD ADD MSTORE PUSH1 0x1F DUP1 NOT SWAP2 ADD AND ADD ADD SWAP1 JUMP JUMPDEST DUP1 PUSH1 0x20 DUP1 SWAP3 DUP5 ADD ADD MLOAD DUP3 DUP3 DUP7 ADD ADD MSTORE ADD PUSH2 0x2277 JUMP JUMPDEST SWAP1 PUSH1 0x1 DUP3 DUP2 SHR SWAP3 AND DUP1 ISZERO PUSH2 0x22DD JUMPI JUMPDEST PUSH1 0x20 DUP4 LT EQ PUSH2 0x22C7 JUMPI JUMP JUMPDEST PUSH4 0x4E487B71 PUSH1 0xE0 SHL PUSH1 0x0 MSTORE PUSH1 0x22 PUSH1 0x4 MSTORE PUSH1 0x24 PUSH1 0x0 REVERT JUMPDEST SWAP2 PUSH1 0x7F AND SWAP2 PUSH2 0x22BC JUMP JUMPDEST PUSH2 0x280 DUP2 ADD SWAP1 DUP2 LT PUSH1 0x1 PUSH1 0x1 PUSH1 0x40 SHL SUB DUP3 GT OR PUSH2 0x1987 JUMPI PUSH1 0x40 MSTORE JUMP JUMPDEST SWAP1 PUSH1 0x1F DUP1 NOT SWAP2 ADD AND DUP2 ADD SWAP1 DUP2 LT PUSH1 0x1 PUSH1 0x1 PUSH1 0x40 SHL SUB DUP3 GT OR PUSH2 0x1987 JUMPI PUSH1 0x40 MSTORE JUMP JUMPDEST SWAP1 PUSH1 0x40 MLOAD SWAP2 DUP3 PUSH1 0x0 DUP3 SLOAD SWAP3 PUSH2 0x2338 DUP5 PUSH2 0x22AD JUMP JUMPDEST DUP1 DUP5 MSTORE SWAP4 PUSH1 0x1 DUP2 AND SWAP1 DUP2 ISZERO PUSH2 0x23A6 JUMPI POP PUSH1 0x1 EQ PUSH2 0x235F JUMPI JUMPDEST POP PUSH2 0x235D SWAP3 POP SUB DUP4 PUSH2 0x2303 JUMP JUMPDEST JUMP JUMPDEST SWAP1 POP PUSH1 0x0 SWAP3 SWAP2 SWAP3 MSTORE PUSH1 0x20 PUSH1 0x0 KECCAK256 SWAP1 PUSH1 0x0 SWAP2 JUMPDEST DUP2 DUP4 LT PUSH2 0x238A JUMPI POP POP SWAP1 PUSH1 0x20 PUSH2 0x235D SWAP3 DUP3 ADD ADD CODESIZE PUSH2 0x2350 JUMP JUMPDEST PUSH1 0x20 SWAP2 SWAP4 POP DUP1 PUSH1 0x1 SWAP2 SLOAD DUP4 DUP6 DUP10 ADD ADD MSTORE ADD SWAP2 ADD SWAP1 SWAP2 DUP5 SWAP3 PUSH2 0x2371 JUMP JUMPDEST SWAP1 POP PUSH1 0x20 SWAP3 POP PUSH2 0x235D SWAP5 SWAP2 POP PUSH1 0xFF NOT AND DUP3 DUP5 ADD MSTORE ISZERO ISZERO PUSH1 0x5 SHL DUP3 ADD ADD CODESIZE PUSH2 0x2350 JUMP JUMPDEST SWAP1 DUP2 PUSH1 0x20 SWAP2 SUB SLT PUSH2 0x134 JUMPI MLOAD DUP1 ISZERO ISZERO DUP2 SUB PUSH2 0x134 JUMPI SWAP1 JUMP JUMPDEST SWAP3 SWAP2 SWAP3 PUSH1 0x1 PUSH1 0x1 PUSH1 0x40 SHL SUB DUP3 GT PUSH2 0x1987 JUMPI PUSH1 0x40 MLOAD SWAP2 PUSH2 0x2409 PUSH1 0x1F DUP3 ADD PUSH1 0x1F NOT AND PUSH1 0x20 ADD DUP5 PUSH2 0x2303 JUMP JUMPDEST DUP3 SWAP5 DUP2 DUP5 MSTORE DUP2 DUP4 ADD GT PUSH2 0x134 JUMPI DUP3 DUP2 PUSH1 0x20 SWAP4 DUP5 PUSH1 0x0 SWAP7 ADD CALLDATACOPY ADD ADD MSTORE JUMP JUMPDEST PUSH1 0x0 NOT DUP2 EQ PUSH2 0x2435 JUMPI PUSH1 0x1 ADD SWAP1 JUMP JUMPDEST PUSH4 0x4E487B71 PUSH1 0xE0 SHL PUSH1 0x0 MSTORE PUSH1 0x11 PUSH1 0x4 MSTORE PUSH1 0x24 PUSH1 0x0 REVERT JUMPDEST PUSH1 0x1 PUSH1 0x1 PUSH1 0x40 SHL SUB DUP2 GT PUSH2 0x1987 JUMPI PUSH1 0x5 SHL PUSH1 0x20 ADD SWAP1 JUMP JUMPDEST DUP1 MLOAD DUP3 LT ISZERO PUSH2 0x2476 JUMPI PUSH1 0x20 SWAP2 PUSH1 0x5 SHL ADD ADD SWAP1 JUMP JUMPDEST PUSH4 0x4E487B71 PUSH1 0xE0 SHL PUSH1 0x0 MSTORE PUSH1 0x32 PUSH1 0x4 MSTORE PUSH1 0x24 PUSH1 0x0 REVERT JUMPDEST ISZERO PUSH2 0x2493 JUMPI JUMP JUMPDEST PUSH1 0x40 MLOAD PUSH3 0x461BCD PUSH1 0xE5 SHL DUP2 MSTORE PUSH1 0x20 PUSH1 0x4 DUP3 ADD MSTORE PUSH1 0xD PUSH1 0x24 DUP3 ADD MSTORE PUSH13 0x105B1C9958591E48199BDD5B99 PUSH1 0x9A SHL PUSH1 0x44 DUP3 ADD MSTORE PUSH1 0x64 SWAP1 REVERT INVALID LOG2 PUSH5 0x6970667358 0x22 SLT KECCAK256 SWAP11 0xD8 0x4B ISZERO DIV PUSH18 0x75C1CFA97DE65B74008B397AC338FC3837E7 0xE3 0xAC DUP16 0xFC SWAP13 0xBB DUP12 CALLDATASIZE PUSH5 0x736F6C6343 STOP ADDMOD SHR STOP CALLER "
        },
        "methodIdentifiers": {
          "CUSD_ADDRESS()": "465c66e9",
          "cancelAndRefund(uint256)": "d32bfb6c",
          "claimBounty(uint256)": "44021ad7",
          "confirmFoundByOwner(uint256)": "5e23985b",
          "escrowedCUSD(uint256)": "1850e3a7",
          "getAllLostPets()": "543df5a3",
          "getContractCUSDBalance()": "eb462f7b",
          "getEscrowedCUSDBalance(uint256)": "4837201c",
          "getLostPetsCount()": "8b504c17",
          "markAsFound(uint256)": "b3035b64",
          "nextPetId()": "403f8cc7",
          "pets(uint256)": "cfb869bf",
          "postLostPet(string,string,string,uint256,uint256,string,string,string,string,string,string,string,uint256)": "43dc70a7"
        }
      }
    }
  }
}