{
  "contracts/PetTrace.sol": {
    "PetTrace": {
      "abi": [
        {
          "inputs": [],
          "stateMutability": "nonpayable",
          "type": "constructor"
        },
        {
          "anonymous": false,
          "inputs": [
            {
              "indexed": true,
              "internalType": "address",
              "name": "newAdmin",
              "type": "address"
            }
          ],
          "name": "AdminChanged",
          "type": "event"
        },
        {
          "anonymous": false,
          "inputs": [
            {
              "indexed": true,
              "internalType": "uint256",
              "name": "petId",
              "type": "uint256"
            },
            {
              "indexed": true,
              "internalType": "address",
              "name": "finder",
              "type": "address"
            },
            {
              "indexed": false,
              "internalType": "uint256",
              "name": "celoAmount",
              "type": "uint256"
            },
            {
              "indexed": false,
              "internalType": "uint256",
              "name": "cUSDAmount",
              "type": "uint256"
            },
            {
              "indexed": false,
              "internalType": "uint256",
              "name": "gDollarAmount",
              "type": "uint256"
            },
            {
              "indexed": false,
              "internalType": "uint256",
              "name": "usdtAmount",
              "type": "uint256"
            }
          ],
          "name": "BountyClaimed",
          "type": "event"
        },
        {
          "anonymous": false,
          "inputs": [
            {
              "indexed": true,
              "internalType": "uint256",
              "name": "petId",
              "type": "uint256"
            },
            {
              "indexed": true,
              "internalType": "address",
              "name": "owner",
              "type": "address"
            },
            {
              "indexed": false,
              "internalType": "uint256",
              "name": "celoAmount",
              "type": "uint256"
            },
            {
              "indexed": false,
              "internalType": "uint256",
              "name": "cUSDAmount",
              "type": "uint256"
            },
            {
              "indexed": false,
              "internalType": "uint256",
              "name": "gDollarAmount",
              "type": "uint256"
            },
            {
              "indexed": false,
              "internalType": "uint256",
              "name": "usdtAmount",
              "type": "uint256"
            }
          ],
          "name": "BountyRefunded",
          "type": "event"
        },
        {
          "anonymous": false,
          "inputs": [
            {
              "indexed": true,
              "internalType": "uint256",
              "name": "petId",
              "type": "uint256"
            },
            {
              "indexed": true,
              "internalType": "address",
              "name": "confirmer",
              "type": "address"
            },
            {
              "indexed": false,
              "internalType": "bool",
              "name": "isOwner",
              "type": "bool"
            }
          ],
          "name": "ConfirmationAdded",
          "type": "event"
        },
        {
          "anonymous": false,
          "inputs": [
            {
              "indexed": true,
              "internalType": "uint256",
              "name": "petId",
              "type": "uint256"
            },
            {
              "indexed": true,
              "internalType": "address",
              "name": "finder",
              "type": "address"
            },
            {
              "indexed": false,
              "internalType": "string",
              "name": "evidenceUrl",
              "type": "string"
            },
            {
              "indexed": false,
              "internalType": "uint256",
              "name": "timestamp",
              "type": "uint256"
            }
          ],
          "name": "FinderReportSubmitted",
          "type": "event"
        },
        {
          "anonymous": false,
          "inputs": [
            {
              "indexed": true,
              "internalType": "uint256",
              "name": "petId",
              "type": "uint256"
            },
            {
              "indexed": true,
              "internalType": "address",
              "name": "finder",
              "type": "address"
            }
          ],
          "name": "PetFound",
          "type": "event"
        },
        {
          "anonymous": false,
          "inputs": [
            {
              "indexed": true,
              "internalType": "uint256",
              "name": "petId",
              "type": "uint256"
            },
            {
              "indexed": true,
              "internalType": "address",
              "name": "owner",
              "type": "address"
            }
          ],
          "name": "PetPosted",
          "type": "event"
        },
        {
          "inputs": [],
          "name": "BOUNTY_TIMEOUT",
          "outputs": [
            {
              "internalType": "uint256",
              "name": "",
              "type": "uint256"
            }
          ],
          "stateMutability": "view",
          "type": "function"
        },
        {
          "inputs": [],
          "name": "CUSD_ADDRESS",
          "outputs": [
            {
              "internalType": "address",
              "name": "",
              "type": "address"
            }
          ],
          "stateMutability": "view",
          "type": "function"
        },
        {
          "inputs": [],
          "name": "GDOLLAR_ADDRESS",
          "outputs": [
            {
              "internalType": "address",
              "name": "",
              "type": "address"
            }
          ],
          "stateMutability": "view",
          "type": "function"
        },
        {
          "inputs": [],
          "name": "MAX_CELO_BOUNTY",
          "outputs": [
            {
              "internalType": "uint256",
              "name": "",
              "type": "uint256"
            }
          ],
          "stateMutability": "view",
          "type": "function"
        },
        {
          "inputs": [],
          "name": "MAX_CUSD_BOUNTY",
          "outputs": [
            {
              "internalType": "uint256",
              "name": "",
              "type": "uint256"
            }
          ],
          "stateMutability": "view",
          "type": "function"
        },
        {
          "inputs": [],
          "name": "MAX_USDT_BOUNTY",
          "outputs": [
            {
              "internalType": "uint256",
              "name": "",
              "type": "uint256"
            }
          ],
          "stateMutability": "view",
          "type": "function"
        },
        {
          "inputs": [],
          "name": "USDT_ADDRESS",
          "outputs": [
            {
              "internalType": "address",
              "name": "",
              "type": "address"
            }
          ],
          "stateMutability": "view",
          "type": "function"
        },
        {
          "inputs": [],
          "name": "admin",
          "outputs": [
            {
              "internalType": "address",
              "name": "",
              "type": "address"
            }
          ],
          "stateMutability": "view",
          "type": "function"
        },
        {
          "inputs": [
            {
              "internalType": "uint256",
              "name": "petId",
              "type": "uint256"
            }
          ],
          "name": "cancelAndRefund",
          "outputs": [],
          "stateMutability": "nonpayable",
          "type": "function"
        },
        {
          "inputs": [
            {
              "internalType": "uint256",
              "name": "petId",
              "type": "uint256"
            },
            {
              "internalType": "address",
              "name": "chosenFinder",
              "type": "address"
            }
          ],
          "name": "chooseFinder",
          "outputs": [],
          "stateMutability": "nonpayable",
          "type": "function"
        },
        {
          "inputs": [
            {
              "internalType": "uint256",
              "name": "petId",
              "type": "uint256"
            }
          ],
          "name": "claimBounty",
          "outputs": [],
          "stateMutability": "nonpayable",
          "type": "function"
        },
        {
          "inputs": [
            {
              "internalType": "uint256",
              "name": "petId",
              "type": "uint256"
            }
          ],
          "name": "confirmFoundByOwner",
          "outputs": [],
          "stateMutability": "nonpayable",
          "type": "function"
        },
        {
          "inputs": [
            {
              "internalType": "address",
              "name": "to",
              "type": "address"
            }
          ],
          "name": "emergencyWithdrawCUSD",
          "outputs": [],
          "stateMutability": "nonpayable",
          "type": "function"
        },
        {
          "inputs": [
            {
              "internalType": "address",
              "name": "to",
              "type": "address"
            }
          ],
          "name": "emergencyWithdrawUSDT",
          "outputs": [],
          "stateMutability": "nonpayable",
          "type": "function"
        },
        {
          "inputs": [
            {
              "internalType": "uint256",
              "name": "",
              "type": "uint256"
            }
          ],
          "name": "escrowedCUSD",
          "outputs": [
            {
              "internalType": "uint256",
              "name": "",
              "type": "uint256"
            }
          ],
          "stateMutability": "view",
          "type": "function"
        },
        {
          "inputs": [
            {
              "internalType": "uint256",
              "name": "",
              "type": "uint256"
            }
          ],
          "name": "escrowedGDOLLAR",
          "outputs": [
            {
              "internalType": "uint256",
              "name": "",
              "type": "uint256"
            }
          ],
          "stateMutability": "view",
          "type": "function"
        },
        {
          "inputs": [
            {
              "internalType": "uint256",
              "name": "",
              "type": "uint256"
            }
          ],
          "name": "escrowedUSDT",
          "outputs": [
            {
              "internalType": "uint256",
              "name": "",
              "type": "uint256"
            }
          ],
          "stateMutability": "view",
          "type": "function"
        },
        {
          "inputs": [
            {
              "internalType": "uint256",
              "name": "",
              "type": "uint256"
            },
            {
              "internalType": "uint256",
              "name": "",
              "type": "uint256"
            }
          ],
          "name": "finderReports",
          "outputs": [
            {
              "internalType": "address",
              "name": "finder",
              "type": "address"
            },
            {
              "internalType": "string",
              "name": "evidenceUrl",
              "type": "string"
            },
            {
              "internalType": "uint256",
              "name": "timestamp",
              "type": "uint256"
            }
          ],
          "stateMutability": "view",
          "type": "function"
        },
        {
          "inputs": [],
          "name": "getAllLostPets",
          "outputs": [
            {
              "internalType": "uint256[]",
              "name": "",
              "type": "uint256[]"
            },
            {
              "components": [
                {
                  "internalType": "uint256",
                  "name": "id",
                  "type": "uint256"
                },
                {
                  "internalType": "address payable",
                  "name": "owner",
                  "type": "address"
                },
                {
                  "internalType": "string",
                  "name": "name",
                  "type": "string"
                },
                {
                  "internalType": "string",
                  "name": "breed",
                  "type": "string"
                },
                {
                  "internalType": "string",
                  "name": "gender",
                  "type": "string"
                },
                {
                  "internalType": "uint128",
                  "name": "sizeCm",
                  "type": "uint128"
                },
                {
                  "internalType": "uint128",
                  "name": "ageMonths",
                  "type": "uint128"
                },
                {
                  "internalType": "string",
                  "name": "dateTimeLost",
                  "type": "string"
                },
                {
                  "internalType": "string",
                  "name": "description",
                  "type": "string"
                },
                {
                  "internalType": "string",
                  "name": "imageUrl",
                  "type": "string"
                },
                {
                  "internalType": "string",
                  "name": "lastSeenLocation",
                  "type": "string"
                },
                {
                  "internalType": "string",
                  "name": "contactName",
                  "type": "string"
                },
                {
                  "internalType": "string",
                  "name": "contactPhone",
                  "type": "string"
                },
                {
                  "internalType": "string",
                  "name": "contactEmail",
                  "type": "string"
                },
                {
                  "internalType": "uint128",
                  "name": "celoBounty",
                  "type": "uint128"
                },
                {
                  "internalType": "uint128",
                  "name": "cUSDBounty",
                  "type": "uint128"
                },
                {
                  "internalType": "uint128",
                  "name": "USDTBounty",
                  "type": "uint128"
                },
                {
                  "internalType": "uint128",
                  "name": "gDollarBounty",
                  "type": "uint128"
                },
                {
                  "internalType": "enum PetTrace.PetStatus",
                  "name": "status",
                  "type": "uint8"
                },
                {
                  "internalType": "bool",
                  "name": "ownerConfirmed",
                  "type": "bool"
                },
                {
                  "internalType": "bool",
                  "name": "finderConfirmed",
                  "type": "bool"
                },
                {
                  "internalType": "address",
                  "name": "finder",
                  "type": "address"
                }
              ],
              "internalType": "struct PetTrace.Pet[]",
              "name": "",
              "type": "tuple[]"
            }
          ],
          "stateMutability": "view",
          "type": "function"
        },
        {
          "inputs": [],
          "name": "getAllPets",
          "outputs": [
            {
              "components": [
                {
                  "internalType": "uint256",
                  "name": "id",
                  "type": "uint256"
                },
                {
                  "internalType": "address payable",
                  "name": "owner",
                  "type": "address"
                },
                {
                  "internalType": "string",
                  "name": "name",
                  "type": "string"
                },
                {
                  "internalType": "string",
                  "name": "breed",
                  "type": "string"
                },
                {
                  "internalType": "string",
                  "name": "gender",
                  "type": "string"
                },
                {
                  "internalType": "uint128",
                  "name": "sizeCm",
                  "type": "uint128"
                },
                {
                  "internalType": "uint128",
                  "name": "ageMonths",
                  "type": "uint128"
                },
                {
                  "internalType": "string",
                  "name": "dateTimeLost",
                  "type": "string"
                },
                {
                  "internalType": "string",
                  "name": "description",
                  "type": "string"
                },
                {
                  "internalType": "string",
                  "name": "imageUrl",
                  "type": "string"
                },
                {
                  "internalType": "string",
                  "name": "lastSeenLocation",
                  "type": "string"
                },
                {
                  "internalType": "string",
                  "name": "contactName",
                  "type": "string"
                },
                {
                  "internalType": "string",
                  "name": "contactPhone",
                  "type": "string"
                },
                {
                  "internalType": "string",
                  "name": "contactEmail",
                  "type": "string"
                },
                {
                  "internalType": "uint128",
                  "name": "celoBounty",
                  "type": "uint128"
                },
                {
                  "internalType": "uint128",
                  "name": "cUSDBounty",
                  "type": "uint128"
                },
                {
                  "internalType": "uint128",
                  "name": "USDTBounty",
                  "type": "uint128"
                },
                {
                  "internalType": "uint128",
                  "name": "gDollarBounty",
                  "type": "uint128"
                },
                {
                  "internalType": "enum PetTrace.PetStatus",
                  "name": "status",
                  "type": "uint8"
                },
                {
                  "internalType": "bool",
                  "name": "ownerConfirmed",
                  "type": "bool"
                },
                {
                  "internalType": "bool",
                  "name": "finderConfirmed",
                  "type": "bool"
                },
                {
                  "internalType": "address",
                  "name": "finder",
                  "type": "address"
                }
              ],
              "internalType": "struct PetTrace.Pet[]",
              "name": "",
              "type": "tuple[]"
            }
          ],
          "stateMutability": "view",
          "type": "function"
        },
        {
          "inputs": [
            {
              "internalType": "uint256",
              "name": "petId",
              "type": "uint256"
            }
          ],
          "name": "getFinderReportCount",
          "outputs": [
            {
              "internalType": "uint256",
              "name": "",
              "type": "uint256"
            }
          ],
          "stateMutability": "view",
          "type": "function"
        },
        {
          "inputs": [
            {
              "internalType": "uint256",
              "name": "petId",
              "type": "uint256"
            }
          ],
          "name": "getFinderReports",
          "outputs": [
            {
              "components": [
                {
                  "internalType": "address",
                  "name": "finder",
                  "type": "address"
                },
                {
                  "internalType": "string",
                  "name": "evidenceUrl",
                  "type": "string"
                },
                {
                  "internalType": "uint256",
                  "name": "timestamp",
                  "type": "uint256"
                }
              ],
              "internalType": "struct PetTrace.FinderReport[]",
              "name": "",
              "type": "tuple[]"
            }
          ],
          "stateMutability": "view",
          "type": "function"
        },
        {
          "inputs": [
            {
              "internalType": "uint256",
              "name": "startIndex",
              "type": "uint256"
            },
            {
              "internalType": "uint256",
              "name": "maxCount",
              "type": "uint256"
            }
          ],
          "name": "getLostPetIds",
          "outputs": [
            {
              "internalType": "uint256[]",
              "name": "ids",
              "type": "uint256[]"
            },
            {
              "internalType": "bool",
              "name": "hasMore",
              "type": "bool"
            }
          ],
          "stateMutability": "view",
          "type": "function"
        },
        {
          "inputs": [],
          "name": "getLostPetsCount",
          "outputs": [
            {
              "internalType": "uint256",
              "name": "",
              "type": "uint256"
            }
          ],
          "stateMutability": "view",
          "type": "function"
        },
        {
          "inputs": [
            {
              "internalType": "uint256",
              "name": "petId",
              "type": "uint256"
            }
          ],
          "name": "getPetDetails",
          "outputs": [
            {
              "internalType": "uint256",
              "name": "",
              "type": "uint256"
            },
            {
              "internalType": "address",
              "name": "",
              "type": "address"
            },
            {
              "internalType": "string",
              "name": "",
              "type": "string"
            },
            {
              "internalType": "string",
              "name": "",
              "type": "string"
            },
            {
              "internalType": "string",
              "name": "",
              "type": "string"
            },
            {
              "internalType": "uint128",
              "name": "",
              "type": "uint128"
            },
            {
              "internalType": "uint128",
              "name": "",
              "type": "uint128"
            },
            {
              "internalType": "string",
              "name": "",
              "type": "string"
            },
            {
              "internalType": "string",
              "name": "",
              "type": "string"
            },
            {
              "internalType": "string",
              "name": "",
              "type": "string"
            },
            {
              "internalType": "string",
              "name": "",
              "type": "string"
            },
            {
              "internalType": "string",
              "name": "",
              "type": "string"
            },
            {
              "internalType": "string",
              "name": "",
              "type": "string"
            },
            {
              "internalType": "string",
              "name": "",
              "type": "string"
            },
            {
              "internalType": "uint128",
              "name": "",
              "type": "uint128"
            },
            {
              "internalType": "uint128",
              "name": "",
              "type": "uint128"
            },
            {
              "internalType": "uint128",
              "name": "",
              "type": "uint128"
            },
            {
              "internalType": "uint128",
              "name": "",
              "type": "uint128"
            },
            {
              "internalType": "enum PetTrace.PetStatus",
              "name": "",
              "type": "uint8"
            },
            {
              "internalType": "bool",
              "name": "",
              "type": "bool"
            },
            {
              "internalType": "bool",
              "name": "",
              "type": "bool"
            },
            {
              "internalType": "address",
              "name": "",
              "type": "address"
            }
          ],
          "stateMutability": "view",
          "type": "function"
        },
        {
          "inputs": [
            {
              "internalType": "uint256",
              "name": "petId",
              "type": "uint256"
            }
          ],
          "name": "markAsFound",
          "outputs": [],
          "stateMutability": "nonpayable",
          "type": "function"
        },
        {
          "inputs": [],
          "name": "nextPetId",
          "outputs": [
            {
              "internalType": "uint256",
              "name": "",
              "type": "uint256"
            }
          ],
          "stateMutability": "view",
          "type": "function"
        },
        {
          "inputs": [
            {
              "internalType": "uint256",
              "name": "",
              "type": "uint256"
            }
          ],
          "name": "pets",
          "outputs": [
            {
              "internalType": "uint256",
              "name": "id",
              "type": "uint256"
            },
            {
              "internalType": "address payable",
              "name": "owner",
              "type": "address"
            },
            {
              "internalType": "string",
              "name": "name",
              "type": "string"
            },
            {
              "internalType": "string",
              "name": "breed",
              "type": "string"
            },
            {
              "internalType": "string",
              "name": "gender",
              "type": "string"
            },
            {
              "internalType": "uint128",
              "name": "sizeCm",
              "type": "uint128"
            },
            {
              "internalType": "uint128",
              "name": "ageMonths",
              "type": "uint128"
            },
            {
              "internalType": "string",
              "name": "dateTimeLost",
              "type": "string"
            },
            {
              "internalType": "string",
              "name": "description",
              "type": "string"
            },
            {
              "internalType": "string",
              "name": "imageUrl",
              "type": "string"
            },
            {
              "internalType": "string",
              "name": "lastSeenLocation",
              "type": "string"
            },
            {
              "internalType": "string",
              "name": "contactName",
              "type": "string"
            },
            {
              "internalType": "string",
              "name": "contactPhone",
              "type": "string"
            },
            {
              "internalType": "string",
              "name": "contactEmail",
              "type": "string"
            },
            {
              "internalType": "uint128",
              "name": "celoBounty",
              "type": "uint128"
            },
            {
              "internalType": "uint128",
              "name": "cUSDBounty",
              "type": "uint128"
            },
            {
              "internalType": "uint128",
              "name": "USDTBounty",
              "type": "uint128"
            },
            {
              "internalType": "uint128",
              "name": "gDollarBounty",
              "type": "uint128"
            },
            {
              "internalType": "enum PetTrace.PetStatus",
              "name": "status",
              "type": "uint8"
            },
            {
              "internalType": "bool",
              "name": "ownerConfirmed",
              "type": "bool"
            },
            {
              "internalType": "bool",
              "name": "finderConfirmed",
              "type": "bool"
            },
            {
              "internalType": "address",
              "name": "finder",
              "type": "address"
            }
          ],
          "stateMutability": "view",
          "type": "function"
        },
        {
          "inputs": [
            {
              "internalType": "string",
              "name": "name",
              "type": "string"
            },
            {
              "internalType": "string",
              "name": "breed",
              "type": "string"
            },
            {
              "internalType": "string",
              "name": "gender",
              "type": "string"
            },
            {
              "internalType": "uint128",
              "name": "sizeCm",
              "type": "uint128"
            },
            {
              "internalType": "uint128",
              "name": "ageMonths",
              "type": "uint128"
            },
            {
              "internalType": "string",
              "name": "dateTimeLost",
              "type": "string"
            },
            {
              "internalType": "string",
              "name": "description",
              "type": "string"
            },
            {
              "internalType": "string",
              "name": "imageUrl",
              "type": "string"
            },
            {
              "internalType": "string",
              "name": "lastSeenLocation",
              "type": "string"
            },
            {
              "internalType": "string",
              "name": "contactName",
              "type": "string"
            },
            {
              "internalType": "string",
              "name": "contactPhone",
              "type": "string"
            },
            {
              "internalType": "string",
              "name": "contactEmail",
              "type": "string"
            },
            {
              "internalType": "uint128",
              "name": "cUSDBounty",
              "type": "uint128"
            },
            {
              "internalType": "uint128",
              "name": "gDollarBounty",
              "type": "uint128"
            },
            {
              "internalType": "uint128",
              "name": "USDTBounty",
              "type": "uint128"
            }
          ],
          "name": "postLostPet",
          "outputs": [],
          "stateMutability": "payable",
          "type": "function"
        },
        {
          "inputs": [
            {
              "internalType": "uint256",
              "name": "",
              "type": "uint256"
            }
          ],
          "name": "postTime",
          "outputs": [
            {
              "internalType": "uint256",
              "name": "",
              "type": "uint256"
            }
          ],
          "stateMutability": "view",
          "type": "function"
        },
        {
          "inputs": [
            {
              "internalType": "uint256",
              "name": "petId",
              "type": "uint256"
            },
            {
              "internalType": "string",
              "name": "evidenceUrl",
              "type": "string"
            }
          ],
          "name": "submitFinderReport",
          "outputs": [],
          "stateMutability": "nonpayable",
          "type": "function"
        },
        {
          "inputs": [
            {
              "internalType": "address",
              "name": "newAdmin",
              "type": "address"
            }
          ],
          "name": "transferAdmin",
          "outputs": [],
          "stateMutability": "nonpayable",
          "type": "function"
        }
      ],
      "evm": {
        "bytecode": {
          "linkReferences": {},
          "object": "6080806040523460355760008054610100600160a81b0319163360081b610100600160a81b0316179055614838908161003b8239f35b600080fdfe61048080604052600436101561001457600080fd5b60003560e01c9081630b5d39fa14613d1c575080630da92f6814613caa5780631850e3a714613c7e5780633f26decd14613b7c5780633fa8be3214613b59578063403f8cc714613b3b57806342c48ded14613a1757806344021ad71461363a578063465c66e91461360b5780634a341581146135df578063543df5a31461335a57806354bb73e1146119065780635521aac51461159d5780635b236d97146113c15780635e23985b1461126157806375829def1461119c5780638b504c17146111315780639dc5ac7214610baf578063a06e00611461101d578063b213aa3714610e46578063b3035b6414610ce8578063b4e849bf14610bb4578063b83056e514610baf578063c189205814610b80578063cfb869bf146108f9578063d25a6f05146108cd578063d32bfb6c146104e1578063d74a48a4146104b5578063d89fd4b41461021a578063ee7afb1c146101eb578063f677b0b7146101b25763f851a4401461018057600080fd5b346101ad5760003660031901126101ad5760005460405160089190911c6001600160a01b03168152602090f35b600080fd5b346101ad5760203660031901126101ad576004356101d36001548210614250565b60005260076020526020604060002054604051908152f35b346101ad5760003660031901126101ad5760206040517362b8b11039fcfe5ab0c56e502b1c372a3d2a9c7a8152f35b346101ad5760203660031901126101ad57600435600154811061023c90614250565b600052600260205260406000208054600160a01b60019003600183015416600583015491600d84015493600e81015492600f820154946002830161027f90613e12565b9061028c60038501613e12565b9061029960048601613e12565b906102a660068701613e12565b906102b360078801613e12565b926102c060088901613e12565b946102cd60098a01613e12565b966102da600a8b01613e12565b986102e7600b8c01613e12565b9a600c016102f490613e12565b9b6040516101405261014051526101405160200152610140516040016102c09052610140516102c00161032691613ed9565b610140518103610140516060015261033d91613ed9565b610140518103610140516080015261035491613ed9565b906001600160801b0381166101405160a0015260801c6101405160c001526101405181036101405160e0015261038991613ed9565b6101405181036101405161010001526103a191613ed9565b6101405181036101405161012001526103b991613ed9565b6101405181036101405161014001526103d191613ed9565b6101405181036101405161016001526103e991613ed9565b61014051810361014051610180015261040191613ed9565b610140518103610140516101a0015261041991613ed9565b926001600160801b038116610140516101c0015260801c610140516101e001528060801c6101405161020001526001600160801b0316610140516102200152610140516102400160ff82169061046e91613f48565b8060081c60ff1615156101405161026001528060101c60ff161515610140516102800152600160a01b600190039060181c16610140516102a0015261014051900361014051f35b346101ad5760203660031901126101ad5760043560005260066020526020604060002054604051908152f35b346101ad5760203660031901126101ad5760043580600052600260205261051960018060a01b036001604060002001541633146145c0565b600160005461052b60ff821615614291565b60ff191617600055806000526002602052604060002090600f8201805460ff811660038110156108b75761055f9015614583565b60181c6001600160a01b031661087257600d83018054600e909401805460009283905590829055838252600360209081526040808420849055600482528084208490556005909152822091909155815460ff19166002179091556001600160801b038084169390821691608090811c91901c848015801561084b575b5050806107a5575b81610701575b8261063f575b604080519586526020860191909152840152606083015233917f9f70c02b620041e5ef7926462e26f0e05d726f6e83957ba9b18db7e1c6a12c209080608081015b0390a36000805460ff19169055005b60405163a9059cbb60e01b81523360048201526024810184905260208160448160007348065fbbe25f71c9282ddf5e1cd6d6a887483d5e5af19081156106f5576000916106c6575b506105ef5760405162461bcd60e51b81526020600482015260126024820152711554d115081c99599d5b990819985a5b195960721b6044820152606490fd5b6106e8915060203d6020116106ee575b6106e08183613df1565b8101906141fa565b86610687565b503d6106d6565b6040513d6000823e3d90fd5b60405163a9059cbb60e01b81523360048201526024810183905260208160448160007362b8b11039fcfe5ab0c56e502b1c372a3d2a9c7a5af19081156106f557600091610786575b506105e95760405162461bcd60e51b815260206004820152601060248201526f11c9081c99599d5b990819985a5b195960821b6044820152606490fd5b61079f915060203d6020116106ee576106e08183613df1565b86610749565b60405163a9059cbb60e01b815233600482015260248101829052602081604481600073765de816845861e75a25fca122bb6898b8b1282a5af19081156106f55760009161082c575b506105e35760405162461bcd60e51b815260206004820152601260248201527118d554d1081c99599d5b990819985a5b195960721b6044820152606490fd5b610845915060203d6020116106ee576106e08183613df1565b866107ed565b600090610869575b600080809381933390f1156106f55784866105db565b506108fc610853565b60405162461bcd60e51b815260206004820152601760248201527f46696e64657220616c72656164792061737369676e65640000000000000000006044820152606490fd5b634e487b7160e01b600052602160045260246000fd5b346101ad5760203660031901126101ad5760043560005260046020526020604060002054604051908152f35b346101ad5760203660031901126101ad57600435600052600260205260406000208054600160a01b60019003600183015416916002810161093990613e12565b61094560038301613e12565b61095160048401613e12565b600584015461096260068601613e12565b61096e60078701613e12565b61097a60088801613e12565b9161098760098901613e12565b93610994600a8a01613e12565b956109a1600b8b01613e12565b976109ae600c8c01613e12565b99600d8c01549d600e8d01549c600f01549d6040516101a0526101a051526101a051602001526101a0516040016102c090526101a0516102c0016109f191613ed9565b6101a05181036101a05160600152610a0891613ed9565b6101a05181036101a05160800152610a1f91613ed9565b906001600160801b0381166101a05160a0015260801c6101a05160c001526101a05181036101a05160e00152610a5491613ed9565b6101a05181036101a0516101000152610a6c91613ed9565b6101a05181036101a0516101200152610a8491613ed9565b6101a05181036101a0516101400152610a9c91613ed9565b6101a05181036101a0516101600152610ab491613ed9565b6101a05181036101a0516101800152610acc91613ed9565b6101a05181036101a0516101a00152610ae491613ed9565b926001600160801b0381166101a0516101c0015260801c6101a0516101e001526001600160801b0381166101a051610200015260801c6101a05161022001526101a0516102400160ff821690610b3991613f48565b8060081c60ff1615156101a05161026001528060101c60ff1615156101a0516102800152600160a01b600190039060181c166101a0516102a001526101a05190036101a051f35b346101ad5760003660031901126101ad5760206040517348065fbbe25f71c9282ddf5e1cd6d6a887483d5e8152f35b61419d565b346101ad5760203660031901126101ad57600435610bd56001548210614250565b60005260076020526040600020805490610bee826143b3565b91610bfc6040519384613df1565b80835260208301809260005260206000206000915b838310610ca357848660405191829160208301906020845251809152604083019060408160051b85010192916000905b828210610c5057505050500390f35b919360019193955060208091603f19898203018552875190848060a01b038251168152604080610c8d858501516060878601526060850190613ed9565b9301519101529601920192018594939192610c41565b60036020600192604051610cb681613dd6565b848060a01b038654168152610ccc858701613e12565b8382015260028601546040820152815201920192019190610c11565b346101ad5760203660031901126101ad57600435610d096001548210614250565b6001600054610d1b60ff821615614291565b60ff1916176000558060005260026020526040600020600f81019060ff82541660038110156108b757610d4e9015614583565b600101546001600160a01b03163314610e085780543360181b6301000000600160b81b031662010000600160b81b031990911617620100001780825560081c60ff16610dd0575b5060405190600082527fc7db73a2d1dc7fd351b6549efad129bbf568e618dbbe683abfa0d1550a96e5ae60203393a36000805460ff19169055005b805460ff1916600117905533817f2c54217aed12a18c71e20e5a6a3f13f8cfddbb2c3a0a5f409861478c7fd39e81600080a381610d95565b60405162461bcd60e51b815260206004820152601660248201527527bbb732b91031b0b73737ba103132903334b73232b960511b6044820152606490fd5b346101ad5760403660031901126101ad576024356001600160a01b038116906004358282036101ad57806000526002602052610e9360018060a01b036001604060002001541633146145c0565b6001600054610ea560ff821615614291565b60ff191617600055806000526002602052600f60406000200160ff81541660038110156108b757610ed69015614583565b8315610fdf5760009260005b836000526007602052604060002054811015610fd65783600052600760205285610f10826040600020613d4e565b50546001600160a01b031614610f2857600101610ee2565b509091925060015b15610f995781546301000000600160b81b03191660189190911b6301000000600160b81b0316178155805462ffffff1916620101011790557f2c54217aed12a18c71e20e5a6a3f13f8cfddbb2c3a0a5f409861478c7fd39e81600080a36000805460ff19169055005b60405162461bcd60e51b815260206004820152601560248201527446696e646572206e6f7420696e207265706f72747360581b6044820152606490fd5b50909192610f30565b60405162461bcd60e51b8152602060048201526016602482015275496e76616c69642066696e646572206164647265737360501b6044820152606490fd5b346101ad5761102b36613d38565b8101600081831161111b578190600154809311611113575b835b8281106110d35750611056906143ca565b916000935b828110611087575061107c9350604051938493604085526040850190613f14565b911060208301520390f35b80600052600260205260ff600f604060002001541660038110156108b757156110b3575b60010161105b565b936110cb81866110c5600194886144f3565b526143a4565b9490506110ab565b80600052600260205260ff600f604060002001541660038110156108b757156110ff575b600101611045565b9061110b6001916143a4565b9190506110f7565b829150611043565b634e487b7160e01b600052601160045260246000fd5b346101ad5760003660031901126101ad57600080600154905b81811061115c57602083604051908152f35b80600052600260205260ff600f604060002001541660038110156108b75715611188575b60010161114a565b916111946001916143a4565b929050611180565b346101ad5760203660031901126101ad576111b5613efe565b6000546111d033600883901c6001600160a01b0316146141c2565b6001600160a01b03821691821561122a57610100600160a81b031990911660089190911b610100600160a81b03161760009081557f7ce7ec0b50378fb6c0186ffb5f48325f6593fcb4ca4386f21861af3129188f5c9080a2005b60405162461bcd60e51b815260206004820152600f60248201526e496e76616c6964206164647265737360881b6044820152606490fd5b346101ad5760203660031901126101ad5760043580600052600260205261129960018060a01b036001604060002001541633146145c0565b60016000546112ab60ff821615614291565b60ff191617600055806000526002602052600f604060002001805460ff811660038110156108b7576112dd9015614583565b601881901c6001600160a01b0316156113875761ff0019166101001780825560101c60ff16611342575b5060405190600182527fc7db73a2d1dc7fd351b6549efad129bbf568e618dbbe683abfa0d1550a96e5ae60203393a36000805460ff19169055005b805460ff19166001179081905560181c6001600160a01b0316817f2c54217aed12a18c71e20e5a6a3f13f8cfddbb2c3a0a5f409861478c7fd39e81600080a381611307565b60405162461bcd60e51b8152602060048201526012602482015271139bc8199a5b99195c88185cdcda59db995960721b6044820152606490fd5b346101ad5760003660031901126101ad576001546113de816143fc565b9060005b81811061140357604051602080825281906113ff90820186613f55565b0390f35b8060019160005260026020526040600020600f6040519161142383613dba565b80548352848060a01b038582015416602084015261144360028201613e12565b604084015261145460038201613e12565b606084015261146560048201613e12565b608084015260058101546001600160801b03811660a085015260801c60c084015261149260068201613e12565b60e08401526114a360078201613e12565b6101008401526114b560088201613e12565b6101208401526114c760098201613e12565b6101408401526114d9600a8201613e12565b6101608401526114eb600b8201613e12565b6101808401526114fd600c8201613e12565b6101a0840152600d8101546001600160801b0381166101c085015260801c6101e0840152600e8101546001600160801b03811661020085015260801c610220840152015461155260ff82166102408401614507565b60ff8160081c16151561026083015260ff8160101c161515610280830152838060a01b039060181c166102a082015261158b82866144f3565b5261159681856144f3565b50016113e2565b346101ad5760403660031901126101ad576004356024356001600160401b0381116101ad576115d0903690600401614170565b90916115df6001548210614250565b60016000546115f160ff821615614291565b60ff191617600055806000526002602052604060002060ff600f8201541660038110156108b7576116229015614583565b600101546001600160a01b031633146118cb57600a821061188f5780600052600760205260406000209260405161165881613dd6565b338152611666368584614513565b946020820195865260408201904282528054680100000000000000008110156118635761169891600182018155613d4e565b929092611879575182546001600160a01b0319166001600160a01b03919091161782559451805190959060018301906001600160401b038111611863576116df8254613d80565b601f811161181b575b506020601f821160011461178e57908060029493927fbd5e23363d3a2ced039666d693de91be3d185f3ac63b315a2cf2c67f4a0825af98999a600092611783575b50508160011b916000199060031b1c19161790555b5191015583604051916040835281604084015260608301376000606085830101524260208201526060813395601f80199101168101030190a36000805460ff19169055005b015190508a80611729565b601f1982169883600052816000209960005b818110611803575099600192849260029796957fbd5e23363d3a2ced039666d693de91be3d185f3ac63b315a2cf2c67f4a0825af9b9c9d106117ea575b505050811b01905561173e565b015160001960f88460031b161c191690558a80806117dd565b838301518c556001909b019a602093840193016117a0565b826000526020600020601f830160051c81019160208410611859575b601f0160051c01905b81811061184d57506116e8565b60008155600101611840565b9091508190611837565b634e487b7160e01b600052604160045260246000fd5b634e487b7160e01b600052600060045260246000fd5b60405162461bcd60e51b8152602060048201526014602482015273125b9d985b1a5908195d9a59195b98d94815549360621b6044820152606490fd5b60405162461bcd60e51b815260206004820152601360248201527213dddb995c8818d85b9b9bdd081c995c1bdc9d606a1b6044820152606490fd5b6101e03660031901126101ad576004356001600160401b0381116101ad57611932903690600401614170565b6103e0526103c0526024356001600160401b0381116101ad57611959903690600401614170565b6103a052610120526044356001600160401b0381116101ad57611980903690600401614170565b61016052610460526064356104408190526001600160801b03811690036101ad576084356102008190526001600160801b03811690036101ad5760a4356001600160401b0381116101ad576119d9903690600401614170565b610220526102805260c4356001600160401b0381116101ad57611a00903690600401614170565b6102a0526102c05260e4356001600160401b0381116101ad57611a27903690600401614170565b610420526102e052610104356001600160401b0381116101ad57611a4f903690600401614170565b61032052610340526001600160401b0361012435116101ad57611a783661012435600401614170565b6104005261038052610144356001600160401b0381116101ad57611aa0903690600401614170565b61036052610300526001600160401b0361016435116101ad57611ac93661016435600401614170565b6102605261024052610184356101e08190526001600160801b03811690036101ad576101a4356101c08190526001600160801b03811690036101ad576101c4356101808190526001600160801b03811690036101ad576001600054611b3160ff821615614291565b60ff191617600055678ac7230489e80000341161331d5769021e19e0c9bab24000006001600160801b036101e05116116132e05769021e19e0c9bab24000006001600160801b036101805116116132a35769021e19e0c9bab24000006001600160801b036101c0511611613268573415801590613253575b801561323e575b8015613229575b156131f25760406101008190528051611bf291611bd49082613df1565b60048152634e616d6560e01b60208201526103e0516103c05161462c565b610100518051611c2591611c069082613df1565b6005815264109c99595960da1b60208201526103a0516101205161462c565b610100518051611d1091611c399082613df1565b600681526523b2b73232b960d11b6020820152611cc5611c60366101605161046051614513565b611cc08151600181101590816131e6575b50610100515190611cbb600f6020848951611c92818c858086019101613eb6565b81016e081b195b99dd1a081a5b9d985b1a59608a1b838201520301601019810185520183613df1565b6145fc565b6147c1565b15611cbb60106020610100515185611ce68297518092858086019101613eb6565b81016f2063616e6e6f7420626520626c616e6b60801b838201520301600f19810185520183613df1565b6101005150611dcf611ce66101005151611d2d6101005182613df1565b600b8152611cbb60106020808401936a2232b9b1b934b83a34b7b760a91b8552611db9611d61366102a0516102c051614513565b611cc08151600a81101590816131d9575b50610100515190611cbb600f88848d611d918b51809285850190613eb6565b81016e081b195b99dd1a081a5b9d985b1a59608a1b8382015203018a19810185520183613df1565b1594610100515196879251809285850190613eb6565b6101005150611e4d611ce66101005151611dec6101005182613df1565b60098152611cbb601060208084019368125b5859d94815549360ba1b8552611db9611e1e36610420516102e051614513565b611cc08151600a81101590816131cd5750610100515190611cbb600f88848d611d918b51809285850190613eb6565b6101005150611eca611ce66101005151611e6a6101005182613df1565b60088152611cbb6010602080840193672637b1b0ba34b7b760c11b8552611db9611e9b366103205161034051614513565b611cc08151600581101590816131cd5750610100515190611cbb600f88848d611d918b51809285850190613eb6565b6101005150611f4b611ce66101005151611ee76101005182613df1565b600c8152611cbb60106020808401936b436f6e74616374206e616d6560a01b8552611db9611f1c366104005161038051614513565b611cc08151600281101590816131c15750610100515190611cbb600f88848d611d918b51809285850190613eb6565b6101005150611fcd611ce66101005151611f686101005182613df1565b600d8152611cbb60106020808401936c436f6e746163742070686f6e6560981b8552611db9611f9e366103605161030051614513565b611cc08151600581101590816131b55750610100515190611cbb600f88848d611d918b51809285850190613eb6565b600a6001600160801b03610440511610158061319e575b156131685760016001600160801b036102005116101580613151575b1561311c5761201e612019366102605161024051614513565b61471b565b156130e5576001600160801b036101c05116613049575b6001600160801b036101e05116612fad575b6001600160801b036101805116612ed6575b60015460e052610100515160c05261207260c051613dba565b60e05160c0515233602060c0510152612092366103e0516103c051614513565b6101005160c05101526120ac366103a05161012051614513565b606060c05101526120c4366101605161046051614513565b608060c05101526001600160801b03610440511660a060c05101526001600160801b03610200511660c080510152612103366102205161028051614513565b60e060c051015261211b366102a0516102c051614513565b61010060c051015261213436610420516102e051614513565b61012060c051015261214d366103205161034051614513565b61014060c0510152612166366104005161038051614513565b61016060c051015261217f366103605161030051614513565b61018060c0510152612198366102605161024051614513565b6101a060c05101526001600160801b0334166101c060c05101526001600160801b036101e051166101e060c05101526001600160801b03610180511661020060c05101526001600160801b036101c0511661022060c0510152600061024060c0510152600061026060c0510152600061028060c051015260006102a060c051015260e05160005260026020526101005160002060c05151815560018060a01b03602060c051015116600182019060018060a01b03166bffffffffffffffffffffffff60a01b8254161790556101005160c05101518051906001600160401b03821161186357819061228c6002850154613d80565b601f8111612e83575b50602090601f8311600114612e1257600092612e07575b50508160011b916000199060031b1c19161760028201555b606060c05101518051906001600160401b0382116118635781906122eb6003850154613d80565b601f8111612db4575b50602090601f8311600114612d4357600092612d38575b50508160011b916000199060031b1c19161760038201555b608060c05101518051906001600160401b03821161186357819061234a6004850154613d80565b601f8111612ce5575b50602090601f8311600114612c7457600092612c69575b50508160011b916000199060031b1c19161760048201555b60c0805160a081015191015160801b6001600160801b0319166001600160801b0391909116176005820155600681019060e060c05101519182516001600160401b038111611863576123d48254613d80565b601f8111612c21575b506020601f8211600114612bbc5781929394600092612bb1575b50508160011b916000199060031b1c19161790555b600781019061010060c05101519182516001600160401b038111611863576124348254613d80565b601f8111612b69575b506020601f8211600114612b045781929394600092612af9575b50508160011b916000199060031b1c19161790555b600881019061012060c05101519182516001600160401b038111611863576124948254613d80565b601f8111612ab1575b506020601f8211600114612a4c5781929394600092612a41575b50508160011b916000199060031b1c19161790555b600981019061014060c05101519182516001600160401b038111611863576124f48254613d80565b601f81116129f9575b506020601f82116001146129945781929394600092612989575b50508160011b916000199060031b1c19161790555b600a81019061016060c05101519182516001600160401b038111611863576125548254613d80565b601f8111612941575b506020601f82116001146128dc57819293946000926128d1575b50508160011b916000199060031b1c19161790555b600b81019061018060c05101519182516001600160401b038111611863576125b48254613d80565b601f8111612889575b506020601f82116001146128245781929394600092612819575b50508160011b916000199060031b1c19161790555b600c8101906101a060c0510151918251926001600160401b038411611863576126158254613d80565b601f81116127d1575b50602090601f851160011461276857600f94916000918361275d575b50508160011b916000199060031b1c19161790555b60c0516101c08101516101e0820151608090811b6001600160801b03199081166001600160801b0393841617600d86015561020084015161022085015190921b16911617600e8301556102400151910160038210156108b757805460c0516102608101516102808201516102a0909201516001600160b81b031990931660ff9095169490941793151560081b61ff00169390931792151560101b62ff0000169290921760189290921b6301000000600160b81b0316919091179055600060015481526006602052426101005182205561274f60015433817ff6be169e9242db299e4065f846c02e09b60f1421201248fe94d6f552e8c8bd448580a36143a4565b600155805460ff1916815580f35b01519050858061263a565b90601f1985169183600052816000209260005b8181106127b95750916001939187600f9894106127a0575b505050811b01905561264f565b015160001960f88460031b161c19169055858080612793565b9293602060018192878601518155019501930161277b565b826000526020600020601f860160051c8101916020871061280f575b601f0160051c01905b818110612803575061261e565b600081556001016127f6565b90915081906127ed565b0151905084806125d7565b601f1982169083600052806000209160005b81811061287157509583600195969710612858575b505050811b0190556125ec565b015160001960f88460031b161c1916905584808061284b565b9192602060018192868b015181550194019201612836565b826000526020600020601f830160051c810191602084106128c7575b601f0160051c01905b8181106128bb57506125bd565b600081556001016128ae565b90915081906128a5565b015190508480612577565b601f1982169083600052806000209160005b81811061292957509583600195969710612910575b505050811b01905561258c565b015160001960f88460031b161c19169055848080612903565b9192602060018192868b0151815501940192016128ee565b826000526020600020601f830160051c8101916020841061297f575b601f0160051c01905b818110612973575061255d565b60008155600101612966565b909150819061295d565b015190508480612517565b601f1982169083600052806000209160005b8181106129e1575095836001959697106129c8575b505050811b01905561252c565b015160001960f88460031b161c191690558480806129bb565b9192602060018192868b0151815501940192016129a6565b826000526020600020601f830160051c81019160208410612a37575b601f0160051c01905b818110612a2b57506124fd565b60008155600101612a1e565b9091508190612a15565b0151905084806124b7565b601f1982169083600052806000209160005b818110612a9957509583600195969710612a80575b505050811b0190556124cc565b015160001960f88460031b161c19169055848080612a73565b9192602060018192868b015181550194019201612a5e565b826000526020600020601f830160051c81019160208410612aef575b601f0160051c01905b818110612ae3575061249d565b60008155600101612ad6565b9091508190612acd565b015190508480612457565b601f1982169083600052806000209160005b818110612b5157509583600195969710612b38575b505050811b01905561246c565b015160001960f88460031b161c19169055848080612b2b565b9192602060018192868b015181550194019201612b16565b826000526020600020601f830160051c81019160208410612ba7575b601f0160051c01905b818110612b9b575061243d565b60008155600101612b8e565b9091508190612b85565b0151905084806123f7565b601f1982169083600052806000209160005b818110612c0957509583600195969710612bf0575b505050811b01905561240c565b015160001960f88460031b161c19169055848080612be3565b9192602060018192868b015181550194019201612bce565b826000526020600020601f830160051c81019160208410612c5f575b601f0160051c01905b818110612c5357506123dd565b60008155600101612c46565b9091508190612c3d565b01519050838061236a565b92506004840160005280600020906000935b601f1984168510612cca576001945083601f19811610612cb1575b505050811b016004820155612382565b015160001960f88460031b161c19169055838080612ca1565b81810151835560209485019460019093019290910190612c86565b909150600484016000526020600020601f840160051c810160208510612d31575b90849392915b601f830160051c82018110612d22575050612353565b60008155859450600101612d0c565b5080612d06565b01519050838061230b565b92506003840160005280600020906000935b601f1984168510612d99576001945083601f19811610612d80575b505050811b016003820155612323565b015160001960f88460031b161c19169055838080612d70565b81810151835560209485019460019093019290910190612d55565b909150600384016000526020600020601f840160051c810160208510612e00575b90849392915b601f830160051c82018110612df15750506122f4565b60008155859450600101612ddb565b5080612dd5565b0151905083806122ac565b92506002840160005280600020906000935b601f1984168510612e68576001945083601f19811610612e4f575b505050811b0160028201556122c4565b015160001960f88460031b161c19169055838080612e3f565b81810151835560209485019460019093019290910190612e24565b909150600284016000526020600020601f840160051c810160208510612ecf575b90849392915b601f830160051c82018110612ec0575050612295565b60008155859450600101612eaa565b5080612ea4565b610100515160a0526323b872dd60e01b60a05152602060a05160a051612f06610180513033600460a05101614559565b0360a05160007348065fbbe25f71c9282ddf5e1cd6d6a887483d5e5af160805260805115612f9f576000608051612f66575b612f4190614361565b60015460005260056020526001600160801b0361018051166101005160002055612059565b5060203d602011612f98575b612f9181612f85612f419360a051613df1565b60a0510160a0516141fa565b9050612f38565b503d612f72565b61010051513d6000823e3d90fd5b61010051516323b872dd60e01b815260208180612fd26101e051303360048501614559565b0381600073765de816845861e75a25fca122bb6898b8b1282a5af18015612f9f576130059160009161302a575b506142dd565b60015460005260036020526001600160801b036101e051166101005160002055612047565b613043915060203d6020116106ee576106e08183613df1565b82612fff565b61010051516323b872dd60e01b81526020818061306e6101c051303360048501614559565b038160007362b8b11039fcfe5ab0c56e502b1c372a3d2a9c7a5af18015612f9f576130a1916000916130c6575b50614320565b60015460005260046020526001600160801b036101c051166101005160002055612035565b6130df915060203d6020116106ee576106e08183613df1565b8261309b565b610100515162461bcd60e51b815260206004820152600d60248201526c125b9d985b1a5908195b585a5b609a1b6044820152606490fd5b610100515162461bcd60e51b815260206004820152600b60248201526a496e76616c69642061676560a81b6044820152606490fd5b5060f06001600160801b0361020051161115612000565b610100515162461bcd60e51b815260206004820152600c60248201526b496e76616c69642073697a6560a01b6044820152606490fd5b5060c86001600160801b0361044051161115611fe4565b6014915011158b611d72565b6064915011158b611d72565b60c8915011158b611d72565b6101f4915011158b611d72565b600a9150111586611c71565b60405162461bcd60e51b815260206004820152600f60248201526e109bdd5b9d1e481c995c5d5a5c9959608a1b6044820152606490fd5b506001600160801b0361018051161515611bb7565b506001600160801b036101c051161515611bb0565b506001600160801b036101e051161515611ba9565b60405162461bcd60e51b8152602060048201526013602482015272472420626f756e747920746f6f206c6172676560681b6044820152606490fd5b60405162461bcd60e51b81526020600482015260156024820152745553445420626f756e747920746f6f206c6172676560581b6044820152606490fd5b60405162461bcd60e51b81526020600482015260156024820152746355534420626f756e747920746f6f206c6172676560581b6044820152606490fd5b60405162461bcd60e51b815260206004820152601560248201527443454c4f20626f756e747920746f6f206c6172676560581b6044820152606490fd5b346101ad5760003660031901126101ad576001546000805b82811061359f575061338c613386826143ca565b916143fc565b600092835b8181106133c2576133b4846113ff85604051938493604085526040850190613f14565b908382036020850152613f55565b80600052600260205260ff600f604060002001541660038110156108b757156133ee575b600101613391565b936135978186613400600194886144f3565b528660005260026020526040600020600f6040519161341e83613dba565b80548352858060a01b038682015416602084015261343e60028201613e12565b604084015261344f60038201613e12565b606084015261346060048201613e12565b608084015260058101546001600160801b03811660a085015260801c60c084015261348d60068201613e12565b60e084015261349e60078201613e12565b6101008401526134b060088201613e12565b6101208401526134c260098201613e12565b6101408401526134d4600a8201613e12565b6101608401526134e6600b8201613e12565b6101808401526134f8600c8201613e12565b6101a0840152600d8101546001600160801b0381166101c085015260801c6101e0840152600e8101546001600160801b03811661020085015260801c610220840152015461354d60ff82166102408401614507565b60ff8160081c16151561026083015260ff8160101c161515610280830152848060a01b039060181c166102a082015261358682876144f3565b5261359181866144f3565b506143a4565b9490506133e6565b80600052600260205260ff600f604060002001541660038110156108b757156135cb575b600101613372565b906135d76001916143a4565b9190506135c3565b346101ad5760203660031901126101ad5760043560005260056020526020604060002054604051908152f35b346101ad5760003660031901126101ad57602060405173765de816845861e75a25fca122bb6898b8b1282a8152f35b346101ad5760203660031901126101ad5760043561365b6001548210614250565b600160005461366d60ff821615614291565b60ff191617600055806000526002602052604060002090600f82015460ff811660038110156108b7576001036139de5760181c6001600160a01b031633036139ac57600d820180546001600160801b0381169384159182801580946139a0575b8015613990575b801561397a575b1561394957600e929092018054600095869055908590558585526003602090815260408087208790556004825280872087905560059091528520949094556001600160801b03841693608090811c9391901c918691613922575b5050806138ae575b8161382d575b8261378e575b604080519586526020860191909152840152606083015233917f29c73474c25316f69215723f555c11ed783cb69fa3aabdfb464fde72486b22e7908060808101610630565b60405163a9059cbb60e01b8152336004820152602481018490529260208460448160007348065fbbe25f71c9282ddf5e1cd6d6a887483d5e5af19081156106f557613806610630927f29c73474c25316f69215723f555c11ed783cb69fa3aabdfb464fde72486b22e79660009161380e575b50614361565b935050613749565b613827915060203d6020116106ee576106e08183613df1565b89613800565b604051630200057560e51b8152336004820152826024820152606060448201526000606482015260208160848160007362b8b11039fcfe5ab0c56e502b1c372a3d2a9c7a5af180156106f55761388a9160009161388f5750614320565b613743565b6138a8915060203d6020116106ee576106e08183613df1565b8761309b565b60405163a9059cbb60e01b815233600482015260248101829052602081604481600073765de816845861e75a25fca122bb6898b8b1282a5af180156106f5576138fe9160009161390357506142dd565b61373d565b61391c915060203d6020116106ee576106e08183613df1565b87612fff565b600090613940575b600080809381933390f1156106f5578486613735565b506108fc61392a565b60405162461bcd60e51b81526020600482015260096024820152684e6f20626f756e747960b81b6044820152606490fd5b506001600160801b03600e8401541615156136db565b50600e83015460801c15156136d4565b508160801c15156136cd565b60405162461bcd60e51b815260206004820152600a6024820152692737ba103334b73232b960b11b6044820152606490fd5b60405162461bcd60e51b815260206004820152601160248201527014195d081b9bdd08199bdd5b99081e595d607a1b6044820152606490fd5b346101ad5760203660031901126101ad57613a30613efe565b613a4860018060a01b0360005460081c1633146141c2565b6040516370a0823160e01b81523060048201526020816024817348065fbbe25f71c9282ddf5e1cd6d6a887483d5e5afa9081156106f557600091613b07575b5060405163a9059cbb60e01b81526001600160a01b039092166004830152602482015260208180604481015b038160007348065fbbe25f71c9282ddf5e1cd6d6a887483d5e5af180156106f557613ae691600091613ae8575b50614212565b005b613b01915060203d6020116106ee576106e08183613df1565b82613ae0565b90506020813d602011613b33575b81613b2260209383613df1565b810103126101ad5751613ab3613a87565b3d9150613b15565b346101ad5760003660031901126101ad576020600154604051908152f35b346101ad5760003660031901126101ad576020604051678ac7230489e800008152f35b346101ad5760203660031901126101ad57613b95613efe565b613bad60018060a01b0360005460081c1633146141c2565b6040516370a0823160e01b815230600482015260208160248173765de816845861e75a25fca122bb6898b8b1282a5afa9081156106f557600091613c4a575b5060405163a9059cbb60e01b81526001600160a01b039092166004830152602482015260208180604481015b0381600073765de816845861e75a25fca122bb6898b8b1282a5af180156106f557613ae691600091613ae85750614212565b90506020813d602011613c76575b81613c6560209383613df1565b810103126101ad5751613c18613bec565b3d9150613c58565b346101ad5760203660031901126101ad5760043560005260036020526020604060002054604051908152f35b346101ad57613cb836613d38565b90600052600760205260406000209081548110156101ad57613cd991613d4e565b5080546001600160a01b03166002613cf360018401613e12565b920154613d126040519384938452606060208501526060840190613ed9565b9060408301520390f35b346101ad5760003660031901126101ad57806276a70060209252f35b60409060031901126101ad576004359060243590565b8054821015613d6a576000526003602060002091020190600090565b634e487b7160e01b600052603260045260246000fd5b90600182811c92168015613db0575b6020831014613d9a57565b634e487b7160e01b600052602260045260246000fd5b91607f1691613d8f565b6102c081019081106001600160401b0382111761186357604052565b606081019081106001600160401b0382111761186357604052565b90601f801991011681019081106001600160401b0382111761186357604052565b9060405191826000825492613e2684613d80565b8084529360018116908115613e945750600114613e4d575b50613e4b92500383613df1565b565b90506000929192526020600020906000915b818310613e78575050906020613e4b9282010138613e3e565b6020919350806001915483858901015201910190918492613e5f565b905060209250613e4b94915060ff191682840152151560051b82010138613e3e565b60005b838110613ec95750506000910152565b8181015183820152602001613eb9565b90602091613ef281518092818552858086019101613eb6565b601f01601f1916010190565b600435906001600160a01b03821682036101ad57565b906020808351928381520192019060005b818110613f325750505090565b8251845260209384019390920191600101613f25565b9060038210156108b75752565b9080602083519182815201916020808360051b8301019401926000915b838310613f8157505050505090565b9091929394601f1982820301835285519081518152600160a01b6001900360208301511660208201526040820151604082016102c090526102c08201613fc691613ed9565b6060830151908281036060840152613fdd91613ed9565b6080830151908281036080840152613ff491613ed9565b60a08301516001600160801b031660a083015260c08301516001600160801b031660c083015260e08301519082810360e084015261403191613ed9565b6101008301519082810361010084015261404a91613ed9565b6101208301519082810361012084015261406391613ed9565b6101408301519082810361014084015261407c91613ed9565b6101608301519082810361016084015261409591613ed9565b610180830151908281036101808401526140ae91613ed9565b6101a0830151908281036101a08401526140c791613ed9565b916101c08101516001600160801b03166101c08301526101e08101516001600160801b03166101e08301526102008101516001600160801b03166102008301526102208101516001600160801b0316610220830152610240810151610240830161413091613f48565b61026081810151151590830152610280808201511515908301526102a0908101516001600160a01b03169101529460209081019493600101920190613f72565b9181601f840112156101ad578235916001600160401b0383116101ad57602083818601950101116101ad57565b346101ad5760003660031901126101ad57602060405169021e19e0c9bab24000008152f35b156141c957565b60405162461bcd60e51b81526020600482015260096024820152682737ba1030b236b4b760b91b6044820152606490fd5b908160209103126101ad575180151581036101ad5790565b1561421957565b60405162461bcd60e51b815260206004820152600f60248201526e151c985b9cd9995c8819985a5b1959608a1b6044820152606490fd5b1561425757565b60405162461bcd60e51b815260206004820152601260248201527114195d08191bd95cc81b9bdd08195e1a5cdd60721b6044820152606490fd5b1561429857565b60405162461bcd60e51b815260206004820152601f60248201527f5265656e7472616e637947756172643a207265656e7472616e742063616c6c006044820152606490fd5b156142e457565b60405162461bcd60e51b815260206004820152601460248201527318d554d1081d1c985b9cd9995c8819985a5b195960621b6044820152606490fd5b1561432757565b60405162461bcd60e51b815260206004820152601260248201527111c9081d1c985b9cd9995c8819985a5b195960721b6044820152606490fd5b1561436857565b60405162461bcd60e51b81526020600482015260146024820152731554d115081d1c985b9cd9995c8819985a5b195960621b6044820152606490fd5b600019811461111b5760010190565b6001600160401b0381116118635760051b60200190565b906143d4826143b3565b6143e16040519182613df1565b82815280926143f2601f19916143b3565b0190602036910137565b90614406826143b3565b6144136040519182613df1565b8281528092614424601f19916143b3565b019060005b82811061443557505050565b60209060405161444481613dba565b600081526000838201526060604082015260608082015260606080820152600060a0820152600060c0820152606060e08201526060610100820152606061012082015260606101408201526060610160820152606061018082015260606101a082015260006101c082015260006101e08201526000610200820152600061022082015260006102408201526000610260820152600061028082015260006102a082015282828501015201614429565b8051821015613d6a5760209160051b010190565b60038210156108b75752565b9291926001600160401b038211611863576040519161453c601f8201601f191660200184613df1565b8294818452818301116101ad578281602093846000960137010152565b6001600160a01b039182168152911660208201526001600160801b03909116604082015260600190565b1561458a57565b60405162461bcd60e51b815260206004820152600e60248201526d506574206e6f742061637469766560901b6044820152606490fd5b156145c757565b60405162461bcd60e51b815260206004820152600d60248201526c2737ba103832ba1037bbb732b960991b6044820152606490fd5b156146045750565b60405162461bcd60e51b815260206004820152908190614628906024830190613ed9565b0390fd5b614637913691614513565b805190600282101591826146fe575b50604051918351928060208601948060208301906146649188613eb6565b8101602081016e081b195b99dd1a081a5b9d985b1a59608a1b90520360200160101981018252600f016146979082613df1565b6146a0916145fc565b6146a9906147c1565b1591604051918291519081602084016146c192613eb6565b8101602081016f2063616e6e6f7420626520626c616e6b60801b905203602001600f19810182526010016146f59082613df1565b613e4b916145fc565b60321015915038614646565b908151811015613d6a570160200190565b60058151106147bb5760008091815b81518310156147a957600160fe1b6001600160f81b031961474b858561470a565b51160361476a5761476257600180925b019161472a565b505050600090565b918280614788575b61477f575b60019061475b565b60019350614777565b50601760f91b6001600160f81b03196147a1838561470a565b511614614772565b92915050816147b6575090565b905090565b50600090565b60005b81518110156147fb57600160fd1b6001600160f81b03196147e5838561470a565b5116036147f4576001016147c4565b5050600090565b505060019056fea2646970667358221220419e02731ce586a5cbcc4362b51db602fe2bb396189afd9d5234004a24dc896664736f6c634300081c0033",
          "opcodes": "PUSH1 0x80 DUP1 PUSH1 0x40 MSTORE CALLVALUE PUSH1 0x35 JUMPI PUSH1 0x0 DUP1 SLOAD PUSH2 0x100 PUSH1 0x1 PUSH1 0xA8 SHL SUB NOT AND CALLER PUSH1 0x8 SHL PUSH2 0x100 PUSH1 0x1 PUSH1 0xA8 SHL SUB AND OR SWAP1 SSTORE PUSH2 0x4838 SWAP1 DUP2 PUSH2 0x3B DUP3 CODECOPY RETURN JUMPDEST PUSH1 0x0 DUP1 REVERT INVALID PUSH2 0x480 DUP1 PUSH1 0x40 MSTORE PUSH1 0x4 CALLDATASIZE LT ISZERO PUSH2 0x14 JUMPI PUSH1 0x0 DUP1 REVERT JUMPDEST PUSH1 0x0 CALLDATALOAD PUSH1 0xE0 SHR SWAP1 DUP2 PUSH4 0xB5D39FA EQ PUSH2 0x3D1C JUMPI POP DUP1 PUSH4 0xDA92F68 EQ PUSH2 0x3CAA JUMPI DUP1 PUSH4 0x1850E3A7 EQ PUSH2 0x3C7E JUMPI DUP1 PUSH4 0x3F26DECD EQ PUSH2 0x3B7C JUMPI DUP1 PUSH4 0x3FA8BE32 EQ PUSH2 0x3B59 JUMPI DUP1 PUSH4 0x403F8CC7 EQ PUSH2 0x3B3B JUMPI DUP1 PUSH4 0x42C48DED EQ PUSH2 0x3A17 JUMPI DUP1 PUSH4 0x44021AD7 EQ PUSH2 0x363A JUMPI DUP1 PUSH4 0x465C66E9 EQ PUSH2 0x360B JUMPI DUP1 PUSH4 0x4A341581 EQ PUSH2 0x35DF JUMPI DUP1 PUSH4 0x543DF5A3 EQ PUSH2 0x335A JUMPI DUP1 PUSH4 0x54BB73E1 EQ PUSH2 0x1906 JUMPI DUP1 PUSH4 0x5521AAC5 EQ PUSH2 0x159D JUMPI DUP1 PUSH4 0x5B236D97 EQ PUSH2 0x13C1 JUMPI DUP1 PUSH4 0x5E23985B EQ PUSH2 0x1261 JUMPI DUP1 PUSH4 0x75829DEF EQ PUSH2 0x119C JUMPI DUP1 PUSH4 0x8B504C17 EQ PUSH2 0x1131 JUMPI DUP1 PUSH4 0x9DC5AC72 EQ PUSH2 0xBAF JUMPI DUP1 PUSH4 0xA06E0061 EQ PUSH2 0x101D JUMPI DUP1 PUSH4 0xB213AA37 EQ PUSH2 0xE46 JUMPI DUP1 PUSH4 0xB3035B64 EQ PUSH2 0xCE8 JUMPI DUP1 PUSH4 0xB4E849BF EQ PUSH2 0xBB4 JUMPI DUP1 PUSH4 0xB83056E5 EQ PUSH2 0xBAF JUMPI DUP1 PUSH4 0xC1892058 EQ PUSH2 0xB80 JUMPI DUP1 PUSH4 0xCFB869BF EQ PUSH2 0x8F9 JUMPI DUP1 PUSH4 0xD25A6F05 EQ PUSH2 0x8CD JUMPI DUP1 PUSH4 0xD32BFB6C EQ PUSH2 0x4E1 JUMPI DUP1 PUSH4 0xD74A48A4 EQ PUSH2 0x4B5 JUMPI DUP1 PUSH4 0xD89FD4B4 EQ PUSH2 0x21A JUMPI DUP1 PUSH4 0xEE7AFB1C EQ PUSH2 0x1EB JUMPI DUP1 PUSH4 0xF677B0B7 EQ PUSH2 0x1B2 JUMPI PUSH4 0xF851A440 EQ PUSH2 0x180 JUMPI PUSH1 0x0 DUP1 REVERT JUMPDEST CALLVALUE PUSH2 0x1AD JUMPI PUSH1 0x0 CALLDATASIZE PUSH1 0x3 NOT ADD SLT PUSH2 0x1AD JUMPI PUSH1 0x0 SLOAD PUSH1 0x40 MLOAD PUSH1 0x8 SWAP2 SWAP1 SWAP2 SHR PUSH1 0x1 PUSH1 0x1 PUSH1 0xA0 SHL SUB AND DUP2 MSTORE PUSH1 0x20 SWAP1 RETURN JUMPDEST PUSH1 0x0 DUP1 REVERT JUMPDEST CALLVALUE PUSH2 0x1AD JUMPI PUSH1 0x20 CALLDATASIZE PUSH1 0x3 NOT ADD SLT PUSH2 0x1AD JUMPI PUSH1 0x4 CALLDATALOAD PUSH2 0x1D3 PUSH1 0x1 SLOAD DUP3 LT PUSH2 0x4250 JUMP JUMPDEST PUSH1 0x0 MSTORE PUSH1 0x7 PUSH1 0x20 MSTORE PUSH1 0x20 PUSH1 0x40 PUSH1 0x0 KECCAK256 SLOAD PUSH1 0x40 MLOAD SWAP1 DUP2 MSTORE RETURN JUMPDEST CALLVALUE PUSH2 0x1AD JUMPI PUSH1 0x0 CALLDATASIZE PUSH1 0x3 NOT ADD SLT PUSH2 0x1AD JUMPI PUSH1 0x20 PUSH1 0x40 MLOAD PUSH20 0x62B8B11039FCFE5AB0C56E502B1C372A3D2A9C7A DUP2 MSTORE RETURN JUMPDEST CALLVALUE PUSH2 0x1AD JUMPI PUSH1 0x20 CALLDATASIZE PUSH1 0x3 NOT ADD SLT PUSH2 0x1AD JUMPI PUSH1 0x4 CALLDATALOAD PUSH1 0x1 SLOAD DUP2 LT PUSH2 0x23C SWAP1 PUSH2 0x4250 JUMP JUMPDEST PUSH1 0x0 MSTORE PUSH1 0x2 PUSH1 0x20 MSTORE PUSH1 0x40 PUSH1 0x0 KECCAK256 DUP1 SLOAD PUSH1 0x1 PUSH1 0xA0 SHL PUSH1 0x1 SWAP1 SUB PUSH1 0x1 DUP4 ADD SLOAD AND PUSH1 0x5 DUP4 ADD SLOAD SWAP2 PUSH1 0xD DUP5 ADD SLOAD SWAP4 PUSH1 0xE DUP2 ADD SLOAD SWAP3 PUSH1 0xF DUP3 ADD SLOAD SWAP5 PUSH1 0x2 DUP4 ADD PUSH2 0x27F SWAP1 PUSH2 0x3E12 JUMP JUMPDEST SWAP1 PUSH2 0x28C PUSH1 0x3 DUP6 ADD PUSH2 0x3E12 JUMP JUMPDEST SWAP1 PUSH2 0x299 PUSH1 0x4 DUP7 ADD PUSH2 0x3E12 JUMP JUMPDEST SWAP1 PUSH2 0x2A6 PUSH1 0x6 DUP8 ADD PUSH2 0x3E12 JUMP JUMPDEST SWAP1 PUSH2 0x2B3 PUSH1 0x7 DUP9 ADD PUSH2 0x3E12 JUMP JUMPDEST SWAP3 PUSH2 0x2C0 PUSH1 0x8 DUP10 ADD PUSH2 0x3E12 JUMP JUMPDEST SWAP5 PUSH2 0x2CD PUSH1 0x9 DUP11 ADD PUSH2 0x3E12 JUMP JUMPDEST SWAP7 PUSH2 0x2DA PUSH1 0xA DUP12 ADD PUSH2 0x3E12 JUMP JUMPDEST SWAP9 PUSH2 0x2E7 PUSH1 0xB DUP13 ADD PUSH2 0x3E12 JUMP JUMPDEST SWAP11 PUSH1 0xC ADD PUSH2 0x2F4 SWAP1 PUSH2 0x3E12 JUMP JUMPDEST SWAP12 PUSH1 0x40 MLOAD PUSH2 0x140 MSTORE PUSH2 0x140 MLOAD MSTORE PUSH2 0x140 MLOAD PUSH1 0x20 ADD MSTORE PUSH2 0x140 MLOAD PUSH1 0x40 ADD PUSH2 0x2C0 SWAP1 MSTORE PUSH2 0x140 MLOAD PUSH2 0x2C0 ADD PUSH2 0x326 SWAP2 PUSH2 0x3ED9 JUMP JUMPDEST PUSH2 0x140 MLOAD DUP2 SUB PUSH2 0x140 MLOAD PUSH1 0x60 ADD MSTORE PUSH2 0x33D SWAP2 PUSH2 0x3ED9 JUMP JUMPDEST PUSH2 0x140 MLOAD DUP2 SUB PUSH2 0x140 MLOAD PUSH1 0x80 ADD MSTORE PUSH2 0x354 SWAP2 PUSH2 0x3ED9 JUMP JUMPDEST SWAP1 PUSH1 0x1 PUSH1 0x1 PUSH1 0x80 SHL SUB DUP2 AND PUSH2 0x140 MLOAD PUSH1 0xA0 ADD MSTORE PUSH1 0x80 SHR PUSH2 0x140 MLOAD PUSH1 0xC0 ADD MSTORE PUSH2 0x140 MLOAD DUP2 SUB PUSH2 0x140 MLOAD PUSH1 0xE0 ADD MSTORE PUSH2 0x389 SWAP2 PUSH2 0x3ED9 JUMP JUMPDEST PUSH2 0x140 MLOAD DUP2 SUB PUSH2 0x140 MLOAD PUSH2 0x100 ADD MSTORE PUSH2 0x3A1 SWAP2 PUSH2 0x3ED9 JUMP JUMPDEST PUSH2 0x140 MLOAD DUP2 SUB PUSH2 0x140 MLOAD PUSH2 0x120 ADD MSTORE PUSH2 0x3B9 SWAP2 PUSH2 0x3ED9 JUMP JUMPDEST PUSH2 0x140 MLOAD DUP2 SUB PUSH2 0x140 MLOAD PUSH2 0x140 ADD MSTORE PUSH2 0x3D1 SWAP2 PUSH2 0x3ED9 JUMP JUMPDEST PUSH2 0x140 MLOAD DUP2 SUB PUSH2 0x140 MLOAD PUSH2 0x160 ADD MSTORE PUSH2 0x3E9 SWAP2 PUSH2 0x3ED9 JUMP JUMPDEST PUSH2 0x140 MLOAD DUP2 SUB PUSH2 0x140 MLOAD PUSH2 0x180 ADD MSTORE PUSH2 0x401 SWAP2 PUSH2 0x3ED9 JUMP JUMPDEST PUSH2 0x140 MLOAD DUP2 SUB PUSH2 0x140 MLOAD PUSH2 0x1A0 ADD MSTORE PUSH2 0x419 SWAP2 PUSH2 0x3ED9 JUMP JUMPDEST SWAP3 PUSH1 0x1 PUSH1 0x1 PUSH1 0x80 SHL SUB DUP2 AND PUSH2 0x140 MLOAD PUSH2 0x1C0 ADD MSTORE PUSH1 0x80 SHR PUSH2 0x140 MLOAD PUSH2 0x1E0 ADD MSTORE DUP1 PUSH1 0x80 SHR PUSH2 0x140 MLOAD PUSH2 0x200 ADD MSTORE PUSH1 0x1 PUSH1 0x1 PUSH1 0x80 SHL SUB AND PUSH2 0x140 MLOAD PUSH2 0x220 ADD MSTORE PUSH2 0x140 MLOAD PUSH2 0x240 ADD PUSH1 0xFF DUP3 AND SWAP1 PUSH2 0x46E SWAP2 PUSH2 0x3F48 JUMP JUMPDEST DUP1 PUSH1 0x8 SHR PUSH1 0xFF AND ISZERO ISZERO PUSH2 0x140 MLOAD PUSH2 0x260 ADD MSTORE DUP1 PUSH1 0x10 SHR PUSH1 0xFF AND ISZERO ISZERO PUSH2 0x140 MLOAD PUSH2 0x280 ADD MSTORE PUSH1 0x1 PUSH1 0xA0 SHL PUSH1 0x1 SWAP1 SUB SWAP1 PUSH1 0x18 SHR AND PUSH2 0x140 MLOAD PUSH2 0x2A0 ADD MSTORE PUSH2 0x140 MLOAD SWAP1 SUB PUSH2 0x140 MLOAD RETURN JUMPDEST CALLVALUE PUSH2 0x1AD JUMPI PUSH1 0x20 CALLDATASIZE PUSH1 0x3 NOT ADD SLT PUSH2 0x1AD JUMPI PUSH1 0x4 CALLDATALOAD PUSH1 0x0 MSTORE PUSH1 0x6 PUSH1 0x20 MSTORE PUSH1 0x20 PUSH1 0x40 PUSH1 0x0 KECCAK256 SLOAD PUSH1 0x40 MLOAD SWAP1 DUP2 MSTORE RETURN JUMPDEST CALLVALUE PUSH2 0x1AD JUMPI PUSH1 0x20 CALLDATASIZE PUSH1 0x3 NOT ADD SLT PUSH2 0x1AD JUMPI PUSH1 0x4 CALLDATALOAD DUP1 PUSH1 0x0 MSTORE PUSH1 0x2 PUSH1 0x20 MSTORE PUSH2 0x519 PUSH1 0x1 DUP1 PUSH1 0xA0 SHL SUB PUSH1 0x1 PUSH1 0x40 PUSH1 0x0 KECCAK256 ADD SLOAD AND CALLER EQ PUSH2 0x45C0 JUMP JUMPDEST PUSH1 0x1 PUSH1 0x0 SLOAD PUSH2 0x52B PUSH1 0xFF DUP3 AND ISZERO PUSH2 0x4291 JUMP JUMPDEST PUSH1 0xFF NOT AND OR PUSH1 0x0 SSTORE DUP1 PUSH1 0x0 MSTORE PUSH1 0x2 PUSH1 0x20 MSTORE PUSH1 0x40 PUSH1 0x0 KECCAK256 SWAP1 PUSH1 0xF DUP3 ADD DUP1 SLOAD PUSH1 0xFF DUP2 AND PUSH1 0x3 DUP2 LT ISZERO PUSH2 0x8B7 JUMPI PUSH2 0x55F SWAP1 ISZERO PUSH2 0x4583 JUMP JUMPDEST PUSH1 0x18 SHR PUSH1 0x1 PUSH1 0x1 PUSH1 0xA0 SHL SUB AND PUSH2 0x872 JUMPI PUSH1 0xD DUP4 ADD DUP1 SLOAD PUSH1 0xE SWAP1 SWAP5 ADD DUP1 SLOAD PUSH1 0x0 SWAP3 DUP4 SWAP1 SSTORE SWAP1 DUP3 SWAP1 SSTORE DUP4 DUP3 MSTORE PUSH1 0x3 PUSH1 0x20 SWAP1 DUP2 MSTORE PUSH1 0x40 DUP1 DUP5 KECCAK256 DUP5 SWAP1 SSTORE PUSH1 0x4 DUP3 MSTORE DUP1 DUP5 KECCAK256 DUP5 SWAP1 SSTORE PUSH1 0x5 SWAP1 SWAP2 MSTORE DUP3 KECCAK256 SWAP2 SWAP1 SWAP2 SSTORE DUP2 SLOAD PUSH1 0xFF NOT AND PUSH1 0x2 OR SWAP1 SWAP2 SSTORE PUSH1 0x1 PUSH1 0x1 PUSH1 0x80 SHL SUB DUP1 DUP5 AND SWAP4 SWAP1 DUP3 AND SWAP2 PUSH1 0x80 SWAP1 DUP2 SHR SWAP2 SWAP1 SHR DUP5 DUP1 ISZERO DUP1 ISZERO PUSH2 0x84B JUMPI JUMPDEST POP POP DUP1 PUSH2 0x7A5 JUMPI JUMPDEST DUP2 PUSH2 0x701 JUMPI JUMPDEST DUP3 PUSH2 0x63F JUMPI JUMPDEST PUSH1 0x40 DUP1 MLOAD SWAP6 DUP7 MSTORE PUSH1 0x20 DUP7 ADD SWAP2 SWAP1 SWAP2 MSTORE DUP5 ADD MSTORE PUSH1 0x60 DUP4 ADD MSTORE CALLER SWAP2 PUSH32 0x9F70C02B620041E5EF7926462E26F0E05D726F6E83957BA9B18DB7E1C6A12C20 SWAP1 DUP1 PUSH1 0x80 DUP2 ADD JUMPDEST SUB SWAP1 LOG3 PUSH1 0x0 DUP1 SLOAD PUSH1 0xFF NOT AND SWAP1 SSTORE STOP JUMPDEST PUSH1 0x40 MLOAD PUSH4 0xA9059CBB PUSH1 0xE0 SHL DUP2 MSTORE CALLER PUSH1 0x4 DUP3 ADD MSTORE PUSH1 0x24 DUP2 ADD DUP5 SWAP1 MSTORE PUSH1 0x20 DUP2 PUSH1 0x44 DUP2 PUSH1 0x0 PUSH20 0x48065FBBE25F71C9282DDF5E1CD6D6A887483D5E GAS CALL SWAP1 DUP2 ISZERO PUSH2 0x6F5 JUMPI PUSH1 0x0 SWAP2 PUSH2 0x6C6 JUMPI JUMPDEST POP PUSH2 0x5EF JUMPI PUSH1 0x40 MLOAD PUSH3 0x461BCD PUSH1 0xE5 SHL DUP2 MSTORE PUSH1 0x20 PUSH1 0x4 DUP3 ADD MSTORE PUSH1 0x12 PUSH1 0x24 DUP3 ADD MSTORE PUSH18 0x1554D115081C99599D5B990819985A5B1959 PUSH1 0x72 SHL PUSH1 0x44 DUP3 ADD MSTORE PUSH1 0x64 SWAP1 REVERT JUMPDEST PUSH2 0x6E8 SWAP2 POP PUSH1 0x20 RETURNDATASIZE PUSH1 0x20 GT PUSH2 0x6EE JUMPI JUMPDEST PUSH2 0x6E0 DUP2 DUP4 PUSH2 0x3DF1 JUMP JUMPDEST DUP2 ADD SWAP1 PUSH2 0x41FA JUMP JUMPDEST DUP7 PUSH2 0x687 JUMP JUMPDEST POP RETURNDATASIZE PUSH2 0x6D6 JUMP JUMPDEST PUSH1 0x40 MLOAD RETURNDATASIZE PUSH1 0x0 DUP3 RETURNDATACOPY RETURNDATASIZE SWAP1 REVERT JUMPDEST PUSH1 0x40 MLOAD PUSH4 0xA9059CBB PUSH1 0xE0 SHL DUP2 MSTORE CALLER PUSH1 0x4 DUP3 ADD MSTORE PUSH1 0x24 DUP2 ADD DUP4 SWAP1 MSTORE PUSH1 0x20 DUP2 PUSH1 0x44 DUP2 PUSH1 0x0 PUSH20 0x62B8B11039FCFE5AB0C56E502B1C372A3D2A9C7A GAS CALL SWAP1 DUP2 ISZERO PUSH2 0x6F5 JUMPI PUSH1 0x0 SWAP2 PUSH2 0x786 JUMPI JUMPDEST POP PUSH2 0x5E9 JUMPI PUSH1 0x40 MLOAD PUSH3 0x461BCD PUSH1 0xE5 SHL DUP2 MSTORE PUSH1 0x20 PUSH1 0x4 DUP3 ADD MSTORE PUSH1 0x10 PUSH1 0x24 DUP3 ADD MSTORE PUSH16 0x11C9081C99599D5B990819985A5B1959 PUSH1 0x82 SHL PUSH1 0x44 DUP3 ADD MSTORE PUSH1 0x64 SWAP1 REVERT JUMPDEST PUSH2 0x79F SWAP2 POP PUSH1 0x20 RETURNDATASIZE PUSH1 0x20 GT PUSH2 0x6EE JUMPI PUSH2 0x6E0 DUP2 DUP4 PUSH2 0x3DF1 JUMP JUMPDEST DUP7 PUSH2 0x749 JUMP JUMPDEST PUSH1 0x40 MLOAD PUSH4 0xA9059CBB PUSH1 0xE0 SHL DUP2 MSTORE CALLER PUSH1 0x4 DUP3 ADD MSTORE PUSH1 0x24 DUP2 ADD DUP3 SWAP1 MSTORE PUSH1 0x20 DUP2 PUSH1 0x44 DUP2 PUSH1 0x0 PUSH20 0x765DE816845861E75A25FCA122BB6898B8B1282A GAS CALL SWAP1 DUP2 ISZERO PUSH2 0x6F5 JUMPI PUSH1 0x0 SWAP2 PUSH2 0x82C JUMPI JUMPDEST POP PUSH2 0x5E3 JUMPI PUSH1 0x40 MLOAD PUSH3 0x461BCD PUSH1 0xE5 SHL DUP2 MSTORE PUSH1 0x20 PUSH1 0x4 DUP3 ADD MSTORE PUSH1 0x12 PUSH1 0x24 DUP3 ADD MSTORE PUSH18 0x18D554D1081C99599D5B990819985A5B1959 PUSH1 0x72 SHL PUSH1 0x44 DUP3 ADD MSTORE PUSH1 0x64 SWAP1 REVERT JUMPDEST PUSH2 0x845 SWAP2 POP PUSH1 0x20 RETURNDATASIZE PUSH1 0x20 GT PUSH2 0x6EE JUMPI PUSH2 0x6E0 DUP2 DUP4 PUSH2 0x3DF1 JUMP JUMPDEST DUP7 PUSH2 0x7ED JUMP JUMPDEST PUSH1 0x0 SWAP1 PUSH2 0x869 JUMPI JUMPDEST PUSH1 0x0 DUP1 DUP1 SWAP4 DUP2 SWAP4 CALLER SWAP1 CALL ISZERO PUSH2 0x6F5 JUMPI DUP5 DUP7 PUSH2 0x5DB JUMP JUMPDEST POP PUSH2 0x8FC PUSH2 0x853 JUMP JUMPDEST PUSH1 0x40 MLOAD PUSH3 0x461BCD PUSH1 0xE5 SHL DUP2 MSTORE PUSH1 0x20 PUSH1 0x4 DUP3 ADD MSTORE PUSH1 0x17 PUSH1 0x24 DUP3 ADD MSTORE PUSH32 0x46696E64657220616C72656164792061737369676E6564000000000000000000 PUSH1 0x44 DUP3 ADD MSTORE PUSH1 0x64 SWAP1 REVERT JUMPDEST PUSH4 0x4E487B71 PUSH1 0xE0 SHL PUSH1 0x0 MSTORE PUSH1 0x21 PUSH1 0x4 MSTORE PUSH1 0x24 PUSH1 0x0 REVERT JUMPDEST CALLVALUE PUSH2 0x1AD JUMPI PUSH1 0x20 CALLDATASIZE PUSH1 0x3 NOT ADD SLT PUSH2 0x1AD JUMPI PUSH1 0x4 CALLDATALOAD PUSH1 0x0 MSTORE PUSH1 0x4 PUSH1 0x20 MSTORE PUSH1 0x20 PUSH1 0x40 PUSH1 0x0 KECCAK256 SLOAD PUSH1 0x40 MLOAD SWAP1 DUP2 MSTORE RETURN JUMPDEST CALLVALUE PUSH2 0x1AD JUMPI PUSH1 0x20 CALLDATASIZE PUSH1 0x3 NOT ADD SLT PUSH2 0x1AD JUMPI PUSH1 0x4 CALLDATALOAD PUSH1 0x0 MSTORE PUSH1 0x2 PUSH1 0x20 MSTORE PUSH1 0x40 PUSH1 0x0 KECCAK256 DUP1 SLOAD PUSH1 0x1 PUSH1 0xA0 SHL PUSH1 0x1 SWAP1 SUB PUSH1 0x1 DUP4 ADD SLOAD AND SWAP2 PUSH1 0x2 DUP2 ADD PUSH2 0x939 SWAP1 PUSH2 0x3E12 JUMP JUMPDEST PUSH2 0x945 PUSH1 0x3 DUP4 ADD PUSH2 0x3E12 JUMP JUMPDEST PUSH2 0x951 PUSH1 0x4 DUP5 ADD PUSH2 0x3E12 JUMP JUMPDEST PUSH1 0x5 DUP5 ADD SLOAD PUSH2 0x962 PUSH1 0x6 DUP7 ADD PUSH2 0x3E12 JUMP JUMPDEST PUSH2 0x96E PUSH1 0x7 DUP8 ADD PUSH2 0x3E12 JUMP JUMPDEST PUSH2 0x97A PUSH1 0x8 DUP9 ADD PUSH2 0x3E12 JUMP JUMPDEST SWAP2 PUSH2 0x987 PUSH1 0x9 DUP10 ADD PUSH2 0x3E12 JUMP JUMPDEST SWAP4 PUSH2 0x994 PUSH1 0xA DUP11 ADD PUSH2 0x3E12 JUMP JUMPDEST SWAP6 PUSH2 0x9A1 PUSH1 0xB DUP12 ADD PUSH2 0x3E12 JUMP JUMPDEST SWAP8 PUSH2 0x9AE PUSH1 0xC DUP13 ADD PUSH2 0x3E12 JUMP JUMPDEST SWAP10 PUSH1 0xD DUP13 ADD SLOAD SWAP14 PUSH1 0xE DUP14 ADD SLOAD SWAP13 PUSH1 0xF ADD SLOAD SWAP14 PUSH1 0x40 MLOAD PUSH2 0x1A0 MSTORE PUSH2 0x1A0 MLOAD MSTORE PUSH2 0x1A0 MLOAD PUSH1 0x20 ADD MSTORE PUSH2 0x1A0 MLOAD PUSH1 0x40 ADD PUSH2 0x2C0 SWAP1 MSTORE PUSH2 0x1A0 MLOAD PUSH2 0x2C0 ADD PUSH2 0x9F1 SWAP2 PUSH2 0x3ED9 JUMP JUMPDEST PUSH2 0x1A0 MLOAD DUP2 SUB PUSH2 0x1A0 MLOAD PUSH1 0x60 ADD MSTORE PUSH2 0xA08 SWAP2 PUSH2 0x3ED9 JUMP JUMPDEST PUSH2 0x1A0 MLOAD DUP2 SUB PUSH2 0x1A0 MLOAD PUSH1 0x80 ADD MSTORE PUSH2 0xA1F SWAP2 PUSH2 0x3ED9 JUMP JUMPDEST SWAP1 PUSH1 0x1 PUSH1 0x1 PUSH1 0x80 SHL SUB DUP2 AND PUSH2 0x1A0 MLOAD PUSH1 0xA0 ADD MSTORE PUSH1 0x80 SHR PUSH2 0x1A0 MLOAD PUSH1 0xC0 ADD MSTORE PUSH2 0x1A0 MLOAD DUP2 SUB PUSH2 0x1A0 MLOAD PUSH1 0xE0 ADD MSTORE PUSH2 0xA54 SWAP2 PUSH2 0x3ED9 JUMP JUMPDEST PUSH2 0x1A0 MLOAD DUP2 SUB PUSH2 0x1A0 MLOAD PUSH2 0x100 ADD MSTORE PUSH2 0xA6C SWAP2 PUSH2 0x3ED9 JUMP JUMPDEST PUSH2 0x1A0 MLOAD DUP2 SUB PUSH2 0x1A0 MLOAD PUSH2 0x120 ADD MSTORE PUSH2 0xA84 SWAP2 PUSH2 0x3ED9 JUMP JUMPDEST PUSH2 0x1A0 MLOAD DUP2 SUB PUSH2 0x1A0 MLOAD PUSH2 0x140 ADD MSTORE PUSH2 0xA9C SWAP2 PUSH2 0x3ED9 JUMP JUMPDEST PUSH2 0x1A0 MLOAD DUP2 SUB PUSH2 0x1A0 MLOAD PUSH2 0x160 ADD MSTORE PUSH2 0xAB4 SWAP2 PUSH2 0x3ED9 JUMP JUMPDEST PUSH2 0x1A0 MLOAD DUP2 SUB PUSH2 0x1A0 MLOAD PUSH2 0x180 ADD MSTORE PUSH2 0xACC SWAP2 PUSH2 0x3ED9 JUMP JUMPDEST PUSH2 0x1A0 MLOAD DUP2 SUB PUSH2 0x1A0 MLOAD PUSH2 0x1A0 ADD MSTORE PUSH2 0xAE4 SWAP2 PUSH2 0x3ED9 JUMP JUMPDEST SWAP3 PUSH1 0x1 PUSH1 0x1 PUSH1 0x80 SHL SUB DUP2 AND PUSH2 0x1A0 MLOAD PUSH2 0x1C0 ADD MSTORE PUSH1 0x80 SHR PUSH2 0x1A0 MLOAD PUSH2 0x1E0 ADD MSTORE PUSH1 0x1 PUSH1 0x1 PUSH1 0x80 SHL SUB DUP2 AND PUSH2 0x1A0 MLOAD PUSH2 0x200 ADD MSTORE PUSH1 0x80 SHR PUSH2 0x1A0 MLOAD PUSH2 0x220 ADD MSTORE PUSH2 0x1A0 MLOAD PUSH2 0x240 ADD PUSH1 0xFF DUP3 AND SWAP1 PUSH2 0xB39 SWAP2 PUSH2 0x3F48 JUMP JUMPDEST DUP1 PUSH1 0x8 SHR PUSH1 0xFF AND ISZERO ISZERO PUSH2 0x1A0 MLOAD PUSH2 0x260 ADD MSTORE DUP1 PUSH1 0x10 SHR PUSH1 0xFF AND ISZERO ISZERO PUSH2 0x1A0 MLOAD PUSH2 0x280 ADD MSTORE PUSH1 0x1 PUSH1 0xA0 SHL PUSH1 0x1 SWAP1 SUB SWAP1 PUSH1 0x18 SHR AND PUSH2 0x1A0 MLOAD PUSH2 0x2A0 ADD MSTORE PUSH2 0x1A0 MLOAD SWAP1 SUB PUSH2 0x1A0 MLOAD RETURN JUMPDEST CALLVALUE PUSH2 0x1AD JUMPI PUSH1 0x0 CALLDATASIZE PUSH1 0x3 NOT ADD SLT PUSH2 0x1AD JUMPI PUSH1 0x20 PUSH1 0x40 MLOAD PUSH20 0x48065FBBE25F71C9282DDF5E1CD6D6A887483D5E DUP2 MSTORE RETURN JUMPDEST PUSH2 0x419D JUMP JUMPDEST CALLVALUE PUSH2 0x1AD JUMPI PUSH1 0x20 CALLDATASIZE PUSH1 0x3 NOT ADD SLT PUSH2 0x1AD JUMPI PUSH1 0x4 CALLDATALOAD PUSH2 0xBD5 PUSH1 0x1 SLOAD DUP3 LT PUSH2 0x4250 JUMP JUMPDEST PUSH1 0x0 MSTORE PUSH1 0x7 PUSH1 0x20 MSTORE PUSH1 0x40 PUSH1 0x0 KECCAK256 DUP1 SLOAD SWAP1 PUSH2 0xBEE DUP3 PUSH2 0x43B3 JUMP JUMPDEST SWAP2 PUSH2 0xBFC PUSH1 0x40 MLOAD SWAP4 DUP5 PUSH2 0x3DF1 JUMP JUMPDEST DUP1 DUP4 MSTORE PUSH1 0x20 DUP4 ADD DUP1 SWAP3 PUSH1 0x0 MSTORE PUSH1 0x20 PUSH1 0x0 KECCAK256 PUSH1 0x0 SWAP2 JUMPDEST DUP4 DUP4 LT PUSH2 0xCA3 JUMPI DUP5 DUP7 PUSH1 0x40 MLOAD SWAP2 DUP3 SWAP2 PUSH1 0x20 DUP4 ADD SWAP1 PUSH1 0x20 DUP5 MSTORE MLOAD DUP1 SWAP2 MSTORE PUSH1 0x40 DUP4 ADD SWAP1 PUSH1 0x40 DUP2 PUSH1 0x5 SHL DUP6 ADD ADD SWAP3 SWAP2 PUSH1 0x0 SWAP1 JUMPDEST DUP3 DUP3 LT PUSH2 0xC50 JUMPI POP POP POP POP SUB SWAP1 RETURN JUMPDEST SWAP2 SWAP4 PUSH1 0x1 SWAP2 SWAP4 SWAP6 POP PUSH1 0x20 DUP1 SWAP2 PUSH1 0x3F NOT DUP10 DUP3 SUB ADD DUP6 MSTORE DUP8 MLOAD SWAP1 DUP5 DUP1 PUSH1 0xA0 SHL SUB DUP3 MLOAD AND DUP2 MSTORE PUSH1 0x40 DUP1 PUSH2 0xC8D DUP6 DUP6 ADD MLOAD PUSH1 0x60 DUP8 DUP7 ADD MSTORE PUSH1 0x60 DUP6 ADD SWAP1 PUSH2 0x3ED9 JUMP JUMPDEST SWAP4 ADD MLOAD SWAP2 ADD MSTORE SWAP7 ADD SWAP3 ADD SWAP3 ADD DUP6 SWAP5 SWAP4 SWAP2 SWAP3 PUSH2 0xC41 JUMP JUMPDEST PUSH1 0x3 PUSH1 0x20 PUSH1 0x1 SWAP3 PUSH1 0x40 MLOAD PUSH2 0xCB6 DUP2 PUSH2 0x3DD6 JUMP JUMPDEST DUP5 DUP1 PUSH1 0xA0 SHL SUB DUP7 SLOAD AND DUP2 MSTORE PUSH2 0xCCC DUP6 DUP8 ADD PUSH2 0x3E12 JUMP JUMPDEST DUP4 DUP3 ADD MSTORE PUSH1 0x2 DUP7 ADD SLOAD PUSH1 0x40 DUP3 ADD MSTORE DUP2 MSTORE ADD SWAP3 ADD SWAP3 ADD SWAP2 SWAP1 PUSH2 0xC11 JUMP JUMPDEST CALLVALUE PUSH2 0x1AD JUMPI PUSH1 0x20 CALLDATASIZE PUSH1 0x3 NOT ADD SLT PUSH2 0x1AD JUMPI PUSH1 0x4 CALLDATALOAD PUSH2 0xD09 PUSH1 0x1 SLOAD DUP3 LT PUSH2 0x4250 JUMP JUMPDEST PUSH1 0x1 PUSH1 0x0 SLOAD PUSH2 0xD1B PUSH1 0xFF DUP3 AND ISZERO PUSH2 0x4291 JUMP JUMPDEST PUSH1 0xFF NOT AND OR PUSH1 0x0 SSTORE DUP1 PUSH1 0x0 MSTORE PUSH1 0x2 PUSH1 0x20 MSTORE PUSH1 0x40 PUSH1 0x0 KECCAK256 PUSH1 0xF DUP2 ADD SWAP1 PUSH1 0xFF DUP3 SLOAD AND PUSH1 0x3 DUP2 LT ISZERO PUSH2 0x8B7 JUMPI PUSH2 0xD4E SWAP1 ISZERO PUSH2 0x4583 JUMP JUMPDEST PUSH1 0x1 ADD SLOAD PUSH1 0x1 PUSH1 0x1 PUSH1 0xA0 SHL SUB AND CALLER EQ PUSH2 0xE08 JUMPI DUP1 SLOAD CALLER PUSH1 0x18 SHL PUSH4 0x1000000 PUSH1 0x1 PUSH1 0xB8 SHL SUB AND PUSH3 0x10000 PUSH1 0x1 PUSH1 0xB8 SHL SUB NOT SWAP1 SWAP2 AND OR PUSH3 0x10000 OR DUP1 DUP3 SSTORE PUSH1 0x8 SHR PUSH1 0xFF AND PUSH2 0xDD0 JUMPI JUMPDEST POP PUSH1 0x40 MLOAD SWAP1 PUSH1 0x0 DUP3 MSTORE PUSH32 0xC7DB73A2D1DC7FD351B6549EFAD129BBF568E618DBBE683ABFA0D1550A96E5AE PUSH1 0x20 CALLER SWAP4 LOG3 PUSH1 0x0 DUP1 SLOAD PUSH1 0xFF NOT AND SWAP1 SSTORE STOP JUMPDEST DUP1 SLOAD PUSH1 0xFF NOT AND PUSH1 0x1 OR SWAP1 SSTORE CALLER DUP2 PUSH32 0x2C54217AED12A18C71E20E5A6A3F13F8CFDDBB2C3A0A5F409861478C7FD39E81 PUSH1 0x0 DUP1 LOG3 DUP2 PUSH2 0xD95 JUMP JUMPDEST PUSH1 0x40 MLOAD PUSH3 0x461BCD PUSH1 0xE5 SHL DUP2 MSTORE PUSH1 0x20 PUSH1 0x4 DUP3 ADD MSTORE PUSH1 0x16 PUSH1 0x24 DUP3 ADD MSTORE PUSH22 0x27BBB732B91031B0B73737BA103132903334B73232B9 PUSH1 0x51 SHL PUSH1 0x44 DUP3 ADD MSTORE PUSH1 0x64 SWAP1 REVERT JUMPDEST CALLVALUE PUSH2 0x1AD JUMPI PUSH1 0x40 CALLDATASIZE PUSH1 0x3 NOT ADD SLT PUSH2 0x1AD JUMPI PUSH1 0x24 CALLDATALOAD PUSH1 0x1 PUSH1 0x1 PUSH1 0xA0 SHL SUB DUP2 AND SWAP1 PUSH1 0x4 CALLDATALOAD DUP3 DUP3 SUB PUSH2 0x1AD JUMPI DUP1 PUSH1 0x0 MSTORE PUSH1 0x2 PUSH1 0x20 MSTORE PUSH2 0xE93 PUSH1 0x1 DUP1 PUSH1 0xA0 SHL SUB PUSH1 0x1 PUSH1 0x40 PUSH1 0x0 KECCAK256 ADD SLOAD AND CALLER EQ PUSH2 0x45C0 JUMP JUMPDEST PUSH1 0x1 PUSH1 0x0 SLOAD PUSH2 0xEA5 PUSH1 0xFF DUP3 AND ISZERO PUSH2 0x4291 JUMP JUMPDEST PUSH1 0xFF NOT AND OR PUSH1 0x0 SSTORE DUP1 PUSH1 0x0 MSTORE PUSH1 0x2 PUSH1 0x20 MSTORE PUSH1 0xF PUSH1 0x40 PUSH1 0x0 KECCAK256 ADD PUSH1 0xFF DUP2 SLOAD AND PUSH1 0x3 DUP2 LT ISZERO PUSH2 0x8B7 JUMPI PUSH2 0xED6 SWAP1 ISZERO PUSH2 0x4583 JUMP JUMPDEST DUP4 ISZERO PUSH2 0xFDF JUMPI PUSH1 0x0 SWAP3 PUSH1 0x0 JUMPDEST DUP4 PUSH1 0x0 MSTORE PUSH1 0x7 PUSH1 0x20 MSTORE PUSH1 0x40 PUSH1 0x0 KECCAK256 SLOAD DUP2 LT ISZERO PUSH2 0xFD6 JUMPI DUP4 PUSH1 0x0 MSTORE PUSH1 0x7 PUSH1 0x20 MSTORE DUP6 PUSH2 0xF10 DUP3 PUSH1 0x40 PUSH1 0x0 KECCAK256 PUSH2 0x3D4E JUMP JUMPDEST POP SLOAD PUSH1 0x1 PUSH1 0x1 PUSH1 0xA0 SHL SUB AND EQ PUSH2 0xF28 JUMPI PUSH1 0x1 ADD PUSH2 0xEE2 JUMP JUMPDEST POP SWAP1 SWAP2 SWAP3 POP PUSH1 0x1 JUMPDEST ISZERO PUSH2 0xF99 JUMPI DUP2 SLOAD PUSH4 0x1000000 PUSH1 0x1 PUSH1 0xB8 SHL SUB NOT AND PUSH1 0x18 SWAP2 SWAP1 SWAP2 SHL PUSH4 0x1000000 PUSH1 0x1 PUSH1 0xB8 SHL SUB AND OR DUP2 SSTORE DUP1 SLOAD PUSH3 0xFFFFFF NOT AND PUSH3 0x10101 OR SWAP1 SSTORE PUSH32 0x2C54217AED12A18C71E20E5A6A3F13F8CFDDBB2C3A0A5F409861478C7FD39E81 PUSH1 0x0 DUP1 LOG3 PUSH1 0x0 DUP1 SLOAD PUSH1 0xFF NOT AND SWAP1 SSTORE STOP JUMPDEST PUSH1 0x40 MLOAD PUSH3 0x461BCD PUSH1 0xE5 SHL DUP2 MSTORE PUSH1 0x20 PUSH1 0x4 DUP3 ADD MSTORE PUSH1 0x15 PUSH1 0x24 DUP3 ADD MSTORE PUSH21 0x46696E646572206E6F7420696E207265706F727473 PUSH1 0x58 SHL PUSH1 0x44 DUP3 ADD MSTORE PUSH1 0x64 SWAP1 REVERT JUMPDEST POP SWAP1 SWAP2 SWAP3 PUSH2 0xF30 JUMP JUMPDEST PUSH1 0x40 MLOAD PUSH3 0x461BCD PUSH1 0xE5 SHL DUP2 MSTORE PUSH1 0x20 PUSH1 0x4 DUP3 ADD MSTORE PUSH1 0x16 PUSH1 0x24 DUP3 ADD MSTORE PUSH22 0x496E76616C69642066696E6465722061646472657373 PUSH1 0x50 SHL PUSH1 0x44 DUP3 ADD MSTORE PUSH1 0x64 SWAP1 REVERT JUMPDEST CALLVALUE PUSH2 0x1AD JUMPI PUSH2 0x102B CALLDATASIZE PUSH2 0x3D38 JUMP JUMPDEST DUP2 ADD PUSH1 0x0 DUP2 DUP4 GT PUSH2 0x111B JUMPI DUP2 SWAP1 PUSH1 0x1 SLOAD DUP1 SWAP4 GT PUSH2 0x1113 JUMPI JUMPDEST DUP4 JUMPDEST DUP3 DUP2 LT PUSH2 0x10D3 JUMPI POP PUSH2 0x1056 SWAP1 PUSH2 0x43CA JUMP JUMPDEST SWAP2 PUSH1 0x0 SWAP4 JUMPDEST DUP3 DUP2 LT PUSH2 0x1087 JUMPI POP PUSH2 0x107C SWAP4 POP PUSH1 0x40 MLOAD SWAP4 DUP5 SWAP4 PUSH1 0x40 DUP6 MSTORE PUSH1 0x40 DUP6 ADD SWAP1 PUSH2 0x3F14 JUMP JUMPDEST SWAP2 LT PUSH1 0x20 DUP4 ADD MSTORE SUB SWAP1 RETURN JUMPDEST DUP1 PUSH1 0x0 MSTORE PUSH1 0x2 PUSH1 0x20 MSTORE PUSH1 0xFF PUSH1 0xF PUSH1 0x40 PUSH1 0x0 KECCAK256 ADD SLOAD AND PUSH1 0x3 DUP2 LT ISZERO PUSH2 0x8B7 JUMPI ISZERO PUSH2 0x10B3 JUMPI JUMPDEST PUSH1 0x1 ADD PUSH2 0x105B JUMP JUMPDEST SWAP4 PUSH2 0x10CB DUP2 DUP7 PUSH2 0x10C5 PUSH1 0x1 SWAP5 DUP9 PUSH2 0x44F3 JUMP JUMPDEST MSTORE PUSH2 0x43A4 JUMP JUMPDEST SWAP5 SWAP1 POP PUSH2 0x10AB JUMP JUMPDEST DUP1 PUSH1 0x0 MSTORE PUSH1 0x2 PUSH1 0x20 MSTORE PUSH1 0xFF PUSH1 0xF PUSH1 0x40 PUSH1 0x0 KECCAK256 ADD SLOAD AND PUSH1 0x3 DUP2 LT ISZERO PUSH2 0x8B7 JUMPI ISZERO PUSH2 0x10FF JUMPI JUMPDEST PUSH1 0x1 ADD PUSH2 0x1045 JUMP JUMPDEST SWAP1 PUSH2 0x110B PUSH1 0x1 SWAP2 PUSH2 0x43A4 JUMP JUMPDEST SWAP2 SWAP1 POP PUSH2 0x10F7 JUMP JUMPDEST DUP3 SWAP2 POP PUSH2 0x1043 JUMP JUMPDEST PUSH4 0x4E487B71 PUSH1 0xE0 SHL PUSH1 0x0 MSTORE PUSH1 0x11 PUSH1 0x4 MSTORE PUSH1 0x24 PUSH1 0x0 REVERT JUMPDEST CALLVALUE PUSH2 0x1AD JUMPI PUSH1 0x0 CALLDATASIZE PUSH1 0x3 NOT ADD SLT PUSH2 0x1AD JUMPI PUSH1 0x0 DUP1 PUSH1 0x1 SLOAD SWAP1 JUMPDEST DUP2 DUP2 LT PUSH2 0x115C JUMPI PUSH1 0x20 DUP4 PUSH1 0x40 MLOAD SWAP1 DUP2 MSTORE RETURN JUMPDEST DUP1 PUSH1 0x0 MSTORE PUSH1 0x2 PUSH1 0x20 MSTORE PUSH1 0xFF PUSH1 0xF PUSH1 0x40 PUSH1 0x0 KECCAK256 ADD SLOAD AND PUSH1 0x3 DUP2 LT ISZERO PUSH2 0x8B7 JUMPI ISZERO PUSH2 0x1188 JUMPI JUMPDEST PUSH1 0x1 ADD PUSH2 0x114A JUMP JUMPDEST SWAP2 PUSH2 0x1194 PUSH1 0x1 SWAP2 PUSH2 0x43A4 JUMP JUMPDEST SWAP3 SWAP1 POP PUSH2 0x1180 JUMP JUMPDEST CALLVALUE PUSH2 0x1AD JUMPI PUSH1 0x20 CALLDATASIZE PUSH1 0x3 NOT ADD SLT PUSH2 0x1AD JUMPI PUSH2 0x11B5 PUSH2 0x3EFE JUMP JUMPDEST PUSH1 0x0 SLOAD PUSH2 0x11D0 CALLER PUSH1 0x8 DUP4 SWAP1 SHR PUSH1 0x1 PUSH1 0x1 PUSH1 0xA0 SHL SUB AND EQ PUSH2 0x41C2 JUMP JUMPDEST PUSH1 0x1 PUSH1 0x1 PUSH1 0xA0 SHL SUB DUP3 AND SWAP2 DUP3 ISZERO PUSH2 0x122A JUMPI PUSH2 0x100 PUSH1 0x1 PUSH1 0xA8 SHL SUB NOT SWAP1 SWAP2 AND PUSH1 0x8 SWAP2 SWAP1 SWAP2 SHL PUSH2 0x100 PUSH1 0x1 PUSH1 0xA8 SHL SUB AND OR PUSH1 0x0 SWAP1 DUP2 SSTORE PUSH32 0x7CE7EC0B50378FB6C0186FFB5F48325F6593FCB4CA4386F21861AF3129188F5C SWAP1 DUP1 LOG2 STOP JUMPDEST PUSH1 0x40 MLOAD PUSH3 0x461BCD PUSH1 0xE5 SHL DUP2 MSTORE PUSH1 0x20 PUSH1 0x4 DUP3 ADD MSTORE PUSH1 0xF PUSH1 0x24 DUP3 ADD MSTORE PUSH15 0x496E76616C69642061646472657373 PUSH1 0x88 SHL PUSH1 0x44 DUP3 ADD MSTORE PUSH1 0x64 SWAP1 REVERT JUMPDEST CALLVALUE PUSH2 0x1AD JUMPI PUSH1 0x20 CALLDATASIZE PUSH1 0x3 NOT ADD SLT PUSH2 0x1AD JUMPI PUSH1 0x4 CALLDATALOAD DUP1 PUSH1 0x0 MSTORE PUSH1 0x2 PUSH1 0x20 MSTORE PUSH2 0x1299 PUSH1 0x1 DUP1 PUSH1 0xA0 SHL SUB PUSH1 0x1 PUSH1 0x40 PUSH1 0x0 KECCAK256 ADD SLOAD AND CALLER EQ PUSH2 0x45C0 JUMP JUMPDEST PUSH1 0x1 PUSH1 0x0 SLOAD PUSH2 0x12AB PUSH1 0xFF DUP3 AND ISZERO PUSH2 0x4291 JUMP JUMPDEST PUSH1 0xFF NOT AND OR PUSH1 0x0 SSTORE DUP1 PUSH1 0x0 MSTORE PUSH1 0x2 PUSH1 0x20 MSTORE PUSH1 0xF PUSH1 0x40 PUSH1 0x0 KECCAK256 ADD DUP1 SLOAD PUSH1 0xFF DUP2 AND PUSH1 0x3 DUP2 LT ISZERO PUSH2 0x8B7 JUMPI PUSH2 0x12DD SWAP1 ISZERO PUSH2 0x4583 JUMP JUMPDEST PUSH1 0x18 DUP2 SWAP1 SHR PUSH1 0x1 PUSH1 0x1 PUSH1 0xA0 SHL SUB AND ISZERO PUSH2 0x1387 JUMPI PUSH2 0xFF00 NOT AND PUSH2 0x100 OR DUP1 DUP3 SSTORE PUSH1 0x10 SHR PUSH1 0xFF AND PUSH2 0x1342 JUMPI JUMPDEST POP PUSH1 0x40 MLOAD SWAP1 PUSH1 0x1 DUP3 MSTORE PUSH32 0xC7DB73A2D1DC7FD351B6549EFAD129BBF568E618DBBE683ABFA0D1550A96E5AE PUSH1 0x20 CALLER SWAP4 LOG3 PUSH1 0x0 DUP1 SLOAD PUSH1 0xFF NOT AND SWAP1 SSTORE STOP JUMPDEST DUP1 SLOAD PUSH1 0xFF NOT AND PUSH1 0x1 OR SWAP1 DUP2 SWAP1 SSTORE PUSH1 0x18 SHR PUSH1 0x1 PUSH1 0x1 PUSH1 0xA0 SHL SUB AND DUP2 PUSH32 0x2C54217AED12A18C71E20E5A6A3F13F8CFDDBB2C3A0A5F409861478C7FD39E81 PUSH1 0x0 DUP1 LOG3 DUP2 PUSH2 0x1307 JUMP JUMPDEST PUSH1 0x40 MLOAD PUSH3 0x461BCD PUSH1 0xE5 SHL DUP2 MSTORE PUSH1 0x20 PUSH1 0x4 DUP3 ADD MSTORE PUSH1 0x12 PUSH1 0x24 DUP3 ADD MSTORE PUSH18 0x139BC8199A5B99195C88185CDCDA59DB9959 PUSH1 0x72 SHL PUSH1 0x44 DUP3 ADD MSTORE PUSH1 0x64 SWAP1 REVERT JUMPDEST CALLVALUE PUSH2 0x1AD JUMPI PUSH1 0x0 CALLDATASIZE PUSH1 0x3 NOT ADD SLT PUSH2 0x1AD JUMPI PUSH1 0x1 SLOAD PUSH2 0x13DE DUP2 PUSH2 0x43FC JUMP JUMPDEST SWAP1 PUSH1 0x0 JUMPDEST DUP2 DUP2 LT PUSH2 0x1403 JUMPI PUSH1 0x40 MLOAD PUSH1 0x20 DUP1 DUP3 MSTORE DUP2 SWAP1 PUSH2 0x13FF SWAP1 DUP3 ADD DUP7 PUSH2 0x3F55 JUMP JUMPDEST SUB SWAP1 RETURN JUMPDEST DUP1 PUSH1 0x1 SWAP2 PUSH1 0x0 MSTORE PUSH1 0x2 PUSH1 0x20 MSTORE PUSH1 0x40 PUSH1 0x0 KECCAK256 PUSH1 0xF PUSH1 0x40 MLOAD SWAP2 PUSH2 0x1423 DUP4 PUSH2 0x3DBA JUMP JUMPDEST DUP1 SLOAD DUP4 MSTORE DUP5 DUP1 PUSH1 0xA0 SHL SUB DUP6 DUP3 ADD SLOAD AND PUSH1 0x20 DUP5 ADD MSTORE PUSH2 0x1443 PUSH1 0x2 DUP3 ADD PUSH2 0x3E12 JUMP JUMPDEST PUSH1 0x40 DUP5 ADD MSTORE PUSH2 0x1454 PUSH1 0x3 DUP3 ADD PUSH2 0x3E12 JUMP JUMPDEST PUSH1 0x60 DUP5 ADD MSTORE PUSH2 0x1465 PUSH1 0x4 DUP3 ADD PUSH2 0x3E12 JUMP JUMPDEST PUSH1 0x80 DUP5 ADD MSTORE PUSH1 0x5 DUP2 ADD SLOAD PUSH1 0x1 PUSH1 0x1 PUSH1 0x80 SHL SUB DUP2 AND PUSH1 0xA0 DUP6 ADD MSTORE PUSH1 0x80 SHR PUSH1 0xC0 DUP5 ADD MSTORE PUSH2 0x1492 PUSH1 0x6 DUP3 ADD PUSH2 0x3E12 JUMP JUMPDEST PUSH1 0xE0 DUP5 ADD MSTORE PUSH2 0x14A3 PUSH1 0x7 DUP3 ADD PUSH2 0x3E12 JUMP JUMPDEST PUSH2 0x100 DUP5 ADD MSTORE PUSH2 0x14B5 PUSH1 0x8 DUP3 ADD PUSH2 0x3E12 JUMP JUMPDEST PUSH2 0x120 DUP5 ADD MSTORE PUSH2 0x14C7 PUSH1 0x9 DUP3 ADD PUSH2 0x3E12 JUMP JUMPDEST PUSH2 0x140 DUP5 ADD MSTORE PUSH2 0x14D9 PUSH1 0xA DUP3 ADD PUSH2 0x3E12 JUMP JUMPDEST PUSH2 0x160 DUP5 ADD MSTORE PUSH2 0x14EB PUSH1 0xB DUP3 ADD PUSH2 0x3E12 JUMP JUMPDEST PUSH2 0x180 DUP5 ADD MSTORE PUSH2 0x14FD PUSH1 0xC DUP3 ADD PUSH2 0x3E12 JUMP JUMPDEST PUSH2 0x1A0 DUP5 ADD MSTORE PUSH1 0xD DUP2 ADD SLOAD PUSH1 0x1 PUSH1 0x1 PUSH1 0x80 SHL SUB DUP2 AND PUSH2 0x1C0 DUP6 ADD MSTORE PUSH1 0x80 SHR PUSH2 0x1E0 DUP5 ADD MSTORE PUSH1 0xE DUP2 ADD SLOAD PUSH1 0x1 PUSH1 0x1 PUSH1 0x80 SHL SUB DUP2 AND PUSH2 0x200 DUP6 ADD MSTORE PUSH1 0x80 SHR PUSH2 0x220 DUP5 ADD MSTORE ADD SLOAD PUSH2 0x1552 PUSH1 0xFF DUP3 AND PUSH2 0x240 DUP5 ADD PUSH2 0x4507 JUMP JUMPDEST PUSH1 0xFF DUP2 PUSH1 0x8 SHR AND ISZERO ISZERO PUSH2 0x260 DUP4 ADD MSTORE PUSH1 0xFF DUP2 PUSH1 0x10 SHR AND ISZERO ISZERO PUSH2 0x280 DUP4 ADD MSTORE DUP4 DUP1 PUSH1 0xA0 SHL SUB SWAP1 PUSH1 0x18 SHR AND PUSH2 0x2A0 DUP3 ADD MSTORE PUSH2 0x158B DUP3 DUP7 PUSH2 0x44F3 JUMP JUMPDEST MSTORE PUSH2 0x1596 DUP2 DUP6 PUSH2 0x44F3 JUMP JUMPDEST POP ADD PUSH2 0x13E2 JUMP JUMPDEST CALLVALUE PUSH2 0x1AD JUMPI PUSH1 0x40 CALLDATASIZE PUSH1 0x3 NOT ADD SLT PUSH2 0x1AD JUMPI PUSH1 0x4 CALLDATALOAD PUSH1 0x24 CALLDATALOAD PUSH1 0x1 PUSH1 0x1 PUSH1 0x40 SHL SUB DUP2 GT PUSH2 0x1AD JUMPI PUSH2 0x15D0 SWAP1 CALLDATASIZE SWAP1 PUSH1 0x4 ADD PUSH2 0x4170 JUMP JUMPDEST SWAP1 SWAP2 PUSH2 0x15DF PUSH1 0x1 SLOAD DUP3 LT PUSH2 0x4250 JUMP JUMPDEST PUSH1 0x1 PUSH1 0x0 SLOAD PUSH2 0x15F1 PUSH1 0xFF DUP3 AND ISZERO PUSH2 0x4291 JUMP JUMPDEST PUSH1 0xFF NOT AND OR PUSH1 0x0 SSTORE DUP1 PUSH1 0x0 MSTORE PUSH1 0x2 PUSH1 0x20 MSTORE PUSH1 0x40 PUSH1 0x0 KECCAK256 PUSH1 0xFF PUSH1 0xF DUP3 ADD SLOAD AND PUSH1 0x3 DUP2 LT ISZERO PUSH2 0x8B7 JUMPI PUSH2 0x1622 SWAP1 ISZERO PUSH2 0x4583 JUMP JUMPDEST PUSH1 0x1 ADD SLOAD PUSH1 0x1 PUSH1 0x1 PUSH1 0xA0 SHL SUB AND CALLER EQ PUSH2 0x18CB JUMPI PUSH1 0xA DUP3 LT PUSH2 0x188F JUMPI DUP1 PUSH1 0x0 MSTORE PUSH1 0x7 PUSH1 0x20 MSTORE PUSH1 0x40 PUSH1 0x0 KECCAK256 SWAP3 PUSH1 0x40 MLOAD PUSH2 0x1658 DUP2 PUSH2 0x3DD6 JUMP JUMPDEST CALLER DUP2 MSTORE PUSH2 0x1666 CALLDATASIZE DUP6 DUP5 PUSH2 0x4513 JUMP JUMPDEST SWAP5 PUSH1 0x20 DUP3 ADD SWAP6 DUP7 MSTORE PUSH1 0x40 DUP3 ADD SWAP1 TIMESTAMP DUP3 MSTORE DUP1 SLOAD PUSH9 0x10000000000000000 DUP2 LT ISZERO PUSH2 0x1863 JUMPI PUSH2 0x1698 SWAP2 PUSH1 0x1 DUP3 ADD DUP2 SSTORE PUSH2 0x3D4E JUMP JUMPDEST SWAP3 SWAP1 SWAP3 PUSH2 0x1879 JUMPI MLOAD DUP3 SLOAD PUSH1 0x1 PUSH1 0x1 PUSH1 0xA0 SHL SUB NOT AND PUSH1 0x1 PUSH1 0x1 PUSH1 0xA0 SHL SUB SWAP2 SWAP1 SWAP2 AND OR DUP3 SSTORE SWAP5 MLOAD DUP1 MLOAD SWAP1 SWAP6 SWAP1 PUSH1 0x1 DUP4 ADD SWAP1 PUSH1 0x1 PUSH1 0x1 PUSH1 0x40 SHL SUB DUP2 GT PUSH2 0x1863 JUMPI PUSH2 0x16DF DUP3 SLOAD PUSH2 0x3D80 JUMP JUMPDEST PUSH1 0x1F DUP2 GT PUSH2 0x181B JUMPI JUMPDEST POP PUSH1 0x20 PUSH1 0x1F DUP3 GT PUSH1 0x1 EQ PUSH2 0x178E JUMPI SWAP1 DUP1 PUSH1 0x2 SWAP5 SWAP4 SWAP3 PUSH32 0xBD5E23363D3A2CED039666D693DE91BE3D185F3AC63B315A2CF2C67F4A0825AF SWAP9 SWAP10 SWAP11 PUSH1 0x0 SWAP3 PUSH2 0x1783 JUMPI JUMPDEST POP POP DUP2 PUSH1 0x1 SHL SWAP2 PUSH1 0x0 NOT SWAP1 PUSH1 0x3 SHL SHR NOT AND OR SWAP1 SSTORE JUMPDEST MLOAD SWAP2 ADD SSTORE DUP4 PUSH1 0x40 MLOAD SWAP2 PUSH1 0x40 DUP4 MSTORE DUP2 PUSH1 0x40 DUP5 ADD MSTORE PUSH1 0x60 DUP4 ADD CALLDATACOPY PUSH1 0x0 PUSH1 0x60 DUP6 DUP4 ADD ADD MSTORE TIMESTAMP PUSH1 0x20 DUP3 ADD MSTORE PUSH1 0x60 DUP2 CALLER SWAP6 PUSH1 0x1F DUP1 NOT SWAP2 ADD AND DUP2 ADD SUB ADD SWAP1 LOG3 PUSH1 0x0 DUP1 SLOAD PUSH1 0xFF NOT AND SWAP1 SSTORE STOP JUMPDEST ADD MLOAD SWAP1 POP DUP11 DUP1 PUSH2 0x1729 JUMP JUMPDEST PUSH1 0x1F NOT DUP3 AND SWAP9 DUP4 PUSH1 0x0 MSTORE DUP2 PUSH1 0x0 KECCAK256 SWAP10 PUSH1 0x0 JUMPDEST DUP2 DUP2 LT PUSH2 0x1803 JUMPI POP SWAP10 PUSH1 0x1 SWAP3 DUP5 SWAP3 PUSH1 0x2 SWAP8 SWAP7 SWAP6 PUSH32 0xBD5E23363D3A2CED039666D693DE91BE3D185F3AC63B315A2CF2C67F4A0825AF SWAP12 SWAP13 SWAP14 LT PUSH2 0x17EA JUMPI JUMPDEST POP POP POP DUP2 SHL ADD SWAP1 SSTORE PUSH2 0x173E JUMP JUMPDEST ADD MLOAD PUSH1 0x0 NOT PUSH1 0xF8 DUP5 PUSH1 0x3 SHL AND SHR NOT AND SWAP1 SSTORE DUP11 DUP1 DUP1 PUSH2 0x17DD JUMP JUMPDEST DUP4 DUP4 ADD MLOAD DUP13 SSTORE PUSH1 0x1 SWAP1 SWAP12 ADD SWAP11 PUSH1 0x20 SWAP4 DUP5 ADD SWAP4 ADD PUSH2 0x17A0 JUMP JUMPDEST DUP3 PUSH1 0x0 MSTORE PUSH1 0x20 PUSH1 0x0 KECCAK256 PUSH1 0x1F DUP4 ADD PUSH1 0x5 SHR DUP2 ADD SWAP2 PUSH1 0x20 DUP5 LT PUSH2 0x1859 JUMPI JUMPDEST PUSH1 0x1F ADD PUSH1 0x5 SHR ADD SWAP1 JUMPDEST DUP2 DUP2 LT PUSH2 0x184D JUMPI POP PUSH2 0x16E8 JUMP JUMPDEST PUSH1 0x0 DUP2 SSTORE PUSH1 0x1 ADD PUSH2 0x1840 JUMP JUMPDEST SWAP1 SWAP2 POP DUP2 SWAP1 PUSH2 0x1837 JUMP JUMPDEST PUSH4 0x4E487B71 PUSH1 0xE0 SHL PUSH1 0x0 MSTORE PUSH1 0x41 PUSH1 0x4 MSTORE PUSH1 0x24 PUSH1 0x0 REVERT JUMPDEST PUSH4 0x4E487B71 PUSH1 0xE0 SHL PUSH1 0x0 MSTORE PUSH1 0x0 PUSH1 0x4 MSTORE PUSH1 0x24 PUSH1 0x0 REVERT JUMPDEST PUSH1 0x40 MLOAD PUSH3 0x461BCD PUSH1 0xE5 SHL DUP2 MSTORE PUSH1 0x20 PUSH1 0x4 DUP3 ADD MSTORE PUSH1 0x14 PUSH1 0x24 DUP3 ADD MSTORE PUSH20 0x125B9D985B1A5908195D9A59195B98D948155493 PUSH1 0x62 SHL PUSH1 0x44 DUP3 ADD MSTORE PUSH1 0x64 SWAP1 REVERT JUMPDEST PUSH1 0x40 MLOAD PUSH3 0x461BCD PUSH1 0xE5 SHL DUP2 MSTORE PUSH1 0x20 PUSH1 0x4 DUP3 ADD MSTORE PUSH1 0x13 PUSH1 0x24 DUP3 ADD MSTORE PUSH19 0x13DDDB995C8818D85B9B9BDD081C995C1BDC9D PUSH1 0x6A SHL PUSH1 0x44 DUP3 ADD MSTORE PUSH1 0x64 SWAP1 REVERT JUMPDEST PUSH2 0x1E0 CALLDATASIZE PUSH1 0x3 NOT ADD SLT PUSH2 0x1AD JUMPI PUSH1 0x4 CALLDATALOAD PUSH1 0x1 PUSH1 0x1 PUSH1 0x40 SHL SUB DUP2 GT PUSH2 0x1AD JUMPI PUSH2 0x1932 SWAP1 CALLDATASIZE SWAP1 PUSH1 0x4 ADD PUSH2 0x4170 JUMP JUMPDEST PUSH2 0x3E0 MSTORE PUSH2 0x3C0 MSTORE PUSH1 0x24 CALLDATALOAD PUSH1 0x1 PUSH1 0x1 PUSH1 0x40 SHL SUB DUP2 GT PUSH2 0x1AD JUMPI PUSH2 0x1959 SWAP1 CALLDATASIZE SWAP1 PUSH1 0x4 ADD PUSH2 0x4170 JUMP JUMPDEST PUSH2 0x3A0 MSTORE PUSH2 0x120 MSTORE PUSH1 0x44 CALLDATALOAD PUSH1 0x1 PUSH1 0x1 PUSH1 0x40 SHL SUB DUP2 GT PUSH2 0x1AD JUMPI PUSH2 0x1980 SWAP1 CALLDATASIZE SWAP1 PUSH1 0x4 ADD PUSH2 0x4170 JUMP JUMPDEST PUSH2 0x160 MSTORE PUSH2 0x460 MSTORE PUSH1 0x64 CALLDATALOAD PUSH2 0x440 DUP2 SWAP1 MSTORE PUSH1 0x1 PUSH1 0x1 PUSH1 0x80 SHL SUB DUP2 AND SWAP1 SUB PUSH2 0x1AD JUMPI PUSH1 0x84 CALLDATALOAD PUSH2 0x200 DUP2 SWAP1 MSTORE PUSH1 0x1 PUSH1 0x1 PUSH1 0x80 SHL SUB DUP2 AND SWAP1 SUB PUSH2 0x1AD JUMPI PUSH1 0xA4 CALLDATALOAD PUSH1 0x1 PUSH1 0x1 PUSH1 0x40 SHL SUB DUP2 GT PUSH2 0x1AD JUMPI PUSH2 0x19D9 SWAP1 CALLDATASIZE SWAP1 PUSH1 0x4 ADD PUSH2 0x4170 JUMP JUMPDEST PUSH2 0x220 MSTORE PUSH2 0x280 MSTORE PUSH1 0xC4 CALLDATALOAD PUSH1 0x1 PUSH1 0x1 PUSH1 0x40 SHL SUB DUP2 GT PUSH2 0x1AD JUMPI PUSH2 0x1A00 SWAP1 CALLDATASIZE SWAP1 PUSH1 0x4 ADD PUSH2 0x4170 JUMP JUMPDEST PUSH2 0x2A0 MSTORE PUSH2 0x2C0 MSTORE PUSH1 0xE4 CALLDATALOAD PUSH1 0x1 PUSH1 0x1 PUSH1 0x40 SHL SUB DUP2 GT PUSH2 0x1AD JUMPI PUSH2 0x1A27 SWAP1 CALLDATASIZE SWAP1 PUSH1 0x4 ADD PUSH2 0x4170 JUMP JUMPDEST PUSH2 0x420 MSTORE PUSH2 0x2E0 MSTORE PUSH2 0x104 CALLDATALOAD PUSH1 0x1 PUSH1 0x1 PUSH1 0x40 SHL SUB DUP2 GT PUSH2 0x1AD JUMPI PUSH2 0x1A4F SWAP1 CALLDATASIZE SWAP1 PUSH1 0x4 ADD PUSH2 0x4170 JUMP JUMPDEST PUSH2 0x320 MSTORE PUSH2 0x340 MSTORE PUSH1 0x1 PUSH1 0x1 PUSH1 0x40 SHL SUB PUSH2 0x124 CALLDATALOAD GT PUSH2 0x1AD JUMPI PUSH2 0x1A78 CALLDATASIZE PUSH2 0x124 CALLDATALOAD PUSH1 0x4 ADD PUSH2 0x4170 JUMP JUMPDEST PUSH2 0x400 MSTORE PUSH2 0x380 MSTORE PUSH2 0x144 CALLDATALOAD PUSH1 0x1 PUSH1 0x1 PUSH1 0x40 SHL SUB DUP2 GT PUSH2 0x1AD JUMPI PUSH2 0x1AA0 SWAP1 CALLDATASIZE SWAP1 PUSH1 0x4 ADD PUSH2 0x4170 JUMP JUMPDEST PUSH2 0x360 MSTORE PUSH2 0x300 MSTORE PUSH1 0x1 PUSH1 0x1 PUSH1 0x40 SHL SUB PUSH2 0x164 CALLDATALOAD GT PUSH2 0x1AD JUMPI PUSH2 0x1AC9 CALLDATASIZE PUSH2 0x164 CALLDATALOAD PUSH1 0x4 ADD PUSH2 0x4170 JUMP JUMPDEST PUSH2 0x260 MSTORE PUSH2 0x240 MSTORE PUSH2 0x184 CALLDATALOAD PUSH2 0x1E0 DUP2 SWAP1 MSTORE PUSH1 0x1 PUSH1 0x1 PUSH1 0x80 SHL SUB DUP2 AND SWAP1 SUB PUSH2 0x1AD JUMPI PUSH2 0x1A4 CALLDATALOAD PUSH2 0x1C0 DUP2 SWAP1 MSTORE PUSH1 0x1 PUSH1 0x1 PUSH1 0x80 SHL SUB DUP2 AND SWAP1 SUB PUSH2 0x1AD JUMPI PUSH2 0x1C4 CALLDATALOAD PUSH2 0x180 DUP2 SWAP1 MSTORE PUSH1 0x1 PUSH1 0x1 PUSH1 0x80 SHL SUB DUP2 AND SWAP1 SUB PUSH2 0x1AD JUMPI PUSH1 0x1 PUSH1 0x0 SLOAD PUSH2 0x1B31 PUSH1 0xFF DUP3 AND ISZERO PUSH2 0x4291 JUMP JUMPDEST PUSH1 0xFF NOT AND OR PUSH1 0x0 SSTORE PUSH8 0x8AC7230489E80000 CALLVALUE GT PUSH2 0x331D JUMPI PUSH10 0x21E19E0C9BAB2400000 PUSH1 0x1 PUSH1 0x1 PUSH1 0x80 SHL SUB PUSH2 0x1E0 MLOAD AND GT PUSH2 0x32E0 JUMPI PUSH10 0x21E19E0C9BAB2400000 PUSH1 0x1 PUSH1 0x1 PUSH1 0x80 SHL SUB PUSH2 0x180 MLOAD AND GT PUSH2 0x32A3 JUMPI PUSH10 0x21E19E0C9BAB2400000 PUSH1 0x1 PUSH1 0x1 PUSH1 0x80 SHL SUB PUSH2 0x1C0 MLOAD AND GT PUSH2 0x3268 JUMPI CALLVALUE ISZERO DUP1 ISZERO SWAP1 PUSH2 0x3253 JUMPI JUMPDEST DUP1 ISZERO PUSH2 0x323E JUMPI JUMPDEST DUP1 ISZERO PUSH2 0x3229 JUMPI JUMPDEST ISZERO PUSH2 0x31F2 JUMPI PUSH1 0x40 PUSH2 0x100 DUP2 SWAP1 MSTORE DUP1 MLOAD PUSH2 0x1BF2 SWAP2 PUSH2 0x1BD4 SWAP1 DUP3 PUSH2 0x3DF1 JUMP JUMPDEST PUSH1 0x4 DUP2 MSTORE PUSH4 0x4E616D65 PUSH1 0xE0 SHL PUSH1 0x20 DUP3 ADD MSTORE PUSH2 0x3E0 MLOAD PUSH2 0x3C0 MLOAD PUSH2 0x462C JUMP JUMPDEST PUSH2 0x100 MLOAD DUP1 MLOAD PUSH2 0x1C25 SWAP2 PUSH2 0x1C06 SWAP1 DUP3 PUSH2 0x3DF1 JUMP JUMPDEST PUSH1 0x5 DUP2 MSTORE PUSH5 0x109C995959 PUSH1 0xDA SHL PUSH1 0x20 DUP3 ADD MSTORE PUSH2 0x3A0 MLOAD PUSH2 0x120 MLOAD PUSH2 0x462C JUMP JUMPDEST PUSH2 0x100 MLOAD DUP1 MLOAD PUSH2 0x1D10 SWAP2 PUSH2 0x1C39 SWAP1 DUP3 PUSH2 0x3DF1 JUMP JUMPDEST PUSH1 0x6 DUP2 MSTORE PUSH6 0x23B2B73232B9 PUSH1 0xD1 SHL PUSH1 0x20 DUP3 ADD MSTORE PUSH2 0x1CC5 PUSH2 0x1C60 CALLDATASIZE PUSH2 0x160 MLOAD PUSH2 0x460 MLOAD PUSH2 0x4513 JUMP JUMPDEST PUSH2 0x1CC0 DUP2 MLOAD PUSH1 0x1 DUP2 LT ISZERO SWAP1 DUP2 PUSH2 0x31E6 JUMPI JUMPDEST POP PUSH2 0x100 MLOAD MLOAD SWAP1 PUSH2 0x1CBB PUSH1 0xF PUSH1 0x20 DUP5 DUP10 MLOAD PUSH2 0x1C92 DUP2 DUP13 DUP6 DUP1 DUP7 ADD SWAP2 ADD PUSH2 0x3EB6 JUMP JUMPDEST DUP2 ADD PUSH15 0x81B195B99DD1A081A5B9D985B1A59 PUSH1 0x8A SHL DUP4 DUP3 ADD MSTORE SUB ADD PUSH1 0x10 NOT DUP2 ADD DUP6 MSTORE ADD DUP4 PUSH2 0x3DF1 JUMP JUMPDEST PUSH2 0x45FC JUMP JUMPDEST PUSH2 0x47C1 JUMP JUMPDEST ISZERO PUSH2 0x1CBB PUSH1 0x10 PUSH1 0x20 PUSH2 0x100 MLOAD MLOAD DUP6 PUSH2 0x1CE6 DUP3 SWAP8 MLOAD DUP1 SWAP3 DUP6 DUP1 DUP7 ADD SWAP2 ADD PUSH2 0x3EB6 JUMP JUMPDEST DUP2 ADD PUSH16 0x2063616E6E6F7420626520626C616E6B PUSH1 0x80 SHL DUP4 DUP3 ADD MSTORE SUB ADD PUSH1 0xF NOT DUP2 ADD DUP6 MSTORE ADD DUP4 PUSH2 0x3DF1 JUMP JUMPDEST PUSH2 0x100 MLOAD POP PUSH2 0x1DCF PUSH2 0x1CE6 PUSH2 0x100 MLOAD MLOAD PUSH2 0x1D2D PUSH2 0x100 MLOAD DUP3 PUSH2 0x3DF1 JUMP JUMPDEST PUSH1 0xB DUP2 MSTORE PUSH2 0x1CBB PUSH1 0x10 PUSH1 0x20 DUP1 DUP5 ADD SWAP4 PUSH11 0x2232B9B1B934B83A34B7B7 PUSH1 0xA9 SHL DUP6 MSTORE PUSH2 0x1DB9 PUSH2 0x1D61 CALLDATASIZE PUSH2 0x2A0 MLOAD PUSH2 0x2C0 MLOAD PUSH2 0x4513 JUMP JUMPDEST PUSH2 0x1CC0 DUP2 MLOAD PUSH1 0xA DUP2 LT ISZERO SWAP1 DUP2 PUSH2 0x31D9 JUMPI JUMPDEST POP PUSH2 0x100 MLOAD MLOAD SWAP1 PUSH2 0x1CBB PUSH1 0xF DUP9 DUP5 DUP14 PUSH2 0x1D91 DUP12 MLOAD DUP1 SWAP3 DUP6 DUP6 ADD SWAP1 PUSH2 0x3EB6 JUMP JUMPDEST DUP2 ADD PUSH15 0x81B195B99DD1A081A5B9D985B1A59 PUSH1 0x8A SHL DUP4 DUP3 ADD MSTORE SUB ADD DUP11 NOT DUP2 ADD DUP6 MSTORE ADD DUP4 PUSH2 0x3DF1 JUMP JUMPDEST ISZERO SWAP5 PUSH2 0x100 MLOAD MLOAD SWAP7 DUP8 SWAP3 MLOAD DUP1 SWAP3 DUP6 DUP6 ADD SWAP1 PUSH2 0x3EB6 JUMP JUMPDEST PUSH2 0x100 MLOAD POP PUSH2 0x1E4D PUSH2 0x1CE6 PUSH2 0x100 MLOAD MLOAD PUSH2 0x1DEC PUSH2 0x100 MLOAD DUP3 PUSH2 0x3DF1 JUMP JUMPDEST PUSH1 0x9 DUP2 MSTORE PUSH2 0x1CBB PUSH1 0x10 PUSH1 0x20 DUP1 DUP5 ADD SWAP4 PUSH9 0x125B5859D948155493 PUSH1 0xBA SHL DUP6 MSTORE PUSH2 0x1DB9 PUSH2 0x1E1E CALLDATASIZE PUSH2 0x420 MLOAD PUSH2 0x2E0 MLOAD PUSH2 0x4513 JUMP JUMPDEST PUSH2 0x1CC0 DUP2 MLOAD PUSH1 0xA DUP2 LT ISZERO SWAP1 DUP2 PUSH2 0x31CD JUMPI POP PUSH2 0x100 MLOAD MLOAD SWAP1 PUSH2 0x1CBB PUSH1 0xF DUP9 DUP5 DUP14 PUSH2 0x1D91 DUP12 MLOAD DUP1 SWAP3 DUP6 DUP6 ADD SWAP1 PUSH2 0x3EB6 JUMP JUMPDEST PUSH2 0x100 MLOAD POP PUSH2 0x1ECA PUSH2 0x1CE6 PUSH2 0x100 MLOAD MLOAD PUSH2 0x1E6A PUSH2 0x100 MLOAD DUP3 PUSH2 0x3DF1 JUMP JUMPDEST PUSH1 0x8 DUP2 MSTORE PUSH2 0x1CBB PUSH1 0x10 PUSH1 0x20 DUP1 DUP5 ADD SWAP4 PUSH8 0x2637B1B0BA34B7B7 PUSH1 0xC1 SHL DUP6 MSTORE PUSH2 0x1DB9 PUSH2 0x1E9B CALLDATASIZE PUSH2 0x320 MLOAD PUSH2 0x340 MLOAD PUSH2 0x4513 JUMP JUMPDEST PUSH2 0x1CC0 DUP2 MLOAD PUSH1 0x5 DUP2 LT ISZERO SWAP1 DUP2 PUSH2 0x31CD JUMPI POP PUSH2 0x100 MLOAD MLOAD SWAP1 PUSH2 0x1CBB PUSH1 0xF DUP9 DUP5 DUP14 PUSH2 0x1D91 DUP12 MLOAD DUP1 SWAP3 DUP6 DUP6 ADD SWAP1 PUSH2 0x3EB6 JUMP JUMPDEST PUSH2 0x100 MLOAD POP PUSH2 0x1F4B PUSH2 0x1CE6 PUSH2 0x100 MLOAD MLOAD PUSH2 0x1EE7 PUSH2 0x100 MLOAD DUP3 PUSH2 0x3DF1 JUMP JUMPDEST PUSH1 0xC DUP2 MSTORE PUSH2 0x1CBB PUSH1 0x10 PUSH1 0x20 DUP1 DUP5 ADD SWAP4 PUSH12 0x436F6E74616374206E616D65 PUSH1 0xA0 SHL DUP6 MSTORE PUSH2 0x1DB9 PUSH2 0x1F1C CALLDATASIZE PUSH2 0x400 MLOAD PUSH2 0x380 MLOAD PUSH2 0x4513 JUMP JUMPDEST PUSH2 0x1CC0 DUP2 MLOAD PUSH1 0x2 DUP2 LT ISZERO SWAP1 DUP2 PUSH2 0x31C1 JUMPI POP PUSH2 0x100 MLOAD MLOAD SWAP1 PUSH2 0x1CBB PUSH1 0xF DUP9 DUP5 DUP14 PUSH2 0x1D91 DUP12 MLOAD DUP1 SWAP3 DUP6 DUP6 ADD SWAP1 PUSH2 0x3EB6 JUMP JUMPDEST PUSH2 0x100 MLOAD POP PUSH2 0x1FCD PUSH2 0x1CE6 PUSH2 0x100 MLOAD MLOAD PUSH2 0x1F68 PUSH2 0x100 MLOAD DUP3 PUSH2 0x3DF1 JUMP JUMPDEST PUSH1 0xD DUP2 MSTORE PUSH2 0x1CBB PUSH1 0x10 PUSH1 0x20 DUP1 DUP5 ADD SWAP4 PUSH13 0x436F6E746163742070686F6E65 PUSH1 0x98 SHL DUP6 MSTORE PUSH2 0x1DB9 PUSH2 0x1F9E CALLDATASIZE PUSH2 0x360 MLOAD PUSH2 0x300 MLOAD PUSH2 0x4513 JUMP JUMPDEST PUSH2 0x1CC0 DUP2 MLOAD PUSH1 0x5 DUP2 LT ISZERO SWAP1 DUP2 PUSH2 0x31B5 JUMPI POP PUSH2 0x100 MLOAD MLOAD SWAP1 PUSH2 0x1CBB PUSH1 0xF DUP9 DUP5 DUP14 PUSH2 0x1D91 DUP12 MLOAD DUP1 SWAP3 DUP6 DUP6 ADD SWAP1 PUSH2 0x3EB6 JUMP JUMPDEST PUSH1 0xA PUSH1 0x1 PUSH1 0x1 PUSH1 0x80 SHL SUB PUSH2 0x440 MLOAD AND LT ISZERO DUP1 PUSH2 0x319E JUMPI JUMPDEST ISZERO PUSH2 0x3168 JUMPI PUSH1 0x1 PUSH1 0x1 PUSH1 0x1 PUSH1 0x80 SHL SUB PUSH2 0x200 MLOAD AND LT ISZERO DUP1 PUSH2 0x3151 JUMPI JUMPDEST ISZERO PUSH2 0x311C JUMPI PUSH2 0x201E PUSH2 0x2019 CALLDATASIZE PUSH2 0x260 MLOAD PUSH2 0x240 MLOAD PUSH2 0x4513 JUMP JUMPDEST PUSH2 0x471B JUMP JUMPDEST ISZERO PUSH2 0x30E5 JUMPI PUSH1 0x1 PUSH1 0x1 PUSH1 0x80 SHL SUB PUSH2 0x1C0 MLOAD AND PUSH2 0x3049 JUMPI JUMPDEST PUSH1 0x1 PUSH1 0x1 PUSH1 0x80 SHL SUB PUSH2 0x1E0 MLOAD AND PUSH2 0x2FAD JUMPI JUMPDEST PUSH1 0x1 PUSH1 0x1 PUSH1 0x80 SHL SUB PUSH2 0x180 MLOAD AND PUSH2 0x2ED6 JUMPI JUMPDEST PUSH1 0x1 SLOAD PUSH1 0xE0 MSTORE PUSH2 0x100 MLOAD MLOAD PUSH1 0xC0 MSTORE PUSH2 0x2072 PUSH1 0xC0 MLOAD PUSH2 0x3DBA JUMP JUMPDEST PUSH1 0xE0 MLOAD PUSH1 0xC0 MLOAD MSTORE CALLER PUSH1 0x20 PUSH1 0xC0 MLOAD ADD MSTORE PUSH2 0x2092 CALLDATASIZE PUSH2 0x3E0 MLOAD PUSH2 0x3C0 MLOAD PUSH2 0x4513 JUMP JUMPDEST PUSH2 0x100 MLOAD PUSH1 0xC0 MLOAD ADD MSTORE PUSH2 0x20AC CALLDATASIZE PUSH2 0x3A0 MLOAD PUSH2 0x120 MLOAD PUSH2 0x4513 JUMP JUMPDEST PUSH1 0x60 PUSH1 0xC0 MLOAD ADD MSTORE PUSH2 0x20C4 CALLDATASIZE PUSH2 0x160 MLOAD PUSH2 0x460 MLOAD PUSH2 0x4513 JUMP JUMPDEST PUSH1 0x80 PUSH1 0xC0 MLOAD ADD MSTORE PUSH1 0x1 PUSH1 0x1 PUSH1 0x80 SHL SUB PUSH2 0x440 MLOAD AND PUSH1 0xA0 PUSH1 0xC0 MLOAD ADD MSTORE PUSH1 0x1 PUSH1 0x1 PUSH1 0x80 SHL SUB PUSH2 0x200 MLOAD AND PUSH1 0xC0 DUP1 MLOAD ADD MSTORE PUSH2 0x2103 CALLDATASIZE PUSH2 0x220 MLOAD PUSH2 0x280 MLOAD PUSH2 0x4513 JUMP JUMPDEST PUSH1 0xE0 PUSH1 0xC0 MLOAD ADD MSTORE PUSH2 0x211B CALLDATASIZE PUSH2 0x2A0 MLOAD PUSH2 0x2C0 MLOAD PUSH2 0x4513 JUMP JUMPDEST PUSH2 0x100 PUSH1 0xC0 MLOAD ADD MSTORE PUSH2 0x2134 CALLDATASIZE PUSH2 0x420 MLOAD PUSH2 0x2E0 MLOAD PUSH2 0x4513 JUMP JUMPDEST PUSH2 0x120 PUSH1 0xC0 MLOAD ADD MSTORE PUSH2 0x214D CALLDATASIZE PUSH2 0x320 MLOAD PUSH2 0x340 MLOAD PUSH2 0x4513 JUMP JUMPDEST PUSH2 0x140 PUSH1 0xC0 MLOAD ADD MSTORE PUSH2 0x2166 CALLDATASIZE PUSH2 0x400 MLOAD PUSH2 0x380 MLOAD PUSH2 0x4513 JUMP JUMPDEST PUSH2 0x160 PUSH1 0xC0 MLOAD ADD MSTORE PUSH2 0x217F CALLDATASIZE PUSH2 0x360 MLOAD PUSH2 0x300 MLOAD PUSH2 0x4513 JUMP JUMPDEST PUSH2 0x180 PUSH1 0xC0 MLOAD ADD MSTORE PUSH2 0x2198 CALLDATASIZE PUSH2 0x260 MLOAD PUSH2 0x240 MLOAD PUSH2 0x4513 JUMP JUMPDEST PUSH2 0x1A0 PUSH1 0xC0 MLOAD ADD MSTORE PUSH1 0x1 PUSH1 0x1 PUSH1 0x80 SHL SUB CALLVALUE AND PUSH2 0x1C0 PUSH1 0xC0 MLOAD ADD MSTORE PUSH1 0x1 PUSH1 0x1 PUSH1 0x80 SHL SUB PUSH2 0x1E0 MLOAD AND PUSH2 0x1E0 PUSH1 0xC0 MLOAD ADD MSTORE PUSH1 0x1 PUSH1 0x1 PUSH1 0x80 SHL SUB PUSH2 0x180 MLOAD AND PUSH2 0x200 PUSH1 0xC0 MLOAD ADD MSTORE PUSH1 0x1 PUSH1 0x1 PUSH1 0x80 SHL SUB PUSH2 0x1C0 MLOAD AND PUSH2 0x220 PUSH1 0xC0 MLOAD ADD MSTORE PUSH1 0x0 PUSH2 0x240 PUSH1 0xC0 MLOAD ADD MSTORE PUSH1 0x0 PUSH2 0x260 PUSH1 0xC0 MLOAD ADD MSTORE PUSH1 0x0 PUSH2 0x280 PUSH1 0xC0 MLOAD ADD MSTORE PUSH1 0x0 PUSH2 0x2A0 PUSH1 0xC0 MLOAD ADD MSTORE PUSH1 0xE0 MLOAD PUSH1 0x0 MSTORE PUSH1 0x2 PUSH1 0x20 MSTORE PUSH2 0x100 MLOAD PUSH1 0x0 KECCAK256 PUSH1 0xC0 MLOAD MLOAD DUP2 SSTORE PUSH1 0x1 DUP1 PUSH1 0xA0 SHL SUB PUSH1 0x20 PUSH1 0xC0 MLOAD ADD MLOAD AND PUSH1 0x1 DUP3 ADD SWAP1 PUSH1 0x1 DUP1 PUSH1 0xA0 SHL SUB AND PUSH12 0xFFFFFFFFFFFFFFFFFFFFFFFF PUSH1 0xA0 SHL DUP3 SLOAD AND OR SWAP1 SSTORE PUSH2 0x100 MLOAD PUSH1 0xC0 MLOAD ADD MLOAD DUP1 MLOAD SWAP1 PUSH1 0x1 PUSH1 0x1 PUSH1 0x40 SHL SUB DUP3 GT PUSH2 0x1863 JUMPI DUP2 SWAP1 PUSH2 0x228C PUSH1 0x2 DUP6 ADD SLOAD PUSH2 0x3D80 JUMP JUMPDEST PUSH1 0x1F DUP2 GT PUSH2 0x2E83 JUMPI JUMPDEST POP PUSH1 0x20 SWAP1 PUSH1 0x1F DUP4 GT PUSH1 0x1 EQ PUSH2 0x2E12 JUMPI PUSH1 0x0 SWAP3 PUSH2 0x2E07 JUMPI JUMPDEST POP POP DUP2 PUSH1 0x1 SHL SWAP2 PUSH1 0x0 NOT SWAP1 PUSH1 0x3 SHL SHR NOT AND OR PUSH1 0x2 DUP3 ADD SSTORE JUMPDEST PUSH1 0x60 PUSH1 0xC0 MLOAD ADD MLOAD DUP1 MLOAD SWAP1 PUSH1 0x1 PUSH1 0x1 PUSH1 0x40 SHL SUB DUP3 GT PUSH2 0x1863 JUMPI DUP2 SWAP1 PUSH2 0x22EB PUSH1 0x3 DUP6 ADD SLOAD PUSH2 0x3D80 JUMP JUMPDEST PUSH1 0x1F DUP2 GT PUSH2 0x2DB4 JUMPI JUMPDEST POP PUSH1 0x20 SWAP1 PUSH1 0x1F DUP4 GT PUSH1 0x1 EQ PUSH2 0x2D43 JUMPI PUSH1 0x0 SWAP3 PUSH2 0x2D38 JUMPI JUMPDEST POP POP DUP2 PUSH1 0x1 SHL SWAP2 PUSH1 0x0 NOT SWAP1 PUSH1 0x3 SHL SHR NOT AND OR PUSH1 0x3 DUP3 ADD SSTORE JUMPDEST PUSH1 0x80 PUSH1 0xC0 MLOAD ADD MLOAD DUP1 MLOAD SWAP1 PUSH1 0x1 PUSH1 0x1 PUSH1 0x40 SHL SUB DUP3 GT PUSH2 0x1863 JUMPI DUP2 SWAP1 PUSH2 0x234A PUSH1 0x4 DUP6 ADD SLOAD PUSH2 0x3D80 JUMP JUMPDEST PUSH1 0x1F DUP2 GT PUSH2 0x2CE5 JUMPI JUMPDEST POP PUSH1 0x20 SWAP1 PUSH1 0x1F DUP4 GT PUSH1 0x1 EQ PUSH2 0x2C74 JUMPI PUSH1 0x0 SWAP3 PUSH2 0x2C69 JUMPI JUMPDEST POP POP DUP2 PUSH1 0x1 SHL SWAP2 PUSH1 0x0 NOT SWAP1 PUSH1 0x3 SHL SHR NOT AND OR PUSH1 0x4 DUP3 ADD SSTORE JUMPDEST PUSH1 0xC0 DUP1 MLOAD PUSH1 0xA0 DUP2 ADD MLOAD SWAP2 ADD MLOAD PUSH1 0x80 SHL PUSH1 0x1 PUSH1 0x1 PUSH1 0x80 SHL SUB NOT AND PUSH1 0x1 PUSH1 0x1 PUSH1 0x80 SHL SUB SWAP2 SWAP1 SWAP2 AND OR PUSH1 0x5 DUP3 ADD SSTORE PUSH1 0x6 DUP2 ADD SWAP1 PUSH1 0xE0 PUSH1 0xC0 MLOAD ADD MLOAD SWAP2 DUP3 MLOAD PUSH1 0x1 PUSH1 0x1 PUSH1 0x40 SHL SUB DUP2 GT PUSH2 0x1863 JUMPI PUSH2 0x23D4 DUP3 SLOAD PUSH2 0x3D80 JUMP JUMPDEST PUSH1 0x1F DUP2 GT PUSH2 0x2C21 JUMPI JUMPDEST POP PUSH1 0x20 PUSH1 0x1F DUP3 GT PUSH1 0x1 EQ PUSH2 0x2BBC JUMPI DUP2 SWAP3 SWAP4 SWAP5 PUSH1 0x0 SWAP3 PUSH2 0x2BB1 JUMPI JUMPDEST POP POP DUP2 PUSH1 0x1 SHL SWAP2 PUSH1 0x0 NOT SWAP1 PUSH1 0x3 SHL SHR NOT AND OR SWAP1 SSTORE JUMPDEST PUSH1 0x7 DUP2 ADD SWAP1 PUSH2 0x100 PUSH1 0xC0 MLOAD ADD MLOAD SWAP2 DUP3 MLOAD PUSH1 0x1 PUSH1 0x1 PUSH1 0x40 SHL SUB DUP2 GT PUSH2 0x1863 JUMPI PUSH2 0x2434 DUP3 SLOAD PUSH2 0x3D80 JUMP JUMPDEST PUSH1 0x1F DUP2 GT PUSH2 0x2B69 JUMPI JUMPDEST POP PUSH1 0x20 PUSH1 0x1F DUP3 GT PUSH1 0x1 EQ PUSH2 0x2B04 JUMPI DUP2 SWAP3 SWAP4 SWAP5 PUSH1 0x0 SWAP3 PUSH2 0x2AF9 JUMPI JUMPDEST POP POP DUP2 PUSH1 0x1 SHL SWAP2 PUSH1 0x0 NOT SWAP1 PUSH1 0x3 SHL SHR NOT AND OR SWAP1 SSTORE JUMPDEST PUSH1 0x8 DUP2 ADD SWAP1 PUSH2 0x120 PUSH1 0xC0 MLOAD ADD MLOAD SWAP2 DUP3 MLOAD PUSH1 0x1 PUSH1 0x1 PUSH1 0x40 SHL SUB DUP2 GT PUSH2 0x1863 JUMPI PUSH2 0x2494 DUP3 SLOAD PUSH2 0x3D80 JUMP JUMPDEST PUSH1 0x1F DUP2 GT PUSH2 0x2AB1 JUMPI JUMPDEST POP PUSH1 0x20 PUSH1 0x1F DUP3 GT PUSH1 0x1 EQ PUSH2 0x2A4C JUMPI DUP2 SWAP3 SWAP4 SWAP5 PUSH1 0x0 SWAP3 PUSH2 0x2A41 JUMPI JUMPDEST POP POP DUP2 PUSH1 0x1 SHL SWAP2 PUSH1 0x0 NOT SWAP1 PUSH1 0x3 SHL SHR NOT AND OR SWAP1 SSTORE JUMPDEST PUSH1 0x9 DUP2 ADD SWAP1 PUSH2 0x140 PUSH1 0xC0 MLOAD ADD MLOAD SWAP2 DUP3 MLOAD PUSH1 0x1 PUSH1 0x1 PUSH1 0x40 SHL SUB DUP2 GT PUSH2 0x1863 JUMPI PUSH2 0x24F4 DUP3 SLOAD PUSH2 0x3D80 JUMP JUMPDEST PUSH1 0x1F DUP2 GT PUSH2 0x29F9 JUMPI JUMPDEST POP PUSH1 0x20 PUSH1 0x1F DUP3 GT PUSH1 0x1 EQ PUSH2 0x2994 JUMPI DUP2 SWAP3 SWAP4 SWAP5 PUSH1 0x0 SWAP3 PUSH2 0x2989 JUMPI JUMPDEST POP POP DUP2 PUSH1 0x1 SHL SWAP2 PUSH1 0x0 NOT SWAP1 PUSH1 0x3 SHL SHR NOT AND OR SWAP1 SSTORE JUMPDEST PUSH1 0xA DUP2 ADD SWAP1 PUSH2 0x160 PUSH1 0xC0 MLOAD ADD MLOAD SWAP2 DUP3 MLOAD PUSH1 0x1 PUSH1 0x1 PUSH1 0x40 SHL SUB DUP2 GT PUSH2 0x1863 JUMPI PUSH2 0x2554 DUP3 SLOAD PUSH2 0x3D80 JUMP JUMPDEST PUSH1 0x1F DUP2 GT PUSH2 0x2941 JUMPI JUMPDEST POP PUSH1 0x20 PUSH1 0x1F DUP3 GT PUSH1 0x1 EQ PUSH2 0x28DC JUMPI DUP2 SWAP3 SWAP4 SWAP5 PUSH1 0x0 SWAP3 PUSH2 0x28D1 JUMPI JUMPDEST POP POP DUP2 PUSH1 0x1 SHL SWAP2 PUSH1 0x0 NOT SWAP1 PUSH1 0x3 SHL SHR NOT AND OR SWAP1 SSTORE JUMPDEST PUSH1 0xB DUP2 ADD SWAP1 PUSH2 0x180 PUSH1 0xC0 MLOAD ADD MLOAD SWAP2 DUP3 MLOAD PUSH1 0x1 PUSH1 0x1 PUSH1 0x40 SHL SUB DUP2 GT PUSH2 0x1863 JUMPI PUSH2 0x25B4 DUP3 SLOAD PUSH2 0x3D80 JUMP JUMPDEST PUSH1 0x1F DUP2 GT PUSH2 0x2889 JUMPI JUMPDEST POP PUSH1 0x20 PUSH1 0x1F DUP3 GT PUSH1 0x1 EQ PUSH2 0x2824 JUMPI DUP2 SWAP3 SWAP4 SWAP5 PUSH1 0x0 SWAP3 PUSH2 0x2819 JUMPI JUMPDEST POP POP DUP2 PUSH1 0x1 SHL SWAP2 PUSH1 0x0 NOT SWAP1 PUSH1 0x3 SHL SHR NOT AND OR SWAP1 SSTORE JUMPDEST PUSH1 0xC DUP2 ADD SWAP1 PUSH2 0x1A0 PUSH1 0xC0 MLOAD ADD MLOAD SWAP2 DUP3 MLOAD SWAP3 PUSH1 0x1 PUSH1 0x1 PUSH1 0x40 SHL SUB DUP5 GT PUSH2 0x1863 JUMPI PUSH2 0x2615 DUP3 SLOAD PUSH2 0x3D80 JUMP JUMPDEST PUSH1 0x1F DUP2 GT PUSH2 0x27D1 JUMPI JUMPDEST POP PUSH1 0x20 SWAP1 PUSH1 0x1F DUP6 GT PUSH1 0x1 EQ PUSH2 0x2768 JUMPI PUSH1 0xF SWAP5 SWAP2 PUSH1 0x0 SWAP2 DUP4 PUSH2 0x275D JUMPI JUMPDEST POP POP DUP2 PUSH1 0x1 SHL SWAP2 PUSH1 0x0 NOT SWAP1 PUSH1 0x3 SHL SHR NOT AND OR SWAP1 SSTORE JUMPDEST PUSH1 0xC0 MLOAD PUSH2 0x1C0 DUP2 ADD MLOAD PUSH2 0x1E0 DUP3 ADD MLOAD PUSH1 0x80 SWAP1 DUP2 SHL PUSH1 0x1 PUSH1 0x1 PUSH1 0x80 SHL SUB NOT SWAP1 DUP2 AND PUSH1 0x1 PUSH1 0x1 PUSH1 0x80 SHL SUB SWAP4 DUP5 AND OR PUSH1 0xD DUP7 ADD SSTORE PUSH2 0x200 DUP5 ADD MLOAD PUSH2 0x220 DUP6 ADD MLOAD SWAP1 SWAP3 SHL AND SWAP2 AND OR PUSH1 0xE DUP4 ADD SSTORE PUSH2 0x240 ADD MLOAD SWAP2 ADD PUSH1 0x3 DUP3 LT ISZERO PUSH2 0x8B7 JUMPI DUP1 SLOAD PUSH1 0xC0 MLOAD PUSH2 0x260 DUP2 ADD MLOAD PUSH2 0x280 DUP3 ADD MLOAD PUSH2 0x2A0 SWAP1 SWAP3 ADD MLOAD PUSH1 0x1 PUSH1 0x1 PUSH1 0xB8 SHL SUB NOT SWAP1 SWAP4 AND PUSH1 0xFF SWAP1 SWAP6 AND SWAP5 SWAP1 SWAP5 OR SWAP4 ISZERO ISZERO PUSH1 0x8 SHL PUSH2 0xFF00 AND SWAP4 SWAP1 SWAP4 OR SWAP3 ISZERO ISZERO PUSH1 0x10 SHL PUSH3 0xFF0000 AND SWAP3 SWAP1 SWAP3 OR PUSH1 0x18 SWAP3 SWAP1 SWAP3 SHL PUSH4 0x1000000 PUSH1 0x1 PUSH1 0xB8 SHL SUB AND SWAP2 SWAP1 SWAP2 OR SWAP1 SSTORE PUSH1 0x0 PUSH1 0x1 SLOAD DUP2 MSTORE PUSH1 0x6 PUSH1 0x20 MSTORE TIMESTAMP PUSH2 0x100 MLOAD DUP3 KECCAK256 SSTORE PUSH2 0x274F PUSH1 0x1 SLOAD CALLER DUP2 PUSH32 0xF6BE169E9242DB299E4065F846C02E09B60F1421201248FE94D6F552E8C8BD44 DUP6 DUP1 LOG3 PUSH2 0x43A4 JUMP JUMPDEST PUSH1 0x1 SSTORE DUP1 SLOAD PUSH1 0xFF NOT AND DUP2 SSTORE DUP1 RETURN JUMPDEST ADD MLOAD SWAP1 POP DUP6 DUP1 PUSH2 0x263A JUMP JUMPDEST SWAP1 PUSH1 0x1F NOT DUP6 AND SWAP2 DUP4 PUSH1 0x0 MSTORE DUP2 PUSH1 0x0 KECCAK256 SWAP3 PUSH1 0x0 JUMPDEST DUP2 DUP2 LT PUSH2 0x27B9 JUMPI POP SWAP2 PUSH1 0x1 SWAP4 SWAP2 DUP8 PUSH1 0xF SWAP9 SWAP5 LT PUSH2 0x27A0 JUMPI JUMPDEST POP POP POP DUP2 SHL ADD SWAP1 SSTORE PUSH2 0x264F JUMP JUMPDEST ADD MLOAD PUSH1 0x0 NOT PUSH1 0xF8 DUP5 PUSH1 0x3 SHL AND SHR NOT AND SWAP1 SSTORE DUP6 DUP1 DUP1 PUSH2 0x2793 JUMP JUMPDEST SWAP3 SWAP4 PUSH1 0x20 PUSH1 0x1 DUP2 SWAP3 DUP8 DUP7 ADD MLOAD DUP2 SSTORE ADD SWAP6 ADD SWAP4 ADD PUSH2 0x277B JUMP JUMPDEST DUP3 PUSH1 0x0 MSTORE PUSH1 0x20 PUSH1 0x0 KECCAK256 PUSH1 0x1F DUP7 ADD PUSH1 0x5 SHR DUP2 ADD SWAP2 PUSH1 0x20 DUP8 LT PUSH2 0x280F JUMPI JUMPDEST PUSH1 0x1F ADD PUSH1 0x5 SHR ADD SWAP1 JUMPDEST DUP2 DUP2 LT PUSH2 0x2803 JUMPI POP PUSH2 0x261E JUMP JUMPDEST PUSH1 0x0 DUP2 SSTORE PUSH1 0x1 ADD PUSH2 0x27F6 JUMP JUMPDEST SWAP1 SWAP2 POP DUP2 SWAP1 PUSH2 0x27ED JUMP JUMPDEST ADD MLOAD SWAP1 POP DUP5 DUP1 PUSH2 0x25D7 JUMP JUMPDEST PUSH1 0x1F NOT DUP3 AND SWAP1 DUP4 PUSH1 0x0 MSTORE DUP1 PUSH1 0x0 KECCAK256 SWAP2 PUSH1 0x0 JUMPDEST DUP2 DUP2 LT PUSH2 0x2871 JUMPI POP SWAP6 DUP4 PUSH1 0x1 SWAP6 SWAP7 SWAP8 LT PUSH2 0x2858 JUMPI JUMPDEST POP POP POP DUP2 SHL ADD SWAP1 SSTORE PUSH2 0x25EC JUMP JUMPDEST ADD MLOAD PUSH1 0x0 NOT PUSH1 0xF8 DUP5 PUSH1 0x3 SHL AND SHR NOT AND SWAP1 SSTORE DUP5 DUP1 DUP1 PUSH2 0x284B JUMP JUMPDEST SWAP2 SWAP3 PUSH1 0x20 PUSH1 0x1 DUP2 SWAP3 DUP7 DUP12 ADD MLOAD DUP2 SSTORE ADD SWAP5 ADD SWAP3 ADD PUSH2 0x2836 JUMP JUMPDEST DUP3 PUSH1 0x0 MSTORE PUSH1 0x20 PUSH1 0x0 KECCAK256 PUSH1 0x1F DUP4 ADD PUSH1 0x5 SHR DUP2 ADD SWAP2 PUSH1 0x20 DUP5 LT PUSH2 0x28C7 JUMPI JUMPDEST PUSH1 0x1F ADD PUSH1 0x5 SHR ADD SWAP1 JUMPDEST DUP2 DUP2 LT PUSH2 0x28BB JUMPI POP PUSH2 0x25BD JUMP JUMPDEST PUSH1 0x0 DUP2 SSTORE PUSH1 0x1 ADD PUSH2 0x28AE JUMP JUMPDEST SWAP1 SWAP2 POP DUP2 SWAP1 PUSH2 0x28A5 JUMP JUMPDEST ADD MLOAD SWAP1 POP DUP5 DUP1 PUSH2 0x2577 JUMP JUMPDEST PUSH1 0x1F NOT DUP3 AND SWAP1 DUP4 PUSH1 0x0 MSTORE DUP1 PUSH1 0x0 KECCAK256 SWAP2 PUSH1 0x0 JUMPDEST DUP2 DUP2 LT PUSH2 0x2929 JUMPI POP SWAP6 DUP4 PUSH1 0x1 SWAP6 SWAP7 SWAP8 LT PUSH2 0x2910 JUMPI JUMPDEST POP POP POP DUP2 SHL ADD SWAP1 SSTORE PUSH2 0x258C JUMP JUMPDEST ADD MLOAD PUSH1 0x0 NOT PUSH1 0xF8 DUP5 PUSH1 0x3 SHL AND SHR NOT AND SWAP1 SSTORE DUP5 DUP1 DUP1 PUSH2 0x2903 JUMP JUMPDEST SWAP2 SWAP3 PUSH1 0x20 PUSH1 0x1 DUP2 SWAP3 DUP7 DUP12 ADD MLOAD DUP2 SSTORE ADD SWAP5 ADD SWAP3 ADD PUSH2 0x28EE JUMP JUMPDEST DUP3 PUSH1 0x0 MSTORE PUSH1 0x20 PUSH1 0x0 KECCAK256 PUSH1 0x1F DUP4 ADD PUSH1 0x5 SHR DUP2 ADD SWAP2 PUSH1 0x20 DUP5 LT PUSH2 0x297F JUMPI JUMPDEST PUSH1 0x1F ADD PUSH1 0x5 SHR ADD SWAP1 JUMPDEST DUP2 DUP2 LT PUSH2 0x2973 JUMPI POP PUSH2 0x255D JUMP JUMPDEST PUSH1 0x0 DUP2 SSTORE PUSH1 0x1 ADD PUSH2 0x2966 JUMP JUMPDEST SWAP1 SWAP2 POP DUP2 SWAP1 PUSH2 0x295D JUMP JUMPDEST ADD MLOAD SWAP1 POP DUP5 DUP1 PUSH2 0x2517 JUMP JUMPDEST PUSH1 0x1F NOT DUP3 AND SWAP1 DUP4 PUSH1 0x0 MSTORE DUP1 PUSH1 0x0 KECCAK256 SWAP2 PUSH1 0x0 JUMPDEST DUP2 DUP2 LT PUSH2 0x29E1 JUMPI POP SWAP6 DUP4 PUSH1 0x1 SWAP6 SWAP7 SWAP8 LT PUSH2 0x29C8 JUMPI JUMPDEST POP POP POP DUP2 SHL ADD SWAP1 SSTORE PUSH2 0x252C JUMP JUMPDEST ADD MLOAD PUSH1 0x0 NOT PUSH1 0xF8 DUP5 PUSH1 0x3 SHL AND SHR NOT AND SWAP1 SSTORE DUP5 DUP1 DUP1 PUSH2 0x29BB JUMP JUMPDEST SWAP2 SWAP3 PUSH1 0x20 PUSH1 0x1 DUP2 SWAP3 DUP7 DUP12 ADD MLOAD DUP2 SSTORE ADD SWAP5 ADD SWAP3 ADD PUSH2 0x29A6 JUMP JUMPDEST DUP3 PUSH1 0x0 MSTORE PUSH1 0x20 PUSH1 0x0 KECCAK256 PUSH1 0x1F DUP4 ADD PUSH1 0x5 SHR DUP2 ADD SWAP2 PUSH1 0x20 DUP5 LT PUSH2 0x2A37 JUMPI JUMPDEST PUSH1 0x1F ADD PUSH1 0x5 SHR ADD SWAP1 JUMPDEST DUP2 DUP2 LT PUSH2 0x2A2B JUMPI POP PUSH2 0x24FD JUMP JUMPDEST PUSH1 0x0 DUP2 SSTORE PUSH1 0x1 ADD PUSH2 0x2A1E JUMP JUMPDEST SWAP1 SWAP2 POP DUP2 SWAP1 PUSH2 0x2A15 JUMP JUMPDEST ADD MLOAD SWAP1 POP DUP5 DUP1 PUSH2 0x24B7 JUMP JUMPDEST PUSH1 0x1F NOT DUP3 AND SWAP1 DUP4 PUSH1 0x0 MSTORE DUP1 PUSH1 0x0 KECCAK256 SWAP2 PUSH1 0x0 JUMPDEST DUP2 DUP2 LT PUSH2 0x2A99 JUMPI POP SWAP6 DUP4 PUSH1 0x1 SWAP6 SWAP7 SWAP8 LT PUSH2 0x2A80 JUMPI JUMPDEST POP POP POP DUP2 SHL ADD SWAP1 SSTORE PUSH2 0x24CC JUMP JUMPDEST ADD MLOAD PUSH1 0x0 NOT PUSH1 0xF8 DUP5 PUSH1 0x3 SHL AND SHR NOT AND SWAP1 SSTORE DUP5 DUP1 DUP1 PUSH2 0x2A73 JUMP JUMPDEST SWAP2 SWAP3 PUSH1 0x20 PUSH1 0x1 DUP2 SWAP3 DUP7 DUP12 ADD MLOAD DUP2 SSTORE ADD SWAP5 ADD SWAP3 ADD PUSH2 0x2A5E JUMP JUMPDEST DUP3 PUSH1 0x0 MSTORE PUSH1 0x20 PUSH1 0x0 KECCAK256 PUSH1 0x1F DUP4 ADD PUSH1 0x5 SHR DUP2 ADD SWAP2 PUSH1 0x20 DUP5 LT PUSH2 0x2AEF JUMPI JUMPDEST PUSH1 0x1F ADD PUSH1 0x5 SHR ADD SWAP1 JUMPDEST DUP2 DUP2 LT PUSH2 0x2AE3 JUMPI POP PUSH2 0x249D JUMP JUMPDEST PUSH1 0x0 DUP2 SSTORE PUSH1 0x1 ADD PUSH2 0x2AD6 JUMP JUMPDEST SWAP1 SWAP2 POP DUP2 SWAP1 PUSH2 0x2ACD JUMP JUMPDEST ADD MLOAD SWAP1 POP DUP5 DUP1 PUSH2 0x2457 JUMP JUMPDEST PUSH1 0x1F NOT DUP3 AND SWAP1 DUP4 PUSH1 0x0 MSTORE DUP1 PUSH1 0x0 KECCAK256 SWAP2 PUSH1 0x0 JUMPDEST DUP2 DUP2 LT PUSH2 0x2B51 JUMPI POP SWAP6 DUP4 PUSH1 0x1 SWAP6 SWAP7 SWAP8 LT PUSH2 0x2B38 JUMPI JUMPDEST POP POP POP DUP2 SHL ADD SWAP1 SSTORE PUSH2 0x246C JUMP JUMPDEST ADD MLOAD PUSH1 0x0 NOT PUSH1 0xF8 DUP5 PUSH1 0x3 SHL AND SHR NOT AND SWAP1 SSTORE DUP5 DUP1 DUP1 PUSH2 0x2B2B JUMP JUMPDEST SWAP2 SWAP3 PUSH1 0x20 PUSH1 0x1 DUP2 SWAP3 DUP7 DUP12 ADD MLOAD DUP2 SSTORE ADD SWAP5 ADD SWAP3 ADD PUSH2 0x2B16 JUMP JUMPDEST DUP3 PUSH1 0x0 MSTORE PUSH1 0x20 PUSH1 0x0 KECCAK256 PUSH1 0x1F DUP4 ADD PUSH1 0x5 SHR DUP2 ADD SWAP2 PUSH1 0x20 DUP5 LT PUSH2 0x2BA7 JUMPI JUMPDEST PUSH1 0x1F ADD PUSH1 0x5 SHR ADD SWAP1 JUMPDEST DUP2 DUP2 LT PUSH2 0x2B9B JUMPI POP PUSH2 0x243D JUMP JUMPDEST PUSH1 0x0 DUP2 SSTORE PUSH1 0x1 ADD PUSH2 0x2B8E JUMP JUMPDEST SWAP1 SWAP2 POP DUP2 SWAP1 PUSH2 0x2B85 JUMP JUMPDEST ADD MLOAD SWAP1 POP DUP5 DUP1 PUSH2 0x23F7 JUMP JUMPDEST PUSH1 0x1F NOT DUP3 AND SWAP1 DUP4 PUSH1 0x0 MSTORE DUP1 PUSH1 0x0 KECCAK256 SWAP2 PUSH1 0x0 JUMPDEST DUP2 DUP2 LT PUSH2 0x2C09 JUMPI POP SWAP6 DUP4 PUSH1 0x1 SWAP6 SWAP7 SWAP8 LT PUSH2 0x2BF0 JUMPI JUMPDEST POP POP POP DUP2 SHL ADD SWAP1 SSTORE PUSH2 0x240C JUMP JUMPDEST ADD MLOAD PUSH1 0x0 NOT PUSH1 0xF8 DUP5 PUSH1 0x3 SHL AND SHR NOT AND SWAP1 SSTORE DUP5 DUP1 DUP1 PUSH2 0x2BE3 JUMP JUMPDEST SWAP2 SWAP3 PUSH1 0x20 PUSH1 0x1 DUP2 SWAP3 DUP7 DUP12 ADD MLOAD DUP2 SSTORE ADD SWAP5 ADD SWAP3 ADD PUSH2 0x2BCE JUMP JUMPDEST DUP3 PUSH1 0x0 MSTORE PUSH1 0x20 PUSH1 0x0 KECCAK256 PUSH1 0x1F DUP4 ADD PUSH1 0x5 SHR DUP2 ADD SWAP2 PUSH1 0x20 DUP5 LT PUSH2 0x2C5F JUMPI JUMPDEST PUSH1 0x1F ADD PUSH1 0x5 SHR ADD SWAP1 JUMPDEST DUP2 DUP2 LT PUSH2 0x2C53 JUMPI POP PUSH2 0x23DD JUMP JUMPDEST PUSH1 0x0 DUP2 SSTORE PUSH1 0x1 ADD PUSH2 0x2C46 JUMP JUMPDEST SWAP1 SWAP2 POP DUP2 SWAP1 PUSH2 0x2C3D JUMP JUMPDEST ADD MLOAD SWAP1 POP DUP4 DUP1 PUSH2 0x236A JUMP JUMPDEST SWAP3 POP PUSH1 0x4 DUP5 ADD PUSH1 0x0 MSTORE DUP1 PUSH1 0x0 KECCAK256 SWAP1 PUSH1 0x0 SWAP4 JUMPDEST PUSH1 0x1F NOT DUP5 AND DUP6 LT PUSH2 0x2CCA JUMPI PUSH1 0x1 SWAP5 POP DUP4 PUSH1 0x1F NOT DUP2 AND LT PUSH2 0x2CB1 JUMPI JUMPDEST POP POP POP DUP2 SHL ADD PUSH1 0x4 DUP3 ADD SSTORE PUSH2 0x2382 JUMP JUMPDEST ADD MLOAD PUSH1 0x0 NOT PUSH1 0xF8 DUP5 PUSH1 0x3 SHL AND SHR NOT AND SWAP1 SSTORE DUP4 DUP1 DUP1 PUSH2 0x2CA1 JUMP JUMPDEST DUP2 DUP2 ADD MLOAD DUP4 SSTORE PUSH1 0x20 SWAP5 DUP6 ADD SWAP5 PUSH1 0x1 SWAP1 SWAP4 ADD SWAP3 SWAP1 SWAP2 ADD SWAP1 PUSH2 0x2C86 JUMP JUMPDEST SWAP1 SWAP2 POP PUSH1 0x4 DUP5 ADD PUSH1 0x0 MSTORE PUSH1 0x20 PUSH1 0x0 KECCAK256 PUSH1 0x1F DUP5 ADD PUSH1 0x5 SHR DUP2 ADD PUSH1 0x20 DUP6 LT PUSH2 0x2D31 JUMPI JUMPDEST SWAP1 DUP5 SWAP4 SWAP3 SWAP2 JUMPDEST PUSH1 0x1F DUP4 ADD PUSH1 0x5 SHR DUP3 ADD DUP2 LT PUSH2 0x2D22 JUMPI POP POP PUSH2 0x2353 JUMP JUMPDEST PUSH1 0x0 DUP2 SSTORE DUP6 SWAP5 POP PUSH1 0x1 ADD PUSH2 0x2D0C JUMP JUMPDEST POP DUP1 PUSH2 0x2D06 JUMP JUMPDEST ADD MLOAD SWAP1 POP DUP4 DUP1 PUSH2 0x230B JUMP JUMPDEST SWAP3 POP PUSH1 0x3 DUP5 ADD PUSH1 0x0 MSTORE DUP1 PUSH1 0x0 KECCAK256 SWAP1 PUSH1 0x0 SWAP4 JUMPDEST PUSH1 0x1F NOT DUP5 AND DUP6 LT PUSH2 0x2D99 JUMPI PUSH1 0x1 SWAP5 POP DUP4 PUSH1 0x1F NOT DUP2 AND LT PUSH2 0x2D80 JUMPI JUMPDEST POP POP POP DUP2 SHL ADD PUSH1 0x3 DUP3 ADD SSTORE PUSH2 0x2323 JUMP JUMPDEST ADD MLOAD PUSH1 0x0 NOT PUSH1 0xF8 DUP5 PUSH1 0x3 SHL AND SHR NOT AND SWAP1 SSTORE DUP4 DUP1 DUP1 PUSH2 0x2D70 JUMP JUMPDEST DUP2 DUP2 ADD MLOAD DUP4 SSTORE PUSH1 0x20 SWAP5 DUP6 ADD SWAP5 PUSH1 0x1 SWAP1 SWAP4 ADD SWAP3 SWAP1 SWAP2 ADD SWAP1 PUSH2 0x2D55 JUMP JUMPDEST SWAP1 SWAP2 POP PUSH1 0x3 DUP5 ADD PUSH1 0x0 MSTORE PUSH1 0x20 PUSH1 0x0 KECCAK256 PUSH1 0x1F DUP5 ADD PUSH1 0x5 SHR DUP2 ADD PUSH1 0x20 DUP6 LT PUSH2 0x2E00 JUMPI JUMPDEST SWAP1 DUP5 SWAP4 SWAP3 SWAP2 JUMPDEST PUSH1 0x1F DUP4 ADD PUSH1 0x5 SHR DUP3 ADD DUP2 LT PUSH2 0x2DF1 JUMPI POP POP PUSH2 0x22F4 JUMP JUMPDEST PUSH1 0x0 DUP2 SSTORE DUP6 SWAP5 POP PUSH1 0x1 ADD PUSH2 0x2DDB JUMP JUMPDEST POP DUP1 PUSH2 0x2DD5 JUMP JUMPDEST ADD MLOAD SWAP1 POP DUP4 DUP1 PUSH2 0x22AC JUMP JUMPDEST SWAP3 POP PUSH1 0x2 DUP5 ADD PUSH1 0x0 MSTORE DUP1 PUSH1 0x0 KECCAK256 SWAP1 PUSH1 0x0 SWAP4 JUMPDEST PUSH1 0x1F NOT DUP5 AND DUP6 LT PUSH2 0x2E68 JUMPI PUSH1 0x1 SWAP5 POP DUP4 PUSH1 0x1F NOT DUP2 AND LT PUSH2 0x2E4F JUMPI JUMPDEST POP POP POP DUP2 SHL ADD PUSH1 0x2 DUP3 ADD SSTORE PUSH2 0x22C4 JUMP JUMPDEST ADD MLOAD PUSH1 0x0 NOT PUSH1 0xF8 DUP5 PUSH1 0x3 SHL AND SHR NOT AND SWAP1 SSTORE DUP4 DUP1 DUP1 PUSH2 0x2E3F JUMP JUMPDEST DUP2 DUP2 ADD MLOAD DUP4 SSTORE PUSH1 0x20 SWAP5 DUP6 ADD SWAP5 PUSH1 0x1 SWAP1 SWAP4 ADD SWAP3 SWAP1 SWAP2 ADD SWAP1 PUSH2 0x2E24 JUMP JUMPDEST SWAP1 SWAP2 POP PUSH1 0x2 DUP5 ADD PUSH1 0x0 MSTORE PUSH1 0x20 PUSH1 0x0 KECCAK256 PUSH1 0x1F DUP5 ADD PUSH1 0x5 SHR DUP2 ADD PUSH1 0x20 DUP6 LT PUSH2 0x2ECF JUMPI JUMPDEST SWAP1 DUP5 SWAP4 SWAP3 SWAP2 JUMPDEST PUSH1 0x1F DUP4 ADD PUSH1 0x5 SHR DUP3 ADD DUP2 LT PUSH2 0x2EC0 JUMPI POP POP PUSH2 0x2295 JUMP JUMPDEST PUSH1 0x0 DUP2 SSTORE DUP6 SWAP5 POP PUSH1 0x1 ADD PUSH2 0x2EAA JUMP JUMPDEST POP DUP1 PUSH2 0x2EA4 JUMP JUMPDEST PUSH2 0x100 MLOAD MLOAD PUSH1 0xA0 MSTORE PUSH4 0x23B872DD PUSH1 0xE0 SHL PUSH1 0xA0 MLOAD MSTORE PUSH1 0x20 PUSH1 0xA0 MLOAD PUSH1 0xA0 MLOAD PUSH2 0x2F06 PUSH2 0x180 MLOAD ADDRESS CALLER PUSH1 0x4 PUSH1 0xA0 MLOAD ADD PUSH2 0x4559 JUMP JUMPDEST SUB PUSH1 0xA0 MLOAD PUSH1 0x0 PUSH20 0x48065FBBE25F71C9282DDF5E1CD6D6A887483D5E GAS CALL PUSH1 0x80 MSTORE PUSH1 0x80 MLOAD ISZERO PUSH2 0x2F9F JUMPI PUSH1 0x0 PUSH1 0x80 MLOAD PUSH2 0x2F66 JUMPI JUMPDEST PUSH2 0x2F41 SWAP1 PUSH2 0x4361 JUMP JUMPDEST PUSH1 0x1 SLOAD PUSH1 0x0 MSTORE PUSH1 0x5 PUSH1 0x20 MSTORE PUSH1 0x1 PUSH1 0x1 PUSH1 0x80 SHL SUB PUSH2 0x180 MLOAD AND PUSH2 0x100 MLOAD PUSH1 0x0 KECCAK256 SSTORE PUSH2 0x2059 JUMP JUMPDEST POP PUSH1 0x20 RETURNDATASIZE PUSH1 0x20 GT PUSH2 0x2F98 JUMPI JUMPDEST PUSH2 0x2F91 DUP2 PUSH2 0x2F85 PUSH2 0x2F41 SWAP4 PUSH1 0xA0 MLOAD PUSH2 0x3DF1 JUMP JUMPDEST PUSH1 0xA0 MLOAD ADD PUSH1 0xA0 MLOAD PUSH2 0x41FA JUMP JUMPDEST SWAP1 POP PUSH2 0x2F38 JUMP JUMPDEST POP RETURNDATASIZE PUSH2 0x2F72 JUMP JUMPDEST PUSH2 0x100 MLOAD MLOAD RETURNDATASIZE PUSH1 0x0 DUP3 RETURNDATACOPY RETURNDATASIZE SWAP1 REVERT JUMPDEST PUSH2 0x100 MLOAD MLOAD PUSH4 0x23B872DD PUSH1 0xE0 SHL DUP2 MSTORE PUSH1 0x20 DUP2 DUP1 PUSH2 0x2FD2 PUSH2 0x1E0 MLOAD ADDRESS CALLER PUSH1 0x4 DUP6 ADD PUSH2 0x4559 JUMP JUMPDEST SUB DUP2 PUSH1 0x0 PUSH20 0x765DE816845861E75A25FCA122BB6898B8B1282A GAS CALL DUP1 ISZERO PUSH2 0x2F9F JUMPI PUSH2 0x3005 SWAP2 PUSH1 0x0 SWAP2 PUSH2 0x302A JUMPI JUMPDEST POP PUSH2 0x42DD JUMP JUMPDEST PUSH1 0x1 SLOAD PUSH1 0x0 MSTORE PUSH1 0x3 PUSH1 0x20 MSTORE PUSH1 0x1 PUSH1 0x1 PUSH1 0x80 SHL SUB PUSH2 0x1E0 MLOAD AND PUSH2 0x100 MLOAD PUSH1 0x0 KECCAK256 SSTORE PUSH2 0x2047 JUMP JUMPDEST PUSH2 0x3043 SWAP2 POP PUSH1 0x20 RETURNDATASIZE PUSH1 0x20 GT PUSH2 0x6EE JUMPI PUSH2 0x6E0 DUP2 DUP4 PUSH2 0x3DF1 JUMP JUMPDEST DUP3 PUSH2 0x2FFF JUMP JUMPDEST PUSH2 0x100 MLOAD MLOAD PUSH4 0x23B872DD PUSH1 0xE0 SHL DUP2 MSTORE PUSH1 0x20 DUP2 DUP1 PUSH2 0x306E PUSH2 0x1C0 MLOAD ADDRESS CALLER PUSH1 0x4 DUP6 ADD PUSH2 0x4559 JUMP JUMPDEST SUB DUP2 PUSH1 0x0 PUSH20 0x62B8B11039FCFE5AB0C56E502B1C372A3D2A9C7A GAS CALL DUP1 ISZERO PUSH2 0x2F9F JUMPI PUSH2 0x30A1 SWAP2 PUSH1 0x0 SWAP2 PUSH2 0x30C6 JUMPI JUMPDEST POP PUSH2 0x4320 JUMP JUMPDEST PUSH1 0x1 SLOAD PUSH1 0x0 MSTORE PUSH1 0x4 PUSH1 0x20 MSTORE PUSH1 0x1 PUSH1 0x1 PUSH1 0x80 SHL SUB PUSH2 0x1C0 MLOAD AND PUSH2 0x100 MLOAD PUSH1 0x0 KECCAK256 SSTORE PUSH2 0x2035 JUMP JUMPDEST PUSH2 0x30DF SWAP2 POP PUSH1 0x20 RETURNDATASIZE PUSH1 0x20 GT PUSH2 0x6EE JUMPI PUSH2 0x6E0 DUP2 DUP4 PUSH2 0x3DF1 JUMP JUMPDEST DUP3 PUSH2 0x309B JUMP JUMPDEST PUSH2 0x100 MLOAD MLOAD PUSH3 0x461BCD PUSH1 0xE5 SHL DUP2 MSTORE PUSH1 0x20 PUSH1 0x4 DUP3 ADD MSTORE PUSH1 0xD PUSH1 0x24 DUP3 ADD MSTORE PUSH13 0x125B9D985B1A5908195B585A5B PUSH1 0x9A SHL PUSH1 0x44 DUP3 ADD MSTORE PUSH1 0x64 SWAP1 REVERT JUMPDEST PUSH2 0x100 MLOAD MLOAD PUSH3 0x461BCD PUSH1 0xE5 SHL DUP2 MSTORE PUSH1 0x20 PUSH1 0x4 DUP3 ADD MSTORE PUSH1 0xB PUSH1 0x24 DUP3 ADD MSTORE PUSH11 0x496E76616C696420616765 PUSH1 0xA8 SHL PUSH1 0x44 DUP3 ADD MSTORE PUSH1 0x64 SWAP1 REVERT JUMPDEST POP PUSH1 0xF0 PUSH1 0x1 PUSH1 0x1 PUSH1 0x80 SHL SUB PUSH2 0x200 MLOAD AND GT ISZERO PUSH2 0x2000 JUMP JUMPDEST PUSH2 0x100 MLOAD MLOAD PUSH3 0x461BCD PUSH1 0xE5 SHL DUP2 MSTORE PUSH1 0x20 PUSH1 0x4 DUP3 ADD MSTORE PUSH1 0xC PUSH1 0x24 DUP3 ADD MSTORE PUSH12 0x496E76616C69642073697A65 PUSH1 0xA0 SHL PUSH1 0x44 DUP3 ADD MSTORE PUSH1 0x64 SWAP1 REVERT JUMPDEST POP PUSH1 0xC8 PUSH1 0x1 PUSH1 0x1 PUSH1 0x80 SHL SUB PUSH2 0x440 MLOAD AND GT ISZERO PUSH2 0x1FE4 JUMP JUMPDEST PUSH1 0x14 SWAP2 POP GT ISZERO DUP12 PUSH2 0x1D72 JUMP JUMPDEST PUSH1 0x64 SWAP2 POP GT ISZERO DUP12 PUSH2 0x1D72 JUMP JUMPDEST PUSH1 0xC8 SWAP2 POP GT ISZERO DUP12 PUSH2 0x1D72 JUMP JUMPDEST PUSH2 0x1F4 SWAP2 POP GT ISZERO DUP12 PUSH2 0x1D72 JUMP JUMPDEST PUSH1 0xA SWAP2 POP GT ISZERO DUP7 PUSH2 0x1C71 JUMP JUMPDEST PUSH1 0x40 MLOAD PUSH3 0x461BCD PUSH1 0xE5 SHL DUP2 MSTORE PUSH1 0x20 PUSH1 0x4 DUP3 ADD MSTORE PUSH1 0xF PUSH1 0x24 DUP3 ADD MSTORE PUSH15 0x109BDD5B9D1E481C995C5D5A5C9959 PUSH1 0x8A SHL PUSH1 0x44 DUP3 ADD MSTORE PUSH1 0x64 SWAP1 REVERT JUMPDEST POP PUSH1 0x1 PUSH1 0x1 PUSH1 0x80 SHL SUB PUSH2 0x180 MLOAD AND ISZERO ISZERO PUSH2 0x1BB7 JUMP JUMPDEST POP PUSH1 0x1 PUSH1 0x1 PUSH1 0x80 SHL SUB PUSH2 0x1C0 MLOAD AND ISZERO ISZERO PUSH2 0x1BB0 JUMP JUMPDEST POP PUSH1 0x1 PUSH1 0x1 PUSH1 0x80 SHL SUB PUSH2 0x1E0 MLOAD AND ISZERO ISZERO PUSH2 0x1BA9 JUMP JUMPDEST PUSH1 0x40 MLOAD PUSH3 0x461BCD PUSH1 0xE5 SHL DUP2 MSTORE PUSH1 0x20 PUSH1 0x4 DUP3 ADD MSTORE PUSH1 0x13 PUSH1 0x24 DUP3 ADD MSTORE PUSH19 0x472420626F756E747920746F6F206C61726765 PUSH1 0x68 SHL PUSH1 0x44 DUP3 ADD MSTORE PUSH1 0x64 SWAP1 REVERT JUMPDEST PUSH1 0x40 MLOAD PUSH3 0x461BCD PUSH1 0xE5 SHL DUP2 MSTORE PUSH1 0x20 PUSH1 0x4 DUP3 ADD MSTORE PUSH1 0x15 PUSH1 0x24 DUP3 ADD MSTORE PUSH21 0x5553445420626F756E747920746F6F206C61726765 PUSH1 0x58 SHL PUSH1 0x44 DUP3 ADD MSTORE PUSH1 0x64 SWAP1 REVERT JUMPDEST PUSH1 0x40 MLOAD PUSH3 0x461BCD PUSH1 0xE5 SHL DUP2 MSTORE PUSH1 0x20 PUSH1 0x4 DUP3 ADD MSTORE PUSH1 0x15 PUSH1 0x24 DUP3 ADD MSTORE PUSH21 0x6355534420626F756E747920746F6F206C61726765 PUSH1 0x58 SHL PUSH1 0x44 DUP3 ADD MSTORE PUSH1 0x64 SWAP1 REVERT JUMPDEST PUSH1 0x40 MLOAD PUSH3 0x461BCD PUSH1 0xE5 SHL DUP2 MSTORE PUSH1 0x20 PUSH1 0x4 DUP3 ADD MSTORE PUSH1 0x15 PUSH1 0x24 DUP3 ADD MSTORE PUSH21 0x43454C4F20626F756E747920746F6F206C61726765 PUSH1 0x58 SHL PUSH1 0x44 DUP3 ADD MSTORE PUSH1 0x64 SWAP1 REVERT JUMPDEST CALLVALUE PUSH2 0x1AD JUMPI PUSH1 0x0 CALLDATASIZE PUSH1 0x3 NOT ADD SLT PUSH2 0x1AD JUMPI PUSH1 0x1 SLOAD PUSH1 0x0 DUP1 JUMPDEST DUP3 DUP2 LT PUSH2 0x359F JUMPI POP PUSH2 0x338C PUSH2 0x3386 DUP3 PUSH2 0x43CA JUMP JUMPDEST SWAP2 PUSH2 0x43FC JUMP JUMPDEST PUSH1 0x0 SWAP3 DUP4 JUMPDEST DUP2 DUP2 LT PUSH2 0x33C2 JUMPI PUSH2 0x33B4 DUP5 PUSH2 0x13FF DUP6 PUSH1 0x40 MLOAD SWAP4 DUP5 SWAP4 PUSH1 0x40 DUP6 MSTORE PUSH1 0x40 DUP6 ADD SWAP1 PUSH2 0x3F14 JUMP JUMPDEST SWAP1 DUP4 DUP3 SUB PUSH1 0x20 DUP6 ADD MSTORE PUSH2 0x3F55 JUMP JUMPDEST DUP1 PUSH1 0x0 MSTORE PUSH1 0x2 PUSH1 0x20 MSTORE PUSH1 0xFF PUSH1 0xF PUSH1 0x40 PUSH1 0x0 KECCAK256 ADD SLOAD AND PUSH1 0x3 DUP2 LT ISZERO PUSH2 0x8B7 JUMPI ISZERO PUSH2 0x33EE JUMPI JUMPDEST PUSH1 0x1 ADD PUSH2 0x3391 JUMP JUMPDEST SWAP4 PUSH2 0x3597 DUP2 DUP7 PUSH2 0x3400 PUSH1 0x1 SWAP5 DUP9 PUSH2 0x44F3 JUMP JUMPDEST MSTORE DUP7 PUSH1 0x0 MSTORE PUSH1 0x2 PUSH1 0x20 MSTORE PUSH1 0x40 PUSH1 0x0 KECCAK256 PUSH1 0xF PUSH1 0x40 MLOAD SWAP2 PUSH2 0x341E DUP4 PUSH2 0x3DBA JUMP JUMPDEST DUP1 SLOAD DUP4 MSTORE DUP6 DUP1 PUSH1 0xA0 SHL SUB DUP7 DUP3 ADD SLOAD AND PUSH1 0x20 DUP5 ADD MSTORE PUSH2 0x343E PUSH1 0x2 DUP3 ADD PUSH2 0x3E12 JUMP JUMPDEST PUSH1 0x40 DUP5 ADD MSTORE PUSH2 0x344F PUSH1 0x3 DUP3 ADD PUSH2 0x3E12 JUMP JUMPDEST PUSH1 0x60 DUP5 ADD MSTORE PUSH2 0x3460 PUSH1 0x4 DUP3 ADD PUSH2 0x3E12 JUMP JUMPDEST PUSH1 0x80 DUP5 ADD MSTORE PUSH1 0x5 DUP2 ADD SLOAD PUSH1 0x1 PUSH1 0x1 PUSH1 0x80 SHL SUB DUP2 AND PUSH1 0xA0 DUP6 ADD MSTORE PUSH1 0x80 SHR PUSH1 0xC0 DUP5 ADD MSTORE PUSH2 0x348D PUSH1 0x6 DUP3 ADD PUSH2 0x3E12 JUMP JUMPDEST PUSH1 0xE0 DUP5 ADD MSTORE PUSH2 0x349E PUSH1 0x7 DUP3 ADD PUSH2 0x3E12 JUMP JUMPDEST PUSH2 0x100 DUP5 ADD MSTORE PUSH2 0x34B0 PUSH1 0x8 DUP3 ADD PUSH2 0x3E12 JUMP JUMPDEST PUSH2 0x120 DUP5 ADD MSTORE PUSH2 0x34C2 PUSH1 0x9 DUP3 ADD PUSH2 0x3E12 JUMP JUMPDEST PUSH2 0x140 DUP5 ADD MSTORE PUSH2 0x34D4 PUSH1 0xA DUP3 ADD PUSH2 0x3E12 JUMP JUMPDEST PUSH2 0x160 DUP5 ADD MSTORE PUSH2 0x34E6 PUSH1 0xB DUP3 ADD PUSH2 0x3E12 JUMP JUMPDEST PUSH2 0x180 DUP5 ADD MSTORE PUSH2 0x34F8 PUSH1 0xC DUP3 ADD PUSH2 0x3E12 JUMP JUMPDEST PUSH2 0x1A0 DUP5 ADD MSTORE PUSH1 0xD DUP2 ADD SLOAD PUSH1 0x1 PUSH1 0x1 PUSH1 0x80 SHL SUB DUP2 AND PUSH2 0x1C0 DUP6 ADD MSTORE PUSH1 0x80 SHR PUSH2 0x1E0 DUP5 ADD MSTORE PUSH1 0xE DUP2 ADD SLOAD PUSH1 0x1 PUSH1 0x1 PUSH1 0x80 SHL SUB DUP2 AND PUSH2 0x200 DUP6 ADD MSTORE PUSH1 0x80 SHR PUSH2 0x220 DUP5 ADD MSTORE ADD SLOAD PUSH2 0x354D PUSH1 0xFF DUP3 AND PUSH2 0x240 DUP5 ADD PUSH2 0x4507 JUMP JUMPDEST PUSH1 0xFF DUP2 PUSH1 0x8 SHR AND ISZERO ISZERO PUSH2 0x260 DUP4 ADD MSTORE PUSH1 0xFF DUP2 PUSH1 0x10 SHR AND ISZERO ISZERO PUSH2 0x280 DUP4 ADD MSTORE DUP5 DUP1 PUSH1 0xA0 SHL SUB SWAP1 PUSH1 0x18 SHR AND PUSH2 0x2A0 DUP3 ADD MSTORE PUSH2 0x3586 DUP3 DUP8 PUSH2 0x44F3 JUMP JUMPDEST MSTORE PUSH2 0x3591 DUP2 DUP7 PUSH2 0x44F3 JUMP JUMPDEST POP PUSH2 0x43A4 JUMP JUMPDEST SWAP5 SWAP1 POP PUSH2 0x33E6 JUMP JUMPDEST DUP1 PUSH1 0x0 MSTORE PUSH1 0x2 PUSH1 0x20 MSTORE PUSH1 0xFF PUSH1 0xF PUSH1 0x40 PUSH1 0x0 KECCAK256 ADD SLOAD AND PUSH1 0x3 DUP2 LT ISZERO PUSH2 0x8B7 JUMPI ISZERO PUSH2 0x35CB JUMPI JUMPDEST PUSH1 0x1 ADD PUSH2 0x3372 JUMP JUMPDEST SWAP1 PUSH2 0x35D7 PUSH1 0x1 SWAP2 PUSH2 0x43A4 JUMP JUMPDEST SWAP2 SWAP1 POP PUSH2 0x35C3 JUMP JUMPDEST CALLVALUE PUSH2 0x1AD JUMPI PUSH1 0x20 CALLDATASIZE PUSH1 0x3 NOT ADD SLT PUSH2 0x1AD JUMPI PUSH1 0x4 CALLDATALOAD PUSH1 0x0 MSTORE PUSH1 0x5 PUSH1 0x20 MSTORE PUSH1 0x20 PUSH1 0x40 PUSH1 0x0 KECCAK256 SLOAD PUSH1 0x40 MLOAD SWAP1 DUP2 MSTORE RETURN JUMPDEST CALLVALUE PUSH2 0x1AD JUMPI PUSH1 0x0 CALLDATASIZE PUSH1 0x3 NOT ADD SLT PUSH2 0x1AD JUMPI PUSH1 0x20 PUSH1 0x40 MLOAD PUSH20 0x765DE816845861E75A25FCA122BB6898B8B1282A DUP2 MSTORE RETURN JUMPDEST CALLVALUE PUSH2 0x1AD JUMPI PUSH1 0x20 CALLDATASIZE PUSH1 0x3 NOT ADD SLT PUSH2 0x1AD JUMPI PUSH1 0x4 CALLDATALOAD PUSH2 0x365B PUSH1 0x1 SLOAD DUP3 LT PUSH2 0x4250 JUMP JUMPDEST PUSH1 0x1 PUSH1 0x0 SLOAD PUSH2 0x366D PUSH1 0xFF DUP3 AND ISZERO PUSH2 0x4291 JUMP JUMPDEST PUSH1 0xFF NOT AND OR PUSH1 0x0 SSTORE DUP1 PUSH1 0x0 MSTORE PUSH1 0x2 PUSH1 0x20 MSTORE PUSH1 0x40 PUSH1 0x0 KECCAK256 SWAP1 PUSH1 0xF DUP3 ADD SLOAD PUSH1 0xFF DUP2 AND PUSH1 0x3 DUP2 LT ISZERO PUSH2 0x8B7 JUMPI PUSH1 0x1 SUB PUSH2 0x39DE JUMPI PUSH1 0x18 SHR PUSH1 0x1 PUSH1 0x1 PUSH1 0xA0 SHL SUB AND CALLER SUB PUSH2 0x39AC JUMPI PUSH1 0xD DUP3 ADD DUP1 SLOAD PUSH1 0x1 PUSH1 0x1 PUSH1 0x80 SHL SUB DUP2 AND SWAP4 DUP5 ISZERO SWAP2 DUP3 DUP1 ISZERO DUP1 SWAP5 PUSH2 0x39A0 JUMPI JUMPDEST DUP1 ISZERO PUSH2 0x3990 JUMPI JUMPDEST DUP1 ISZERO PUSH2 0x397A JUMPI JUMPDEST ISZERO PUSH2 0x3949 JUMPI PUSH1 0xE SWAP3 SWAP1 SWAP3 ADD DUP1 SLOAD PUSH1 0x0 SWAP6 DUP7 SWAP1 SSTORE SWAP1 DUP6 SWAP1 SSTORE DUP6 DUP6 MSTORE PUSH1 0x3 PUSH1 0x20 SWAP1 DUP2 MSTORE PUSH1 0x40 DUP1 DUP8 KECCAK256 DUP8 SWAP1 SSTORE PUSH1 0x4 DUP3 MSTORE DUP1 DUP8 KECCAK256 DUP8 SWAP1 SSTORE PUSH1 0x5 SWAP1 SWAP2 MSTORE DUP6 KECCAK256 SWAP5 SWAP1 SWAP5 SSTORE PUSH1 0x1 PUSH1 0x1 PUSH1 0x80 SHL SUB DUP5 AND SWAP4 PUSH1 0x80 SWAP1 DUP2 SHR SWAP4 SWAP2 SWAP1 SHR SWAP2 DUP7 SWAP2 PUSH2 0x3922 JUMPI JUMPDEST POP POP DUP1 PUSH2 0x38AE JUMPI JUMPDEST DUP2 PUSH2 0x382D JUMPI JUMPDEST DUP3 PUSH2 0x378E JUMPI JUMPDEST PUSH1 0x40 DUP1 MLOAD SWAP6 DUP7 MSTORE PUSH1 0x20 DUP7 ADD SWAP2 SWAP1 SWAP2 MSTORE DUP5 ADD MSTORE PUSH1 0x60 DUP4 ADD MSTORE CALLER SWAP2 PUSH32 0x29C73474C25316F69215723F555C11ED783CB69FA3AABDFB464FDE72486B22E7 SWAP1 DUP1 PUSH1 0x80 DUP2 ADD PUSH2 0x630 JUMP JUMPDEST PUSH1 0x40 MLOAD PUSH4 0xA9059CBB PUSH1 0xE0 SHL DUP2 MSTORE CALLER PUSH1 0x4 DUP3 ADD MSTORE PUSH1 0x24 DUP2 ADD DUP5 SWAP1 MSTORE SWAP3 PUSH1 0x20 DUP5 PUSH1 0x44 DUP2 PUSH1 0x0 PUSH20 0x48065FBBE25F71C9282DDF5E1CD6D6A887483D5E GAS CALL SWAP1 DUP2 ISZERO PUSH2 0x6F5 JUMPI PUSH2 0x3806 PUSH2 0x630 SWAP3 PUSH32 0x29C73474C25316F69215723F555C11ED783CB69FA3AABDFB464FDE72486B22E7 SWAP7 PUSH1 0x0 SWAP2 PUSH2 0x380E JUMPI JUMPDEST POP PUSH2 0x4361 JUMP JUMPDEST SWAP4 POP POP PUSH2 0x3749 JUMP JUMPDEST PUSH2 0x3827 SWAP2 POP PUSH1 0x20 RETURNDATASIZE PUSH1 0x20 GT PUSH2 0x6EE JUMPI PUSH2 0x6E0 DUP2 DUP4 PUSH2 0x3DF1 JUMP JUMPDEST DUP10 PUSH2 0x3800 JUMP JUMPDEST PUSH1 0x40 MLOAD PUSH4 0x2000575 PUSH1 0xE5 SHL DUP2 MSTORE CALLER PUSH1 0x4 DUP3 ADD MSTORE DUP3 PUSH1 0x24 DUP3 ADD MSTORE PUSH1 0x60 PUSH1 0x44 DUP3 ADD MSTORE PUSH1 0x0 PUSH1 0x64 DUP3 ADD MSTORE PUSH1 0x20 DUP2 PUSH1 0x84 DUP2 PUSH1 0x0 PUSH20 0x62B8B11039FCFE5AB0C56E502B1C372A3D2A9C7A GAS CALL DUP1 ISZERO PUSH2 0x6F5 JUMPI PUSH2 0x388A SWAP2 PUSH1 0x0 SWAP2 PUSH2 0x388F JUMPI POP PUSH2 0x4320 JUMP JUMPDEST PUSH2 0x3743 JUMP JUMPDEST PUSH2 0x38A8 SWAP2 POP PUSH1 0x20 RETURNDATASIZE PUSH1 0x20 GT PUSH2 0x6EE JUMPI PUSH2 0x6E0 DUP2 DUP4 PUSH2 0x3DF1 JUMP JUMPDEST DUP8 PUSH2 0x309B JUMP JUMPDEST PUSH1 0x40 MLOAD PUSH4 0xA9059CBB PUSH1 0xE0 SHL DUP2 MSTORE CALLER PUSH1 0x4 DUP3 ADD MSTORE PUSH1 0x24 DUP2 ADD DUP3 SWAP1 MSTORE PUSH1 0x20 DUP2 PUSH1 0x44 DUP2 PUSH1 0x0 PUSH20 0x765DE816845861E75A25FCA122BB6898B8B1282A GAS CALL DUP1 ISZERO PUSH2 0x6F5 JUMPI PUSH2 0x38FE SWAP2 PUSH1 0x0 SWAP2 PUSH2 0x3903 JUMPI POP PUSH2 0x42DD JUMP JUMPDEST PUSH2 0x373D JUMP JUMPDEST PUSH2 0x391C SWAP2 POP PUSH1 0x20 RETURNDATASIZE PUSH1 0x20 GT PUSH2 0x6EE JUMPI PUSH2 0x6E0 DUP2 DUP4 PUSH2 0x3DF1 JUMP JUMPDEST DUP8 PUSH2 0x2FFF JUMP JUMPDEST PUSH1 0x0 SWAP1 PUSH2 0x3940 JUMPI JUMPDEST PUSH1 0x0 DUP1 DUP1 SWAP4 DUP2 SWAP4 CALLER SWAP1 CALL ISZERO PUSH2 0x6F5 JUMPI DUP5 DUP7 PUSH2 0x3735 JUMP JUMPDEST POP PUSH2 0x8FC PUSH2 0x392A JUMP JUMPDEST PUSH1 0x40 MLOAD PUSH3 0x461BCD PUSH1 0xE5 SHL DUP2 MSTORE PUSH1 0x20 PUSH1 0x4 DUP3 ADD MSTORE PUSH1 0x9 PUSH1 0x24 DUP3 ADD MSTORE PUSH9 0x4E6F20626F756E7479 PUSH1 0xB8 SHL PUSH1 0x44 DUP3 ADD MSTORE PUSH1 0x64 SWAP1 REVERT JUMPDEST POP PUSH1 0x1 PUSH1 0x1 PUSH1 0x80 SHL SUB PUSH1 0xE DUP5 ADD SLOAD AND ISZERO ISZERO PUSH2 0x36DB JUMP JUMPDEST POP PUSH1 0xE DUP4 ADD SLOAD PUSH1 0x80 SHR ISZERO ISZERO PUSH2 0x36D4 JUMP JUMPDEST POP DUP2 PUSH1 0x80 SHR ISZERO ISZERO PUSH2 0x36CD JUMP JUMPDEST PUSH1 0x40 MLOAD PUSH3 0x461BCD PUSH1 0xE5 SHL DUP2 MSTORE PUSH1 0x20 PUSH1 0x4 DUP3 ADD MSTORE PUSH1 0xA PUSH1 0x24 DUP3 ADD MSTORE PUSH10 0x2737BA103334B73232B9 PUSH1 0xB1 SHL PUSH1 0x44 DUP3 ADD MSTORE PUSH1 0x64 SWAP1 REVERT JUMPDEST PUSH1 0x40 MLOAD PUSH3 0x461BCD PUSH1 0xE5 SHL DUP2 MSTORE PUSH1 0x20 PUSH1 0x4 DUP3 ADD MSTORE PUSH1 0x11 PUSH1 0x24 DUP3 ADD MSTORE PUSH17 0x14195D081B9BDD08199BDD5B99081E595D PUSH1 0x7A SHL PUSH1 0x44 DUP3 ADD MSTORE PUSH1 0x64 SWAP1 REVERT JUMPDEST CALLVALUE PUSH2 0x1AD JUMPI PUSH1 0x20 CALLDATASIZE PUSH1 0x3 NOT ADD SLT PUSH2 0x1AD JUMPI PUSH2 0x3A30 PUSH2 0x3EFE JUMP JUMPDEST PUSH2 0x3A48 PUSH1 0x1 DUP1 PUSH1 0xA0 SHL SUB PUSH1 0x0 SLOAD PUSH1 0x8 SHR AND CALLER EQ PUSH2 0x41C2 JUMP JUMPDEST PUSH1 0x40 MLOAD PUSH4 0x70A08231 PUSH1 0xE0 SHL DUP2 MSTORE ADDRESS PUSH1 0x4 DUP3 ADD MSTORE PUSH1 0x20 DUP2 PUSH1 0x24 DUP2 PUSH20 0x48065FBBE25F71C9282DDF5E1CD6D6A887483D5E GAS STATICCALL SWAP1 DUP2 ISZERO PUSH2 0x6F5 JUMPI PUSH1 0x0 SWAP2 PUSH2 0x3B07 JUMPI JUMPDEST POP PUSH1 0x40 MLOAD PUSH4 0xA9059CBB PUSH1 0xE0 SHL DUP2 MSTORE PUSH1 0x1 PUSH1 0x1 PUSH1 0xA0 SHL SUB SWAP1 SWAP3 AND PUSH1 0x4 DUP4 ADD MSTORE PUSH1 0x24 DUP3 ADD MSTORE PUSH1 0x20 DUP2 DUP1 PUSH1 0x44 DUP2 ADD JUMPDEST SUB DUP2 PUSH1 0x0 PUSH20 0x48065FBBE25F71C9282DDF5E1CD6D6A887483D5E GAS CALL DUP1 ISZERO PUSH2 0x6F5 JUMPI PUSH2 0x3AE6 SWAP2 PUSH1 0x0 SWAP2 PUSH2 0x3AE8 JUMPI JUMPDEST POP PUSH2 0x4212 JUMP JUMPDEST STOP JUMPDEST PUSH2 0x3B01 SWAP2 POP PUSH1 0x20 RETURNDATASIZE PUSH1 0x20 GT PUSH2 0x6EE JUMPI PUSH2 0x6E0 DUP2 DUP4 PUSH2 0x3DF1 JUMP JUMPDEST DUP3 PUSH2 0x3AE0 JUMP JUMPDEST SWAP1 POP PUSH1 0x20 DUP2 RETURNDATASIZE PUSH1 0x20 GT PUSH2 0x3B33 JUMPI JUMPDEST DUP2 PUSH2 0x3B22 PUSH1 0x20 SWAP4 DUP4 PUSH2 0x3DF1 JUMP JUMPDEST DUP2 ADD SUB SLT PUSH2 0x1AD JUMPI MLOAD PUSH2 0x3AB3 PUSH2 0x3A87 JUMP JUMPDEST RETURNDATASIZE SWAP2 POP PUSH2 0x3B15 JUMP JUMPDEST CALLVALUE PUSH2 0x1AD JUMPI PUSH1 0x0 CALLDATASIZE PUSH1 0x3 NOT ADD SLT PUSH2 0x1AD JUMPI PUSH1 0x20 PUSH1 0x1 SLOAD PUSH1 0x40 MLOAD SWAP1 DUP2 MSTORE RETURN JUMPDEST CALLVALUE PUSH2 0x1AD JUMPI PUSH1 0x0 CALLDATASIZE PUSH1 0x3 NOT ADD SLT PUSH2 0x1AD JUMPI PUSH1 0x20 PUSH1 0x40 MLOAD PUSH8 0x8AC7230489E80000 DUP2 MSTORE RETURN JUMPDEST CALLVALUE PUSH2 0x1AD JUMPI PUSH1 0x20 CALLDATASIZE PUSH1 0x3 NOT ADD SLT PUSH2 0x1AD JUMPI PUSH2 0x3B95 PUSH2 0x3EFE JUMP JUMPDEST PUSH2 0x3BAD PUSH1 0x1 DUP1 PUSH1 0xA0 SHL SUB PUSH1 0x0 SLOAD PUSH1 0x8 SHR AND CALLER EQ PUSH2 0x41C2 JUMP JUMPDEST PUSH1 0x40 MLOAD PUSH4 0x70A08231 PUSH1 0xE0 SHL DUP2 MSTORE ADDRESS PUSH1 0x4 DUP3 ADD MSTORE PUSH1 0x20 DUP2 PUSH1 0x24 DUP2 PUSH20 0x765DE816845861E75A25FCA122BB6898B8B1282A GAS STATICCALL SWAP1 DUP2 ISZERO PUSH2 0x6F5 JUMPI PUSH1 0x0 SWAP2 PUSH2 0x3C4A JUMPI JUMPDEST POP PUSH1 0x40 MLOAD PUSH4 0xA9059CBB PUSH1 0xE0 SHL DUP2 MSTORE PUSH1 0x1 PUSH1 0x1 PUSH1 0xA0 SHL SUB SWAP1 SWAP3 AND PUSH1 0x4 DUP4 ADD MSTORE PUSH1 0x24 DUP3 ADD MSTORE PUSH1 0x20 DUP2 DUP1 PUSH1 0x44 DUP2 ADD JUMPDEST SUB DUP2 PUSH1 0x0 PUSH20 0x765DE816845861E75A25FCA122BB6898B8B1282A GAS CALL DUP1 ISZERO PUSH2 0x6F5 JUMPI PUSH2 0x3AE6 SWAP2 PUSH1 0x0 SWAP2 PUSH2 0x3AE8 JUMPI POP PUSH2 0x4212 JUMP JUMPDEST SWAP1 POP PUSH1 0x20 DUP2 RETURNDATASIZE PUSH1 0x20 GT PUSH2 0x3C76 JUMPI JUMPDEST DUP2 PUSH2 0x3C65 PUSH1 0x20 SWAP4 DUP4 PUSH2 0x3DF1 JUMP JUMPDEST DUP2 ADD SUB SLT PUSH2 0x1AD JUMPI MLOAD PUSH2 0x3C18 PUSH2 0x3BEC JUMP JUMPDEST RETURNDATASIZE SWAP2 POP PUSH2 0x3C58 JUMP JUMPDEST CALLVALUE PUSH2 0x1AD JUMPI PUSH1 0x20 CALLDATASIZE PUSH1 0x3 NOT ADD SLT PUSH2 0x1AD JUMPI PUSH1 0x4 CALLDATALOAD PUSH1 0x0 MSTORE PUSH1 0x3 PUSH1 0x20 MSTORE PUSH1 0x20 PUSH1 0x40 PUSH1 0x0 KECCAK256 SLOAD PUSH1 0x40 MLOAD SWAP1 DUP2 MSTORE RETURN JUMPDEST CALLVALUE PUSH2 0x1AD JUMPI PUSH2 0x3CB8 CALLDATASIZE PUSH2 0x3D38 JUMP JUMPDEST SWAP1 PUSH1 0x0 MSTORE PUSH1 0x7 PUSH1 0x20 MSTORE PUSH1 0x40 PUSH1 0x0 KECCAK256 SWAP1 DUP2 SLOAD DUP2 LT ISZERO PUSH2 0x1AD JUMPI PUSH2 0x3CD9 SWAP2 PUSH2 0x3D4E JUMP JUMPDEST POP DUP1 SLOAD PUSH1 0x1 PUSH1 0x1 PUSH1 0xA0 SHL SUB AND PUSH1 0x2 PUSH2 0x3CF3 PUSH1 0x1 DUP5 ADD PUSH2 0x3E12 JUMP JUMPDEST SWAP3 ADD SLOAD PUSH2 0x3D12 PUSH1 0x40 MLOAD SWAP4 DUP5 SWAP4 DUP5 MSTORE PUSH1 0x60 PUSH1 0x20 DUP6 ADD MSTORE PUSH1 0x60 DUP5 ADD SWAP1 PUSH2 0x3ED9 JUMP JUMPDEST SWAP1 PUSH1 0x40 DUP4 ADD MSTORE SUB SWAP1 RETURN JUMPDEST CALLVALUE PUSH2 0x1AD JUMPI PUSH1 0x0 CALLDATASIZE PUSH1 0x3 NOT ADD SLT PUSH2 0x1AD JUMPI DUP1 PUSH3 0x76A700 PUSH1 0x20 SWAP3 MSTORE RETURN JUMPDEST PUSH1 0x40 SWAP1 PUSH1 0x3 NOT ADD SLT PUSH2 0x1AD JUMPI PUSH1 0x4 CALLDATALOAD SWAP1 PUSH1 0x24 CALLDATALOAD SWAP1 JUMP JUMPDEST DUP1 SLOAD DUP3 LT ISZERO PUSH2 0x3D6A JUMPI PUSH1 0x0 MSTORE PUSH1 0x3 PUSH1 0x20 PUSH1 0x0 KECCAK256 SWAP2 MUL ADD SWAP1 PUSH1 0x0 SWAP1 JUMP JUMPDEST PUSH4 0x4E487B71 PUSH1 0xE0 SHL PUSH1 0x0 MSTORE PUSH1 0x32 PUSH1 0x4 MSTORE PUSH1 0x24 PUSH1 0x0 REVERT JUMPDEST SWAP1 PUSH1 0x1 DUP3 DUP2 SHR SWAP3 AND DUP1 ISZERO PUSH2 0x3DB0 JUMPI JUMPDEST PUSH1 0x20 DUP4 LT EQ PUSH2 0x3D9A JUMPI JUMP JUMPDEST PUSH4 0x4E487B71 PUSH1 0xE0 SHL PUSH1 0x0 MSTORE PUSH1 0x22 PUSH1 0x4 MSTORE PUSH1 0x24 PUSH1 0x0 REVERT JUMPDEST SWAP2 PUSH1 0x7F AND SWAP2 PUSH2 0x3D8F JUMP JUMPDEST PUSH2 0x2C0 DUP2 ADD SWAP1 DUP2 LT PUSH1 0x1 PUSH1 0x1 PUSH1 0x40 SHL SUB DUP3 GT OR PUSH2 0x1863 JUMPI PUSH1 0x40 MSTORE JUMP JUMPDEST PUSH1 0x60 DUP2 ADD SWAP1 DUP2 LT PUSH1 0x1 PUSH1 0x1 PUSH1 0x40 SHL SUB DUP3 GT OR PUSH2 0x1863 JUMPI PUSH1 0x40 MSTORE JUMP JUMPDEST SWAP1 PUSH1 0x1F DUP1 NOT SWAP2 ADD AND DUP2 ADD SWAP1 DUP2 LT PUSH1 0x1 PUSH1 0x1 PUSH1 0x40 SHL SUB DUP3 GT OR PUSH2 0x1863 JUMPI PUSH1 0x40 MSTORE JUMP JUMPDEST SWAP1 PUSH1 0x40 MLOAD SWAP2 DUP3 PUSH1 0x0 DUP3 SLOAD SWAP3 PUSH2 0x3E26 DUP5 PUSH2 0x3D80 JUMP JUMPDEST DUP1 DUP5 MSTORE SWAP4 PUSH1 0x1 DUP2 AND SWAP1 DUP2 ISZERO PUSH2 0x3E94 JUMPI POP PUSH1 0x1 EQ PUSH2 0x3E4D JUMPI JUMPDEST POP PUSH2 0x3E4B SWAP3 POP SUB DUP4 PUSH2 0x3DF1 JUMP JUMPDEST JUMP JUMPDEST SWAP1 POP PUSH1 0x0 SWAP3 SWAP2 SWAP3 MSTORE PUSH1 0x20 PUSH1 0x0 KECCAK256 SWAP1 PUSH1 0x0 SWAP2 JUMPDEST DUP2 DUP4 LT PUSH2 0x3E78 JUMPI POP POP SWAP1 PUSH1 0x20 PUSH2 0x3E4B SWAP3 DUP3 ADD ADD CODESIZE PUSH2 0x3E3E JUMP JUMPDEST PUSH1 0x20 SWAP2 SWAP4 POP DUP1 PUSH1 0x1 SWAP2 SLOAD DUP4 DUP6 DUP10 ADD ADD MSTORE ADD SWAP2 ADD SWAP1 SWAP2 DUP5 SWAP3 PUSH2 0x3E5F JUMP JUMPDEST SWAP1 POP PUSH1 0x20 SWAP3 POP PUSH2 0x3E4B SWAP5 SWAP2 POP PUSH1 0xFF NOT AND DUP3 DUP5 ADD MSTORE ISZERO ISZERO PUSH1 0x5 SHL DUP3 ADD ADD CODESIZE PUSH2 0x3E3E JUMP JUMPDEST PUSH1 0x0 JUMPDEST DUP4 DUP2 LT PUSH2 0x3EC9 JUMPI POP POP PUSH1 0x0 SWAP2 ADD MSTORE JUMP JUMPDEST DUP2 DUP2 ADD MLOAD DUP4 DUP3 ADD MSTORE PUSH1 0x20 ADD PUSH2 0x3EB9 JUMP JUMPDEST SWAP1 PUSH1 0x20 SWAP2 PUSH2 0x3EF2 DUP2 MLOAD DUP1 SWAP3 DUP2 DUP6 MSTORE DUP6 DUP1 DUP7 ADD SWAP2 ADD PUSH2 0x3EB6 JUMP JUMPDEST PUSH1 0x1F ADD PUSH1 0x1F NOT AND ADD ADD SWAP1 JUMP JUMPDEST PUSH1 0x4 CALLDATALOAD SWAP1 PUSH1 0x1 PUSH1 0x1 PUSH1 0xA0 SHL SUB DUP3 AND DUP3 SUB PUSH2 0x1AD JUMPI JUMP JUMPDEST SWAP1 PUSH1 0x20 DUP1 DUP4 MLOAD SWAP3 DUP4 DUP2 MSTORE ADD SWAP3 ADD SWAP1 PUSH1 0x0 JUMPDEST DUP2 DUP2 LT PUSH2 0x3F32 JUMPI POP POP POP SWAP1 JUMP JUMPDEST DUP3 MLOAD DUP5 MSTORE PUSH1 0x20 SWAP4 DUP5 ADD SWAP4 SWAP1 SWAP3 ADD SWAP2 PUSH1 0x1 ADD PUSH2 0x3F25 JUMP JUMPDEST SWAP1 PUSH1 0x3 DUP3 LT ISZERO PUSH2 0x8B7 JUMPI MSTORE JUMP JUMPDEST SWAP1 DUP1 PUSH1 0x20 DUP4 MLOAD SWAP2 DUP3 DUP2 MSTORE ADD SWAP2 PUSH1 0x20 DUP1 DUP4 PUSH1 0x5 SHL DUP4 ADD ADD SWAP5 ADD SWAP3 PUSH1 0x0 SWAP2 JUMPDEST DUP4 DUP4 LT PUSH2 0x3F81 JUMPI POP POP POP POP POP SWAP1 JUMP JUMPDEST SWAP1 SWAP2 SWAP3 SWAP4 SWAP5 PUSH1 0x1F NOT DUP3 DUP3 SUB ADD DUP4 MSTORE DUP6 MLOAD SWAP1 DUP2 MLOAD DUP2 MSTORE PUSH1 0x1 PUSH1 0xA0 SHL PUSH1 0x1 SWAP1 SUB PUSH1 0x20 DUP4 ADD MLOAD AND PUSH1 0x20 DUP3 ADD MSTORE PUSH1 0x40 DUP3 ADD MLOAD PUSH1 0x40 DUP3 ADD PUSH2 0x2C0 SWAP1 MSTORE PUSH2 0x2C0 DUP3 ADD PUSH2 0x3FC6 SWAP2 PUSH2 0x3ED9 JUMP JUMPDEST PUSH1 0x60 DUP4 ADD MLOAD SWAP1 DUP3 DUP2 SUB PUSH1 0x60 DUP5 ADD MSTORE PUSH2 0x3FDD SWAP2 PUSH2 0x3ED9 JUMP JUMPDEST PUSH1 0x80 DUP4 ADD MLOAD SWAP1 DUP3 DUP2 SUB PUSH1 0x80 DUP5 ADD MSTORE PUSH2 0x3FF4 SWAP2 PUSH2 0x3ED9 JUMP JUMPDEST PUSH1 0xA0 DUP4 ADD MLOAD PUSH1 0x1 PUSH1 0x1 PUSH1 0x80 SHL SUB AND PUSH1 0xA0 DUP4 ADD MSTORE PUSH1 0xC0 DUP4 ADD MLOAD PUSH1 0x1 PUSH1 0x1 PUSH1 0x80 SHL SUB AND PUSH1 0xC0 DUP4 ADD MSTORE PUSH1 0xE0 DUP4 ADD MLOAD SWAP1 DUP3 DUP2 SUB PUSH1 0xE0 DUP5 ADD MSTORE PUSH2 0x4031 SWAP2 PUSH2 0x3ED9 JUMP JUMPDEST PUSH2 0x100 DUP4 ADD MLOAD SWAP1 DUP3 DUP2 SUB PUSH2 0x100 DUP5 ADD MSTORE PUSH2 0x404A SWAP2 PUSH2 0x3ED9 JUMP JUMPDEST PUSH2 0x120 DUP4 ADD MLOAD SWAP1 DUP3 DUP2 SUB PUSH2 0x120 DUP5 ADD MSTORE PUSH2 0x4063 SWAP2 PUSH2 0x3ED9 JUMP JUMPDEST PUSH2 0x140 DUP4 ADD MLOAD SWAP1 DUP3 DUP2 SUB PUSH2 0x140 DUP5 ADD MSTORE PUSH2 0x407C SWAP2 PUSH2 0x3ED9 JUMP JUMPDEST PUSH2 0x160 DUP4 ADD MLOAD SWAP1 DUP3 DUP2 SUB PUSH2 0x160 DUP5 ADD MSTORE PUSH2 0x4095 SWAP2 PUSH2 0x3ED9 JUMP JUMPDEST PUSH2 0x180 DUP4 ADD MLOAD SWAP1 DUP3 DUP2 SUB PUSH2 0x180 DUP5 ADD MSTORE PUSH2 0x40AE SWAP2 PUSH2 0x3ED9 JUMP JUMPDEST PUSH2 0x1A0 DUP4 ADD MLOAD SWAP1 DUP3 DUP2 SUB PUSH2 0x1A0 DUP5 ADD MSTORE PUSH2 0x40C7 SWAP2 PUSH2 0x3ED9 JUMP JUMPDEST SWAP2 PUSH2 0x1C0 DUP2 ADD MLOAD PUSH1 0x1 PUSH1 0x1 PUSH1 0x80 SHL SUB AND PUSH2 0x1C0 DUP4 ADD MSTORE PUSH2 0x1E0 DUP2 ADD MLOAD PUSH1 0x1 PUSH1 0x1 PUSH1 0x80 SHL SUB AND PUSH2 0x1E0 DUP4 ADD MSTORE PUSH2 0x200 DUP2 ADD MLOAD PUSH1 0x1 PUSH1 0x1 PUSH1 0x80 SHL SUB AND PUSH2 0x200 DUP4 ADD MSTORE PUSH2 0x220 DUP2 ADD MLOAD PUSH1 0x1 PUSH1 0x1 PUSH1 0x80 SHL SUB AND PUSH2 0x220 DUP4 ADD MSTORE PUSH2 0x240 DUP2 ADD MLOAD PUSH2 0x240 DUP4 ADD PUSH2 0x4130 SWAP2 PUSH2 0x3F48 JUMP JUMPDEST PUSH2 0x260 DUP2 DUP2 ADD MLOAD ISZERO ISZERO SWAP1 DUP4 ADD MSTORE PUSH2 0x280 DUP1 DUP3 ADD MLOAD ISZERO ISZERO SWAP1 DUP4 ADD MSTORE PUSH2 0x2A0 SWAP1 DUP2 ADD MLOAD PUSH1 0x1 PUSH1 0x1 PUSH1 0xA0 SHL SUB AND SWAP2 ADD MSTORE SWAP5 PUSH1 0x20 SWAP1 DUP2 ADD SWAP5 SWAP4 PUSH1 0x1 ADD SWAP3 ADD SWAP1 PUSH2 0x3F72 JUMP JUMPDEST SWAP2 DUP2 PUSH1 0x1F DUP5 ADD SLT ISZERO PUSH2 0x1AD JUMPI DUP3 CALLDATALOAD SWAP2 PUSH1 0x1 PUSH1 0x1 PUSH1 0x40 SHL SUB DUP4 GT PUSH2 0x1AD JUMPI PUSH1 0x20 DUP4 DUP2 DUP7 ADD SWAP6 ADD ADD GT PUSH2 0x1AD JUMPI JUMP JUMPDEST CALLVALUE PUSH2 0x1AD JUMPI PUSH1 0x0 CALLDATASIZE PUSH1 0x3 NOT ADD SLT PUSH2 0x1AD JUMPI PUSH1 0x20 PUSH1 0x40 MLOAD PUSH10 0x21E19E0C9BAB2400000 DUP2 MSTORE RETURN JUMPDEST ISZERO PUSH2 0x41C9 JUMPI JUMP JUMPDEST PUSH1 0x40 MLOAD PUSH3 0x461BCD PUSH1 0xE5 SHL DUP2 MSTORE PUSH1 0x20 PUSH1 0x4 DUP3 ADD MSTORE PUSH1 0x9 PUSH1 0x24 DUP3 ADD MSTORE PUSH9 0x2737BA1030B236B4B7 PUSH1 0xB9 SHL PUSH1 0x44 DUP3 ADD MSTORE PUSH1 0x64 SWAP1 REVERT JUMPDEST SWAP1 DUP2 PUSH1 0x20 SWAP2 SUB SLT PUSH2 0x1AD JUMPI MLOAD DUP1 ISZERO ISZERO DUP2 SUB PUSH2 0x1AD JUMPI SWAP1 JUMP JUMPDEST ISZERO PUSH2 0x4219 JUMPI JUMP JUMPDEST PUSH1 0x40 MLOAD PUSH3 0x461BCD PUSH1 0xE5 SHL DUP2 MSTORE PUSH1 0x20 PUSH1 0x4 DUP3 ADD MSTORE PUSH1 0xF PUSH1 0x24 DUP3 ADD MSTORE PUSH15 0x151C985B9CD9995C8819985A5B1959 PUSH1 0x8A SHL PUSH1 0x44 DUP3 ADD MSTORE PUSH1 0x64 SWAP1 REVERT JUMPDEST ISZERO PUSH2 0x4257 JUMPI JUMP JUMPDEST PUSH1 0x40 MLOAD PUSH3 0x461BCD PUSH1 0xE5 SHL DUP2 MSTORE PUSH1 0x20 PUSH1 0x4 DUP3 ADD MSTORE PUSH1 0x12 PUSH1 0x24 DUP3 ADD MSTORE PUSH18 0x14195D08191BD95CC81B9BDD08195E1A5CDD PUSH1 0x72 SHL PUSH1 0x44 DUP3 ADD MSTORE PUSH1 0x64 SWAP1 REVERT JUMPDEST ISZERO PUSH2 0x4298 JUMPI JUMP JUMPDEST PUSH1 0x40 MLOAD PUSH3 0x461BCD PUSH1 0xE5 SHL DUP2 MSTORE PUSH1 0x20 PUSH1 0x4 DUP3 ADD MSTORE PUSH1 0x1F PUSH1 0x24 DUP3 ADD MSTORE PUSH32 0x5265656E7472616E637947756172643A207265656E7472616E742063616C6C00 PUSH1 0x44 DUP3 ADD MSTORE PUSH1 0x64 SWAP1 REVERT JUMPDEST ISZERO PUSH2 0x42E4 JUMPI JUMP JUMPDEST PUSH1 0x40 MLOAD PUSH3 0x461BCD PUSH1 0xE5 SHL DUP2 MSTORE PUSH1 0x20 PUSH1 0x4 DUP3 ADD MSTORE PUSH1 0x14 PUSH1 0x24 DUP3 ADD MSTORE PUSH20 0x18D554D1081D1C985B9CD9995C8819985A5B1959 PUSH1 0x62 SHL PUSH1 0x44 DUP3 ADD MSTORE PUSH1 0x64 SWAP1 REVERT JUMPDEST ISZERO PUSH2 0x4327 JUMPI JUMP JUMPDEST PUSH1 0x40 MLOAD PUSH3 0x461BCD PUSH1 0xE5 SHL DUP2 MSTORE PUSH1 0x20 PUSH1 0x4 DUP3 ADD MSTORE PUSH1 0x12 PUSH1 0x24 DUP3 ADD MSTORE PUSH18 0x11C9081D1C985B9CD9995C8819985A5B1959 PUSH1 0x72 SHL PUSH1 0x44 DUP3 ADD MSTORE PUSH1 0x64 SWAP1 REVERT JUMPDEST ISZERO PUSH2 0x4368 JUMPI JUMP JUMPDEST PUSH1 0x40 MLOAD PUSH3 0x461BCD PUSH1 0xE5 SHL DUP2 MSTORE PUSH1 0x20 PUSH1 0x4 DUP3 ADD MSTORE PUSH1 0x14 PUSH1 0x24 DUP3 ADD MSTORE PUSH20 0x1554D115081D1C985B9CD9995C8819985A5B1959 PUSH1 0x62 SHL PUSH1 0x44 DUP3 ADD MSTORE PUSH1 0x64 SWAP1 REVERT JUMPDEST PUSH1 0x0 NOT DUP2 EQ PUSH2 0x111B JUMPI PUSH1 0x1 ADD SWAP1 JUMP JUMPDEST PUSH1 0x1 PUSH1 0x1 PUSH1 0x40 SHL SUB DUP2 GT PUSH2 0x1863 JUMPI PUSH1 0x5 SHL PUSH1 0x20 ADD SWAP1 JUMP JUMPDEST SWAP1 PUSH2 0x43D4 DUP3 PUSH2 0x43B3 JUMP JUMPDEST PUSH2 0x43E1 PUSH1 0x40 MLOAD SWAP2 DUP3 PUSH2 0x3DF1 JUMP JUMPDEST DUP3 DUP2 MSTORE DUP1 SWAP3 PUSH2 0x43F2 PUSH1 0x1F NOT SWAP2 PUSH2 0x43B3 JUMP JUMPDEST ADD SWAP1 PUSH1 0x20 CALLDATASIZE SWAP2 ADD CALLDATACOPY JUMP JUMPDEST SWAP1 PUSH2 0x4406 DUP3 PUSH2 0x43B3 JUMP JUMPDEST PUSH2 0x4413 PUSH1 0x40 MLOAD SWAP2 DUP3 PUSH2 0x3DF1 JUMP JUMPDEST DUP3 DUP2 MSTORE DUP1 SWAP3 PUSH2 0x4424 PUSH1 0x1F NOT SWAP2 PUSH2 0x43B3 JUMP JUMPDEST ADD SWAP1 PUSH1 0x0 JUMPDEST DUP3 DUP2 LT PUSH2 0x4435 JUMPI POP POP POP JUMP JUMPDEST PUSH1 0x20 SWAP1 PUSH1 0x40 MLOAD PUSH2 0x4444 DUP2 PUSH2 0x3DBA JUMP JUMPDEST PUSH1 0x0 DUP2 MSTORE PUSH1 0x0 DUP4 DUP3 ADD MSTORE PUSH1 0x60 PUSH1 0x40 DUP3 ADD MSTORE PUSH1 0x60 DUP1 DUP3 ADD MSTORE PUSH1 0x60 PUSH1 0x80 DUP3 ADD MSTORE PUSH1 0x0 PUSH1 0xA0 DUP3 ADD MSTORE PUSH1 0x0 PUSH1 0xC0 DUP3 ADD MSTORE PUSH1 0x60 PUSH1 0xE0 DUP3 ADD MSTORE PUSH1 0x60 PUSH2 0x100 DUP3 ADD MSTORE PUSH1 0x60 PUSH2 0x120 DUP3 ADD MSTORE PUSH1 0x60 PUSH2 0x140 DUP3 ADD MSTORE PUSH1 0x60 PUSH2 0x160 DUP3 ADD MSTORE PUSH1 0x60 PUSH2 0x180 DUP3 ADD MSTORE PUSH1 0x60 PUSH2 0x1A0 DUP3 ADD MSTORE PUSH1 0x0 PUSH2 0x1C0 DUP3 ADD MSTORE PUSH1 0x0 PUSH2 0x1E0 DUP3 ADD MSTORE PUSH1 0x0 PUSH2 0x200 DUP3 ADD MSTORE PUSH1 0x0 PUSH2 0x220 DUP3 ADD MSTORE PUSH1 0x0 PUSH2 0x240 DUP3 ADD MSTORE PUSH1 0x0 PUSH2 0x260 DUP3 ADD MSTORE PUSH1 0x0 PUSH2 0x280 DUP3 ADD MSTORE PUSH1 0x0 PUSH2 0x2A0 DUP3 ADD MSTORE DUP3 DUP3 DUP6 ADD ADD MSTORE ADD PUSH2 0x4429 JUMP JUMPDEST DUP1 MLOAD DUP3 LT ISZERO PUSH2 0x3D6A JUMPI PUSH1 0x20 SWAP2 PUSH1 0x5 SHL ADD ADD SWAP1 JUMP JUMPDEST PUSH1 0x3 DUP3 LT ISZERO PUSH2 0x8B7 JUMPI MSTORE JUMP JUMPDEST SWAP3 SWAP2 SWAP3 PUSH1 0x1 PUSH1 0x1 PUSH1 0x40 SHL SUB DUP3 GT PUSH2 0x1863 JUMPI PUSH1 0x40 MLOAD SWAP2 PUSH2 0x453C PUSH1 0x1F DUP3 ADD PUSH1 0x1F NOT AND PUSH1 0x20 ADD DUP5 PUSH2 0x3DF1 JUMP JUMPDEST DUP3 SWAP5 DUP2 DUP5 MSTORE DUP2 DUP4 ADD GT PUSH2 0x1AD JUMPI DUP3 DUP2 PUSH1 0x20 SWAP4 DUP5 PUSH1 0x0 SWAP7 ADD CALLDATACOPY ADD ADD MSTORE JUMP JUMPDEST PUSH1 0x1 PUSH1 0x1 PUSH1 0xA0 SHL SUB SWAP2 DUP3 AND DUP2 MSTORE SWAP2 AND PUSH1 0x20 DUP3 ADD MSTORE PUSH1 0x1 PUSH1 0x1 PUSH1 0x80 SHL SUB SWAP1 SWAP2 AND PUSH1 0x40 DUP3 ADD MSTORE PUSH1 0x60 ADD SWAP1 JUMP JUMPDEST ISZERO PUSH2 0x458A JUMPI JUMP JUMPDEST PUSH1 0x40 MLOAD PUSH3 0x461BCD PUSH1 0xE5 SHL DUP2 MSTORE PUSH1 0x20 PUSH1 0x4 DUP3 ADD MSTORE PUSH1 0xE PUSH1 0x24 DUP3 ADD MSTORE PUSH14 0x506574206E6F7420616374697665 PUSH1 0x90 SHL PUSH1 0x44 DUP3 ADD MSTORE PUSH1 0x64 SWAP1 REVERT JUMPDEST ISZERO PUSH2 0x45C7 JUMPI JUMP JUMPDEST PUSH1 0x40 MLOAD PUSH3 0x461BCD PUSH1 0xE5 SHL DUP2 MSTORE PUSH1 0x20 PUSH1 0x4 DUP3 ADD MSTORE PUSH1 0xD PUSH1 0x24 DUP3 ADD MSTORE PUSH13 0x2737BA103832BA1037BBB732B9 PUSH1 0x99 SHL PUSH1 0x44 DUP3 ADD MSTORE PUSH1 0x64 SWAP1 REVERT JUMPDEST ISZERO PUSH2 0x4604 JUMPI POP JUMP JUMPDEST PUSH1 0x40 MLOAD PUSH3 0x461BCD PUSH1 0xE5 SHL DUP2 MSTORE PUSH1 0x20 PUSH1 0x4 DUP3 ADD MSTORE SWAP1 DUP2 SWAP1 PUSH2 0x4628 SWAP1 PUSH1 0x24 DUP4 ADD SWAP1 PUSH2 0x3ED9 JUMP JUMPDEST SUB SWAP1 REVERT JUMPDEST PUSH2 0x4637 SWAP2 CALLDATASIZE SWAP2 PUSH2 0x4513 JUMP JUMPDEST DUP1 MLOAD SWAP1 PUSH1 0x2 DUP3 LT ISZERO SWAP2 DUP3 PUSH2 0x46FE JUMPI JUMPDEST POP PUSH1 0x40 MLOAD SWAP2 DUP4 MLOAD SWAP3 DUP1 PUSH1 0x20 DUP7 ADD SWAP5 DUP1 PUSH1 0x20 DUP4 ADD SWAP1 PUSH2 0x4664 SWAP2 DUP9 PUSH2 0x3EB6 JUMP JUMPDEST DUP2 ADD PUSH1 0x20 DUP2 ADD PUSH15 0x81B195B99DD1A081A5B9D985B1A59 PUSH1 0x8A SHL SWAP1 MSTORE SUB PUSH1 0x20 ADD PUSH1 0x10 NOT DUP2 ADD DUP3 MSTORE PUSH1 0xF ADD PUSH2 0x4697 SWAP1 DUP3 PUSH2 0x3DF1 JUMP JUMPDEST PUSH2 0x46A0 SWAP2 PUSH2 0x45FC JUMP JUMPDEST PUSH2 0x46A9 SWAP1 PUSH2 0x47C1 JUMP JUMPDEST ISZERO SWAP2 PUSH1 0x40 MLOAD SWAP2 DUP3 SWAP2 MLOAD SWAP1 DUP2 PUSH1 0x20 DUP5 ADD PUSH2 0x46C1 SWAP3 PUSH2 0x3EB6 JUMP JUMPDEST DUP2 ADD PUSH1 0x20 DUP2 ADD PUSH16 0x2063616E6E6F7420626520626C616E6B PUSH1 0x80 SHL SWAP1 MSTORE SUB PUSH1 0x20 ADD PUSH1 0xF NOT DUP2 ADD DUP3 MSTORE PUSH1 0x10 ADD PUSH2 0x46F5 SWAP1 DUP3 PUSH2 0x3DF1 JUMP JUMPDEST PUSH2 0x3E4B SWAP2 PUSH2 0x45FC JUMP JUMPDEST PUSH1 0x32 LT ISZERO SWAP2 POP CODESIZE PUSH2 0x4646 JUMP JUMPDEST SWAP1 DUP2 MLOAD DUP2 LT ISZERO PUSH2 0x3D6A JUMPI ADD PUSH1 0x20 ADD SWAP1 JUMP JUMPDEST PUSH1 0x5 DUP2 MLOAD LT PUSH2 0x47BB JUMPI PUSH1 0x0 DUP1 SWAP2 DUP2 JUMPDEST DUP2 MLOAD DUP4 LT ISZERO PUSH2 0x47A9 JUMPI PUSH1 0x1 PUSH1 0xFE SHL PUSH1 0x1 PUSH1 0x1 PUSH1 0xF8 SHL SUB NOT PUSH2 0x474B DUP6 DUP6 PUSH2 0x470A JUMP JUMPDEST MLOAD AND SUB PUSH2 0x476A JUMPI PUSH2 0x4762 JUMPI PUSH1 0x1 DUP1 SWAP3 JUMPDEST ADD SWAP2 PUSH2 0x472A JUMP JUMPDEST POP POP POP PUSH1 0x0 SWAP1 JUMP JUMPDEST SWAP2 DUP3 DUP1 PUSH2 0x4788 JUMPI JUMPDEST PUSH2 0x477F JUMPI JUMPDEST PUSH1 0x1 SWAP1 PUSH2 0x475B JUMP JUMPDEST PUSH1 0x1 SWAP4 POP PUSH2 0x4777 JUMP JUMPDEST POP PUSH1 0x17 PUSH1 0xF9 SHL PUSH1 0x1 PUSH1 0x1 PUSH1 0xF8 SHL SUB NOT PUSH2 0x47A1 DUP4 DUP6 PUSH2 0x470A JUMP JUMPDEST MLOAD AND EQ PUSH2 0x4772 JUMP JUMPDEST SWAP3 SWAP2 POP POP DUP2 PUSH2 0x47B6 JUMPI POP SWAP1 JUMP JUMPDEST SWAP1 POP SWAP1 JUMP JUMPDEST POP PUSH1 0x0 SWAP1 JUMP JUMPDEST PUSH1 0x0 JUMPDEST DUP2 MLOAD DUP2 LT ISZERO PUSH2 0x47FB JUMPI PUSH1 0x1 PUSH1 0xFD SHL PUSH1 0x1 PUSH1 0x1 PUSH1 0xF8 SHL SUB NOT PUSH2 0x47E5 DUP4 DUP6 PUSH2 0x470A JUMP JUMPDEST MLOAD AND SUB PUSH2 0x47F4 JUMPI PUSH1 0x1 ADD PUSH2 0x47C4 JUMP JUMPDEST POP POP PUSH1 0x0 SWAP1 JUMP JUMPDEST POP POP PUSH1 0x1 SWAP1 JUMP INVALID LOG2 PUSH5 0x6970667358 0x22 SLT KECCAK256 COINBASE SWAP15 MUL PUSH20 0x1CE586A5CBCC4362B51DB602FE2BB396189AFD9D MSTORE CALLVALUE STOP BLOBBASEFEE 0x24 0xDC DUP10 PUSH7 0x64736F6C634300 ADDMOD SHR STOP CALLER "
        },
        "methodIdentifiers": {
          "BOUNTY_TIMEOUT()": "0b5d39fa",
          "CUSD_ADDRESS()": "465c66e9",
          "GDOLLAR_ADDRESS()": "ee7afb1c",
          "MAX_CELO_BOUNTY()": "3fa8be32",
          "MAX_CUSD_BOUNTY()": "9dc5ac72",
          "MAX_USDT_BOUNTY()": "b83056e5",
          "USDT_ADDRESS()": "c1892058",
          "admin()": "f851a440",
          "cancelAndRefund(uint256)": "d32bfb6c",
          "chooseFinder(uint256,address)": "b213aa37",
          "claimBounty(uint256)": "44021ad7",
          "confirmFoundByOwner(uint256)": "5e23985b",
          "emergencyWithdrawCUSD(address)": "3f26decd",
          "emergencyWithdrawUSDT(address)": "42c48ded",
          "escrowedCUSD(uint256)": "1850e3a7",
          "escrowedGDOLLAR(uint256)": "d25a6f05",
          "escrowedUSDT(uint256)": "4a341581",
          "finderReports(uint256,uint256)": "0da92f68",
          "getAllLostPets()": "543df5a3",
          "getAllPets()": "5b236d97",
          "getFinderReportCount(uint256)": "f677b0b7",
          "getFinderReports(uint256)": "b4e849bf",
          "getLostPetIds(uint256,uint256)": "a06e0061",
          "getLostPetsCount()": "8b504c17",
          "getPetDetails(uint256)": "d89fd4b4",
          "markAsFound(uint256)": "b3035b64",
          "nextPetId()": "403f8cc7",
          "pets(uint256)": "cfb869bf",
          "postLostPet(string,string,string,uint128,uint128,string,string,string,string,string,string,string,uint128,uint128,uint128)": "54bb73e1",
          "postTime(uint256)": "d74a48a4",
          "submitFinderReport(uint256,string)": "5521aac5",
          "transferAdmin(address)": "75829def"
        }
      }
    }
  }
}