{
  "contracts/PetTrace.sol": {
    "PetTrace": {
      "abi": [
        {
          "inputs": [],
          "stateMutability": "nonpayable",
          "type": "constructor"
        },
        {
          "anonymous": false,
          "inputs": [
            {
              "indexed": true,
              "internalType": "address",
              "name": "newAdmin",
              "type": "address"
            }
          ],
          "name": "AdminChanged",
          "type": "event"
        },
        {
          "anonymous": false,
          "inputs": [
            {
              "indexed": true,
              "internalType": "uint256",
              "name": "petId",
              "type": "uint256"
            },
            {
              "indexed": true,
              "internalType": "address",
              "name": "finder",
              "type": "address"
            },
            {
              "indexed": false,
              "internalType": "uint256",
              "name": "celoAmount",
              "type": "uint256"
            },
            {
              "indexed": false,
              "internalType": "uint256",
              "name": "cUSDAmount",
              "type": "uint256"
            }
          ],
          "name": "BountyClaimed",
          "type": "event"
        },
        {
          "anonymous": false,
          "inputs": [
            {
              "indexed": true,
              "internalType": "uint256",
              "name": "petId",
              "type": "uint256"
            },
            {
              "indexed": true,
              "internalType": "address",
              "name": "owner",
              "type": "address"
            },
            {
              "indexed": false,
              "internalType": "uint256",
              "name": "celoAmount",
              "type": "uint256"
            },
            {
              "indexed": false,
              "internalType": "uint256",
              "name": "cUSDAmount",
              "type": "uint256"
            }
          ],
          "name": "BountyRefunded",
          "type": "event"
        },
        {
          "anonymous": false,
          "inputs": [
            {
              "indexed": true,
              "internalType": "uint256",
              "name": "petId",
              "type": "uint256"
            },
            {
              "indexed": true,
              "internalType": "address",
              "name": "confirmer",
              "type": "address"
            },
            {
              "indexed": false,
              "internalType": "bool",
              "name": "isOwner",
              "type": "bool"
            }
          ],
          "name": "ConfirmationAdded",
          "type": "event"
        },
        {
          "anonymous": false,
          "inputs": [
            {
              "indexed": true,
              "internalType": "uint256",
              "name": "petId",
              "type": "uint256"
            },
            {
              "indexed": true,
              "internalType": "address",
              "name": "finder",
              "type": "address"
            }
          ],
          "name": "PetFound",
          "type": "event"
        },
        {
          "anonymous": false,
          "inputs": [
            {
              "indexed": true,
              "internalType": "uint256",
              "name": "petId",
              "type": "uint256"
            },
            {
              "indexed": true,
              "internalType": "address",
              "name": "owner",
              "type": "address"
            }
          ],
          "name": "PetPosted",
          "type": "event"
        },
        {
          "inputs": [],
          "name": "BOUNTY_TIMEOUT",
          "outputs": [
            {
              "internalType": "uint256",
              "name": "",
              "type": "uint256"
            }
          ],
          "stateMutability": "view",
          "type": "function"
        },
        {
          "inputs": [],
          "name": "CUSD_ADDRESS",
          "outputs": [
            {
              "internalType": "address",
              "name": "",
              "type": "address"
            }
          ],
          "stateMutability": "view",
          "type": "function"
        },
        {
          "inputs": [],
          "name": "MAX_CELO_BOUNTY",
          "outputs": [
            {
              "internalType": "uint256",
              "name": "",
              "type": "uint256"
            }
          ],
          "stateMutability": "view",
          "type": "function"
        },
        {
          "inputs": [],
          "name": "MAX_CUSD_BOUNTY",
          "outputs": [
            {
              "internalType": "uint256",
              "name": "",
              "type": "uint256"
            }
          ],
          "stateMutability": "view",
          "type": "function"
        },
        {
          "inputs": [],
          "name": "admin",
          "outputs": [
            {
              "internalType": "address",
              "name": "",
              "type": "address"
            }
          ],
          "stateMutability": "view",
          "type": "function"
        },
        {
          "inputs": [
            {
              "internalType": "uint256",
              "name": "petId",
              "type": "uint256"
            }
          ],
          "name": "cancelAndRefund",
          "outputs": [],
          "stateMutability": "nonpayable",
          "type": "function"
        },
        {
          "inputs": [
            {
              "internalType": "uint256",
              "name": "petId",
              "type": "uint256"
            }
          ],
          "name": "claimBounty",
          "outputs": [],
          "stateMutability": "nonpayable",
          "type": "function"
        },
        {
          "inputs": [
            {
              "internalType": "uint256",
              "name": "petId",
              "type": "uint256"
            }
          ],
          "name": "confirmFoundByOwner",
          "outputs": [],
          "stateMutability": "nonpayable",
          "type": "function"
        },
        {
          "inputs": [
            {
              "internalType": "address",
              "name": "to",
              "type": "address"
            }
          ],
          "name": "emergencyWithdrawCUSD",
          "outputs": [],
          "stateMutability": "nonpayable",
          "type": "function"
        },
        {
          "inputs": [
            {
              "internalType": "uint256",
              "name": "",
              "type": "uint256"
            }
          ],
          "name": "escrowedCUSD",
          "outputs": [
            {
              "internalType": "uint256",
              "name": "",
              "type": "uint256"
            }
          ],
          "stateMutability": "view",
          "type": "function"
        },
        {
          "inputs": [],
          "name": "getAllLostPets",
          "outputs": [
            {
              "internalType": "uint256[]",
              "name": "",
              "type": "uint256[]"
            },
            {
              "components": [
                {
                  "internalType": "uint256",
                  "name": "id",
                  "type": "uint256"
                },
                {
                  "internalType": "address payable",
                  "name": "owner",
                  "type": "address"
                },
                {
                  "internalType": "string",
                  "name": "name",
                  "type": "string"
                },
                {
                  "internalType": "string",
                  "name": "breed",
                  "type": "string"
                },
                {
                  "internalType": "string",
                  "name": "gender",
                  "type": "string"
                },
                {
                  "internalType": "uint128",
                  "name": "sizeCm",
                  "type": "uint128"
                },
                {
                  "internalType": "uint128",
                  "name": "ageMonths",
                  "type": "uint128"
                },
                {
                  "internalType": "string",
                  "name": "dateTimeLost",
                  "type": "string"
                },
                {
                  "internalType": "string",
                  "name": "description",
                  "type": "string"
                },
                {
                  "internalType": "string",
                  "name": "imageUrl",
                  "type": "string"
                },
                {
                  "internalType": "string",
                  "name": "lastSeenLocation",
                  "type": "string"
                },
                {
                  "internalType": "string",
                  "name": "contactName",
                  "type": "string"
                },
                {
                  "internalType": "string",
                  "name": "contactPhone",
                  "type": "string"
                },
                {
                  "internalType": "string",
                  "name": "contactEmail",
                  "type": "string"
                },
                {
                  "internalType": "uint128",
                  "name": "celoBounty",
                  "type": "uint128"
                },
                {
                  "internalType": "uint128",
                  "name": "cUSDBounty",
                  "type": "uint128"
                },
                {
                  "internalType": "bool",
                  "name": "isFound",
                  "type": "bool"
                },
                {
                  "internalType": "bool",
                  "name": "ownerConfirmed",
                  "type": "bool"
                },
                {
                  "internalType": "bool",
                  "name": "finderConfirmed",
                  "type": "bool"
                },
                {
                  "internalType": "address",
                  "name": "finder",
                  "type": "address"
                }
              ],
              "internalType": "struct PetTrace.Pet[]",
              "name": "",
              "type": "tuple[]"
            }
          ],
          "stateMutability": "view",
          "type": "function"
        },
        {
          "inputs": [
            {
              "internalType": "uint256",
              "name": "startIndex",
              "type": "uint256"
            },
            {
              "internalType": "uint256",
              "name": "maxCount",
              "type": "uint256"
            }
          ],
          "name": "getLostPetIds",
          "outputs": [
            {
              "internalType": "uint256[]",
              "name": "ids",
              "type": "uint256[]"
            },
            {
              "internalType": "bool",
              "name": "hasMore",
              "type": "bool"
            }
          ],
          "stateMutability": "view",
          "type": "function"
        },
        {
          "inputs": [],
          "name": "getLostPetsCount",
          "outputs": [
            {
              "internalType": "uint256",
              "name": "",
              "type": "uint256"
            }
          ],
          "stateMutability": "view",
          "type": "function"
        },
        {
          "inputs": [
            {
              "internalType": "uint256",
              "name": "petId",
              "type": "uint256"
            }
          ],
          "name": "getPetDetails",
          "outputs": [
            {
              "internalType": "uint256",
              "name": "",
              "type": "uint256"
            },
            {
              "internalType": "address",
              "name": "",
              "type": "address"
            },
            {
              "internalType": "string",
              "name": "",
              "type": "string"
            },
            {
              "internalType": "string",
              "name": "",
              "type": "string"
            },
            {
              "internalType": "string",
              "name": "",
              "type": "string"
            },
            {
              "internalType": "uint128",
              "name": "",
              "type": "uint128"
            },
            {
              "internalType": "uint128",
              "name": "",
              "type": "uint128"
            },
            {
              "internalType": "string",
              "name": "",
              "type": "string"
            },
            {
              "internalType": "string",
              "name": "",
              "type": "string"
            },
            {
              "internalType": "string",
              "name": "",
              "type": "string"
            },
            {
              "internalType": "string",
              "name": "",
              "type": "string"
            },
            {
              "internalType": "string",
              "name": "",
              "type": "string"
            },
            {
              "internalType": "string",
              "name": "",
              "type": "string"
            },
            {
              "internalType": "string",
              "name": "",
              "type": "string"
            },
            {
              "internalType": "uint128",
              "name": "",
              "type": "uint128"
            },
            {
              "internalType": "uint128",
              "name": "",
              "type": "uint128"
            },
            {
              "internalType": "bool",
              "name": "",
              "type": "bool"
            },
            {
              "internalType": "bool",
              "name": "",
              "type": "bool"
            },
            {
              "internalType": "bool",
              "name": "",
              "type": "bool"
            },
            {
              "internalType": "address",
              "name": "",
              "type": "address"
            }
          ],
          "stateMutability": "view",
          "type": "function"
        },
        {
          "inputs": [
            {
              "internalType": "uint256",
              "name": "petId",
              "type": "uint256"
            }
          ],
          "name": "markAsFound",
          "outputs": [],
          "stateMutability": "nonpayable",
          "type": "function"
        },
        {
          "inputs": [],
          "name": "nextPetId",
          "outputs": [
            {
              "internalType": "uint256",
              "name": "",
              "type": "uint256"
            }
          ],
          "stateMutability": "view",
          "type": "function"
        },
        {
          "inputs": [
            {
              "internalType": "uint256",
              "name": "",
              "type": "uint256"
            }
          ],
          "name": "pets",
          "outputs": [
            {
              "internalType": "uint256",
              "name": "id",
              "type": "uint256"
            },
            {
              "internalType": "address payable",
              "name": "owner",
              "type": "address"
            },
            {
              "internalType": "string",
              "name": "name",
              "type": "string"
            },
            {
              "internalType": "string",
              "name": "breed",
              "type": "string"
            },
            {
              "internalType": "string",
              "name": "gender",
              "type": "string"
            },
            {
              "internalType": "uint128",
              "name": "sizeCm",
              "type": "uint128"
            },
            {
              "internalType": "uint128",
              "name": "ageMonths",
              "type": "uint128"
            },
            {
              "internalType": "string",
              "name": "dateTimeLost",
              "type": "string"
            },
            {
              "internalType": "string",
              "name": "description",
              "type": "string"
            },
            {
              "internalType": "string",
              "name": "imageUrl",
              "type": "string"
            },
            {
              "internalType": "string",
              "name": "lastSeenLocation",
              "type": "string"
            },
            {
              "internalType": "string",
              "name": "contactName",
              "type": "string"
            },
            {
              "internalType": "string",
              "name": "contactPhone",
              "type": "string"
            },
            {
              "internalType": "string",
              "name": "contactEmail",
              "type": "string"
            },
            {
              "internalType": "uint128",
              "name": "celoBounty",
              "type": "uint128"
            },
            {
              "internalType": "uint128",
              "name": "cUSDBounty",
              "type": "uint128"
            },
            {
              "internalType": "bool",
              "name": "isFound",
              "type": "bool"
            },
            {
              "internalType": "bool",
              "name": "ownerConfirmed",
              "type": "bool"
            },
            {
              "internalType": "bool",
              "name": "finderConfirmed",
              "type": "bool"
            },
            {
              "internalType": "address",
              "name": "finder",
              "type": "address"
            }
          ],
          "stateMutability": "view",
          "type": "function"
        },
        {
          "inputs": [
            {
              "internalType": "string",
              "name": "name",
              "type": "string"
            },
            {
              "internalType": "string",
              "name": "breed",
              "type": "string"
            },
            {
              "internalType": "string",
              "name": "gender",
              "type": "string"
            },
            {
              "internalType": "uint128",
              "name": "sizeCm",
              "type": "uint128"
            },
            {
              "internalType": "uint128",
              "name": "ageMonths",
              "type": "uint128"
            },
            {
              "internalType": "string",
              "name": "dateTimeLost",
              "type": "string"
            },
            {
              "internalType": "string",
              "name": "description",
              "type": "string"
            },
            {
              "internalType": "string",
              "name": "imageUrl",
              "type": "string"
            },
            {
              "internalType": "string",
              "name": "lastSeenLocation",
              "type": "string"
            },
            {
              "internalType": "string",
              "name": "contactName",
              "type": "string"
            },
            {
              "internalType": "string",
              "name": "contactPhone",
              "type": "string"
            },
            {
              "internalType": "string",
              "name": "contactEmail",
              "type": "string"
            },
            {
              "internalType": "uint128",
              "name": "cUSDBounty",
              "type": "uint128"
            }
          ],
          "name": "postLostPet",
          "outputs": [],
          "stateMutability": "payable",
          "type": "function"
        },
        {
          "inputs": [
            {
              "internalType": "uint256",
              "name": "",
              "type": "uint256"
            }
          ],
          "name": "postTime",
          "outputs": [
            {
              "internalType": "uint256",
              "name": "",
              "type": "uint256"
            }
          ],
          "stateMutability": "view",
          "type": "function"
        },
        {
          "inputs": [
            {
              "internalType": "address",
              "name": "newAdmin",
              "type": "address"
            }
          ],
          "name": "transferAdmin",
          "outputs": [],
          "stateMutability": "nonpayable",
          "type": "function"
        }
      ],
      "evm": {
        "bytecode": {
          "linkReferences": {},
          "object": "6080806040523460355760008054610100600160a81b0319163360081b610100600160a81b031617905561334d908161003b8239f35b600080fdfe61040080604052600436101561001457600080fd5b60003560e01c9081630b5d39fa14612cd1575080631850e3a714612ca55780633f26decd14612b425780633fa8be3214612b1f578063403f8cc714612b0157806344021ad7146128cc578063465c66e91461289d5780634b15c659146110ca578063543df5a314610bbd5780635e23985b14610a6557806375829def1461099d5780638b504c171461093b5780639dc5ac7214610916578063a06e00611461080b578063b3035b64146106aa578063cfb869bf146105c4578063d32bfb6c14610367578063d74a48a41461033b578063d89fd4b41461012e5763f851a440146100fc57600080fd5b346101295760003660031901126101295760005460405160089190911c6001600160a01b03168152602090f35b600080fd5b3461012957602036600319011261012957600435600154811061015090612f01565b600052600260205260406000208054600160a01b6001900360018301541691600581015490600d81015491600e820154916002810161018e90612e0d565b9161019b60038301612e0d565b906101a860048401612e0d565b906101b560068501612e0d565b6101c160078601612e0d565b906101ce60088701612e0d565b926101db60098801612e0d565b946101e8600a8901612e0d565b966101f5600b8a01612e0d565b98600c0161020290612e0d565b996040519e8f9e8f908152602001528d6040810161028090526102800161022891612d71565b8d810360608f015261023991612d71565b8c810360808e015261024a91612d71565b906001600160801b03811660a08d015260801c60c08c01528a810360e08c015261027391612d71565b8981036101008b015261028591612d71565b8881036101208a015261029791612d71565b8781036101408901526102a991612d71565b8681036101608801526102bb91612d71565b8581036101808701526102cd91612d71565b8481036101a08601526102df91612d71565b6001600160801b0383166101c085015260809290921c6101e084015260ff8181161515610200850152600882901c81161515610220850152601082901c16151561024084015260181c6001600160a01b03166102608301520390f35b346101295760203660031901126101295760043560005260046020526020604060002054604051908152f35b346101295760203660031901126101295760043580600052600260205261039f60018060a01b03600160406000200154163314613099565b60016000546103b160ff821615612f42565b60ff1916176000558060005260026020526040600020600e81015460ff811661058b5760181c6001600160a01b031661054657600d018054600091829055828252600360205260408220919091556001600160801b038116919060801c828015801561051f575b50508061045d575b60405192835260208301527f86cb66faabc06bafd75e6b3e987a6e463a3d8ec871056b659e5e7b566d92ad5460403393a36000805460ff19169055005b60405163a9059cbb60e01b815233600482015260248101829052602081604481600073765de816845861e75a25fca122bb6898b8b1282a5af1908115610513576000916104e4575b506104205760405162461bcd60e51b815260206004820152601260248201527118d554d1081c99599d5b990819985a5b195960721b6044820152606490fd5b610506915060203d60201161050c575b6104fe8183612dec565b810190612ee9565b846104a5565b503d6104f4565b6040513d6000823e3d90fd5b60009061053d575b600080809381933390f115610513578284610418565b506108fc610527565b60405162461bcd60e51b815260206004820152601760248201527f46696e64657220616c72656164792061737369676e65640000000000000000006044820152606490fd5b60405162461bcd60e51b815260206004820152601160248201527014195d08185b1c9958591e48199bdd5b99607a1b6044820152606490fd5b3461012957602036600319011261012957600435600052600260205260406000208054600160a01b60019003600183015416916002810161060490612e0d565b61061060038301612e0d565b61061c60048401612e0d565b600584015461062d60068601612e0d565b61063960078701612e0d565b61064560088801612e0d565b9061065260098901612e0d565b9261065f600a8a01612e0d565b9461066c600b8b01612e0d565b96610679600c8c01612e0d565b98600d8c01549b600e01549a6040519e8f9e8f908152602001528d6040810161028090526102800161022891612d71565b34610129576020366003190112610129576004356106cb6001548210612f01565b60016000546106dd60ff821615612f42565b60ff1916176000558060005260026020526040600020600e81019061070660ff835416156130d5565b600101546001600160a01b031633146107cd5780546301000000600160b81b0319163360181b6301000000600160b81b0316178155805462ff0000198116620100001780835560081c60ff16610792575b8260405190600082527fc7db73a2d1dc7fd351b6549efad129bbf568e618dbbe683abfa0d1550a96e5ae60203393a36000805460ff19169055005b62ff00ff19166201000117905533817f2c54217aed12a18c71e20e5a6a3f13f8cfddbb2c3a0a5f409861478c7fd39e81600080a38180610757565b60405162461bcd60e51b815260206004820152601660248201527527bbb732b91031b0b73737ba103132903334b73232b960511b6044820152606490fd5b3461012957604036600319011261012957600435602435810160008183116109005781906001548093116108f8575b835b8281106108c1575061084d9061303d565b916000935b82811061087e57506108739350604051938493604085526040850190612d1a565b911060208301520390f35b80600052600260205260ff600e6040600020015416156108a1575b600101610852565b936108b981866108b36001948861306f565b52613017565b949050610899565b80600052600260205260ff600e6040600020015416156108e4575b60010161083c565b906108f0600191613017565b9190506108dc565b82915061083a565b634e487b7160e01b600052601160045260246000fd5b3461012957600036600319011261012957602060405169021e19e0c9bab24000008152f35b3461012957600036600319011261012957600080600154905b81811061096657602083604051908152f35b80600052600260205260ff600e604060002001541615610989575b600101610954565b91610995600191613017565b929050610981565b34610129576020366003190112610129576004356001600160a01b0381169081810361012957600054906109df33600884901c6001600160a01b031614612eb1565b8215610a2e57610100600160a81b031990911660089190911b610100600160a81b03161760009081557f7ce7ec0b50378fb6c0186ffb5f48325f6593fcb4ca4386f21861af3129188f5c9080a2005b60405162461bcd60e51b815260206004820152600f60248201526e496e76616c6964206164647265737360881b6044820152606490fd5b3461012957602036600319011261012957600435806000526002602052610a9d60018060a01b03600160406000200154163314613099565b6001600054610aaf60ff821615612f42565b60ff191617600055806000526002602052600e6040600020018054610ad760ff8216156130d5565b601881901c6001600160a01b031615610b835761ff001981166101001780835560101c60ff16610b3d575b8260405190600182527fc7db73a2d1dc7fd351b6549efad129bbf568e618dbbe683abfa0d1550a96e5ae60203393a36000805460ff19169055005b61ffff1916610101179081905560181c6001600160a01b0316817f2c54217aed12a18c71e20e5a6a3f13f8cfddbb2c3a0a5f409861478c7fd39e81600080a38180610b02565b60405162461bcd60e51b8152602060048201526012602482015271139bc8199a5b99195c88185cdcda59db995960721b6044820152606490fd5b3461012957600036600319011261012957600080600154905b8181106110935750610be78261303d565b90610bf183613026565b92610bff6040519485612dec565b808452610c0e601f1991613026565b0160005b818110610fe55750506000805b828110610e3457505050610c3e60405191604083526040830190612d1a565b91818303602083015280519283815260208101906020808660051b8301019301916000915b868310610c705785850386f35b90919293601f1982820301835284519081518152600160a01b60019003602083015116602082015260408201516040820161028090526102808201610cb491612d71565b6060830151908281036060840152610ccb91612d71565b6080830151908281036080840152610ce291612d71565b60a08301516001600160801b031660a083015260c08301516001600160801b031660c083015260e08301519082810360e0840152610d1f91612d71565b61010083015190828103610100840152610d3891612d71565b61012083015190828103610120840152610d5191612d71565b61014083015190828103610140840152610d6a91612d71565b61016083015190828103610160840152610d8391612d71565b61018083015190828103610180840152610d9c91612d71565b6101a0830151908281036101a0840152610db591612d71565b916101c08101516001600160801b03166101c08301526101e08101516001600160801b03166101e0830152610200810151151561020083015261022081015115156102208301526102408101511515610240830152600160a01b6001900390610260015116906102600152936020019160200192600101919290610c63565b80600052600260205260ff600e604060002001541615610e57575b600101610c1f565b90610fdd8183610e696001948861306f565b528360005260026020526040600020600e60405191610e8783612dd0565b80548352858060a01b0386820154166020840152610ea760028201612e0d565b6040840152610eb860038201612e0d565b6060840152610ec960048201612e0d565b608084015260058101546001600160801b03811660a085015260801c60c0840152610ef660068201612e0d565b60e0840152610f0760078201612e0d565b610100840152610f1960088201612e0d565b610120840152610f2b60098201612e0d565b610140840152610f3d600a8201612e0d565b610160840152610f4f600b8201612e0d565b610180840152610f61600c8201612e0d565b6101a0840152600d8101546001600160801b0381166101c085015260801c6101e0840152015460ff8116151561020083015260ff8160081c16151561022083015260ff8160101c161515610240830152848060a01b039060181c16610260820152610fcc828961306f565b52610fd7818861306f565b50613017565b919050610e4f565b602090604051610ff481612dd0565b600081526000838201526060604082015260608082015260606080820152600060a0820152600060c0820152606060e08201526060610100820152606061012082015260606101408201526060610160820152606061018082015260606101a082015260006101c082015260006101e0820152600061020082015260006102208201526000610240820152600061026082015282828801015201610c12565b80600052600260205260ff600e6040600020015416156110b6575b600101610bd6565b916110c2600191613017565b9290506110ae565b6101a0366003190112610129576004356001600160401b038111610129576110f6903690600401612ced565b6103a0526102e0526024356001600160401b0381116101295761111d903690600401612ced565b61010052610140526044356001600160401b03811161012957611144903690600401612ced565b6103e052610160526064356101a08190526001600160801b0381169003610129576084356102008190526001600160801b03811690036101295760a4356001600160401b0381116101295761119d903690600401612ced565b610220526102805260c4356001600160401b038111610129576111c4903690600401612ced565b6102a0526102c05260e4356001600160401b038111610129576111eb903690600401612ced565b6103805261030052610104356001600160401b03811161012957611213903690600401612ced565b61032052610340526001600160401b0361012435116101295761123c3661012435600401612ced565b6103c052610360526001600160401b036101443511610129576112653661014435600401612ced565b6102405261026052610164356001600160401b0381116101295761128d903690600401612ced565b6101e0526101c052610184356101808190526001600160801b03811690036101295760016000546112c160ff821615612f42565b60ff191617600055678ac7230489e8000034116128605769021e19e0c9bab24000006001600160801b0361018051161161282357341580159061280e575b156127d7576040610120819052805161133a9161131c9082612dec565b60048152634e616d6560e01b60208201526103a0516102e051613141565b61012051805161136d9161134e9082612dec565b6005815264109c99595960da1b60208201526101005161014051613141565b610120518051611458916113819082612dec565b600681526523b2b73232b960d11b602082015261140d6113a8366103e05161016051612fd1565b6114088151600181101590816127cb575b50610120515190611403600f60208489516113da818c858086019101612d4e565b81016e081b195b99dd1a081a5b9d985b1a59608a1b838201520301601019810185520183612dec565b613111565b6132d6565b156114036010602061012051518561142e8297518092858086019101612d4e565b81016f2063616e6e6f7420626520626c616e6b60801b838201520301600f19810185520183612dec565b610120515061151761142e61012051516114756101205182612dec565b600b815261140360106020808401936a2232b9b1b934b83a34b7b760a91b85526115016114a9366102a0516102c051612fd1565b6114088151600a81101590816127be575b50610120515190611403600f88848d6114d98b51809285850190612d4e565b81016e081b195b99dd1a081a5b9d985b1a59608a1b8382015203018a19810185520183612dec565b1594610120515196879251809285850190612d4e565b610120515061159561142e61012051516115346101205182612dec565b60098152611403601060208084019368125b5859d94815549360ba1b8552611501611566366103805161030051612fd1565b6114088151600a81101590816127b25750610120515190611403600f88848d6114d98b51809285850190612d4e565b610120515061161261142e61012051516115b26101205182612dec565b600881526114036010602080840193672637b1b0ba34b7b760c11b85526115016115e3366103205161034051612fd1565b6114088151600581101590816127b25750610120515190611403600f88848d6114d98b51809285850190612d4e565b610120515061169361142e610120515161162f6101205182612dec565b600c815261140360106020808401936b436f6e74616374206e616d6560a01b8552611501611664366103c05161036051612fd1565b6114088151600281101590816127a65750610120515190611403600f88848d6114d98b51809285850190612d4e565b610120515061171561142e61012051516116b06101205182612dec565b600d815261140360106020808401936c436f6e746163742070686f6e6560981b85526115016116e6366102405161026051612fd1565b61140881516005811015908161279a5750610120515190611403600f88848d6114d98b51809285850190612d4e565b600a6001600160801b036101a05116101580612783575b1561274d5760016001600160801b036102005116101580612736575b1561270157611766611761366101e0516101c051612fd1565b613230565b156126ca576001600160801b0361018051166125e5575b60015460e052610120515160c05261179660c051612dd0565b60e05160c0515233602060c05101526117b6366103a0516102e051612fd1565b6101205160c05101526117d0366101005161014051612fd1565b606060c05101526117e8366103e05161016051612fd1565b608060c05101526001600160801b036101a0511660a060c05101526001600160801b03610200511660c080510152611827366102205161028051612fd1565b60e060c051015261183f366102a0516102c051612fd1565b61010060c0510152611858366103805161030051612fd1565b61012060c0510152611871366103205161034051612fd1565b61014060c051015261188a366103c05161036051612fd1565b61016060c05101526118a3366102405161026051612fd1565b61018060c05101526118bc366101e0516101c051612fd1565b6101a060c05101526001600160801b0334166101c060c05101526001600160801b0361018051166101e060c0510152600061020060c0510152600061022060c0510152600061024060c0510152600061026060c051015260e05160005260026020526101205160002060c0515181556001810160018060a01b03602060c0510151166bffffffffffffffffffffffff60a01b8254161790556101205160c05101518051906001600160401b038211611efb57819061197d6002850154612d96565b601f8111612592575b50602090601f831160011461252157600092612516575b50508160011b916000199060031b1c19161760028201555b606060c05101518051906001600160401b038211611efb5781906119dc6003850154612d96565b601f81116124c3575b50602090601f831160011461245257600092612447575b50508160011b916000199060031b1c19161760038201555b608060c05101518051906001600160401b038211611efb578190611a3b6004850154612d96565b601f81116123f4575b50602090601f831160011461238357600092612378575b50508160011b916000199060031b1c19161760048201555b60c0805160a081015191015160801b6001600160801b0319166001600160801b039190911617600582015560e060c05101518051906001600160401b038211611efb578190611ac56006850154612d96565b601f8111612325575b50602090601f83116001146122b4576000926122a9575b50508160011b916000199060031b1c19161760068201555b600781019061010060c05101519182516001600160401b038111611efb57611b258254612d96565b601f8111612261575b506020601f82116001146121fc57819293946000926121f1575b50508160011b916000199060031b1c19161790555b600881019061012060c05101519182516001600160401b038111611efb57611b858254612d96565b601f81116121a9575b506020601f82116001146121445781929394600092612139575b50508160011b916000199060031b1c19161790555b600981019061014060c05101519182516001600160401b038111611efb57611be58254612d96565b601f81116120f1575b506020601f821160011461208c5781929394600092612081575b50508160011b916000199060031b1c19161790555b600a81019061016060c05101519182516001600160401b038111611efb57611c458254612d96565b601f8111612039575b506020601f8211600114611fd45781929394600092611fc9575b50508160011b916000199060031b1c19161790555b600b81019061018060c05101519182516001600160401b038111611efb57611ca58254612d96565b601f8111611f81575b506020601f8211600114611f1c5781929394600092611f11575b50508160011b916000199060031b1c19161790555b600c81016101a060c05101518051906001600160401b038211611efb57611d048354612d96565b601f8111611eb3575b50602090601f8311600114611e45579180600e9492611de59694600092611e3a575b50508160011b916000199060031b1c19161790555b60c0516101c08101516101e09091015160801b6001600160801b0319166001600160801b039190911617600d82015560c051610200810151929091018054610220830151610240840151610260909401516001600160b81b031990921660ff951515959095169490941793151560081b61ff00169390931791151560101b62ff0000169190911760189290921b6301000000600160b81b0316919091179055565b6001546000526004602052426101205160002055611e2b60015433817ff6be169e9242db299e4065f846c02e09b60f1421201248fe94d6f552e8c8bd44600080a3613017565b6001556000805460ff19169055005b015190508680611d2f565b90601f1983169184600052816000209260005b818110611e9b5750926001928592611de59896600e989610611e82575b505050811b019055611d44565b015160001960f88460031b161c19169055868080611e75565b92936020600181928786015181550195019301611e58565b836000526020600020601f840160051c81019160208510611ef1575b601f0160051c01905b818110611ee55750611d0d565b60008155600101611ed8565b9091508190611ecf565b634e487b7160e01b600052604160045260246000fd5b015190508480611cc8565b601f1982169083600052806000209160005b818110611f6957509583600195969710611f50575b505050811b019055611cdd565b015160001960f88460031b161c19169055848080611f43565b9192602060018192868b015181550194019201611f2e565b826000526020600020601f830160051c81019160208410611fbf575b601f0160051c01905b818110611fb35750611cae565b60008155600101611fa6565b9091508190611f9d565b015190508480611c68565b601f1982169083600052806000209160005b81811061202157509583600195969710612008575b505050811b019055611c7d565b015160001960f88460031b161c19169055848080611ffb565b9192602060018192868b015181550194019201611fe6565b826000526020600020601f830160051c81019160208410612077575b601f0160051c01905b81811061206b5750611c4e565b6000815560010161205e565b9091508190612055565b015190508480611c08565b601f1982169083600052806000209160005b8181106120d9575095836001959697106120c0575b505050811b019055611c1d565b015160001960f88460031b161c191690558480806120b3565b9192602060018192868b01518155019401920161209e565b826000526020600020601f830160051c8101916020841061212f575b601f0160051c01905b8181106121235750611bee565b60008155600101612116565b909150819061210d565b015190508480611ba8565b601f1982169083600052806000209160005b81811061219157509583600195969710612178575b505050811b019055611bbd565b015160001960f88460031b161c1916905584808061216b565b9192602060018192868b015181550194019201612156565b826000526020600020601f830160051c810191602084106121e7575b601f0160051c01905b8181106121db5750611b8e565b600081556001016121ce565b90915081906121c5565b015190508480611b48565b601f1982169083600052806000209160005b81811061224957509583600195969710612230575b505050811b019055611b5d565b015160001960f88460031b161c19169055848080612223565b9192602060018192868b01518155019401920161220e565b826000526020600020601f830160051c8101916020841061229f575b601f0160051c01905b8181106122935750611b2e565b60008155600101612286565b909150819061227d565b015190508380611ae5565b92506006840160005280600020906000935b601f198416851061230a576001945083601f198116106122f1575b505050811b016006820155611afd565b015160001960f88460031b161c191690558380806122e1565b818101518355602094850194600190930192909101906122c6565b909150600684016000526020600020601f840160051c810160208510612371575b90849392915b601f830160051c82018110612362575050611ace565b6000815585945060010161234c565b5080612346565b015190508380611a5b565b92506004840160005280600020906000935b601f19841685106123d9576001945083601f198116106123c0575b505050811b016004820155611a73565b015160001960f88460031b161c191690558380806123b0565b81810151835560209485019460019093019290910190612395565b909150600484016000526020600020601f840160051c810160208510612440575b90849392915b601f830160051c82018110612431575050611a44565b6000815585945060010161241b565b5080612415565b0151905083806119fc565b92506003840160005280600020906000935b601f19841685106124a8576001945083601f1981161061248f575b505050811b016003820155611a14565b015160001960f88460031b161c1916905583808061247f565b81810151835560209485019460019093019290910190612464565b909150600384016000526020600020601f840160051c81016020851061250f575b90849392915b601f830160051c820181106125005750506119e5565b600081558594506001016124ea565b50806124e4565b01519050838061199d565b92506002840160005280600020906000935b601f1984168510612577576001945083601f1981161061255e575b505050811b0160028201556119b5565b015160001960f88460031b161c1916905583808061254e565b81810151835560209485019460019093019290910190612533565b909150600284016000526020600020601f840160051c8101602085106125de575b90849392915b601f830160051c820181106125cf575050611986565b600081558594506001016125b9565b50806125b3565b610120515160a0526323b872dd60e01b60a0515233600460a051015230602460a05101526001600160801b036101805116604460a0510152602060a051606460a051600073765de816845861e75a25fca122bb6898b8b1282a5af1608052608051156126bc576000608051612683575b61265e90612f8e565b60015460005260036020526001600160801b036101805116610120516000205561177d565b5060203d6020116126b5575b6126ae816126a261265e9360a051612dec565b60a0510160a051612ee9565b9050612655565b503d61268f565b61012051513d6000823e3d90fd5b610120515162461bcd60e51b815260206004820152600d60248201526c125b9d985b1a5908195b585a5b609a1b6044820152606490fd5b610120515162461bcd60e51b815260206004820152600b60248201526a496e76616c69642061676560a81b6044820152606490fd5b5060f06001600160801b0361020051161115611748565b610120515162461bcd60e51b815260206004820152600c60248201526b496e76616c69642073697a6560a01b6044820152606490fd5b5060c86001600160801b036101a05116111561172c565b6014915011158b6114ba565b6064915011158b6114ba565b60c8915011158b6114ba565b6101f4915011158b6114ba565b600a91501115866113b9565b60405162461bcd60e51b815260206004820152600f60248201526e109bdd5b9d1e481c995c5d5a5c9959608a1b6044820152606490fd5b506001600160801b03610180511615156112ff565b60405162461bcd60e51b81526020600482015260156024820152746355534420626f756e747920746f6f206c6172676560581b6044820152606490fd5b60405162461bcd60e51b815260206004820152601560248201527443454c4f20626f756e747920746f6f206c6172676560581b6044820152606490fd5b3461012957600036600319011261012957602060405173765de816845861e75a25fca122bb6898b8b1282a8152f35b34610129576020366003190112610129576004356128ed6001548210612f01565b60016000546128ff60ff821615612f42565b60ff1916176000558060005260026020526040600020600e81015460ff811615612acc5760181c6001600160a01b03163303612a9a57600d0180546001600160801b038116929190831580158082612a8e575b15612a5d576000938490558484526003602052604084209390935560809190911c91849190612a36575b5050806129c1575b60405192835260208301527f2eefa727cced3362efe12827696bbd9df4926abce3c569ddaf6b9634ae1af14760403393a36000805460ff19169055005b60405163a9059cbb60e01b815233600482015260248101829052602081604481600073765de816845861e75a25fca122bb6898b8b1282a5af1801561051357612a1291600091612a17575b50612f8e565b612984565b612a30915060203d60201161050c576104fe8183612dec565b85612a0c565b600090612a54575b600080809381933390f11561051357828461297c565b506108fc612a3e565b60405162461bcd60e51b81526020600482015260096024820152684e6f20626f756e747960b81b6044820152606490fd5b508260801c1515612952565b60405162461bcd60e51b815260206004820152600a6024820152692737ba103334b73232b960b11b6044820152606490fd5b60405162461bcd60e51b815260206004820152600d60248201526c14195d081b9bdd08199bdd5b99609a1b6044820152606490fd5b34610129576000366003190112610129576020600154604051908152f35b34610129576000366003190112610129576020604051678ac7230489e800008152f35b34610129576020366003190112610129576004356001600160a01b038116810361012957612b7e60018060a01b0360005460081c163314612eb1565b6040516370a0823160e01b815230600482015260208160248173765de816845861e75a25fca122bb6898b8b1282a5afa90811561051357600091612c71575b5060405163a9059cbb60e01b81526001600160a01b039092166004830152602482015260208180604481015b0381600073765de816845861e75a25fca122bb6898b8b1282a5af190811561051357600091612c52575b5015612c1b57005b60405162461bcd60e51b815260206004820152600f60248201526e151c985b9cd9995c8819985a5b1959608a1b6044820152606490fd5b612c6b915060203d60201161050c576104fe8183612dec565b81612c13565b90506020813d602011612c9d575b81612c8c60209383612dec565b810103126101295751612be9612bbd565b3d9150612c7f565b346101295760203660031901126101295760043560005260036020526020604060002054604051908152f35b3461012957600036600319011261012957806276a70060209252f35b9181601f84011215610129578235916001600160401b038311610129576020838186019501011161012957565b906020808351928381520192019060005b818110612d385750505090565b8251845260209384019390920191600101612d2b565b60005b838110612d615750506000910152565b8181015183820152602001612d51565b90602091612d8a81518092818552858086019101612d4e565b601f01601f1916010190565b90600182811c92168015612dc6575b6020831014612db057565b634e487b7160e01b600052602260045260246000fd5b91607f1691612da5565b61028081019081106001600160401b03821117611efb57604052565b90601f801991011681019081106001600160401b03821117611efb57604052565b9060405191826000825492612e2184612d96565b8084529360018116908115612e8f5750600114612e48575b50612e4692500383612dec565b565b90506000929192526020600020906000915b818310612e73575050906020612e469282010138612e39565b6020919350806001915483858901015201910190918492612e5a565b905060209250612e4694915060ff191682840152151560051b82010138612e39565b15612eb857565b60405162461bcd60e51b81526020600482015260096024820152682737ba1030b236b4b760b91b6044820152606490fd5b90816020910312610129575180151581036101295790565b15612f0857565b60405162461bcd60e51b815260206004820152601260248201527114195d08191bd95cc81b9bdd08195e1a5cdd60721b6044820152606490fd5b15612f4957565b60405162461bcd60e51b815260206004820152601f60248201527f5265656e7472616e637947756172643a207265656e7472616e742063616c6c006044820152606490fd5b15612f9557565b60405162461bcd60e51b815260206004820152601460248201527318d554d1081d1c985b9cd9995c8819985a5b195960621b6044820152606490fd5b9291926001600160401b038211611efb5760405191612ffa601f8201601f191660200184612dec565b829481845281830111610129578281602093846000960137010152565b60001981146109005760010190565b6001600160401b038111611efb5760051b60200190565b9061304782613026565b6130546040519182612dec565b8281528092613065601f1991613026565b0190602036910137565b80518210156130835760209160051b010190565b634e487b7160e01b600052603260045260246000fd5b156130a057565b60405162461bcd60e51b815260206004820152600d60248201526c2737ba103832ba1037bbb732b960991b6044820152606490fd5b156130dc57565b60405162461bcd60e51b815260206004820152600d60248201526c105b1c9958591e48199bdd5b99609a1b6044820152606490fd5b156131195750565b60405162461bcd60e51b81526020600482015290819061313d906024830190612d71565b0390fd5b61314c913691612fd1565b80519060028210159182613213575b50604051918351928060208601948060208301906131799188612d4e565b8101602081016e081b195b99dd1a081a5b9d985b1a59608a1b90520360200160101981018252600f016131ac9082612dec565b6131b591613111565b6131be906132d6565b1591604051918291519081602084016131d692612d4e565b8101602081016f2063616e6e6f7420626520626c616e6b60801b905203602001600f198101825260100161320a9082612dec565b612e4691613111565b6032101591503861315b565b908151811015613083570160200190565b60058151106132d05760008091815b81518310156132be57600160fe1b6001600160f81b0319613260858561321f565b51160361327f5761327757600180925b019161323f565b505050600090565b91828061329d575b613294575b600190613270565b6001935061328c565b50601760f91b6001600160f81b03196132b6838561321f565b511614613287565b92915050816132cb575090565b905090565b50600090565b60005b815181101561331057600160fd1b6001600160f81b03196132fa838561321f565b511603613309576001016132d9565b5050600090565b505060019056fea26469706673582212202bef5b21f6a356910e123b91fcb01724da50cbe8bf09571494e969830bac02aa64736f6c634300081c0033",
          "opcodes": "PUSH1 0x80 DUP1 PUSH1 0x40 MSTORE CALLVALUE PUSH1 0x35 JUMPI PUSH1 0x0 DUP1 SLOAD PUSH2 0x100 PUSH1 0x1 PUSH1 0xA8 SHL SUB NOT AND CALLER PUSH1 0x8 SHL PUSH2 0x100 PUSH1 0x1 PUSH1 0xA8 SHL SUB AND OR SWAP1 SSTORE PUSH2 0x334D SWAP1 DUP2 PUSH2 0x3B DUP3 CODECOPY RETURN JUMPDEST PUSH1 0x0 DUP1 REVERT INVALID PUSH2 0x400 DUP1 PUSH1 0x40 MSTORE PUSH1 0x4 CALLDATASIZE LT ISZERO PUSH2 0x14 JUMPI PUSH1 0x0 DUP1 REVERT JUMPDEST PUSH1 0x0 CALLDATALOAD PUSH1 0xE0 SHR SWAP1 DUP2 PUSH4 0xB5D39FA EQ PUSH2 0x2CD1 JUMPI POP DUP1 PUSH4 0x1850E3A7 EQ PUSH2 0x2CA5 JUMPI DUP1 PUSH4 0x3F26DECD EQ PUSH2 0x2B42 JUMPI DUP1 PUSH4 0x3FA8BE32 EQ PUSH2 0x2B1F JUMPI DUP1 PUSH4 0x403F8CC7 EQ PUSH2 0x2B01 JUMPI DUP1 PUSH4 0x44021AD7 EQ PUSH2 0x28CC JUMPI DUP1 PUSH4 0x465C66E9 EQ PUSH2 0x289D JUMPI DUP1 PUSH4 0x4B15C659 EQ PUSH2 0x10CA JUMPI DUP1 PUSH4 0x543DF5A3 EQ PUSH2 0xBBD JUMPI DUP1 PUSH4 0x5E23985B EQ PUSH2 0xA65 JUMPI DUP1 PUSH4 0x75829DEF EQ PUSH2 0x99D JUMPI DUP1 PUSH4 0x8B504C17 EQ PUSH2 0x93B JUMPI DUP1 PUSH4 0x9DC5AC72 EQ PUSH2 0x916 JUMPI DUP1 PUSH4 0xA06E0061 EQ PUSH2 0x80B JUMPI DUP1 PUSH4 0xB3035B64 EQ PUSH2 0x6AA JUMPI DUP1 PUSH4 0xCFB869BF EQ PUSH2 0x5C4 JUMPI DUP1 PUSH4 0xD32BFB6C EQ PUSH2 0x367 JUMPI DUP1 PUSH4 0xD74A48A4 EQ PUSH2 0x33B JUMPI DUP1 PUSH4 0xD89FD4B4 EQ PUSH2 0x12E JUMPI PUSH4 0xF851A440 EQ PUSH2 0xFC JUMPI PUSH1 0x0 DUP1 REVERT JUMPDEST CALLVALUE PUSH2 0x129 JUMPI PUSH1 0x0 CALLDATASIZE PUSH1 0x3 NOT ADD SLT PUSH2 0x129 JUMPI PUSH1 0x0 SLOAD PUSH1 0x40 MLOAD PUSH1 0x8 SWAP2 SWAP1 SWAP2 SHR PUSH1 0x1 PUSH1 0x1 PUSH1 0xA0 SHL SUB AND DUP2 MSTORE PUSH1 0x20 SWAP1 RETURN JUMPDEST PUSH1 0x0 DUP1 REVERT JUMPDEST CALLVALUE PUSH2 0x129 JUMPI PUSH1 0x20 CALLDATASIZE PUSH1 0x3 NOT ADD SLT PUSH2 0x129 JUMPI PUSH1 0x4 CALLDATALOAD PUSH1 0x1 SLOAD DUP2 LT PUSH2 0x150 SWAP1 PUSH2 0x2F01 JUMP JUMPDEST PUSH1 0x0 MSTORE PUSH1 0x2 PUSH1 0x20 MSTORE PUSH1 0x40 PUSH1 0x0 KECCAK256 DUP1 SLOAD PUSH1 0x1 PUSH1 0xA0 SHL PUSH1 0x1 SWAP1 SUB PUSH1 0x1 DUP4 ADD SLOAD AND SWAP2 PUSH1 0x5 DUP2 ADD SLOAD SWAP1 PUSH1 0xD DUP2 ADD SLOAD SWAP2 PUSH1 0xE DUP3 ADD SLOAD SWAP2 PUSH1 0x2 DUP2 ADD PUSH2 0x18E SWAP1 PUSH2 0x2E0D JUMP JUMPDEST SWAP2 PUSH2 0x19B PUSH1 0x3 DUP4 ADD PUSH2 0x2E0D JUMP JUMPDEST SWAP1 PUSH2 0x1A8 PUSH1 0x4 DUP5 ADD PUSH2 0x2E0D JUMP JUMPDEST SWAP1 PUSH2 0x1B5 PUSH1 0x6 DUP6 ADD PUSH2 0x2E0D JUMP JUMPDEST PUSH2 0x1C1 PUSH1 0x7 DUP7 ADD PUSH2 0x2E0D JUMP JUMPDEST SWAP1 PUSH2 0x1CE PUSH1 0x8 DUP8 ADD PUSH2 0x2E0D JUMP JUMPDEST SWAP3 PUSH2 0x1DB PUSH1 0x9 DUP9 ADD PUSH2 0x2E0D JUMP JUMPDEST SWAP5 PUSH2 0x1E8 PUSH1 0xA DUP10 ADD PUSH2 0x2E0D JUMP JUMPDEST SWAP7 PUSH2 0x1F5 PUSH1 0xB DUP11 ADD PUSH2 0x2E0D JUMP JUMPDEST SWAP9 PUSH1 0xC ADD PUSH2 0x202 SWAP1 PUSH2 0x2E0D JUMP JUMPDEST SWAP10 PUSH1 0x40 MLOAD SWAP15 DUP16 SWAP15 DUP16 SWAP1 DUP2 MSTORE PUSH1 0x20 ADD MSTORE DUP14 PUSH1 0x40 DUP2 ADD PUSH2 0x280 SWAP1 MSTORE PUSH2 0x280 ADD PUSH2 0x228 SWAP2 PUSH2 0x2D71 JUMP JUMPDEST DUP14 DUP2 SUB PUSH1 0x60 DUP16 ADD MSTORE PUSH2 0x239 SWAP2 PUSH2 0x2D71 JUMP JUMPDEST DUP13 DUP2 SUB PUSH1 0x80 DUP15 ADD MSTORE PUSH2 0x24A SWAP2 PUSH2 0x2D71 JUMP JUMPDEST SWAP1 PUSH1 0x1 PUSH1 0x1 PUSH1 0x80 SHL SUB DUP2 AND PUSH1 0xA0 DUP14 ADD MSTORE PUSH1 0x80 SHR PUSH1 0xC0 DUP13 ADD MSTORE DUP11 DUP2 SUB PUSH1 0xE0 DUP13 ADD MSTORE PUSH2 0x273 SWAP2 PUSH2 0x2D71 JUMP JUMPDEST DUP10 DUP2 SUB PUSH2 0x100 DUP12 ADD MSTORE PUSH2 0x285 SWAP2 PUSH2 0x2D71 JUMP JUMPDEST DUP9 DUP2 SUB PUSH2 0x120 DUP11 ADD MSTORE PUSH2 0x297 SWAP2 PUSH2 0x2D71 JUMP JUMPDEST DUP8 DUP2 SUB PUSH2 0x140 DUP10 ADD MSTORE PUSH2 0x2A9 SWAP2 PUSH2 0x2D71 JUMP JUMPDEST DUP7 DUP2 SUB PUSH2 0x160 DUP9 ADD MSTORE PUSH2 0x2BB SWAP2 PUSH2 0x2D71 JUMP JUMPDEST DUP6 DUP2 SUB PUSH2 0x180 DUP8 ADD MSTORE PUSH2 0x2CD SWAP2 PUSH2 0x2D71 JUMP JUMPDEST DUP5 DUP2 SUB PUSH2 0x1A0 DUP7 ADD MSTORE PUSH2 0x2DF SWAP2 PUSH2 0x2D71 JUMP JUMPDEST PUSH1 0x1 PUSH1 0x1 PUSH1 0x80 SHL SUB DUP4 AND PUSH2 0x1C0 DUP6 ADD MSTORE PUSH1 0x80 SWAP3 SWAP1 SWAP3 SHR PUSH2 0x1E0 DUP5 ADD MSTORE PUSH1 0xFF DUP2 DUP2 AND ISZERO ISZERO PUSH2 0x200 DUP6 ADD MSTORE PUSH1 0x8 DUP3 SWAP1 SHR DUP2 AND ISZERO ISZERO PUSH2 0x220 DUP6 ADD MSTORE PUSH1 0x10 DUP3 SWAP1 SHR AND ISZERO ISZERO PUSH2 0x240 DUP5 ADD MSTORE PUSH1 0x18 SHR PUSH1 0x1 PUSH1 0x1 PUSH1 0xA0 SHL SUB AND PUSH2 0x260 DUP4 ADD MSTORE SUB SWAP1 RETURN JUMPDEST CALLVALUE PUSH2 0x129 JUMPI PUSH1 0x20 CALLDATASIZE PUSH1 0x3 NOT ADD SLT PUSH2 0x129 JUMPI PUSH1 0x4 CALLDATALOAD PUSH1 0x0 MSTORE PUSH1 0x4 PUSH1 0x20 MSTORE PUSH1 0x20 PUSH1 0x40 PUSH1 0x0 KECCAK256 SLOAD PUSH1 0x40 MLOAD SWAP1 DUP2 MSTORE RETURN JUMPDEST CALLVALUE PUSH2 0x129 JUMPI PUSH1 0x20 CALLDATASIZE PUSH1 0x3 NOT ADD SLT PUSH2 0x129 JUMPI PUSH1 0x4 CALLDATALOAD DUP1 PUSH1 0x0 MSTORE PUSH1 0x2 PUSH1 0x20 MSTORE PUSH2 0x39F PUSH1 0x1 DUP1 PUSH1 0xA0 SHL SUB PUSH1 0x1 PUSH1 0x40 PUSH1 0x0 KECCAK256 ADD SLOAD AND CALLER EQ PUSH2 0x3099 JUMP JUMPDEST PUSH1 0x1 PUSH1 0x0 SLOAD PUSH2 0x3B1 PUSH1 0xFF DUP3 AND ISZERO PUSH2 0x2F42 JUMP JUMPDEST PUSH1 0xFF NOT AND OR PUSH1 0x0 SSTORE DUP1 PUSH1 0x0 MSTORE PUSH1 0x2 PUSH1 0x20 MSTORE PUSH1 0x40 PUSH1 0x0 KECCAK256 PUSH1 0xE DUP2 ADD SLOAD PUSH1 0xFF DUP2 AND PUSH2 0x58B JUMPI PUSH1 0x18 SHR PUSH1 0x1 PUSH1 0x1 PUSH1 0xA0 SHL SUB AND PUSH2 0x546 JUMPI PUSH1 0xD ADD DUP1 SLOAD PUSH1 0x0 SWAP2 DUP3 SWAP1 SSTORE DUP3 DUP3 MSTORE PUSH1 0x3 PUSH1 0x20 MSTORE PUSH1 0x40 DUP3 KECCAK256 SWAP2 SWAP1 SWAP2 SSTORE PUSH1 0x1 PUSH1 0x1 PUSH1 0x80 SHL SUB DUP2 AND SWAP2 SWAP1 PUSH1 0x80 SHR DUP3 DUP1 ISZERO DUP1 ISZERO PUSH2 0x51F JUMPI JUMPDEST POP POP DUP1 PUSH2 0x45D JUMPI JUMPDEST PUSH1 0x40 MLOAD SWAP3 DUP4 MSTORE PUSH1 0x20 DUP4 ADD MSTORE PUSH32 0x86CB66FAABC06BAFD75E6B3E987A6E463A3D8EC871056B659E5E7B566D92AD54 PUSH1 0x40 CALLER SWAP4 LOG3 PUSH1 0x0 DUP1 SLOAD PUSH1 0xFF NOT AND SWAP1 SSTORE STOP JUMPDEST PUSH1 0x40 MLOAD PUSH4 0xA9059CBB PUSH1 0xE0 SHL DUP2 MSTORE CALLER PUSH1 0x4 DUP3 ADD MSTORE PUSH1 0x24 DUP2 ADD DUP3 SWAP1 MSTORE PUSH1 0x20 DUP2 PUSH1 0x44 DUP2 PUSH1 0x0 PUSH20 0x765DE816845861E75A25FCA122BB6898B8B1282A GAS CALL SWAP1 DUP2 ISZERO PUSH2 0x513 JUMPI PUSH1 0x0 SWAP2 PUSH2 0x4E4 JUMPI JUMPDEST POP PUSH2 0x420 JUMPI PUSH1 0x40 MLOAD PUSH3 0x461BCD PUSH1 0xE5 SHL DUP2 MSTORE PUSH1 0x20 PUSH1 0x4 DUP3 ADD MSTORE PUSH1 0x12 PUSH1 0x24 DUP3 ADD MSTORE PUSH18 0x18D554D1081C99599D5B990819985A5B1959 PUSH1 0x72 SHL PUSH1 0x44 DUP3 ADD MSTORE PUSH1 0x64 SWAP1 REVERT JUMPDEST PUSH2 0x506 SWAP2 POP PUSH1 0x20 RETURNDATASIZE PUSH1 0x20 GT PUSH2 0x50C JUMPI JUMPDEST PUSH2 0x4FE DUP2 DUP4 PUSH2 0x2DEC JUMP JUMPDEST DUP2 ADD SWAP1 PUSH2 0x2EE9 JUMP JUMPDEST DUP5 PUSH2 0x4A5 JUMP JUMPDEST POP RETURNDATASIZE PUSH2 0x4F4 JUMP JUMPDEST PUSH1 0x40 MLOAD RETURNDATASIZE PUSH1 0x0 DUP3 RETURNDATACOPY RETURNDATASIZE SWAP1 REVERT JUMPDEST PUSH1 0x0 SWAP1 PUSH2 0x53D JUMPI JUMPDEST PUSH1 0x0 DUP1 DUP1 SWAP4 DUP2 SWAP4 CALLER SWAP1 CALL ISZERO PUSH2 0x513 JUMPI DUP3 DUP5 PUSH2 0x418 JUMP JUMPDEST POP PUSH2 0x8FC PUSH2 0x527 JUMP JUMPDEST PUSH1 0x40 MLOAD PUSH3 0x461BCD PUSH1 0xE5 SHL DUP2 MSTORE PUSH1 0x20 PUSH1 0x4 DUP3 ADD MSTORE PUSH1 0x17 PUSH1 0x24 DUP3 ADD MSTORE PUSH32 0x46696E64657220616C72656164792061737369676E6564000000000000000000 PUSH1 0x44 DUP3 ADD MSTORE PUSH1 0x64 SWAP1 REVERT JUMPDEST PUSH1 0x40 MLOAD PUSH3 0x461BCD PUSH1 0xE5 SHL DUP2 MSTORE PUSH1 0x20 PUSH1 0x4 DUP3 ADD MSTORE PUSH1 0x11 PUSH1 0x24 DUP3 ADD MSTORE PUSH17 0x14195D08185B1C9958591E48199BDD5B99 PUSH1 0x7A SHL PUSH1 0x44 DUP3 ADD MSTORE PUSH1 0x64 SWAP1 REVERT JUMPDEST CALLVALUE PUSH2 0x129 JUMPI PUSH1 0x20 CALLDATASIZE PUSH1 0x3 NOT ADD SLT PUSH2 0x129 JUMPI PUSH1 0x4 CALLDATALOAD PUSH1 0x0 MSTORE PUSH1 0x2 PUSH1 0x20 MSTORE PUSH1 0x40 PUSH1 0x0 KECCAK256 DUP1 SLOAD PUSH1 0x1 PUSH1 0xA0 SHL PUSH1 0x1 SWAP1 SUB PUSH1 0x1 DUP4 ADD SLOAD AND SWAP2 PUSH1 0x2 DUP2 ADD PUSH2 0x604 SWAP1 PUSH2 0x2E0D JUMP JUMPDEST PUSH2 0x610 PUSH1 0x3 DUP4 ADD PUSH2 0x2E0D JUMP JUMPDEST PUSH2 0x61C PUSH1 0x4 DUP5 ADD PUSH2 0x2E0D JUMP JUMPDEST PUSH1 0x5 DUP5 ADD SLOAD PUSH2 0x62D PUSH1 0x6 DUP7 ADD PUSH2 0x2E0D JUMP JUMPDEST PUSH2 0x639 PUSH1 0x7 DUP8 ADD PUSH2 0x2E0D JUMP JUMPDEST PUSH2 0x645 PUSH1 0x8 DUP9 ADD PUSH2 0x2E0D JUMP JUMPDEST SWAP1 PUSH2 0x652 PUSH1 0x9 DUP10 ADD PUSH2 0x2E0D JUMP JUMPDEST SWAP3 PUSH2 0x65F PUSH1 0xA DUP11 ADD PUSH2 0x2E0D JUMP JUMPDEST SWAP5 PUSH2 0x66C PUSH1 0xB DUP12 ADD PUSH2 0x2E0D JUMP JUMPDEST SWAP7 PUSH2 0x679 PUSH1 0xC DUP13 ADD PUSH2 0x2E0D JUMP JUMPDEST SWAP9 PUSH1 0xD DUP13 ADD SLOAD SWAP12 PUSH1 0xE ADD SLOAD SWAP11 PUSH1 0x40 MLOAD SWAP15 DUP16 SWAP15 DUP16 SWAP1 DUP2 MSTORE PUSH1 0x20 ADD MSTORE DUP14 PUSH1 0x40 DUP2 ADD PUSH2 0x280 SWAP1 MSTORE PUSH2 0x280 ADD PUSH2 0x228 SWAP2 PUSH2 0x2D71 JUMP JUMPDEST CALLVALUE PUSH2 0x129 JUMPI PUSH1 0x20 CALLDATASIZE PUSH1 0x3 NOT ADD SLT PUSH2 0x129 JUMPI PUSH1 0x4 CALLDATALOAD PUSH2 0x6CB PUSH1 0x1 SLOAD DUP3 LT PUSH2 0x2F01 JUMP JUMPDEST PUSH1 0x1 PUSH1 0x0 SLOAD PUSH2 0x6DD PUSH1 0xFF DUP3 AND ISZERO PUSH2 0x2F42 JUMP JUMPDEST PUSH1 0xFF NOT AND OR PUSH1 0x0 SSTORE DUP1 PUSH1 0x0 MSTORE PUSH1 0x2 PUSH1 0x20 MSTORE PUSH1 0x40 PUSH1 0x0 KECCAK256 PUSH1 0xE DUP2 ADD SWAP1 PUSH2 0x706 PUSH1 0xFF DUP4 SLOAD AND ISZERO PUSH2 0x30D5 JUMP JUMPDEST PUSH1 0x1 ADD SLOAD PUSH1 0x1 PUSH1 0x1 PUSH1 0xA0 SHL SUB AND CALLER EQ PUSH2 0x7CD JUMPI DUP1 SLOAD PUSH4 0x1000000 PUSH1 0x1 PUSH1 0xB8 SHL SUB NOT AND CALLER PUSH1 0x18 SHL PUSH4 0x1000000 PUSH1 0x1 PUSH1 0xB8 SHL SUB AND OR DUP2 SSTORE DUP1 SLOAD PUSH3 0xFF0000 NOT DUP2 AND PUSH3 0x10000 OR DUP1 DUP4 SSTORE PUSH1 0x8 SHR PUSH1 0xFF AND PUSH2 0x792 JUMPI JUMPDEST DUP3 PUSH1 0x40 MLOAD SWAP1 PUSH1 0x0 DUP3 MSTORE PUSH32 0xC7DB73A2D1DC7FD351B6549EFAD129BBF568E618DBBE683ABFA0D1550A96E5AE PUSH1 0x20 CALLER SWAP4 LOG3 PUSH1 0x0 DUP1 SLOAD PUSH1 0xFF NOT AND SWAP1 SSTORE STOP JUMPDEST PUSH3 0xFF00FF NOT AND PUSH3 0x10001 OR SWAP1 SSTORE CALLER DUP2 PUSH32 0x2C54217AED12A18C71E20E5A6A3F13F8CFDDBB2C3A0A5F409861478C7FD39E81 PUSH1 0x0 DUP1 LOG3 DUP2 DUP1 PUSH2 0x757 JUMP JUMPDEST PUSH1 0x40 MLOAD PUSH3 0x461BCD PUSH1 0xE5 SHL DUP2 MSTORE PUSH1 0x20 PUSH1 0x4 DUP3 ADD MSTORE PUSH1 0x16 PUSH1 0x24 DUP3 ADD MSTORE PUSH22 0x27BBB732B91031B0B73737BA103132903334B73232B9 PUSH1 0x51 SHL PUSH1 0x44 DUP3 ADD MSTORE PUSH1 0x64 SWAP1 REVERT JUMPDEST CALLVALUE PUSH2 0x129 JUMPI PUSH1 0x40 CALLDATASIZE PUSH1 0x3 NOT ADD SLT PUSH2 0x129 JUMPI PUSH1 0x4 CALLDATALOAD PUSH1 0x24 CALLDATALOAD DUP2 ADD PUSH1 0x0 DUP2 DUP4 GT PUSH2 0x900 JUMPI DUP2 SWAP1 PUSH1 0x1 SLOAD DUP1 SWAP4 GT PUSH2 0x8F8 JUMPI JUMPDEST DUP4 JUMPDEST DUP3 DUP2 LT PUSH2 0x8C1 JUMPI POP PUSH2 0x84D SWAP1 PUSH2 0x303D JUMP JUMPDEST SWAP2 PUSH1 0x0 SWAP4 JUMPDEST DUP3 DUP2 LT PUSH2 0x87E JUMPI POP PUSH2 0x873 SWAP4 POP PUSH1 0x40 MLOAD SWAP4 DUP5 SWAP4 PUSH1 0x40 DUP6 MSTORE PUSH1 0x40 DUP6 ADD SWAP1 PUSH2 0x2D1A JUMP JUMPDEST SWAP2 LT PUSH1 0x20 DUP4 ADD MSTORE SUB SWAP1 RETURN JUMPDEST DUP1 PUSH1 0x0 MSTORE PUSH1 0x2 PUSH1 0x20 MSTORE PUSH1 0xFF PUSH1 0xE PUSH1 0x40 PUSH1 0x0 KECCAK256 ADD SLOAD AND ISZERO PUSH2 0x8A1 JUMPI JUMPDEST PUSH1 0x1 ADD PUSH2 0x852 JUMP JUMPDEST SWAP4 PUSH2 0x8B9 DUP2 DUP7 PUSH2 0x8B3 PUSH1 0x1 SWAP5 DUP9 PUSH2 0x306F JUMP JUMPDEST MSTORE PUSH2 0x3017 JUMP JUMPDEST SWAP5 SWAP1 POP PUSH2 0x899 JUMP JUMPDEST DUP1 PUSH1 0x0 MSTORE PUSH1 0x2 PUSH1 0x20 MSTORE PUSH1 0xFF PUSH1 0xE PUSH1 0x40 PUSH1 0x0 KECCAK256 ADD SLOAD AND ISZERO PUSH2 0x8E4 JUMPI JUMPDEST PUSH1 0x1 ADD PUSH2 0x83C JUMP JUMPDEST SWAP1 PUSH2 0x8F0 PUSH1 0x1 SWAP2 PUSH2 0x3017 JUMP JUMPDEST SWAP2 SWAP1 POP PUSH2 0x8DC JUMP JUMPDEST DUP3 SWAP2 POP PUSH2 0x83A JUMP JUMPDEST PUSH4 0x4E487B71 PUSH1 0xE0 SHL PUSH1 0x0 MSTORE PUSH1 0x11 PUSH1 0x4 MSTORE PUSH1 0x24 PUSH1 0x0 REVERT JUMPDEST CALLVALUE PUSH2 0x129 JUMPI PUSH1 0x0 CALLDATASIZE PUSH1 0x3 NOT ADD SLT PUSH2 0x129 JUMPI PUSH1 0x20 PUSH1 0x40 MLOAD PUSH10 0x21E19E0C9BAB2400000 DUP2 MSTORE RETURN JUMPDEST CALLVALUE PUSH2 0x129 JUMPI PUSH1 0x0 CALLDATASIZE PUSH1 0x3 NOT ADD SLT PUSH2 0x129 JUMPI PUSH1 0x0 DUP1 PUSH1 0x1 SLOAD SWAP1 JUMPDEST DUP2 DUP2 LT PUSH2 0x966 JUMPI PUSH1 0x20 DUP4 PUSH1 0x40 MLOAD SWAP1 DUP2 MSTORE RETURN JUMPDEST DUP1 PUSH1 0x0 MSTORE PUSH1 0x2 PUSH1 0x20 MSTORE PUSH1 0xFF PUSH1 0xE PUSH1 0x40 PUSH1 0x0 KECCAK256 ADD SLOAD AND ISZERO PUSH2 0x989 JUMPI JUMPDEST PUSH1 0x1 ADD PUSH2 0x954 JUMP JUMPDEST SWAP2 PUSH2 0x995 PUSH1 0x1 SWAP2 PUSH2 0x3017 JUMP JUMPDEST SWAP3 SWAP1 POP PUSH2 0x981 JUMP JUMPDEST CALLVALUE PUSH2 0x129 JUMPI PUSH1 0x20 CALLDATASIZE PUSH1 0x3 NOT ADD SLT PUSH2 0x129 JUMPI PUSH1 0x4 CALLDATALOAD PUSH1 0x1 PUSH1 0x1 PUSH1 0xA0 SHL SUB DUP2 AND SWAP1 DUP2 DUP2 SUB PUSH2 0x129 JUMPI PUSH1 0x0 SLOAD SWAP1 PUSH2 0x9DF CALLER PUSH1 0x8 DUP5 SWAP1 SHR PUSH1 0x1 PUSH1 0x1 PUSH1 0xA0 SHL SUB AND EQ PUSH2 0x2EB1 JUMP JUMPDEST DUP3 ISZERO PUSH2 0xA2E JUMPI PUSH2 0x100 PUSH1 0x1 PUSH1 0xA8 SHL SUB NOT SWAP1 SWAP2 AND PUSH1 0x8 SWAP2 SWAP1 SWAP2 SHL PUSH2 0x100 PUSH1 0x1 PUSH1 0xA8 SHL SUB AND OR PUSH1 0x0 SWAP1 DUP2 SSTORE PUSH32 0x7CE7EC0B50378FB6C0186FFB5F48325F6593FCB4CA4386F21861AF3129188F5C SWAP1 DUP1 LOG2 STOP JUMPDEST PUSH1 0x40 MLOAD PUSH3 0x461BCD PUSH1 0xE5 SHL DUP2 MSTORE PUSH1 0x20 PUSH1 0x4 DUP3 ADD MSTORE PUSH1 0xF PUSH1 0x24 DUP3 ADD MSTORE PUSH15 0x496E76616C69642061646472657373 PUSH1 0x88 SHL PUSH1 0x44 DUP3 ADD MSTORE PUSH1 0x64 SWAP1 REVERT JUMPDEST CALLVALUE PUSH2 0x129 JUMPI PUSH1 0x20 CALLDATASIZE PUSH1 0x3 NOT ADD SLT PUSH2 0x129 JUMPI PUSH1 0x4 CALLDATALOAD DUP1 PUSH1 0x0 MSTORE PUSH1 0x2 PUSH1 0x20 MSTORE PUSH2 0xA9D PUSH1 0x1 DUP1 PUSH1 0xA0 SHL SUB PUSH1 0x1 PUSH1 0x40 PUSH1 0x0 KECCAK256 ADD SLOAD AND CALLER EQ PUSH2 0x3099 JUMP JUMPDEST PUSH1 0x1 PUSH1 0x0 SLOAD PUSH2 0xAAF PUSH1 0xFF DUP3 AND ISZERO PUSH2 0x2F42 JUMP JUMPDEST PUSH1 0xFF NOT AND OR PUSH1 0x0 SSTORE DUP1 PUSH1 0x0 MSTORE PUSH1 0x2 PUSH1 0x20 MSTORE PUSH1 0xE PUSH1 0x40 PUSH1 0x0 KECCAK256 ADD DUP1 SLOAD PUSH2 0xAD7 PUSH1 0xFF DUP3 AND ISZERO PUSH2 0x30D5 JUMP JUMPDEST PUSH1 0x18 DUP2 SWAP1 SHR PUSH1 0x1 PUSH1 0x1 PUSH1 0xA0 SHL SUB AND ISZERO PUSH2 0xB83 JUMPI PUSH2 0xFF00 NOT DUP2 AND PUSH2 0x100 OR DUP1 DUP4 SSTORE PUSH1 0x10 SHR PUSH1 0xFF AND PUSH2 0xB3D JUMPI JUMPDEST DUP3 PUSH1 0x40 MLOAD SWAP1 PUSH1 0x1 DUP3 MSTORE PUSH32 0xC7DB73A2D1DC7FD351B6549EFAD129BBF568E618DBBE683ABFA0D1550A96E5AE PUSH1 0x20 CALLER SWAP4 LOG3 PUSH1 0x0 DUP1 SLOAD PUSH1 0xFF NOT AND SWAP1 SSTORE STOP JUMPDEST PUSH2 0xFFFF NOT AND PUSH2 0x101 OR SWAP1 DUP2 SWAP1 SSTORE PUSH1 0x18 SHR PUSH1 0x1 PUSH1 0x1 PUSH1 0xA0 SHL SUB AND DUP2 PUSH32 0x2C54217AED12A18C71E20E5A6A3F13F8CFDDBB2C3A0A5F409861478C7FD39E81 PUSH1 0x0 DUP1 LOG3 DUP2 DUP1 PUSH2 0xB02 JUMP JUMPDEST PUSH1 0x40 MLOAD PUSH3 0x461BCD PUSH1 0xE5 SHL DUP2 MSTORE PUSH1 0x20 PUSH1 0x4 DUP3 ADD MSTORE PUSH1 0x12 PUSH1 0x24 DUP3 ADD MSTORE PUSH18 0x139BC8199A5B99195C88185CDCDA59DB9959 PUSH1 0x72 SHL PUSH1 0x44 DUP3 ADD MSTORE PUSH1 0x64 SWAP1 REVERT JUMPDEST CALLVALUE PUSH2 0x129 JUMPI PUSH1 0x0 CALLDATASIZE PUSH1 0x3 NOT ADD SLT PUSH2 0x129 JUMPI PUSH1 0x0 DUP1 PUSH1 0x1 SLOAD SWAP1 JUMPDEST DUP2 DUP2 LT PUSH2 0x1093 JUMPI POP PUSH2 0xBE7 DUP3 PUSH2 0x303D JUMP JUMPDEST SWAP1 PUSH2 0xBF1 DUP4 PUSH2 0x3026 JUMP JUMPDEST SWAP3 PUSH2 0xBFF PUSH1 0x40 MLOAD SWAP5 DUP6 PUSH2 0x2DEC JUMP JUMPDEST DUP1 DUP5 MSTORE PUSH2 0xC0E PUSH1 0x1F NOT SWAP2 PUSH2 0x3026 JUMP JUMPDEST ADD PUSH1 0x0 JUMPDEST DUP2 DUP2 LT PUSH2 0xFE5 JUMPI POP POP PUSH1 0x0 DUP1 JUMPDEST DUP3 DUP2 LT PUSH2 0xE34 JUMPI POP POP POP PUSH2 0xC3E PUSH1 0x40 MLOAD SWAP2 PUSH1 0x40 DUP4 MSTORE PUSH1 0x40 DUP4 ADD SWAP1 PUSH2 0x2D1A JUMP JUMPDEST SWAP2 DUP2 DUP4 SUB PUSH1 0x20 DUP4 ADD MSTORE DUP1 MLOAD SWAP3 DUP4 DUP2 MSTORE PUSH1 0x20 DUP2 ADD SWAP1 PUSH1 0x20 DUP1 DUP7 PUSH1 0x5 SHL DUP4 ADD ADD SWAP4 ADD SWAP2 PUSH1 0x0 SWAP2 JUMPDEST DUP7 DUP4 LT PUSH2 0xC70 JUMPI DUP6 DUP6 SUB DUP7 RETURN JUMPDEST SWAP1 SWAP2 SWAP3 SWAP4 PUSH1 0x1F NOT DUP3 DUP3 SUB ADD DUP4 MSTORE DUP5 MLOAD SWAP1 DUP2 MLOAD DUP2 MSTORE PUSH1 0x1 PUSH1 0xA0 SHL PUSH1 0x1 SWAP1 SUB PUSH1 0x20 DUP4 ADD MLOAD AND PUSH1 0x20 DUP3 ADD MSTORE PUSH1 0x40 DUP3 ADD MLOAD PUSH1 0x40 DUP3 ADD PUSH2 0x280 SWAP1 MSTORE PUSH2 0x280 DUP3 ADD PUSH2 0xCB4 SWAP2 PUSH2 0x2D71 JUMP JUMPDEST PUSH1 0x60 DUP4 ADD MLOAD SWAP1 DUP3 DUP2 SUB PUSH1 0x60 DUP5 ADD MSTORE PUSH2 0xCCB SWAP2 PUSH2 0x2D71 JUMP JUMPDEST PUSH1 0x80 DUP4 ADD MLOAD SWAP1 DUP3 DUP2 SUB PUSH1 0x80 DUP5 ADD MSTORE PUSH2 0xCE2 SWAP2 PUSH2 0x2D71 JUMP JUMPDEST PUSH1 0xA0 DUP4 ADD MLOAD PUSH1 0x1 PUSH1 0x1 PUSH1 0x80 SHL SUB AND PUSH1 0xA0 DUP4 ADD MSTORE PUSH1 0xC0 DUP4 ADD MLOAD PUSH1 0x1 PUSH1 0x1 PUSH1 0x80 SHL SUB AND PUSH1 0xC0 DUP4 ADD MSTORE PUSH1 0xE0 DUP4 ADD MLOAD SWAP1 DUP3 DUP2 SUB PUSH1 0xE0 DUP5 ADD MSTORE PUSH2 0xD1F SWAP2 PUSH2 0x2D71 JUMP JUMPDEST PUSH2 0x100 DUP4 ADD MLOAD SWAP1 DUP3 DUP2 SUB PUSH2 0x100 DUP5 ADD MSTORE PUSH2 0xD38 SWAP2 PUSH2 0x2D71 JUMP JUMPDEST PUSH2 0x120 DUP4 ADD MLOAD SWAP1 DUP3 DUP2 SUB PUSH2 0x120 DUP5 ADD MSTORE PUSH2 0xD51 SWAP2 PUSH2 0x2D71 JUMP JUMPDEST PUSH2 0x140 DUP4 ADD MLOAD SWAP1 DUP3 DUP2 SUB PUSH2 0x140 DUP5 ADD MSTORE PUSH2 0xD6A SWAP2 PUSH2 0x2D71 JUMP JUMPDEST PUSH2 0x160 DUP4 ADD MLOAD SWAP1 DUP3 DUP2 SUB PUSH2 0x160 DUP5 ADD MSTORE PUSH2 0xD83 SWAP2 PUSH2 0x2D71 JUMP JUMPDEST PUSH2 0x180 DUP4 ADD MLOAD SWAP1 DUP3 DUP2 SUB PUSH2 0x180 DUP5 ADD MSTORE PUSH2 0xD9C SWAP2 PUSH2 0x2D71 JUMP JUMPDEST PUSH2 0x1A0 DUP4 ADD MLOAD SWAP1 DUP3 DUP2 SUB PUSH2 0x1A0 DUP5 ADD MSTORE PUSH2 0xDB5 SWAP2 PUSH2 0x2D71 JUMP JUMPDEST SWAP2 PUSH2 0x1C0 DUP2 ADD MLOAD PUSH1 0x1 PUSH1 0x1 PUSH1 0x80 SHL SUB AND PUSH2 0x1C0 DUP4 ADD MSTORE PUSH2 0x1E0 DUP2 ADD MLOAD PUSH1 0x1 PUSH1 0x1 PUSH1 0x80 SHL SUB AND PUSH2 0x1E0 DUP4 ADD MSTORE PUSH2 0x200 DUP2 ADD MLOAD ISZERO ISZERO PUSH2 0x200 DUP4 ADD MSTORE PUSH2 0x220 DUP2 ADD MLOAD ISZERO ISZERO PUSH2 0x220 DUP4 ADD MSTORE PUSH2 0x240 DUP2 ADD MLOAD ISZERO ISZERO PUSH2 0x240 DUP4 ADD MSTORE PUSH1 0x1 PUSH1 0xA0 SHL PUSH1 0x1 SWAP1 SUB SWAP1 PUSH2 0x260 ADD MLOAD AND SWAP1 PUSH2 0x260 ADD MSTORE SWAP4 PUSH1 0x20 ADD SWAP2 PUSH1 0x20 ADD SWAP3 PUSH1 0x1 ADD SWAP2 SWAP3 SWAP1 PUSH2 0xC63 JUMP JUMPDEST DUP1 PUSH1 0x0 MSTORE PUSH1 0x2 PUSH1 0x20 MSTORE PUSH1 0xFF PUSH1 0xE PUSH1 0x40 PUSH1 0x0 KECCAK256 ADD SLOAD AND ISZERO PUSH2 0xE57 JUMPI JUMPDEST PUSH1 0x1 ADD PUSH2 0xC1F JUMP JUMPDEST SWAP1 PUSH2 0xFDD DUP2 DUP4 PUSH2 0xE69 PUSH1 0x1 SWAP5 DUP9 PUSH2 0x306F JUMP JUMPDEST MSTORE DUP4 PUSH1 0x0 MSTORE PUSH1 0x2 PUSH1 0x20 MSTORE PUSH1 0x40 PUSH1 0x0 KECCAK256 PUSH1 0xE PUSH1 0x40 MLOAD SWAP2 PUSH2 0xE87 DUP4 PUSH2 0x2DD0 JUMP JUMPDEST DUP1 SLOAD DUP4 MSTORE DUP6 DUP1 PUSH1 0xA0 SHL SUB DUP7 DUP3 ADD SLOAD AND PUSH1 0x20 DUP5 ADD MSTORE PUSH2 0xEA7 PUSH1 0x2 DUP3 ADD PUSH2 0x2E0D JUMP JUMPDEST PUSH1 0x40 DUP5 ADD MSTORE PUSH2 0xEB8 PUSH1 0x3 DUP3 ADD PUSH2 0x2E0D JUMP JUMPDEST PUSH1 0x60 DUP5 ADD MSTORE PUSH2 0xEC9 PUSH1 0x4 DUP3 ADD PUSH2 0x2E0D JUMP JUMPDEST PUSH1 0x80 DUP5 ADD MSTORE PUSH1 0x5 DUP2 ADD SLOAD PUSH1 0x1 PUSH1 0x1 PUSH1 0x80 SHL SUB DUP2 AND PUSH1 0xA0 DUP6 ADD MSTORE PUSH1 0x80 SHR PUSH1 0xC0 DUP5 ADD MSTORE PUSH2 0xEF6 PUSH1 0x6 DUP3 ADD PUSH2 0x2E0D JUMP JUMPDEST PUSH1 0xE0 DUP5 ADD MSTORE PUSH2 0xF07 PUSH1 0x7 DUP3 ADD PUSH2 0x2E0D JUMP JUMPDEST PUSH2 0x100 DUP5 ADD MSTORE PUSH2 0xF19 PUSH1 0x8 DUP3 ADD PUSH2 0x2E0D JUMP JUMPDEST PUSH2 0x120 DUP5 ADD MSTORE PUSH2 0xF2B PUSH1 0x9 DUP3 ADD PUSH2 0x2E0D JUMP JUMPDEST PUSH2 0x140 DUP5 ADD MSTORE PUSH2 0xF3D PUSH1 0xA DUP3 ADD PUSH2 0x2E0D JUMP JUMPDEST PUSH2 0x160 DUP5 ADD MSTORE PUSH2 0xF4F PUSH1 0xB DUP3 ADD PUSH2 0x2E0D JUMP JUMPDEST PUSH2 0x180 DUP5 ADD MSTORE PUSH2 0xF61 PUSH1 0xC DUP3 ADD PUSH2 0x2E0D JUMP JUMPDEST PUSH2 0x1A0 DUP5 ADD MSTORE PUSH1 0xD DUP2 ADD SLOAD PUSH1 0x1 PUSH1 0x1 PUSH1 0x80 SHL SUB DUP2 AND PUSH2 0x1C0 DUP6 ADD MSTORE PUSH1 0x80 SHR PUSH2 0x1E0 DUP5 ADD MSTORE ADD SLOAD PUSH1 0xFF DUP2 AND ISZERO ISZERO PUSH2 0x200 DUP4 ADD MSTORE PUSH1 0xFF DUP2 PUSH1 0x8 SHR AND ISZERO ISZERO PUSH2 0x220 DUP4 ADD MSTORE PUSH1 0xFF DUP2 PUSH1 0x10 SHR AND ISZERO ISZERO PUSH2 0x240 DUP4 ADD MSTORE DUP5 DUP1 PUSH1 0xA0 SHL SUB SWAP1 PUSH1 0x18 SHR AND PUSH2 0x260 DUP3 ADD MSTORE PUSH2 0xFCC DUP3 DUP10 PUSH2 0x306F JUMP JUMPDEST MSTORE PUSH2 0xFD7 DUP2 DUP9 PUSH2 0x306F JUMP JUMPDEST POP PUSH2 0x3017 JUMP JUMPDEST SWAP2 SWAP1 POP PUSH2 0xE4F JUMP JUMPDEST PUSH1 0x20 SWAP1 PUSH1 0x40 MLOAD PUSH2 0xFF4 DUP2 PUSH2 0x2DD0 JUMP JUMPDEST PUSH1 0x0 DUP2 MSTORE PUSH1 0x0 DUP4 DUP3 ADD MSTORE PUSH1 0x60 PUSH1 0x40 DUP3 ADD MSTORE PUSH1 0x60 DUP1 DUP3 ADD MSTORE PUSH1 0x60 PUSH1 0x80 DUP3 ADD MSTORE PUSH1 0x0 PUSH1 0xA0 DUP3 ADD MSTORE PUSH1 0x0 PUSH1 0xC0 DUP3 ADD MSTORE PUSH1 0x60 PUSH1 0xE0 DUP3 ADD MSTORE PUSH1 0x60 PUSH2 0x100 DUP3 ADD MSTORE PUSH1 0x60 PUSH2 0x120 DUP3 ADD MSTORE PUSH1 0x60 PUSH2 0x140 DUP3 ADD MSTORE PUSH1 0x60 PUSH2 0x160 DUP3 ADD MSTORE PUSH1 0x60 PUSH2 0x180 DUP3 ADD MSTORE PUSH1 0x60 PUSH2 0x1A0 DUP3 ADD MSTORE PUSH1 0x0 PUSH2 0x1C0 DUP3 ADD MSTORE PUSH1 0x0 PUSH2 0x1E0 DUP3 ADD MSTORE PUSH1 0x0 PUSH2 0x200 DUP3 ADD MSTORE PUSH1 0x0 PUSH2 0x220 DUP3 ADD MSTORE PUSH1 0x0 PUSH2 0x240 DUP3 ADD MSTORE PUSH1 0x0 PUSH2 0x260 DUP3 ADD MSTORE DUP3 DUP3 DUP9 ADD ADD MSTORE ADD PUSH2 0xC12 JUMP JUMPDEST DUP1 PUSH1 0x0 MSTORE PUSH1 0x2 PUSH1 0x20 MSTORE PUSH1 0xFF PUSH1 0xE PUSH1 0x40 PUSH1 0x0 KECCAK256 ADD SLOAD AND ISZERO PUSH2 0x10B6 JUMPI JUMPDEST PUSH1 0x1 ADD PUSH2 0xBD6 JUMP JUMPDEST SWAP2 PUSH2 0x10C2 PUSH1 0x1 SWAP2 PUSH2 0x3017 JUMP JUMPDEST SWAP3 SWAP1 POP PUSH2 0x10AE JUMP JUMPDEST PUSH2 0x1A0 CALLDATASIZE PUSH1 0x3 NOT ADD SLT PUSH2 0x129 JUMPI PUSH1 0x4 CALLDATALOAD PUSH1 0x1 PUSH1 0x1 PUSH1 0x40 SHL SUB DUP2 GT PUSH2 0x129 JUMPI PUSH2 0x10F6 SWAP1 CALLDATASIZE SWAP1 PUSH1 0x4 ADD PUSH2 0x2CED JUMP JUMPDEST PUSH2 0x3A0 MSTORE PUSH2 0x2E0 MSTORE PUSH1 0x24 CALLDATALOAD PUSH1 0x1 PUSH1 0x1 PUSH1 0x40 SHL SUB DUP2 GT PUSH2 0x129 JUMPI PUSH2 0x111D SWAP1 CALLDATASIZE SWAP1 PUSH1 0x4 ADD PUSH2 0x2CED JUMP JUMPDEST PUSH2 0x100 MSTORE PUSH2 0x140 MSTORE PUSH1 0x44 CALLDATALOAD PUSH1 0x1 PUSH1 0x1 PUSH1 0x40 SHL SUB DUP2 GT PUSH2 0x129 JUMPI PUSH2 0x1144 SWAP1 CALLDATASIZE SWAP1 PUSH1 0x4 ADD PUSH2 0x2CED JUMP JUMPDEST PUSH2 0x3E0 MSTORE PUSH2 0x160 MSTORE PUSH1 0x64 CALLDATALOAD PUSH2 0x1A0 DUP2 SWAP1 MSTORE PUSH1 0x1 PUSH1 0x1 PUSH1 0x80 SHL SUB DUP2 AND SWAP1 SUB PUSH2 0x129 JUMPI PUSH1 0x84 CALLDATALOAD PUSH2 0x200 DUP2 SWAP1 MSTORE PUSH1 0x1 PUSH1 0x1 PUSH1 0x80 SHL SUB DUP2 AND SWAP1 SUB PUSH2 0x129 JUMPI PUSH1 0xA4 CALLDATALOAD PUSH1 0x1 PUSH1 0x1 PUSH1 0x40 SHL SUB DUP2 GT PUSH2 0x129 JUMPI PUSH2 0x119D SWAP1 CALLDATASIZE SWAP1 PUSH1 0x4 ADD PUSH2 0x2CED JUMP JUMPDEST PUSH2 0x220 MSTORE PUSH2 0x280 MSTORE PUSH1 0xC4 CALLDATALOAD PUSH1 0x1 PUSH1 0x1 PUSH1 0x40 SHL SUB DUP2 GT PUSH2 0x129 JUMPI PUSH2 0x11C4 SWAP1 CALLDATASIZE SWAP1 PUSH1 0x4 ADD PUSH2 0x2CED JUMP JUMPDEST PUSH2 0x2A0 MSTORE PUSH2 0x2C0 MSTORE PUSH1 0xE4 CALLDATALOAD PUSH1 0x1 PUSH1 0x1 PUSH1 0x40 SHL SUB DUP2 GT PUSH2 0x129 JUMPI PUSH2 0x11EB SWAP1 CALLDATASIZE SWAP1 PUSH1 0x4 ADD PUSH2 0x2CED JUMP JUMPDEST PUSH2 0x380 MSTORE PUSH2 0x300 MSTORE PUSH2 0x104 CALLDATALOAD PUSH1 0x1 PUSH1 0x1 PUSH1 0x40 SHL SUB DUP2 GT PUSH2 0x129 JUMPI PUSH2 0x1213 SWAP1 CALLDATASIZE SWAP1 PUSH1 0x4 ADD PUSH2 0x2CED JUMP JUMPDEST PUSH2 0x320 MSTORE PUSH2 0x340 MSTORE PUSH1 0x1 PUSH1 0x1 PUSH1 0x40 SHL SUB PUSH2 0x124 CALLDATALOAD GT PUSH2 0x129 JUMPI PUSH2 0x123C CALLDATASIZE PUSH2 0x124 CALLDATALOAD PUSH1 0x4 ADD PUSH2 0x2CED JUMP JUMPDEST PUSH2 0x3C0 MSTORE PUSH2 0x360 MSTORE PUSH1 0x1 PUSH1 0x1 PUSH1 0x40 SHL SUB PUSH2 0x144 CALLDATALOAD GT PUSH2 0x129 JUMPI PUSH2 0x1265 CALLDATASIZE PUSH2 0x144 CALLDATALOAD PUSH1 0x4 ADD PUSH2 0x2CED JUMP JUMPDEST PUSH2 0x240 MSTORE PUSH2 0x260 MSTORE PUSH2 0x164 CALLDATALOAD PUSH1 0x1 PUSH1 0x1 PUSH1 0x40 SHL SUB DUP2 GT PUSH2 0x129 JUMPI PUSH2 0x128D SWAP1 CALLDATASIZE SWAP1 PUSH1 0x4 ADD PUSH2 0x2CED JUMP JUMPDEST PUSH2 0x1E0 MSTORE PUSH2 0x1C0 MSTORE PUSH2 0x184 CALLDATALOAD PUSH2 0x180 DUP2 SWAP1 MSTORE PUSH1 0x1 PUSH1 0x1 PUSH1 0x80 SHL SUB DUP2 AND SWAP1 SUB PUSH2 0x129 JUMPI PUSH1 0x1 PUSH1 0x0 SLOAD PUSH2 0x12C1 PUSH1 0xFF DUP3 AND ISZERO PUSH2 0x2F42 JUMP JUMPDEST PUSH1 0xFF NOT AND OR PUSH1 0x0 SSTORE PUSH8 0x8AC7230489E80000 CALLVALUE GT PUSH2 0x2860 JUMPI PUSH10 0x21E19E0C9BAB2400000 PUSH1 0x1 PUSH1 0x1 PUSH1 0x80 SHL SUB PUSH2 0x180 MLOAD AND GT PUSH2 0x2823 JUMPI CALLVALUE ISZERO DUP1 ISZERO SWAP1 PUSH2 0x280E JUMPI JUMPDEST ISZERO PUSH2 0x27D7 JUMPI PUSH1 0x40 PUSH2 0x120 DUP2 SWAP1 MSTORE DUP1 MLOAD PUSH2 0x133A SWAP2 PUSH2 0x131C SWAP1 DUP3 PUSH2 0x2DEC JUMP JUMPDEST PUSH1 0x4 DUP2 MSTORE PUSH4 0x4E616D65 PUSH1 0xE0 SHL PUSH1 0x20 DUP3 ADD MSTORE PUSH2 0x3A0 MLOAD PUSH2 0x2E0 MLOAD PUSH2 0x3141 JUMP JUMPDEST PUSH2 0x120 MLOAD DUP1 MLOAD PUSH2 0x136D SWAP2 PUSH2 0x134E SWAP1 DUP3 PUSH2 0x2DEC JUMP JUMPDEST PUSH1 0x5 DUP2 MSTORE PUSH5 0x109C995959 PUSH1 0xDA SHL PUSH1 0x20 DUP3 ADD MSTORE PUSH2 0x100 MLOAD PUSH2 0x140 MLOAD PUSH2 0x3141 JUMP JUMPDEST PUSH2 0x120 MLOAD DUP1 MLOAD PUSH2 0x1458 SWAP2 PUSH2 0x1381 SWAP1 DUP3 PUSH2 0x2DEC JUMP JUMPDEST PUSH1 0x6 DUP2 MSTORE PUSH6 0x23B2B73232B9 PUSH1 0xD1 SHL PUSH1 0x20 DUP3 ADD MSTORE PUSH2 0x140D PUSH2 0x13A8 CALLDATASIZE PUSH2 0x3E0 MLOAD PUSH2 0x160 MLOAD PUSH2 0x2FD1 JUMP JUMPDEST PUSH2 0x1408 DUP2 MLOAD PUSH1 0x1 DUP2 LT ISZERO SWAP1 DUP2 PUSH2 0x27CB JUMPI JUMPDEST POP PUSH2 0x120 MLOAD MLOAD SWAP1 PUSH2 0x1403 PUSH1 0xF PUSH1 0x20 DUP5 DUP10 MLOAD PUSH2 0x13DA DUP2 DUP13 DUP6 DUP1 DUP7 ADD SWAP2 ADD PUSH2 0x2D4E JUMP JUMPDEST DUP2 ADD PUSH15 0x81B195B99DD1A081A5B9D985B1A59 PUSH1 0x8A SHL DUP4 DUP3 ADD MSTORE SUB ADD PUSH1 0x10 NOT DUP2 ADD DUP6 MSTORE ADD DUP4 PUSH2 0x2DEC JUMP JUMPDEST PUSH2 0x3111 JUMP JUMPDEST PUSH2 0x32D6 JUMP JUMPDEST ISZERO PUSH2 0x1403 PUSH1 0x10 PUSH1 0x20 PUSH2 0x120 MLOAD MLOAD DUP6 PUSH2 0x142E DUP3 SWAP8 MLOAD DUP1 SWAP3 DUP6 DUP1 DUP7 ADD SWAP2 ADD PUSH2 0x2D4E JUMP JUMPDEST DUP2 ADD PUSH16 0x2063616E6E6F7420626520626C616E6B PUSH1 0x80 SHL DUP4 DUP3 ADD MSTORE SUB ADD PUSH1 0xF NOT DUP2 ADD DUP6 MSTORE ADD DUP4 PUSH2 0x2DEC JUMP JUMPDEST PUSH2 0x120 MLOAD POP PUSH2 0x1517 PUSH2 0x142E PUSH2 0x120 MLOAD MLOAD PUSH2 0x1475 PUSH2 0x120 MLOAD DUP3 PUSH2 0x2DEC JUMP JUMPDEST PUSH1 0xB DUP2 MSTORE PUSH2 0x1403 PUSH1 0x10 PUSH1 0x20 DUP1 DUP5 ADD SWAP4 PUSH11 0x2232B9B1B934B83A34B7B7 PUSH1 0xA9 SHL DUP6 MSTORE PUSH2 0x1501 PUSH2 0x14A9 CALLDATASIZE PUSH2 0x2A0 MLOAD PUSH2 0x2C0 MLOAD PUSH2 0x2FD1 JUMP JUMPDEST PUSH2 0x1408 DUP2 MLOAD PUSH1 0xA DUP2 LT ISZERO SWAP1 DUP2 PUSH2 0x27BE JUMPI JUMPDEST POP PUSH2 0x120 MLOAD MLOAD SWAP1 PUSH2 0x1403 PUSH1 0xF DUP9 DUP5 DUP14 PUSH2 0x14D9 DUP12 MLOAD DUP1 SWAP3 DUP6 DUP6 ADD SWAP1 PUSH2 0x2D4E JUMP JUMPDEST DUP2 ADD PUSH15 0x81B195B99DD1A081A5B9D985B1A59 PUSH1 0x8A SHL DUP4 DUP3 ADD MSTORE SUB ADD DUP11 NOT DUP2 ADD DUP6 MSTORE ADD DUP4 PUSH2 0x2DEC JUMP JUMPDEST ISZERO SWAP5 PUSH2 0x120 MLOAD MLOAD SWAP7 DUP8 SWAP3 MLOAD DUP1 SWAP3 DUP6 DUP6 ADD SWAP1 PUSH2 0x2D4E JUMP JUMPDEST PUSH2 0x120 MLOAD POP PUSH2 0x1595 PUSH2 0x142E PUSH2 0x120 MLOAD MLOAD PUSH2 0x1534 PUSH2 0x120 MLOAD DUP3 PUSH2 0x2DEC JUMP JUMPDEST PUSH1 0x9 DUP2 MSTORE PUSH2 0x1403 PUSH1 0x10 PUSH1 0x20 DUP1 DUP5 ADD SWAP4 PUSH9 0x125B5859D948155493 PUSH1 0xBA SHL DUP6 MSTORE PUSH2 0x1501 PUSH2 0x1566 CALLDATASIZE PUSH2 0x380 MLOAD PUSH2 0x300 MLOAD PUSH2 0x2FD1 JUMP JUMPDEST PUSH2 0x1408 DUP2 MLOAD PUSH1 0xA DUP2 LT ISZERO SWAP1 DUP2 PUSH2 0x27B2 JUMPI POP PUSH2 0x120 MLOAD MLOAD SWAP1 PUSH2 0x1403 PUSH1 0xF DUP9 DUP5 DUP14 PUSH2 0x14D9 DUP12 MLOAD DUP1 SWAP3 DUP6 DUP6 ADD SWAP1 PUSH2 0x2D4E JUMP JUMPDEST PUSH2 0x120 MLOAD POP PUSH2 0x1612 PUSH2 0x142E PUSH2 0x120 MLOAD MLOAD PUSH2 0x15B2 PUSH2 0x120 MLOAD DUP3 PUSH2 0x2DEC JUMP JUMPDEST PUSH1 0x8 DUP2 MSTORE PUSH2 0x1403 PUSH1 0x10 PUSH1 0x20 DUP1 DUP5 ADD SWAP4 PUSH8 0x2637B1B0BA34B7B7 PUSH1 0xC1 SHL DUP6 MSTORE PUSH2 0x1501 PUSH2 0x15E3 CALLDATASIZE PUSH2 0x320 MLOAD PUSH2 0x340 MLOAD PUSH2 0x2FD1 JUMP JUMPDEST PUSH2 0x1408 DUP2 MLOAD PUSH1 0x5 DUP2 LT ISZERO SWAP1 DUP2 PUSH2 0x27B2 JUMPI POP PUSH2 0x120 MLOAD MLOAD SWAP1 PUSH2 0x1403 PUSH1 0xF DUP9 DUP5 DUP14 PUSH2 0x14D9 DUP12 MLOAD DUP1 SWAP3 DUP6 DUP6 ADD SWAP1 PUSH2 0x2D4E JUMP JUMPDEST PUSH2 0x120 MLOAD POP PUSH2 0x1693 PUSH2 0x142E PUSH2 0x120 MLOAD MLOAD PUSH2 0x162F PUSH2 0x120 MLOAD DUP3 PUSH2 0x2DEC JUMP JUMPDEST PUSH1 0xC DUP2 MSTORE PUSH2 0x1403 PUSH1 0x10 PUSH1 0x20 DUP1 DUP5 ADD SWAP4 PUSH12 0x436F6E74616374206E616D65 PUSH1 0xA0 SHL DUP6 MSTORE PUSH2 0x1501 PUSH2 0x1664 CALLDATASIZE PUSH2 0x3C0 MLOAD PUSH2 0x360 MLOAD PUSH2 0x2FD1 JUMP JUMPDEST PUSH2 0x1408 DUP2 MLOAD PUSH1 0x2 DUP2 LT ISZERO SWAP1 DUP2 PUSH2 0x27A6 JUMPI POP PUSH2 0x120 MLOAD MLOAD SWAP1 PUSH2 0x1403 PUSH1 0xF DUP9 DUP5 DUP14 PUSH2 0x14D9 DUP12 MLOAD DUP1 SWAP3 DUP6 DUP6 ADD SWAP1 PUSH2 0x2D4E JUMP JUMPDEST PUSH2 0x120 MLOAD POP PUSH2 0x1715 PUSH2 0x142E PUSH2 0x120 MLOAD MLOAD PUSH2 0x16B0 PUSH2 0x120 MLOAD DUP3 PUSH2 0x2DEC JUMP JUMPDEST PUSH1 0xD DUP2 MSTORE PUSH2 0x1403 PUSH1 0x10 PUSH1 0x20 DUP1 DUP5 ADD SWAP4 PUSH13 0x436F6E746163742070686F6E65 PUSH1 0x98 SHL DUP6 MSTORE PUSH2 0x1501 PUSH2 0x16E6 CALLDATASIZE PUSH2 0x240 MLOAD PUSH2 0x260 MLOAD PUSH2 0x2FD1 JUMP JUMPDEST PUSH2 0x1408 DUP2 MLOAD PUSH1 0x5 DUP2 LT ISZERO SWAP1 DUP2 PUSH2 0x279A JUMPI POP PUSH2 0x120 MLOAD MLOAD SWAP1 PUSH2 0x1403 PUSH1 0xF DUP9 DUP5 DUP14 PUSH2 0x14D9 DUP12 MLOAD DUP1 SWAP3 DUP6 DUP6 ADD SWAP1 PUSH2 0x2D4E JUMP JUMPDEST PUSH1 0xA PUSH1 0x1 PUSH1 0x1 PUSH1 0x80 SHL SUB PUSH2 0x1A0 MLOAD AND LT ISZERO DUP1 PUSH2 0x2783 JUMPI JUMPDEST ISZERO PUSH2 0x274D JUMPI PUSH1 0x1 PUSH1 0x1 PUSH1 0x1 PUSH1 0x80 SHL SUB PUSH2 0x200 MLOAD AND LT ISZERO DUP1 PUSH2 0x2736 JUMPI JUMPDEST ISZERO PUSH2 0x2701 JUMPI PUSH2 0x1766 PUSH2 0x1761 CALLDATASIZE PUSH2 0x1E0 MLOAD PUSH2 0x1C0 MLOAD PUSH2 0x2FD1 JUMP JUMPDEST PUSH2 0x3230 JUMP JUMPDEST ISZERO PUSH2 0x26CA JUMPI PUSH1 0x1 PUSH1 0x1 PUSH1 0x80 SHL SUB PUSH2 0x180 MLOAD AND PUSH2 0x25E5 JUMPI JUMPDEST PUSH1 0x1 SLOAD PUSH1 0xE0 MSTORE PUSH2 0x120 MLOAD MLOAD PUSH1 0xC0 MSTORE PUSH2 0x1796 PUSH1 0xC0 MLOAD PUSH2 0x2DD0 JUMP JUMPDEST PUSH1 0xE0 MLOAD PUSH1 0xC0 MLOAD MSTORE CALLER PUSH1 0x20 PUSH1 0xC0 MLOAD ADD MSTORE PUSH2 0x17B6 CALLDATASIZE PUSH2 0x3A0 MLOAD PUSH2 0x2E0 MLOAD PUSH2 0x2FD1 JUMP JUMPDEST PUSH2 0x120 MLOAD PUSH1 0xC0 MLOAD ADD MSTORE PUSH2 0x17D0 CALLDATASIZE PUSH2 0x100 MLOAD PUSH2 0x140 MLOAD PUSH2 0x2FD1 JUMP JUMPDEST PUSH1 0x60 PUSH1 0xC0 MLOAD ADD MSTORE PUSH2 0x17E8 CALLDATASIZE PUSH2 0x3E0 MLOAD PUSH2 0x160 MLOAD PUSH2 0x2FD1 JUMP JUMPDEST PUSH1 0x80 PUSH1 0xC0 MLOAD ADD MSTORE PUSH1 0x1 PUSH1 0x1 PUSH1 0x80 SHL SUB PUSH2 0x1A0 MLOAD AND PUSH1 0xA0 PUSH1 0xC0 MLOAD ADD MSTORE PUSH1 0x1 PUSH1 0x1 PUSH1 0x80 SHL SUB PUSH2 0x200 MLOAD AND PUSH1 0xC0 DUP1 MLOAD ADD MSTORE PUSH2 0x1827 CALLDATASIZE PUSH2 0x220 MLOAD PUSH2 0x280 MLOAD PUSH2 0x2FD1 JUMP JUMPDEST PUSH1 0xE0 PUSH1 0xC0 MLOAD ADD MSTORE PUSH2 0x183F CALLDATASIZE PUSH2 0x2A0 MLOAD PUSH2 0x2C0 MLOAD PUSH2 0x2FD1 JUMP JUMPDEST PUSH2 0x100 PUSH1 0xC0 MLOAD ADD MSTORE PUSH2 0x1858 CALLDATASIZE PUSH2 0x380 MLOAD PUSH2 0x300 MLOAD PUSH2 0x2FD1 JUMP JUMPDEST PUSH2 0x120 PUSH1 0xC0 MLOAD ADD MSTORE PUSH2 0x1871 CALLDATASIZE PUSH2 0x320 MLOAD PUSH2 0x340 MLOAD PUSH2 0x2FD1 JUMP JUMPDEST PUSH2 0x140 PUSH1 0xC0 MLOAD ADD MSTORE PUSH2 0x188A CALLDATASIZE PUSH2 0x3C0 MLOAD PUSH2 0x360 MLOAD PUSH2 0x2FD1 JUMP JUMPDEST PUSH2 0x160 PUSH1 0xC0 MLOAD ADD MSTORE PUSH2 0x18A3 CALLDATASIZE PUSH2 0x240 MLOAD PUSH2 0x260 MLOAD PUSH2 0x2FD1 JUMP JUMPDEST PUSH2 0x180 PUSH1 0xC0 MLOAD ADD MSTORE PUSH2 0x18BC CALLDATASIZE PUSH2 0x1E0 MLOAD PUSH2 0x1C0 MLOAD PUSH2 0x2FD1 JUMP JUMPDEST PUSH2 0x1A0 PUSH1 0xC0 MLOAD ADD MSTORE PUSH1 0x1 PUSH1 0x1 PUSH1 0x80 SHL SUB CALLVALUE AND PUSH2 0x1C0 PUSH1 0xC0 MLOAD ADD MSTORE PUSH1 0x1 PUSH1 0x1 PUSH1 0x80 SHL SUB PUSH2 0x180 MLOAD AND PUSH2 0x1E0 PUSH1 0xC0 MLOAD ADD MSTORE PUSH1 0x0 PUSH2 0x200 PUSH1 0xC0 MLOAD ADD MSTORE PUSH1 0x0 PUSH2 0x220 PUSH1 0xC0 MLOAD ADD MSTORE PUSH1 0x0 PUSH2 0x240 PUSH1 0xC0 MLOAD ADD MSTORE PUSH1 0x0 PUSH2 0x260 PUSH1 0xC0 MLOAD ADD MSTORE PUSH1 0xE0 MLOAD PUSH1 0x0 MSTORE PUSH1 0x2 PUSH1 0x20 MSTORE PUSH2 0x120 MLOAD PUSH1 0x0 KECCAK256 PUSH1 0xC0 MLOAD MLOAD DUP2 SSTORE PUSH1 0x1 DUP2 ADD PUSH1 0x1 DUP1 PUSH1 0xA0 SHL SUB PUSH1 0x20 PUSH1 0xC0 MLOAD ADD MLOAD AND PUSH12 0xFFFFFFFFFFFFFFFFFFFFFFFF PUSH1 0xA0 SHL DUP3 SLOAD AND OR SWAP1 SSTORE PUSH2 0x120 MLOAD PUSH1 0xC0 MLOAD ADD MLOAD DUP1 MLOAD SWAP1 PUSH1 0x1 PUSH1 0x1 PUSH1 0x40 SHL SUB DUP3 GT PUSH2 0x1EFB JUMPI DUP2 SWAP1 PUSH2 0x197D PUSH1 0x2 DUP6 ADD SLOAD PUSH2 0x2D96 JUMP JUMPDEST PUSH1 0x1F DUP2 GT PUSH2 0x2592 JUMPI JUMPDEST POP PUSH1 0x20 SWAP1 PUSH1 0x1F DUP4 GT PUSH1 0x1 EQ PUSH2 0x2521 JUMPI PUSH1 0x0 SWAP3 PUSH2 0x2516 JUMPI JUMPDEST POP POP DUP2 PUSH1 0x1 SHL SWAP2 PUSH1 0x0 NOT SWAP1 PUSH1 0x3 SHL SHR NOT AND OR PUSH1 0x2 DUP3 ADD SSTORE JUMPDEST PUSH1 0x60 PUSH1 0xC0 MLOAD ADD MLOAD DUP1 MLOAD SWAP1 PUSH1 0x1 PUSH1 0x1 PUSH1 0x40 SHL SUB DUP3 GT PUSH2 0x1EFB JUMPI DUP2 SWAP1 PUSH2 0x19DC PUSH1 0x3 DUP6 ADD SLOAD PUSH2 0x2D96 JUMP JUMPDEST PUSH1 0x1F DUP2 GT PUSH2 0x24C3 JUMPI JUMPDEST POP PUSH1 0x20 SWAP1 PUSH1 0x1F DUP4 GT PUSH1 0x1 EQ PUSH2 0x2452 JUMPI PUSH1 0x0 SWAP3 PUSH2 0x2447 JUMPI JUMPDEST POP POP DUP2 PUSH1 0x1 SHL SWAP2 PUSH1 0x0 NOT SWAP1 PUSH1 0x3 SHL SHR NOT AND OR PUSH1 0x3 DUP3 ADD SSTORE JUMPDEST PUSH1 0x80 PUSH1 0xC0 MLOAD ADD MLOAD DUP1 MLOAD SWAP1 PUSH1 0x1 PUSH1 0x1 PUSH1 0x40 SHL SUB DUP3 GT PUSH2 0x1EFB JUMPI DUP2 SWAP1 PUSH2 0x1A3B PUSH1 0x4 DUP6 ADD SLOAD PUSH2 0x2D96 JUMP JUMPDEST PUSH1 0x1F DUP2 GT PUSH2 0x23F4 JUMPI JUMPDEST POP PUSH1 0x20 SWAP1 PUSH1 0x1F DUP4 GT PUSH1 0x1 EQ PUSH2 0x2383 JUMPI PUSH1 0x0 SWAP3 PUSH2 0x2378 JUMPI JUMPDEST POP POP DUP2 PUSH1 0x1 SHL SWAP2 PUSH1 0x0 NOT SWAP1 PUSH1 0x3 SHL SHR NOT AND OR PUSH1 0x4 DUP3 ADD SSTORE JUMPDEST PUSH1 0xC0 DUP1 MLOAD PUSH1 0xA0 DUP2 ADD MLOAD SWAP2 ADD MLOAD PUSH1 0x80 SHL PUSH1 0x1 PUSH1 0x1 PUSH1 0x80 SHL SUB NOT AND PUSH1 0x1 PUSH1 0x1 PUSH1 0x80 SHL SUB SWAP2 SWAP1 SWAP2 AND OR PUSH1 0x5 DUP3 ADD SSTORE PUSH1 0xE0 PUSH1 0xC0 MLOAD ADD MLOAD DUP1 MLOAD SWAP1 PUSH1 0x1 PUSH1 0x1 PUSH1 0x40 SHL SUB DUP3 GT PUSH2 0x1EFB JUMPI DUP2 SWAP1 PUSH2 0x1AC5 PUSH1 0x6 DUP6 ADD SLOAD PUSH2 0x2D96 JUMP JUMPDEST PUSH1 0x1F DUP2 GT PUSH2 0x2325 JUMPI JUMPDEST POP PUSH1 0x20 SWAP1 PUSH1 0x1F DUP4 GT PUSH1 0x1 EQ PUSH2 0x22B4 JUMPI PUSH1 0x0 SWAP3 PUSH2 0x22A9 JUMPI JUMPDEST POP POP DUP2 PUSH1 0x1 SHL SWAP2 PUSH1 0x0 NOT SWAP1 PUSH1 0x3 SHL SHR NOT AND OR PUSH1 0x6 DUP3 ADD SSTORE JUMPDEST PUSH1 0x7 DUP2 ADD SWAP1 PUSH2 0x100 PUSH1 0xC0 MLOAD ADD MLOAD SWAP2 DUP3 MLOAD PUSH1 0x1 PUSH1 0x1 PUSH1 0x40 SHL SUB DUP2 GT PUSH2 0x1EFB JUMPI PUSH2 0x1B25 DUP3 SLOAD PUSH2 0x2D96 JUMP JUMPDEST PUSH1 0x1F DUP2 GT PUSH2 0x2261 JUMPI JUMPDEST POP PUSH1 0x20 PUSH1 0x1F DUP3 GT PUSH1 0x1 EQ PUSH2 0x21FC JUMPI DUP2 SWAP3 SWAP4 SWAP5 PUSH1 0x0 SWAP3 PUSH2 0x21F1 JUMPI JUMPDEST POP POP DUP2 PUSH1 0x1 SHL SWAP2 PUSH1 0x0 NOT SWAP1 PUSH1 0x3 SHL SHR NOT AND OR SWAP1 SSTORE JUMPDEST PUSH1 0x8 DUP2 ADD SWAP1 PUSH2 0x120 PUSH1 0xC0 MLOAD ADD MLOAD SWAP2 DUP3 MLOAD PUSH1 0x1 PUSH1 0x1 PUSH1 0x40 SHL SUB DUP2 GT PUSH2 0x1EFB JUMPI PUSH2 0x1B85 DUP3 SLOAD PUSH2 0x2D96 JUMP JUMPDEST PUSH1 0x1F DUP2 GT PUSH2 0x21A9 JUMPI JUMPDEST POP PUSH1 0x20 PUSH1 0x1F DUP3 GT PUSH1 0x1 EQ PUSH2 0x2144 JUMPI DUP2 SWAP3 SWAP4 SWAP5 PUSH1 0x0 SWAP3 PUSH2 0x2139 JUMPI JUMPDEST POP POP DUP2 PUSH1 0x1 SHL SWAP2 PUSH1 0x0 NOT SWAP1 PUSH1 0x3 SHL SHR NOT AND OR SWAP1 SSTORE JUMPDEST PUSH1 0x9 DUP2 ADD SWAP1 PUSH2 0x140 PUSH1 0xC0 MLOAD ADD MLOAD SWAP2 DUP3 MLOAD PUSH1 0x1 PUSH1 0x1 PUSH1 0x40 SHL SUB DUP2 GT PUSH2 0x1EFB JUMPI PUSH2 0x1BE5 DUP3 SLOAD PUSH2 0x2D96 JUMP JUMPDEST PUSH1 0x1F DUP2 GT PUSH2 0x20F1 JUMPI JUMPDEST POP PUSH1 0x20 PUSH1 0x1F DUP3 GT PUSH1 0x1 EQ PUSH2 0x208C JUMPI DUP2 SWAP3 SWAP4 SWAP5 PUSH1 0x0 SWAP3 PUSH2 0x2081 JUMPI JUMPDEST POP POP DUP2 PUSH1 0x1 SHL SWAP2 PUSH1 0x0 NOT SWAP1 PUSH1 0x3 SHL SHR NOT AND OR SWAP1 SSTORE JUMPDEST PUSH1 0xA DUP2 ADD SWAP1 PUSH2 0x160 PUSH1 0xC0 MLOAD ADD MLOAD SWAP2 DUP3 MLOAD PUSH1 0x1 PUSH1 0x1 PUSH1 0x40 SHL SUB DUP2 GT PUSH2 0x1EFB JUMPI PUSH2 0x1C45 DUP3 SLOAD PUSH2 0x2D96 JUMP JUMPDEST PUSH1 0x1F DUP2 GT PUSH2 0x2039 JUMPI JUMPDEST POP PUSH1 0x20 PUSH1 0x1F DUP3 GT PUSH1 0x1 EQ PUSH2 0x1FD4 JUMPI DUP2 SWAP3 SWAP4 SWAP5 PUSH1 0x0 SWAP3 PUSH2 0x1FC9 JUMPI JUMPDEST POP POP DUP2 PUSH1 0x1 SHL SWAP2 PUSH1 0x0 NOT SWAP1 PUSH1 0x3 SHL SHR NOT AND OR SWAP1 SSTORE JUMPDEST PUSH1 0xB DUP2 ADD SWAP1 PUSH2 0x180 PUSH1 0xC0 MLOAD ADD MLOAD SWAP2 DUP3 MLOAD PUSH1 0x1 PUSH1 0x1 PUSH1 0x40 SHL SUB DUP2 GT PUSH2 0x1EFB JUMPI PUSH2 0x1CA5 DUP3 SLOAD PUSH2 0x2D96 JUMP JUMPDEST PUSH1 0x1F DUP2 GT PUSH2 0x1F81 JUMPI JUMPDEST POP PUSH1 0x20 PUSH1 0x1F DUP3 GT PUSH1 0x1 EQ PUSH2 0x1F1C JUMPI DUP2 SWAP3 SWAP4 SWAP5 PUSH1 0x0 SWAP3 PUSH2 0x1F11 JUMPI JUMPDEST POP POP DUP2 PUSH1 0x1 SHL SWAP2 PUSH1 0x0 NOT SWAP1 PUSH1 0x3 SHL SHR NOT AND OR SWAP1 SSTORE JUMPDEST PUSH1 0xC DUP2 ADD PUSH2 0x1A0 PUSH1 0xC0 MLOAD ADD MLOAD DUP1 MLOAD SWAP1 PUSH1 0x1 PUSH1 0x1 PUSH1 0x40 SHL SUB DUP3 GT PUSH2 0x1EFB JUMPI PUSH2 0x1D04 DUP4 SLOAD PUSH2 0x2D96 JUMP JUMPDEST PUSH1 0x1F DUP2 GT PUSH2 0x1EB3 JUMPI JUMPDEST POP PUSH1 0x20 SWAP1 PUSH1 0x1F DUP4 GT PUSH1 0x1 EQ PUSH2 0x1E45 JUMPI SWAP2 DUP1 PUSH1 0xE SWAP5 SWAP3 PUSH2 0x1DE5 SWAP7 SWAP5 PUSH1 0x0 SWAP3 PUSH2 0x1E3A JUMPI JUMPDEST POP POP DUP2 PUSH1 0x1 SHL SWAP2 PUSH1 0x0 NOT SWAP1 PUSH1 0x3 SHL SHR NOT AND OR SWAP1 SSTORE JUMPDEST PUSH1 0xC0 MLOAD PUSH2 0x1C0 DUP2 ADD MLOAD PUSH2 0x1E0 SWAP1 SWAP2 ADD MLOAD PUSH1 0x80 SHL PUSH1 0x1 PUSH1 0x1 PUSH1 0x80 SHL SUB NOT AND PUSH1 0x1 PUSH1 0x1 PUSH1 0x80 SHL SUB SWAP2 SWAP1 SWAP2 AND OR PUSH1 0xD DUP3 ADD SSTORE PUSH1 0xC0 MLOAD PUSH2 0x200 DUP2 ADD MLOAD SWAP3 SWAP1 SWAP2 ADD DUP1 SLOAD PUSH2 0x220 DUP4 ADD MLOAD PUSH2 0x240 DUP5 ADD MLOAD PUSH2 0x260 SWAP1 SWAP5 ADD MLOAD PUSH1 0x1 PUSH1 0x1 PUSH1 0xB8 SHL SUB NOT SWAP1 SWAP3 AND PUSH1 0xFF SWAP6 ISZERO ISZERO SWAP6 SWAP1 SWAP6 AND SWAP5 SWAP1 SWAP5 OR SWAP4 ISZERO ISZERO PUSH1 0x8 SHL PUSH2 0xFF00 AND SWAP4 SWAP1 SWAP4 OR SWAP2 ISZERO ISZERO PUSH1 0x10 SHL PUSH3 0xFF0000 AND SWAP2 SWAP1 SWAP2 OR PUSH1 0x18 SWAP3 SWAP1 SWAP3 SHL PUSH4 0x1000000 PUSH1 0x1 PUSH1 0xB8 SHL SUB AND SWAP2 SWAP1 SWAP2 OR SWAP1 SSTORE JUMP JUMPDEST PUSH1 0x1 SLOAD PUSH1 0x0 MSTORE PUSH1 0x4 PUSH1 0x20 MSTORE TIMESTAMP PUSH2 0x120 MLOAD PUSH1 0x0 KECCAK256 SSTORE PUSH2 0x1E2B PUSH1 0x1 SLOAD CALLER DUP2 PUSH32 0xF6BE169E9242DB299E4065F846C02E09B60F1421201248FE94D6F552E8C8BD44 PUSH1 0x0 DUP1 LOG3 PUSH2 0x3017 JUMP JUMPDEST PUSH1 0x1 SSTORE PUSH1 0x0 DUP1 SLOAD PUSH1 0xFF NOT AND SWAP1 SSTORE STOP JUMPDEST ADD MLOAD SWAP1 POP DUP7 DUP1 PUSH2 0x1D2F JUMP JUMPDEST SWAP1 PUSH1 0x1F NOT DUP4 AND SWAP2 DUP5 PUSH1 0x0 MSTORE DUP2 PUSH1 0x0 KECCAK256 SWAP3 PUSH1 0x0 JUMPDEST DUP2 DUP2 LT PUSH2 0x1E9B JUMPI POP SWAP3 PUSH1 0x1 SWAP3 DUP6 SWAP3 PUSH2 0x1DE5 SWAP9 SWAP7 PUSH1 0xE SWAP9 SWAP7 LT PUSH2 0x1E82 JUMPI JUMPDEST POP POP POP DUP2 SHL ADD SWAP1 SSTORE PUSH2 0x1D44 JUMP JUMPDEST ADD MLOAD PUSH1 0x0 NOT PUSH1 0xF8 DUP5 PUSH1 0x3 SHL AND SHR NOT AND SWAP1 SSTORE DUP7 DUP1 DUP1 PUSH2 0x1E75 JUMP JUMPDEST SWAP3 SWAP4 PUSH1 0x20 PUSH1 0x1 DUP2 SWAP3 DUP8 DUP7 ADD MLOAD DUP2 SSTORE ADD SWAP6 ADD SWAP4 ADD PUSH2 0x1E58 JUMP JUMPDEST DUP4 PUSH1 0x0 MSTORE PUSH1 0x20 PUSH1 0x0 KECCAK256 PUSH1 0x1F DUP5 ADD PUSH1 0x5 SHR DUP2 ADD SWAP2 PUSH1 0x20 DUP6 LT PUSH2 0x1EF1 JUMPI JUMPDEST PUSH1 0x1F ADD PUSH1 0x5 SHR ADD SWAP1 JUMPDEST DUP2 DUP2 LT PUSH2 0x1EE5 JUMPI POP PUSH2 0x1D0D JUMP JUMPDEST PUSH1 0x0 DUP2 SSTORE PUSH1 0x1 ADD PUSH2 0x1ED8 JUMP JUMPDEST SWAP1 SWAP2 POP DUP2 SWAP1 PUSH2 0x1ECF JUMP JUMPDEST PUSH4 0x4E487B71 PUSH1 0xE0 SHL PUSH1 0x0 MSTORE PUSH1 0x41 PUSH1 0x4 MSTORE PUSH1 0x24 PUSH1 0x0 REVERT JUMPDEST ADD MLOAD SWAP1 POP DUP5 DUP1 PUSH2 0x1CC8 JUMP JUMPDEST PUSH1 0x1F NOT DUP3 AND SWAP1 DUP4 PUSH1 0x0 MSTORE DUP1 PUSH1 0x0 KECCAK256 SWAP2 PUSH1 0x0 JUMPDEST DUP2 DUP2 LT PUSH2 0x1F69 JUMPI POP SWAP6 DUP4 PUSH1 0x1 SWAP6 SWAP7 SWAP8 LT PUSH2 0x1F50 JUMPI JUMPDEST POP POP POP DUP2 SHL ADD SWAP1 SSTORE PUSH2 0x1CDD JUMP JUMPDEST ADD MLOAD PUSH1 0x0 NOT PUSH1 0xF8 DUP5 PUSH1 0x3 SHL AND SHR NOT AND SWAP1 SSTORE DUP5 DUP1 DUP1 PUSH2 0x1F43 JUMP JUMPDEST SWAP2 SWAP3 PUSH1 0x20 PUSH1 0x1 DUP2 SWAP3 DUP7 DUP12 ADD MLOAD DUP2 SSTORE ADD SWAP5 ADD SWAP3 ADD PUSH2 0x1F2E JUMP JUMPDEST DUP3 PUSH1 0x0 MSTORE PUSH1 0x20 PUSH1 0x0 KECCAK256 PUSH1 0x1F DUP4 ADD PUSH1 0x5 SHR DUP2 ADD SWAP2 PUSH1 0x20 DUP5 LT PUSH2 0x1FBF JUMPI JUMPDEST PUSH1 0x1F ADD PUSH1 0x5 SHR ADD SWAP1 JUMPDEST DUP2 DUP2 LT PUSH2 0x1FB3 JUMPI POP PUSH2 0x1CAE JUMP JUMPDEST PUSH1 0x0 DUP2 SSTORE PUSH1 0x1 ADD PUSH2 0x1FA6 JUMP JUMPDEST SWAP1 SWAP2 POP DUP2 SWAP1 PUSH2 0x1F9D JUMP JUMPDEST ADD MLOAD SWAP1 POP DUP5 DUP1 PUSH2 0x1C68 JUMP JUMPDEST PUSH1 0x1F NOT DUP3 AND SWAP1 DUP4 PUSH1 0x0 MSTORE DUP1 PUSH1 0x0 KECCAK256 SWAP2 PUSH1 0x0 JUMPDEST DUP2 DUP2 LT PUSH2 0x2021 JUMPI POP SWAP6 DUP4 PUSH1 0x1 SWAP6 SWAP7 SWAP8 LT PUSH2 0x2008 JUMPI JUMPDEST POP POP POP DUP2 SHL ADD SWAP1 SSTORE PUSH2 0x1C7D JUMP JUMPDEST ADD MLOAD PUSH1 0x0 NOT PUSH1 0xF8 DUP5 PUSH1 0x3 SHL AND SHR NOT AND SWAP1 SSTORE DUP5 DUP1 DUP1 PUSH2 0x1FFB JUMP JUMPDEST SWAP2 SWAP3 PUSH1 0x20 PUSH1 0x1 DUP2 SWAP3 DUP7 DUP12 ADD MLOAD DUP2 SSTORE ADD SWAP5 ADD SWAP3 ADD PUSH2 0x1FE6 JUMP JUMPDEST DUP3 PUSH1 0x0 MSTORE PUSH1 0x20 PUSH1 0x0 KECCAK256 PUSH1 0x1F DUP4 ADD PUSH1 0x5 SHR DUP2 ADD SWAP2 PUSH1 0x20 DUP5 LT PUSH2 0x2077 JUMPI JUMPDEST PUSH1 0x1F ADD PUSH1 0x5 SHR ADD SWAP1 JUMPDEST DUP2 DUP2 LT PUSH2 0x206B JUMPI POP PUSH2 0x1C4E JUMP JUMPDEST PUSH1 0x0 DUP2 SSTORE PUSH1 0x1 ADD PUSH2 0x205E JUMP JUMPDEST SWAP1 SWAP2 POP DUP2 SWAP1 PUSH2 0x2055 JUMP JUMPDEST ADD MLOAD SWAP1 POP DUP5 DUP1 PUSH2 0x1C08 JUMP JUMPDEST PUSH1 0x1F NOT DUP3 AND SWAP1 DUP4 PUSH1 0x0 MSTORE DUP1 PUSH1 0x0 KECCAK256 SWAP2 PUSH1 0x0 JUMPDEST DUP2 DUP2 LT PUSH2 0x20D9 JUMPI POP SWAP6 DUP4 PUSH1 0x1 SWAP6 SWAP7 SWAP8 LT PUSH2 0x20C0 JUMPI JUMPDEST POP POP POP DUP2 SHL ADD SWAP1 SSTORE PUSH2 0x1C1D JUMP JUMPDEST ADD MLOAD PUSH1 0x0 NOT PUSH1 0xF8 DUP5 PUSH1 0x3 SHL AND SHR NOT AND SWAP1 SSTORE DUP5 DUP1 DUP1 PUSH2 0x20B3 JUMP JUMPDEST SWAP2 SWAP3 PUSH1 0x20 PUSH1 0x1 DUP2 SWAP3 DUP7 DUP12 ADD MLOAD DUP2 SSTORE ADD SWAP5 ADD SWAP3 ADD PUSH2 0x209E JUMP JUMPDEST DUP3 PUSH1 0x0 MSTORE PUSH1 0x20 PUSH1 0x0 KECCAK256 PUSH1 0x1F DUP4 ADD PUSH1 0x5 SHR DUP2 ADD SWAP2 PUSH1 0x20 DUP5 LT PUSH2 0x212F JUMPI JUMPDEST PUSH1 0x1F ADD PUSH1 0x5 SHR ADD SWAP1 JUMPDEST DUP2 DUP2 LT PUSH2 0x2123 JUMPI POP PUSH2 0x1BEE JUMP JUMPDEST PUSH1 0x0 DUP2 SSTORE PUSH1 0x1 ADD PUSH2 0x2116 JUMP JUMPDEST SWAP1 SWAP2 POP DUP2 SWAP1 PUSH2 0x210D JUMP JUMPDEST ADD MLOAD SWAP1 POP DUP5 DUP1 PUSH2 0x1BA8 JUMP JUMPDEST PUSH1 0x1F NOT DUP3 AND SWAP1 DUP4 PUSH1 0x0 MSTORE DUP1 PUSH1 0x0 KECCAK256 SWAP2 PUSH1 0x0 JUMPDEST DUP2 DUP2 LT PUSH2 0x2191 JUMPI POP SWAP6 DUP4 PUSH1 0x1 SWAP6 SWAP7 SWAP8 LT PUSH2 0x2178 JUMPI JUMPDEST POP POP POP DUP2 SHL ADD SWAP1 SSTORE PUSH2 0x1BBD JUMP JUMPDEST ADD MLOAD PUSH1 0x0 NOT PUSH1 0xF8 DUP5 PUSH1 0x3 SHL AND SHR NOT AND SWAP1 SSTORE DUP5 DUP1 DUP1 PUSH2 0x216B JUMP JUMPDEST SWAP2 SWAP3 PUSH1 0x20 PUSH1 0x1 DUP2 SWAP3 DUP7 DUP12 ADD MLOAD DUP2 SSTORE ADD SWAP5 ADD SWAP3 ADD PUSH2 0x2156 JUMP JUMPDEST DUP3 PUSH1 0x0 MSTORE PUSH1 0x20 PUSH1 0x0 KECCAK256 PUSH1 0x1F DUP4 ADD PUSH1 0x5 SHR DUP2 ADD SWAP2 PUSH1 0x20 DUP5 LT PUSH2 0x21E7 JUMPI JUMPDEST PUSH1 0x1F ADD PUSH1 0x5 SHR ADD SWAP1 JUMPDEST DUP2 DUP2 LT PUSH2 0x21DB JUMPI POP PUSH2 0x1B8E JUMP JUMPDEST PUSH1 0x0 DUP2 SSTORE PUSH1 0x1 ADD PUSH2 0x21CE JUMP JUMPDEST SWAP1 SWAP2 POP DUP2 SWAP1 PUSH2 0x21C5 JUMP JUMPDEST ADD MLOAD SWAP1 POP DUP5 DUP1 PUSH2 0x1B48 JUMP JUMPDEST PUSH1 0x1F NOT DUP3 AND SWAP1 DUP4 PUSH1 0x0 MSTORE DUP1 PUSH1 0x0 KECCAK256 SWAP2 PUSH1 0x0 JUMPDEST DUP2 DUP2 LT PUSH2 0x2249 JUMPI POP SWAP6 DUP4 PUSH1 0x1 SWAP6 SWAP7 SWAP8 LT PUSH2 0x2230 JUMPI JUMPDEST POP POP POP DUP2 SHL ADD SWAP1 SSTORE PUSH2 0x1B5D JUMP JUMPDEST ADD MLOAD PUSH1 0x0 NOT PUSH1 0xF8 DUP5 PUSH1 0x3 SHL AND SHR NOT AND SWAP1 SSTORE DUP5 DUP1 DUP1 PUSH2 0x2223 JUMP JUMPDEST SWAP2 SWAP3 PUSH1 0x20 PUSH1 0x1 DUP2 SWAP3 DUP7 DUP12 ADD MLOAD DUP2 SSTORE ADD SWAP5 ADD SWAP3 ADD PUSH2 0x220E JUMP JUMPDEST DUP3 PUSH1 0x0 MSTORE PUSH1 0x20 PUSH1 0x0 KECCAK256 PUSH1 0x1F DUP4 ADD PUSH1 0x5 SHR DUP2 ADD SWAP2 PUSH1 0x20 DUP5 LT PUSH2 0x229F JUMPI JUMPDEST PUSH1 0x1F ADD PUSH1 0x5 SHR ADD SWAP1 JUMPDEST DUP2 DUP2 LT PUSH2 0x2293 JUMPI POP PUSH2 0x1B2E JUMP JUMPDEST PUSH1 0x0 DUP2 SSTORE PUSH1 0x1 ADD PUSH2 0x2286 JUMP JUMPDEST SWAP1 SWAP2 POP DUP2 SWAP1 PUSH2 0x227D JUMP JUMPDEST ADD MLOAD SWAP1 POP DUP4 DUP1 PUSH2 0x1AE5 JUMP JUMPDEST SWAP3 POP PUSH1 0x6 DUP5 ADD PUSH1 0x0 MSTORE DUP1 PUSH1 0x0 KECCAK256 SWAP1 PUSH1 0x0 SWAP4 JUMPDEST PUSH1 0x1F NOT DUP5 AND DUP6 LT PUSH2 0x230A JUMPI PUSH1 0x1 SWAP5 POP DUP4 PUSH1 0x1F NOT DUP2 AND LT PUSH2 0x22F1 JUMPI JUMPDEST POP POP POP DUP2 SHL ADD PUSH1 0x6 DUP3 ADD SSTORE PUSH2 0x1AFD JUMP JUMPDEST ADD MLOAD PUSH1 0x0 NOT PUSH1 0xF8 DUP5 PUSH1 0x3 SHL AND SHR NOT AND SWAP1 SSTORE DUP4 DUP1 DUP1 PUSH2 0x22E1 JUMP JUMPDEST DUP2 DUP2 ADD MLOAD DUP4 SSTORE PUSH1 0x20 SWAP5 DUP6 ADD SWAP5 PUSH1 0x1 SWAP1 SWAP4 ADD SWAP3 SWAP1 SWAP2 ADD SWAP1 PUSH2 0x22C6 JUMP JUMPDEST SWAP1 SWAP2 POP PUSH1 0x6 DUP5 ADD PUSH1 0x0 MSTORE PUSH1 0x20 PUSH1 0x0 KECCAK256 PUSH1 0x1F DUP5 ADD PUSH1 0x5 SHR DUP2 ADD PUSH1 0x20 DUP6 LT PUSH2 0x2371 JUMPI JUMPDEST SWAP1 DUP5 SWAP4 SWAP3 SWAP2 JUMPDEST PUSH1 0x1F DUP4 ADD PUSH1 0x5 SHR DUP3 ADD DUP2 LT PUSH2 0x2362 JUMPI POP POP PUSH2 0x1ACE JUMP JUMPDEST PUSH1 0x0 DUP2 SSTORE DUP6 SWAP5 POP PUSH1 0x1 ADD PUSH2 0x234C JUMP JUMPDEST POP DUP1 PUSH2 0x2346 JUMP JUMPDEST ADD MLOAD SWAP1 POP DUP4 DUP1 PUSH2 0x1A5B JUMP JUMPDEST SWAP3 POP PUSH1 0x4 DUP5 ADD PUSH1 0x0 MSTORE DUP1 PUSH1 0x0 KECCAK256 SWAP1 PUSH1 0x0 SWAP4 JUMPDEST PUSH1 0x1F NOT DUP5 AND DUP6 LT PUSH2 0x23D9 JUMPI PUSH1 0x1 SWAP5 POP DUP4 PUSH1 0x1F NOT DUP2 AND LT PUSH2 0x23C0 JUMPI JUMPDEST POP POP POP DUP2 SHL ADD PUSH1 0x4 DUP3 ADD SSTORE PUSH2 0x1A73 JUMP JUMPDEST ADD MLOAD PUSH1 0x0 NOT PUSH1 0xF8 DUP5 PUSH1 0x3 SHL AND SHR NOT AND SWAP1 SSTORE DUP4 DUP1 DUP1 PUSH2 0x23B0 JUMP JUMPDEST DUP2 DUP2 ADD MLOAD DUP4 SSTORE PUSH1 0x20 SWAP5 DUP6 ADD SWAP5 PUSH1 0x1 SWAP1 SWAP4 ADD SWAP3 SWAP1 SWAP2 ADD SWAP1 PUSH2 0x2395 JUMP JUMPDEST SWAP1 SWAP2 POP PUSH1 0x4 DUP5 ADD PUSH1 0x0 MSTORE PUSH1 0x20 PUSH1 0x0 KECCAK256 PUSH1 0x1F DUP5 ADD PUSH1 0x5 SHR DUP2 ADD PUSH1 0x20 DUP6 LT PUSH2 0x2440 JUMPI JUMPDEST SWAP1 DUP5 SWAP4 SWAP3 SWAP2 JUMPDEST PUSH1 0x1F DUP4 ADD PUSH1 0x5 SHR DUP3 ADD DUP2 LT PUSH2 0x2431 JUMPI POP POP PUSH2 0x1A44 JUMP JUMPDEST PUSH1 0x0 DUP2 SSTORE DUP6 SWAP5 POP PUSH1 0x1 ADD PUSH2 0x241B JUMP JUMPDEST POP DUP1 PUSH2 0x2415 JUMP JUMPDEST ADD MLOAD SWAP1 POP DUP4 DUP1 PUSH2 0x19FC JUMP JUMPDEST SWAP3 POP PUSH1 0x3 DUP5 ADD PUSH1 0x0 MSTORE DUP1 PUSH1 0x0 KECCAK256 SWAP1 PUSH1 0x0 SWAP4 JUMPDEST PUSH1 0x1F NOT DUP5 AND DUP6 LT PUSH2 0x24A8 JUMPI PUSH1 0x1 SWAP5 POP DUP4 PUSH1 0x1F NOT DUP2 AND LT PUSH2 0x248F JUMPI JUMPDEST POP POP POP DUP2 SHL ADD PUSH1 0x3 DUP3 ADD SSTORE PUSH2 0x1A14 JUMP JUMPDEST ADD MLOAD PUSH1 0x0 NOT PUSH1 0xF8 DUP5 PUSH1 0x3 SHL AND SHR NOT AND SWAP1 SSTORE DUP4 DUP1 DUP1 PUSH2 0x247F JUMP JUMPDEST DUP2 DUP2 ADD MLOAD DUP4 SSTORE PUSH1 0x20 SWAP5 DUP6 ADD SWAP5 PUSH1 0x1 SWAP1 SWAP4 ADD SWAP3 SWAP1 SWAP2 ADD SWAP1 PUSH2 0x2464 JUMP JUMPDEST SWAP1 SWAP2 POP PUSH1 0x3 DUP5 ADD PUSH1 0x0 MSTORE PUSH1 0x20 PUSH1 0x0 KECCAK256 PUSH1 0x1F DUP5 ADD PUSH1 0x5 SHR DUP2 ADD PUSH1 0x20 DUP6 LT PUSH2 0x250F JUMPI JUMPDEST SWAP1 DUP5 SWAP4 SWAP3 SWAP2 JUMPDEST PUSH1 0x1F DUP4 ADD PUSH1 0x5 SHR DUP3 ADD DUP2 LT PUSH2 0x2500 JUMPI POP POP PUSH2 0x19E5 JUMP JUMPDEST PUSH1 0x0 DUP2 SSTORE DUP6 SWAP5 POP PUSH1 0x1 ADD PUSH2 0x24EA JUMP JUMPDEST POP DUP1 PUSH2 0x24E4 JUMP JUMPDEST ADD MLOAD SWAP1 POP DUP4 DUP1 PUSH2 0x199D JUMP JUMPDEST SWAP3 POP PUSH1 0x2 DUP5 ADD PUSH1 0x0 MSTORE DUP1 PUSH1 0x0 KECCAK256 SWAP1 PUSH1 0x0 SWAP4 JUMPDEST PUSH1 0x1F NOT DUP5 AND DUP6 LT PUSH2 0x2577 JUMPI PUSH1 0x1 SWAP5 POP DUP4 PUSH1 0x1F NOT DUP2 AND LT PUSH2 0x255E JUMPI JUMPDEST POP POP POP DUP2 SHL ADD PUSH1 0x2 DUP3 ADD SSTORE PUSH2 0x19B5 JUMP JUMPDEST ADD MLOAD PUSH1 0x0 NOT PUSH1 0xF8 DUP5 PUSH1 0x3 SHL AND SHR NOT AND SWAP1 SSTORE DUP4 DUP1 DUP1 PUSH2 0x254E JUMP JUMPDEST DUP2 DUP2 ADD MLOAD DUP4 SSTORE PUSH1 0x20 SWAP5 DUP6 ADD SWAP5 PUSH1 0x1 SWAP1 SWAP4 ADD SWAP3 SWAP1 SWAP2 ADD SWAP1 PUSH2 0x2533 JUMP JUMPDEST SWAP1 SWAP2 POP PUSH1 0x2 DUP5 ADD PUSH1 0x0 MSTORE PUSH1 0x20 PUSH1 0x0 KECCAK256 PUSH1 0x1F DUP5 ADD PUSH1 0x5 SHR DUP2 ADD PUSH1 0x20 DUP6 LT PUSH2 0x25DE JUMPI JUMPDEST SWAP1 DUP5 SWAP4 SWAP3 SWAP2 JUMPDEST PUSH1 0x1F DUP4 ADD PUSH1 0x5 SHR DUP3 ADD DUP2 LT PUSH2 0x25CF JUMPI POP POP PUSH2 0x1986 JUMP JUMPDEST PUSH1 0x0 DUP2 SSTORE DUP6 SWAP5 POP PUSH1 0x1 ADD PUSH2 0x25B9 JUMP JUMPDEST POP DUP1 PUSH2 0x25B3 JUMP JUMPDEST PUSH2 0x120 MLOAD MLOAD PUSH1 0xA0 MSTORE PUSH4 0x23B872DD PUSH1 0xE0 SHL PUSH1 0xA0 MLOAD MSTORE CALLER PUSH1 0x4 PUSH1 0xA0 MLOAD ADD MSTORE ADDRESS PUSH1 0x24 PUSH1 0xA0 MLOAD ADD MSTORE PUSH1 0x1 PUSH1 0x1 PUSH1 0x80 SHL SUB PUSH2 0x180 MLOAD AND PUSH1 0x44 PUSH1 0xA0 MLOAD ADD MSTORE PUSH1 0x20 PUSH1 0xA0 MLOAD PUSH1 0x64 PUSH1 0xA0 MLOAD PUSH1 0x0 PUSH20 0x765DE816845861E75A25FCA122BB6898B8B1282A GAS CALL PUSH1 0x80 MSTORE PUSH1 0x80 MLOAD ISZERO PUSH2 0x26BC JUMPI PUSH1 0x0 PUSH1 0x80 MLOAD PUSH2 0x2683 JUMPI JUMPDEST PUSH2 0x265E SWAP1 PUSH2 0x2F8E JUMP JUMPDEST PUSH1 0x1 SLOAD PUSH1 0x0 MSTORE PUSH1 0x3 PUSH1 0x20 MSTORE PUSH1 0x1 PUSH1 0x1 PUSH1 0x80 SHL SUB PUSH2 0x180 MLOAD AND PUSH2 0x120 MLOAD PUSH1 0x0 KECCAK256 SSTORE PUSH2 0x177D JUMP JUMPDEST POP PUSH1 0x20 RETURNDATASIZE PUSH1 0x20 GT PUSH2 0x26B5 JUMPI JUMPDEST PUSH2 0x26AE DUP2 PUSH2 0x26A2 PUSH2 0x265E SWAP4 PUSH1 0xA0 MLOAD PUSH2 0x2DEC JUMP JUMPDEST PUSH1 0xA0 MLOAD ADD PUSH1 0xA0 MLOAD PUSH2 0x2EE9 JUMP JUMPDEST SWAP1 POP PUSH2 0x2655 JUMP JUMPDEST POP RETURNDATASIZE PUSH2 0x268F JUMP JUMPDEST PUSH2 0x120 MLOAD MLOAD RETURNDATASIZE PUSH1 0x0 DUP3 RETURNDATACOPY RETURNDATASIZE SWAP1 REVERT JUMPDEST PUSH2 0x120 MLOAD MLOAD PUSH3 0x461BCD PUSH1 0xE5 SHL DUP2 MSTORE PUSH1 0x20 PUSH1 0x4 DUP3 ADD MSTORE PUSH1 0xD PUSH1 0x24 DUP3 ADD MSTORE PUSH13 0x125B9D985B1A5908195B585A5B PUSH1 0x9A SHL PUSH1 0x44 DUP3 ADD MSTORE PUSH1 0x64 SWAP1 REVERT JUMPDEST PUSH2 0x120 MLOAD MLOAD PUSH3 0x461BCD PUSH1 0xE5 SHL DUP2 MSTORE PUSH1 0x20 PUSH1 0x4 DUP3 ADD MSTORE PUSH1 0xB PUSH1 0x24 DUP3 ADD MSTORE PUSH11 0x496E76616C696420616765 PUSH1 0xA8 SHL PUSH1 0x44 DUP3 ADD MSTORE PUSH1 0x64 SWAP1 REVERT JUMPDEST POP PUSH1 0xF0 PUSH1 0x1 PUSH1 0x1 PUSH1 0x80 SHL SUB PUSH2 0x200 MLOAD AND GT ISZERO PUSH2 0x1748 JUMP JUMPDEST PUSH2 0x120 MLOAD MLOAD PUSH3 0x461BCD PUSH1 0xE5 SHL DUP2 MSTORE PUSH1 0x20 PUSH1 0x4 DUP3 ADD MSTORE PUSH1 0xC PUSH1 0x24 DUP3 ADD MSTORE PUSH12 0x496E76616C69642073697A65 PUSH1 0xA0 SHL PUSH1 0x44 DUP3 ADD MSTORE PUSH1 0x64 SWAP1 REVERT JUMPDEST POP PUSH1 0xC8 PUSH1 0x1 PUSH1 0x1 PUSH1 0x80 SHL SUB PUSH2 0x1A0 MLOAD AND GT ISZERO PUSH2 0x172C JUMP JUMPDEST PUSH1 0x14 SWAP2 POP GT ISZERO DUP12 PUSH2 0x14BA JUMP JUMPDEST PUSH1 0x64 SWAP2 POP GT ISZERO DUP12 PUSH2 0x14BA JUMP JUMPDEST PUSH1 0xC8 SWAP2 POP GT ISZERO DUP12 PUSH2 0x14BA JUMP JUMPDEST PUSH2 0x1F4 SWAP2 POP GT ISZERO DUP12 PUSH2 0x14BA JUMP JUMPDEST PUSH1 0xA SWAP2 POP GT ISZERO DUP7 PUSH2 0x13B9 JUMP JUMPDEST PUSH1 0x40 MLOAD PUSH3 0x461BCD PUSH1 0xE5 SHL DUP2 MSTORE PUSH1 0x20 PUSH1 0x4 DUP3 ADD MSTORE PUSH1 0xF PUSH1 0x24 DUP3 ADD MSTORE PUSH15 0x109BDD5B9D1E481C995C5D5A5C9959 PUSH1 0x8A SHL PUSH1 0x44 DUP3 ADD MSTORE PUSH1 0x64 SWAP1 REVERT JUMPDEST POP PUSH1 0x1 PUSH1 0x1 PUSH1 0x80 SHL SUB PUSH2 0x180 MLOAD AND ISZERO ISZERO PUSH2 0x12FF JUMP JUMPDEST PUSH1 0x40 MLOAD PUSH3 0x461BCD PUSH1 0xE5 SHL DUP2 MSTORE PUSH1 0x20 PUSH1 0x4 DUP3 ADD MSTORE PUSH1 0x15 PUSH1 0x24 DUP3 ADD MSTORE PUSH21 0x6355534420626F756E747920746F6F206C61726765 PUSH1 0x58 SHL PUSH1 0x44 DUP3 ADD MSTORE PUSH1 0x64 SWAP1 REVERT JUMPDEST PUSH1 0x40 MLOAD PUSH3 0x461BCD PUSH1 0xE5 SHL DUP2 MSTORE PUSH1 0x20 PUSH1 0x4 DUP3 ADD MSTORE PUSH1 0x15 PUSH1 0x24 DUP3 ADD MSTORE PUSH21 0x43454C4F20626F756E747920746F6F206C61726765 PUSH1 0x58 SHL PUSH1 0x44 DUP3 ADD MSTORE PUSH1 0x64 SWAP1 REVERT JUMPDEST CALLVALUE PUSH2 0x129 JUMPI PUSH1 0x0 CALLDATASIZE PUSH1 0x3 NOT ADD SLT PUSH2 0x129 JUMPI PUSH1 0x20 PUSH1 0x40 MLOAD PUSH20 0x765DE816845861E75A25FCA122BB6898B8B1282A DUP2 MSTORE RETURN JUMPDEST CALLVALUE PUSH2 0x129 JUMPI PUSH1 0x20 CALLDATASIZE PUSH1 0x3 NOT ADD SLT PUSH2 0x129 JUMPI PUSH1 0x4 CALLDATALOAD PUSH2 0x28ED PUSH1 0x1 SLOAD DUP3 LT PUSH2 0x2F01 JUMP JUMPDEST PUSH1 0x1 PUSH1 0x0 SLOAD PUSH2 0x28FF PUSH1 0xFF DUP3 AND ISZERO PUSH2 0x2F42 JUMP JUMPDEST PUSH1 0xFF NOT AND OR PUSH1 0x0 SSTORE DUP1 PUSH1 0x0 MSTORE PUSH1 0x2 PUSH1 0x20 MSTORE PUSH1 0x40 PUSH1 0x0 KECCAK256 PUSH1 0xE DUP2 ADD SLOAD PUSH1 0xFF DUP2 AND ISZERO PUSH2 0x2ACC JUMPI PUSH1 0x18 SHR PUSH1 0x1 PUSH1 0x1 PUSH1 0xA0 SHL SUB AND CALLER SUB PUSH2 0x2A9A JUMPI PUSH1 0xD ADD DUP1 SLOAD PUSH1 0x1 PUSH1 0x1 PUSH1 0x80 SHL SUB DUP2 AND SWAP3 SWAP2 SWAP1 DUP4 ISZERO DUP1 ISZERO DUP1 DUP3 PUSH2 0x2A8E JUMPI JUMPDEST ISZERO PUSH2 0x2A5D JUMPI PUSH1 0x0 SWAP4 DUP5 SWAP1 SSTORE DUP5 DUP5 MSTORE PUSH1 0x3 PUSH1 0x20 MSTORE PUSH1 0x40 DUP5 KECCAK256 SWAP4 SWAP1 SWAP4 SSTORE PUSH1 0x80 SWAP2 SWAP1 SWAP2 SHR SWAP2 DUP5 SWAP2 SWAP1 PUSH2 0x2A36 JUMPI JUMPDEST POP POP DUP1 PUSH2 0x29C1 JUMPI JUMPDEST PUSH1 0x40 MLOAD SWAP3 DUP4 MSTORE PUSH1 0x20 DUP4 ADD MSTORE PUSH32 0x2EEFA727CCED3362EFE12827696BBD9DF4926ABCE3C569DDAF6B9634AE1AF147 PUSH1 0x40 CALLER SWAP4 LOG3 PUSH1 0x0 DUP1 SLOAD PUSH1 0xFF NOT AND SWAP1 SSTORE STOP JUMPDEST PUSH1 0x40 MLOAD PUSH4 0xA9059CBB PUSH1 0xE0 SHL DUP2 MSTORE CALLER PUSH1 0x4 DUP3 ADD MSTORE PUSH1 0x24 DUP2 ADD DUP3 SWAP1 MSTORE PUSH1 0x20 DUP2 PUSH1 0x44 DUP2 PUSH1 0x0 PUSH20 0x765DE816845861E75A25FCA122BB6898B8B1282A GAS CALL DUP1 ISZERO PUSH2 0x513 JUMPI PUSH2 0x2A12 SWAP2 PUSH1 0x0 SWAP2 PUSH2 0x2A17 JUMPI JUMPDEST POP PUSH2 0x2F8E JUMP JUMPDEST PUSH2 0x2984 JUMP JUMPDEST PUSH2 0x2A30 SWAP2 POP PUSH1 0x20 RETURNDATASIZE PUSH1 0x20 GT PUSH2 0x50C JUMPI PUSH2 0x4FE DUP2 DUP4 PUSH2 0x2DEC JUMP JUMPDEST DUP6 PUSH2 0x2A0C JUMP JUMPDEST PUSH1 0x0 SWAP1 PUSH2 0x2A54 JUMPI JUMPDEST PUSH1 0x0 DUP1 DUP1 SWAP4 DUP2 SWAP4 CALLER SWAP1 CALL ISZERO PUSH2 0x513 JUMPI DUP3 DUP5 PUSH2 0x297C JUMP JUMPDEST POP PUSH2 0x8FC PUSH2 0x2A3E JUMP JUMPDEST PUSH1 0x40 MLOAD PUSH3 0x461BCD PUSH1 0xE5 SHL DUP2 MSTORE PUSH1 0x20 PUSH1 0x4 DUP3 ADD MSTORE PUSH1 0x9 PUSH1 0x24 DUP3 ADD MSTORE PUSH9 0x4E6F20626F756E7479 PUSH1 0xB8 SHL PUSH1 0x44 DUP3 ADD MSTORE PUSH1 0x64 SWAP1 REVERT JUMPDEST POP DUP3 PUSH1 0x80 SHR ISZERO ISZERO PUSH2 0x2952 JUMP JUMPDEST PUSH1 0x40 MLOAD PUSH3 0x461BCD PUSH1 0xE5 SHL DUP2 MSTORE PUSH1 0x20 PUSH1 0x4 DUP3 ADD MSTORE PUSH1 0xA PUSH1 0x24 DUP3 ADD MSTORE PUSH10 0x2737BA103334B73232B9 PUSH1 0xB1 SHL PUSH1 0x44 DUP3 ADD MSTORE PUSH1 0x64 SWAP1 REVERT JUMPDEST PUSH1 0x40 MLOAD PUSH3 0x461BCD PUSH1 0xE5 SHL DUP2 MSTORE PUSH1 0x20 PUSH1 0x4 DUP3 ADD MSTORE PUSH1 0xD PUSH1 0x24 DUP3 ADD MSTORE PUSH13 0x14195D081B9BDD08199BDD5B99 PUSH1 0x9A SHL PUSH1 0x44 DUP3 ADD MSTORE PUSH1 0x64 SWAP1 REVERT JUMPDEST CALLVALUE PUSH2 0x129 JUMPI PUSH1 0x0 CALLDATASIZE PUSH1 0x3 NOT ADD SLT PUSH2 0x129 JUMPI PUSH1 0x20 PUSH1 0x1 SLOAD PUSH1 0x40 MLOAD SWAP1 DUP2 MSTORE RETURN JUMPDEST CALLVALUE PUSH2 0x129 JUMPI PUSH1 0x0 CALLDATASIZE PUSH1 0x3 NOT ADD SLT PUSH2 0x129 JUMPI PUSH1 0x20 PUSH1 0x40 MLOAD PUSH8 0x8AC7230489E80000 DUP2 MSTORE RETURN JUMPDEST CALLVALUE PUSH2 0x129 JUMPI PUSH1 0x20 CALLDATASIZE PUSH1 0x3 NOT ADD SLT PUSH2 0x129 JUMPI PUSH1 0x4 CALLDATALOAD PUSH1 0x1 PUSH1 0x1 PUSH1 0xA0 SHL SUB DUP2 AND DUP2 SUB PUSH2 0x129 JUMPI PUSH2 0x2B7E PUSH1 0x1 DUP1 PUSH1 0xA0 SHL SUB PUSH1 0x0 SLOAD PUSH1 0x8 SHR AND CALLER EQ PUSH2 0x2EB1 JUMP JUMPDEST PUSH1 0x40 MLOAD PUSH4 0x70A08231 PUSH1 0xE0 SHL DUP2 MSTORE ADDRESS PUSH1 0x4 DUP3 ADD MSTORE PUSH1 0x20 DUP2 PUSH1 0x24 DUP2 PUSH20 0x765DE816845861E75A25FCA122BB6898B8B1282A GAS STATICCALL SWAP1 DUP2 ISZERO PUSH2 0x513 JUMPI PUSH1 0x0 SWAP2 PUSH2 0x2C71 JUMPI JUMPDEST POP PUSH1 0x40 MLOAD PUSH4 0xA9059CBB PUSH1 0xE0 SHL DUP2 MSTORE PUSH1 0x1 PUSH1 0x1 PUSH1 0xA0 SHL SUB SWAP1 SWAP3 AND PUSH1 0x4 DUP4 ADD MSTORE PUSH1 0x24 DUP3 ADD MSTORE PUSH1 0x20 DUP2 DUP1 PUSH1 0x44 DUP2 ADD JUMPDEST SUB DUP2 PUSH1 0x0 PUSH20 0x765DE816845861E75A25FCA122BB6898B8B1282A GAS CALL SWAP1 DUP2 ISZERO PUSH2 0x513 JUMPI PUSH1 0x0 SWAP2 PUSH2 0x2C52 JUMPI JUMPDEST POP ISZERO PUSH2 0x2C1B JUMPI STOP JUMPDEST PUSH1 0x40 MLOAD PUSH3 0x461BCD PUSH1 0xE5 SHL DUP2 MSTORE PUSH1 0x20 PUSH1 0x4 DUP3 ADD MSTORE PUSH1 0xF PUSH1 0x24 DUP3 ADD MSTORE PUSH15 0x151C985B9CD9995C8819985A5B1959 PUSH1 0x8A SHL PUSH1 0x44 DUP3 ADD MSTORE PUSH1 0x64 SWAP1 REVERT JUMPDEST PUSH2 0x2C6B SWAP2 POP PUSH1 0x20 RETURNDATASIZE PUSH1 0x20 GT PUSH2 0x50C JUMPI PUSH2 0x4FE DUP2 DUP4 PUSH2 0x2DEC JUMP JUMPDEST DUP2 PUSH2 0x2C13 JUMP JUMPDEST SWAP1 POP PUSH1 0x20 DUP2 RETURNDATASIZE PUSH1 0x20 GT PUSH2 0x2C9D JUMPI JUMPDEST DUP2 PUSH2 0x2C8C PUSH1 0x20 SWAP4 DUP4 PUSH2 0x2DEC JUMP JUMPDEST DUP2 ADD SUB SLT PUSH2 0x129 JUMPI MLOAD PUSH2 0x2BE9 PUSH2 0x2BBD JUMP JUMPDEST RETURNDATASIZE SWAP2 POP PUSH2 0x2C7F JUMP JUMPDEST CALLVALUE PUSH2 0x129 JUMPI PUSH1 0x20 CALLDATASIZE PUSH1 0x3 NOT ADD SLT PUSH2 0x129 JUMPI PUSH1 0x4 CALLDATALOAD PUSH1 0x0 MSTORE PUSH1 0x3 PUSH1 0x20 MSTORE PUSH1 0x20 PUSH1 0x40 PUSH1 0x0 KECCAK256 SLOAD PUSH1 0x40 MLOAD SWAP1 DUP2 MSTORE RETURN JUMPDEST CALLVALUE PUSH2 0x129 JUMPI PUSH1 0x0 CALLDATASIZE PUSH1 0x3 NOT ADD SLT PUSH2 0x129 JUMPI DUP1 PUSH3 0x76A700 PUSH1 0x20 SWAP3 MSTORE RETURN JUMPDEST SWAP2 DUP2 PUSH1 0x1F DUP5 ADD SLT ISZERO PUSH2 0x129 JUMPI DUP3 CALLDATALOAD SWAP2 PUSH1 0x1 PUSH1 0x1 PUSH1 0x40 SHL SUB DUP4 GT PUSH2 0x129 JUMPI PUSH1 0x20 DUP4 DUP2 DUP7 ADD SWAP6 ADD ADD GT PUSH2 0x129 JUMPI JUMP JUMPDEST SWAP1 PUSH1 0x20 DUP1 DUP4 MLOAD SWAP3 DUP4 DUP2 MSTORE ADD SWAP3 ADD SWAP1 PUSH1 0x0 JUMPDEST DUP2 DUP2 LT PUSH2 0x2D38 JUMPI POP POP POP SWAP1 JUMP JUMPDEST DUP3 MLOAD DUP5 MSTORE PUSH1 0x20 SWAP4 DUP5 ADD SWAP4 SWAP1 SWAP3 ADD SWAP2 PUSH1 0x1 ADD PUSH2 0x2D2B JUMP JUMPDEST PUSH1 0x0 JUMPDEST DUP4 DUP2 LT PUSH2 0x2D61 JUMPI POP POP PUSH1 0x0 SWAP2 ADD MSTORE JUMP JUMPDEST DUP2 DUP2 ADD MLOAD DUP4 DUP3 ADD MSTORE PUSH1 0x20 ADD PUSH2 0x2D51 JUMP JUMPDEST SWAP1 PUSH1 0x20 SWAP2 PUSH2 0x2D8A DUP2 MLOAD DUP1 SWAP3 DUP2 DUP6 MSTORE DUP6 DUP1 DUP7 ADD SWAP2 ADD PUSH2 0x2D4E JUMP JUMPDEST PUSH1 0x1F ADD PUSH1 0x1F NOT AND ADD ADD SWAP1 JUMP JUMPDEST SWAP1 PUSH1 0x1 DUP3 DUP2 SHR SWAP3 AND DUP1 ISZERO PUSH2 0x2DC6 JUMPI JUMPDEST PUSH1 0x20 DUP4 LT EQ PUSH2 0x2DB0 JUMPI JUMP JUMPDEST PUSH4 0x4E487B71 PUSH1 0xE0 SHL PUSH1 0x0 MSTORE PUSH1 0x22 PUSH1 0x4 MSTORE PUSH1 0x24 PUSH1 0x0 REVERT JUMPDEST SWAP2 PUSH1 0x7F AND SWAP2 PUSH2 0x2DA5 JUMP JUMPDEST PUSH2 0x280 DUP2 ADD SWAP1 DUP2 LT PUSH1 0x1 PUSH1 0x1 PUSH1 0x40 SHL SUB DUP3 GT OR PUSH2 0x1EFB JUMPI PUSH1 0x40 MSTORE JUMP JUMPDEST SWAP1 PUSH1 0x1F DUP1 NOT SWAP2 ADD AND DUP2 ADD SWAP1 DUP2 LT PUSH1 0x1 PUSH1 0x1 PUSH1 0x40 SHL SUB DUP3 GT OR PUSH2 0x1EFB JUMPI PUSH1 0x40 MSTORE JUMP JUMPDEST SWAP1 PUSH1 0x40 MLOAD SWAP2 DUP3 PUSH1 0x0 DUP3 SLOAD SWAP3 PUSH2 0x2E21 DUP5 PUSH2 0x2D96 JUMP JUMPDEST DUP1 DUP5 MSTORE SWAP4 PUSH1 0x1 DUP2 AND SWAP1 DUP2 ISZERO PUSH2 0x2E8F JUMPI POP PUSH1 0x1 EQ PUSH2 0x2E48 JUMPI JUMPDEST POP PUSH2 0x2E46 SWAP3 POP SUB DUP4 PUSH2 0x2DEC JUMP JUMPDEST JUMP JUMPDEST SWAP1 POP PUSH1 0x0 SWAP3 SWAP2 SWAP3 MSTORE PUSH1 0x20 PUSH1 0x0 KECCAK256 SWAP1 PUSH1 0x0 SWAP2 JUMPDEST DUP2 DUP4 LT PUSH2 0x2E73 JUMPI POP POP SWAP1 PUSH1 0x20 PUSH2 0x2E46 SWAP3 DUP3 ADD ADD CODESIZE PUSH2 0x2E39 JUMP JUMPDEST PUSH1 0x20 SWAP2 SWAP4 POP DUP1 PUSH1 0x1 SWAP2 SLOAD DUP4 DUP6 DUP10 ADD ADD MSTORE ADD SWAP2 ADD SWAP1 SWAP2 DUP5 SWAP3 PUSH2 0x2E5A JUMP JUMPDEST SWAP1 POP PUSH1 0x20 SWAP3 POP PUSH2 0x2E46 SWAP5 SWAP2 POP PUSH1 0xFF NOT AND DUP3 DUP5 ADD MSTORE ISZERO ISZERO PUSH1 0x5 SHL DUP3 ADD ADD CODESIZE PUSH2 0x2E39 JUMP JUMPDEST ISZERO PUSH2 0x2EB8 JUMPI JUMP JUMPDEST PUSH1 0x40 MLOAD PUSH3 0x461BCD PUSH1 0xE5 SHL DUP2 MSTORE PUSH1 0x20 PUSH1 0x4 DUP3 ADD MSTORE PUSH1 0x9 PUSH1 0x24 DUP3 ADD MSTORE PUSH9 0x2737BA1030B236B4B7 PUSH1 0xB9 SHL PUSH1 0x44 DUP3 ADD MSTORE PUSH1 0x64 SWAP1 REVERT JUMPDEST SWAP1 DUP2 PUSH1 0x20 SWAP2 SUB SLT PUSH2 0x129 JUMPI MLOAD DUP1 ISZERO ISZERO DUP2 SUB PUSH2 0x129 JUMPI SWAP1 JUMP JUMPDEST ISZERO PUSH2 0x2F08 JUMPI JUMP JUMPDEST PUSH1 0x40 MLOAD PUSH3 0x461BCD PUSH1 0xE5 SHL DUP2 MSTORE PUSH1 0x20 PUSH1 0x4 DUP3 ADD MSTORE PUSH1 0x12 PUSH1 0x24 DUP3 ADD MSTORE PUSH18 0x14195D08191BD95CC81B9BDD08195E1A5CDD PUSH1 0x72 SHL PUSH1 0x44 DUP3 ADD MSTORE PUSH1 0x64 SWAP1 REVERT JUMPDEST ISZERO PUSH2 0x2F49 JUMPI JUMP JUMPDEST PUSH1 0x40 MLOAD PUSH3 0x461BCD PUSH1 0xE5 SHL DUP2 MSTORE PUSH1 0x20 PUSH1 0x4 DUP3 ADD MSTORE PUSH1 0x1F PUSH1 0x24 DUP3 ADD MSTORE PUSH32 0x5265656E7472616E637947756172643A207265656E7472616E742063616C6C00 PUSH1 0x44 DUP3 ADD MSTORE PUSH1 0x64 SWAP1 REVERT JUMPDEST ISZERO PUSH2 0x2F95 JUMPI JUMP JUMPDEST PUSH1 0x40 MLOAD PUSH3 0x461BCD PUSH1 0xE5 SHL DUP2 MSTORE PUSH1 0x20 PUSH1 0x4 DUP3 ADD MSTORE PUSH1 0x14 PUSH1 0x24 DUP3 ADD MSTORE PUSH20 0x18D554D1081D1C985B9CD9995C8819985A5B1959 PUSH1 0x62 SHL PUSH1 0x44 DUP3 ADD MSTORE PUSH1 0x64 SWAP1 REVERT JUMPDEST SWAP3 SWAP2 SWAP3 PUSH1 0x1 PUSH1 0x1 PUSH1 0x40 SHL SUB DUP3 GT PUSH2 0x1EFB JUMPI PUSH1 0x40 MLOAD SWAP2 PUSH2 0x2FFA PUSH1 0x1F DUP3 ADD PUSH1 0x1F NOT AND PUSH1 0x20 ADD DUP5 PUSH2 0x2DEC JUMP JUMPDEST DUP3 SWAP5 DUP2 DUP5 MSTORE DUP2 DUP4 ADD GT PUSH2 0x129 JUMPI DUP3 DUP2 PUSH1 0x20 SWAP4 DUP5 PUSH1 0x0 SWAP7 ADD CALLDATACOPY ADD ADD MSTORE JUMP JUMPDEST PUSH1 0x0 NOT DUP2 EQ PUSH2 0x900 JUMPI PUSH1 0x1 ADD SWAP1 JUMP JUMPDEST PUSH1 0x1 PUSH1 0x1 PUSH1 0x40 SHL SUB DUP2 GT PUSH2 0x1EFB JUMPI PUSH1 0x5 SHL PUSH1 0x20 ADD SWAP1 JUMP JUMPDEST SWAP1 PUSH2 0x3047 DUP3 PUSH2 0x3026 JUMP JUMPDEST PUSH2 0x3054 PUSH1 0x40 MLOAD SWAP2 DUP3 PUSH2 0x2DEC JUMP JUMPDEST DUP3 DUP2 MSTORE DUP1 SWAP3 PUSH2 0x3065 PUSH1 0x1F NOT SWAP2 PUSH2 0x3026 JUMP JUMPDEST ADD SWAP1 PUSH1 0x20 CALLDATASIZE SWAP2 ADD CALLDATACOPY JUMP JUMPDEST DUP1 MLOAD DUP3 LT ISZERO PUSH2 0x3083 JUMPI PUSH1 0x20 SWAP2 PUSH1 0x5 SHL ADD ADD SWAP1 JUMP JUMPDEST PUSH4 0x4E487B71 PUSH1 0xE0 SHL PUSH1 0x0 MSTORE PUSH1 0x32 PUSH1 0x4 MSTORE PUSH1 0x24 PUSH1 0x0 REVERT JUMPDEST ISZERO PUSH2 0x30A0 JUMPI JUMP JUMPDEST PUSH1 0x40 MLOAD PUSH3 0x461BCD PUSH1 0xE5 SHL DUP2 MSTORE PUSH1 0x20 PUSH1 0x4 DUP3 ADD MSTORE PUSH1 0xD PUSH1 0x24 DUP3 ADD MSTORE PUSH13 0x2737BA103832BA1037BBB732B9 PUSH1 0x99 SHL PUSH1 0x44 DUP3 ADD MSTORE PUSH1 0x64 SWAP1 REVERT JUMPDEST ISZERO PUSH2 0x30DC JUMPI JUMP JUMPDEST PUSH1 0x40 MLOAD PUSH3 0x461BCD PUSH1 0xE5 SHL DUP2 MSTORE PUSH1 0x20 PUSH1 0x4 DUP3 ADD MSTORE PUSH1 0xD PUSH1 0x24 DUP3 ADD MSTORE PUSH13 0x105B1C9958591E48199BDD5B99 PUSH1 0x9A SHL PUSH1 0x44 DUP3 ADD MSTORE PUSH1 0x64 SWAP1 REVERT JUMPDEST ISZERO PUSH2 0x3119 JUMPI POP JUMP JUMPDEST PUSH1 0x40 MLOAD PUSH3 0x461BCD PUSH1 0xE5 SHL DUP2 MSTORE PUSH1 0x20 PUSH1 0x4 DUP3 ADD MSTORE SWAP1 DUP2 SWAP1 PUSH2 0x313D SWAP1 PUSH1 0x24 DUP4 ADD SWAP1 PUSH2 0x2D71 JUMP JUMPDEST SUB SWAP1 REVERT JUMPDEST PUSH2 0x314C SWAP2 CALLDATASIZE SWAP2 PUSH2 0x2FD1 JUMP JUMPDEST DUP1 MLOAD SWAP1 PUSH1 0x2 DUP3 LT ISZERO SWAP2 DUP3 PUSH2 0x3213 JUMPI JUMPDEST POP PUSH1 0x40 MLOAD SWAP2 DUP4 MLOAD SWAP3 DUP1 PUSH1 0x20 DUP7 ADD SWAP5 DUP1 PUSH1 0x20 DUP4 ADD SWAP1 PUSH2 0x3179 SWAP2 DUP9 PUSH2 0x2D4E JUMP JUMPDEST DUP2 ADD PUSH1 0x20 DUP2 ADD PUSH15 0x81B195B99DD1A081A5B9D985B1A59 PUSH1 0x8A SHL SWAP1 MSTORE SUB PUSH1 0x20 ADD PUSH1 0x10 NOT DUP2 ADD DUP3 MSTORE PUSH1 0xF ADD PUSH2 0x31AC SWAP1 DUP3 PUSH2 0x2DEC JUMP JUMPDEST PUSH2 0x31B5 SWAP2 PUSH2 0x3111 JUMP JUMPDEST PUSH2 0x31BE SWAP1 PUSH2 0x32D6 JUMP JUMPDEST ISZERO SWAP2 PUSH1 0x40 MLOAD SWAP2 DUP3 SWAP2 MLOAD SWAP1 DUP2 PUSH1 0x20 DUP5 ADD PUSH2 0x31D6 SWAP3 PUSH2 0x2D4E JUMP JUMPDEST DUP2 ADD PUSH1 0x20 DUP2 ADD PUSH16 0x2063616E6E6F7420626520626C616E6B PUSH1 0x80 SHL SWAP1 MSTORE SUB PUSH1 0x20 ADD PUSH1 0xF NOT DUP2 ADD DUP3 MSTORE PUSH1 0x10 ADD PUSH2 0x320A SWAP1 DUP3 PUSH2 0x2DEC JUMP JUMPDEST PUSH2 0x2E46 SWAP2 PUSH2 0x3111 JUMP JUMPDEST PUSH1 0x32 LT ISZERO SWAP2 POP CODESIZE PUSH2 0x315B JUMP JUMPDEST SWAP1 DUP2 MLOAD DUP2 LT ISZERO PUSH2 0x3083 JUMPI ADD PUSH1 0x20 ADD SWAP1 JUMP JUMPDEST PUSH1 0x5 DUP2 MLOAD LT PUSH2 0x32D0 JUMPI PUSH1 0x0 DUP1 SWAP2 DUP2 JUMPDEST DUP2 MLOAD DUP4 LT ISZERO PUSH2 0x32BE JUMPI PUSH1 0x1 PUSH1 0xFE SHL PUSH1 0x1 PUSH1 0x1 PUSH1 0xF8 SHL SUB NOT PUSH2 0x3260 DUP6 DUP6 PUSH2 0x321F JUMP JUMPDEST MLOAD AND SUB PUSH2 0x327F JUMPI PUSH2 0x3277 JUMPI PUSH1 0x1 DUP1 SWAP3 JUMPDEST ADD SWAP2 PUSH2 0x323F JUMP JUMPDEST POP POP POP PUSH1 0x0 SWAP1 JUMP JUMPDEST SWAP2 DUP3 DUP1 PUSH2 0x329D JUMPI JUMPDEST PUSH2 0x3294 JUMPI JUMPDEST PUSH1 0x1 SWAP1 PUSH2 0x3270 JUMP JUMPDEST PUSH1 0x1 SWAP4 POP PUSH2 0x328C JUMP JUMPDEST POP PUSH1 0x17 PUSH1 0xF9 SHL PUSH1 0x1 PUSH1 0x1 PUSH1 0xF8 SHL SUB NOT PUSH2 0x32B6 DUP4 DUP6 PUSH2 0x321F JUMP JUMPDEST MLOAD AND EQ PUSH2 0x3287 JUMP JUMPDEST SWAP3 SWAP2 POP POP DUP2 PUSH2 0x32CB JUMPI POP SWAP1 JUMP JUMPDEST SWAP1 POP SWAP1 JUMP JUMPDEST POP PUSH1 0x0 SWAP1 JUMP JUMPDEST PUSH1 0x0 JUMPDEST DUP2 MLOAD DUP2 LT ISZERO PUSH2 0x3310 JUMPI PUSH1 0x1 PUSH1 0xFD SHL PUSH1 0x1 PUSH1 0x1 PUSH1 0xF8 SHL SUB NOT PUSH2 0x32FA DUP4 DUP6 PUSH2 0x321F JUMP JUMPDEST MLOAD AND SUB PUSH2 0x3309 JUMPI PUSH1 0x1 ADD PUSH2 0x32D9 JUMP JUMPDEST POP POP PUSH1 0x0 SWAP1 JUMP JUMPDEST POP POP PUSH1 0x1 SWAP1 JUMP INVALID LOG2 PUSH5 0x6970667358 0x22 SLT KECCAK256 0x2B 0xEF JUMPDEST 0x21 0xF6 LOG3 JUMP SWAP2 0xE SLT EXTCODESIZE SWAP2 0xFC 0xB0 OR 0x24 0xDA POP 0xCB 0xE8 0xBF MULMOD JUMPI EQ SWAP5 0xE9 PUSH10 0x830BAC02AA64736F6C63 NUMBER STOP ADDMOD SHR STOP CALLER "
        },
        "methodIdentifiers": {
          "BOUNTY_TIMEOUT()": "0b5d39fa",
          "CUSD_ADDRESS()": "465c66e9",
          "MAX_CELO_BOUNTY()": "3fa8be32",
          "MAX_CUSD_BOUNTY()": "9dc5ac72",
          "admin()": "f851a440",
          "cancelAndRefund(uint256)": "d32bfb6c",
          "claimBounty(uint256)": "44021ad7",
          "confirmFoundByOwner(uint256)": "5e23985b",
          "emergencyWithdrawCUSD(address)": "3f26decd",
          "escrowedCUSD(uint256)": "1850e3a7",
          "getAllLostPets()": "543df5a3",
          "getLostPetIds(uint256,uint256)": "a06e0061",
          "getLostPetsCount()": "8b504c17",
          "getPetDetails(uint256)": "d89fd4b4",
          "markAsFound(uint256)": "b3035b64",
          "nextPetId()": "403f8cc7",
          "pets(uint256)": "cfb869bf",
          "postLostPet(string,string,string,uint128,uint128,string,string,string,string,string,string,string,uint128)": "4b15c659",
          "postTime(uint256)": "d74a48a4",
          "transferAdmin(address)": "75829def"
        }
      }
    }
  }
}