{
  "contracts/PetTrace.sol": {
    "PetTrace": {
      "abi": [
        {
          "inputs": [],
          "stateMutability": "nonpayable",
          "type": "constructor"
        },
        {
          "anonymous": false,
          "inputs": [
            {
              "indexed": true,
              "internalType": "address",
              "name": "newAdmin",
              "type": "address"
            }
          ],
          "name": "AdminChanged",
          "type": "event"
        },
        {
          "anonymous": false,
          "inputs": [
            {
              "indexed": true,
              "internalType": "uint256",
              "name": "petId",
              "type": "uint256"
            },
            {
              "indexed": true,
              "internalType": "address",
              "name": "finder",
              "type": "address"
            },
            {
              "indexed": false,
              "internalType": "uint256",
              "name": "celoAmount",
              "type": "uint256"
            },
            {
              "indexed": false,
              "internalType": "uint256",
              "name": "cUSDAmount",
              "type": "uint256"
            },
            {
              "indexed": false,
              "internalType": "uint256",
              "name": "gDollarAmount",
              "type": "uint256"
            }
          ],
          "name": "BountyClaimed",
          "type": "event"
        },
        {
          "anonymous": false,
          "inputs": [
            {
              "indexed": true,
              "internalType": "uint256",
              "name": "petId",
              "type": "uint256"
            },
            {
              "indexed": true,
              "internalType": "address",
              "name": "owner",
              "type": "address"
            },
            {
              "indexed": false,
              "internalType": "uint256",
              "name": "celoAmount",
              "type": "uint256"
            },
            {
              "indexed": false,
              "internalType": "uint256",
              "name": "cUSDAmount",
              "type": "uint256"
            },
            {
              "indexed": false,
              "internalType": "uint256",
              "name": "gDollarAmount",
              "type": "uint256"
            }
          ],
          "name": "BountyRefunded",
          "type": "event"
        },
        {
          "anonymous": false,
          "inputs": [
            {
              "indexed": true,
              "internalType": "uint256",
              "name": "petId",
              "type": "uint256"
            },
            {
              "indexed": true,
              "internalType": "address",
              "name": "confirmer",
              "type": "address"
            },
            {
              "indexed": false,
              "internalType": "bool",
              "name": "isOwner",
              "type": "bool"
            }
          ],
          "name": "ConfirmationAdded",
          "type": "event"
        },
        {
          "anonymous": false,
          "inputs": [
            {
              "indexed": true,
              "internalType": "uint256",
              "name": "petId",
              "type": "uint256"
            },
            {
              "indexed": true,
              "internalType": "address",
              "name": "finder",
              "type": "address"
            }
          ],
          "name": "PetFound",
          "type": "event"
        },
        {
          "anonymous": false,
          "inputs": [
            {
              "indexed": true,
              "internalType": "uint256",
              "name": "petId",
              "type": "uint256"
            },
            {
              "indexed": true,
              "internalType": "address",
              "name": "owner",
              "type": "address"
            }
          ],
          "name": "PetPosted",
          "type": "event"
        },
        {
          "inputs": [],
          "name": "BOUNTY_TIMEOUT",
          "outputs": [
            {
              "internalType": "uint256",
              "name": "",
              "type": "uint256"
            }
          ],
          "stateMutability": "view",
          "type": "function"
        },
        {
          "inputs": [],
          "name": "CUSD_ADDRESS",
          "outputs": [
            {
              "internalType": "address",
              "name": "",
              "type": "address"
            }
          ],
          "stateMutability": "view",
          "type": "function"
        },
        {
          "inputs": [],
          "name": "GDOLLAR_ADDRESS",
          "outputs": [
            {
              "internalType": "address",
              "name": "",
              "type": "address"
            }
          ],
          "stateMutability": "view",
          "type": "function"
        },
        {
          "inputs": [],
          "name": "MAX_CELO_BOUNTY",
          "outputs": [
            {
              "internalType": "uint256",
              "name": "",
              "type": "uint256"
            }
          ],
          "stateMutability": "view",
          "type": "function"
        },
        {
          "inputs": [],
          "name": "MAX_CUSD_BOUNTY",
          "outputs": [
            {
              "internalType": "uint256",
              "name": "",
              "type": "uint256"
            }
          ],
          "stateMutability": "view",
          "type": "function"
        },
        {
          "inputs": [],
          "name": "admin",
          "outputs": [
            {
              "internalType": "address",
              "name": "",
              "type": "address"
            }
          ],
          "stateMutability": "view",
          "type": "function"
        },
        {
          "inputs": [
            {
              "internalType": "uint256",
              "name": "petId",
              "type": "uint256"
            }
          ],
          "name": "cancelAndRefund",
          "outputs": [],
          "stateMutability": "nonpayable",
          "type": "function"
        },
        {
          "inputs": [
            {
              "internalType": "uint256",
              "name": "petId",
              "type": "uint256"
            }
          ],
          "name": "claimBounty",
          "outputs": [],
          "stateMutability": "nonpayable",
          "type": "function"
        },
        {
          "inputs": [
            {
              "internalType": "uint256",
              "name": "petId",
              "type": "uint256"
            }
          ],
          "name": "confirmFoundByOwner",
          "outputs": [],
          "stateMutability": "nonpayable",
          "type": "function"
        },
        {
          "inputs": [
            {
              "internalType": "address",
              "name": "to",
              "type": "address"
            }
          ],
          "name": "emergencyWithdrawCUSD",
          "outputs": [],
          "stateMutability": "nonpayable",
          "type": "function"
        },
        {
          "inputs": [
            {
              "internalType": "uint256",
              "name": "",
              "type": "uint256"
            }
          ],
          "name": "escrowedCUSD",
          "outputs": [
            {
              "internalType": "uint256",
              "name": "",
              "type": "uint256"
            }
          ],
          "stateMutability": "view",
          "type": "function"
        },
        {
          "inputs": [
            {
              "internalType": "uint256",
              "name": "",
              "type": "uint256"
            }
          ],
          "name": "escrowedGDOLLAR",
          "outputs": [
            {
              "internalType": "uint256",
              "name": "",
              "type": "uint256"
            }
          ],
          "stateMutability": "view",
          "type": "function"
        },
        {
          "inputs": [],
          "name": "getAllLostPets",
          "outputs": [
            {
              "internalType": "uint256[]",
              "name": "",
              "type": "uint256[]"
            },
            {
              "components": [
                {
                  "internalType": "uint256",
                  "name": "id",
                  "type": "uint256"
                },
                {
                  "internalType": "address payable",
                  "name": "owner",
                  "type": "address"
                },
                {
                  "internalType": "string",
                  "name": "name",
                  "type": "string"
                },
                {
                  "internalType": "string",
                  "name": "breed",
                  "type": "string"
                },
                {
                  "internalType": "string",
                  "name": "gender",
                  "type": "string"
                },
                {
                  "internalType": "uint128",
                  "name": "sizeCm",
                  "type": "uint128"
                },
                {
                  "internalType": "uint128",
                  "name": "ageMonths",
                  "type": "uint128"
                },
                {
                  "internalType": "string",
                  "name": "dateTimeLost",
                  "type": "string"
                },
                {
                  "internalType": "string",
                  "name": "description",
                  "type": "string"
                },
                {
                  "internalType": "string",
                  "name": "imageUrl",
                  "type": "string"
                },
                {
                  "internalType": "string",
                  "name": "lastSeenLocation",
                  "type": "string"
                },
                {
                  "internalType": "string",
                  "name": "contactName",
                  "type": "string"
                },
                {
                  "internalType": "string",
                  "name": "contactPhone",
                  "type": "string"
                },
                {
                  "internalType": "string",
                  "name": "contactEmail",
                  "type": "string"
                },
                {
                  "internalType": "uint128",
                  "name": "celoBounty",
                  "type": "uint128"
                },
                {
                  "internalType": "uint128",
                  "name": "cUSDBounty",
                  "type": "uint128"
                },
                {
                  "internalType": "uint128",
                  "name": "gDollarBounty",
                  "type": "uint128"
                },
                {
                  "internalType": "enum PetTrace.PetStatus",
                  "name": "status",
                  "type": "uint8"
                },
                {
                  "internalType": "bool",
                  "name": "ownerConfirmed",
                  "type": "bool"
                },
                {
                  "internalType": "bool",
                  "name": "finderConfirmed",
                  "type": "bool"
                },
                {
                  "internalType": "address",
                  "name": "finder",
                  "type": "address"
                }
              ],
              "internalType": "struct PetTrace.Pet[]",
              "name": "",
              "type": "tuple[]"
            }
          ],
          "stateMutability": "view",
          "type": "function"
        },
        {
          "inputs": [],
          "name": "getAllPets",
          "outputs": [
            {
              "components": [
                {
                  "internalType": "uint256",
                  "name": "id",
                  "type": "uint256"
                },
                {
                  "internalType": "address payable",
                  "name": "owner",
                  "type": "address"
                },
                {
                  "internalType": "string",
                  "name": "name",
                  "type": "string"
                },
                {
                  "internalType": "string",
                  "name": "breed",
                  "type": "string"
                },
                {
                  "internalType": "string",
                  "name": "gender",
                  "type": "string"
                },
                {
                  "internalType": "uint128",
                  "name": "sizeCm",
                  "type": "uint128"
                },
                {
                  "internalType": "uint128",
                  "name": "ageMonths",
                  "type": "uint128"
                },
                {
                  "internalType": "string",
                  "name": "dateTimeLost",
                  "type": "string"
                },
                {
                  "internalType": "string",
                  "name": "description",
                  "type": "string"
                },
                {
                  "internalType": "string",
                  "name": "imageUrl",
                  "type": "string"
                },
                {
                  "internalType": "string",
                  "name": "lastSeenLocation",
                  "type": "string"
                },
                {
                  "internalType": "string",
                  "name": "contactName",
                  "type": "string"
                },
                {
                  "internalType": "string",
                  "name": "contactPhone",
                  "type": "string"
                },
                {
                  "internalType": "string",
                  "name": "contactEmail",
                  "type": "string"
                },
                {
                  "internalType": "uint128",
                  "name": "celoBounty",
                  "type": "uint128"
                },
                {
                  "internalType": "uint128",
                  "name": "cUSDBounty",
                  "type": "uint128"
                },
                {
                  "internalType": "uint128",
                  "name": "gDollarBounty",
                  "type": "uint128"
                },
                {
                  "internalType": "enum PetTrace.PetStatus",
                  "name": "status",
                  "type": "uint8"
                },
                {
                  "internalType": "bool",
                  "name": "ownerConfirmed",
                  "type": "bool"
                },
                {
                  "internalType": "bool",
                  "name": "finderConfirmed",
                  "type": "bool"
                },
                {
                  "internalType": "address",
                  "name": "finder",
                  "type": "address"
                }
              ],
              "internalType": "struct PetTrace.Pet[]",
              "name": "",
              "type": "tuple[]"
            }
          ],
          "stateMutability": "view",
          "type": "function"
        },
        {
          "inputs": [
            {
              "internalType": "uint256",
              "name": "startIndex",
              "type": "uint256"
            },
            {
              "internalType": "uint256",
              "name": "maxCount",
              "type": "uint256"
            }
          ],
          "name": "getLostPetIds",
          "outputs": [
            {
              "internalType": "uint256[]",
              "name": "ids",
              "type": "uint256[]"
            },
            {
              "internalType": "bool",
              "name": "hasMore",
              "type": "bool"
            }
          ],
          "stateMutability": "view",
          "type": "function"
        },
        {
          "inputs": [],
          "name": "getLostPetsCount",
          "outputs": [
            {
              "internalType": "uint256",
              "name": "",
              "type": "uint256"
            }
          ],
          "stateMutability": "view",
          "type": "function"
        },
        {
          "inputs": [
            {
              "internalType": "uint256",
              "name": "petId",
              "type": "uint256"
            }
          ],
          "name": "getPetDetails",
          "outputs": [
            {
              "internalType": "uint256",
              "name": "",
              "type": "uint256"
            },
            {
              "internalType": "address",
              "name": "",
              "type": "address"
            },
            {
              "internalType": "string",
              "name": "",
              "type": "string"
            },
            {
              "internalType": "string",
              "name": "",
              "type": "string"
            },
            {
              "internalType": "string",
              "name": "",
              "type": "string"
            },
            {
              "internalType": "uint128",
              "name": "",
              "type": "uint128"
            },
            {
              "internalType": "uint128",
              "name": "",
              "type": "uint128"
            },
            {
              "internalType": "string",
              "name": "",
              "type": "string"
            },
            {
              "internalType": "string",
              "name": "",
              "type": "string"
            },
            {
              "internalType": "string",
              "name": "",
              "type": "string"
            },
            {
              "internalType": "string",
              "name": "",
              "type": "string"
            },
            {
              "internalType": "string",
              "name": "",
              "type": "string"
            },
            {
              "internalType": "string",
              "name": "",
              "type": "string"
            },
            {
              "internalType": "string",
              "name": "",
              "type": "string"
            },
            {
              "internalType": "uint128",
              "name": "",
              "type": "uint128"
            },
            {
              "internalType": "uint128",
              "name": "",
              "type": "uint128"
            },
            {
              "internalType": "uint128",
              "name": "",
              "type": "uint128"
            },
            {
              "internalType": "enum PetTrace.PetStatus",
              "name": "",
              "type": "uint8"
            },
            {
              "internalType": "bool",
              "name": "",
              "type": "bool"
            },
            {
              "internalType": "bool",
              "name": "",
              "type": "bool"
            },
            {
              "internalType": "address",
              "name": "",
              "type": "address"
            }
          ],
          "stateMutability": "view",
          "type": "function"
        },
        {
          "inputs": [
            {
              "internalType": "uint256",
              "name": "petId",
              "type": "uint256"
            }
          ],
          "name": "markAsFound",
          "outputs": [],
          "stateMutability": "nonpayable",
          "type": "function"
        },
        {
          "inputs": [],
          "name": "nextPetId",
          "outputs": [
            {
              "internalType": "uint256",
              "name": "",
              "type": "uint256"
            }
          ],
          "stateMutability": "view",
          "type": "function"
        },
        {
          "inputs": [
            {
              "internalType": "uint256",
              "name": "",
              "type": "uint256"
            }
          ],
          "name": "pets",
          "outputs": [
            {
              "internalType": "uint256",
              "name": "id",
              "type": "uint256"
            },
            {
              "internalType": "address payable",
              "name": "owner",
              "type": "address"
            },
            {
              "internalType": "string",
              "name": "name",
              "type": "string"
            },
            {
              "internalType": "string",
              "name": "breed",
              "type": "string"
            },
            {
              "internalType": "string",
              "name": "gender",
              "type": "string"
            },
            {
              "internalType": "uint128",
              "name": "sizeCm",
              "type": "uint128"
            },
            {
              "internalType": "uint128",
              "name": "ageMonths",
              "type": "uint128"
            },
            {
              "internalType": "string",
              "name": "dateTimeLost",
              "type": "string"
            },
            {
              "internalType": "string",
              "name": "description",
              "type": "string"
            },
            {
              "internalType": "string",
              "name": "imageUrl",
              "type": "string"
            },
            {
              "internalType": "string",
              "name": "lastSeenLocation",
              "type": "string"
            },
            {
              "internalType": "string",
              "name": "contactName",
              "type": "string"
            },
            {
              "internalType": "string",
              "name": "contactPhone",
              "type": "string"
            },
            {
              "internalType": "string",
              "name": "contactEmail",
              "type": "string"
            },
            {
              "internalType": "uint128",
              "name": "celoBounty",
              "type": "uint128"
            },
            {
              "internalType": "uint128",
              "name": "cUSDBounty",
              "type": "uint128"
            },
            {
              "internalType": "uint128",
              "name": "gDollarBounty",
              "type": "uint128"
            },
            {
              "internalType": "enum PetTrace.PetStatus",
              "name": "status",
              "type": "uint8"
            },
            {
              "internalType": "bool",
              "name": "ownerConfirmed",
              "type": "bool"
            },
            {
              "internalType": "bool",
              "name": "finderConfirmed",
              "type": "bool"
            },
            {
              "internalType": "address",
              "name": "finder",
              "type": "address"
            }
          ],
          "stateMutability": "view",
          "type": "function"
        },
        {
          "inputs": [
            {
              "internalType": "string",
              "name": "name",
              "type": "string"
            },
            {
              "internalType": "string",
              "name": "breed",
              "type": "string"
            },
            {
              "internalType": "string",
              "name": "gender",
              "type": "string"
            },
            {
              "internalType": "uint128",
              "name": "sizeCm",
              "type": "uint128"
            },
            {
              "internalType": "uint128",
              "name": "ageMonths",
              "type": "uint128"
            },
            {
              "internalType": "string",
              "name": "dateTimeLost",
              "type": "string"
            },
            {
              "internalType": "string",
              "name": "description",
              "type": "string"
            },
            {
              "internalType": "string",
              "name": "imageUrl",
              "type": "string"
            },
            {
              "internalType": "string",
              "name": "lastSeenLocation",
              "type": "string"
            },
            {
              "internalType": "string",
              "name": "contactName",
              "type": "string"
            },
            {
              "internalType": "string",
              "name": "contactPhone",
              "type": "string"
            },
            {
              "internalType": "string",
              "name": "contactEmail",
              "type": "string"
            },
            {
              "internalType": "uint128",
              "name": "cUSDBounty",
              "type": "uint128"
            },
            {
              "internalType": "uint128",
              "name": "gDollarBounty",
              "type": "uint128"
            }
          ],
          "name": "postLostPet",
          "outputs": [],
          "stateMutability": "payable",
          "type": "function"
        },
        {
          "inputs": [
            {
              "internalType": "uint256",
              "name": "",
              "type": "uint256"
            }
          ],
          "name": "postTime",
          "outputs": [
            {
              "internalType": "uint256",
              "name": "",
              "type": "uint256"
            }
          ],
          "stateMutability": "view",
          "type": "function"
        },
        {
          "inputs": [
            {
              "internalType": "address",
              "name": "newAdmin",
              "type": "address"
            }
          ],
          "name": "transferAdmin",
          "outputs": [],
          "stateMutability": "nonpayable",
          "type": "function"
        }
      ],
      "evm": {
        "bytecode": {
          "linkReferences": {},
          "object": "6080806040523460355760008054610100600160a81b0319163360081b610100600160a81b0316179055613c0a908161003b8239f35b600080fdfe61046080604052600436101561001457600080fd5b60003560e01c9081630b5d39fa1461323e575080631850e3a7146132125780633f26decd146130af5780633fa8be321461308c578063403f8cc71461306e57806344021ad714612d32578063465c66e914612d03578063543df5a314612a845780635b236d97146128b45780635e23985b1461274457806375829def1461267c5780638b504c171461260e5780639dc5ac72146125e9578063a06e0061146124c6578063b3035b6414612362578063ce2ed0e214610a16578063cfb869bf1461079c578063d25a6f0514610770578063d32bfb6c14610437578063d74a48a41461040b578063d89fd4b41461017e578063ee7afb1c1461014f5763f851a4401461011d57600080fd5b3461014a57600036600319011261014a5760005460405160089190911c6001600160a01b03168152602090f35b600080fd5b3461014a57600036600319011261014a5760206040517362b8b11039fcfe5ab0c56e502b1c372a3d2a9c7a8152f35b3461014a57602036600319011261014a5760043560015481106101a090613681565b600052600260205260406000208054600160a01b60019003600183015416600583015491600d84015493600e81015492600160a01b60019003600f8301541694600283016101ed9061358d565b906101fa6003850161358d565b906102076004860161358d565b906102146006870161358d565b906102216007880161358d565b9261022e6008890161358d565b9461023b60098a0161358d565b96610248600a8b0161358d565b98610255600b8c0161358d565b9a600c016102629061358d565b9b6040516104205261042051526104205160200152610420516040016102a09052610420516102a001610294916132b1565b61042051810361042051606001526102ab916132b1565b61042051810361042051608001526102c2916132b1565b906001600160801b0381166104205160a0015260801c6104205160c001526104205181036104205160e001526102f7916132b1565b61042051810361042051610100015261030f916132b1565b610420518103610420516101200152610327916132b1565b61042051810361042051610140015261033f916132b1565b610420518103610420516101600152610357916132b1565b61042051810361042051610180015261036f916132b1565b610420518103610420516101a00152610387916132b1565b926001600160801b038116610420516101c0015260801c610420516101e001526001600160801b03811661042051610200015261042051610220018160801c60ff16906103d3916132d6565b8060881c60ff16151561042051610240015260901c60ff16151561042051610260015261042051610280015261042051900361042051f35b3461014a57602036600319011261014a5760043560005260056020526020604060002054604051908152f35b3461014a57602036600319011261014a5760043580600052600260205261046f60018060a01b0360016040600020015416331461390f565b600160005461048160ff8216156136c2565b60ff191617600055806000526002602052604060002090600e820180549260ff8460801c16600381101561075a576104b9901561394b565b600f8101546001600160a01b031661071557600d01805460009182905582546001600160801b031916835583825260036020908152604080842084905560049091528220919091556001600160801b0380821694169060801c84801580156106ee575b505080610648575b81610588575b825460ff60801b1916600160811b179092556040805194855260208501929092529083015233917f5a15fed544596f86ab10d13ce99dfeb4e13095d939b5749ae220fbc4f05846369080606081015b0390a36000805460ff19169055005b60405163a9059cbb60e01b81523360048201526024810183905260208160448160007362b8b11039fcfe5ab0c56e502b1c372a3d2a9c7a5af190811561063c5760009161060d575b5061052a5760405162461bcd60e51b815260206004820152601060248201526f11c9081c99599d5b990819985a5b195960821b6044820152606490fd5b61062f915060203d602011610635575b610627818361356c565b810190613669565b866105d0565b503d61061d565b6040513d6000823e3d90fd5b60405163a9059cbb60e01b815233600482015260248101829052602081604481600073765de816845861e75a25fca122bb6898b8b1282a5af190811561063c576000916106cf575b506105245760405162461bcd60e51b815260206004820152601260248201527118d554d1081c99599d5b990819985a5b195960721b6044820152606490fd5b6106e8915060203d60201161063557610627818361356c565b86610690565b60009061070c575b600080809381933390f11561063c57848661051c565b506108fc6106f6565b60405162461bcd60e51b815260206004820152601760248201527f46696e64657220616c72656164792061737369676e65640000000000000000006044820152606490fd5b634e487b7160e01b600052602160045260246000fd5b3461014a57602036600319011261014a5760043560005260046020526020604060002054604051908152f35b3461014a57602036600319011261014a57600435600052600260205260406000208054600160a01b6001900360018301541691600281016107dc9061358d565b6107e86003830161358d565b6107f46004840161358d565b60058401546108056006860161358d565b6108116007870161358d565b61081d6008880161358d565b9161082a6009890161358d565b93610837600a8a0161358d565b95610844600b8b0161358d565b97610851600c8c0161358d565b99600d8c01549d600e8d01549c600160a01b6001900390600f0154169d6040516104405261044051526104405160200152610440516040016102a09052610440516102a00161089f916132b1565b61044051810361044051606001526108b6916132b1565b61044051810361044051608001526108cd916132b1565b906001600160801b0381166104405160a0015260801c6104405160c001526104405181036104405160e00152610902916132b1565b61044051810361044051610100015261091a916132b1565b610440518103610440516101200152610932916132b1565b61044051810361044051610140015261094a916132b1565b610440518103610440516101600152610962916132b1565b61044051810361044051610180015261097a916132b1565b610440518103610440516101a00152610992916132b1565b926001600160801b038116610440516101c0015260801c610440516101e001526001600160801b03811661044051610200015261044051610220018160801c60ff16906109de916132d6565b8060881c60ff16151561044051610240015260901c60ff16151561044051610260015261044051610280015261044051900361044051f35b6101c036600319011261014a576004356001600160401b03811161014a57610a429036906004016134e9565b6102c0526103a0526024356001600160401b03811161014a57610a699036906004016134e9565b61032052610400526044356001600160401b03811161014a57610a909036906004016134e9565b61012052610160526064356101a08190526001600160801b038116900361014a576084356101c08190526001600160801b038116900361014a5760a4356001600160401b03811161014a57610ae99036906004016134e9565b610220526102405260c4356001600160401b03811161014a57610b109036906004016134e9565b610280526102a05260e4356001600160401b03811161014a57610b379036906004016134e9565b6103e05261034052610104356001600160401b03811161014a57610b5f9036906004016134e9565b6103c052610380526001600160401b03610124351161014a57610b8836610124356004016134e9565b61036052610300526001600160401b03610144351161014a57610bb136610144356004016134e9565b6102e05261026052610164356001600160401b03811161014a57610bd99036906004016134e9565b610200526101e052610184356101808190526001600160801b038116900361014a576101a4356101408190526001600160801b038116900361014a576001600054610c2760ff8216156136c2565b60ff191617600055678ac7230489e8000034116123255769021e19e0c9bab24000006001600160801b036101805116116122e85769021e19e0c9bab24000006001600160801b036101405116116122ad573415801590612298575b8015612283575b1561224c5760406101008190528051610cc491610ca6908261356c565b60048152634e616d6560e01b60208201526102c0516103a0516139fe565b610100518051610cf791610cd8908261356c565b6005815264109c99595960da1b602082015261032051610400516139fe565b610100518051610de291610d0b908261356c565b600681526523b2b73232b960d11b6020820152610d97610d32366101205161016051613988565b610d92815160018110159081612240575b50610100515190610d8d600f6020848951610d64818c85808601910161328e565b81016e081b195b99dd1a081a5b9d985b1a59608a1b83820152030160101981018552018361356c565b6139ce565b613b93565b15610d8d60106020610100515185610db8829751809285808601910161328e565b81016f2063616e6e6f7420626520626c616e6b60801b838201520301600f1981018552018361356c565b6101005150610ea1610db86101005151610dff610100518261356c565b600b8152610d8d60106020808401936a2232b9b1b934b83a34b7b760a91b8552610e8b610e3336610280516102a051613988565b610d928151600a8110159081612233575b50610100515190610d8d600f88848d610e638b5180928585019061328e565b81016e081b195b99dd1a081a5b9d985b1a59608a1b8382015203018a1981018552018361356c565b159461010051519687925180928585019061328e565b6101005150610f1f610db86101005151610ebe610100518261356c565b60098152610d8d601060208084019368125b5859d94815549360ba1b8552610e8b610ef0366103e05161034051613988565b610d928151600a81101590816122275750610100515190610d8d600f88848d610e638b5180928585019061328e565b6101005150610f9c610db86101005151610f3c610100518261356c565b60088152610d8d6010602080840193672637b1b0ba34b7b760c11b8552610e8b610f6d366103c05161038051613988565b610d928151600581101590816122275750610100515190610d8d600f88848d610e638b5180928585019061328e565b610100515061101d610db86101005151610fb9610100518261356c565b600c8152610d8d60106020808401936b436f6e74616374206e616d6560a01b8552610e8b610fee366103605161030051613988565b610d9281516002811015908161221b5750610100515190610d8d600f88848d610e638b5180928585019061328e565b610100515061109f610db8610100515161103a610100518261356c565b600d8152610d8d60106020808401936c436f6e746163742070686f6e6560981b8552610e8b611070366102e05161026051613988565b610d9281516005811015908161220f5750610100515190610d8d600f88848d610e638b5180928585019061328e565b600a6001600160801b036101a051161015806121f8575b156121c25760016001600160801b036101c051161015806121ab575b15612176576110f06110eb36610200516101e051613988565b613aed565b1561213f576001600160801b036101405116612097575b6001600160801b036101805116611fb6575b60015460e052610100515160c05261113260c051613550565b60e05160c0515233602060c0510152611152366102c0516103a051613988565b6101005160c051015261116c366103205161040051613988565b606060c0510152611184366101205161016051613988565b608060c05101526001600160801b036101a0511660a060c05101526001600160801b036101c0511660c0805101526111c3366102205161024051613988565b60e060c05101526111db36610280516102a051613988565b61010060c05101526111f4366103e05161034051613988565b61012060c051015261120d366103c05161038051613988565b61014060c0510152611226366103605161030051613988565b61016060c051015261123f366102e05161026051613988565b61018060c051015261125836610200516101e051613988565b6101a060c05101526001600160801b0334166101c060c05101526001600160801b0361018051166101e060c05101526001600160801b03610140511661020060c0510152600061022060c0510152600061024060c0510152600061026060c0510152600061028060c051015260e05160005260026020526101005160002060c05151815560018060a01b03602060c051015116600182019060018060a01b03166bffffffffffffffffffffffff60a01b8254161790556101005160c05101518051906001600160401b0382116118e35781906113376002850154613516565b601f8111611f63575b50602090601f8311600114611ef257600092611ee7575b50508160011b916000199060031b1c19161760028201555b606060c05101518051906001600160401b0382116118e35781906113966003850154613516565b601f8111611e94575b50602090601f8311600114611e2357600092611e18575b50508160011b916000199060031b1c19161760038201555b608060c05101518051906001600160401b0382116118e35781906113f56004850154613516565b601f8111611dc5575b50602090601f8311600114611d5457600092611d49575b50508160011b916000199060031b1c19161760048201555b60c0805160a081015191015160801b6001600160801b0319166001600160801b0391909116176005820155600681019060e060c05101519182516001600160401b0381116118e35761147f8254613516565b601f8111611d01575b506020601f8211600114611c9c5781929394600092611c91575b50508160011b916000199060031b1c19161790555b600781019061010060c05101519182516001600160401b0381116118e3576114df8254613516565b601f8111611c49575b506020601f8211600114611be45781929394600092611bd9575b50508160011b916000199060031b1c19161790555b600881019061012060c05101519182516001600160401b0381116118e35761153f8254613516565b601f8111611b91575b506020601f8211600114611b2c5781929394600092611b21575b50508160011b916000199060031b1c19161790555b600981019061014060c05101519182516001600160401b0381116118e35761159f8254613516565b601f8111611ad9575b506020601f8211600114611a745781929394600092611a69575b50508160011b916000199060031b1c19161790555b600a81019061016060c05101519182516001600160401b0381116118e3576115ff8254613516565b601f8111611a21575b506020601f82116001146119bc57819293946000926119b1575b50508160011b916000199060031b1c19161790555b600b81019061018060c05101519182516001600160401b0381116118e35761165f8254613516565b601f8111611969575b506020601f821160011461190457819293946000926118f9575b50508160011b916000199060031b1c19161790555b600c8101906101a060c05101519182516001600160401b0381116118e3576116bf8254613516565b601f811161189b575b506020601f8211600114611836578192939460009261182b575b50508160011b916000199060031b1c19161790555b60c0516101c08101516101e09091015160801b6001600160801b0319166001600160801b039190911617600d820155600e8101906001600160801b038061020060c051015116166001600160801b031983541617825561022060c051015191600383101561075a57805460c05161024081015161026082015162ffffff60801b1990931660809690961b60ff60801b169590951794151560881b60ff60881b169490941790151560901b60ff60901b1617905561028090910151600f9190910180546001600160a01b0319166001600160a01b03929092169190911790556001805460009081526005602052610100518120429055905461181d9033817ff6be169e9242db299e4065f846c02e09b60f1421201248fe94d6f552e8c8bd448580a3613792565b600155805460ff1916815580f35b0151905084806116e2565b601f1982169083600052806000209160005b8181106118835750958360019596971061186a575b505050811b0190556116f7565b015160001960f88460031b161c1916905584808061185d565b9192602060018192868b015181550194019201611848565b826000526020600020601f830160051c810191602084106118d9575b601f0160051c01905b8181106118cd57506116c8565b600081556001016118c0565b90915081906118b7565b634e487b7160e01b600052604160045260246000fd5b015190508480611682565b601f1982169083600052806000209160005b81811061195157509583600195969710611938575b505050811b019055611697565b015160001960f88460031b161c1916905584808061192b565b9192602060018192868b015181550194019201611916565b826000526020600020601f830160051c810191602084106119a7575b601f0160051c01905b81811061199b5750611668565b6000815560010161198e565b9091508190611985565b015190508480611622565b601f1982169083600052806000209160005b818110611a09575095836001959697106119f0575b505050811b019055611637565b015160001960f88460031b161c191690558480806119e3565b9192602060018192868b0151815501940192016119ce565b826000526020600020601f830160051c81019160208410611a5f575b601f0160051c01905b818110611a535750611608565b60008155600101611a46565b9091508190611a3d565b0151905084806115c2565b601f1982169083600052806000209160005b818110611ac157509583600195969710611aa8575b505050811b0190556115d7565b015160001960f88460031b161c19169055848080611a9b565b9192602060018192868b015181550194019201611a86565b826000526020600020601f830160051c81019160208410611b17575b601f0160051c01905b818110611b0b57506115a8565b60008155600101611afe565b9091508190611af5565b015190508480611562565b601f1982169083600052806000209160005b818110611b7957509583600195969710611b60575b505050811b019055611577565b015160001960f88460031b161c19169055848080611b53565b9192602060018192868b015181550194019201611b3e565b826000526020600020601f830160051c81019160208410611bcf575b601f0160051c01905b818110611bc35750611548565b60008155600101611bb6565b9091508190611bad565b015190508480611502565b601f1982169083600052806000209160005b818110611c3157509583600195969710611c18575b505050811b019055611517565b015160001960f88460031b161c19169055848080611c0b565b9192602060018192868b015181550194019201611bf6565b826000526020600020601f830160051c81019160208410611c87575b601f0160051c01905b818110611c7b57506114e8565b60008155600101611c6e565b9091508190611c65565b0151905084806114a2565b601f1982169083600052806000209160005b818110611ce957509583600195969710611cd0575b505050811b0190556114b7565b015160001960f88460031b161c19169055848080611cc3565b9192602060018192868b015181550194019201611cae565b826000526020600020601f830160051c81019160208410611d3f575b601f0160051c01905b818110611d335750611488565b60008155600101611d26565b9091508190611d1d565b015190508380611415565b92506004840160005280600020906000935b601f1984168510611daa576001945083601f19811610611d91575b505050811b01600482015561142d565b015160001960f88460031b161c19169055838080611d81565b81810151835560209485019460019093019290910190611d66565b909150600484016000526020600020601f840160051c810160208510611e11575b90849392915b601f830160051c82018110611e025750506113fe565b60008155859450600101611dec565b5080611de6565b0151905083806113b6565b92506003840160005280600020906000935b601f1984168510611e79576001945083601f19811610611e60575b505050811b0160038201556113ce565b015160001960f88460031b161c19169055838080611e50565b81810151835560209485019460019093019290910190611e35565b909150600384016000526020600020601f840160051c810160208510611ee0575b90849392915b601f830160051c82018110611ed157505061139f565b60008155859450600101611ebb565b5080611eb5565b015190508380611357565b92506002840160005280600020906000935b601f1984168510611f48576001945083601f19811610611f2f575b505050811b01600282015561136f565b015160001960f88460031b161c19169055838080611f1f565b81810151835560209485019460019093019290910190611f04565b909150600284016000526020600020601f840160051c810160208510611faf575b90849392915b601f830160051c82018110611fa0575050611340565b60008155859450600101611f8a565b5080611f84565b610100515160a08181526323b872dd60e01b9091528051610180513360048301523060248301526001600160801b03166044820152905160209190606490600073765de816845861e75a25fca122bb6898b8b1282a5af160805260805115612089576000608051612050575b61202b9061370e565b60015460005260036020526001600160801b0361018051166101005160002055611119565b5060203d602011612082575b61207b8161206f61202b9360a05161356c565b60a0510160a051613669565b9050612022565b503d61205c565b61010051513d6000823e3d90fd5b61010051516323b872dd60e01b8152610140513360048301523060248301526001600160801b0316604482015260208160648160007362b8b11039fcfe5ab0c56e502b1c372a3d2a9c7a5af18015612089576120fb91600091612120575b50613751565b60015460005260046020526001600160801b0361014051166101005160002055611107565b612139915060203d60201161063557610627818361356c565b826120f5565b610100515162461bcd60e51b815260206004820152600d60248201526c125b9d985b1a5908195b585a5b609a1b6044820152606490fd5b610100515162461bcd60e51b815260206004820152600b60248201526a496e76616c69642061676560a81b6044820152606490fd5b5060f06001600160801b036101c0511611156110d2565b610100515162461bcd60e51b815260206004820152600c60248201526b496e76616c69642073697a6560a01b6044820152606490fd5b5060c86001600160801b036101a0511611156110b6565b6014915011158b610e44565b6064915011158b610e44565b60c8915011158b610e44565b6101f4915011158b610e44565b600a9150111586610d43565b60405162461bcd60e51b815260206004820152600f60248201526e109bdd5b9d1e481c995c5d5a5c9959608a1b6044820152606490fd5b506001600160801b0361014051161515610c89565b506001600160801b0361018051161515610c82565b60405162461bcd60e51b8152602060048201526013602482015272472420626f756e747920746f6f206c6172676560681b6044820152606490fd5b60405162461bcd60e51b81526020600482015260156024820152746355534420626f756e747920746f6f206c6172676560581b6044820152606490fd5b60405162461bcd60e51b815260206004820152601560248201527443454c4f20626f756e747920746f6f206c6172676560581b6044820152606490fd5b3461014a57602036600319011261014a576004356123836001548210613681565b600160005461239560ff8216156136c2565b60ff1916176000558060005260026020526040600020600e81019060ff825460801c16600381101561075a576123cb901561394b565b60018101546001600160a01b0316331461248857600f0180546001600160a01b03191633179055805460ff60901b1916600160901b1780825560881c60ff1661244a575b5060405190600082527fc7db73a2d1dc7fd351b6549efad129bbf568e618dbbe683abfa0d1550a96e5ae60203393a36000805460ff19169055005b805460ff60801b1916600160801b17905533817f2c54217aed12a18c71e20e5a6a3f13f8cfddbb2c3a0a5f409861478c7fd39e81600080a38161240f565b60405162461bcd60e51b815260206004820152601660248201527527bbb732b91031b0b73737ba103132903334b73232b960511b6044820152606490fd5b3461014a57604036600319011261014a57600435602435810160008183116125d35781906001548093116125cb575b835b8281106125885750612508906137b8565b916000935b828110612539575061252e935060405193849360408552604085019061325a565b911060208301520390f35b80600052600260205260ff600e6040600020015460801c16600381101561075a5715612568575b60010161250d565b93612580818661257a600194886138d9565b52613792565b949050612560565b80600052600260205260ff600e6040600020015460801c16600381101561075a57156125b7575b6001016124f7565b906125c3600191613792565b9190506125af565b8291506124f5565b634e487b7160e01b600052601160045260246000fd5b3461014a57600036600319011261014a57602060405169021e19e0c9bab24000008152f35b3461014a57600036600319011261014a57600080600154905b81811061263957602083604051908152f35b80600052600260205260ff600e6040600020015460801c16600381101561075a5715612668575b600101612627565b91612674600191613792565b929050612660565b3461014a57602036600319011261014a576004356001600160a01b0381169081810361014a57600054906126be33600884901c6001600160a01b031614613631565b821561270d57610100600160a81b031990911660089190911b610100600160a81b03161760009081557f7ce7ec0b50378fb6c0186ffb5f48325f6593fcb4ca4386f21861af3129188f5c9080a2005b60405162461bcd60e51b815260206004820152600f60248201526e496e76616c6964206164647265737360881b6044820152606490fd5b3461014a57602036600319011261014a5760043580600052600260205261277c60018060a01b0360016040600020015416331461390f565b600160005461278e60ff8216156136c2565b60ff1916176000558060005260026020526040600020600e810180549160ff8360801c1690600382101561075a576127c8600f921561394b565b0180549092906001600160a01b03161561287a5760ff60881b1916600160881b1780825560901c60ff16612832575b8260405190600182527fc7db73a2d1dc7fd351b6549efad129bbf568e618dbbe683abfa0d1550a96e5ae60203393a36000805460ff19169055005b805460ff60801b1916600160801b179055546001600160a01b0316817f2c54217aed12a18c71e20e5a6a3f13f8cfddbb2c3a0a5f409861478c7fd39e81600080a381806127f7565b60405162461bcd60e51b8152602060048201526012602482015271139bc8199a5b99195c88185cdcda59db995960721b6044820152606490fd5b3461014a57600036600319011261014a576001546128d1816137ea565b9060005b8181106128f657604051602080825281906128f2908201866132e3565b0390f35b80600191600052600260205260406000206040519061291482613550565b80548252838060a01b03848201541660208301526129346002820161358d565b60408301526129456003820161358d565b60608301526129566004820161358d565b608083015260058101546001600160801b03811660a084015260801c60c08301526129836006820161358d565b60e08301526129946007820161358d565b6101008301526129a66008820161358d565b6101208301526129b86009820161358d565b6101408301526129ca600a820161358d565b6101608301526129dc600b820161358d565b6101808301526129ee600c820161358d565b6101a0830152600d8101546001600160801b0381166101c084015260801c6101e083015260ff600e8201546001600160801b038116610200850152612a3c828260801c166102208601613903565b818160881c16151561024085015260901c161515610260830152600f848060a01b0391015416610280820152612a7282866138d9565b52612a7d81856138d9565b50016128d5565b3461014a57600036600319011261014a576001546000805b828110612cc05750612ab6612ab0826137b8565b916137ea565b600092835b818110612aec57612ade846128f28560405193849360408552604085019061325a565b9083820360208501526132e3565b80600052600260205260ff600e6040600020015460801c16600381101561075a5715612b1b575b600101612abb565b93612cb88186612b2d600194886138d9565b52866000526002602052604060002060405190612b4982613550565b80548252848060a01b0385820154166020830152612b696002820161358d565b6040830152612b7a6003820161358d565b6060830152612b8b6004820161358d565b608083015260058101546001600160801b03811660a084015260801c60c0830152612bb86006820161358d565b60e0830152612bc96007820161358d565b610100830152612bdb6008820161358d565b610120830152612bed6009820161358d565b610140830152612bff600a820161358d565b610160830152612c11600b820161358d565b610180830152612c23600c820161358d565b6101a0830152600d8101546001600160801b0381166101c084015260801c6101e083015260ff600e8201546001600160801b038116610200850152612c71828260801c166102208601613903565b818160881c16151561024085015260901c161515610260830152600f858060a01b0391015416610280820152612ca782876138d9565b52612cb281866138d9565b50613792565b949050612b13565b80600052600260205260ff600e6040600020015460801c16600381101561075a5715612cef575b600101612a9c565b90612cfb600191613792565b919050612ce7565b3461014a57600036600319011261014a57602060405173765de816845861e75a25fca122bb6898b8b1282a8152f35b3461014a57602036600319011261014a57600435612d536001548210613681565b6001600054612d6560ff8216156136c2565b60ff191617600055806000526002602052604060002090600e82019182549060ff8260801c16600381101561075a5760010361303557600f8101546001600160a01b0316330361300357600d0180546001600160801b038116948515809181158092612ff7575b8015612fe5575b15612fb45760009485905580546001600160801b0319169055858452600360209081526040808620869055600490915284209390935560809190911c926001600160801b031691859190612f8d575b505081612f18575b80612e71575b6040805194855260208501929092529083015233917f0af63efacf28433915ea2d25f6e48eb87264e585bebef968bcd127a52608adec908060608101610579565b60405191630200057560e51b8352336004840152816024840152606060448401526000606484015260208360848160007362b8b11039fcfe5ab0c56e502b1c372a3d2a9c7a5af192831561063c577f0af63efacf28433915ea2d25f6e48eb87264e585bebef968bcd127a52608adec93612ef291600091612ef95750613751565b9150612e30565b612f12915060203d60201161063557610627818361356c565b876120f5565b60405163a9059cbb60e01b815233600482015260248101839052602081604481600073765de816845861e75a25fca122bb6898b8b1282a5af1801561063c57612f6991600091612f6e575b5061370e565b612e2a565b612f87915060203d60201161063557610627818361356c565b86612f63565b600090612fab575b600080809381933390f11561063c578385612e22565b506108fc612f95565b60405162461bcd60e51b81526020600482015260096024820152684e6f20626f756e747960b81b6044820152606490fd5b506001600160801b0386161515612dd3565b508360801c1515612dcc565b60405162461bcd60e51b815260206004820152600a6024820152692737ba103334b73232b960b11b6044820152606490fd5b60405162461bcd60e51b815260206004820152601160248201527014195d081b9bdd08199bdd5b99081e595d607a1b6044820152606490fd5b3461014a57600036600319011261014a576020600154604051908152f35b3461014a57600036600319011261014a576020604051678ac7230489e800008152f35b3461014a57602036600319011261014a576004356001600160a01b038116810361014a576130eb60018060a01b0360005460081c163314613631565b6040516370a0823160e01b815230600482015260208160248173765de816845861e75a25fca122bb6898b8b1282a5afa90811561063c576000916131de575b5060405163a9059cbb60e01b81526001600160a01b039092166004830152602482015260208180604481015b0381600073765de816845861e75a25fca122bb6898b8b1282a5af190811561063c576000916131bf575b501561318857005b60405162461bcd60e51b815260206004820152600f60248201526e151c985b9cd9995c8819985a5b1959608a1b6044820152606490fd5b6131d8915060203d60201161063557610627818361356c565b81613180565b90506020813d60201161320a575b816131f96020938361356c565b8101031261014a575161315661312a565b3d91506131ec565b3461014a57602036600319011261014a5760043560005260036020526020604060002054604051908152f35b3461014a57600036600319011261014a57806276a70060209252f35b906020808351928381520192019060005b8181106132785750505090565b825184526020938401939092019160010161326b565b60005b8381106132a15750506000910152565b8181015183820152602001613291565b906020916132ca8151809281855285808601910161328e565b601f01601f1916010190565b90600382101561075a5752565b9080602083519182815201916020808360051b8301019401926000915b83831061330f57505050505090565b9091929394601f1982820301835285519081518152600160a01b6001900360208301511660208201526040820151604082016102a090526102a08201613354916132b1565b606083015190828103606084015261336b916132b1565b6080830151908281036080840152613382916132b1565b60a08301516001600160801b031660a083015260c08301516001600160801b031660c083015260e08301519082810360e08401526133bf916132b1565b610100830151908281036101008401526133d8916132b1565b610120830151908281036101208401526133f1916132b1565b6101408301519082810361014084015261340a916132b1565b61016083015190828103610160840152613423916132b1565b6101808301519082810361018084015261343c916132b1565b6101a0830151908281036101a0840152613455916132b1565b916101c08101516001600160801b03166101c08301526101e08101516001600160801b03166101e08301526102008101516001600160801b031661020083015261022081015161022083016134a9916132d6565b6102408181015115159083015261026080820151151590830152610280908101516001600160a01b03169101529460209081019493600101920190613300565b9181601f8401121561014a578235916001600160401b03831161014a576020838186019501011161014a57565b90600182811c92168015613546575b602083101461353057565b634e487b7160e01b600052602260045260246000fd5b91607f1691613525565b6102a081019081106001600160401b038211176118e357604052565b90601f801991011681019081106001600160401b038211176118e357604052565b90604051918260008254926135a184613516565b808452936001811690811561360f57506001146135c8575b506135c69250038361356c565b565b90506000929192526020600020906000915b8183106135f35750509060206135c692820101386135b9565b60209193508060019154838589010152019101909184926135da565b9050602092506135c694915060ff191682840152151560051b820101386135b9565b1561363857565b60405162461bcd60e51b81526020600482015260096024820152682737ba1030b236b4b760b91b6044820152606490fd5b9081602091031261014a5751801515810361014a5790565b1561368857565b60405162461bcd60e51b815260206004820152601260248201527114195d08191bd95cc81b9bdd08195e1a5cdd60721b6044820152606490fd5b156136c957565b60405162461bcd60e51b815260206004820152601f60248201527f5265656e7472616e637947756172643a207265656e7472616e742063616c6c006044820152606490fd5b1561371557565b60405162461bcd60e51b815260206004820152601460248201527318d554d1081d1c985b9cd9995c8819985a5b195960621b6044820152606490fd5b1561375857565b60405162461bcd60e51b815260206004820152601260248201527111c9081d1c985b9cd9995c8819985a5b195960721b6044820152606490fd5b60001981146125d35760010190565b6001600160401b0381116118e35760051b60200190565b906137c2826137a1565b6137cf604051918261356c565b82815280926137e0601f19916137a1565b0190602036910137565b906137f4826137a1565b613801604051918261356c565b8281528092613812601f19916137a1565b019060005b82811061382357505050565b60209060405161383281613550565b600081526000838201526060604082015260608082015260606080820152600060a0820152600060c0820152606060e08201526060610100820152606061012082015260606101408201526060610160820152606061018082015260606101a082015260006101c082015260006101e08201526000610200820152600061022082015260006102408201526000610260820152600061028082015282828501015201613817565b80518210156138ed5760209160051b010190565b634e487b7160e01b600052603260045260246000fd5b600382101561075a5752565b1561391657565b60405162461bcd60e51b815260206004820152600d60248201526c2737ba103832ba1037bbb732b960991b6044820152606490fd5b1561395257565b60405162461bcd60e51b815260206004820152600e60248201526d506574206e6f742061637469766560901b6044820152606490fd5b9291926001600160401b0382116118e357604051916139b1601f8201601f19166020018461356c565b82948184528183011161014a578281602093846000960137010152565b156139d65750565b60405162461bcd60e51b8152602060048201529081906139fa9060248301906132b1565b0390fd5b613a09913691613988565b80519060028210159182613ad0575b5060405191835192806020860194806020830190613a36918861328e565b8101602081016e081b195b99dd1a081a5b9d985b1a59608a1b90520360200160101981018252600f01613a69908261356c565b613a72916139ce565b613a7b90613b93565b159160405191829151908160208401613a939261328e565b8101602081016f2063616e6e6f7420626520626c616e6b60801b905203602001600f1981018252601001613ac7908261356c565b6135c6916139ce565b60321015915038613a18565b9081518110156138ed570160200190565b6005815110613b8d5760008091815b8151831015613b7b57600160fe1b6001600160f81b0319613b1d8585613adc565b511603613b3c57613b3457600180925b0191613afc565b505050600090565b918280613b5a575b613b51575b600190613b2d565b60019350613b49565b50601760f91b6001600160f81b0319613b738385613adc565b511614613b44565b9291505081613b88575090565b905090565b50600090565b60005b8151811015613bcd57600160fd1b6001600160f81b0319613bb78385613adc565b511603613bc657600101613b96565b5050600090565b505060019056fea2646970667358221220464c1499d05463235cee4c6c8c76a6b2eb19c4576859be90b46e0684f86d7d3f64736f6c634300081c0033",
          "opcodes": "PUSH1 0x80 DUP1 PUSH1 0x40 MSTORE CALLVALUE PUSH1 0x35 JUMPI PUSH1 0x0 DUP1 SLOAD PUSH2 0x100 PUSH1 0x1 PUSH1 0xA8 SHL SUB NOT AND CALLER PUSH1 0x8 SHL PUSH2 0x100 PUSH1 0x1 PUSH1 0xA8 SHL SUB AND OR SWAP1 SSTORE PUSH2 0x3C0A SWAP1 DUP2 PUSH2 0x3B DUP3 CODECOPY RETURN JUMPDEST PUSH1 0x0 DUP1 REVERT INVALID PUSH2 0x460 DUP1 PUSH1 0x40 MSTORE PUSH1 0x4 CALLDATASIZE LT ISZERO PUSH2 0x14 JUMPI PUSH1 0x0 DUP1 REVERT JUMPDEST PUSH1 0x0 CALLDATALOAD PUSH1 0xE0 SHR SWAP1 DUP2 PUSH4 0xB5D39FA EQ PUSH2 0x323E JUMPI POP DUP1 PUSH4 0x1850E3A7 EQ PUSH2 0x3212 JUMPI DUP1 PUSH4 0x3F26DECD EQ PUSH2 0x30AF JUMPI DUP1 PUSH4 0x3FA8BE32 EQ PUSH2 0x308C JUMPI DUP1 PUSH4 0x403F8CC7 EQ PUSH2 0x306E JUMPI DUP1 PUSH4 0x44021AD7 EQ PUSH2 0x2D32 JUMPI DUP1 PUSH4 0x465C66E9 EQ PUSH2 0x2D03 JUMPI DUP1 PUSH4 0x543DF5A3 EQ PUSH2 0x2A84 JUMPI DUP1 PUSH4 0x5B236D97 EQ PUSH2 0x28B4 JUMPI DUP1 PUSH4 0x5E23985B EQ PUSH2 0x2744 JUMPI DUP1 PUSH4 0x75829DEF EQ PUSH2 0x267C JUMPI DUP1 PUSH4 0x8B504C17 EQ PUSH2 0x260E JUMPI DUP1 PUSH4 0x9DC5AC72 EQ PUSH2 0x25E9 JUMPI DUP1 PUSH4 0xA06E0061 EQ PUSH2 0x24C6 JUMPI DUP1 PUSH4 0xB3035B64 EQ PUSH2 0x2362 JUMPI DUP1 PUSH4 0xCE2ED0E2 EQ PUSH2 0xA16 JUMPI DUP1 PUSH4 0xCFB869BF EQ PUSH2 0x79C JUMPI DUP1 PUSH4 0xD25A6F05 EQ PUSH2 0x770 JUMPI DUP1 PUSH4 0xD32BFB6C EQ PUSH2 0x437 JUMPI DUP1 PUSH4 0xD74A48A4 EQ PUSH2 0x40B JUMPI DUP1 PUSH4 0xD89FD4B4 EQ PUSH2 0x17E JUMPI DUP1 PUSH4 0xEE7AFB1C EQ PUSH2 0x14F JUMPI PUSH4 0xF851A440 EQ PUSH2 0x11D JUMPI PUSH1 0x0 DUP1 REVERT JUMPDEST CALLVALUE PUSH2 0x14A JUMPI PUSH1 0x0 CALLDATASIZE PUSH1 0x3 NOT ADD SLT PUSH2 0x14A JUMPI PUSH1 0x0 SLOAD PUSH1 0x40 MLOAD PUSH1 0x8 SWAP2 SWAP1 SWAP2 SHR PUSH1 0x1 PUSH1 0x1 PUSH1 0xA0 SHL SUB AND DUP2 MSTORE PUSH1 0x20 SWAP1 RETURN JUMPDEST PUSH1 0x0 DUP1 REVERT JUMPDEST CALLVALUE PUSH2 0x14A JUMPI PUSH1 0x0 CALLDATASIZE PUSH1 0x3 NOT ADD SLT PUSH2 0x14A JUMPI PUSH1 0x20 PUSH1 0x40 MLOAD PUSH20 0x62B8B11039FCFE5AB0C56E502B1C372A3D2A9C7A DUP2 MSTORE RETURN JUMPDEST CALLVALUE PUSH2 0x14A JUMPI PUSH1 0x20 CALLDATASIZE PUSH1 0x3 NOT ADD SLT PUSH2 0x14A JUMPI PUSH1 0x4 CALLDATALOAD PUSH1 0x1 SLOAD DUP2 LT PUSH2 0x1A0 SWAP1 PUSH2 0x3681 JUMP JUMPDEST PUSH1 0x0 MSTORE PUSH1 0x2 PUSH1 0x20 MSTORE PUSH1 0x40 PUSH1 0x0 KECCAK256 DUP1 SLOAD PUSH1 0x1 PUSH1 0xA0 SHL PUSH1 0x1 SWAP1 SUB PUSH1 0x1 DUP4 ADD SLOAD AND PUSH1 0x5 DUP4 ADD SLOAD SWAP2 PUSH1 0xD DUP5 ADD SLOAD SWAP4 PUSH1 0xE DUP2 ADD SLOAD SWAP3 PUSH1 0x1 PUSH1 0xA0 SHL PUSH1 0x1 SWAP1 SUB PUSH1 0xF DUP4 ADD SLOAD AND SWAP5 PUSH1 0x2 DUP4 ADD PUSH2 0x1ED SWAP1 PUSH2 0x358D JUMP JUMPDEST SWAP1 PUSH2 0x1FA PUSH1 0x3 DUP6 ADD PUSH2 0x358D JUMP JUMPDEST SWAP1 PUSH2 0x207 PUSH1 0x4 DUP7 ADD PUSH2 0x358D JUMP JUMPDEST SWAP1 PUSH2 0x214 PUSH1 0x6 DUP8 ADD PUSH2 0x358D JUMP JUMPDEST SWAP1 PUSH2 0x221 PUSH1 0x7 DUP9 ADD PUSH2 0x358D JUMP JUMPDEST SWAP3 PUSH2 0x22E PUSH1 0x8 DUP10 ADD PUSH2 0x358D JUMP JUMPDEST SWAP5 PUSH2 0x23B PUSH1 0x9 DUP11 ADD PUSH2 0x358D JUMP JUMPDEST SWAP7 PUSH2 0x248 PUSH1 0xA DUP12 ADD PUSH2 0x358D JUMP JUMPDEST SWAP9 PUSH2 0x255 PUSH1 0xB DUP13 ADD PUSH2 0x358D JUMP JUMPDEST SWAP11 PUSH1 0xC ADD PUSH2 0x262 SWAP1 PUSH2 0x358D JUMP JUMPDEST SWAP12 PUSH1 0x40 MLOAD PUSH2 0x420 MSTORE PUSH2 0x420 MLOAD MSTORE PUSH2 0x420 MLOAD PUSH1 0x20 ADD MSTORE PUSH2 0x420 MLOAD PUSH1 0x40 ADD PUSH2 0x2A0 SWAP1 MSTORE PUSH2 0x420 MLOAD PUSH2 0x2A0 ADD PUSH2 0x294 SWAP2 PUSH2 0x32B1 JUMP JUMPDEST PUSH2 0x420 MLOAD DUP2 SUB PUSH2 0x420 MLOAD PUSH1 0x60 ADD MSTORE PUSH2 0x2AB SWAP2 PUSH2 0x32B1 JUMP JUMPDEST PUSH2 0x420 MLOAD DUP2 SUB PUSH2 0x420 MLOAD PUSH1 0x80 ADD MSTORE PUSH2 0x2C2 SWAP2 PUSH2 0x32B1 JUMP JUMPDEST SWAP1 PUSH1 0x1 PUSH1 0x1 PUSH1 0x80 SHL SUB DUP2 AND PUSH2 0x420 MLOAD PUSH1 0xA0 ADD MSTORE PUSH1 0x80 SHR PUSH2 0x420 MLOAD PUSH1 0xC0 ADD MSTORE PUSH2 0x420 MLOAD DUP2 SUB PUSH2 0x420 MLOAD PUSH1 0xE0 ADD MSTORE PUSH2 0x2F7 SWAP2 PUSH2 0x32B1 JUMP JUMPDEST PUSH2 0x420 MLOAD DUP2 SUB PUSH2 0x420 MLOAD PUSH2 0x100 ADD MSTORE PUSH2 0x30F SWAP2 PUSH2 0x32B1 JUMP JUMPDEST PUSH2 0x420 MLOAD DUP2 SUB PUSH2 0x420 MLOAD PUSH2 0x120 ADD MSTORE PUSH2 0x327 SWAP2 PUSH2 0x32B1 JUMP JUMPDEST PUSH2 0x420 MLOAD DUP2 SUB PUSH2 0x420 MLOAD PUSH2 0x140 ADD MSTORE PUSH2 0x33F SWAP2 PUSH2 0x32B1 JUMP JUMPDEST PUSH2 0x420 MLOAD DUP2 SUB PUSH2 0x420 MLOAD PUSH2 0x160 ADD MSTORE PUSH2 0x357 SWAP2 PUSH2 0x32B1 JUMP JUMPDEST PUSH2 0x420 MLOAD DUP2 SUB PUSH2 0x420 MLOAD PUSH2 0x180 ADD MSTORE PUSH2 0x36F SWAP2 PUSH2 0x32B1 JUMP JUMPDEST PUSH2 0x420 MLOAD DUP2 SUB PUSH2 0x420 MLOAD PUSH2 0x1A0 ADD MSTORE PUSH2 0x387 SWAP2 PUSH2 0x32B1 JUMP JUMPDEST SWAP3 PUSH1 0x1 PUSH1 0x1 PUSH1 0x80 SHL SUB DUP2 AND PUSH2 0x420 MLOAD PUSH2 0x1C0 ADD MSTORE PUSH1 0x80 SHR PUSH2 0x420 MLOAD PUSH2 0x1E0 ADD MSTORE PUSH1 0x1 PUSH1 0x1 PUSH1 0x80 SHL SUB DUP2 AND PUSH2 0x420 MLOAD PUSH2 0x200 ADD MSTORE PUSH2 0x420 MLOAD PUSH2 0x220 ADD DUP2 PUSH1 0x80 SHR PUSH1 0xFF AND SWAP1 PUSH2 0x3D3 SWAP2 PUSH2 0x32D6 JUMP JUMPDEST DUP1 PUSH1 0x88 SHR PUSH1 0xFF AND ISZERO ISZERO PUSH2 0x420 MLOAD PUSH2 0x240 ADD MSTORE PUSH1 0x90 SHR PUSH1 0xFF AND ISZERO ISZERO PUSH2 0x420 MLOAD PUSH2 0x260 ADD MSTORE PUSH2 0x420 MLOAD PUSH2 0x280 ADD MSTORE PUSH2 0x420 MLOAD SWAP1 SUB PUSH2 0x420 MLOAD RETURN JUMPDEST CALLVALUE PUSH2 0x14A JUMPI PUSH1 0x20 CALLDATASIZE PUSH1 0x3 NOT ADD SLT PUSH2 0x14A JUMPI PUSH1 0x4 CALLDATALOAD PUSH1 0x0 MSTORE PUSH1 0x5 PUSH1 0x20 MSTORE PUSH1 0x20 PUSH1 0x40 PUSH1 0x0 KECCAK256 SLOAD PUSH1 0x40 MLOAD SWAP1 DUP2 MSTORE RETURN JUMPDEST CALLVALUE PUSH2 0x14A JUMPI PUSH1 0x20 CALLDATASIZE PUSH1 0x3 NOT ADD SLT PUSH2 0x14A JUMPI PUSH1 0x4 CALLDATALOAD DUP1 PUSH1 0x0 MSTORE PUSH1 0x2 PUSH1 0x20 MSTORE PUSH2 0x46F PUSH1 0x1 DUP1 PUSH1 0xA0 SHL SUB PUSH1 0x1 PUSH1 0x40 PUSH1 0x0 KECCAK256 ADD SLOAD AND CALLER EQ PUSH2 0x390F JUMP JUMPDEST PUSH1 0x1 PUSH1 0x0 SLOAD PUSH2 0x481 PUSH1 0xFF DUP3 AND ISZERO PUSH2 0x36C2 JUMP JUMPDEST PUSH1 0xFF NOT AND OR PUSH1 0x0 SSTORE DUP1 PUSH1 0x0 MSTORE PUSH1 0x2 PUSH1 0x20 MSTORE PUSH1 0x40 PUSH1 0x0 KECCAK256 SWAP1 PUSH1 0xE DUP3 ADD DUP1 SLOAD SWAP3 PUSH1 0xFF DUP5 PUSH1 0x80 SHR AND PUSH1 0x3 DUP2 LT ISZERO PUSH2 0x75A JUMPI PUSH2 0x4B9 SWAP1 ISZERO PUSH2 0x394B JUMP JUMPDEST PUSH1 0xF DUP2 ADD SLOAD PUSH1 0x1 PUSH1 0x1 PUSH1 0xA0 SHL SUB AND PUSH2 0x715 JUMPI PUSH1 0xD ADD DUP1 SLOAD PUSH1 0x0 SWAP2 DUP3 SWAP1 SSTORE DUP3 SLOAD PUSH1 0x1 PUSH1 0x1 PUSH1 0x80 SHL SUB NOT AND DUP4 SSTORE DUP4 DUP3 MSTORE PUSH1 0x3 PUSH1 0x20 SWAP1 DUP2 MSTORE PUSH1 0x40 DUP1 DUP5 KECCAK256 DUP5 SWAP1 SSTORE PUSH1 0x4 SWAP1 SWAP2 MSTORE DUP3 KECCAK256 SWAP2 SWAP1 SWAP2 SSTORE PUSH1 0x1 PUSH1 0x1 PUSH1 0x80 SHL SUB DUP1 DUP3 AND SWAP5 AND SWAP1 PUSH1 0x80 SHR DUP5 DUP1 ISZERO DUP1 ISZERO PUSH2 0x6EE JUMPI JUMPDEST POP POP DUP1 PUSH2 0x648 JUMPI JUMPDEST DUP2 PUSH2 0x588 JUMPI JUMPDEST DUP3 SLOAD PUSH1 0xFF PUSH1 0x80 SHL NOT AND PUSH1 0x1 PUSH1 0x81 SHL OR SWAP1 SWAP3 SSTORE PUSH1 0x40 DUP1 MLOAD SWAP5 DUP6 MSTORE PUSH1 0x20 DUP6 ADD SWAP3 SWAP1 SWAP3 MSTORE SWAP1 DUP4 ADD MSTORE CALLER SWAP2 PUSH32 0x5A15FED544596F86AB10D13CE99DFEB4E13095D939B5749AE220FBC4F0584636 SWAP1 DUP1 PUSH1 0x60 DUP2 ADD JUMPDEST SUB SWAP1 LOG3 PUSH1 0x0 DUP1 SLOAD PUSH1 0xFF NOT AND SWAP1 SSTORE STOP JUMPDEST PUSH1 0x40 MLOAD PUSH4 0xA9059CBB PUSH1 0xE0 SHL DUP2 MSTORE CALLER PUSH1 0x4 DUP3 ADD MSTORE PUSH1 0x24 DUP2 ADD DUP4 SWAP1 MSTORE PUSH1 0x20 DUP2 PUSH1 0x44 DUP2 PUSH1 0x0 PUSH20 0x62B8B11039FCFE5AB0C56E502B1C372A3D2A9C7A GAS CALL SWAP1 DUP2 ISZERO PUSH2 0x63C JUMPI PUSH1 0x0 SWAP2 PUSH2 0x60D JUMPI JUMPDEST POP PUSH2 0x52A JUMPI PUSH1 0x40 MLOAD PUSH3 0x461BCD PUSH1 0xE5 SHL DUP2 MSTORE PUSH1 0x20 PUSH1 0x4 DUP3 ADD MSTORE PUSH1 0x10 PUSH1 0x24 DUP3 ADD MSTORE PUSH16 0x11C9081C99599D5B990819985A5B1959 PUSH1 0x82 SHL PUSH1 0x44 DUP3 ADD MSTORE PUSH1 0x64 SWAP1 REVERT JUMPDEST PUSH2 0x62F SWAP2 POP PUSH1 0x20 RETURNDATASIZE PUSH1 0x20 GT PUSH2 0x635 JUMPI JUMPDEST PUSH2 0x627 DUP2 DUP4 PUSH2 0x356C JUMP JUMPDEST DUP2 ADD SWAP1 PUSH2 0x3669 JUMP JUMPDEST DUP7 PUSH2 0x5D0 JUMP JUMPDEST POP RETURNDATASIZE PUSH2 0x61D JUMP JUMPDEST PUSH1 0x40 MLOAD RETURNDATASIZE PUSH1 0x0 DUP3 RETURNDATACOPY RETURNDATASIZE SWAP1 REVERT JUMPDEST PUSH1 0x40 MLOAD PUSH4 0xA9059CBB PUSH1 0xE0 SHL DUP2 MSTORE CALLER PUSH1 0x4 DUP3 ADD MSTORE PUSH1 0x24 DUP2 ADD DUP3 SWAP1 MSTORE PUSH1 0x20 DUP2 PUSH1 0x44 DUP2 PUSH1 0x0 PUSH20 0x765DE816845861E75A25FCA122BB6898B8B1282A GAS CALL SWAP1 DUP2 ISZERO PUSH2 0x63C JUMPI PUSH1 0x0 SWAP2 PUSH2 0x6CF JUMPI JUMPDEST POP PUSH2 0x524 JUMPI PUSH1 0x40 MLOAD PUSH3 0x461BCD PUSH1 0xE5 SHL DUP2 MSTORE PUSH1 0x20 PUSH1 0x4 DUP3 ADD MSTORE PUSH1 0x12 PUSH1 0x24 DUP3 ADD MSTORE PUSH18 0x18D554D1081C99599D5B990819985A5B1959 PUSH1 0x72 SHL PUSH1 0x44 DUP3 ADD MSTORE PUSH1 0x64 SWAP1 REVERT JUMPDEST PUSH2 0x6E8 SWAP2 POP PUSH1 0x20 RETURNDATASIZE PUSH1 0x20 GT PUSH2 0x635 JUMPI PUSH2 0x627 DUP2 DUP4 PUSH2 0x356C JUMP JUMPDEST DUP7 PUSH2 0x690 JUMP JUMPDEST PUSH1 0x0 SWAP1 PUSH2 0x70C JUMPI JUMPDEST PUSH1 0x0 DUP1 DUP1 SWAP4 DUP2 SWAP4 CALLER SWAP1 CALL ISZERO PUSH2 0x63C JUMPI DUP5 DUP7 PUSH2 0x51C JUMP JUMPDEST POP PUSH2 0x8FC PUSH2 0x6F6 JUMP JUMPDEST PUSH1 0x40 MLOAD PUSH3 0x461BCD PUSH1 0xE5 SHL DUP2 MSTORE PUSH1 0x20 PUSH1 0x4 DUP3 ADD MSTORE PUSH1 0x17 PUSH1 0x24 DUP3 ADD MSTORE PUSH32 0x46696E64657220616C72656164792061737369676E6564000000000000000000 PUSH1 0x44 DUP3 ADD MSTORE PUSH1 0x64 SWAP1 REVERT JUMPDEST PUSH4 0x4E487B71 PUSH1 0xE0 SHL PUSH1 0x0 MSTORE PUSH1 0x21 PUSH1 0x4 MSTORE PUSH1 0x24 PUSH1 0x0 REVERT JUMPDEST CALLVALUE PUSH2 0x14A JUMPI PUSH1 0x20 CALLDATASIZE PUSH1 0x3 NOT ADD SLT PUSH2 0x14A JUMPI PUSH1 0x4 CALLDATALOAD PUSH1 0x0 MSTORE PUSH1 0x4 PUSH1 0x20 MSTORE PUSH1 0x20 PUSH1 0x40 PUSH1 0x0 KECCAK256 SLOAD PUSH1 0x40 MLOAD SWAP1 DUP2 MSTORE RETURN JUMPDEST CALLVALUE PUSH2 0x14A JUMPI PUSH1 0x20 CALLDATASIZE PUSH1 0x3 NOT ADD SLT PUSH2 0x14A JUMPI PUSH1 0x4 CALLDATALOAD PUSH1 0x0 MSTORE PUSH1 0x2 PUSH1 0x20 MSTORE PUSH1 0x40 PUSH1 0x0 KECCAK256 DUP1 SLOAD PUSH1 0x1 PUSH1 0xA0 SHL PUSH1 0x1 SWAP1 SUB PUSH1 0x1 DUP4 ADD SLOAD AND SWAP2 PUSH1 0x2 DUP2 ADD PUSH2 0x7DC SWAP1 PUSH2 0x358D JUMP JUMPDEST PUSH2 0x7E8 PUSH1 0x3 DUP4 ADD PUSH2 0x358D JUMP JUMPDEST PUSH2 0x7F4 PUSH1 0x4 DUP5 ADD PUSH2 0x358D JUMP JUMPDEST PUSH1 0x5 DUP5 ADD SLOAD PUSH2 0x805 PUSH1 0x6 DUP7 ADD PUSH2 0x358D JUMP JUMPDEST PUSH2 0x811 PUSH1 0x7 DUP8 ADD PUSH2 0x358D JUMP JUMPDEST PUSH2 0x81D PUSH1 0x8 DUP9 ADD PUSH2 0x358D JUMP JUMPDEST SWAP2 PUSH2 0x82A PUSH1 0x9 DUP10 ADD PUSH2 0x358D JUMP JUMPDEST SWAP4 PUSH2 0x837 PUSH1 0xA DUP11 ADD PUSH2 0x358D JUMP JUMPDEST SWAP6 PUSH2 0x844 PUSH1 0xB DUP12 ADD PUSH2 0x358D JUMP JUMPDEST SWAP8 PUSH2 0x851 PUSH1 0xC DUP13 ADD PUSH2 0x358D JUMP JUMPDEST SWAP10 PUSH1 0xD DUP13 ADD SLOAD SWAP14 PUSH1 0xE DUP14 ADD SLOAD SWAP13 PUSH1 0x1 PUSH1 0xA0 SHL PUSH1 0x1 SWAP1 SUB SWAP1 PUSH1 0xF ADD SLOAD AND SWAP14 PUSH1 0x40 MLOAD PUSH2 0x440 MSTORE PUSH2 0x440 MLOAD MSTORE PUSH2 0x440 MLOAD PUSH1 0x20 ADD MSTORE PUSH2 0x440 MLOAD PUSH1 0x40 ADD PUSH2 0x2A0 SWAP1 MSTORE PUSH2 0x440 MLOAD PUSH2 0x2A0 ADD PUSH2 0x89F SWAP2 PUSH2 0x32B1 JUMP JUMPDEST PUSH2 0x440 MLOAD DUP2 SUB PUSH2 0x440 MLOAD PUSH1 0x60 ADD MSTORE PUSH2 0x8B6 SWAP2 PUSH2 0x32B1 JUMP JUMPDEST PUSH2 0x440 MLOAD DUP2 SUB PUSH2 0x440 MLOAD PUSH1 0x80 ADD MSTORE PUSH2 0x8CD SWAP2 PUSH2 0x32B1 JUMP JUMPDEST SWAP1 PUSH1 0x1 PUSH1 0x1 PUSH1 0x80 SHL SUB DUP2 AND PUSH2 0x440 MLOAD PUSH1 0xA0 ADD MSTORE PUSH1 0x80 SHR PUSH2 0x440 MLOAD PUSH1 0xC0 ADD MSTORE PUSH2 0x440 MLOAD DUP2 SUB PUSH2 0x440 MLOAD PUSH1 0xE0 ADD MSTORE PUSH2 0x902 SWAP2 PUSH2 0x32B1 JUMP JUMPDEST PUSH2 0x440 MLOAD DUP2 SUB PUSH2 0x440 MLOAD PUSH2 0x100 ADD MSTORE PUSH2 0x91A SWAP2 PUSH2 0x32B1 JUMP JUMPDEST PUSH2 0x440 MLOAD DUP2 SUB PUSH2 0x440 MLOAD PUSH2 0x120 ADD MSTORE PUSH2 0x932 SWAP2 PUSH2 0x32B1 JUMP JUMPDEST PUSH2 0x440 MLOAD DUP2 SUB PUSH2 0x440 MLOAD PUSH2 0x140 ADD MSTORE PUSH2 0x94A SWAP2 PUSH2 0x32B1 JUMP JUMPDEST PUSH2 0x440 MLOAD DUP2 SUB PUSH2 0x440 MLOAD PUSH2 0x160 ADD MSTORE PUSH2 0x962 SWAP2 PUSH2 0x32B1 JUMP JUMPDEST PUSH2 0x440 MLOAD DUP2 SUB PUSH2 0x440 MLOAD PUSH2 0x180 ADD MSTORE PUSH2 0x97A SWAP2 PUSH2 0x32B1 JUMP JUMPDEST PUSH2 0x440 MLOAD DUP2 SUB PUSH2 0x440 MLOAD PUSH2 0x1A0 ADD MSTORE PUSH2 0x992 SWAP2 PUSH2 0x32B1 JUMP JUMPDEST SWAP3 PUSH1 0x1 PUSH1 0x1 PUSH1 0x80 SHL SUB DUP2 AND PUSH2 0x440 MLOAD PUSH2 0x1C0 ADD MSTORE PUSH1 0x80 SHR PUSH2 0x440 MLOAD PUSH2 0x1E0 ADD MSTORE PUSH1 0x1 PUSH1 0x1 PUSH1 0x80 SHL SUB DUP2 AND PUSH2 0x440 MLOAD PUSH2 0x200 ADD MSTORE PUSH2 0x440 MLOAD PUSH2 0x220 ADD DUP2 PUSH1 0x80 SHR PUSH1 0xFF AND SWAP1 PUSH2 0x9DE SWAP2 PUSH2 0x32D6 JUMP JUMPDEST DUP1 PUSH1 0x88 SHR PUSH1 0xFF AND ISZERO ISZERO PUSH2 0x440 MLOAD PUSH2 0x240 ADD MSTORE PUSH1 0x90 SHR PUSH1 0xFF AND ISZERO ISZERO PUSH2 0x440 MLOAD PUSH2 0x260 ADD MSTORE PUSH2 0x440 MLOAD PUSH2 0x280 ADD MSTORE PUSH2 0x440 MLOAD SWAP1 SUB PUSH2 0x440 MLOAD RETURN JUMPDEST PUSH2 0x1C0 CALLDATASIZE PUSH1 0x3 NOT ADD SLT PUSH2 0x14A JUMPI PUSH1 0x4 CALLDATALOAD PUSH1 0x1 PUSH1 0x1 PUSH1 0x40 SHL SUB DUP2 GT PUSH2 0x14A JUMPI PUSH2 0xA42 SWAP1 CALLDATASIZE SWAP1 PUSH1 0x4 ADD PUSH2 0x34E9 JUMP JUMPDEST PUSH2 0x2C0 MSTORE PUSH2 0x3A0 MSTORE PUSH1 0x24 CALLDATALOAD PUSH1 0x1 PUSH1 0x1 PUSH1 0x40 SHL SUB DUP2 GT PUSH2 0x14A JUMPI PUSH2 0xA69 SWAP1 CALLDATASIZE SWAP1 PUSH1 0x4 ADD PUSH2 0x34E9 JUMP JUMPDEST PUSH2 0x320 MSTORE PUSH2 0x400 MSTORE PUSH1 0x44 CALLDATALOAD PUSH1 0x1 PUSH1 0x1 PUSH1 0x40 SHL SUB DUP2 GT PUSH2 0x14A JUMPI PUSH2 0xA90 SWAP1 CALLDATASIZE SWAP1 PUSH1 0x4 ADD PUSH2 0x34E9 JUMP JUMPDEST PUSH2 0x120 MSTORE PUSH2 0x160 MSTORE PUSH1 0x64 CALLDATALOAD PUSH2 0x1A0 DUP2 SWAP1 MSTORE PUSH1 0x1 PUSH1 0x1 PUSH1 0x80 SHL SUB DUP2 AND SWAP1 SUB PUSH2 0x14A JUMPI PUSH1 0x84 CALLDATALOAD PUSH2 0x1C0 DUP2 SWAP1 MSTORE PUSH1 0x1 PUSH1 0x1 PUSH1 0x80 SHL SUB DUP2 AND SWAP1 SUB PUSH2 0x14A JUMPI PUSH1 0xA4 CALLDATALOAD PUSH1 0x1 PUSH1 0x1 PUSH1 0x40 SHL SUB DUP2 GT PUSH2 0x14A JUMPI PUSH2 0xAE9 SWAP1 CALLDATASIZE SWAP1 PUSH1 0x4 ADD PUSH2 0x34E9 JUMP JUMPDEST PUSH2 0x220 MSTORE PUSH2 0x240 MSTORE PUSH1 0xC4 CALLDATALOAD PUSH1 0x1 PUSH1 0x1 PUSH1 0x40 SHL SUB DUP2 GT PUSH2 0x14A JUMPI PUSH2 0xB10 SWAP1 CALLDATASIZE SWAP1 PUSH1 0x4 ADD PUSH2 0x34E9 JUMP JUMPDEST PUSH2 0x280 MSTORE PUSH2 0x2A0 MSTORE PUSH1 0xE4 CALLDATALOAD PUSH1 0x1 PUSH1 0x1 PUSH1 0x40 SHL SUB DUP2 GT PUSH2 0x14A JUMPI PUSH2 0xB37 SWAP1 CALLDATASIZE SWAP1 PUSH1 0x4 ADD PUSH2 0x34E9 JUMP JUMPDEST PUSH2 0x3E0 MSTORE PUSH2 0x340 MSTORE PUSH2 0x104 CALLDATALOAD PUSH1 0x1 PUSH1 0x1 PUSH1 0x40 SHL SUB DUP2 GT PUSH2 0x14A JUMPI PUSH2 0xB5F SWAP1 CALLDATASIZE SWAP1 PUSH1 0x4 ADD PUSH2 0x34E9 JUMP JUMPDEST PUSH2 0x3C0 MSTORE PUSH2 0x380 MSTORE PUSH1 0x1 PUSH1 0x1 PUSH1 0x40 SHL SUB PUSH2 0x124 CALLDATALOAD GT PUSH2 0x14A JUMPI PUSH2 0xB88 CALLDATASIZE PUSH2 0x124 CALLDATALOAD PUSH1 0x4 ADD PUSH2 0x34E9 JUMP JUMPDEST PUSH2 0x360 MSTORE PUSH2 0x300 MSTORE PUSH1 0x1 PUSH1 0x1 PUSH1 0x40 SHL SUB PUSH2 0x144 CALLDATALOAD GT PUSH2 0x14A JUMPI PUSH2 0xBB1 CALLDATASIZE PUSH2 0x144 CALLDATALOAD PUSH1 0x4 ADD PUSH2 0x34E9 JUMP JUMPDEST PUSH2 0x2E0 MSTORE PUSH2 0x260 MSTORE PUSH2 0x164 CALLDATALOAD PUSH1 0x1 PUSH1 0x1 PUSH1 0x40 SHL SUB DUP2 GT PUSH2 0x14A JUMPI PUSH2 0xBD9 SWAP1 CALLDATASIZE SWAP1 PUSH1 0x4 ADD PUSH2 0x34E9 JUMP JUMPDEST PUSH2 0x200 MSTORE PUSH2 0x1E0 MSTORE PUSH2 0x184 CALLDATALOAD PUSH2 0x180 DUP2 SWAP1 MSTORE PUSH1 0x1 PUSH1 0x1 PUSH1 0x80 SHL SUB DUP2 AND SWAP1 SUB PUSH2 0x14A JUMPI PUSH2 0x1A4 CALLDATALOAD PUSH2 0x140 DUP2 SWAP1 MSTORE PUSH1 0x1 PUSH1 0x1 PUSH1 0x80 SHL SUB DUP2 AND SWAP1 SUB PUSH2 0x14A JUMPI PUSH1 0x1 PUSH1 0x0 SLOAD PUSH2 0xC27 PUSH1 0xFF DUP3 AND ISZERO PUSH2 0x36C2 JUMP JUMPDEST PUSH1 0xFF NOT AND OR PUSH1 0x0 SSTORE PUSH8 0x8AC7230489E80000 CALLVALUE GT PUSH2 0x2325 JUMPI PUSH10 0x21E19E0C9BAB2400000 PUSH1 0x1 PUSH1 0x1 PUSH1 0x80 SHL SUB PUSH2 0x180 MLOAD AND GT PUSH2 0x22E8 JUMPI PUSH10 0x21E19E0C9BAB2400000 PUSH1 0x1 PUSH1 0x1 PUSH1 0x80 SHL SUB PUSH2 0x140 MLOAD AND GT PUSH2 0x22AD JUMPI CALLVALUE ISZERO DUP1 ISZERO SWAP1 PUSH2 0x2298 JUMPI JUMPDEST DUP1 ISZERO PUSH2 0x2283 JUMPI JUMPDEST ISZERO PUSH2 0x224C JUMPI PUSH1 0x40 PUSH2 0x100 DUP2 SWAP1 MSTORE DUP1 MLOAD PUSH2 0xCC4 SWAP2 PUSH2 0xCA6 SWAP1 DUP3 PUSH2 0x356C JUMP JUMPDEST PUSH1 0x4 DUP2 MSTORE PUSH4 0x4E616D65 PUSH1 0xE0 SHL PUSH1 0x20 DUP3 ADD MSTORE PUSH2 0x2C0 MLOAD PUSH2 0x3A0 MLOAD PUSH2 0x39FE JUMP JUMPDEST PUSH2 0x100 MLOAD DUP1 MLOAD PUSH2 0xCF7 SWAP2 PUSH2 0xCD8 SWAP1 DUP3 PUSH2 0x356C JUMP JUMPDEST PUSH1 0x5 DUP2 MSTORE PUSH5 0x109C995959 PUSH1 0xDA SHL PUSH1 0x20 DUP3 ADD MSTORE PUSH2 0x320 MLOAD PUSH2 0x400 MLOAD PUSH2 0x39FE JUMP JUMPDEST PUSH2 0x100 MLOAD DUP1 MLOAD PUSH2 0xDE2 SWAP2 PUSH2 0xD0B SWAP1 DUP3 PUSH2 0x356C JUMP JUMPDEST PUSH1 0x6 DUP2 MSTORE PUSH6 0x23B2B73232B9 PUSH1 0xD1 SHL PUSH1 0x20 DUP3 ADD MSTORE PUSH2 0xD97 PUSH2 0xD32 CALLDATASIZE PUSH2 0x120 MLOAD PUSH2 0x160 MLOAD PUSH2 0x3988 JUMP JUMPDEST PUSH2 0xD92 DUP2 MLOAD PUSH1 0x1 DUP2 LT ISZERO SWAP1 DUP2 PUSH2 0x2240 JUMPI JUMPDEST POP PUSH2 0x100 MLOAD MLOAD SWAP1 PUSH2 0xD8D PUSH1 0xF PUSH1 0x20 DUP5 DUP10 MLOAD PUSH2 0xD64 DUP2 DUP13 DUP6 DUP1 DUP7 ADD SWAP2 ADD PUSH2 0x328E JUMP JUMPDEST DUP2 ADD PUSH15 0x81B195B99DD1A081A5B9D985B1A59 PUSH1 0x8A SHL DUP4 DUP3 ADD MSTORE SUB ADD PUSH1 0x10 NOT DUP2 ADD DUP6 MSTORE ADD DUP4 PUSH2 0x356C JUMP JUMPDEST PUSH2 0x39CE JUMP JUMPDEST PUSH2 0x3B93 JUMP JUMPDEST ISZERO PUSH2 0xD8D PUSH1 0x10 PUSH1 0x20 PUSH2 0x100 MLOAD MLOAD DUP6 PUSH2 0xDB8 DUP3 SWAP8 MLOAD DUP1 SWAP3 DUP6 DUP1 DUP7 ADD SWAP2 ADD PUSH2 0x328E JUMP JUMPDEST DUP2 ADD PUSH16 0x2063616E6E6F7420626520626C616E6B PUSH1 0x80 SHL DUP4 DUP3 ADD MSTORE SUB ADD PUSH1 0xF NOT DUP2 ADD DUP6 MSTORE ADD DUP4 PUSH2 0x356C JUMP JUMPDEST PUSH2 0x100 MLOAD POP PUSH2 0xEA1 PUSH2 0xDB8 PUSH2 0x100 MLOAD MLOAD PUSH2 0xDFF PUSH2 0x100 MLOAD DUP3 PUSH2 0x356C JUMP JUMPDEST PUSH1 0xB DUP2 MSTORE PUSH2 0xD8D PUSH1 0x10 PUSH1 0x20 DUP1 DUP5 ADD SWAP4 PUSH11 0x2232B9B1B934B83A34B7B7 PUSH1 0xA9 SHL DUP6 MSTORE PUSH2 0xE8B PUSH2 0xE33 CALLDATASIZE PUSH2 0x280 MLOAD PUSH2 0x2A0 MLOAD PUSH2 0x3988 JUMP JUMPDEST PUSH2 0xD92 DUP2 MLOAD PUSH1 0xA DUP2 LT ISZERO SWAP1 DUP2 PUSH2 0x2233 JUMPI JUMPDEST POP PUSH2 0x100 MLOAD MLOAD SWAP1 PUSH2 0xD8D PUSH1 0xF DUP9 DUP5 DUP14 PUSH2 0xE63 DUP12 MLOAD DUP1 SWAP3 DUP6 DUP6 ADD SWAP1 PUSH2 0x328E JUMP JUMPDEST DUP2 ADD PUSH15 0x81B195B99DD1A081A5B9D985B1A59 PUSH1 0x8A SHL DUP4 DUP3 ADD MSTORE SUB ADD DUP11 NOT DUP2 ADD DUP6 MSTORE ADD DUP4 PUSH2 0x356C JUMP JUMPDEST ISZERO SWAP5 PUSH2 0x100 MLOAD MLOAD SWAP7 DUP8 SWAP3 MLOAD DUP1 SWAP3 DUP6 DUP6 ADD SWAP1 PUSH2 0x328E JUMP JUMPDEST PUSH2 0x100 MLOAD POP PUSH2 0xF1F PUSH2 0xDB8 PUSH2 0x100 MLOAD MLOAD PUSH2 0xEBE PUSH2 0x100 MLOAD DUP3 PUSH2 0x356C JUMP JUMPDEST PUSH1 0x9 DUP2 MSTORE PUSH2 0xD8D PUSH1 0x10 PUSH1 0x20 DUP1 DUP5 ADD SWAP4 PUSH9 0x125B5859D948155493 PUSH1 0xBA SHL DUP6 MSTORE PUSH2 0xE8B PUSH2 0xEF0 CALLDATASIZE PUSH2 0x3E0 MLOAD PUSH2 0x340 MLOAD PUSH2 0x3988 JUMP JUMPDEST PUSH2 0xD92 DUP2 MLOAD PUSH1 0xA DUP2 LT ISZERO SWAP1 DUP2 PUSH2 0x2227 JUMPI POP PUSH2 0x100 MLOAD MLOAD SWAP1 PUSH2 0xD8D PUSH1 0xF DUP9 DUP5 DUP14 PUSH2 0xE63 DUP12 MLOAD DUP1 SWAP3 DUP6 DUP6 ADD SWAP1 PUSH2 0x328E JUMP JUMPDEST PUSH2 0x100 MLOAD POP PUSH2 0xF9C PUSH2 0xDB8 PUSH2 0x100 MLOAD MLOAD PUSH2 0xF3C PUSH2 0x100 MLOAD DUP3 PUSH2 0x356C JUMP JUMPDEST PUSH1 0x8 DUP2 MSTORE PUSH2 0xD8D PUSH1 0x10 PUSH1 0x20 DUP1 DUP5 ADD SWAP4 PUSH8 0x2637B1B0BA34B7B7 PUSH1 0xC1 SHL DUP6 MSTORE PUSH2 0xE8B PUSH2 0xF6D CALLDATASIZE PUSH2 0x3C0 MLOAD PUSH2 0x380 MLOAD PUSH2 0x3988 JUMP JUMPDEST PUSH2 0xD92 DUP2 MLOAD PUSH1 0x5 DUP2 LT ISZERO SWAP1 DUP2 PUSH2 0x2227 JUMPI POP PUSH2 0x100 MLOAD MLOAD SWAP1 PUSH2 0xD8D PUSH1 0xF DUP9 DUP5 DUP14 PUSH2 0xE63 DUP12 MLOAD DUP1 SWAP3 DUP6 DUP6 ADD SWAP1 PUSH2 0x328E JUMP JUMPDEST PUSH2 0x100 MLOAD POP PUSH2 0x101D PUSH2 0xDB8 PUSH2 0x100 MLOAD MLOAD PUSH2 0xFB9 PUSH2 0x100 MLOAD DUP3 PUSH2 0x356C JUMP JUMPDEST PUSH1 0xC DUP2 MSTORE PUSH2 0xD8D PUSH1 0x10 PUSH1 0x20 DUP1 DUP5 ADD SWAP4 PUSH12 0x436F6E74616374206E616D65 PUSH1 0xA0 SHL DUP6 MSTORE PUSH2 0xE8B PUSH2 0xFEE CALLDATASIZE PUSH2 0x360 MLOAD PUSH2 0x300 MLOAD PUSH2 0x3988 JUMP JUMPDEST PUSH2 0xD92 DUP2 MLOAD PUSH1 0x2 DUP2 LT ISZERO SWAP1 DUP2 PUSH2 0x221B JUMPI POP PUSH2 0x100 MLOAD MLOAD SWAP1 PUSH2 0xD8D PUSH1 0xF DUP9 DUP5 DUP14 PUSH2 0xE63 DUP12 MLOAD DUP1 SWAP3 DUP6 DUP6 ADD SWAP1 PUSH2 0x328E JUMP JUMPDEST PUSH2 0x100 MLOAD POP PUSH2 0x109F PUSH2 0xDB8 PUSH2 0x100 MLOAD MLOAD PUSH2 0x103A PUSH2 0x100 MLOAD DUP3 PUSH2 0x356C JUMP JUMPDEST PUSH1 0xD DUP2 MSTORE PUSH2 0xD8D PUSH1 0x10 PUSH1 0x20 DUP1 DUP5 ADD SWAP4 PUSH13 0x436F6E746163742070686F6E65 PUSH1 0x98 SHL DUP6 MSTORE PUSH2 0xE8B PUSH2 0x1070 CALLDATASIZE PUSH2 0x2E0 MLOAD PUSH2 0x260 MLOAD PUSH2 0x3988 JUMP JUMPDEST PUSH2 0xD92 DUP2 MLOAD PUSH1 0x5 DUP2 LT ISZERO SWAP1 DUP2 PUSH2 0x220F JUMPI POP PUSH2 0x100 MLOAD MLOAD SWAP1 PUSH2 0xD8D PUSH1 0xF DUP9 DUP5 DUP14 PUSH2 0xE63 DUP12 MLOAD DUP1 SWAP3 DUP6 DUP6 ADD SWAP1 PUSH2 0x328E JUMP JUMPDEST PUSH1 0xA PUSH1 0x1 PUSH1 0x1 PUSH1 0x80 SHL SUB PUSH2 0x1A0 MLOAD AND LT ISZERO DUP1 PUSH2 0x21F8 JUMPI JUMPDEST ISZERO PUSH2 0x21C2 JUMPI PUSH1 0x1 PUSH1 0x1 PUSH1 0x1 PUSH1 0x80 SHL SUB PUSH2 0x1C0 MLOAD AND LT ISZERO DUP1 PUSH2 0x21AB JUMPI JUMPDEST ISZERO PUSH2 0x2176 JUMPI PUSH2 0x10F0 PUSH2 0x10EB CALLDATASIZE PUSH2 0x200 MLOAD PUSH2 0x1E0 MLOAD PUSH2 0x3988 JUMP JUMPDEST PUSH2 0x3AED JUMP JUMPDEST ISZERO PUSH2 0x213F JUMPI PUSH1 0x1 PUSH1 0x1 PUSH1 0x80 SHL SUB PUSH2 0x140 MLOAD AND PUSH2 0x2097 JUMPI JUMPDEST PUSH1 0x1 PUSH1 0x1 PUSH1 0x80 SHL SUB PUSH2 0x180 MLOAD AND PUSH2 0x1FB6 JUMPI JUMPDEST PUSH1 0x1 SLOAD PUSH1 0xE0 MSTORE PUSH2 0x100 MLOAD MLOAD PUSH1 0xC0 MSTORE PUSH2 0x1132 PUSH1 0xC0 MLOAD PUSH2 0x3550 JUMP JUMPDEST PUSH1 0xE0 MLOAD PUSH1 0xC0 MLOAD MSTORE CALLER PUSH1 0x20 PUSH1 0xC0 MLOAD ADD MSTORE PUSH2 0x1152 CALLDATASIZE PUSH2 0x2C0 MLOAD PUSH2 0x3A0 MLOAD PUSH2 0x3988 JUMP JUMPDEST PUSH2 0x100 MLOAD PUSH1 0xC0 MLOAD ADD MSTORE PUSH2 0x116C CALLDATASIZE PUSH2 0x320 MLOAD PUSH2 0x400 MLOAD PUSH2 0x3988 JUMP JUMPDEST PUSH1 0x60 PUSH1 0xC0 MLOAD ADD MSTORE PUSH2 0x1184 CALLDATASIZE PUSH2 0x120 MLOAD PUSH2 0x160 MLOAD PUSH2 0x3988 JUMP JUMPDEST PUSH1 0x80 PUSH1 0xC0 MLOAD ADD MSTORE PUSH1 0x1 PUSH1 0x1 PUSH1 0x80 SHL SUB PUSH2 0x1A0 MLOAD AND PUSH1 0xA0 PUSH1 0xC0 MLOAD ADD MSTORE PUSH1 0x1 PUSH1 0x1 PUSH1 0x80 SHL SUB PUSH2 0x1C0 MLOAD AND PUSH1 0xC0 DUP1 MLOAD ADD MSTORE PUSH2 0x11C3 CALLDATASIZE PUSH2 0x220 MLOAD PUSH2 0x240 MLOAD PUSH2 0x3988 JUMP JUMPDEST PUSH1 0xE0 PUSH1 0xC0 MLOAD ADD MSTORE PUSH2 0x11DB CALLDATASIZE PUSH2 0x280 MLOAD PUSH2 0x2A0 MLOAD PUSH2 0x3988 JUMP JUMPDEST PUSH2 0x100 PUSH1 0xC0 MLOAD ADD MSTORE PUSH2 0x11F4 CALLDATASIZE PUSH2 0x3E0 MLOAD PUSH2 0x340 MLOAD PUSH2 0x3988 JUMP JUMPDEST PUSH2 0x120 PUSH1 0xC0 MLOAD ADD MSTORE PUSH2 0x120D CALLDATASIZE PUSH2 0x3C0 MLOAD PUSH2 0x380 MLOAD PUSH2 0x3988 JUMP JUMPDEST PUSH2 0x140 PUSH1 0xC0 MLOAD ADD MSTORE PUSH2 0x1226 CALLDATASIZE PUSH2 0x360 MLOAD PUSH2 0x300 MLOAD PUSH2 0x3988 JUMP JUMPDEST PUSH2 0x160 PUSH1 0xC0 MLOAD ADD MSTORE PUSH2 0x123F CALLDATASIZE PUSH2 0x2E0 MLOAD PUSH2 0x260 MLOAD PUSH2 0x3988 JUMP JUMPDEST PUSH2 0x180 PUSH1 0xC0 MLOAD ADD MSTORE PUSH2 0x1258 CALLDATASIZE PUSH2 0x200 MLOAD PUSH2 0x1E0 MLOAD PUSH2 0x3988 JUMP JUMPDEST PUSH2 0x1A0 PUSH1 0xC0 MLOAD ADD MSTORE PUSH1 0x1 PUSH1 0x1 PUSH1 0x80 SHL SUB CALLVALUE AND PUSH2 0x1C0 PUSH1 0xC0 MLOAD ADD MSTORE PUSH1 0x1 PUSH1 0x1 PUSH1 0x80 SHL SUB PUSH2 0x180 MLOAD AND PUSH2 0x1E0 PUSH1 0xC0 MLOAD ADD MSTORE PUSH1 0x1 PUSH1 0x1 PUSH1 0x80 SHL SUB PUSH2 0x140 MLOAD AND PUSH2 0x200 PUSH1 0xC0 MLOAD ADD MSTORE PUSH1 0x0 PUSH2 0x220 PUSH1 0xC0 MLOAD ADD MSTORE PUSH1 0x0 PUSH2 0x240 PUSH1 0xC0 MLOAD ADD MSTORE PUSH1 0x0 PUSH2 0x260 PUSH1 0xC0 MLOAD ADD MSTORE PUSH1 0x0 PUSH2 0x280 PUSH1 0xC0 MLOAD ADD MSTORE PUSH1 0xE0 MLOAD PUSH1 0x0 MSTORE PUSH1 0x2 PUSH1 0x20 MSTORE PUSH2 0x100 MLOAD PUSH1 0x0 KECCAK256 PUSH1 0xC0 MLOAD MLOAD DUP2 SSTORE PUSH1 0x1 DUP1 PUSH1 0xA0 SHL SUB PUSH1 0x20 PUSH1 0xC0 MLOAD ADD MLOAD AND PUSH1 0x1 DUP3 ADD SWAP1 PUSH1 0x1 DUP1 PUSH1 0xA0 SHL SUB AND PUSH12 0xFFFFFFFFFFFFFFFFFFFFFFFF PUSH1 0xA0 SHL DUP3 SLOAD AND OR SWAP1 SSTORE PUSH2 0x100 MLOAD PUSH1 0xC0 MLOAD ADD MLOAD DUP1 MLOAD SWAP1 PUSH1 0x1 PUSH1 0x1 PUSH1 0x40 SHL SUB DUP3 GT PUSH2 0x18E3 JUMPI DUP2 SWAP1 PUSH2 0x1337 PUSH1 0x2 DUP6 ADD SLOAD PUSH2 0x3516 JUMP JUMPDEST PUSH1 0x1F DUP2 GT PUSH2 0x1F63 JUMPI JUMPDEST POP PUSH1 0x20 SWAP1 PUSH1 0x1F DUP4 GT PUSH1 0x1 EQ PUSH2 0x1EF2 JUMPI PUSH1 0x0 SWAP3 PUSH2 0x1EE7 JUMPI JUMPDEST POP POP DUP2 PUSH1 0x1 SHL SWAP2 PUSH1 0x0 NOT SWAP1 PUSH1 0x3 SHL SHR NOT AND OR PUSH1 0x2 DUP3 ADD SSTORE JUMPDEST PUSH1 0x60 PUSH1 0xC0 MLOAD ADD MLOAD DUP1 MLOAD SWAP1 PUSH1 0x1 PUSH1 0x1 PUSH1 0x40 SHL SUB DUP3 GT PUSH2 0x18E3 JUMPI DUP2 SWAP1 PUSH2 0x1396 PUSH1 0x3 DUP6 ADD SLOAD PUSH2 0x3516 JUMP JUMPDEST PUSH1 0x1F DUP2 GT PUSH2 0x1E94 JUMPI JUMPDEST POP PUSH1 0x20 SWAP1 PUSH1 0x1F DUP4 GT PUSH1 0x1 EQ PUSH2 0x1E23 JUMPI PUSH1 0x0 SWAP3 PUSH2 0x1E18 JUMPI JUMPDEST POP POP DUP2 PUSH1 0x1 SHL SWAP2 PUSH1 0x0 NOT SWAP1 PUSH1 0x3 SHL SHR NOT AND OR PUSH1 0x3 DUP3 ADD SSTORE JUMPDEST PUSH1 0x80 PUSH1 0xC0 MLOAD ADD MLOAD DUP1 MLOAD SWAP1 PUSH1 0x1 PUSH1 0x1 PUSH1 0x40 SHL SUB DUP3 GT PUSH2 0x18E3 JUMPI DUP2 SWAP1 PUSH2 0x13F5 PUSH1 0x4 DUP6 ADD SLOAD PUSH2 0x3516 JUMP JUMPDEST PUSH1 0x1F DUP2 GT PUSH2 0x1DC5 JUMPI JUMPDEST POP PUSH1 0x20 SWAP1 PUSH1 0x1F DUP4 GT PUSH1 0x1 EQ PUSH2 0x1D54 JUMPI PUSH1 0x0 SWAP3 PUSH2 0x1D49 JUMPI JUMPDEST POP POP DUP2 PUSH1 0x1 SHL SWAP2 PUSH1 0x0 NOT SWAP1 PUSH1 0x3 SHL SHR NOT AND OR PUSH1 0x4 DUP3 ADD SSTORE JUMPDEST PUSH1 0xC0 DUP1 MLOAD PUSH1 0xA0 DUP2 ADD MLOAD SWAP2 ADD MLOAD PUSH1 0x80 SHL PUSH1 0x1 PUSH1 0x1 PUSH1 0x80 SHL SUB NOT AND PUSH1 0x1 PUSH1 0x1 PUSH1 0x80 SHL SUB SWAP2 SWAP1 SWAP2 AND OR PUSH1 0x5 DUP3 ADD SSTORE PUSH1 0x6 DUP2 ADD SWAP1 PUSH1 0xE0 PUSH1 0xC0 MLOAD ADD MLOAD SWAP2 DUP3 MLOAD PUSH1 0x1 PUSH1 0x1 PUSH1 0x40 SHL SUB DUP2 GT PUSH2 0x18E3 JUMPI PUSH2 0x147F DUP3 SLOAD PUSH2 0x3516 JUMP JUMPDEST PUSH1 0x1F DUP2 GT PUSH2 0x1D01 JUMPI JUMPDEST POP PUSH1 0x20 PUSH1 0x1F DUP3 GT PUSH1 0x1 EQ PUSH2 0x1C9C JUMPI DUP2 SWAP3 SWAP4 SWAP5 PUSH1 0x0 SWAP3 PUSH2 0x1C91 JUMPI JUMPDEST POP POP DUP2 PUSH1 0x1 SHL SWAP2 PUSH1 0x0 NOT SWAP1 PUSH1 0x3 SHL SHR NOT AND OR SWAP1 SSTORE JUMPDEST PUSH1 0x7 DUP2 ADD SWAP1 PUSH2 0x100 PUSH1 0xC0 MLOAD ADD MLOAD SWAP2 DUP3 MLOAD PUSH1 0x1 PUSH1 0x1 PUSH1 0x40 SHL SUB DUP2 GT PUSH2 0x18E3 JUMPI PUSH2 0x14DF DUP3 SLOAD PUSH2 0x3516 JUMP JUMPDEST PUSH1 0x1F DUP2 GT PUSH2 0x1C49 JUMPI JUMPDEST POP PUSH1 0x20 PUSH1 0x1F DUP3 GT PUSH1 0x1 EQ PUSH2 0x1BE4 JUMPI DUP2 SWAP3 SWAP4 SWAP5 PUSH1 0x0 SWAP3 PUSH2 0x1BD9 JUMPI JUMPDEST POP POP DUP2 PUSH1 0x1 SHL SWAP2 PUSH1 0x0 NOT SWAP1 PUSH1 0x3 SHL SHR NOT AND OR SWAP1 SSTORE JUMPDEST PUSH1 0x8 DUP2 ADD SWAP1 PUSH2 0x120 PUSH1 0xC0 MLOAD ADD MLOAD SWAP2 DUP3 MLOAD PUSH1 0x1 PUSH1 0x1 PUSH1 0x40 SHL SUB DUP2 GT PUSH2 0x18E3 JUMPI PUSH2 0x153F DUP3 SLOAD PUSH2 0x3516 JUMP JUMPDEST PUSH1 0x1F DUP2 GT PUSH2 0x1B91 JUMPI JUMPDEST POP PUSH1 0x20 PUSH1 0x1F DUP3 GT PUSH1 0x1 EQ PUSH2 0x1B2C JUMPI DUP2 SWAP3 SWAP4 SWAP5 PUSH1 0x0 SWAP3 PUSH2 0x1B21 JUMPI JUMPDEST POP POP DUP2 PUSH1 0x1 SHL SWAP2 PUSH1 0x0 NOT SWAP1 PUSH1 0x3 SHL SHR NOT AND OR SWAP1 SSTORE JUMPDEST PUSH1 0x9 DUP2 ADD SWAP1 PUSH2 0x140 PUSH1 0xC0 MLOAD ADD MLOAD SWAP2 DUP3 MLOAD PUSH1 0x1 PUSH1 0x1 PUSH1 0x40 SHL SUB DUP2 GT PUSH2 0x18E3 JUMPI PUSH2 0x159F DUP3 SLOAD PUSH2 0x3516 JUMP JUMPDEST PUSH1 0x1F DUP2 GT PUSH2 0x1AD9 JUMPI JUMPDEST POP PUSH1 0x20 PUSH1 0x1F DUP3 GT PUSH1 0x1 EQ PUSH2 0x1A74 JUMPI DUP2 SWAP3 SWAP4 SWAP5 PUSH1 0x0 SWAP3 PUSH2 0x1A69 JUMPI JUMPDEST POP POP DUP2 PUSH1 0x1 SHL SWAP2 PUSH1 0x0 NOT SWAP1 PUSH1 0x3 SHL SHR NOT AND OR SWAP1 SSTORE JUMPDEST PUSH1 0xA DUP2 ADD SWAP1 PUSH2 0x160 PUSH1 0xC0 MLOAD ADD MLOAD SWAP2 DUP3 MLOAD PUSH1 0x1 PUSH1 0x1 PUSH1 0x40 SHL SUB DUP2 GT PUSH2 0x18E3 JUMPI PUSH2 0x15FF DUP3 SLOAD PUSH2 0x3516 JUMP JUMPDEST PUSH1 0x1F DUP2 GT PUSH2 0x1A21 JUMPI JUMPDEST POP PUSH1 0x20 PUSH1 0x1F DUP3 GT PUSH1 0x1 EQ PUSH2 0x19BC JUMPI DUP2 SWAP3 SWAP4 SWAP5 PUSH1 0x0 SWAP3 PUSH2 0x19B1 JUMPI JUMPDEST POP POP DUP2 PUSH1 0x1 SHL SWAP2 PUSH1 0x0 NOT SWAP1 PUSH1 0x3 SHL SHR NOT AND OR SWAP1 SSTORE JUMPDEST PUSH1 0xB DUP2 ADD SWAP1 PUSH2 0x180 PUSH1 0xC0 MLOAD ADD MLOAD SWAP2 DUP3 MLOAD PUSH1 0x1 PUSH1 0x1 PUSH1 0x40 SHL SUB DUP2 GT PUSH2 0x18E3 JUMPI PUSH2 0x165F DUP3 SLOAD PUSH2 0x3516 JUMP JUMPDEST PUSH1 0x1F DUP2 GT PUSH2 0x1969 JUMPI JUMPDEST POP PUSH1 0x20 PUSH1 0x1F DUP3 GT PUSH1 0x1 EQ PUSH2 0x1904 JUMPI DUP2 SWAP3 SWAP4 SWAP5 PUSH1 0x0 SWAP3 PUSH2 0x18F9 JUMPI JUMPDEST POP POP DUP2 PUSH1 0x1 SHL SWAP2 PUSH1 0x0 NOT SWAP1 PUSH1 0x3 SHL SHR NOT AND OR SWAP1 SSTORE JUMPDEST PUSH1 0xC DUP2 ADD SWAP1 PUSH2 0x1A0 PUSH1 0xC0 MLOAD ADD MLOAD SWAP2 DUP3 MLOAD PUSH1 0x1 PUSH1 0x1 PUSH1 0x40 SHL SUB DUP2 GT PUSH2 0x18E3 JUMPI PUSH2 0x16BF DUP3 SLOAD PUSH2 0x3516 JUMP JUMPDEST PUSH1 0x1F DUP2 GT PUSH2 0x189B JUMPI JUMPDEST POP PUSH1 0x20 PUSH1 0x1F DUP3 GT PUSH1 0x1 EQ PUSH2 0x1836 JUMPI DUP2 SWAP3 SWAP4 SWAP5 PUSH1 0x0 SWAP3 PUSH2 0x182B JUMPI JUMPDEST POP POP DUP2 PUSH1 0x1 SHL SWAP2 PUSH1 0x0 NOT SWAP1 PUSH1 0x3 SHL SHR NOT AND OR SWAP1 SSTORE JUMPDEST PUSH1 0xC0 MLOAD PUSH2 0x1C0 DUP2 ADD MLOAD PUSH2 0x1E0 SWAP1 SWAP2 ADD MLOAD PUSH1 0x80 SHL PUSH1 0x1 PUSH1 0x1 PUSH1 0x80 SHL SUB NOT AND PUSH1 0x1 PUSH1 0x1 PUSH1 0x80 SHL SUB SWAP2 SWAP1 SWAP2 AND OR PUSH1 0xD DUP3 ADD SSTORE PUSH1 0xE DUP2 ADD SWAP1 PUSH1 0x1 PUSH1 0x1 PUSH1 0x80 SHL SUB DUP1 PUSH2 0x200 PUSH1 0xC0 MLOAD ADD MLOAD AND AND PUSH1 0x1 PUSH1 0x1 PUSH1 0x80 SHL SUB NOT DUP4 SLOAD AND OR DUP3 SSTORE PUSH2 0x220 PUSH1 0xC0 MLOAD ADD MLOAD SWAP2 PUSH1 0x3 DUP4 LT ISZERO PUSH2 0x75A JUMPI DUP1 SLOAD PUSH1 0xC0 MLOAD PUSH2 0x240 DUP2 ADD MLOAD PUSH2 0x260 DUP3 ADD MLOAD PUSH3 0xFFFFFF PUSH1 0x80 SHL NOT SWAP1 SWAP4 AND PUSH1 0x80 SWAP7 SWAP1 SWAP7 SHL PUSH1 0xFF PUSH1 0x80 SHL AND SWAP6 SWAP1 SWAP6 OR SWAP5 ISZERO ISZERO PUSH1 0x88 SHL PUSH1 0xFF PUSH1 0x88 SHL AND SWAP5 SWAP1 SWAP5 OR SWAP1 ISZERO ISZERO PUSH1 0x90 SHL PUSH1 0xFF PUSH1 0x90 SHL AND OR SWAP1 SSTORE PUSH2 0x280 SWAP1 SWAP2 ADD MLOAD PUSH1 0xF SWAP2 SWAP1 SWAP2 ADD DUP1 SLOAD PUSH1 0x1 PUSH1 0x1 PUSH1 0xA0 SHL SUB NOT AND PUSH1 0x1 PUSH1 0x1 PUSH1 0xA0 SHL SUB SWAP3 SWAP1 SWAP3 AND SWAP2 SWAP1 SWAP2 OR SWAP1 SSTORE PUSH1 0x1 DUP1 SLOAD PUSH1 0x0 SWAP1 DUP2 MSTORE PUSH1 0x5 PUSH1 0x20 MSTORE PUSH2 0x100 MLOAD DUP2 KECCAK256 TIMESTAMP SWAP1 SSTORE SWAP1 SLOAD PUSH2 0x181D SWAP1 CALLER DUP2 PUSH32 0xF6BE169E9242DB299E4065F846C02E09B60F1421201248FE94D6F552E8C8BD44 DUP6 DUP1 LOG3 PUSH2 0x3792 JUMP JUMPDEST PUSH1 0x1 SSTORE DUP1 SLOAD PUSH1 0xFF NOT AND DUP2 SSTORE DUP1 RETURN JUMPDEST ADD MLOAD SWAP1 POP DUP5 DUP1 PUSH2 0x16E2 JUMP JUMPDEST PUSH1 0x1F NOT DUP3 AND SWAP1 DUP4 PUSH1 0x0 MSTORE DUP1 PUSH1 0x0 KECCAK256 SWAP2 PUSH1 0x0 JUMPDEST DUP2 DUP2 LT PUSH2 0x1883 JUMPI POP SWAP6 DUP4 PUSH1 0x1 SWAP6 SWAP7 SWAP8 LT PUSH2 0x186A JUMPI JUMPDEST POP POP POP DUP2 SHL ADD SWAP1 SSTORE PUSH2 0x16F7 JUMP JUMPDEST ADD MLOAD PUSH1 0x0 NOT PUSH1 0xF8 DUP5 PUSH1 0x3 SHL AND SHR NOT AND SWAP1 SSTORE DUP5 DUP1 DUP1 PUSH2 0x185D JUMP JUMPDEST SWAP2 SWAP3 PUSH1 0x20 PUSH1 0x1 DUP2 SWAP3 DUP7 DUP12 ADD MLOAD DUP2 SSTORE ADD SWAP5 ADD SWAP3 ADD PUSH2 0x1848 JUMP JUMPDEST DUP3 PUSH1 0x0 MSTORE PUSH1 0x20 PUSH1 0x0 KECCAK256 PUSH1 0x1F DUP4 ADD PUSH1 0x5 SHR DUP2 ADD SWAP2 PUSH1 0x20 DUP5 LT PUSH2 0x18D9 JUMPI JUMPDEST PUSH1 0x1F ADD PUSH1 0x5 SHR ADD SWAP1 JUMPDEST DUP2 DUP2 LT PUSH2 0x18CD JUMPI POP PUSH2 0x16C8 JUMP JUMPDEST PUSH1 0x0 DUP2 SSTORE PUSH1 0x1 ADD PUSH2 0x18C0 JUMP JUMPDEST SWAP1 SWAP2 POP DUP2 SWAP1 PUSH2 0x18B7 JUMP JUMPDEST PUSH4 0x4E487B71 PUSH1 0xE0 SHL PUSH1 0x0 MSTORE PUSH1 0x41 PUSH1 0x4 MSTORE PUSH1 0x24 PUSH1 0x0 REVERT JUMPDEST ADD MLOAD SWAP1 POP DUP5 DUP1 PUSH2 0x1682 JUMP JUMPDEST PUSH1 0x1F NOT DUP3 AND SWAP1 DUP4 PUSH1 0x0 MSTORE DUP1 PUSH1 0x0 KECCAK256 SWAP2 PUSH1 0x0 JUMPDEST DUP2 DUP2 LT PUSH2 0x1951 JUMPI POP SWAP6 DUP4 PUSH1 0x1 SWAP6 SWAP7 SWAP8 LT PUSH2 0x1938 JUMPI JUMPDEST POP POP POP DUP2 SHL ADD SWAP1 SSTORE PUSH2 0x1697 JUMP JUMPDEST ADD MLOAD PUSH1 0x0 NOT PUSH1 0xF8 DUP5 PUSH1 0x3 SHL AND SHR NOT AND SWAP1 SSTORE DUP5 DUP1 DUP1 PUSH2 0x192B JUMP JUMPDEST SWAP2 SWAP3 PUSH1 0x20 PUSH1 0x1 DUP2 SWAP3 DUP7 DUP12 ADD MLOAD DUP2 SSTORE ADD SWAP5 ADD SWAP3 ADD PUSH2 0x1916 JUMP JUMPDEST DUP3 PUSH1 0x0 MSTORE PUSH1 0x20 PUSH1 0x0 KECCAK256 PUSH1 0x1F DUP4 ADD PUSH1 0x5 SHR DUP2 ADD SWAP2 PUSH1 0x20 DUP5 LT PUSH2 0x19A7 JUMPI JUMPDEST PUSH1 0x1F ADD PUSH1 0x5 SHR ADD SWAP1 JUMPDEST DUP2 DUP2 LT PUSH2 0x199B JUMPI POP PUSH2 0x1668 JUMP JUMPDEST PUSH1 0x0 DUP2 SSTORE PUSH1 0x1 ADD PUSH2 0x198E JUMP JUMPDEST SWAP1 SWAP2 POP DUP2 SWAP1 PUSH2 0x1985 JUMP JUMPDEST ADD MLOAD SWAP1 POP DUP5 DUP1 PUSH2 0x1622 JUMP JUMPDEST PUSH1 0x1F NOT DUP3 AND SWAP1 DUP4 PUSH1 0x0 MSTORE DUP1 PUSH1 0x0 KECCAK256 SWAP2 PUSH1 0x0 JUMPDEST DUP2 DUP2 LT PUSH2 0x1A09 JUMPI POP SWAP6 DUP4 PUSH1 0x1 SWAP6 SWAP7 SWAP8 LT PUSH2 0x19F0 JUMPI JUMPDEST POP POP POP DUP2 SHL ADD SWAP1 SSTORE PUSH2 0x1637 JUMP JUMPDEST ADD MLOAD PUSH1 0x0 NOT PUSH1 0xF8 DUP5 PUSH1 0x3 SHL AND SHR NOT AND SWAP1 SSTORE DUP5 DUP1 DUP1 PUSH2 0x19E3 JUMP JUMPDEST SWAP2 SWAP3 PUSH1 0x20 PUSH1 0x1 DUP2 SWAP3 DUP7 DUP12 ADD MLOAD DUP2 SSTORE ADD SWAP5 ADD SWAP3 ADD PUSH2 0x19CE JUMP JUMPDEST DUP3 PUSH1 0x0 MSTORE PUSH1 0x20 PUSH1 0x0 KECCAK256 PUSH1 0x1F DUP4 ADD PUSH1 0x5 SHR DUP2 ADD SWAP2 PUSH1 0x20 DUP5 LT PUSH2 0x1A5F JUMPI JUMPDEST PUSH1 0x1F ADD PUSH1 0x5 SHR ADD SWAP1 JUMPDEST DUP2 DUP2 LT PUSH2 0x1A53 JUMPI POP PUSH2 0x1608 JUMP JUMPDEST PUSH1 0x0 DUP2 SSTORE PUSH1 0x1 ADD PUSH2 0x1A46 JUMP JUMPDEST SWAP1 SWAP2 POP DUP2 SWAP1 PUSH2 0x1A3D JUMP JUMPDEST ADD MLOAD SWAP1 POP DUP5 DUP1 PUSH2 0x15C2 JUMP JUMPDEST PUSH1 0x1F NOT DUP3 AND SWAP1 DUP4 PUSH1 0x0 MSTORE DUP1 PUSH1 0x0 KECCAK256 SWAP2 PUSH1 0x0 JUMPDEST DUP2 DUP2 LT PUSH2 0x1AC1 JUMPI POP SWAP6 DUP4 PUSH1 0x1 SWAP6 SWAP7 SWAP8 LT PUSH2 0x1AA8 JUMPI JUMPDEST POP POP POP DUP2 SHL ADD SWAP1 SSTORE PUSH2 0x15D7 JUMP JUMPDEST ADD MLOAD PUSH1 0x0 NOT PUSH1 0xF8 DUP5 PUSH1 0x3 SHL AND SHR NOT AND SWAP1 SSTORE DUP5 DUP1 DUP1 PUSH2 0x1A9B JUMP JUMPDEST SWAP2 SWAP3 PUSH1 0x20 PUSH1 0x1 DUP2 SWAP3 DUP7 DUP12 ADD MLOAD DUP2 SSTORE ADD SWAP5 ADD SWAP3 ADD PUSH2 0x1A86 JUMP JUMPDEST DUP3 PUSH1 0x0 MSTORE PUSH1 0x20 PUSH1 0x0 KECCAK256 PUSH1 0x1F DUP4 ADD PUSH1 0x5 SHR DUP2 ADD SWAP2 PUSH1 0x20 DUP5 LT PUSH2 0x1B17 JUMPI JUMPDEST PUSH1 0x1F ADD PUSH1 0x5 SHR ADD SWAP1 JUMPDEST DUP2 DUP2 LT PUSH2 0x1B0B JUMPI POP PUSH2 0x15A8 JUMP JUMPDEST PUSH1 0x0 DUP2 SSTORE PUSH1 0x1 ADD PUSH2 0x1AFE JUMP JUMPDEST SWAP1 SWAP2 POP DUP2 SWAP1 PUSH2 0x1AF5 JUMP JUMPDEST ADD MLOAD SWAP1 POP DUP5 DUP1 PUSH2 0x1562 JUMP JUMPDEST PUSH1 0x1F NOT DUP3 AND SWAP1 DUP4 PUSH1 0x0 MSTORE DUP1 PUSH1 0x0 KECCAK256 SWAP2 PUSH1 0x0 JUMPDEST DUP2 DUP2 LT PUSH2 0x1B79 JUMPI POP SWAP6 DUP4 PUSH1 0x1 SWAP6 SWAP7 SWAP8 LT PUSH2 0x1B60 JUMPI JUMPDEST POP POP POP DUP2 SHL ADD SWAP1 SSTORE PUSH2 0x1577 JUMP JUMPDEST ADD MLOAD PUSH1 0x0 NOT PUSH1 0xF8 DUP5 PUSH1 0x3 SHL AND SHR NOT AND SWAP1 SSTORE DUP5 DUP1 DUP1 PUSH2 0x1B53 JUMP JUMPDEST SWAP2 SWAP3 PUSH1 0x20 PUSH1 0x1 DUP2 SWAP3 DUP7 DUP12 ADD MLOAD DUP2 SSTORE ADD SWAP5 ADD SWAP3 ADD PUSH2 0x1B3E JUMP JUMPDEST DUP3 PUSH1 0x0 MSTORE PUSH1 0x20 PUSH1 0x0 KECCAK256 PUSH1 0x1F DUP4 ADD PUSH1 0x5 SHR DUP2 ADD SWAP2 PUSH1 0x20 DUP5 LT PUSH2 0x1BCF JUMPI JUMPDEST PUSH1 0x1F ADD PUSH1 0x5 SHR ADD SWAP1 JUMPDEST DUP2 DUP2 LT PUSH2 0x1BC3 JUMPI POP PUSH2 0x1548 JUMP JUMPDEST PUSH1 0x0 DUP2 SSTORE PUSH1 0x1 ADD PUSH2 0x1BB6 JUMP JUMPDEST SWAP1 SWAP2 POP DUP2 SWAP1 PUSH2 0x1BAD JUMP JUMPDEST ADD MLOAD SWAP1 POP DUP5 DUP1 PUSH2 0x1502 JUMP JUMPDEST PUSH1 0x1F NOT DUP3 AND SWAP1 DUP4 PUSH1 0x0 MSTORE DUP1 PUSH1 0x0 KECCAK256 SWAP2 PUSH1 0x0 JUMPDEST DUP2 DUP2 LT PUSH2 0x1C31 JUMPI POP SWAP6 DUP4 PUSH1 0x1 SWAP6 SWAP7 SWAP8 LT PUSH2 0x1C18 JUMPI JUMPDEST POP POP POP DUP2 SHL ADD SWAP1 SSTORE PUSH2 0x1517 JUMP JUMPDEST ADD MLOAD PUSH1 0x0 NOT PUSH1 0xF8 DUP5 PUSH1 0x3 SHL AND SHR NOT AND SWAP1 SSTORE DUP5 DUP1 DUP1 PUSH2 0x1C0B JUMP JUMPDEST SWAP2 SWAP3 PUSH1 0x20 PUSH1 0x1 DUP2 SWAP3 DUP7 DUP12 ADD MLOAD DUP2 SSTORE ADD SWAP5 ADD SWAP3 ADD PUSH2 0x1BF6 JUMP JUMPDEST DUP3 PUSH1 0x0 MSTORE PUSH1 0x20 PUSH1 0x0 KECCAK256 PUSH1 0x1F DUP4 ADD PUSH1 0x5 SHR DUP2 ADD SWAP2 PUSH1 0x20 DUP5 LT PUSH2 0x1C87 JUMPI JUMPDEST PUSH1 0x1F ADD PUSH1 0x5 SHR ADD SWAP1 JUMPDEST DUP2 DUP2 LT PUSH2 0x1C7B JUMPI POP PUSH2 0x14E8 JUMP JUMPDEST PUSH1 0x0 DUP2 SSTORE PUSH1 0x1 ADD PUSH2 0x1C6E JUMP JUMPDEST SWAP1 SWAP2 POP DUP2 SWAP1 PUSH2 0x1C65 JUMP JUMPDEST ADD MLOAD SWAP1 POP DUP5 DUP1 PUSH2 0x14A2 JUMP JUMPDEST PUSH1 0x1F NOT DUP3 AND SWAP1 DUP4 PUSH1 0x0 MSTORE DUP1 PUSH1 0x0 KECCAK256 SWAP2 PUSH1 0x0 JUMPDEST DUP2 DUP2 LT PUSH2 0x1CE9 JUMPI POP SWAP6 DUP4 PUSH1 0x1 SWAP6 SWAP7 SWAP8 LT PUSH2 0x1CD0 JUMPI JUMPDEST POP POP POP DUP2 SHL ADD SWAP1 SSTORE PUSH2 0x14B7 JUMP JUMPDEST ADD MLOAD PUSH1 0x0 NOT PUSH1 0xF8 DUP5 PUSH1 0x3 SHL AND SHR NOT AND SWAP1 SSTORE DUP5 DUP1 DUP1 PUSH2 0x1CC3 JUMP JUMPDEST SWAP2 SWAP3 PUSH1 0x20 PUSH1 0x1 DUP2 SWAP3 DUP7 DUP12 ADD MLOAD DUP2 SSTORE ADD SWAP5 ADD SWAP3 ADD PUSH2 0x1CAE JUMP JUMPDEST DUP3 PUSH1 0x0 MSTORE PUSH1 0x20 PUSH1 0x0 KECCAK256 PUSH1 0x1F DUP4 ADD PUSH1 0x5 SHR DUP2 ADD SWAP2 PUSH1 0x20 DUP5 LT PUSH2 0x1D3F JUMPI JUMPDEST PUSH1 0x1F ADD PUSH1 0x5 SHR ADD SWAP1 JUMPDEST DUP2 DUP2 LT PUSH2 0x1D33 JUMPI POP PUSH2 0x1488 JUMP JUMPDEST PUSH1 0x0 DUP2 SSTORE PUSH1 0x1 ADD PUSH2 0x1D26 JUMP JUMPDEST SWAP1 SWAP2 POP DUP2 SWAP1 PUSH2 0x1D1D JUMP JUMPDEST ADD MLOAD SWAP1 POP DUP4 DUP1 PUSH2 0x1415 JUMP JUMPDEST SWAP3 POP PUSH1 0x4 DUP5 ADD PUSH1 0x0 MSTORE DUP1 PUSH1 0x0 KECCAK256 SWAP1 PUSH1 0x0 SWAP4 JUMPDEST PUSH1 0x1F NOT DUP5 AND DUP6 LT PUSH2 0x1DAA JUMPI PUSH1 0x1 SWAP5 POP DUP4 PUSH1 0x1F NOT DUP2 AND LT PUSH2 0x1D91 JUMPI JUMPDEST POP POP POP DUP2 SHL ADD PUSH1 0x4 DUP3 ADD SSTORE PUSH2 0x142D JUMP JUMPDEST ADD MLOAD PUSH1 0x0 NOT PUSH1 0xF8 DUP5 PUSH1 0x3 SHL AND SHR NOT AND SWAP1 SSTORE DUP4 DUP1 DUP1 PUSH2 0x1D81 JUMP JUMPDEST DUP2 DUP2 ADD MLOAD DUP4 SSTORE PUSH1 0x20 SWAP5 DUP6 ADD SWAP5 PUSH1 0x1 SWAP1 SWAP4 ADD SWAP3 SWAP1 SWAP2 ADD SWAP1 PUSH2 0x1D66 JUMP JUMPDEST SWAP1 SWAP2 POP PUSH1 0x4 DUP5 ADD PUSH1 0x0 MSTORE PUSH1 0x20 PUSH1 0x0 KECCAK256 PUSH1 0x1F DUP5 ADD PUSH1 0x5 SHR DUP2 ADD PUSH1 0x20 DUP6 LT PUSH2 0x1E11 JUMPI JUMPDEST SWAP1 DUP5 SWAP4 SWAP3 SWAP2 JUMPDEST PUSH1 0x1F DUP4 ADD PUSH1 0x5 SHR DUP3 ADD DUP2 LT PUSH2 0x1E02 JUMPI POP POP PUSH2 0x13FE JUMP JUMPDEST PUSH1 0x0 DUP2 SSTORE DUP6 SWAP5 POP PUSH1 0x1 ADD PUSH2 0x1DEC JUMP JUMPDEST POP DUP1 PUSH2 0x1DE6 JUMP JUMPDEST ADD MLOAD SWAP1 POP DUP4 DUP1 PUSH2 0x13B6 JUMP JUMPDEST SWAP3 POP PUSH1 0x3 DUP5 ADD PUSH1 0x0 MSTORE DUP1 PUSH1 0x0 KECCAK256 SWAP1 PUSH1 0x0 SWAP4 JUMPDEST PUSH1 0x1F NOT DUP5 AND DUP6 LT PUSH2 0x1E79 JUMPI PUSH1 0x1 SWAP5 POP DUP4 PUSH1 0x1F NOT DUP2 AND LT PUSH2 0x1E60 JUMPI JUMPDEST POP POP POP DUP2 SHL ADD PUSH1 0x3 DUP3 ADD SSTORE PUSH2 0x13CE JUMP JUMPDEST ADD MLOAD PUSH1 0x0 NOT PUSH1 0xF8 DUP5 PUSH1 0x3 SHL AND SHR NOT AND SWAP1 SSTORE DUP4 DUP1 DUP1 PUSH2 0x1E50 JUMP JUMPDEST DUP2 DUP2 ADD MLOAD DUP4 SSTORE PUSH1 0x20 SWAP5 DUP6 ADD SWAP5 PUSH1 0x1 SWAP1 SWAP4 ADD SWAP3 SWAP1 SWAP2 ADD SWAP1 PUSH2 0x1E35 JUMP JUMPDEST SWAP1 SWAP2 POP PUSH1 0x3 DUP5 ADD PUSH1 0x0 MSTORE PUSH1 0x20 PUSH1 0x0 KECCAK256 PUSH1 0x1F DUP5 ADD PUSH1 0x5 SHR DUP2 ADD PUSH1 0x20 DUP6 LT PUSH2 0x1EE0 JUMPI JUMPDEST SWAP1 DUP5 SWAP4 SWAP3 SWAP2 JUMPDEST PUSH1 0x1F DUP4 ADD PUSH1 0x5 SHR DUP3 ADD DUP2 LT PUSH2 0x1ED1 JUMPI POP POP PUSH2 0x139F JUMP JUMPDEST PUSH1 0x0 DUP2 SSTORE DUP6 SWAP5 POP PUSH1 0x1 ADD PUSH2 0x1EBB JUMP JUMPDEST POP DUP1 PUSH2 0x1EB5 JUMP JUMPDEST ADD MLOAD SWAP1 POP DUP4 DUP1 PUSH2 0x1357 JUMP JUMPDEST SWAP3 POP PUSH1 0x2 DUP5 ADD PUSH1 0x0 MSTORE DUP1 PUSH1 0x0 KECCAK256 SWAP1 PUSH1 0x0 SWAP4 JUMPDEST PUSH1 0x1F NOT DUP5 AND DUP6 LT PUSH2 0x1F48 JUMPI PUSH1 0x1 SWAP5 POP DUP4 PUSH1 0x1F NOT DUP2 AND LT PUSH2 0x1F2F JUMPI JUMPDEST POP POP POP DUP2 SHL ADD PUSH1 0x2 DUP3 ADD SSTORE PUSH2 0x136F JUMP JUMPDEST ADD MLOAD PUSH1 0x0 NOT PUSH1 0xF8 DUP5 PUSH1 0x3 SHL AND SHR NOT AND SWAP1 SSTORE DUP4 DUP1 DUP1 PUSH2 0x1F1F JUMP JUMPDEST DUP2 DUP2 ADD MLOAD DUP4 SSTORE PUSH1 0x20 SWAP5 DUP6 ADD SWAP5 PUSH1 0x1 SWAP1 SWAP4 ADD SWAP3 SWAP1 SWAP2 ADD SWAP1 PUSH2 0x1F04 JUMP JUMPDEST SWAP1 SWAP2 POP PUSH1 0x2 DUP5 ADD PUSH1 0x0 MSTORE PUSH1 0x20 PUSH1 0x0 KECCAK256 PUSH1 0x1F DUP5 ADD PUSH1 0x5 SHR DUP2 ADD PUSH1 0x20 DUP6 LT PUSH2 0x1FAF JUMPI JUMPDEST SWAP1 DUP5 SWAP4 SWAP3 SWAP2 JUMPDEST PUSH1 0x1F DUP4 ADD PUSH1 0x5 SHR DUP3 ADD DUP2 LT PUSH2 0x1FA0 JUMPI POP POP PUSH2 0x1340 JUMP JUMPDEST PUSH1 0x0 DUP2 SSTORE DUP6 SWAP5 POP PUSH1 0x1 ADD PUSH2 0x1F8A JUMP JUMPDEST POP DUP1 PUSH2 0x1F84 JUMP JUMPDEST PUSH2 0x100 MLOAD MLOAD PUSH1 0xA0 DUP2 DUP2 MSTORE PUSH4 0x23B872DD PUSH1 0xE0 SHL SWAP1 SWAP2 MSTORE DUP1 MLOAD PUSH2 0x180 MLOAD CALLER PUSH1 0x4 DUP4 ADD MSTORE ADDRESS PUSH1 0x24 DUP4 ADD MSTORE PUSH1 0x1 PUSH1 0x1 PUSH1 0x80 SHL SUB AND PUSH1 0x44 DUP3 ADD MSTORE SWAP1 MLOAD PUSH1 0x20 SWAP2 SWAP1 PUSH1 0x64 SWAP1 PUSH1 0x0 PUSH20 0x765DE816845861E75A25FCA122BB6898B8B1282A GAS CALL PUSH1 0x80 MSTORE PUSH1 0x80 MLOAD ISZERO PUSH2 0x2089 JUMPI PUSH1 0x0 PUSH1 0x80 MLOAD PUSH2 0x2050 JUMPI JUMPDEST PUSH2 0x202B SWAP1 PUSH2 0x370E JUMP JUMPDEST PUSH1 0x1 SLOAD PUSH1 0x0 MSTORE PUSH1 0x3 PUSH1 0x20 MSTORE PUSH1 0x1 PUSH1 0x1 PUSH1 0x80 SHL SUB PUSH2 0x180 MLOAD AND PUSH2 0x100 MLOAD PUSH1 0x0 KECCAK256 SSTORE PUSH2 0x1119 JUMP JUMPDEST POP PUSH1 0x20 RETURNDATASIZE PUSH1 0x20 GT PUSH2 0x2082 JUMPI JUMPDEST PUSH2 0x207B DUP2 PUSH2 0x206F PUSH2 0x202B SWAP4 PUSH1 0xA0 MLOAD PUSH2 0x356C JUMP JUMPDEST PUSH1 0xA0 MLOAD ADD PUSH1 0xA0 MLOAD PUSH2 0x3669 JUMP JUMPDEST SWAP1 POP PUSH2 0x2022 JUMP JUMPDEST POP RETURNDATASIZE PUSH2 0x205C JUMP JUMPDEST PUSH2 0x100 MLOAD MLOAD RETURNDATASIZE PUSH1 0x0 DUP3 RETURNDATACOPY RETURNDATASIZE SWAP1 REVERT JUMPDEST PUSH2 0x100 MLOAD MLOAD PUSH4 0x23B872DD PUSH1 0xE0 SHL DUP2 MSTORE PUSH2 0x140 MLOAD CALLER PUSH1 0x4 DUP4 ADD MSTORE ADDRESS PUSH1 0x24 DUP4 ADD MSTORE PUSH1 0x1 PUSH1 0x1 PUSH1 0x80 SHL SUB AND PUSH1 0x44 DUP3 ADD MSTORE PUSH1 0x20 DUP2 PUSH1 0x64 DUP2 PUSH1 0x0 PUSH20 0x62B8B11039FCFE5AB0C56E502B1C372A3D2A9C7A GAS CALL DUP1 ISZERO PUSH2 0x2089 JUMPI PUSH2 0x20FB SWAP2 PUSH1 0x0 SWAP2 PUSH2 0x2120 JUMPI JUMPDEST POP PUSH2 0x3751 JUMP JUMPDEST PUSH1 0x1 SLOAD PUSH1 0x0 MSTORE PUSH1 0x4 PUSH1 0x20 MSTORE PUSH1 0x1 PUSH1 0x1 PUSH1 0x80 SHL SUB PUSH2 0x140 MLOAD AND PUSH2 0x100 MLOAD PUSH1 0x0 KECCAK256 SSTORE PUSH2 0x1107 JUMP JUMPDEST PUSH2 0x2139 SWAP2 POP PUSH1 0x20 RETURNDATASIZE PUSH1 0x20 GT PUSH2 0x635 JUMPI PUSH2 0x627 DUP2 DUP4 PUSH2 0x356C JUMP JUMPDEST DUP3 PUSH2 0x20F5 JUMP JUMPDEST PUSH2 0x100 MLOAD MLOAD PUSH3 0x461BCD PUSH1 0xE5 SHL DUP2 MSTORE PUSH1 0x20 PUSH1 0x4 DUP3 ADD MSTORE PUSH1 0xD PUSH1 0x24 DUP3 ADD MSTORE PUSH13 0x125B9D985B1A5908195B585A5B PUSH1 0x9A SHL PUSH1 0x44 DUP3 ADD MSTORE PUSH1 0x64 SWAP1 REVERT JUMPDEST PUSH2 0x100 MLOAD MLOAD PUSH3 0x461BCD PUSH1 0xE5 SHL DUP2 MSTORE PUSH1 0x20 PUSH1 0x4 DUP3 ADD MSTORE PUSH1 0xB PUSH1 0x24 DUP3 ADD MSTORE PUSH11 0x496E76616C696420616765 PUSH1 0xA8 SHL PUSH1 0x44 DUP3 ADD MSTORE PUSH1 0x64 SWAP1 REVERT JUMPDEST POP PUSH1 0xF0 PUSH1 0x1 PUSH1 0x1 PUSH1 0x80 SHL SUB PUSH2 0x1C0 MLOAD AND GT ISZERO PUSH2 0x10D2 JUMP JUMPDEST PUSH2 0x100 MLOAD MLOAD PUSH3 0x461BCD PUSH1 0xE5 SHL DUP2 MSTORE PUSH1 0x20 PUSH1 0x4 DUP3 ADD MSTORE PUSH1 0xC PUSH1 0x24 DUP3 ADD MSTORE PUSH12 0x496E76616C69642073697A65 PUSH1 0xA0 SHL PUSH1 0x44 DUP3 ADD MSTORE PUSH1 0x64 SWAP1 REVERT JUMPDEST POP PUSH1 0xC8 PUSH1 0x1 PUSH1 0x1 PUSH1 0x80 SHL SUB PUSH2 0x1A0 MLOAD AND GT ISZERO PUSH2 0x10B6 JUMP JUMPDEST PUSH1 0x14 SWAP2 POP GT ISZERO DUP12 PUSH2 0xE44 JUMP JUMPDEST PUSH1 0x64 SWAP2 POP GT ISZERO DUP12 PUSH2 0xE44 JUMP JUMPDEST PUSH1 0xC8 SWAP2 POP GT ISZERO DUP12 PUSH2 0xE44 JUMP JUMPDEST PUSH2 0x1F4 SWAP2 POP GT ISZERO DUP12 PUSH2 0xE44 JUMP JUMPDEST PUSH1 0xA SWAP2 POP GT ISZERO DUP7 PUSH2 0xD43 JUMP JUMPDEST PUSH1 0x40 MLOAD PUSH3 0x461BCD PUSH1 0xE5 SHL DUP2 MSTORE PUSH1 0x20 PUSH1 0x4 DUP3 ADD MSTORE PUSH1 0xF PUSH1 0x24 DUP3 ADD MSTORE PUSH15 0x109BDD5B9D1E481C995C5D5A5C9959 PUSH1 0x8A SHL PUSH1 0x44 DUP3 ADD MSTORE PUSH1 0x64 SWAP1 REVERT JUMPDEST POP PUSH1 0x1 PUSH1 0x1 PUSH1 0x80 SHL SUB PUSH2 0x140 MLOAD AND ISZERO ISZERO PUSH2 0xC89 JUMP JUMPDEST POP PUSH1 0x1 PUSH1 0x1 PUSH1 0x80 SHL SUB PUSH2 0x180 MLOAD AND ISZERO ISZERO PUSH2 0xC82 JUMP JUMPDEST PUSH1 0x40 MLOAD PUSH3 0x461BCD PUSH1 0xE5 SHL DUP2 MSTORE PUSH1 0x20 PUSH1 0x4 DUP3 ADD MSTORE PUSH1 0x13 PUSH1 0x24 DUP3 ADD MSTORE PUSH19 0x472420626F756E747920746F6F206C61726765 PUSH1 0x68 SHL PUSH1 0x44 DUP3 ADD MSTORE PUSH1 0x64 SWAP1 REVERT JUMPDEST PUSH1 0x40 MLOAD PUSH3 0x461BCD PUSH1 0xE5 SHL DUP2 MSTORE PUSH1 0x20 PUSH1 0x4 DUP3 ADD MSTORE PUSH1 0x15 PUSH1 0x24 DUP3 ADD MSTORE PUSH21 0x6355534420626F756E747920746F6F206C61726765 PUSH1 0x58 SHL PUSH1 0x44 DUP3 ADD MSTORE PUSH1 0x64 SWAP1 REVERT JUMPDEST PUSH1 0x40 MLOAD PUSH3 0x461BCD PUSH1 0xE5 SHL DUP2 MSTORE PUSH1 0x20 PUSH1 0x4 DUP3 ADD MSTORE PUSH1 0x15 PUSH1 0x24 DUP3 ADD MSTORE PUSH21 0x43454C4F20626F756E747920746F6F206C61726765 PUSH1 0x58 SHL PUSH1 0x44 DUP3 ADD MSTORE PUSH1 0x64 SWAP1 REVERT JUMPDEST CALLVALUE PUSH2 0x14A JUMPI PUSH1 0x20 CALLDATASIZE PUSH1 0x3 NOT ADD SLT PUSH2 0x14A JUMPI PUSH1 0x4 CALLDATALOAD PUSH2 0x2383 PUSH1 0x1 SLOAD DUP3 LT PUSH2 0x3681 JUMP JUMPDEST PUSH1 0x1 PUSH1 0x0 SLOAD PUSH2 0x2395 PUSH1 0xFF DUP3 AND ISZERO PUSH2 0x36C2 JUMP JUMPDEST PUSH1 0xFF NOT AND OR PUSH1 0x0 SSTORE DUP1 PUSH1 0x0 MSTORE PUSH1 0x2 PUSH1 0x20 MSTORE PUSH1 0x40 PUSH1 0x0 KECCAK256 PUSH1 0xE DUP2 ADD SWAP1 PUSH1 0xFF DUP3 SLOAD PUSH1 0x80 SHR AND PUSH1 0x3 DUP2 LT ISZERO PUSH2 0x75A JUMPI PUSH2 0x23CB SWAP1 ISZERO PUSH2 0x394B JUMP JUMPDEST PUSH1 0x1 DUP2 ADD SLOAD PUSH1 0x1 PUSH1 0x1 PUSH1 0xA0 SHL SUB AND CALLER EQ PUSH2 0x2488 JUMPI PUSH1 0xF ADD DUP1 SLOAD PUSH1 0x1 PUSH1 0x1 PUSH1 0xA0 SHL SUB NOT AND CALLER OR SWAP1 SSTORE DUP1 SLOAD PUSH1 0xFF PUSH1 0x90 SHL NOT AND PUSH1 0x1 PUSH1 0x90 SHL OR DUP1 DUP3 SSTORE PUSH1 0x88 SHR PUSH1 0xFF AND PUSH2 0x244A JUMPI JUMPDEST POP PUSH1 0x40 MLOAD SWAP1 PUSH1 0x0 DUP3 MSTORE PUSH32 0xC7DB73A2D1DC7FD351B6549EFAD129BBF568E618DBBE683ABFA0D1550A96E5AE PUSH1 0x20 CALLER SWAP4 LOG3 PUSH1 0x0 DUP1 SLOAD PUSH1 0xFF NOT AND SWAP1 SSTORE STOP JUMPDEST DUP1 SLOAD PUSH1 0xFF PUSH1 0x80 SHL NOT AND PUSH1 0x1 PUSH1 0x80 SHL OR SWAP1 SSTORE CALLER DUP2 PUSH32 0x2C54217AED12A18C71E20E5A6A3F13F8CFDDBB2C3A0A5F409861478C7FD39E81 PUSH1 0x0 DUP1 LOG3 DUP2 PUSH2 0x240F JUMP JUMPDEST PUSH1 0x40 MLOAD PUSH3 0x461BCD PUSH1 0xE5 SHL DUP2 MSTORE PUSH1 0x20 PUSH1 0x4 DUP3 ADD MSTORE PUSH1 0x16 PUSH1 0x24 DUP3 ADD MSTORE PUSH22 0x27BBB732B91031B0B73737BA103132903334B73232B9 PUSH1 0x51 SHL PUSH1 0x44 DUP3 ADD MSTORE PUSH1 0x64 SWAP1 REVERT JUMPDEST CALLVALUE PUSH2 0x14A JUMPI PUSH1 0x40 CALLDATASIZE PUSH1 0x3 NOT ADD SLT PUSH2 0x14A JUMPI PUSH1 0x4 CALLDATALOAD PUSH1 0x24 CALLDATALOAD DUP2 ADD PUSH1 0x0 DUP2 DUP4 GT PUSH2 0x25D3 JUMPI DUP2 SWAP1 PUSH1 0x1 SLOAD DUP1 SWAP4 GT PUSH2 0x25CB JUMPI JUMPDEST DUP4 JUMPDEST DUP3 DUP2 LT PUSH2 0x2588 JUMPI POP PUSH2 0x2508 SWAP1 PUSH2 0x37B8 JUMP JUMPDEST SWAP2 PUSH1 0x0 SWAP4 JUMPDEST DUP3 DUP2 LT PUSH2 0x2539 JUMPI POP PUSH2 0x252E SWAP4 POP PUSH1 0x40 MLOAD SWAP4 DUP5 SWAP4 PUSH1 0x40 DUP6 MSTORE PUSH1 0x40 DUP6 ADD SWAP1 PUSH2 0x325A JUMP JUMPDEST SWAP2 LT PUSH1 0x20 DUP4 ADD MSTORE SUB SWAP1 RETURN JUMPDEST DUP1 PUSH1 0x0 MSTORE PUSH1 0x2 PUSH1 0x20 MSTORE PUSH1 0xFF PUSH1 0xE PUSH1 0x40 PUSH1 0x0 KECCAK256 ADD SLOAD PUSH1 0x80 SHR AND PUSH1 0x3 DUP2 LT ISZERO PUSH2 0x75A JUMPI ISZERO PUSH2 0x2568 JUMPI JUMPDEST PUSH1 0x1 ADD PUSH2 0x250D JUMP JUMPDEST SWAP4 PUSH2 0x2580 DUP2 DUP7 PUSH2 0x257A PUSH1 0x1 SWAP5 DUP9 PUSH2 0x38D9 JUMP JUMPDEST MSTORE PUSH2 0x3792 JUMP JUMPDEST SWAP5 SWAP1 POP PUSH2 0x2560 JUMP JUMPDEST DUP1 PUSH1 0x0 MSTORE PUSH1 0x2 PUSH1 0x20 MSTORE PUSH1 0xFF PUSH1 0xE PUSH1 0x40 PUSH1 0x0 KECCAK256 ADD SLOAD PUSH1 0x80 SHR AND PUSH1 0x3 DUP2 LT ISZERO PUSH2 0x75A JUMPI ISZERO PUSH2 0x25B7 JUMPI JUMPDEST PUSH1 0x1 ADD PUSH2 0x24F7 JUMP JUMPDEST SWAP1 PUSH2 0x25C3 PUSH1 0x1 SWAP2 PUSH2 0x3792 JUMP JUMPDEST SWAP2 SWAP1 POP PUSH2 0x25AF JUMP JUMPDEST DUP3 SWAP2 POP PUSH2 0x24F5 JUMP JUMPDEST PUSH4 0x4E487B71 PUSH1 0xE0 SHL PUSH1 0x0 MSTORE PUSH1 0x11 PUSH1 0x4 MSTORE PUSH1 0x24 PUSH1 0x0 REVERT JUMPDEST CALLVALUE PUSH2 0x14A JUMPI PUSH1 0x0 CALLDATASIZE PUSH1 0x3 NOT ADD SLT PUSH2 0x14A JUMPI PUSH1 0x20 PUSH1 0x40 MLOAD PUSH10 0x21E19E0C9BAB2400000 DUP2 MSTORE RETURN JUMPDEST CALLVALUE PUSH2 0x14A JUMPI PUSH1 0x0 CALLDATASIZE PUSH1 0x3 NOT ADD SLT PUSH2 0x14A JUMPI PUSH1 0x0 DUP1 PUSH1 0x1 SLOAD SWAP1 JUMPDEST DUP2 DUP2 LT PUSH2 0x2639 JUMPI PUSH1 0x20 DUP4 PUSH1 0x40 MLOAD SWAP1 DUP2 MSTORE RETURN JUMPDEST DUP1 PUSH1 0x0 MSTORE PUSH1 0x2 PUSH1 0x20 MSTORE PUSH1 0xFF PUSH1 0xE PUSH1 0x40 PUSH1 0x0 KECCAK256 ADD SLOAD PUSH1 0x80 SHR AND PUSH1 0x3 DUP2 LT ISZERO PUSH2 0x75A JUMPI ISZERO PUSH2 0x2668 JUMPI JUMPDEST PUSH1 0x1 ADD PUSH2 0x2627 JUMP JUMPDEST SWAP2 PUSH2 0x2674 PUSH1 0x1 SWAP2 PUSH2 0x3792 JUMP JUMPDEST SWAP3 SWAP1 POP PUSH2 0x2660 JUMP JUMPDEST CALLVALUE PUSH2 0x14A JUMPI PUSH1 0x20 CALLDATASIZE PUSH1 0x3 NOT ADD SLT PUSH2 0x14A JUMPI PUSH1 0x4 CALLDATALOAD PUSH1 0x1 PUSH1 0x1 PUSH1 0xA0 SHL SUB DUP2 AND SWAP1 DUP2 DUP2 SUB PUSH2 0x14A JUMPI PUSH1 0x0 SLOAD SWAP1 PUSH2 0x26BE CALLER PUSH1 0x8 DUP5 SWAP1 SHR PUSH1 0x1 PUSH1 0x1 PUSH1 0xA0 SHL SUB AND EQ PUSH2 0x3631 JUMP JUMPDEST DUP3 ISZERO PUSH2 0x270D JUMPI PUSH2 0x100 PUSH1 0x1 PUSH1 0xA8 SHL SUB NOT SWAP1 SWAP2 AND PUSH1 0x8 SWAP2 SWAP1 SWAP2 SHL PUSH2 0x100 PUSH1 0x1 PUSH1 0xA8 SHL SUB AND OR PUSH1 0x0 SWAP1 DUP2 SSTORE PUSH32 0x7CE7EC0B50378FB6C0186FFB5F48325F6593FCB4CA4386F21861AF3129188F5C SWAP1 DUP1 LOG2 STOP JUMPDEST PUSH1 0x40 MLOAD PUSH3 0x461BCD PUSH1 0xE5 SHL DUP2 MSTORE PUSH1 0x20 PUSH1 0x4 DUP3 ADD MSTORE PUSH1 0xF PUSH1 0x24 DUP3 ADD MSTORE PUSH15 0x496E76616C69642061646472657373 PUSH1 0x88 SHL PUSH1 0x44 DUP3 ADD MSTORE PUSH1 0x64 SWAP1 REVERT JUMPDEST CALLVALUE PUSH2 0x14A JUMPI PUSH1 0x20 CALLDATASIZE PUSH1 0x3 NOT ADD SLT PUSH2 0x14A JUMPI PUSH1 0x4 CALLDATALOAD DUP1 PUSH1 0x0 MSTORE PUSH1 0x2 PUSH1 0x20 MSTORE PUSH2 0x277C PUSH1 0x1 DUP1 PUSH1 0xA0 SHL SUB PUSH1 0x1 PUSH1 0x40 PUSH1 0x0 KECCAK256 ADD SLOAD AND CALLER EQ PUSH2 0x390F JUMP JUMPDEST PUSH1 0x1 PUSH1 0x0 SLOAD PUSH2 0x278E PUSH1 0xFF DUP3 AND ISZERO PUSH2 0x36C2 JUMP JUMPDEST PUSH1 0xFF NOT AND OR PUSH1 0x0 SSTORE DUP1 PUSH1 0x0 MSTORE PUSH1 0x2 PUSH1 0x20 MSTORE PUSH1 0x40 PUSH1 0x0 KECCAK256 PUSH1 0xE DUP2 ADD DUP1 SLOAD SWAP2 PUSH1 0xFF DUP4 PUSH1 0x80 SHR AND SWAP1 PUSH1 0x3 DUP3 LT ISZERO PUSH2 0x75A JUMPI PUSH2 0x27C8 PUSH1 0xF SWAP3 ISZERO PUSH2 0x394B JUMP JUMPDEST ADD DUP1 SLOAD SWAP1 SWAP3 SWAP1 PUSH1 0x1 PUSH1 0x1 PUSH1 0xA0 SHL SUB AND ISZERO PUSH2 0x287A JUMPI PUSH1 0xFF PUSH1 0x88 SHL NOT AND PUSH1 0x1 PUSH1 0x88 SHL OR DUP1 DUP3 SSTORE PUSH1 0x90 SHR PUSH1 0xFF AND PUSH2 0x2832 JUMPI JUMPDEST DUP3 PUSH1 0x40 MLOAD SWAP1 PUSH1 0x1 DUP3 MSTORE PUSH32 0xC7DB73A2D1DC7FD351B6549EFAD129BBF568E618DBBE683ABFA0D1550A96E5AE PUSH1 0x20 CALLER SWAP4 LOG3 PUSH1 0x0 DUP1 SLOAD PUSH1 0xFF NOT AND SWAP1 SSTORE STOP JUMPDEST DUP1 SLOAD PUSH1 0xFF PUSH1 0x80 SHL NOT AND PUSH1 0x1 PUSH1 0x80 SHL OR SWAP1 SSTORE SLOAD PUSH1 0x1 PUSH1 0x1 PUSH1 0xA0 SHL SUB AND DUP2 PUSH32 0x2C54217AED12A18C71E20E5A6A3F13F8CFDDBB2C3A0A5F409861478C7FD39E81 PUSH1 0x0 DUP1 LOG3 DUP2 DUP1 PUSH2 0x27F7 JUMP JUMPDEST PUSH1 0x40 MLOAD PUSH3 0x461BCD PUSH1 0xE5 SHL DUP2 MSTORE PUSH1 0x20 PUSH1 0x4 DUP3 ADD MSTORE PUSH1 0x12 PUSH1 0x24 DUP3 ADD MSTORE PUSH18 0x139BC8199A5B99195C88185CDCDA59DB9959 PUSH1 0x72 SHL PUSH1 0x44 DUP3 ADD MSTORE PUSH1 0x64 SWAP1 REVERT JUMPDEST CALLVALUE PUSH2 0x14A JUMPI PUSH1 0x0 CALLDATASIZE PUSH1 0x3 NOT ADD SLT PUSH2 0x14A JUMPI PUSH1 0x1 SLOAD PUSH2 0x28D1 DUP2 PUSH2 0x37EA JUMP JUMPDEST SWAP1 PUSH1 0x0 JUMPDEST DUP2 DUP2 LT PUSH2 0x28F6 JUMPI PUSH1 0x40 MLOAD PUSH1 0x20 DUP1 DUP3 MSTORE DUP2 SWAP1 PUSH2 0x28F2 SWAP1 DUP3 ADD DUP7 PUSH2 0x32E3 JUMP JUMPDEST SUB SWAP1 RETURN JUMPDEST DUP1 PUSH1 0x1 SWAP2 PUSH1 0x0 MSTORE PUSH1 0x2 PUSH1 0x20 MSTORE PUSH1 0x40 PUSH1 0x0 KECCAK256 PUSH1 0x40 MLOAD SWAP1 PUSH2 0x2914 DUP3 PUSH2 0x3550 JUMP JUMPDEST DUP1 SLOAD DUP3 MSTORE DUP4 DUP1 PUSH1 0xA0 SHL SUB DUP5 DUP3 ADD SLOAD AND PUSH1 0x20 DUP4 ADD MSTORE PUSH2 0x2934 PUSH1 0x2 DUP3 ADD PUSH2 0x358D JUMP JUMPDEST PUSH1 0x40 DUP4 ADD MSTORE PUSH2 0x2945 PUSH1 0x3 DUP3 ADD PUSH2 0x358D JUMP JUMPDEST PUSH1 0x60 DUP4 ADD MSTORE PUSH2 0x2956 PUSH1 0x4 DUP3 ADD PUSH2 0x358D JUMP JUMPDEST PUSH1 0x80 DUP4 ADD MSTORE PUSH1 0x5 DUP2 ADD SLOAD PUSH1 0x1 PUSH1 0x1 PUSH1 0x80 SHL SUB DUP2 AND PUSH1 0xA0 DUP5 ADD MSTORE PUSH1 0x80 SHR PUSH1 0xC0 DUP4 ADD MSTORE PUSH2 0x2983 PUSH1 0x6 DUP3 ADD PUSH2 0x358D JUMP JUMPDEST PUSH1 0xE0 DUP4 ADD MSTORE PUSH2 0x2994 PUSH1 0x7 DUP3 ADD PUSH2 0x358D JUMP JUMPDEST PUSH2 0x100 DUP4 ADD MSTORE PUSH2 0x29A6 PUSH1 0x8 DUP3 ADD PUSH2 0x358D JUMP JUMPDEST PUSH2 0x120 DUP4 ADD MSTORE PUSH2 0x29B8 PUSH1 0x9 DUP3 ADD PUSH2 0x358D JUMP JUMPDEST PUSH2 0x140 DUP4 ADD MSTORE PUSH2 0x29CA PUSH1 0xA DUP3 ADD PUSH2 0x358D JUMP JUMPDEST PUSH2 0x160 DUP4 ADD MSTORE PUSH2 0x29DC PUSH1 0xB DUP3 ADD PUSH2 0x358D JUMP JUMPDEST PUSH2 0x180 DUP4 ADD MSTORE PUSH2 0x29EE PUSH1 0xC DUP3 ADD PUSH2 0x358D JUMP JUMPDEST PUSH2 0x1A0 DUP4 ADD MSTORE PUSH1 0xD DUP2 ADD SLOAD PUSH1 0x1 PUSH1 0x1 PUSH1 0x80 SHL SUB DUP2 AND PUSH2 0x1C0 DUP5 ADD MSTORE PUSH1 0x80 SHR PUSH2 0x1E0 DUP4 ADD MSTORE PUSH1 0xFF PUSH1 0xE DUP3 ADD SLOAD PUSH1 0x1 PUSH1 0x1 PUSH1 0x80 SHL SUB DUP2 AND PUSH2 0x200 DUP6 ADD MSTORE PUSH2 0x2A3C DUP3 DUP3 PUSH1 0x80 SHR AND PUSH2 0x220 DUP7 ADD PUSH2 0x3903 JUMP JUMPDEST DUP2 DUP2 PUSH1 0x88 SHR AND ISZERO ISZERO PUSH2 0x240 DUP6 ADD MSTORE PUSH1 0x90 SHR AND ISZERO ISZERO PUSH2 0x260 DUP4 ADD MSTORE PUSH1 0xF DUP5 DUP1 PUSH1 0xA0 SHL SUB SWAP2 ADD SLOAD AND PUSH2 0x280 DUP3 ADD MSTORE PUSH2 0x2A72 DUP3 DUP7 PUSH2 0x38D9 JUMP JUMPDEST MSTORE PUSH2 0x2A7D DUP2 DUP6 PUSH2 0x38D9 JUMP JUMPDEST POP ADD PUSH2 0x28D5 JUMP JUMPDEST CALLVALUE PUSH2 0x14A JUMPI PUSH1 0x0 CALLDATASIZE PUSH1 0x3 NOT ADD SLT PUSH2 0x14A JUMPI PUSH1 0x1 SLOAD PUSH1 0x0 DUP1 JUMPDEST DUP3 DUP2 LT PUSH2 0x2CC0 JUMPI POP PUSH2 0x2AB6 PUSH2 0x2AB0 DUP3 PUSH2 0x37B8 JUMP JUMPDEST SWAP2 PUSH2 0x37EA JUMP JUMPDEST PUSH1 0x0 SWAP3 DUP4 JUMPDEST DUP2 DUP2 LT PUSH2 0x2AEC JUMPI PUSH2 0x2ADE DUP5 PUSH2 0x28F2 DUP6 PUSH1 0x40 MLOAD SWAP4 DUP5 SWAP4 PUSH1 0x40 DUP6 MSTORE PUSH1 0x40 DUP6 ADD SWAP1 PUSH2 0x325A JUMP JUMPDEST SWAP1 DUP4 DUP3 SUB PUSH1 0x20 DUP6 ADD MSTORE PUSH2 0x32E3 JUMP JUMPDEST DUP1 PUSH1 0x0 MSTORE PUSH1 0x2 PUSH1 0x20 MSTORE PUSH1 0xFF PUSH1 0xE PUSH1 0x40 PUSH1 0x0 KECCAK256 ADD SLOAD PUSH1 0x80 SHR AND PUSH1 0x3 DUP2 LT ISZERO PUSH2 0x75A JUMPI ISZERO PUSH2 0x2B1B JUMPI JUMPDEST PUSH1 0x1 ADD PUSH2 0x2ABB JUMP JUMPDEST SWAP4 PUSH2 0x2CB8 DUP2 DUP7 PUSH2 0x2B2D PUSH1 0x1 SWAP5 DUP9 PUSH2 0x38D9 JUMP JUMPDEST MSTORE DUP7 PUSH1 0x0 MSTORE PUSH1 0x2 PUSH1 0x20 MSTORE PUSH1 0x40 PUSH1 0x0 KECCAK256 PUSH1 0x40 MLOAD SWAP1 PUSH2 0x2B49 DUP3 PUSH2 0x3550 JUMP JUMPDEST DUP1 SLOAD DUP3 MSTORE DUP5 DUP1 PUSH1 0xA0 SHL SUB DUP6 DUP3 ADD SLOAD AND PUSH1 0x20 DUP4 ADD MSTORE PUSH2 0x2B69 PUSH1 0x2 DUP3 ADD PUSH2 0x358D JUMP JUMPDEST PUSH1 0x40 DUP4 ADD MSTORE PUSH2 0x2B7A PUSH1 0x3 DUP3 ADD PUSH2 0x358D JUMP JUMPDEST PUSH1 0x60 DUP4 ADD MSTORE PUSH2 0x2B8B PUSH1 0x4 DUP3 ADD PUSH2 0x358D JUMP JUMPDEST PUSH1 0x80 DUP4 ADD MSTORE PUSH1 0x5 DUP2 ADD SLOAD PUSH1 0x1 PUSH1 0x1 PUSH1 0x80 SHL SUB DUP2 AND PUSH1 0xA0 DUP5 ADD MSTORE PUSH1 0x80 SHR PUSH1 0xC0 DUP4 ADD MSTORE PUSH2 0x2BB8 PUSH1 0x6 DUP3 ADD PUSH2 0x358D JUMP JUMPDEST PUSH1 0xE0 DUP4 ADD MSTORE PUSH2 0x2BC9 PUSH1 0x7 DUP3 ADD PUSH2 0x358D JUMP JUMPDEST PUSH2 0x100 DUP4 ADD MSTORE PUSH2 0x2BDB PUSH1 0x8 DUP3 ADD PUSH2 0x358D JUMP JUMPDEST PUSH2 0x120 DUP4 ADD MSTORE PUSH2 0x2BED PUSH1 0x9 DUP3 ADD PUSH2 0x358D JUMP JUMPDEST PUSH2 0x140 DUP4 ADD MSTORE PUSH2 0x2BFF PUSH1 0xA DUP3 ADD PUSH2 0x358D JUMP JUMPDEST PUSH2 0x160 DUP4 ADD MSTORE PUSH2 0x2C11 PUSH1 0xB DUP3 ADD PUSH2 0x358D JUMP JUMPDEST PUSH2 0x180 DUP4 ADD MSTORE PUSH2 0x2C23 PUSH1 0xC DUP3 ADD PUSH2 0x358D JUMP JUMPDEST PUSH2 0x1A0 DUP4 ADD MSTORE PUSH1 0xD DUP2 ADD SLOAD PUSH1 0x1 PUSH1 0x1 PUSH1 0x80 SHL SUB DUP2 AND PUSH2 0x1C0 DUP5 ADD MSTORE PUSH1 0x80 SHR PUSH2 0x1E0 DUP4 ADD MSTORE PUSH1 0xFF PUSH1 0xE DUP3 ADD SLOAD PUSH1 0x1 PUSH1 0x1 PUSH1 0x80 SHL SUB DUP2 AND PUSH2 0x200 DUP6 ADD MSTORE PUSH2 0x2C71 DUP3 DUP3 PUSH1 0x80 SHR AND PUSH2 0x220 DUP7 ADD PUSH2 0x3903 JUMP JUMPDEST DUP2 DUP2 PUSH1 0x88 SHR AND ISZERO ISZERO PUSH2 0x240 DUP6 ADD MSTORE PUSH1 0x90 SHR AND ISZERO ISZERO PUSH2 0x260 DUP4 ADD MSTORE PUSH1 0xF DUP6 DUP1 PUSH1 0xA0 SHL SUB SWAP2 ADD SLOAD AND PUSH2 0x280 DUP3 ADD MSTORE PUSH2 0x2CA7 DUP3 DUP8 PUSH2 0x38D9 JUMP JUMPDEST MSTORE PUSH2 0x2CB2 DUP2 DUP7 PUSH2 0x38D9 JUMP JUMPDEST POP PUSH2 0x3792 JUMP JUMPDEST SWAP5 SWAP1 POP PUSH2 0x2B13 JUMP JUMPDEST DUP1 PUSH1 0x0 MSTORE PUSH1 0x2 PUSH1 0x20 MSTORE PUSH1 0xFF PUSH1 0xE PUSH1 0x40 PUSH1 0x0 KECCAK256 ADD SLOAD PUSH1 0x80 SHR AND PUSH1 0x3 DUP2 LT ISZERO PUSH2 0x75A JUMPI ISZERO PUSH2 0x2CEF JUMPI JUMPDEST PUSH1 0x1 ADD PUSH2 0x2A9C JUMP JUMPDEST SWAP1 PUSH2 0x2CFB PUSH1 0x1 SWAP2 PUSH2 0x3792 JUMP JUMPDEST SWAP2 SWAP1 POP PUSH2 0x2CE7 JUMP JUMPDEST CALLVALUE PUSH2 0x14A JUMPI PUSH1 0x0 CALLDATASIZE PUSH1 0x3 NOT ADD SLT PUSH2 0x14A JUMPI PUSH1 0x20 PUSH1 0x40 MLOAD PUSH20 0x765DE816845861E75A25FCA122BB6898B8B1282A DUP2 MSTORE RETURN JUMPDEST CALLVALUE PUSH2 0x14A JUMPI PUSH1 0x20 CALLDATASIZE PUSH1 0x3 NOT ADD SLT PUSH2 0x14A JUMPI PUSH1 0x4 CALLDATALOAD PUSH2 0x2D53 PUSH1 0x1 SLOAD DUP3 LT PUSH2 0x3681 JUMP JUMPDEST PUSH1 0x1 PUSH1 0x0 SLOAD PUSH2 0x2D65 PUSH1 0xFF DUP3 AND ISZERO PUSH2 0x36C2 JUMP JUMPDEST PUSH1 0xFF NOT AND OR PUSH1 0x0 SSTORE DUP1 PUSH1 0x0 MSTORE PUSH1 0x2 PUSH1 0x20 MSTORE PUSH1 0x40 PUSH1 0x0 KECCAK256 SWAP1 PUSH1 0xE DUP3 ADD SWAP2 DUP3 SLOAD SWAP1 PUSH1 0xFF DUP3 PUSH1 0x80 SHR AND PUSH1 0x3 DUP2 LT ISZERO PUSH2 0x75A JUMPI PUSH1 0x1 SUB PUSH2 0x3035 JUMPI PUSH1 0xF DUP2 ADD SLOAD PUSH1 0x1 PUSH1 0x1 PUSH1 0xA0 SHL SUB AND CALLER SUB PUSH2 0x3003 JUMPI PUSH1 0xD ADD DUP1 SLOAD PUSH1 0x1 PUSH1 0x1 PUSH1 0x80 SHL SUB DUP2 AND SWAP5 DUP6 ISZERO DUP1 SWAP2 DUP2 ISZERO DUP1 SWAP3 PUSH2 0x2FF7 JUMPI JUMPDEST DUP1 ISZERO PUSH2 0x2FE5 JUMPI JUMPDEST ISZERO PUSH2 0x2FB4 JUMPI PUSH1 0x0 SWAP5 DUP6 SWAP1 SSTORE DUP1 SLOAD PUSH1 0x1 PUSH1 0x1 PUSH1 0x80 SHL SUB NOT AND SWAP1 SSTORE DUP6 DUP5 MSTORE PUSH1 0x3 PUSH1 0x20 SWAP1 DUP2 MSTORE PUSH1 0x40 DUP1 DUP7 KECCAK256 DUP7 SWAP1 SSTORE PUSH1 0x4 SWAP1 SWAP2 MSTORE DUP5 KECCAK256 SWAP4 SWAP1 SWAP4 SSTORE PUSH1 0x80 SWAP2 SWAP1 SWAP2 SHR SWAP3 PUSH1 0x1 PUSH1 0x1 PUSH1 0x80 SHL SUB AND SWAP2 DUP6 SWAP2 SWAP1 PUSH2 0x2F8D JUMPI JUMPDEST POP POP DUP2 PUSH2 0x2F18 JUMPI JUMPDEST DUP1 PUSH2 0x2E71 JUMPI JUMPDEST PUSH1 0x40 DUP1 MLOAD SWAP5 DUP6 MSTORE PUSH1 0x20 DUP6 ADD SWAP3 SWAP1 SWAP3 MSTORE SWAP1 DUP4 ADD MSTORE CALLER SWAP2 PUSH32 0xAF63EFACF28433915EA2D25F6E48EB87264E585BEBEF968BCD127A52608ADEC SWAP1 DUP1 PUSH1 0x60 DUP2 ADD PUSH2 0x579 JUMP JUMPDEST PUSH1 0x40 MLOAD SWAP2 PUSH4 0x2000575 PUSH1 0xE5 SHL DUP4 MSTORE CALLER PUSH1 0x4 DUP5 ADD MSTORE DUP2 PUSH1 0x24 DUP5 ADD MSTORE PUSH1 0x60 PUSH1 0x44 DUP5 ADD MSTORE PUSH1 0x0 PUSH1 0x64 DUP5 ADD MSTORE PUSH1 0x20 DUP4 PUSH1 0x84 DUP2 PUSH1 0x0 PUSH20 0x62B8B11039FCFE5AB0C56E502B1C372A3D2A9C7A GAS CALL SWAP3 DUP4 ISZERO PUSH2 0x63C JUMPI PUSH32 0xAF63EFACF28433915EA2D25F6E48EB87264E585BEBEF968BCD127A52608ADEC SWAP4 PUSH2 0x2EF2 SWAP2 PUSH1 0x0 SWAP2 PUSH2 0x2EF9 JUMPI POP PUSH2 0x3751 JUMP JUMPDEST SWAP2 POP PUSH2 0x2E30 JUMP JUMPDEST PUSH2 0x2F12 SWAP2 POP PUSH1 0x20 RETURNDATASIZE PUSH1 0x20 GT PUSH2 0x635 JUMPI PUSH2 0x627 DUP2 DUP4 PUSH2 0x356C JUMP JUMPDEST DUP8 PUSH2 0x20F5 JUMP JUMPDEST PUSH1 0x40 MLOAD PUSH4 0xA9059CBB PUSH1 0xE0 SHL DUP2 MSTORE CALLER PUSH1 0x4 DUP3 ADD MSTORE PUSH1 0x24 DUP2 ADD DUP4 SWAP1 MSTORE PUSH1 0x20 DUP2 PUSH1 0x44 DUP2 PUSH1 0x0 PUSH20 0x765DE816845861E75A25FCA122BB6898B8B1282A GAS CALL DUP1 ISZERO PUSH2 0x63C JUMPI PUSH2 0x2F69 SWAP2 PUSH1 0x0 SWAP2 PUSH2 0x2F6E JUMPI JUMPDEST POP PUSH2 0x370E JUMP JUMPDEST PUSH2 0x2E2A JUMP JUMPDEST PUSH2 0x2F87 SWAP2 POP PUSH1 0x20 RETURNDATASIZE PUSH1 0x20 GT PUSH2 0x635 JUMPI PUSH2 0x627 DUP2 DUP4 PUSH2 0x356C JUMP JUMPDEST DUP7 PUSH2 0x2F63 JUMP JUMPDEST PUSH1 0x0 SWAP1 PUSH2 0x2FAB JUMPI JUMPDEST PUSH1 0x0 DUP1 DUP1 SWAP4 DUP2 SWAP4 CALLER SWAP1 CALL ISZERO PUSH2 0x63C JUMPI DUP4 DUP6 PUSH2 0x2E22 JUMP JUMPDEST POP PUSH2 0x8FC PUSH2 0x2F95 JUMP JUMPDEST PUSH1 0x40 MLOAD PUSH3 0x461BCD PUSH1 0xE5 SHL DUP2 MSTORE PUSH1 0x20 PUSH1 0x4 DUP3 ADD MSTORE PUSH1 0x9 PUSH1 0x24 DUP3 ADD MSTORE PUSH9 0x4E6F20626F756E7479 PUSH1 0xB8 SHL PUSH1 0x44 DUP3 ADD MSTORE PUSH1 0x64 SWAP1 REVERT JUMPDEST POP PUSH1 0x1 PUSH1 0x1 PUSH1 0x80 SHL SUB DUP7 AND ISZERO ISZERO PUSH2 0x2DD3 JUMP JUMPDEST POP DUP4 PUSH1 0x80 SHR ISZERO ISZERO PUSH2 0x2DCC JUMP JUMPDEST PUSH1 0x40 MLOAD PUSH3 0x461BCD PUSH1 0xE5 SHL DUP2 MSTORE PUSH1 0x20 PUSH1 0x4 DUP3 ADD MSTORE PUSH1 0xA PUSH1 0x24 DUP3 ADD MSTORE PUSH10 0x2737BA103334B73232B9 PUSH1 0xB1 SHL PUSH1 0x44 DUP3 ADD MSTORE PUSH1 0x64 SWAP1 REVERT JUMPDEST PUSH1 0x40 MLOAD PUSH3 0x461BCD PUSH1 0xE5 SHL DUP2 MSTORE PUSH1 0x20 PUSH1 0x4 DUP3 ADD MSTORE PUSH1 0x11 PUSH1 0x24 DUP3 ADD MSTORE PUSH17 0x14195D081B9BDD08199BDD5B99081E595D PUSH1 0x7A SHL PUSH1 0x44 DUP3 ADD MSTORE PUSH1 0x64 SWAP1 REVERT JUMPDEST CALLVALUE PUSH2 0x14A JUMPI PUSH1 0x0 CALLDATASIZE PUSH1 0x3 NOT ADD SLT PUSH2 0x14A JUMPI PUSH1 0x20 PUSH1 0x1 SLOAD PUSH1 0x40 MLOAD SWAP1 DUP2 MSTORE RETURN JUMPDEST CALLVALUE PUSH2 0x14A JUMPI PUSH1 0x0 CALLDATASIZE PUSH1 0x3 NOT ADD SLT PUSH2 0x14A JUMPI PUSH1 0x20 PUSH1 0x40 MLOAD PUSH8 0x8AC7230489E80000 DUP2 MSTORE RETURN JUMPDEST CALLVALUE PUSH2 0x14A JUMPI PUSH1 0x20 CALLDATASIZE PUSH1 0x3 NOT ADD SLT PUSH2 0x14A JUMPI PUSH1 0x4 CALLDATALOAD PUSH1 0x1 PUSH1 0x1 PUSH1 0xA0 SHL SUB DUP2 AND DUP2 SUB PUSH2 0x14A JUMPI PUSH2 0x30EB PUSH1 0x1 DUP1 PUSH1 0xA0 SHL SUB PUSH1 0x0 SLOAD PUSH1 0x8 SHR AND CALLER EQ PUSH2 0x3631 JUMP JUMPDEST PUSH1 0x40 MLOAD PUSH4 0x70A08231 PUSH1 0xE0 SHL DUP2 MSTORE ADDRESS PUSH1 0x4 DUP3 ADD MSTORE PUSH1 0x20 DUP2 PUSH1 0x24 DUP2 PUSH20 0x765DE816845861E75A25FCA122BB6898B8B1282A GAS STATICCALL SWAP1 DUP2 ISZERO PUSH2 0x63C JUMPI PUSH1 0x0 SWAP2 PUSH2 0x31DE JUMPI JUMPDEST POP PUSH1 0x40 MLOAD PUSH4 0xA9059CBB PUSH1 0xE0 SHL DUP2 MSTORE PUSH1 0x1 PUSH1 0x1 PUSH1 0xA0 SHL SUB SWAP1 SWAP3 AND PUSH1 0x4 DUP4 ADD MSTORE PUSH1 0x24 DUP3 ADD MSTORE PUSH1 0x20 DUP2 DUP1 PUSH1 0x44 DUP2 ADD JUMPDEST SUB DUP2 PUSH1 0x0 PUSH20 0x765DE816845861E75A25FCA122BB6898B8B1282A GAS CALL SWAP1 DUP2 ISZERO PUSH2 0x63C JUMPI PUSH1 0x0 SWAP2 PUSH2 0x31BF JUMPI JUMPDEST POP ISZERO PUSH2 0x3188 JUMPI STOP JUMPDEST PUSH1 0x40 MLOAD PUSH3 0x461BCD PUSH1 0xE5 SHL DUP2 MSTORE PUSH1 0x20 PUSH1 0x4 DUP3 ADD MSTORE PUSH1 0xF PUSH1 0x24 DUP3 ADD MSTORE PUSH15 0x151C985B9CD9995C8819985A5B1959 PUSH1 0x8A SHL PUSH1 0x44 DUP3 ADD MSTORE PUSH1 0x64 SWAP1 REVERT JUMPDEST PUSH2 0x31D8 SWAP2 POP PUSH1 0x20 RETURNDATASIZE PUSH1 0x20 GT PUSH2 0x635 JUMPI PUSH2 0x627 DUP2 DUP4 PUSH2 0x356C JUMP JUMPDEST DUP2 PUSH2 0x3180 JUMP JUMPDEST SWAP1 POP PUSH1 0x20 DUP2 RETURNDATASIZE PUSH1 0x20 GT PUSH2 0x320A JUMPI JUMPDEST DUP2 PUSH2 0x31F9 PUSH1 0x20 SWAP4 DUP4 PUSH2 0x356C JUMP JUMPDEST DUP2 ADD SUB SLT PUSH2 0x14A JUMPI MLOAD PUSH2 0x3156 PUSH2 0x312A JUMP JUMPDEST RETURNDATASIZE SWAP2 POP PUSH2 0x31EC JUMP JUMPDEST CALLVALUE PUSH2 0x14A JUMPI PUSH1 0x20 CALLDATASIZE PUSH1 0x3 NOT ADD SLT PUSH2 0x14A JUMPI PUSH1 0x4 CALLDATALOAD PUSH1 0x0 MSTORE PUSH1 0x3 PUSH1 0x20 MSTORE PUSH1 0x20 PUSH1 0x40 PUSH1 0x0 KECCAK256 SLOAD PUSH1 0x40 MLOAD SWAP1 DUP2 MSTORE RETURN JUMPDEST CALLVALUE PUSH2 0x14A JUMPI PUSH1 0x0 CALLDATASIZE PUSH1 0x3 NOT ADD SLT PUSH2 0x14A JUMPI DUP1 PUSH3 0x76A700 PUSH1 0x20 SWAP3 MSTORE RETURN JUMPDEST SWAP1 PUSH1 0x20 DUP1 DUP4 MLOAD SWAP3 DUP4 DUP2 MSTORE ADD SWAP3 ADD SWAP1 PUSH1 0x0 JUMPDEST DUP2 DUP2 LT PUSH2 0x3278 JUMPI POP POP POP SWAP1 JUMP JUMPDEST DUP3 MLOAD DUP5 MSTORE PUSH1 0x20 SWAP4 DUP5 ADD SWAP4 SWAP1 SWAP3 ADD SWAP2 PUSH1 0x1 ADD PUSH2 0x326B JUMP JUMPDEST PUSH1 0x0 JUMPDEST DUP4 DUP2 LT PUSH2 0x32A1 JUMPI POP POP PUSH1 0x0 SWAP2 ADD MSTORE JUMP JUMPDEST DUP2 DUP2 ADD MLOAD DUP4 DUP3 ADD MSTORE PUSH1 0x20 ADD PUSH2 0x3291 JUMP JUMPDEST SWAP1 PUSH1 0x20 SWAP2 PUSH2 0x32CA DUP2 MLOAD DUP1 SWAP3 DUP2 DUP6 MSTORE DUP6 DUP1 DUP7 ADD SWAP2 ADD PUSH2 0x328E JUMP JUMPDEST PUSH1 0x1F ADD PUSH1 0x1F NOT AND ADD ADD SWAP1 JUMP JUMPDEST SWAP1 PUSH1 0x3 DUP3 LT ISZERO PUSH2 0x75A JUMPI MSTORE JUMP JUMPDEST SWAP1 DUP1 PUSH1 0x20 DUP4 MLOAD SWAP2 DUP3 DUP2 MSTORE ADD SWAP2 PUSH1 0x20 DUP1 DUP4 PUSH1 0x5 SHL DUP4 ADD ADD SWAP5 ADD SWAP3 PUSH1 0x0 SWAP2 JUMPDEST DUP4 DUP4 LT PUSH2 0x330F JUMPI POP POP POP POP POP SWAP1 JUMP JUMPDEST SWAP1 SWAP2 SWAP3 SWAP4 SWAP5 PUSH1 0x1F NOT DUP3 DUP3 SUB ADD DUP4 MSTORE DUP6 MLOAD SWAP1 DUP2 MLOAD DUP2 MSTORE PUSH1 0x1 PUSH1 0xA0 SHL PUSH1 0x1 SWAP1 SUB PUSH1 0x20 DUP4 ADD MLOAD AND PUSH1 0x20 DUP3 ADD MSTORE PUSH1 0x40 DUP3 ADD MLOAD PUSH1 0x40 DUP3 ADD PUSH2 0x2A0 SWAP1 MSTORE PUSH2 0x2A0 DUP3 ADD PUSH2 0x3354 SWAP2 PUSH2 0x32B1 JUMP JUMPDEST PUSH1 0x60 DUP4 ADD MLOAD SWAP1 DUP3 DUP2 SUB PUSH1 0x60 DUP5 ADD MSTORE PUSH2 0x336B SWAP2 PUSH2 0x32B1 JUMP JUMPDEST PUSH1 0x80 DUP4 ADD MLOAD SWAP1 DUP3 DUP2 SUB PUSH1 0x80 DUP5 ADD MSTORE PUSH2 0x3382 SWAP2 PUSH2 0x32B1 JUMP JUMPDEST PUSH1 0xA0 DUP4 ADD MLOAD PUSH1 0x1 PUSH1 0x1 PUSH1 0x80 SHL SUB AND PUSH1 0xA0 DUP4 ADD MSTORE PUSH1 0xC0 DUP4 ADD MLOAD PUSH1 0x1 PUSH1 0x1 PUSH1 0x80 SHL SUB AND PUSH1 0xC0 DUP4 ADD MSTORE PUSH1 0xE0 DUP4 ADD MLOAD SWAP1 DUP3 DUP2 SUB PUSH1 0xE0 DUP5 ADD MSTORE PUSH2 0x33BF SWAP2 PUSH2 0x32B1 JUMP JUMPDEST PUSH2 0x100 DUP4 ADD MLOAD SWAP1 DUP3 DUP2 SUB PUSH2 0x100 DUP5 ADD MSTORE PUSH2 0x33D8 SWAP2 PUSH2 0x32B1 JUMP JUMPDEST PUSH2 0x120 DUP4 ADD MLOAD SWAP1 DUP3 DUP2 SUB PUSH2 0x120 DUP5 ADD MSTORE PUSH2 0x33F1 SWAP2 PUSH2 0x32B1 JUMP JUMPDEST PUSH2 0x140 DUP4 ADD MLOAD SWAP1 DUP3 DUP2 SUB PUSH2 0x140 DUP5 ADD MSTORE PUSH2 0x340A SWAP2 PUSH2 0x32B1 JUMP JUMPDEST PUSH2 0x160 DUP4 ADD MLOAD SWAP1 DUP3 DUP2 SUB PUSH2 0x160 DUP5 ADD MSTORE PUSH2 0x3423 SWAP2 PUSH2 0x32B1 JUMP JUMPDEST PUSH2 0x180 DUP4 ADD MLOAD SWAP1 DUP3 DUP2 SUB PUSH2 0x180 DUP5 ADD MSTORE PUSH2 0x343C SWAP2 PUSH2 0x32B1 JUMP JUMPDEST PUSH2 0x1A0 DUP4 ADD MLOAD SWAP1 DUP3 DUP2 SUB PUSH2 0x1A0 DUP5 ADD MSTORE PUSH2 0x3455 SWAP2 PUSH2 0x32B1 JUMP JUMPDEST SWAP2 PUSH2 0x1C0 DUP2 ADD MLOAD PUSH1 0x1 PUSH1 0x1 PUSH1 0x80 SHL SUB AND PUSH2 0x1C0 DUP4 ADD MSTORE PUSH2 0x1E0 DUP2 ADD MLOAD PUSH1 0x1 PUSH1 0x1 PUSH1 0x80 SHL SUB AND PUSH2 0x1E0 DUP4 ADD MSTORE PUSH2 0x200 DUP2 ADD MLOAD PUSH1 0x1 PUSH1 0x1 PUSH1 0x80 SHL SUB AND PUSH2 0x200 DUP4 ADD MSTORE PUSH2 0x220 DUP2 ADD MLOAD PUSH2 0x220 DUP4 ADD PUSH2 0x34A9 SWAP2 PUSH2 0x32D6 JUMP JUMPDEST PUSH2 0x240 DUP2 DUP2 ADD MLOAD ISZERO ISZERO SWAP1 DUP4 ADD MSTORE PUSH2 0x260 DUP1 DUP3 ADD MLOAD ISZERO ISZERO SWAP1 DUP4 ADD MSTORE PUSH2 0x280 SWAP1 DUP2 ADD MLOAD PUSH1 0x1 PUSH1 0x1 PUSH1 0xA0 SHL SUB AND SWAP2 ADD MSTORE SWAP5 PUSH1 0x20 SWAP1 DUP2 ADD SWAP5 SWAP4 PUSH1 0x1 ADD SWAP3 ADD SWAP1 PUSH2 0x3300 JUMP JUMPDEST SWAP2 DUP2 PUSH1 0x1F DUP5 ADD SLT ISZERO PUSH2 0x14A JUMPI DUP3 CALLDATALOAD SWAP2 PUSH1 0x1 PUSH1 0x1 PUSH1 0x40 SHL SUB DUP4 GT PUSH2 0x14A JUMPI PUSH1 0x20 DUP4 DUP2 DUP7 ADD SWAP6 ADD ADD GT PUSH2 0x14A JUMPI JUMP JUMPDEST SWAP1 PUSH1 0x1 DUP3 DUP2 SHR SWAP3 AND DUP1 ISZERO PUSH2 0x3546 JUMPI JUMPDEST PUSH1 0x20 DUP4 LT EQ PUSH2 0x3530 JUMPI JUMP JUMPDEST PUSH4 0x4E487B71 PUSH1 0xE0 SHL PUSH1 0x0 MSTORE PUSH1 0x22 PUSH1 0x4 MSTORE PUSH1 0x24 PUSH1 0x0 REVERT JUMPDEST SWAP2 PUSH1 0x7F AND SWAP2 PUSH2 0x3525 JUMP JUMPDEST PUSH2 0x2A0 DUP2 ADD SWAP1 DUP2 LT PUSH1 0x1 PUSH1 0x1 PUSH1 0x40 SHL SUB DUP3 GT OR PUSH2 0x18E3 JUMPI PUSH1 0x40 MSTORE JUMP JUMPDEST SWAP1 PUSH1 0x1F DUP1 NOT SWAP2 ADD AND DUP2 ADD SWAP1 DUP2 LT PUSH1 0x1 PUSH1 0x1 PUSH1 0x40 SHL SUB DUP3 GT OR PUSH2 0x18E3 JUMPI PUSH1 0x40 MSTORE JUMP JUMPDEST SWAP1 PUSH1 0x40 MLOAD SWAP2 DUP3 PUSH1 0x0 DUP3 SLOAD SWAP3 PUSH2 0x35A1 DUP5 PUSH2 0x3516 JUMP JUMPDEST DUP1 DUP5 MSTORE SWAP4 PUSH1 0x1 DUP2 AND SWAP1 DUP2 ISZERO PUSH2 0x360F JUMPI POP PUSH1 0x1 EQ PUSH2 0x35C8 JUMPI JUMPDEST POP PUSH2 0x35C6 SWAP3 POP SUB DUP4 PUSH2 0x356C JUMP JUMPDEST JUMP JUMPDEST SWAP1 POP PUSH1 0x0 SWAP3 SWAP2 SWAP3 MSTORE PUSH1 0x20 PUSH1 0x0 KECCAK256 SWAP1 PUSH1 0x0 SWAP2 JUMPDEST DUP2 DUP4 LT PUSH2 0x35F3 JUMPI POP POP SWAP1 PUSH1 0x20 PUSH2 0x35C6 SWAP3 DUP3 ADD ADD CODESIZE PUSH2 0x35B9 JUMP JUMPDEST PUSH1 0x20 SWAP2 SWAP4 POP DUP1 PUSH1 0x1 SWAP2 SLOAD DUP4 DUP6 DUP10 ADD ADD MSTORE ADD SWAP2 ADD SWAP1 SWAP2 DUP5 SWAP3 PUSH2 0x35DA JUMP JUMPDEST SWAP1 POP PUSH1 0x20 SWAP3 POP PUSH2 0x35C6 SWAP5 SWAP2 POP PUSH1 0xFF NOT AND DUP3 DUP5 ADD MSTORE ISZERO ISZERO PUSH1 0x5 SHL DUP3 ADD ADD CODESIZE PUSH2 0x35B9 JUMP JUMPDEST ISZERO PUSH2 0x3638 JUMPI JUMP JUMPDEST PUSH1 0x40 MLOAD PUSH3 0x461BCD PUSH1 0xE5 SHL DUP2 MSTORE PUSH1 0x20 PUSH1 0x4 DUP3 ADD MSTORE PUSH1 0x9 PUSH1 0x24 DUP3 ADD MSTORE PUSH9 0x2737BA1030B236B4B7 PUSH1 0xB9 SHL PUSH1 0x44 DUP3 ADD MSTORE PUSH1 0x64 SWAP1 REVERT JUMPDEST SWAP1 DUP2 PUSH1 0x20 SWAP2 SUB SLT PUSH2 0x14A JUMPI MLOAD DUP1 ISZERO ISZERO DUP2 SUB PUSH2 0x14A JUMPI SWAP1 JUMP JUMPDEST ISZERO PUSH2 0x3688 JUMPI JUMP JUMPDEST PUSH1 0x40 MLOAD PUSH3 0x461BCD PUSH1 0xE5 SHL DUP2 MSTORE PUSH1 0x20 PUSH1 0x4 DUP3 ADD MSTORE PUSH1 0x12 PUSH1 0x24 DUP3 ADD MSTORE PUSH18 0x14195D08191BD95CC81B9BDD08195E1A5CDD PUSH1 0x72 SHL PUSH1 0x44 DUP3 ADD MSTORE PUSH1 0x64 SWAP1 REVERT JUMPDEST ISZERO PUSH2 0x36C9 JUMPI JUMP JUMPDEST PUSH1 0x40 MLOAD PUSH3 0x461BCD PUSH1 0xE5 SHL DUP2 MSTORE PUSH1 0x20 PUSH1 0x4 DUP3 ADD MSTORE PUSH1 0x1F PUSH1 0x24 DUP3 ADD MSTORE PUSH32 0x5265656E7472616E637947756172643A207265656E7472616E742063616C6C00 PUSH1 0x44 DUP3 ADD MSTORE PUSH1 0x64 SWAP1 REVERT JUMPDEST ISZERO PUSH2 0x3715 JUMPI JUMP JUMPDEST PUSH1 0x40 MLOAD PUSH3 0x461BCD PUSH1 0xE5 SHL DUP2 MSTORE PUSH1 0x20 PUSH1 0x4 DUP3 ADD MSTORE PUSH1 0x14 PUSH1 0x24 DUP3 ADD MSTORE PUSH20 0x18D554D1081D1C985B9CD9995C8819985A5B1959 PUSH1 0x62 SHL PUSH1 0x44 DUP3 ADD MSTORE PUSH1 0x64 SWAP1 REVERT JUMPDEST ISZERO PUSH2 0x3758 JUMPI JUMP JUMPDEST PUSH1 0x40 MLOAD PUSH3 0x461BCD PUSH1 0xE5 SHL DUP2 MSTORE PUSH1 0x20 PUSH1 0x4 DUP3 ADD MSTORE PUSH1 0x12 PUSH1 0x24 DUP3 ADD MSTORE PUSH18 0x11C9081D1C985B9CD9995C8819985A5B1959 PUSH1 0x72 SHL PUSH1 0x44 DUP3 ADD MSTORE PUSH1 0x64 SWAP1 REVERT JUMPDEST PUSH1 0x0 NOT DUP2 EQ PUSH2 0x25D3 JUMPI PUSH1 0x1 ADD SWAP1 JUMP JUMPDEST PUSH1 0x1 PUSH1 0x1 PUSH1 0x40 SHL SUB DUP2 GT PUSH2 0x18E3 JUMPI PUSH1 0x5 SHL PUSH1 0x20 ADD SWAP1 JUMP JUMPDEST SWAP1 PUSH2 0x37C2 DUP3 PUSH2 0x37A1 JUMP JUMPDEST PUSH2 0x37CF PUSH1 0x40 MLOAD SWAP2 DUP3 PUSH2 0x356C JUMP JUMPDEST DUP3 DUP2 MSTORE DUP1 SWAP3 PUSH2 0x37E0 PUSH1 0x1F NOT SWAP2 PUSH2 0x37A1 JUMP JUMPDEST ADD SWAP1 PUSH1 0x20 CALLDATASIZE SWAP2 ADD CALLDATACOPY JUMP JUMPDEST SWAP1 PUSH2 0x37F4 DUP3 PUSH2 0x37A1 JUMP JUMPDEST PUSH2 0x3801 PUSH1 0x40 MLOAD SWAP2 DUP3 PUSH2 0x356C JUMP JUMPDEST DUP3 DUP2 MSTORE DUP1 SWAP3 PUSH2 0x3812 PUSH1 0x1F NOT SWAP2 PUSH2 0x37A1 JUMP JUMPDEST ADD SWAP1 PUSH1 0x0 JUMPDEST DUP3 DUP2 LT PUSH2 0x3823 JUMPI POP POP POP JUMP JUMPDEST PUSH1 0x20 SWAP1 PUSH1 0x40 MLOAD PUSH2 0x3832 DUP2 PUSH2 0x3550 JUMP JUMPDEST PUSH1 0x0 DUP2 MSTORE PUSH1 0x0 DUP4 DUP3 ADD MSTORE PUSH1 0x60 PUSH1 0x40 DUP3 ADD MSTORE PUSH1 0x60 DUP1 DUP3 ADD MSTORE PUSH1 0x60 PUSH1 0x80 DUP3 ADD MSTORE PUSH1 0x0 PUSH1 0xA0 DUP3 ADD MSTORE PUSH1 0x0 PUSH1 0xC0 DUP3 ADD MSTORE PUSH1 0x60 PUSH1 0xE0 DUP3 ADD MSTORE PUSH1 0x60 PUSH2 0x100 DUP3 ADD MSTORE PUSH1 0x60 PUSH2 0x120 DUP3 ADD MSTORE PUSH1 0x60 PUSH2 0x140 DUP3 ADD MSTORE PUSH1 0x60 PUSH2 0x160 DUP3 ADD MSTORE PUSH1 0x60 PUSH2 0x180 DUP3 ADD MSTORE PUSH1 0x60 PUSH2 0x1A0 DUP3 ADD MSTORE PUSH1 0x0 PUSH2 0x1C0 DUP3 ADD MSTORE PUSH1 0x0 PUSH2 0x1E0 DUP3 ADD MSTORE PUSH1 0x0 PUSH2 0x200 DUP3 ADD MSTORE PUSH1 0x0 PUSH2 0x220 DUP3 ADD MSTORE PUSH1 0x0 PUSH2 0x240 DUP3 ADD MSTORE PUSH1 0x0 PUSH2 0x260 DUP3 ADD MSTORE PUSH1 0x0 PUSH2 0x280 DUP3 ADD MSTORE DUP3 DUP3 DUP6 ADD ADD MSTORE ADD PUSH2 0x3817 JUMP JUMPDEST DUP1 MLOAD DUP3 LT ISZERO PUSH2 0x38ED JUMPI PUSH1 0x20 SWAP2 PUSH1 0x5 SHL ADD ADD SWAP1 JUMP JUMPDEST PUSH4 0x4E487B71 PUSH1 0xE0 SHL PUSH1 0x0 MSTORE PUSH1 0x32 PUSH1 0x4 MSTORE PUSH1 0x24 PUSH1 0x0 REVERT JUMPDEST PUSH1 0x3 DUP3 LT ISZERO PUSH2 0x75A JUMPI MSTORE JUMP JUMPDEST ISZERO PUSH2 0x3916 JUMPI JUMP JUMPDEST PUSH1 0x40 MLOAD PUSH3 0x461BCD PUSH1 0xE5 SHL DUP2 MSTORE PUSH1 0x20 PUSH1 0x4 DUP3 ADD MSTORE PUSH1 0xD PUSH1 0x24 DUP3 ADD MSTORE PUSH13 0x2737BA103832BA1037BBB732B9 PUSH1 0x99 SHL PUSH1 0x44 DUP3 ADD MSTORE PUSH1 0x64 SWAP1 REVERT JUMPDEST ISZERO PUSH2 0x3952 JUMPI JUMP JUMPDEST PUSH1 0x40 MLOAD PUSH3 0x461BCD PUSH1 0xE5 SHL DUP2 MSTORE PUSH1 0x20 PUSH1 0x4 DUP3 ADD MSTORE PUSH1 0xE PUSH1 0x24 DUP3 ADD MSTORE PUSH14 0x506574206E6F7420616374697665 PUSH1 0x90 SHL PUSH1 0x44 DUP3 ADD MSTORE PUSH1 0x64 SWAP1 REVERT JUMPDEST SWAP3 SWAP2 SWAP3 PUSH1 0x1 PUSH1 0x1 PUSH1 0x40 SHL SUB DUP3 GT PUSH2 0x18E3 JUMPI PUSH1 0x40 MLOAD SWAP2 PUSH2 0x39B1 PUSH1 0x1F DUP3 ADD PUSH1 0x1F NOT AND PUSH1 0x20 ADD DUP5 PUSH2 0x356C JUMP JUMPDEST DUP3 SWAP5 DUP2 DUP5 MSTORE DUP2 DUP4 ADD GT PUSH2 0x14A JUMPI DUP3 DUP2 PUSH1 0x20 SWAP4 DUP5 PUSH1 0x0 SWAP7 ADD CALLDATACOPY ADD ADD MSTORE JUMP JUMPDEST ISZERO PUSH2 0x39D6 JUMPI POP JUMP JUMPDEST PUSH1 0x40 MLOAD PUSH3 0x461BCD PUSH1 0xE5 SHL DUP2 MSTORE PUSH1 0x20 PUSH1 0x4 DUP3 ADD MSTORE SWAP1 DUP2 SWAP1 PUSH2 0x39FA SWAP1 PUSH1 0x24 DUP4 ADD SWAP1 PUSH2 0x32B1 JUMP JUMPDEST SUB SWAP1 REVERT JUMPDEST PUSH2 0x3A09 SWAP2 CALLDATASIZE SWAP2 PUSH2 0x3988 JUMP JUMPDEST DUP1 MLOAD SWAP1 PUSH1 0x2 DUP3 LT ISZERO SWAP2 DUP3 PUSH2 0x3AD0 JUMPI JUMPDEST POP PUSH1 0x40 MLOAD SWAP2 DUP4 MLOAD SWAP3 DUP1 PUSH1 0x20 DUP7 ADD SWAP5 DUP1 PUSH1 0x20 DUP4 ADD SWAP1 PUSH2 0x3A36 SWAP2 DUP9 PUSH2 0x328E JUMP JUMPDEST DUP2 ADD PUSH1 0x20 DUP2 ADD PUSH15 0x81B195B99DD1A081A5B9D985B1A59 PUSH1 0x8A SHL SWAP1 MSTORE SUB PUSH1 0x20 ADD PUSH1 0x10 NOT DUP2 ADD DUP3 MSTORE PUSH1 0xF ADD PUSH2 0x3A69 SWAP1 DUP3 PUSH2 0x356C JUMP JUMPDEST PUSH2 0x3A72 SWAP2 PUSH2 0x39CE JUMP JUMPDEST PUSH2 0x3A7B SWAP1 PUSH2 0x3B93 JUMP JUMPDEST ISZERO SWAP2 PUSH1 0x40 MLOAD SWAP2 DUP3 SWAP2 MLOAD SWAP1 DUP2 PUSH1 0x20 DUP5 ADD PUSH2 0x3A93 SWAP3 PUSH2 0x328E JUMP JUMPDEST DUP2 ADD PUSH1 0x20 DUP2 ADD PUSH16 0x2063616E6E6F7420626520626C616E6B PUSH1 0x80 SHL SWAP1 MSTORE SUB PUSH1 0x20 ADD PUSH1 0xF NOT DUP2 ADD DUP3 MSTORE PUSH1 0x10 ADD PUSH2 0x3AC7 SWAP1 DUP3 PUSH2 0x356C JUMP JUMPDEST PUSH2 0x35C6 SWAP2 PUSH2 0x39CE JUMP JUMPDEST PUSH1 0x32 LT ISZERO SWAP2 POP CODESIZE PUSH2 0x3A18 JUMP JUMPDEST SWAP1 DUP2 MLOAD DUP2 LT ISZERO PUSH2 0x38ED JUMPI ADD PUSH1 0x20 ADD SWAP1 JUMP JUMPDEST PUSH1 0x5 DUP2 MLOAD LT PUSH2 0x3B8D JUMPI PUSH1 0x0 DUP1 SWAP2 DUP2 JUMPDEST DUP2 MLOAD DUP4 LT ISZERO PUSH2 0x3B7B JUMPI PUSH1 0x1 PUSH1 0xFE SHL PUSH1 0x1 PUSH1 0x1 PUSH1 0xF8 SHL SUB NOT PUSH2 0x3B1D DUP6 DUP6 PUSH2 0x3ADC JUMP JUMPDEST MLOAD AND SUB PUSH2 0x3B3C JUMPI PUSH2 0x3B34 JUMPI PUSH1 0x1 DUP1 SWAP3 JUMPDEST ADD SWAP2 PUSH2 0x3AFC JUMP JUMPDEST POP POP POP PUSH1 0x0 SWAP1 JUMP JUMPDEST SWAP2 DUP3 DUP1 PUSH2 0x3B5A JUMPI JUMPDEST PUSH2 0x3B51 JUMPI JUMPDEST PUSH1 0x1 SWAP1 PUSH2 0x3B2D JUMP JUMPDEST PUSH1 0x1 SWAP4 POP PUSH2 0x3B49 JUMP JUMPDEST POP PUSH1 0x17 PUSH1 0xF9 SHL PUSH1 0x1 PUSH1 0x1 PUSH1 0xF8 SHL SUB NOT PUSH2 0x3B73 DUP4 DUP6 PUSH2 0x3ADC JUMP JUMPDEST MLOAD AND EQ PUSH2 0x3B44 JUMP JUMPDEST SWAP3 SWAP2 POP POP DUP2 PUSH2 0x3B88 JUMPI POP SWAP1 JUMP JUMPDEST SWAP1 POP SWAP1 JUMP JUMPDEST POP PUSH1 0x0 SWAP1 JUMP JUMPDEST PUSH1 0x0 JUMPDEST DUP2 MLOAD DUP2 LT ISZERO PUSH2 0x3BCD JUMPI PUSH1 0x1 PUSH1 0xFD SHL PUSH1 0x1 PUSH1 0x1 PUSH1 0xF8 SHL SUB NOT PUSH2 0x3BB7 DUP4 DUP6 PUSH2 0x3ADC JUMP JUMPDEST MLOAD AND SUB PUSH2 0x3BC6 JUMPI PUSH1 0x1 ADD PUSH2 0x3B96 JUMP JUMPDEST POP POP PUSH1 0x0 SWAP1 JUMP JUMPDEST POP POP PUSH1 0x1 SWAP1 JUMP INVALID LOG2 PUSH5 0x6970667358 0x22 SLT KECCAK256 CHAINID 0x4C EQ SWAP10 0xD0 SLOAD PUSH4 0x235CEE4C PUSH13 0x8C76A6B2EB19C4576859BE90B4 PUSH15 0x684F86D7D3F64736F6C634300081C STOP CALLER "
        },
        "methodIdentifiers": {
          "BOUNTY_TIMEOUT()": "0b5d39fa",
          "CUSD_ADDRESS()": "465c66e9",
          "GDOLLAR_ADDRESS()": "ee7afb1c",
          "MAX_CELO_BOUNTY()": "3fa8be32",
          "MAX_CUSD_BOUNTY()": "9dc5ac72",
          "admin()": "f851a440",
          "cancelAndRefund(uint256)": "d32bfb6c",
          "claimBounty(uint256)": "44021ad7",
          "confirmFoundByOwner(uint256)": "5e23985b",
          "emergencyWithdrawCUSD(address)": "3f26decd",
          "escrowedCUSD(uint256)": "1850e3a7",
          "escrowedGDOLLAR(uint256)": "d25a6f05",
          "getAllLostPets()": "543df5a3",
          "getAllPets()": "5b236d97",
          "getLostPetIds(uint256,uint256)": "a06e0061",
          "getLostPetsCount()": "8b504c17",
          "getPetDetails(uint256)": "d89fd4b4",
          "markAsFound(uint256)": "b3035b64",
          "nextPetId()": "403f8cc7",
          "pets(uint256)": "cfb869bf",
          "postLostPet(string,string,string,uint128,uint128,string,string,string,string,string,string,string,uint128,uint128)": "ce2ed0e2",
          "postTime(uint256)": "d74a48a4",
          "transferAdmin(address)": "75829def"
        }
      }
    }
  }
}