{
  "contracts/PetTrace.sol": {
    "PetTrace": {
      "abi": [
        {
          "inputs": [],
          "stateMutability": "nonpayable",
          "type": "constructor"
        },
        {
          "anonymous": false,
          "inputs": [
            {
              "indexed": true,
              "internalType": "address",
              "name": "newAdmin",
              "type": "address"
            }
          ],
          "name": "AdminChanged",
          "type": "event"
        },
        {
          "anonymous": false,
          "inputs": [
            {
              "indexed": true,
              "internalType": "uint256",
              "name": "petId",
              "type": "uint256"
            },
            {
              "indexed": true,
              "internalType": "address",
              "name": "finder",
              "type": "address"
            },
            {
              "indexed": false,
              "internalType": "uint256",
              "name": "celoAmount",
              "type": "uint256"
            },
            {
              "indexed": false,
              "internalType": "uint256",
              "name": "cUSDAmount",
              "type": "uint256"
            },
            {
              "indexed": false,
              "internalType": "uint256",
              "name": "gDollarAmount",
              "type": "uint256"
            }
          ],
          "name": "BountyClaimed",
          "type": "event"
        },
        {
          "anonymous": false,
          "inputs": [
            {
              "indexed": true,
              "internalType": "uint256",
              "name": "petId",
              "type": "uint256"
            },
            {
              "indexed": true,
              "internalType": "address",
              "name": "owner",
              "type": "address"
            },
            {
              "indexed": false,
              "internalType": "uint256",
              "name": "celoAmount",
              "type": "uint256"
            },
            {
              "indexed": false,
              "internalType": "uint256",
              "name": "cUSDAmount",
              "type": "uint256"
            },
            {
              "indexed": false,
              "internalType": "uint256",
              "name": "gDollarAmount",
              "type": "uint256"
            }
          ],
          "name": "BountyRefunded",
          "type": "event"
        },
        {
          "anonymous": false,
          "inputs": [
            {
              "indexed": true,
              "internalType": "uint256",
              "name": "petId",
              "type": "uint256"
            },
            {
              "indexed": true,
              "internalType": "address",
              "name": "confirmer",
              "type": "address"
            },
            {
              "indexed": false,
              "internalType": "bool",
              "name": "isOwner",
              "type": "bool"
            }
          ],
          "name": "ConfirmationAdded",
          "type": "event"
        },
        {
          "anonymous": false,
          "inputs": [
            {
              "indexed": true,
              "internalType": "uint256",
              "name": "petId",
              "type": "uint256"
            },
            {
              "indexed": true,
              "internalType": "address",
              "name": "finder",
              "type": "address"
            }
          ],
          "name": "PetFound",
          "type": "event"
        },
        {
          "anonymous": false,
          "inputs": [
            {
              "indexed": true,
              "internalType": "uint256",
              "name": "petId",
              "type": "uint256"
            },
            {
              "indexed": true,
              "internalType": "address",
              "name": "owner",
              "type": "address"
            }
          ],
          "name": "PetPosted",
          "type": "event"
        },
        {
          "inputs": [],
          "name": "BOUNTY_TIMEOUT",
          "outputs": [
            {
              "internalType": "uint256",
              "name": "",
              "type": "uint256"
            }
          ],
          "stateMutability": "view",
          "type": "function"
        },
        {
          "inputs": [],
          "name": "CUSD_ADDRESS",
          "outputs": [
            {
              "internalType": "address",
              "name": "",
              "type": "address"
            }
          ],
          "stateMutability": "view",
          "type": "function"
        },
        {
          "inputs": [],
          "name": "GDOLLAR_ADDRESS",
          "outputs": [
            {
              "internalType": "address",
              "name": "",
              "type": "address"
            }
          ],
          "stateMutability": "view",
          "type": "function"
        },
        {
          "inputs": [],
          "name": "MAX_CELO_BOUNTY",
          "outputs": [
            {
              "internalType": "uint256",
              "name": "",
              "type": "uint256"
            }
          ],
          "stateMutability": "view",
          "type": "function"
        },
        {
          "inputs": [],
          "name": "MAX_CUSD_BOUNTY",
          "outputs": [
            {
              "internalType": "uint256",
              "name": "",
              "type": "uint256"
            }
          ],
          "stateMutability": "view",
          "type": "function"
        },
        {
          "inputs": [],
          "name": "admin",
          "outputs": [
            {
              "internalType": "address",
              "name": "",
              "type": "address"
            }
          ],
          "stateMutability": "view",
          "type": "function"
        },
        {
          "inputs": [
            {
              "internalType": "uint256",
              "name": "petId",
              "type": "uint256"
            }
          ],
          "name": "cancelAndRefund",
          "outputs": [],
          "stateMutability": "nonpayable",
          "type": "function"
        },
        {
          "inputs": [
            {
              "internalType": "uint256",
              "name": "petId",
              "type": "uint256"
            }
          ],
          "name": "claimBounty",
          "outputs": [],
          "stateMutability": "nonpayable",
          "type": "function"
        },
        {
          "inputs": [
            {
              "internalType": "uint256",
              "name": "petId",
              "type": "uint256"
            }
          ],
          "name": "confirmFoundByOwner",
          "outputs": [],
          "stateMutability": "nonpayable",
          "type": "function"
        },
        {
          "inputs": [
            {
              "internalType": "address",
              "name": "to",
              "type": "address"
            }
          ],
          "name": "emergencyWithdrawCUSD",
          "outputs": [],
          "stateMutability": "nonpayable",
          "type": "function"
        },
        {
          "inputs": [
            {
              "internalType": "uint256",
              "name": "",
              "type": "uint256"
            }
          ],
          "name": "escrowedCUSD",
          "outputs": [
            {
              "internalType": "uint256",
              "name": "",
              "type": "uint256"
            }
          ],
          "stateMutability": "view",
          "type": "function"
        },
        {
          "inputs": [
            {
              "internalType": "uint256",
              "name": "",
              "type": "uint256"
            }
          ],
          "name": "escrowedGDOLLAR",
          "outputs": [
            {
              "internalType": "uint256",
              "name": "",
              "type": "uint256"
            }
          ],
          "stateMutability": "view",
          "type": "function"
        },
        {
          "inputs": [],
          "name": "getAllLostPets",
          "outputs": [
            {
              "internalType": "uint256[]",
              "name": "",
              "type": "uint256[]"
            },
            {
              "components": [
                {
                  "internalType": "uint256",
                  "name": "id",
                  "type": "uint256"
                },
                {
                  "internalType": "address payable",
                  "name": "owner",
                  "type": "address"
                },
                {
                  "internalType": "string",
                  "name": "name",
                  "type": "string"
                },
                {
                  "internalType": "string",
                  "name": "breed",
                  "type": "string"
                },
                {
                  "internalType": "string",
                  "name": "gender",
                  "type": "string"
                },
                {
                  "internalType": "uint128",
                  "name": "sizeCm",
                  "type": "uint128"
                },
                {
                  "internalType": "uint128",
                  "name": "ageMonths",
                  "type": "uint128"
                },
                {
                  "internalType": "string",
                  "name": "dateTimeLost",
                  "type": "string"
                },
                {
                  "internalType": "string",
                  "name": "description",
                  "type": "string"
                },
                {
                  "internalType": "string",
                  "name": "imageUrl",
                  "type": "string"
                },
                {
                  "internalType": "string",
                  "name": "lastSeenLocation",
                  "type": "string"
                },
                {
                  "internalType": "string",
                  "name": "contactName",
                  "type": "string"
                },
                {
                  "internalType": "string",
                  "name": "contactPhone",
                  "type": "string"
                },
                {
                  "internalType": "string",
                  "name": "contactEmail",
                  "type": "string"
                },
                {
                  "internalType": "uint128",
                  "name": "celoBounty",
                  "type": "uint128"
                },
                {
                  "internalType": "uint128",
                  "name": "cUSDBounty",
                  "type": "uint128"
                },
                {
                  "internalType": "uint128",
                  "name": "gDollarBounty",
                  "type": "uint128"
                },
                {
                  "internalType": "bool",
                  "name": "isFound",
                  "type": "bool"
                },
                {
                  "internalType": "bool",
                  "name": "ownerConfirmed",
                  "type": "bool"
                },
                {
                  "internalType": "bool",
                  "name": "finderConfirmed",
                  "type": "bool"
                },
                {
                  "internalType": "address",
                  "name": "finder",
                  "type": "address"
                }
              ],
              "internalType": "struct PetTrace.Pet[]",
              "name": "",
              "type": "tuple[]"
            }
          ],
          "stateMutability": "view",
          "type": "function"
        },
        {
          "inputs": [
            {
              "internalType": "uint256",
              "name": "startIndex",
              "type": "uint256"
            },
            {
              "internalType": "uint256",
              "name": "maxCount",
              "type": "uint256"
            }
          ],
          "name": "getLostPetIds",
          "outputs": [
            {
              "internalType": "uint256[]",
              "name": "ids",
              "type": "uint256[]"
            },
            {
              "internalType": "bool",
              "name": "hasMore",
              "type": "bool"
            }
          ],
          "stateMutability": "view",
          "type": "function"
        },
        {
          "inputs": [],
          "name": "getLostPetsCount",
          "outputs": [
            {
              "internalType": "uint256",
              "name": "",
              "type": "uint256"
            }
          ],
          "stateMutability": "view",
          "type": "function"
        },
        {
          "inputs": [
            {
              "internalType": "uint256",
              "name": "petId",
              "type": "uint256"
            }
          ],
          "name": "getPetDetails",
          "outputs": [
            {
              "internalType": "uint256",
              "name": "",
              "type": "uint256"
            },
            {
              "internalType": "address",
              "name": "",
              "type": "address"
            },
            {
              "internalType": "string",
              "name": "",
              "type": "string"
            },
            {
              "internalType": "string",
              "name": "",
              "type": "string"
            },
            {
              "internalType": "string",
              "name": "",
              "type": "string"
            },
            {
              "internalType": "uint128",
              "name": "",
              "type": "uint128"
            },
            {
              "internalType": "uint128",
              "name": "",
              "type": "uint128"
            },
            {
              "internalType": "string",
              "name": "",
              "type": "string"
            },
            {
              "internalType": "string",
              "name": "",
              "type": "string"
            },
            {
              "internalType": "string",
              "name": "",
              "type": "string"
            },
            {
              "internalType": "string",
              "name": "",
              "type": "string"
            },
            {
              "internalType": "string",
              "name": "",
              "type": "string"
            },
            {
              "internalType": "string",
              "name": "",
              "type": "string"
            },
            {
              "internalType": "string",
              "name": "",
              "type": "string"
            },
            {
              "internalType": "uint128",
              "name": "",
              "type": "uint128"
            },
            {
              "internalType": "uint128",
              "name": "",
              "type": "uint128"
            },
            {
              "internalType": "uint128",
              "name": "",
              "type": "uint128"
            },
            {
              "internalType": "bool",
              "name": "",
              "type": "bool"
            },
            {
              "internalType": "bool",
              "name": "",
              "type": "bool"
            },
            {
              "internalType": "bool",
              "name": "",
              "type": "bool"
            },
            {
              "internalType": "address",
              "name": "",
              "type": "address"
            }
          ],
          "stateMutability": "view",
          "type": "function"
        },
        {
          "inputs": [
            {
              "internalType": "uint256",
              "name": "petId",
              "type": "uint256"
            }
          ],
          "name": "markAsFound",
          "outputs": [],
          "stateMutability": "nonpayable",
          "type": "function"
        },
        {
          "inputs": [],
          "name": "nextPetId",
          "outputs": [
            {
              "internalType": "uint256",
              "name": "",
              "type": "uint256"
            }
          ],
          "stateMutability": "view",
          "type": "function"
        },
        {
          "inputs": [
            {
              "internalType": "uint256",
              "name": "",
              "type": "uint256"
            }
          ],
          "name": "pets",
          "outputs": [
            {
              "internalType": "uint256",
              "name": "id",
              "type": "uint256"
            },
            {
              "internalType": "address payable",
              "name": "owner",
              "type": "address"
            },
            {
              "internalType": "string",
              "name": "name",
              "type": "string"
            },
            {
              "internalType": "string",
              "name": "breed",
              "type": "string"
            },
            {
              "internalType": "string",
              "name": "gender",
              "type": "string"
            },
            {
              "internalType": "uint128",
              "name": "sizeCm",
              "type": "uint128"
            },
            {
              "internalType": "uint128",
              "name": "ageMonths",
              "type": "uint128"
            },
            {
              "internalType": "string",
              "name": "dateTimeLost",
              "type": "string"
            },
            {
              "internalType": "string",
              "name": "description",
              "type": "string"
            },
            {
              "internalType": "string",
              "name": "imageUrl",
              "type": "string"
            },
            {
              "internalType": "string",
              "name": "lastSeenLocation",
              "type": "string"
            },
            {
              "internalType": "string",
              "name": "contactName",
              "type": "string"
            },
            {
              "internalType": "string",
              "name": "contactPhone",
              "type": "string"
            },
            {
              "internalType": "string",
              "name": "contactEmail",
              "type": "string"
            },
            {
              "internalType": "uint128",
              "name": "celoBounty",
              "type": "uint128"
            },
            {
              "internalType": "uint128",
              "name": "cUSDBounty",
              "type": "uint128"
            },
            {
              "internalType": "uint128",
              "name": "gDollarBounty",
              "type": "uint128"
            },
            {
              "internalType": "bool",
              "name": "isFound",
              "type": "bool"
            },
            {
              "internalType": "bool",
              "name": "ownerConfirmed",
              "type": "bool"
            },
            {
              "internalType": "bool",
              "name": "finderConfirmed",
              "type": "bool"
            },
            {
              "internalType": "address",
              "name": "finder",
              "type": "address"
            }
          ],
          "stateMutability": "view",
          "type": "function"
        },
        {
          "inputs": [
            {
              "internalType": "string",
              "name": "name",
              "type": "string"
            },
            {
              "internalType": "string",
              "name": "breed",
              "type": "string"
            },
            {
              "internalType": "string",
              "name": "gender",
              "type": "string"
            },
            {
              "internalType": "uint128",
              "name": "sizeCm",
              "type": "uint128"
            },
            {
              "internalType": "uint128",
              "name": "ageMonths",
              "type": "uint128"
            },
            {
              "internalType": "string",
              "name": "dateTimeLost",
              "type": "string"
            },
            {
              "internalType": "string",
              "name": "description",
              "type": "string"
            },
            {
              "internalType": "string",
              "name": "imageUrl",
              "type": "string"
            },
            {
              "internalType": "string",
              "name": "lastSeenLocation",
              "type": "string"
            },
            {
              "internalType": "string",
              "name": "contactName",
              "type": "string"
            },
            {
              "internalType": "string",
              "name": "contactPhone",
              "type": "string"
            },
            {
              "internalType": "string",
              "name": "contactEmail",
              "type": "string"
            },
            {
              "internalType": "uint128",
              "name": "cUSDBounty",
              "type": "uint128"
            },
            {
              "internalType": "uint128",
              "name": "gDollarBounty",
              "type": "uint128"
            }
          ],
          "name": "postLostPet",
          "outputs": [],
          "stateMutability": "payable",
          "type": "function"
        },
        {
          "inputs": [
            {
              "internalType": "uint256",
              "name": "",
              "type": "uint256"
            }
          ],
          "name": "postTime",
          "outputs": [
            {
              "internalType": "uint256",
              "name": "",
              "type": "uint256"
            }
          ],
          "stateMutability": "view",
          "type": "function"
        },
        {
          "inputs": [
            {
              "internalType": "address",
              "name": "newAdmin",
              "type": "address"
            }
          ],
          "name": "transferAdmin",
          "outputs": [],
          "stateMutability": "nonpayable",
          "type": "function"
        }
      ],
      "evm": {
        "bytecode": {
          "linkReferences": {},
          "object": "6080806040523460355760008054610100600160a81b0319163360081b610100600160a81b0316179055613922908161003b8239f35b600080fdfe61042080604052600436101561001457600080fd5b60003560e01c9081630b5d39fa14613265575080631850e3a7146132395780633f26decd146130d65780633fa8be32146130b3578063403f8cc71461309557806344021ad714612d69578063465c66e914612d3a578063543df5a3146127f85780635e23985b1461269d57806375829def146125d55780638b504c17146125705780639dc5ac721461254b578063a06e00611461243a578063b3035b64146122dc578063ce2ed0e2146109fe578063cfb869bf1461078b578063d25a6f051461075f578063d32bfb6c14610425578063d74a48a4146103f9578063d89fd4b414610173578063ee7afb1c146101445763f851a4401461011257600080fd5b3461013f57600036600319011261013f5760005460405160089190911c6001600160a01b03168152602090f35b600080fd5b3461013f57600036600319011261013f5760206040517362b8b11039fcfe5ab0c56e502b1c372a3d2a9c7a8152f35b3461013f57602036600319011261013f57600435600154811061019590613495565b600052600260205260406000208054600160a01b60019003600183015416600583015491600d84015493600e81015492600160a01b60019003600f8301541694600283016101e2906133a1565b906101ef600385016133a1565b906101fc600486016133a1565b90610209600687016133a1565b90610216600788016133a1565b92610223600889016133a1565b9461023060098a016133a1565b9661023d600a8b016133a1565b9861024a600b8c016133a1565b9a600c01610257906133a1565b9b6040516103e0526103e051526103e051602001526103e0516040016102a090526103e0516102a001610289916132d8565b6103e05181036103e051606001526102a0916132d8565b6103e05181036103e051608001526102b7916132d8565b906001600160801b0381166103e05160a0015260801c6103e05160c001526103e05181036103e05160e001526102ec916132d8565b6103e05181036103e0516101000152610304916132d8565b6103e05181036103e051610120015261031c916132d8565b6103e05181036103e0516101400152610334916132d8565b6103e05181036103e051610160015261034c916132d8565b6103e05181036103e0516101800152610364916132d8565b6103e05181036103e0516101a0015261037c916132d8565b926001600160801b0381166103e0516101c0015260801c6103e0516101e001526001600160801b0381166103e05161020001528060801c60ff1615156103e05161022001528060881c60ff1615156103e051610240015260901c60ff1615156103e05161026001526103e05161028001526103e05190036103e051f35b3461013f57602036600319011261013f5760043560005260056020526020604060002054604051908152f35b3461013f57602036600319011261013f5760043580600052600260205261045d60018060a01b03600160406000200154163314613628565b600160005461046f60ff8216156134d6565b60ff191617600055806000526002602052604060002090600e82019182549060ff8260801c1661072657600f8101546001600160a01b03166106e157600d01805460009182905584546001600160801b03191690945582815260036020908152604080832083905560049091528120556001600160801b038084169360801c911683801580156106ba575b505081610614575b80610554575b6040805194855260208501929092529083015233917f5a15fed544596f86ab10d13ce99dfeb4e13095d939b5749ae220fbc4f05846369080606081015b0390a36000805460ff19169055005b60405163a9059cbb60e01b81523360048201526024810182905260208160448160007362b8b11039fcfe5ab0c56e502b1c372a3d2a9c7a5af1908115610608576000916105d9575b506105085760405162461bcd60e51b815260206004820152601060248201526f11c9081c99599d5b990819985a5b195960821b6044820152606490fd5b6105fb915060203d602011610601575b6105f38183613380565b81019061347d565b8561059c565b503d6105e9565b6040513d6000823e3d90fd5b60405163a9059cbb60e01b815233600482015260248101839052602081604481600073765de816845861e75a25fca122bb6898b8b1282a5af19081156106085760009161069b575b506105025760405162461bcd60e51b815260206004820152601260248201527118d554d1081c99599d5b990819985a5b195960721b6044820152606490fd5b6106b4915060203d602011610601576105f38183613380565b8561065c565b6000906106d8575b600080809381933390f1156106085783856104fa565b506108fc6106c2565b60405162461bcd60e51b815260206004820152601760248201527f46696e64657220616c72656164792061737369676e65640000000000000000006044820152606490fd5b60405162461bcd60e51b815260206004820152601160248201527014195d08185b1c9958591e48199bdd5b99607a1b6044820152606490fd5b3461013f57602036600319011261013f5760043560005260046020526020604060002054604051908152f35b3461013f57602036600319011261013f57600435600052600260205260406000208054600160a01b6001900360018301541691600281016107cb906133a1565b6107d7600383016133a1565b6107e3600484016133a1565b60058401546107f4600686016133a1565b610800600787016133a1565b61080c600888016133a1565b91610819600989016133a1565b93610826600a8a016133a1565b95610833600b8b016133a1565b97610840600c8c016133a1565b99600d8c01549d600e8d01549c600160a01b6001900390600f0154169d6040516104005261040051526104005160200152610400516040016102a09052610400516102a00161088e916132d8565b61040051810361040051606001526108a5916132d8565b61040051810361040051608001526108bc916132d8565b906001600160801b0381166104005160a0015260801c6104005160c001526104005181036104005160e001526108f1916132d8565b610400518103610400516101000152610909916132d8565b610400518103610400516101200152610921916132d8565b610400518103610400516101400152610939916132d8565b610400518103610400516101600152610951916132d8565b610400518103610400516101800152610969916132d8565b610400518103610400516101a00152610981916132d8565b926001600160801b038116610400516101c0015260801c610400516101e001526001600160801b0381166104005161020001528060801c60ff1615156104005161022001528060881c60ff16151561040051610240015260901c60ff16151561040051610260015261040051610280015261040051900361040051f35b6101c036600319011261013f576004356001600160401b03811161013f57610a2a9036906004016132fd565b61038052610260526024356001600160401b03811161013f57610a519036906004016132fd565b6103c052610340526044356001600160401b03811161013f57610a789036906004016132fd565b6103a052610100526064356101408190526001600160801b038116900361013f576084356101608190526001600160801b038116900361013f5760a4356001600160401b03811161013f57610ad19036906004016132fd565b6101c0526101e05260c4356001600160401b03811161013f57610af89036906004016132fd565b610220526102405260e4356001600160401b03811161013f57610b1f9036906004016132fd565b610360526102e052610104356001600160401b03811161013f57610b479036906004016132fd565b6102805261032052610124356001600160401b03811161013f57610b6f9036906004016132fd565b610300526102c0526001600160401b03610144351161013f57610b9836610144356004016132fd565b6102a05261020052610164356001600160401b03811161013f57610bc09036906004016132fd565b6101a05261018052610184356101208190526001600160801b038116900361013f576101a43560e08190526001600160801b038116900361013f576001600054610c0d60ff8216156134d6565b60ff191617600055678ac7230489e80000341161229f5769021e19e0c9bab24000006001600160801b036101205116116122625769021e19e0c9bab24000006001600160801b0360e0511611612227573415801590612212575b80156121fe575b156121c757604060c08190528051610ca891610c8a9082613380565b60048152634e616d6560e01b60208201526103805161026051613716565b60c0518051610cda91610cbb9082613380565b6005815264109c99595960da1b60208201526103c05161034051613716565b60c0518051610dc291610ced9082613380565b600681526523b2b73232b960d11b6020820152610d78610d14366103a051610100516136a0565b610d738151600181101590816121bb575b5060c0515190610d6e600f6020848951610d45818c8580860191016132b5565b81016e081b195b99dd1a081a5b9d985b1a59608a1b838201520301601019810185520183613380565b6136e6565b6138ab565b15610d6e6010602060c0515185610d9882975180928580860191016132b5565b81016f2063616e6e6f7420626520626c616e6b60801b838201520301600f19810185520183613380565b60c05150610e7c610d9860c05151610ddc60c05182613380565b600b8152610d6e60106020808401936a2232b9b1b934b83a34b7b760a91b8552610e67610e103661022051610240516136a0565b610d738151600a81101590816121ae575b5060c0515190610d6e600f88848d610e3f8b518092858501906132b5565b81016e081b195b99dd1a081a5b9d985b1a59608a1b8382015203018a19810185520183613380565b159460c05151968792518092858501906132b5565b60c05150610ef6610d9860c05151610e9660c05182613380565b60098152610d6e601060208084019368125b5859d94815549360ba1b8552610e67610ec836610360516102e0516136a0565b610d738151600a81101590816121a2575060c0515190610d6e600f88848d610e3f8b518092858501906132b5565b60c05150610f6f610d9860c05151610f1060c05182613380565b60088152610d6e6010602080840193672637b1b0ba34b7b760c11b8552610e67610f413661028051610320516136a0565b610d738151600581101590816121a2575060c0515190610d6e600f88848d610e3f8b518092858501906132b5565b60c05150610fec610d9860c05151610f8960c05182613380565b600c8152610d6e60106020808401936b436f6e74616374206e616d6560a01b8552610e67610fbe36610300516102c0516136a0565b610d73815160028110159081612196575060c0515190610d6e600f88848d610e3f8b518092858501906132b5565b60c0515061106a610d9860c0515161100660c05182613380565b600d8152610d6e60106020808401936c436f6e746163742070686f6e6560981b8552610e6761103c366102a051610200516136a0565b610d7381516005811015908161218a575060c0515190610d6e600f88848d610e3f8b518092858501906132b5565b600a6001600160801b036101405116101580612173575b1561213e5760016001600160801b036101605116101580612127575b156120f3576110bb6110b6366101a051610180516136a0565b613805565b156120bd576001600160801b0360e05116612019575b6001600160801b036101205116611f66575b60015460a05260c051516080526110fb608051613364565b60a05160805152336020608051015261111b3661038051610260516136a0565b60c0516080510152611134366103c051610340516136a0565b6060608051015261114c366103a051610100516136a0565b6080805101526001600160801b03610140511660a060805101526001600160801b03610160511660c0608051015261118b366101c0516101e0516136a0565b60e060805101526111a33661022051610240516136a0565b61010060805101526111bc36610360516102e0516136a0565b61012060805101526111d53661028051610320516136a0565b61014060805101526111ee36610300516102c0516136a0565b6101606080510152611207366102a051610200516136a0565b6101806080510152611220366101a051610180516136a0565b6101a060805101526001600160801b0334166101c060805101526001600160801b0361012051166101e060805101526001600160801b0360e0511661020060805101526000610220608051015260006102406080510152600061026060805101526000610280608051015260a051600052600260205260c05160002060805151815560018060a01b036020608051015116600182019060018060a01b03166bffffffffffffffffffffffff60a01b82541617905560c05160805101518051906001600160401b0382116118935781906112fc600285015461332a565b601f8111611f13575b50602090601f8311600114611ea257600092611e97575b50508160011b916000199060031b1c19161760028201555b606060805101518051906001600160401b03821161189357819061135b600385015461332a565b601f8111611e44575b50602090601f8311600114611dd357600092611dc8575b50508160011b916000199060031b1c19161760038201555b6080805101518051906001600160401b0382116118935781906113b9600485015461332a565b601f8111611d75575b50602090601f8311600114611d0457600092611cf9575b50508160011b916000199060031b1c19161760048201555b6080805160a081015160c09091015190911b6001600160801b0319166001600160801b0391909116176005820155600681019060e060805101519182516001600160401b03811161189357611446825461332a565b601f8111611cb1575b506020601f8211600114611c4c5781929394600092611c41575b50508160011b916000199060031b1c19161790555b600781019061010060805101519182516001600160401b038111611893576114a6825461332a565b601f8111611bf9575b506020601f8211600114611b945781929394600092611b89575b50508160011b916000199060031b1c19161790555b600881019061012060805101519182516001600160401b03811161189357611506825461332a565b601f8111611b41575b506020601f8211600114611adc5781929394600092611ad1575b50508160011b916000199060031b1c19161790555b600981019061014060805101519182516001600160401b03811161189357611566825461332a565b601f8111611a89575b506020601f8211600114611a245781929394600092611a19575b50508160011b916000199060031b1c19161790555b600a81019061016060805101519182516001600160401b038111611893576115c6825461332a565b601f81116119d1575b506020601f821160011461196c5781929394600092611961575b50508160011b916000199060031b1c19161790555b600b81019061018060805101519182516001600160401b03811161189357611626825461332a565b601f8111611919575b506020601f82116001146118b457819293946000926118a9575b50508160011b916000199060031b1c19161790555b600c8101906101a060805101519182516001600160401b03811161189357611686825461332a565b601f811161184b575b506020601f82116001146117e657819293946000926117db575b50508160011b916000199060031b1c19161790555b608080516101c08101516101e0820151831b6001600160801b0319166001600160801b0391821617600d850155610200820151600e8501805461022085015161024086015161026087015172ffffffffffffffffffffffffffffffffffffff19909316949095169390931792151590951b60ff60801b169190911791151560881b60ff60881b169190911792151560901b60ff60901b16929092179091556102800151600f90910180546001600160a01b0319166001600160a01b03909216919091179055600180546000908152600560205260c051812042905590546117cc91339082907ff6be169e9242db299e4065f846c02e09b60f1421201248fe94d6f552e8c8bd449080a36135a6565b6001556000805460ff19169055005b0151905084806116a9565b601f1982169083600052806000209160005b8181106118335750958360019596971061181a575b505050811b0190556116be565b015160001960f88460031b161c1916905584808061180d565b9192602060018192868b0151815501940192016117f8565b826000526020600020601f830160051c81019160208410611889575b601f0160051c01905b81811061187d575061168f565b60008155600101611870565b9091508190611867565b634e487b7160e01b600052604160045260246000fd5b015190508480611649565b601f1982169083600052806000209160005b818110611901575095836001959697106118e8575b505050811b01905561165e565b015160001960f88460031b161c191690558480806118db565b9192602060018192868b0151815501940192016118c6565b826000526020600020601f830160051c81019160208410611957575b601f0160051c01905b81811061194b575061162f565b6000815560010161193e565b9091508190611935565b0151905084806115e9565b601f1982169083600052806000209160005b8181106119b9575095836001959697106119a0575b505050811b0190556115fe565b015160001960f88460031b161c19169055848080611993565b9192602060018192868b01518155019401920161197e565b826000526020600020601f830160051c81019160208410611a0f575b601f0160051c01905b818110611a0357506115cf565b600081556001016119f6565b90915081906119ed565b015190508480611589565b601f1982169083600052806000209160005b818110611a7157509583600195969710611a58575b505050811b01905561159e565b015160001960f88460031b161c19169055848080611a4b565b9192602060018192868b015181550194019201611a36565b826000526020600020601f830160051c81019160208410611ac7575b601f0160051c01905b818110611abb575061156f565b60008155600101611aae565b9091508190611aa5565b015190508480611529565b601f1982169083600052806000209160005b818110611b2957509583600195969710611b10575b505050811b01905561153e565b015160001960f88460031b161c19169055848080611b03565b9192602060018192868b015181550194019201611aee565b826000526020600020601f830160051c81019160208410611b7f575b601f0160051c01905b818110611b73575061150f565b60008155600101611b66565b9091508190611b5d565b0151905084806114c9565b601f1982169083600052806000209160005b818110611be157509583600195969710611bc8575b505050811b0190556114de565b015160001960f88460031b161c19169055848080611bbb565b9192602060018192868b015181550194019201611ba6565b826000526020600020601f830160051c81019160208410611c37575b601f0160051c01905b818110611c2b57506114af565b60008155600101611c1e565b9091508190611c15565b015190508480611469565b601f1982169083600052806000209160005b818110611c9957509583600195969710611c80575b505050811b01905561147e565b015160001960f88460031b161c19169055848080611c73565b9192602060018192868b015181550194019201611c5e565b826000526020600020601f830160051c81019160208410611cef575b601f0160051c01905b818110611ce3575061144f565b60008155600101611cd6565b9091508190611ccd565b0151905083806113d9565b92506004840160005280600020906000935b601f1984168510611d5a576001945083601f19811610611d41575b505050811b0160048201556113f1565b015160001960f88460031b161c19169055838080611d31565b81810151835560209485019460019093019290910190611d16565b909150600484016000526020600020601f840160051c810160208510611dc1575b90849392915b601f830160051c82018110611db25750506113c2565b60008155859450600101611d9c565b5080611d96565b01519050838061137b565b92506003840160005280600020906000935b601f1984168510611e29576001945083601f19811610611e10575b505050811b016003820155611393565b015160001960f88460031b161c19169055838080611e00565b81810151835560209485019460019093019290910190611de5565b909150600384016000526020600020601f840160051c810160208510611e90575b90849392915b601f830160051c82018110611e81575050611364565b60008155859450600101611e6b565b5080611e65565b01519050838061131c565b92506002840160005280600020906000935b601f1984168510611ef8576001945083601f19811610611edf575b505050811b016002820155611334565b015160001960f88460031b161c19169055838080611ecf565b81810151835560209485019460019093019290910190611eb4565b909150600284016000526020600020601f840160051c810160208510611f5f575b90849392915b601f830160051c82018110611f50575050611305565b60008155859450600101611f3a565b5080611f34565b60c051516323b872dd60e01b8152610120513360048301523060248301526001600160801b03166044820152602081606481600073765de816845861e75a25fca122bb6898b8b1282a5af1801561200c57611fc991600091611fed575b50613522565b60015460005260036020526001600160801b03610120511660c051600020556110e3565b612006915060203d602011610601576105f38183613380565b82611fc3565b60c051513d6000823e3d90fd5b60c051516323b872dd60e01b815260e0513360048301523060248301526001600160801b0316604482015260208160648160007362b8b11039fcfe5ab0c56e502b1c372a3d2a9c7a5af1801561200c5761207b9160009161209e575b50613565565b60015460005260046020526001600160801b0360e0511660c051600020556110d1565b6120b7915060203d602011610601576105f38183613380565b82612075565b60c0515162461bcd60e51b815260206004820152600d60248201526c125b9d985b1a5908195b585a5b609a1b6044820152606490fd5b60c0515162461bcd60e51b815260206004820152600b60248201526a496e76616c69642061676560a81b6044820152606490fd5b5060f06001600160801b036101605116111561109d565b60c0515162461bcd60e51b815260206004820152600c60248201526b496e76616c69642073697a6560a01b6044820152606490fd5b5060c86001600160801b0361014051161115611081565b6014915011158b610e21565b6064915011158b610e21565b60c8915011158b610e21565b6101f4915011158b610e21565b600a9150111586610d25565b60405162461bcd60e51b815260206004820152600f60248201526e109bdd5b9d1e481c995c5d5a5c9959608a1b6044820152606490fd5b506001600160801b0360e051161515610c6e565b506001600160801b0361012051161515610c67565b60405162461bcd60e51b8152602060048201526013602482015272472420626f756e747920746f6f206c6172676560681b6044820152606490fd5b60405162461bcd60e51b81526020600482015260156024820152746355534420626f756e747920746f6f206c6172676560581b6044820152606490fd5b60405162461bcd60e51b815260206004820152601560248201527443454c4f20626f756e747920746f6f206c6172676560581b6044820152606490fd5b3461013f57602036600319011261013f576004356122fd6001548210613495565b600160005461230f60ff8216156134d6565b60ff1916176000558060005260026020526040600020600e81019061233b60ff835460801c1615613664565b60018101546001600160a01b031633146123fc57600f0180546001600160a01b03191633179055805460ff60901b198116600160901b1780835560881c60ff166123bb575b8260405190600082527fc7db73a2d1dc7fd351b6549efad129bbf568e618dbbe683abfa0d1550a96e5ae60203393a36000805460ff19169055005b62ff00ff60801b19166201000160801b17905533817f2c54217aed12a18c71e20e5a6a3f13f8cfddbb2c3a0a5f409861478c7fd39e81600080a38180612380565b60405162461bcd60e51b815260206004820152601660248201527527bbb732b91031b0b73737ba103132903334b73232b960511b6044820152606490fd5b3461013f57604036600319011261013f576004356024358101600081831161253557819060015480931161252d575b835b8281106124f3575061247c906135cc565b916000935b8281106124ad57506124a29350604051938493604085526040850190613281565b911060208301520390f35b80600052600260205260ff600e6040600020015460801c16156124d3575b600101612481565b936124eb81866124e5600194886135fe565b526135a6565b9490506124cb565b80600052600260205260ff600e6040600020015460801c1615612519575b60010161246b565b906125256001916135a6565b919050612511565b829150612469565b634e487b7160e01b600052601160045260246000fd5b3461013f57600036600319011261013f57602060405169021e19e0c9bab24000008152f35b3461013f57600036600319011261013f57600080600154905b81811061259b57602083604051908152f35b80600052600260205260ff600e6040600020015460801c16156125c1575b600101612589565b916125cd6001916135a6565b9290506125b9565b3461013f57602036600319011261013f576004356001600160a01b0381169081810361013f576000549061261733600884901c6001600160a01b031614613445565b821561266657610100600160a81b031990911660089190911b610100600160a81b03161760009081557f7ce7ec0b50378fb6c0186ffb5f48325f6593fcb4ca4386f21861af3129188f5c9080a2005b60405162461bcd60e51b815260206004820152600f60248201526e496e76616c6964206164647265737360881b6044820152606490fd5b3461013f57602036600319011261013f576004358060005260026020526126d560018060a01b03600160406000200154163314613628565b60016000546126e760ff8216156134d6565b60ff1916176000558060005260026020526040600020600e810180549161271460ff8460801c1615613664565b600f01546001600160a01b03169182156127be5760ff60881b198116600160881b1780835560901c60ff1661277f575b8360405190600182527fc7db73a2d1dc7fd351b6549efad129bbf568e618dbbe683abfa0d1550a96e5ae60203393a36000805460ff19169055005b61ffff60801b191661010160801b179055817f2c54217aed12a18c71e20e5a6a3f13f8cfddbb2c3a0a5f409861478c7fd39e81600080a3818080612744565b60405162461bcd60e51b8152602060048201526012602482015271139bc8199a5b99195c88185cdcda59db995960721b6044820152606490fd5b3461013f57600036600319011261013f57600080600154905b818110612d005750612822826135cc565b9061282c836135b5565b9261283a6040519485613380565b808452612849601f19916135b5565b0160005b818110612c4a5750506000805b828110612a845750505061287960405191604083526040830190613281565b91818303602083015280519283815260208101906020808660051b8301019301916000915b8683106128ab5785850386f35b90919293601f1982820301835284519081518152600160a01b6001900360208301511660208201526040820151604082016102a090526102a082016128ef916132d8565b6060830151908281036060840152612906916132d8565b608083015190828103608084015261291d916132d8565b60a08301516001600160801b031660a083015260c08301516001600160801b031660c083015260e08301519082810360e084015261295a916132d8565b61010083015190828103610100840152612973916132d8565b6101208301519082810361012084015261298c916132d8565b610140830151908281036101408401526129a5916132d8565b610160830151908281036101608401526129be916132d8565b610180830151908281036101808401526129d7916132d8565b6101a0830151908281036101a08401526129f0916132d8565b916101c08101516001600160801b03166101c08301526101e08101516001600160801b03166101e08301526102008101516001600160801b0316610200830152610220810151151561022083015261024081015115156102408301526102608101511515610260830152600160a01b600190039061028001511690610280015293602001916020019260010191929061289e565b80600052600260205260ff600e6040600020015460801c1615612aaa575b60010161285a565b90612c428183612abc600194886135fe565b52836000526002602052604060002060405190612ad882613364565b80548252848060a01b0385820154166020830152612af8600282016133a1565b6040830152612b09600382016133a1565b6060830152612b1a600482016133a1565b608083015260058101546001600160801b03811660a084015260801c60c0830152612b47600682016133a1565b60e0830152612b58600782016133a1565b610100830152612b6a600882016133a1565b610120830152612b7c600982016133a1565b610140830152612b8e600a82016133a1565b610160830152612ba0600b82016133a1565b610180830152612bb2600c82016133a1565b6101a0830152600d8101546001600160801b0381166101c084015260801c6101e083015260ff600e8201546001600160801b038116610200850152818160801c161515610220850152818160881c16151561024085015260901c161515610260830152600f858060a01b0391015416610280820152612c3182896135fe565b52612c3c81886135fe565b506135a6565b919050612aa2565b602090604051612c5981613364565b600081526000838201526060604082015260608082015260606080820152600060a0820152600060c0820152606060e08201526060610100820152606061012082015260606101408201526060610160820152606061018082015260606101a082015260006101c082015260006101e0820152600061020082015260006102208201526000610240820152600061026082015260006102808201528282880101520161284d565b80600052600260205260ff600e6040600020015460801c1615612d26575b600101612811565b91612d326001916135a6565b929050612d1e565b3461013f57600036600319011261013f57602060405173765de816845861e75a25fca122bb6898b8b1282a8152f35b3461013f57602036600319011261013f57600435612d8a6001548210613495565b6001600054612d9c60ff8216156134d6565b60ff191617600055806000526002602052604060002090600e82019182549060ff8260801c161561306057600f8101546001600160a01b0316330361302e57600d0180546001600160801b038116948515809181158092613022575b8015613010575b15612fdf5760009485905580546001600160801b0319169055858452600360209081526040808620869055600490915284209390935560809190911c926001600160801b031691859190612fb8575b505081612f44575b80612e9d575b6040805194855260208501929092529083015233917f0af63efacf28433915ea2d25f6e48eb87264e585bebef968bcd127a52608adec908060608101610545565b60405191630200057560e51b8352336004840152816024840152606060448401526000606484015260208360848160007362b8b11039fcfe5ab0c56e502b1c372a3d2a9c7a5af1928315610608577f0af63efacf28433915ea2d25f6e48eb87264e585bebef968bcd127a52608adec93612f1e91600091612f255750613565565b9150612e5c565b612f3e915060203d602011610601576105f38183613380565b87612075565b60405163a9059cbb60e01b815233600482015260248101839052602081604481600073765de816845861e75a25fca122bb6898b8b1282a5af1801561060857612f9491600091612f995750613522565b612e56565b612fb2915060203d602011610601576105f38183613380565b86611fc3565b600090612fd6575b600080809381933390f115610608578385612e4e565b506108fc612fc0565b60405162461bcd60e51b81526020600482015260096024820152684e6f20626f756e747960b81b6044820152606490fd5b506001600160801b0386161515612dff565b508360801c1515612df8565b60405162461bcd60e51b815260206004820152600a6024820152692737ba103334b73232b960b11b6044820152606490fd5b60405162461bcd60e51b815260206004820152600d60248201526c14195d081b9bdd08199bdd5b99609a1b6044820152606490fd5b3461013f57600036600319011261013f576020600154604051908152f35b3461013f57600036600319011261013f576020604051678ac7230489e800008152f35b3461013f57602036600319011261013f576004356001600160a01b038116810361013f5761311260018060a01b0360005460081c163314613445565b6040516370a0823160e01b815230600482015260208160248173765de816845861e75a25fca122bb6898b8b1282a5afa90811561060857600091613205575b5060405163a9059cbb60e01b81526001600160a01b039092166004830152602482015260208180604481015b0381600073765de816845861e75a25fca122bb6898b8b1282a5af1908115610608576000916131e6575b50156131af57005b60405162461bcd60e51b815260206004820152600f60248201526e151c985b9cd9995c8819985a5b1959608a1b6044820152606490fd5b6131ff915060203d602011610601576105f38183613380565b816131a7565b90506020813d602011613231575b8161322060209383613380565b8101031261013f575161317d613151565b3d9150613213565b3461013f57602036600319011261013f5760043560005260036020526020604060002054604051908152f35b3461013f57600036600319011261013f57806276a70060209252f35b906020808351928381520192019060005b81811061329f5750505090565b8251845260209384019390920191600101613292565b60005b8381106132c85750506000910152565b81810151838201526020016132b8565b906020916132f1815180928185528580860191016132b5565b601f01601f1916010190565b9181601f8401121561013f578235916001600160401b03831161013f576020838186019501011161013f57565b90600182811c9216801561335a575b602083101461334457565b634e487b7160e01b600052602260045260246000fd5b91607f1691613339565b6102a081019081106001600160401b0382111761189357604052565b90601f801991011681019081106001600160401b0382111761189357604052565b90604051918260008254926133b58461332a565b808452936001811690811561342357506001146133dc575b506133da92500383613380565b565b90506000929192526020600020906000915b8183106134075750509060206133da92820101386133cd565b60209193508060019154838589010152019101909184926133ee565b9050602092506133da94915060ff191682840152151560051b820101386133cd565b1561344c57565b60405162461bcd60e51b81526020600482015260096024820152682737ba1030b236b4b760b91b6044820152606490fd5b9081602091031261013f5751801515810361013f5790565b1561349c57565b60405162461bcd60e51b815260206004820152601260248201527114195d08191bd95cc81b9bdd08195e1a5cdd60721b6044820152606490fd5b156134dd57565b60405162461bcd60e51b815260206004820152601f60248201527f5265656e7472616e637947756172643a207265656e7472616e742063616c6c006044820152606490fd5b1561352957565b60405162461bcd60e51b815260206004820152601460248201527318d554d1081d1c985b9cd9995c8819985a5b195960621b6044820152606490fd5b1561356c57565b60405162461bcd60e51b815260206004820152601260248201527111c9081d1c985b9cd9995c8819985a5b195960721b6044820152606490fd5b60001981146125355760010190565b6001600160401b0381116118935760051b60200190565b906135d6826135b5565b6135e36040519182613380565b82815280926135f4601f19916135b5565b0190602036910137565b80518210156136125760209160051b010190565b634e487b7160e01b600052603260045260246000fd5b1561362f57565b60405162461bcd60e51b815260206004820152600d60248201526c2737ba103832ba1037bbb732b960991b6044820152606490fd5b1561366b57565b60405162461bcd60e51b815260206004820152600d60248201526c105b1c9958591e48199bdd5b99609a1b6044820152606490fd5b9291926001600160401b03821161189357604051916136c9601f8201601f191660200184613380565b82948184528183011161013f578281602093846000960137010152565b156136ee5750565b60405162461bcd60e51b8152602060048201529081906137129060248301906132d8565b0390fd5b6137219136916136a0565b805190600282101591826137e8575b506040519183519280602086019480602083019061374e91886132b5565b8101602081016e081b195b99dd1a081a5b9d985b1a59608a1b90520360200160101981018252600f016137819082613380565b61378a916136e6565b613793906138ab565b1591604051918291519081602084016137ab926132b5565b8101602081016f2063616e6e6f7420626520626c616e6b60801b905203602001600f19810182526010016137df9082613380565b6133da916136e6565b60321015915038613730565b908151811015613612570160200190565b60058151106138a55760008091815b815183101561389357600160fe1b6001600160f81b031961383585856137f4565b5116036138545761384c57600180925b0191613814565b505050600090565b918280613872575b613869575b600190613845565b60019350613861565b50601760f91b6001600160f81b031961388b83856137f4565b51161461385c565b92915050816138a0575090565b905090565b50600090565b60005b81518110156138e557600160fd1b6001600160f81b03196138cf83856137f4565b5116036138de576001016138ae565b5050600090565b505060019056fea264697066735822122089384e79e4a59260ebc3a86aa8f4e77656e509cbb01474fc26fe3dcb1414151f64736f6c634300081c0033",
          "opcodes": "PUSH1 0x80 DUP1 PUSH1 0x40 MSTORE CALLVALUE PUSH1 0x35 JUMPI PUSH1 0x0 DUP1 SLOAD PUSH2 0x100 PUSH1 0x1 PUSH1 0xA8 SHL SUB NOT AND CALLER PUSH1 0x8 SHL PUSH2 0x100 PUSH1 0x1 PUSH1 0xA8 SHL SUB AND OR SWAP1 SSTORE PUSH2 0x3922 SWAP1 DUP2 PUSH2 0x3B DUP3 CODECOPY RETURN JUMPDEST PUSH1 0x0 DUP1 REVERT INVALID PUSH2 0x420 DUP1 PUSH1 0x40 MSTORE PUSH1 0x4 CALLDATASIZE LT ISZERO PUSH2 0x14 JUMPI PUSH1 0x0 DUP1 REVERT JUMPDEST PUSH1 0x0 CALLDATALOAD PUSH1 0xE0 SHR SWAP1 DUP2 PUSH4 0xB5D39FA EQ PUSH2 0x3265 JUMPI POP DUP1 PUSH4 0x1850E3A7 EQ PUSH2 0x3239 JUMPI DUP1 PUSH4 0x3F26DECD EQ PUSH2 0x30D6 JUMPI DUP1 PUSH4 0x3FA8BE32 EQ PUSH2 0x30B3 JUMPI DUP1 PUSH4 0x403F8CC7 EQ PUSH2 0x3095 JUMPI DUP1 PUSH4 0x44021AD7 EQ PUSH2 0x2D69 JUMPI DUP1 PUSH4 0x465C66E9 EQ PUSH2 0x2D3A JUMPI DUP1 PUSH4 0x543DF5A3 EQ PUSH2 0x27F8 JUMPI DUP1 PUSH4 0x5E23985B EQ PUSH2 0x269D JUMPI DUP1 PUSH4 0x75829DEF EQ PUSH2 0x25D5 JUMPI DUP1 PUSH4 0x8B504C17 EQ PUSH2 0x2570 JUMPI DUP1 PUSH4 0x9DC5AC72 EQ PUSH2 0x254B JUMPI DUP1 PUSH4 0xA06E0061 EQ PUSH2 0x243A JUMPI DUP1 PUSH4 0xB3035B64 EQ PUSH2 0x22DC JUMPI DUP1 PUSH4 0xCE2ED0E2 EQ PUSH2 0x9FE JUMPI DUP1 PUSH4 0xCFB869BF EQ PUSH2 0x78B JUMPI DUP1 PUSH4 0xD25A6F05 EQ PUSH2 0x75F JUMPI DUP1 PUSH4 0xD32BFB6C EQ PUSH2 0x425 JUMPI DUP1 PUSH4 0xD74A48A4 EQ PUSH2 0x3F9 JUMPI DUP1 PUSH4 0xD89FD4B4 EQ PUSH2 0x173 JUMPI DUP1 PUSH4 0xEE7AFB1C EQ PUSH2 0x144 JUMPI PUSH4 0xF851A440 EQ PUSH2 0x112 JUMPI PUSH1 0x0 DUP1 REVERT JUMPDEST CALLVALUE PUSH2 0x13F JUMPI PUSH1 0x0 CALLDATASIZE PUSH1 0x3 NOT ADD SLT PUSH2 0x13F JUMPI PUSH1 0x0 SLOAD PUSH1 0x40 MLOAD PUSH1 0x8 SWAP2 SWAP1 SWAP2 SHR PUSH1 0x1 PUSH1 0x1 PUSH1 0xA0 SHL SUB AND DUP2 MSTORE PUSH1 0x20 SWAP1 RETURN JUMPDEST PUSH1 0x0 DUP1 REVERT JUMPDEST CALLVALUE PUSH2 0x13F JUMPI PUSH1 0x0 CALLDATASIZE PUSH1 0x3 NOT ADD SLT PUSH2 0x13F JUMPI PUSH1 0x20 PUSH1 0x40 MLOAD PUSH20 0x62B8B11039FCFE5AB0C56E502B1C372A3D2A9C7A DUP2 MSTORE RETURN JUMPDEST CALLVALUE PUSH2 0x13F JUMPI PUSH1 0x20 CALLDATASIZE PUSH1 0x3 NOT ADD SLT PUSH2 0x13F JUMPI PUSH1 0x4 CALLDATALOAD PUSH1 0x1 SLOAD DUP2 LT PUSH2 0x195 SWAP1 PUSH2 0x3495 JUMP JUMPDEST PUSH1 0x0 MSTORE PUSH1 0x2 PUSH1 0x20 MSTORE PUSH1 0x40 PUSH1 0x0 KECCAK256 DUP1 SLOAD PUSH1 0x1 PUSH1 0xA0 SHL PUSH1 0x1 SWAP1 SUB PUSH1 0x1 DUP4 ADD SLOAD AND PUSH1 0x5 DUP4 ADD SLOAD SWAP2 PUSH1 0xD DUP5 ADD SLOAD SWAP4 PUSH1 0xE DUP2 ADD SLOAD SWAP3 PUSH1 0x1 PUSH1 0xA0 SHL PUSH1 0x1 SWAP1 SUB PUSH1 0xF DUP4 ADD SLOAD AND SWAP5 PUSH1 0x2 DUP4 ADD PUSH2 0x1E2 SWAP1 PUSH2 0x33A1 JUMP JUMPDEST SWAP1 PUSH2 0x1EF PUSH1 0x3 DUP6 ADD PUSH2 0x33A1 JUMP JUMPDEST SWAP1 PUSH2 0x1FC PUSH1 0x4 DUP7 ADD PUSH2 0x33A1 JUMP JUMPDEST SWAP1 PUSH2 0x209 PUSH1 0x6 DUP8 ADD PUSH2 0x33A1 JUMP JUMPDEST SWAP1 PUSH2 0x216 PUSH1 0x7 DUP9 ADD PUSH2 0x33A1 JUMP JUMPDEST SWAP3 PUSH2 0x223 PUSH1 0x8 DUP10 ADD PUSH2 0x33A1 JUMP JUMPDEST SWAP5 PUSH2 0x230 PUSH1 0x9 DUP11 ADD PUSH2 0x33A1 JUMP JUMPDEST SWAP7 PUSH2 0x23D PUSH1 0xA DUP12 ADD PUSH2 0x33A1 JUMP JUMPDEST SWAP9 PUSH2 0x24A PUSH1 0xB DUP13 ADD PUSH2 0x33A1 JUMP JUMPDEST SWAP11 PUSH1 0xC ADD PUSH2 0x257 SWAP1 PUSH2 0x33A1 JUMP JUMPDEST SWAP12 PUSH1 0x40 MLOAD PUSH2 0x3E0 MSTORE PUSH2 0x3E0 MLOAD MSTORE PUSH2 0x3E0 MLOAD PUSH1 0x20 ADD MSTORE PUSH2 0x3E0 MLOAD PUSH1 0x40 ADD PUSH2 0x2A0 SWAP1 MSTORE PUSH2 0x3E0 MLOAD PUSH2 0x2A0 ADD PUSH2 0x289 SWAP2 PUSH2 0x32D8 JUMP JUMPDEST PUSH2 0x3E0 MLOAD DUP2 SUB PUSH2 0x3E0 MLOAD PUSH1 0x60 ADD MSTORE PUSH2 0x2A0 SWAP2 PUSH2 0x32D8 JUMP JUMPDEST PUSH2 0x3E0 MLOAD DUP2 SUB PUSH2 0x3E0 MLOAD PUSH1 0x80 ADD MSTORE PUSH2 0x2B7 SWAP2 PUSH2 0x32D8 JUMP JUMPDEST SWAP1 PUSH1 0x1 PUSH1 0x1 PUSH1 0x80 SHL SUB DUP2 AND PUSH2 0x3E0 MLOAD PUSH1 0xA0 ADD MSTORE PUSH1 0x80 SHR PUSH2 0x3E0 MLOAD PUSH1 0xC0 ADD MSTORE PUSH2 0x3E0 MLOAD DUP2 SUB PUSH2 0x3E0 MLOAD PUSH1 0xE0 ADD MSTORE PUSH2 0x2EC SWAP2 PUSH2 0x32D8 JUMP JUMPDEST PUSH2 0x3E0 MLOAD DUP2 SUB PUSH2 0x3E0 MLOAD PUSH2 0x100 ADD MSTORE PUSH2 0x304 SWAP2 PUSH2 0x32D8 JUMP JUMPDEST PUSH2 0x3E0 MLOAD DUP2 SUB PUSH2 0x3E0 MLOAD PUSH2 0x120 ADD MSTORE PUSH2 0x31C SWAP2 PUSH2 0x32D8 JUMP JUMPDEST PUSH2 0x3E0 MLOAD DUP2 SUB PUSH2 0x3E0 MLOAD PUSH2 0x140 ADD MSTORE PUSH2 0x334 SWAP2 PUSH2 0x32D8 JUMP JUMPDEST PUSH2 0x3E0 MLOAD DUP2 SUB PUSH2 0x3E0 MLOAD PUSH2 0x160 ADD MSTORE PUSH2 0x34C SWAP2 PUSH2 0x32D8 JUMP JUMPDEST PUSH2 0x3E0 MLOAD DUP2 SUB PUSH2 0x3E0 MLOAD PUSH2 0x180 ADD MSTORE PUSH2 0x364 SWAP2 PUSH2 0x32D8 JUMP JUMPDEST PUSH2 0x3E0 MLOAD DUP2 SUB PUSH2 0x3E0 MLOAD PUSH2 0x1A0 ADD MSTORE PUSH2 0x37C SWAP2 PUSH2 0x32D8 JUMP JUMPDEST SWAP3 PUSH1 0x1 PUSH1 0x1 PUSH1 0x80 SHL SUB DUP2 AND PUSH2 0x3E0 MLOAD PUSH2 0x1C0 ADD MSTORE PUSH1 0x80 SHR PUSH2 0x3E0 MLOAD PUSH2 0x1E0 ADD MSTORE PUSH1 0x1 PUSH1 0x1 PUSH1 0x80 SHL SUB DUP2 AND PUSH2 0x3E0 MLOAD PUSH2 0x200 ADD MSTORE DUP1 PUSH1 0x80 SHR PUSH1 0xFF AND ISZERO ISZERO PUSH2 0x3E0 MLOAD PUSH2 0x220 ADD MSTORE DUP1 PUSH1 0x88 SHR PUSH1 0xFF AND ISZERO ISZERO PUSH2 0x3E0 MLOAD PUSH2 0x240 ADD MSTORE PUSH1 0x90 SHR PUSH1 0xFF AND ISZERO ISZERO PUSH2 0x3E0 MLOAD PUSH2 0x260 ADD MSTORE PUSH2 0x3E0 MLOAD PUSH2 0x280 ADD MSTORE PUSH2 0x3E0 MLOAD SWAP1 SUB PUSH2 0x3E0 MLOAD RETURN JUMPDEST CALLVALUE PUSH2 0x13F JUMPI PUSH1 0x20 CALLDATASIZE PUSH1 0x3 NOT ADD SLT PUSH2 0x13F JUMPI PUSH1 0x4 CALLDATALOAD PUSH1 0x0 MSTORE PUSH1 0x5 PUSH1 0x20 MSTORE PUSH1 0x20 PUSH1 0x40 PUSH1 0x0 KECCAK256 SLOAD PUSH1 0x40 MLOAD SWAP1 DUP2 MSTORE RETURN JUMPDEST CALLVALUE PUSH2 0x13F JUMPI PUSH1 0x20 CALLDATASIZE PUSH1 0x3 NOT ADD SLT PUSH2 0x13F JUMPI PUSH1 0x4 CALLDATALOAD DUP1 PUSH1 0x0 MSTORE PUSH1 0x2 PUSH1 0x20 MSTORE PUSH2 0x45D PUSH1 0x1 DUP1 PUSH1 0xA0 SHL SUB PUSH1 0x1 PUSH1 0x40 PUSH1 0x0 KECCAK256 ADD SLOAD AND CALLER EQ PUSH2 0x3628 JUMP JUMPDEST PUSH1 0x1 PUSH1 0x0 SLOAD PUSH2 0x46F PUSH1 0xFF DUP3 AND ISZERO PUSH2 0x34D6 JUMP JUMPDEST PUSH1 0xFF NOT AND OR PUSH1 0x0 SSTORE DUP1 PUSH1 0x0 MSTORE PUSH1 0x2 PUSH1 0x20 MSTORE PUSH1 0x40 PUSH1 0x0 KECCAK256 SWAP1 PUSH1 0xE DUP3 ADD SWAP2 DUP3 SLOAD SWAP1 PUSH1 0xFF DUP3 PUSH1 0x80 SHR AND PUSH2 0x726 JUMPI PUSH1 0xF DUP2 ADD SLOAD PUSH1 0x1 PUSH1 0x1 PUSH1 0xA0 SHL SUB AND PUSH2 0x6E1 JUMPI PUSH1 0xD ADD DUP1 SLOAD PUSH1 0x0 SWAP2 DUP3 SWAP1 SSTORE DUP5 SLOAD PUSH1 0x1 PUSH1 0x1 PUSH1 0x80 SHL SUB NOT AND SWAP1 SWAP5 SSTORE DUP3 DUP2 MSTORE PUSH1 0x3 PUSH1 0x20 SWAP1 DUP2 MSTORE PUSH1 0x40 DUP1 DUP4 KECCAK256 DUP4 SWAP1 SSTORE PUSH1 0x4 SWAP1 SWAP2 MSTORE DUP2 KECCAK256 SSTORE PUSH1 0x1 PUSH1 0x1 PUSH1 0x80 SHL SUB DUP1 DUP5 AND SWAP4 PUSH1 0x80 SHR SWAP2 AND DUP4 DUP1 ISZERO DUP1 ISZERO PUSH2 0x6BA JUMPI JUMPDEST POP POP DUP2 PUSH2 0x614 JUMPI JUMPDEST DUP1 PUSH2 0x554 JUMPI JUMPDEST PUSH1 0x40 DUP1 MLOAD SWAP5 DUP6 MSTORE PUSH1 0x20 DUP6 ADD SWAP3 SWAP1 SWAP3 MSTORE SWAP1 DUP4 ADD MSTORE CALLER SWAP2 PUSH32 0x5A15FED544596F86AB10D13CE99DFEB4E13095D939B5749AE220FBC4F0584636 SWAP1 DUP1 PUSH1 0x60 DUP2 ADD JUMPDEST SUB SWAP1 LOG3 PUSH1 0x0 DUP1 SLOAD PUSH1 0xFF NOT AND SWAP1 SSTORE STOP JUMPDEST PUSH1 0x40 MLOAD PUSH4 0xA9059CBB PUSH1 0xE0 SHL DUP2 MSTORE CALLER PUSH1 0x4 DUP3 ADD MSTORE PUSH1 0x24 DUP2 ADD DUP3 SWAP1 MSTORE PUSH1 0x20 DUP2 PUSH1 0x44 DUP2 PUSH1 0x0 PUSH20 0x62B8B11039FCFE5AB0C56E502B1C372A3D2A9C7A GAS CALL SWAP1 DUP2 ISZERO PUSH2 0x608 JUMPI PUSH1 0x0 SWAP2 PUSH2 0x5D9 JUMPI JUMPDEST POP PUSH2 0x508 JUMPI PUSH1 0x40 MLOAD PUSH3 0x461BCD PUSH1 0xE5 SHL DUP2 MSTORE PUSH1 0x20 PUSH1 0x4 DUP3 ADD MSTORE PUSH1 0x10 PUSH1 0x24 DUP3 ADD MSTORE PUSH16 0x11C9081C99599D5B990819985A5B1959 PUSH1 0x82 SHL PUSH1 0x44 DUP3 ADD MSTORE PUSH1 0x64 SWAP1 REVERT JUMPDEST PUSH2 0x5FB SWAP2 POP PUSH1 0x20 RETURNDATASIZE PUSH1 0x20 GT PUSH2 0x601 JUMPI JUMPDEST PUSH2 0x5F3 DUP2 DUP4 PUSH2 0x3380 JUMP JUMPDEST DUP2 ADD SWAP1 PUSH2 0x347D JUMP JUMPDEST DUP6 PUSH2 0x59C JUMP JUMPDEST POP RETURNDATASIZE PUSH2 0x5E9 JUMP JUMPDEST PUSH1 0x40 MLOAD RETURNDATASIZE PUSH1 0x0 DUP3 RETURNDATACOPY RETURNDATASIZE SWAP1 REVERT JUMPDEST PUSH1 0x40 MLOAD PUSH4 0xA9059CBB PUSH1 0xE0 SHL DUP2 MSTORE CALLER PUSH1 0x4 DUP3 ADD MSTORE PUSH1 0x24 DUP2 ADD DUP4 SWAP1 MSTORE PUSH1 0x20 DUP2 PUSH1 0x44 DUP2 PUSH1 0x0 PUSH20 0x765DE816845861E75A25FCA122BB6898B8B1282A GAS CALL SWAP1 DUP2 ISZERO PUSH2 0x608 JUMPI PUSH1 0x0 SWAP2 PUSH2 0x69B JUMPI JUMPDEST POP PUSH2 0x502 JUMPI PUSH1 0x40 MLOAD PUSH3 0x461BCD PUSH1 0xE5 SHL DUP2 MSTORE PUSH1 0x20 PUSH1 0x4 DUP3 ADD MSTORE PUSH1 0x12 PUSH1 0x24 DUP3 ADD MSTORE PUSH18 0x18D554D1081C99599D5B990819985A5B1959 PUSH1 0x72 SHL PUSH1 0x44 DUP3 ADD MSTORE PUSH1 0x64 SWAP1 REVERT JUMPDEST PUSH2 0x6B4 SWAP2 POP PUSH1 0x20 RETURNDATASIZE PUSH1 0x20 GT PUSH2 0x601 JUMPI PUSH2 0x5F3 DUP2 DUP4 PUSH2 0x3380 JUMP JUMPDEST DUP6 PUSH2 0x65C JUMP JUMPDEST PUSH1 0x0 SWAP1 PUSH2 0x6D8 JUMPI JUMPDEST PUSH1 0x0 DUP1 DUP1 SWAP4 DUP2 SWAP4 CALLER SWAP1 CALL ISZERO PUSH2 0x608 JUMPI DUP4 DUP6 PUSH2 0x4FA JUMP JUMPDEST POP PUSH2 0x8FC PUSH2 0x6C2 JUMP JUMPDEST PUSH1 0x40 MLOAD PUSH3 0x461BCD PUSH1 0xE5 SHL DUP2 MSTORE PUSH1 0x20 PUSH1 0x4 DUP3 ADD MSTORE PUSH1 0x17 PUSH1 0x24 DUP3 ADD MSTORE PUSH32 0x46696E64657220616C72656164792061737369676E6564000000000000000000 PUSH1 0x44 DUP3 ADD MSTORE PUSH1 0x64 SWAP1 REVERT JUMPDEST PUSH1 0x40 MLOAD PUSH3 0x461BCD PUSH1 0xE5 SHL DUP2 MSTORE PUSH1 0x20 PUSH1 0x4 DUP3 ADD MSTORE PUSH1 0x11 PUSH1 0x24 DUP3 ADD MSTORE PUSH17 0x14195D08185B1C9958591E48199BDD5B99 PUSH1 0x7A SHL PUSH1 0x44 DUP3 ADD MSTORE PUSH1 0x64 SWAP1 REVERT JUMPDEST CALLVALUE PUSH2 0x13F JUMPI PUSH1 0x20 CALLDATASIZE PUSH1 0x3 NOT ADD SLT PUSH2 0x13F JUMPI PUSH1 0x4 CALLDATALOAD PUSH1 0x0 MSTORE PUSH1 0x4 PUSH1 0x20 MSTORE PUSH1 0x20 PUSH1 0x40 PUSH1 0x0 KECCAK256 SLOAD PUSH1 0x40 MLOAD SWAP1 DUP2 MSTORE RETURN JUMPDEST CALLVALUE PUSH2 0x13F JUMPI PUSH1 0x20 CALLDATASIZE PUSH1 0x3 NOT ADD SLT PUSH2 0x13F JUMPI PUSH1 0x4 CALLDATALOAD PUSH1 0x0 MSTORE PUSH1 0x2 PUSH1 0x20 MSTORE PUSH1 0x40 PUSH1 0x0 KECCAK256 DUP1 SLOAD PUSH1 0x1 PUSH1 0xA0 SHL PUSH1 0x1 SWAP1 SUB PUSH1 0x1 DUP4 ADD SLOAD AND SWAP2 PUSH1 0x2 DUP2 ADD PUSH2 0x7CB SWAP1 PUSH2 0x33A1 JUMP JUMPDEST PUSH2 0x7D7 PUSH1 0x3 DUP4 ADD PUSH2 0x33A1 JUMP JUMPDEST PUSH2 0x7E3 PUSH1 0x4 DUP5 ADD PUSH2 0x33A1 JUMP JUMPDEST PUSH1 0x5 DUP5 ADD SLOAD PUSH2 0x7F4 PUSH1 0x6 DUP7 ADD PUSH2 0x33A1 JUMP JUMPDEST PUSH2 0x800 PUSH1 0x7 DUP8 ADD PUSH2 0x33A1 JUMP JUMPDEST PUSH2 0x80C PUSH1 0x8 DUP9 ADD PUSH2 0x33A1 JUMP JUMPDEST SWAP2 PUSH2 0x819 PUSH1 0x9 DUP10 ADD PUSH2 0x33A1 JUMP JUMPDEST SWAP4 PUSH2 0x826 PUSH1 0xA DUP11 ADD PUSH2 0x33A1 JUMP JUMPDEST SWAP6 PUSH2 0x833 PUSH1 0xB DUP12 ADD PUSH2 0x33A1 JUMP JUMPDEST SWAP8 PUSH2 0x840 PUSH1 0xC DUP13 ADD PUSH2 0x33A1 JUMP JUMPDEST SWAP10 PUSH1 0xD DUP13 ADD SLOAD SWAP14 PUSH1 0xE DUP14 ADD SLOAD SWAP13 PUSH1 0x1 PUSH1 0xA0 SHL PUSH1 0x1 SWAP1 SUB SWAP1 PUSH1 0xF ADD SLOAD AND SWAP14 PUSH1 0x40 MLOAD PUSH2 0x400 MSTORE PUSH2 0x400 MLOAD MSTORE PUSH2 0x400 MLOAD PUSH1 0x20 ADD MSTORE PUSH2 0x400 MLOAD PUSH1 0x40 ADD PUSH2 0x2A0 SWAP1 MSTORE PUSH2 0x400 MLOAD PUSH2 0x2A0 ADD PUSH2 0x88E SWAP2 PUSH2 0x32D8 JUMP JUMPDEST PUSH2 0x400 MLOAD DUP2 SUB PUSH2 0x400 MLOAD PUSH1 0x60 ADD MSTORE PUSH2 0x8A5 SWAP2 PUSH2 0x32D8 JUMP JUMPDEST PUSH2 0x400 MLOAD DUP2 SUB PUSH2 0x400 MLOAD PUSH1 0x80 ADD MSTORE PUSH2 0x8BC SWAP2 PUSH2 0x32D8 JUMP JUMPDEST SWAP1 PUSH1 0x1 PUSH1 0x1 PUSH1 0x80 SHL SUB DUP2 AND PUSH2 0x400 MLOAD PUSH1 0xA0 ADD MSTORE PUSH1 0x80 SHR PUSH2 0x400 MLOAD PUSH1 0xC0 ADD MSTORE PUSH2 0x400 MLOAD DUP2 SUB PUSH2 0x400 MLOAD PUSH1 0xE0 ADD MSTORE PUSH2 0x8F1 SWAP2 PUSH2 0x32D8 JUMP JUMPDEST PUSH2 0x400 MLOAD DUP2 SUB PUSH2 0x400 MLOAD PUSH2 0x100 ADD MSTORE PUSH2 0x909 SWAP2 PUSH2 0x32D8 JUMP JUMPDEST PUSH2 0x400 MLOAD DUP2 SUB PUSH2 0x400 MLOAD PUSH2 0x120 ADD MSTORE PUSH2 0x921 SWAP2 PUSH2 0x32D8 JUMP JUMPDEST PUSH2 0x400 MLOAD DUP2 SUB PUSH2 0x400 MLOAD PUSH2 0x140 ADD MSTORE PUSH2 0x939 SWAP2 PUSH2 0x32D8 JUMP JUMPDEST PUSH2 0x400 MLOAD DUP2 SUB PUSH2 0x400 MLOAD PUSH2 0x160 ADD MSTORE PUSH2 0x951 SWAP2 PUSH2 0x32D8 JUMP JUMPDEST PUSH2 0x400 MLOAD DUP2 SUB PUSH2 0x400 MLOAD PUSH2 0x180 ADD MSTORE PUSH2 0x969 SWAP2 PUSH2 0x32D8 JUMP JUMPDEST PUSH2 0x400 MLOAD DUP2 SUB PUSH2 0x400 MLOAD PUSH2 0x1A0 ADD MSTORE PUSH2 0x981 SWAP2 PUSH2 0x32D8 JUMP JUMPDEST SWAP3 PUSH1 0x1 PUSH1 0x1 PUSH1 0x80 SHL SUB DUP2 AND PUSH2 0x400 MLOAD PUSH2 0x1C0 ADD MSTORE PUSH1 0x80 SHR PUSH2 0x400 MLOAD PUSH2 0x1E0 ADD MSTORE PUSH1 0x1 PUSH1 0x1 PUSH1 0x80 SHL SUB DUP2 AND PUSH2 0x400 MLOAD PUSH2 0x200 ADD MSTORE DUP1 PUSH1 0x80 SHR PUSH1 0xFF AND ISZERO ISZERO PUSH2 0x400 MLOAD PUSH2 0x220 ADD MSTORE DUP1 PUSH1 0x88 SHR PUSH1 0xFF AND ISZERO ISZERO PUSH2 0x400 MLOAD PUSH2 0x240 ADD MSTORE PUSH1 0x90 SHR PUSH1 0xFF AND ISZERO ISZERO PUSH2 0x400 MLOAD PUSH2 0x260 ADD MSTORE PUSH2 0x400 MLOAD PUSH2 0x280 ADD MSTORE PUSH2 0x400 MLOAD SWAP1 SUB PUSH2 0x400 MLOAD RETURN JUMPDEST PUSH2 0x1C0 CALLDATASIZE PUSH1 0x3 NOT ADD SLT PUSH2 0x13F JUMPI PUSH1 0x4 CALLDATALOAD PUSH1 0x1 PUSH1 0x1 PUSH1 0x40 SHL SUB DUP2 GT PUSH2 0x13F JUMPI PUSH2 0xA2A SWAP1 CALLDATASIZE SWAP1 PUSH1 0x4 ADD PUSH2 0x32FD JUMP JUMPDEST PUSH2 0x380 MSTORE PUSH2 0x260 MSTORE PUSH1 0x24 CALLDATALOAD PUSH1 0x1 PUSH1 0x1 PUSH1 0x40 SHL SUB DUP2 GT PUSH2 0x13F JUMPI PUSH2 0xA51 SWAP1 CALLDATASIZE SWAP1 PUSH1 0x4 ADD PUSH2 0x32FD JUMP JUMPDEST PUSH2 0x3C0 MSTORE PUSH2 0x340 MSTORE PUSH1 0x44 CALLDATALOAD PUSH1 0x1 PUSH1 0x1 PUSH1 0x40 SHL SUB DUP2 GT PUSH2 0x13F JUMPI PUSH2 0xA78 SWAP1 CALLDATASIZE SWAP1 PUSH1 0x4 ADD PUSH2 0x32FD JUMP JUMPDEST PUSH2 0x3A0 MSTORE PUSH2 0x100 MSTORE PUSH1 0x64 CALLDATALOAD PUSH2 0x140 DUP2 SWAP1 MSTORE PUSH1 0x1 PUSH1 0x1 PUSH1 0x80 SHL SUB DUP2 AND SWAP1 SUB PUSH2 0x13F JUMPI PUSH1 0x84 CALLDATALOAD PUSH2 0x160 DUP2 SWAP1 MSTORE PUSH1 0x1 PUSH1 0x1 PUSH1 0x80 SHL SUB DUP2 AND SWAP1 SUB PUSH2 0x13F JUMPI PUSH1 0xA4 CALLDATALOAD PUSH1 0x1 PUSH1 0x1 PUSH1 0x40 SHL SUB DUP2 GT PUSH2 0x13F JUMPI PUSH2 0xAD1 SWAP1 CALLDATASIZE SWAP1 PUSH1 0x4 ADD PUSH2 0x32FD JUMP JUMPDEST PUSH2 0x1C0 MSTORE PUSH2 0x1E0 MSTORE PUSH1 0xC4 CALLDATALOAD PUSH1 0x1 PUSH1 0x1 PUSH1 0x40 SHL SUB DUP2 GT PUSH2 0x13F JUMPI PUSH2 0xAF8 SWAP1 CALLDATASIZE SWAP1 PUSH1 0x4 ADD PUSH2 0x32FD JUMP JUMPDEST PUSH2 0x220 MSTORE PUSH2 0x240 MSTORE PUSH1 0xE4 CALLDATALOAD PUSH1 0x1 PUSH1 0x1 PUSH1 0x40 SHL SUB DUP2 GT PUSH2 0x13F JUMPI PUSH2 0xB1F SWAP1 CALLDATASIZE SWAP1 PUSH1 0x4 ADD PUSH2 0x32FD JUMP JUMPDEST PUSH2 0x360 MSTORE PUSH2 0x2E0 MSTORE PUSH2 0x104 CALLDATALOAD PUSH1 0x1 PUSH1 0x1 PUSH1 0x40 SHL SUB DUP2 GT PUSH2 0x13F JUMPI PUSH2 0xB47 SWAP1 CALLDATASIZE SWAP1 PUSH1 0x4 ADD PUSH2 0x32FD JUMP JUMPDEST PUSH2 0x280 MSTORE PUSH2 0x320 MSTORE PUSH2 0x124 CALLDATALOAD PUSH1 0x1 PUSH1 0x1 PUSH1 0x40 SHL SUB DUP2 GT PUSH2 0x13F JUMPI PUSH2 0xB6F SWAP1 CALLDATASIZE SWAP1 PUSH1 0x4 ADD PUSH2 0x32FD JUMP JUMPDEST PUSH2 0x300 MSTORE PUSH2 0x2C0 MSTORE PUSH1 0x1 PUSH1 0x1 PUSH1 0x40 SHL SUB PUSH2 0x144 CALLDATALOAD GT PUSH2 0x13F JUMPI PUSH2 0xB98 CALLDATASIZE PUSH2 0x144 CALLDATALOAD PUSH1 0x4 ADD PUSH2 0x32FD JUMP JUMPDEST PUSH2 0x2A0 MSTORE PUSH2 0x200 MSTORE PUSH2 0x164 CALLDATALOAD PUSH1 0x1 PUSH1 0x1 PUSH1 0x40 SHL SUB DUP2 GT PUSH2 0x13F JUMPI PUSH2 0xBC0 SWAP1 CALLDATASIZE SWAP1 PUSH1 0x4 ADD PUSH2 0x32FD JUMP JUMPDEST PUSH2 0x1A0 MSTORE PUSH2 0x180 MSTORE PUSH2 0x184 CALLDATALOAD PUSH2 0x120 DUP2 SWAP1 MSTORE PUSH1 0x1 PUSH1 0x1 PUSH1 0x80 SHL SUB DUP2 AND SWAP1 SUB PUSH2 0x13F JUMPI PUSH2 0x1A4 CALLDATALOAD PUSH1 0xE0 DUP2 SWAP1 MSTORE PUSH1 0x1 PUSH1 0x1 PUSH1 0x80 SHL SUB DUP2 AND SWAP1 SUB PUSH2 0x13F JUMPI PUSH1 0x1 PUSH1 0x0 SLOAD PUSH2 0xC0D PUSH1 0xFF DUP3 AND ISZERO PUSH2 0x34D6 JUMP JUMPDEST PUSH1 0xFF NOT AND OR PUSH1 0x0 SSTORE PUSH8 0x8AC7230489E80000 CALLVALUE GT PUSH2 0x229F JUMPI PUSH10 0x21E19E0C9BAB2400000 PUSH1 0x1 PUSH1 0x1 PUSH1 0x80 SHL SUB PUSH2 0x120 MLOAD AND GT PUSH2 0x2262 JUMPI PUSH10 0x21E19E0C9BAB2400000 PUSH1 0x1 PUSH1 0x1 PUSH1 0x80 SHL SUB PUSH1 0xE0 MLOAD AND GT PUSH2 0x2227 JUMPI CALLVALUE ISZERO DUP1 ISZERO SWAP1 PUSH2 0x2212 JUMPI JUMPDEST DUP1 ISZERO PUSH2 0x21FE JUMPI JUMPDEST ISZERO PUSH2 0x21C7 JUMPI PUSH1 0x40 PUSH1 0xC0 DUP2 SWAP1 MSTORE DUP1 MLOAD PUSH2 0xCA8 SWAP2 PUSH2 0xC8A SWAP1 DUP3 PUSH2 0x3380 JUMP JUMPDEST PUSH1 0x4 DUP2 MSTORE PUSH4 0x4E616D65 PUSH1 0xE0 SHL PUSH1 0x20 DUP3 ADD MSTORE PUSH2 0x380 MLOAD PUSH2 0x260 MLOAD PUSH2 0x3716 JUMP JUMPDEST PUSH1 0xC0 MLOAD DUP1 MLOAD PUSH2 0xCDA SWAP2 PUSH2 0xCBB SWAP1 DUP3 PUSH2 0x3380 JUMP JUMPDEST PUSH1 0x5 DUP2 MSTORE PUSH5 0x109C995959 PUSH1 0xDA SHL PUSH1 0x20 DUP3 ADD MSTORE PUSH2 0x3C0 MLOAD PUSH2 0x340 MLOAD PUSH2 0x3716 JUMP JUMPDEST PUSH1 0xC0 MLOAD DUP1 MLOAD PUSH2 0xDC2 SWAP2 PUSH2 0xCED SWAP1 DUP3 PUSH2 0x3380 JUMP JUMPDEST PUSH1 0x6 DUP2 MSTORE PUSH6 0x23B2B73232B9 PUSH1 0xD1 SHL PUSH1 0x20 DUP3 ADD MSTORE PUSH2 0xD78 PUSH2 0xD14 CALLDATASIZE PUSH2 0x3A0 MLOAD PUSH2 0x100 MLOAD PUSH2 0x36A0 JUMP JUMPDEST PUSH2 0xD73 DUP2 MLOAD PUSH1 0x1 DUP2 LT ISZERO SWAP1 DUP2 PUSH2 0x21BB JUMPI JUMPDEST POP PUSH1 0xC0 MLOAD MLOAD SWAP1 PUSH2 0xD6E PUSH1 0xF PUSH1 0x20 DUP5 DUP10 MLOAD PUSH2 0xD45 DUP2 DUP13 DUP6 DUP1 DUP7 ADD SWAP2 ADD PUSH2 0x32B5 JUMP JUMPDEST DUP2 ADD PUSH15 0x81B195B99DD1A081A5B9D985B1A59 PUSH1 0x8A SHL DUP4 DUP3 ADD MSTORE SUB ADD PUSH1 0x10 NOT DUP2 ADD DUP6 MSTORE ADD DUP4 PUSH2 0x3380 JUMP JUMPDEST PUSH2 0x36E6 JUMP JUMPDEST PUSH2 0x38AB JUMP JUMPDEST ISZERO PUSH2 0xD6E PUSH1 0x10 PUSH1 0x20 PUSH1 0xC0 MLOAD MLOAD DUP6 PUSH2 0xD98 DUP3 SWAP8 MLOAD DUP1 SWAP3 DUP6 DUP1 DUP7 ADD SWAP2 ADD PUSH2 0x32B5 JUMP JUMPDEST DUP2 ADD PUSH16 0x2063616E6E6F7420626520626C616E6B PUSH1 0x80 SHL DUP4 DUP3 ADD MSTORE SUB ADD PUSH1 0xF NOT DUP2 ADD DUP6 MSTORE ADD DUP4 PUSH2 0x3380 JUMP JUMPDEST PUSH1 0xC0 MLOAD POP PUSH2 0xE7C PUSH2 0xD98 PUSH1 0xC0 MLOAD MLOAD PUSH2 0xDDC PUSH1 0xC0 MLOAD DUP3 PUSH2 0x3380 JUMP JUMPDEST PUSH1 0xB DUP2 MSTORE PUSH2 0xD6E PUSH1 0x10 PUSH1 0x20 DUP1 DUP5 ADD SWAP4 PUSH11 0x2232B9B1B934B83A34B7B7 PUSH1 0xA9 SHL DUP6 MSTORE PUSH2 0xE67 PUSH2 0xE10 CALLDATASIZE PUSH2 0x220 MLOAD PUSH2 0x240 MLOAD PUSH2 0x36A0 JUMP JUMPDEST PUSH2 0xD73 DUP2 MLOAD PUSH1 0xA DUP2 LT ISZERO SWAP1 DUP2 PUSH2 0x21AE JUMPI JUMPDEST POP PUSH1 0xC0 MLOAD MLOAD SWAP1 PUSH2 0xD6E PUSH1 0xF DUP9 DUP5 DUP14 PUSH2 0xE3F DUP12 MLOAD DUP1 SWAP3 DUP6 DUP6 ADD SWAP1 PUSH2 0x32B5 JUMP JUMPDEST DUP2 ADD PUSH15 0x81B195B99DD1A081A5B9D985B1A59 PUSH1 0x8A SHL DUP4 DUP3 ADD MSTORE SUB ADD DUP11 NOT DUP2 ADD DUP6 MSTORE ADD DUP4 PUSH2 0x3380 JUMP JUMPDEST ISZERO SWAP5 PUSH1 0xC0 MLOAD MLOAD SWAP7 DUP8 SWAP3 MLOAD DUP1 SWAP3 DUP6 DUP6 ADD SWAP1 PUSH2 0x32B5 JUMP JUMPDEST PUSH1 0xC0 MLOAD POP PUSH2 0xEF6 PUSH2 0xD98 PUSH1 0xC0 MLOAD MLOAD PUSH2 0xE96 PUSH1 0xC0 MLOAD DUP3 PUSH2 0x3380 JUMP JUMPDEST PUSH1 0x9 DUP2 MSTORE PUSH2 0xD6E PUSH1 0x10 PUSH1 0x20 DUP1 DUP5 ADD SWAP4 PUSH9 0x125B5859D948155493 PUSH1 0xBA SHL DUP6 MSTORE PUSH2 0xE67 PUSH2 0xEC8 CALLDATASIZE PUSH2 0x360 MLOAD PUSH2 0x2E0 MLOAD PUSH2 0x36A0 JUMP JUMPDEST PUSH2 0xD73 DUP2 MLOAD PUSH1 0xA DUP2 LT ISZERO SWAP1 DUP2 PUSH2 0x21A2 JUMPI POP PUSH1 0xC0 MLOAD MLOAD SWAP1 PUSH2 0xD6E PUSH1 0xF DUP9 DUP5 DUP14 PUSH2 0xE3F DUP12 MLOAD DUP1 SWAP3 DUP6 DUP6 ADD SWAP1 PUSH2 0x32B5 JUMP JUMPDEST PUSH1 0xC0 MLOAD POP PUSH2 0xF6F PUSH2 0xD98 PUSH1 0xC0 MLOAD MLOAD PUSH2 0xF10 PUSH1 0xC0 MLOAD DUP3 PUSH2 0x3380 JUMP JUMPDEST PUSH1 0x8 DUP2 MSTORE PUSH2 0xD6E PUSH1 0x10 PUSH1 0x20 DUP1 DUP5 ADD SWAP4 PUSH8 0x2637B1B0BA34B7B7 PUSH1 0xC1 SHL DUP6 MSTORE PUSH2 0xE67 PUSH2 0xF41 CALLDATASIZE PUSH2 0x280 MLOAD PUSH2 0x320 MLOAD PUSH2 0x36A0 JUMP JUMPDEST PUSH2 0xD73 DUP2 MLOAD PUSH1 0x5 DUP2 LT ISZERO SWAP1 DUP2 PUSH2 0x21A2 JUMPI POP PUSH1 0xC0 MLOAD MLOAD SWAP1 PUSH2 0xD6E PUSH1 0xF DUP9 DUP5 DUP14 PUSH2 0xE3F DUP12 MLOAD DUP1 SWAP3 DUP6 DUP6 ADD SWAP1 PUSH2 0x32B5 JUMP JUMPDEST PUSH1 0xC0 MLOAD POP PUSH2 0xFEC PUSH2 0xD98 PUSH1 0xC0 MLOAD MLOAD PUSH2 0xF89 PUSH1 0xC0 MLOAD DUP3 PUSH2 0x3380 JUMP JUMPDEST PUSH1 0xC DUP2 MSTORE PUSH2 0xD6E PUSH1 0x10 PUSH1 0x20 DUP1 DUP5 ADD SWAP4 PUSH12 0x436F6E74616374206E616D65 PUSH1 0xA0 SHL DUP6 MSTORE PUSH2 0xE67 PUSH2 0xFBE CALLDATASIZE PUSH2 0x300 MLOAD PUSH2 0x2C0 MLOAD PUSH2 0x36A0 JUMP JUMPDEST PUSH2 0xD73 DUP2 MLOAD PUSH1 0x2 DUP2 LT ISZERO SWAP1 DUP2 PUSH2 0x2196 JUMPI POP PUSH1 0xC0 MLOAD MLOAD SWAP1 PUSH2 0xD6E PUSH1 0xF DUP9 DUP5 DUP14 PUSH2 0xE3F DUP12 MLOAD DUP1 SWAP3 DUP6 DUP6 ADD SWAP1 PUSH2 0x32B5 JUMP JUMPDEST PUSH1 0xC0 MLOAD POP PUSH2 0x106A PUSH2 0xD98 PUSH1 0xC0 MLOAD MLOAD PUSH2 0x1006 PUSH1 0xC0 MLOAD DUP3 PUSH2 0x3380 JUMP JUMPDEST PUSH1 0xD DUP2 MSTORE PUSH2 0xD6E PUSH1 0x10 PUSH1 0x20 DUP1 DUP5 ADD SWAP4 PUSH13 0x436F6E746163742070686F6E65 PUSH1 0x98 SHL DUP6 MSTORE PUSH2 0xE67 PUSH2 0x103C CALLDATASIZE PUSH2 0x2A0 MLOAD PUSH2 0x200 MLOAD PUSH2 0x36A0 JUMP JUMPDEST PUSH2 0xD73 DUP2 MLOAD PUSH1 0x5 DUP2 LT ISZERO SWAP1 DUP2 PUSH2 0x218A JUMPI POP PUSH1 0xC0 MLOAD MLOAD SWAP1 PUSH2 0xD6E PUSH1 0xF DUP9 DUP5 DUP14 PUSH2 0xE3F DUP12 MLOAD DUP1 SWAP3 DUP6 DUP6 ADD SWAP1 PUSH2 0x32B5 JUMP JUMPDEST PUSH1 0xA PUSH1 0x1 PUSH1 0x1 PUSH1 0x80 SHL SUB PUSH2 0x140 MLOAD AND LT ISZERO DUP1 PUSH2 0x2173 JUMPI JUMPDEST ISZERO PUSH2 0x213E JUMPI PUSH1 0x1 PUSH1 0x1 PUSH1 0x1 PUSH1 0x80 SHL SUB PUSH2 0x160 MLOAD AND LT ISZERO DUP1 PUSH2 0x2127 JUMPI JUMPDEST ISZERO PUSH2 0x20F3 JUMPI PUSH2 0x10BB PUSH2 0x10B6 CALLDATASIZE PUSH2 0x1A0 MLOAD PUSH2 0x180 MLOAD PUSH2 0x36A0 JUMP JUMPDEST PUSH2 0x3805 JUMP JUMPDEST ISZERO PUSH2 0x20BD JUMPI PUSH1 0x1 PUSH1 0x1 PUSH1 0x80 SHL SUB PUSH1 0xE0 MLOAD AND PUSH2 0x2019 JUMPI JUMPDEST PUSH1 0x1 PUSH1 0x1 PUSH1 0x80 SHL SUB PUSH2 0x120 MLOAD AND PUSH2 0x1F66 JUMPI JUMPDEST PUSH1 0x1 SLOAD PUSH1 0xA0 MSTORE PUSH1 0xC0 MLOAD MLOAD PUSH1 0x80 MSTORE PUSH2 0x10FB PUSH1 0x80 MLOAD PUSH2 0x3364 JUMP JUMPDEST PUSH1 0xA0 MLOAD PUSH1 0x80 MLOAD MSTORE CALLER PUSH1 0x20 PUSH1 0x80 MLOAD ADD MSTORE PUSH2 0x111B CALLDATASIZE PUSH2 0x380 MLOAD PUSH2 0x260 MLOAD PUSH2 0x36A0 JUMP JUMPDEST PUSH1 0xC0 MLOAD PUSH1 0x80 MLOAD ADD MSTORE PUSH2 0x1134 CALLDATASIZE PUSH2 0x3C0 MLOAD PUSH2 0x340 MLOAD PUSH2 0x36A0 JUMP JUMPDEST PUSH1 0x60 PUSH1 0x80 MLOAD ADD MSTORE PUSH2 0x114C CALLDATASIZE PUSH2 0x3A0 MLOAD PUSH2 0x100 MLOAD PUSH2 0x36A0 JUMP JUMPDEST PUSH1 0x80 DUP1 MLOAD ADD MSTORE PUSH1 0x1 PUSH1 0x1 PUSH1 0x80 SHL SUB PUSH2 0x140 MLOAD AND PUSH1 0xA0 PUSH1 0x80 MLOAD ADD MSTORE PUSH1 0x1 PUSH1 0x1 PUSH1 0x80 SHL SUB PUSH2 0x160 MLOAD AND PUSH1 0xC0 PUSH1 0x80 MLOAD ADD MSTORE PUSH2 0x118B CALLDATASIZE PUSH2 0x1C0 MLOAD PUSH2 0x1E0 MLOAD PUSH2 0x36A0 JUMP JUMPDEST PUSH1 0xE0 PUSH1 0x80 MLOAD ADD MSTORE PUSH2 0x11A3 CALLDATASIZE PUSH2 0x220 MLOAD PUSH2 0x240 MLOAD PUSH2 0x36A0 JUMP JUMPDEST PUSH2 0x100 PUSH1 0x80 MLOAD ADD MSTORE PUSH2 0x11BC CALLDATASIZE PUSH2 0x360 MLOAD PUSH2 0x2E0 MLOAD PUSH2 0x36A0 JUMP JUMPDEST PUSH2 0x120 PUSH1 0x80 MLOAD ADD MSTORE PUSH2 0x11D5 CALLDATASIZE PUSH2 0x280 MLOAD PUSH2 0x320 MLOAD PUSH2 0x36A0 JUMP JUMPDEST PUSH2 0x140 PUSH1 0x80 MLOAD ADD MSTORE PUSH2 0x11EE CALLDATASIZE PUSH2 0x300 MLOAD PUSH2 0x2C0 MLOAD PUSH2 0x36A0 JUMP JUMPDEST PUSH2 0x160 PUSH1 0x80 MLOAD ADD MSTORE PUSH2 0x1207 CALLDATASIZE PUSH2 0x2A0 MLOAD PUSH2 0x200 MLOAD PUSH2 0x36A0 JUMP JUMPDEST PUSH2 0x180 PUSH1 0x80 MLOAD ADD MSTORE PUSH2 0x1220 CALLDATASIZE PUSH2 0x1A0 MLOAD PUSH2 0x180 MLOAD PUSH2 0x36A0 JUMP JUMPDEST PUSH2 0x1A0 PUSH1 0x80 MLOAD ADD MSTORE PUSH1 0x1 PUSH1 0x1 PUSH1 0x80 SHL SUB CALLVALUE AND PUSH2 0x1C0 PUSH1 0x80 MLOAD ADD MSTORE PUSH1 0x1 PUSH1 0x1 PUSH1 0x80 SHL SUB PUSH2 0x120 MLOAD AND PUSH2 0x1E0 PUSH1 0x80 MLOAD ADD MSTORE PUSH1 0x1 PUSH1 0x1 PUSH1 0x80 SHL SUB PUSH1 0xE0 MLOAD AND PUSH2 0x200 PUSH1 0x80 MLOAD ADD MSTORE PUSH1 0x0 PUSH2 0x220 PUSH1 0x80 MLOAD ADD MSTORE PUSH1 0x0 PUSH2 0x240 PUSH1 0x80 MLOAD ADD MSTORE PUSH1 0x0 PUSH2 0x260 PUSH1 0x80 MLOAD ADD MSTORE PUSH1 0x0 PUSH2 0x280 PUSH1 0x80 MLOAD ADD MSTORE PUSH1 0xA0 MLOAD PUSH1 0x0 MSTORE PUSH1 0x2 PUSH1 0x20 MSTORE PUSH1 0xC0 MLOAD PUSH1 0x0 KECCAK256 PUSH1 0x80 MLOAD MLOAD DUP2 SSTORE PUSH1 0x1 DUP1 PUSH1 0xA0 SHL SUB PUSH1 0x20 PUSH1 0x80 MLOAD ADD MLOAD AND PUSH1 0x1 DUP3 ADD SWAP1 PUSH1 0x1 DUP1 PUSH1 0xA0 SHL SUB AND PUSH12 0xFFFFFFFFFFFFFFFFFFFFFFFF PUSH1 0xA0 SHL DUP3 SLOAD AND OR SWAP1 SSTORE PUSH1 0xC0 MLOAD PUSH1 0x80 MLOAD ADD MLOAD DUP1 MLOAD SWAP1 PUSH1 0x1 PUSH1 0x1 PUSH1 0x40 SHL SUB DUP3 GT PUSH2 0x1893 JUMPI DUP2 SWAP1 PUSH2 0x12FC PUSH1 0x2 DUP6 ADD SLOAD PUSH2 0x332A JUMP JUMPDEST PUSH1 0x1F DUP2 GT PUSH2 0x1F13 JUMPI JUMPDEST POP PUSH1 0x20 SWAP1 PUSH1 0x1F DUP4 GT PUSH1 0x1 EQ PUSH2 0x1EA2 JUMPI PUSH1 0x0 SWAP3 PUSH2 0x1E97 JUMPI JUMPDEST POP POP DUP2 PUSH1 0x1 SHL SWAP2 PUSH1 0x0 NOT SWAP1 PUSH1 0x3 SHL SHR NOT AND OR PUSH1 0x2 DUP3 ADD SSTORE JUMPDEST PUSH1 0x60 PUSH1 0x80 MLOAD ADD MLOAD DUP1 MLOAD SWAP1 PUSH1 0x1 PUSH1 0x1 PUSH1 0x40 SHL SUB DUP3 GT PUSH2 0x1893 JUMPI DUP2 SWAP1 PUSH2 0x135B PUSH1 0x3 DUP6 ADD SLOAD PUSH2 0x332A JUMP JUMPDEST PUSH1 0x1F DUP2 GT PUSH2 0x1E44 JUMPI JUMPDEST POP PUSH1 0x20 SWAP1 PUSH1 0x1F DUP4 GT PUSH1 0x1 EQ PUSH2 0x1DD3 JUMPI PUSH1 0x0 SWAP3 PUSH2 0x1DC8 JUMPI JUMPDEST POP POP DUP2 PUSH1 0x1 SHL SWAP2 PUSH1 0x0 NOT SWAP1 PUSH1 0x3 SHL SHR NOT AND OR PUSH1 0x3 DUP3 ADD SSTORE JUMPDEST PUSH1 0x80 DUP1 MLOAD ADD MLOAD DUP1 MLOAD SWAP1 PUSH1 0x1 PUSH1 0x1 PUSH1 0x40 SHL SUB DUP3 GT PUSH2 0x1893 JUMPI DUP2 SWAP1 PUSH2 0x13B9 PUSH1 0x4 DUP6 ADD SLOAD PUSH2 0x332A JUMP JUMPDEST PUSH1 0x1F DUP2 GT PUSH2 0x1D75 JUMPI JUMPDEST POP PUSH1 0x20 SWAP1 PUSH1 0x1F DUP4 GT PUSH1 0x1 EQ PUSH2 0x1D04 JUMPI PUSH1 0x0 SWAP3 PUSH2 0x1CF9 JUMPI JUMPDEST POP POP DUP2 PUSH1 0x1 SHL SWAP2 PUSH1 0x0 NOT SWAP1 PUSH1 0x3 SHL SHR NOT AND OR PUSH1 0x4 DUP3 ADD SSTORE JUMPDEST PUSH1 0x80 DUP1 MLOAD PUSH1 0xA0 DUP2 ADD MLOAD PUSH1 0xC0 SWAP1 SWAP2 ADD MLOAD SWAP1 SWAP2 SHL PUSH1 0x1 PUSH1 0x1 PUSH1 0x80 SHL SUB NOT AND PUSH1 0x1 PUSH1 0x1 PUSH1 0x80 SHL SUB SWAP2 SWAP1 SWAP2 AND OR PUSH1 0x5 DUP3 ADD SSTORE PUSH1 0x6 DUP2 ADD SWAP1 PUSH1 0xE0 PUSH1 0x80 MLOAD ADD MLOAD SWAP2 DUP3 MLOAD PUSH1 0x1 PUSH1 0x1 PUSH1 0x40 SHL SUB DUP2 GT PUSH2 0x1893 JUMPI PUSH2 0x1446 DUP3 SLOAD PUSH2 0x332A JUMP JUMPDEST PUSH1 0x1F DUP2 GT PUSH2 0x1CB1 JUMPI JUMPDEST POP PUSH1 0x20 PUSH1 0x1F DUP3 GT PUSH1 0x1 EQ PUSH2 0x1C4C JUMPI DUP2 SWAP3 SWAP4 SWAP5 PUSH1 0x0 SWAP3 PUSH2 0x1C41 JUMPI JUMPDEST POP POP DUP2 PUSH1 0x1 SHL SWAP2 PUSH1 0x0 NOT SWAP1 PUSH1 0x3 SHL SHR NOT AND OR SWAP1 SSTORE JUMPDEST PUSH1 0x7 DUP2 ADD SWAP1 PUSH2 0x100 PUSH1 0x80 MLOAD ADD MLOAD SWAP2 DUP3 MLOAD PUSH1 0x1 PUSH1 0x1 PUSH1 0x40 SHL SUB DUP2 GT PUSH2 0x1893 JUMPI PUSH2 0x14A6 DUP3 SLOAD PUSH2 0x332A JUMP JUMPDEST PUSH1 0x1F DUP2 GT PUSH2 0x1BF9 JUMPI JUMPDEST POP PUSH1 0x20 PUSH1 0x1F DUP3 GT PUSH1 0x1 EQ PUSH2 0x1B94 JUMPI DUP2 SWAP3 SWAP4 SWAP5 PUSH1 0x0 SWAP3 PUSH2 0x1B89 JUMPI JUMPDEST POP POP DUP2 PUSH1 0x1 SHL SWAP2 PUSH1 0x0 NOT SWAP1 PUSH1 0x3 SHL SHR NOT AND OR SWAP1 SSTORE JUMPDEST PUSH1 0x8 DUP2 ADD SWAP1 PUSH2 0x120 PUSH1 0x80 MLOAD ADD MLOAD SWAP2 DUP3 MLOAD PUSH1 0x1 PUSH1 0x1 PUSH1 0x40 SHL SUB DUP2 GT PUSH2 0x1893 JUMPI PUSH2 0x1506 DUP3 SLOAD PUSH2 0x332A JUMP JUMPDEST PUSH1 0x1F DUP2 GT PUSH2 0x1B41 JUMPI JUMPDEST POP PUSH1 0x20 PUSH1 0x1F DUP3 GT PUSH1 0x1 EQ PUSH2 0x1ADC JUMPI DUP2 SWAP3 SWAP4 SWAP5 PUSH1 0x0 SWAP3 PUSH2 0x1AD1 JUMPI JUMPDEST POP POP DUP2 PUSH1 0x1 SHL SWAP2 PUSH1 0x0 NOT SWAP1 PUSH1 0x3 SHL SHR NOT AND OR SWAP1 SSTORE JUMPDEST PUSH1 0x9 DUP2 ADD SWAP1 PUSH2 0x140 PUSH1 0x80 MLOAD ADD MLOAD SWAP2 DUP3 MLOAD PUSH1 0x1 PUSH1 0x1 PUSH1 0x40 SHL SUB DUP2 GT PUSH2 0x1893 JUMPI PUSH2 0x1566 DUP3 SLOAD PUSH2 0x332A JUMP JUMPDEST PUSH1 0x1F DUP2 GT PUSH2 0x1A89 JUMPI JUMPDEST POP PUSH1 0x20 PUSH1 0x1F DUP3 GT PUSH1 0x1 EQ PUSH2 0x1A24 JUMPI DUP2 SWAP3 SWAP4 SWAP5 PUSH1 0x0 SWAP3 PUSH2 0x1A19 JUMPI JUMPDEST POP POP DUP2 PUSH1 0x1 SHL SWAP2 PUSH1 0x0 NOT SWAP1 PUSH1 0x3 SHL SHR NOT AND OR SWAP1 SSTORE JUMPDEST PUSH1 0xA DUP2 ADD SWAP1 PUSH2 0x160 PUSH1 0x80 MLOAD ADD MLOAD SWAP2 DUP3 MLOAD PUSH1 0x1 PUSH1 0x1 PUSH1 0x40 SHL SUB DUP2 GT PUSH2 0x1893 JUMPI PUSH2 0x15C6 DUP3 SLOAD PUSH2 0x332A JUMP JUMPDEST PUSH1 0x1F DUP2 GT PUSH2 0x19D1 JUMPI JUMPDEST POP PUSH1 0x20 PUSH1 0x1F DUP3 GT PUSH1 0x1 EQ PUSH2 0x196C JUMPI DUP2 SWAP3 SWAP4 SWAP5 PUSH1 0x0 SWAP3 PUSH2 0x1961 JUMPI JUMPDEST POP POP DUP2 PUSH1 0x1 SHL SWAP2 PUSH1 0x0 NOT SWAP1 PUSH1 0x3 SHL SHR NOT AND OR SWAP1 SSTORE JUMPDEST PUSH1 0xB DUP2 ADD SWAP1 PUSH2 0x180 PUSH1 0x80 MLOAD ADD MLOAD SWAP2 DUP3 MLOAD PUSH1 0x1 PUSH1 0x1 PUSH1 0x40 SHL SUB DUP2 GT PUSH2 0x1893 JUMPI PUSH2 0x1626 DUP3 SLOAD PUSH2 0x332A JUMP JUMPDEST PUSH1 0x1F DUP2 GT PUSH2 0x1919 JUMPI JUMPDEST POP PUSH1 0x20 PUSH1 0x1F DUP3 GT PUSH1 0x1 EQ PUSH2 0x18B4 JUMPI DUP2 SWAP3 SWAP4 SWAP5 PUSH1 0x0 SWAP3 PUSH2 0x18A9 JUMPI JUMPDEST POP POP DUP2 PUSH1 0x1 SHL SWAP2 PUSH1 0x0 NOT SWAP1 PUSH1 0x3 SHL SHR NOT AND OR SWAP1 SSTORE JUMPDEST PUSH1 0xC DUP2 ADD SWAP1 PUSH2 0x1A0 PUSH1 0x80 MLOAD ADD MLOAD SWAP2 DUP3 MLOAD PUSH1 0x1 PUSH1 0x1 PUSH1 0x40 SHL SUB DUP2 GT PUSH2 0x1893 JUMPI PUSH2 0x1686 DUP3 SLOAD PUSH2 0x332A JUMP JUMPDEST PUSH1 0x1F DUP2 GT PUSH2 0x184B JUMPI JUMPDEST POP PUSH1 0x20 PUSH1 0x1F DUP3 GT PUSH1 0x1 EQ PUSH2 0x17E6 JUMPI DUP2 SWAP3 SWAP4 SWAP5 PUSH1 0x0 SWAP3 PUSH2 0x17DB JUMPI JUMPDEST POP POP DUP2 PUSH1 0x1 SHL SWAP2 PUSH1 0x0 NOT SWAP1 PUSH1 0x3 SHL SHR NOT AND OR SWAP1 SSTORE JUMPDEST PUSH1 0x80 DUP1 MLOAD PUSH2 0x1C0 DUP2 ADD MLOAD PUSH2 0x1E0 DUP3 ADD MLOAD DUP4 SHL PUSH1 0x1 PUSH1 0x1 PUSH1 0x80 SHL SUB NOT AND PUSH1 0x1 PUSH1 0x1 PUSH1 0x80 SHL SUB SWAP2 DUP3 AND OR PUSH1 0xD DUP6 ADD SSTORE PUSH2 0x200 DUP3 ADD MLOAD PUSH1 0xE DUP6 ADD DUP1 SLOAD PUSH2 0x220 DUP6 ADD MLOAD PUSH2 0x240 DUP7 ADD MLOAD PUSH2 0x260 DUP8 ADD MLOAD PUSH19 0xFFFFFFFFFFFFFFFFFFFFFFFFFFFFFFFFFFFFFF NOT SWAP1 SWAP4 AND SWAP5 SWAP1 SWAP6 AND SWAP4 SWAP1 SWAP4 OR SWAP3 ISZERO ISZERO SWAP1 SWAP6 SHL PUSH1 0xFF PUSH1 0x80 SHL AND SWAP2 SWAP1 SWAP2 OR SWAP2 ISZERO ISZERO PUSH1 0x88 SHL PUSH1 0xFF PUSH1 0x88 SHL AND SWAP2 SWAP1 SWAP2 OR SWAP3 ISZERO ISZERO PUSH1 0x90 SHL PUSH1 0xFF PUSH1 0x90 SHL AND SWAP3 SWAP1 SWAP3 OR SWAP1 SWAP2 SSTORE PUSH2 0x280 ADD MLOAD PUSH1 0xF SWAP1 SWAP2 ADD DUP1 SLOAD PUSH1 0x1 PUSH1 0x1 PUSH1 0xA0 SHL SUB NOT AND PUSH1 0x1 PUSH1 0x1 PUSH1 0xA0 SHL SUB SWAP1 SWAP3 AND SWAP2 SWAP1 SWAP2 OR SWAP1 SSTORE PUSH1 0x1 DUP1 SLOAD PUSH1 0x0 SWAP1 DUP2 MSTORE PUSH1 0x5 PUSH1 0x20 MSTORE PUSH1 0xC0 MLOAD DUP2 KECCAK256 TIMESTAMP SWAP1 SSTORE SWAP1 SLOAD PUSH2 0x17CC SWAP2 CALLER SWAP1 DUP3 SWAP1 PUSH32 0xF6BE169E9242DB299E4065F846C02E09B60F1421201248FE94D6F552E8C8BD44 SWAP1 DUP1 LOG3 PUSH2 0x35A6 JUMP JUMPDEST PUSH1 0x1 SSTORE PUSH1 0x0 DUP1 SLOAD PUSH1 0xFF NOT AND SWAP1 SSTORE STOP JUMPDEST ADD MLOAD SWAP1 POP DUP5 DUP1 PUSH2 0x16A9 JUMP JUMPDEST PUSH1 0x1F NOT DUP3 AND SWAP1 DUP4 PUSH1 0x0 MSTORE DUP1 PUSH1 0x0 KECCAK256 SWAP2 PUSH1 0x0 JUMPDEST DUP2 DUP2 LT PUSH2 0x1833 JUMPI POP SWAP6 DUP4 PUSH1 0x1 SWAP6 SWAP7 SWAP8 LT PUSH2 0x181A JUMPI JUMPDEST POP POP POP DUP2 SHL ADD SWAP1 SSTORE PUSH2 0x16BE JUMP JUMPDEST ADD MLOAD PUSH1 0x0 NOT PUSH1 0xF8 DUP5 PUSH1 0x3 SHL AND SHR NOT AND SWAP1 SSTORE DUP5 DUP1 DUP1 PUSH2 0x180D JUMP JUMPDEST SWAP2 SWAP3 PUSH1 0x20 PUSH1 0x1 DUP2 SWAP3 DUP7 DUP12 ADD MLOAD DUP2 SSTORE ADD SWAP5 ADD SWAP3 ADD PUSH2 0x17F8 JUMP JUMPDEST DUP3 PUSH1 0x0 MSTORE PUSH1 0x20 PUSH1 0x0 KECCAK256 PUSH1 0x1F DUP4 ADD PUSH1 0x5 SHR DUP2 ADD SWAP2 PUSH1 0x20 DUP5 LT PUSH2 0x1889 JUMPI JUMPDEST PUSH1 0x1F ADD PUSH1 0x5 SHR ADD SWAP1 JUMPDEST DUP2 DUP2 LT PUSH2 0x187D JUMPI POP PUSH2 0x168F JUMP JUMPDEST PUSH1 0x0 DUP2 SSTORE PUSH1 0x1 ADD PUSH2 0x1870 JUMP JUMPDEST SWAP1 SWAP2 POP DUP2 SWAP1 PUSH2 0x1867 JUMP JUMPDEST PUSH4 0x4E487B71 PUSH1 0xE0 SHL PUSH1 0x0 MSTORE PUSH1 0x41 PUSH1 0x4 MSTORE PUSH1 0x24 PUSH1 0x0 REVERT JUMPDEST ADD MLOAD SWAP1 POP DUP5 DUP1 PUSH2 0x1649 JUMP JUMPDEST PUSH1 0x1F NOT DUP3 AND SWAP1 DUP4 PUSH1 0x0 MSTORE DUP1 PUSH1 0x0 KECCAK256 SWAP2 PUSH1 0x0 JUMPDEST DUP2 DUP2 LT PUSH2 0x1901 JUMPI POP SWAP6 DUP4 PUSH1 0x1 SWAP6 SWAP7 SWAP8 LT PUSH2 0x18E8 JUMPI JUMPDEST POP POP POP DUP2 SHL ADD SWAP1 SSTORE PUSH2 0x165E JUMP JUMPDEST ADD MLOAD PUSH1 0x0 NOT PUSH1 0xF8 DUP5 PUSH1 0x3 SHL AND SHR NOT AND SWAP1 SSTORE DUP5 DUP1 DUP1 PUSH2 0x18DB JUMP JUMPDEST SWAP2 SWAP3 PUSH1 0x20 PUSH1 0x1 DUP2 SWAP3 DUP7 DUP12 ADD MLOAD DUP2 SSTORE ADD SWAP5 ADD SWAP3 ADD PUSH2 0x18C6 JUMP JUMPDEST DUP3 PUSH1 0x0 MSTORE PUSH1 0x20 PUSH1 0x0 KECCAK256 PUSH1 0x1F DUP4 ADD PUSH1 0x5 SHR DUP2 ADD SWAP2 PUSH1 0x20 DUP5 LT PUSH2 0x1957 JUMPI JUMPDEST PUSH1 0x1F ADD PUSH1 0x5 SHR ADD SWAP1 JUMPDEST DUP2 DUP2 LT PUSH2 0x194B JUMPI POP PUSH2 0x162F JUMP JUMPDEST PUSH1 0x0 DUP2 SSTORE PUSH1 0x1 ADD PUSH2 0x193E JUMP JUMPDEST SWAP1 SWAP2 POP DUP2 SWAP1 PUSH2 0x1935 JUMP JUMPDEST ADD MLOAD SWAP1 POP DUP5 DUP1 PUSH2 0x15E9 JUMP JUMPDEST PUSH1 0x1F NOT DUP3 AND SWAP1 DUP4 PUSH1 0x0 MSTORE DUP1 PUSH1 0x0 KECCAK256 SWAP2 PUSH1 0x0 JUMPDEST DUP2 DUP2 LT PUSH2 0x19B9 JUMPI POP SWAP6 DUP4 PUSH1 0x1 SWAP6 SWAP7 SWAP8 LT PUSH2 0x19A0 JUMPI JUMPDEST POP POP POP DUP2 SHL ADD SWAP1 SSTORE PUSH2 0x15FE JUMP JUMPDEST ADD MLOAD PUSH1 0x0 NOT PUSH1 0xF8 DUP5 PUSH1 0x3 SHL AND SHR NOT AND SWAP1 SSTORE DUP5 DUP1 DUP1 PUSH2 0x1993 JUMP JUMPDEST SWAP2 SWAP3 PUSH1 0x20 PUSH1 0x1 DUP2 SWAP3 DUP7 DUP12 ADD MLOAD DUP2 SSTORE ADD SWAP5 ADD SWAP3 ADD PUSH2 0x197E JUMP JUMPDEST DUP3 PUSH1 0x0 MSTORE PUSH1 0x20 PUSH1 0x0 KECCAK256 PUSH1 0x1F DUP4 ADD PUSH1 0x5 SHR DUP2 ADD SWAP2 PUSH1 0x20 DUP5 LT PUSH2 0x1A0F JUMPI JUMPDEST PUSH1 0x1F ADD PUSH1 0x5 SHR ADD SWAP1 JUMPDEST DUP2 DUP2 LT PUSH2 0x1A03 JUMPI POP PUSH2 0x15CF JUMP JUMPDEST PUSH1 0x0 DUP2 SSTORE PUSH1 0x1 ADD PUSH2 0x19F6 JUMP JUMPDEST SWAP1 SWAP2 POP DUP2 SWAP1 PUSH2 0x19ED JUMP JUMPDEST ADD MLOAD SWAP1 POP DUP5 DUP1 PUSH2 0x1589 JUMP JUMPDEST PUSH1 0x1F NOT DUP3 AND SWAP1 DUP4 PUSH1 0x0 MSTORE DUP1 PUSH1 0x0 KECCAK256 SWAP2 PUSH1 0x0 JUMPDEST DUP2 DUP2 LT PUSH2 0x1A71 JUMPI POP SWAP6 DUP4 PUSH1 0x1 SWAP6 SWAP7 SWAP8 LT PUSH2 0x1A58 JUMPI JUMPDEST POP POP POP DUP2 SHL ADD SWAP1 SSTORE PUSH2 0x159E JUMP JUMPDEST ADD MLOAD PUSH1 0x0 NOT PUSH1 0xF8 DUP5 PUSH1 0x3 SHL AND SHR NOT AND SWAP1 SSTORE DUP5 DUP1 DUP1 PUSH2 0x1A4B JUMP JUMPDEST SWAP2 SWAP3 PUSH1 0x20 PUSH1 0x1 DUP2 SWAP3 DUP7 DUP12 ADD MLOAD DUP2 SSTORE ADD SWAP5 ADD SWAP3 ADD PUSH2 0x1A36 JUMP JUMPDEST DUP3 PUSH1 0x0 MSTORE PUSH1 0x20 PUSH1 0x0 KECCAK256 PUSH1 0x1F DUP4 ADD PUSH1 0x5 SHR DUP2 ADD SWAP2 PUSH1 0x20 DUP5 LT PUSH2 0x1AC7 JUMPI JUMPDEST PUSH1 0x1F ADD PUSH1 0x5 SHR ADD SWAP1 JUMPDEST DUP2 DUP2 LT PUSH2 0x1ABB JUMPI POP PUSH2 0x156F JUMP JUMPDEST PUSH1 0x0 DUP2 SSTORE PUSH1 0x1 ADD PUSH2 0x1AAE JUMP JUMPDEST SWAP1 SWAP2 POP DUP2 SWAP1 PUSH2 0x1AA5 JUMP JUMPDEST ADD MLOAD SWAP1 POP DUP5 DUP1 PUSH2 0x1529 JUMP JUMPDEST PUSH1 0x1F NOT DUP3 AND SWAP1 DUP4 PUSH1 0x0 MSTORE DUP1 PUSH1 0x0 KECCAK256 SWAP2 PUSH1 0x0 JUMPDEST DUP2 DUP2 LT PUSH2 0x1B29 JUMPI POP SWAP6 DUP4 PUSH1 0x1 SWAP6 SWAP7 SWAP8 LT PUSH2 0x1B10 JUMPI JUMPDEST POP POP POP DUP2 SHL ADD SWAP1 SSTORE PUSH2 0x153E JUMP JUMPDEST ADD MLOAD PUSH1 0x0 NOT PUSH1 0xF8 DUP5 PUSH1 0x3 SHL AND SHR NOT AND SWAP1 SSTORE DUP5 DUP1 DUP1 PUSH2 0x1B03 JUMP JUMPDEST SWAP2 SWAP3 PUSH1 0x20 PUSH1 0x1 DUP2 SWAP3 DUP7 DUP12 ADD MLOAD DUP2 SSTORE ADD SWAP5 ADD SWAP3 ADD PUSH2 0x1AEE JUMP JUMPDEST DUP3 PUSH1 0x0 MSTORE PUSH1 0x20 PUSH1 0x0 KECCAK256 PUSH1 0x1F DUP4 ADD PUSH1 0x5 SHR DUP2 ADD SWAP2 PUSH1 0x20 DUP5 LT PUSH2 0x1B7F JUMPI JUMPDEST PUSH1 0x1F ADD PUSH1 0x5 SHR ADD SWAP1 JUMPDEST DUP2 DUP2 LT PUSH2 0x1B73 JUMPI POP PUSH2 0x150F JUMP JUMPDEST PUSH1 0x0 DUP2 SSTORE PUSH1 0x1 ADD PUSH2 0x1B66 JUMP JUMPDEST SWAP1 SWAP2 POP DUP2 SWAP1 PUSH2 0x1B5D JUMP JUMPDEST ADD MLOAD SWAP1 POP DUP5 DUP1 PUSH2 0x14C9 JUMP JUMPDEST PUSH1 0x1F NOT DUP3 AND SWAP1 DUP4 PUSH1 0x0 MSTORE DUP1 PUSH1 0x0 KECCAK256 SWAP2 PUSH1 0x0 JUMPDEST DUP2 DUP2 LT PUSH2 0x1BE1 JUMPI POP SWAP6 DUP4 PUSH1 0x1 SWAP6 SWAP7 SWAP8 LT PUSH2 0x1BC8 JUMPI JUMPDEST POP POP POP DUP2 SHL ADD SWAP1 SSTORE PUSH2 0x14DE JUMP JUMPDEST ADD MLOAD PUSH1 0x0 NOT PUSH1 0xF8 DUP5 PUSH1 0x3 SHL AND SHR NOT AND SWAP1 SSTORE DUP5 DUP1 DUP1 PUSH2 0x1BBB JUMP JUMPDEST SWAP2 SWAP3 PUSH1 0x20 PUSH1 0x1 DUP2 SWAP3 DUP7 DUP12 ADD MLOAD DUP2 SSTORE ADD SWAP5 ADD SWAP3 ADD PUSH2 0x1BA6 JUMP JUMPDEST DUP3 PUSH1 0x0 MSTORE PUSH1 0x20 PUSH1 0x0 KECCAK256 PUSH1 0x1F DUP4 ADD PUSH1 0x5 SHR DUP2 ADD SWAP2 PUSH1 0x20 DUP5 LT PUSH2 0x1C37 JUMPI JUMPDEST PUSH1 0x1F ADD PUSH1 0x5 SHR ADD SWAP1 JUMPDEST DUP2 DUP2 LT PUSH2 0x1C2B JUMPI POP PUSH2 0x14AF JUMP JUMPDEST PUSH1 0x0 DUP2 SSTORE PUSH1 0x1 ADD PUSH2 0x1C1E JUMP JUMPDEST SWAP1 SWAP2 POP DUP2 SWAP1 PUSH2 0x1C15 JUMP JUMPDEST ADD MLOAD SWAP1 POP DUP5 DUP1 PUSH2 0x1469 JUMP JUMPDEST PUSH1 0x1F NOT DUP3 AND SWAP1 DUP4 PUSH1 0x0 MSTORE DUP1 PUSH1 0x0 KECCAK256 SWAP2 PUSH1 0x0 JUMPDEST DUP2 DUP2 LT PUSH2 0x1C99 JUMPI POP SWAP6 DUP4 PUSH1 0x1 SWAP6 SWAP7 SWAP8 LT PUSH2 0x1C80 JUMPI JUMPDEST POP POP POP DUP2 SHL ADD SWAP1 SSTORE PUSH2 0x147E JUMP JUMPDEST ADD MLOAD PUSH1 0x0 NOT PUSH1 0xF8 DUP5 PUSH1 0x3 SHL AND SHR NOT AND SWAP1 SSTORE DUP5 DUP1 DUP1 PUSH2 0x1C73 JUMP JUMPDEST SWAP2 SWAP3 PUSH1 0x20 PUSH1 0x1 DUP2 SWAP3 DUP7 DUP12 ADD MLOAD DUP2 SSTORE ADD SWAP5 ADD SWAP3 ADD PUSH2 0x1C5E JUMP JUMPDEST DUP3 PUSH1 0x0 MSTORE PUSH1 0x20 PUSH1 0x0 KECCAK256 PUSH1 0x1F DUP4 ADD PUSH1 0x5 SHR DUP2 ADD SWAP2 PUSH1 0x20 DUP5 LT PUSH2 0x1CEF JUMPI JUMPDEST PUSH1 0x1F ADD PUSH1 0x5 SHR ADD SWAP1 JUMPDEST DUP2 DUP2 LT PUSH2 0x1CE3 JUMPI POP PUSH2 0x144F JUMP JUMPDEST PUSH1 0x0 DUP2 SSTORE PUSH1 0x1 ADD PUSH2 0x1CD6 JUMP JUMPDEST SWAP1 SWAP2 POP DUP2 SWAP1 PUSH2 0x1CCD JUMP JUMPDEST ADD MLOAD SWAP1 POP DUP4 DUP1 PUSH2 0x13D9 JUMP JUMPDEST SWAP3 POP PUSH1 0x4 DUP5 ADD PUSH1 0x0 MSTORE DUP1 PUSH1 0x0 KECCAK256 SWAP1 PUSH1 0x0 SWAP4 JUMPDEST PUSH1 0x1F NOT DUP5 AND DUP6 LT PUSH2 0x1D5A JUMPI PUSH1 0x1 SWAP5 POP DUP4 PUSH1 0x1F NOT DUP2 AND LT PUSH2 0x1D41 JUMPI JUMPDEST POP POP POP DUP2 SHL ADD PUSH1 0x4 DUP3 ADD SSTORE PUSH2 0x13F1 JUMP JUMPDEST ADD MLOAD PUSH1 0x0 NOT PUSH1 0xF8 DUP5 PUSH1 0x3 SHL AND SHR NOT AND SWAP1 SSTORE DUP4 DUP1 DUP1 PUSH2 0x1D31 JUMP JUMPDEST DUP2 DUP2 ADD MLOAD DUP4 SSTORE PUSH1 0x20 SWAP5 DUP6 ADD SWAP5 PUSH1 0x1 SWAP1 SWAP4 ADD SWAP3 SWAP1 SWAP2 ADD SWAP1 PUSH2 0x1D16 JUMP JUMPDEST SWAP1 SWAP2 POP PUSH1 0x4 DUP5 ADD PUSH1 0x0 MSTORE PUSH1 0x20 PUSH1 0x0 KECCAK256 PUSH1 0x1F DUP5 ADD PUSH1 0x5 SHR DUP2 ADD PUSH1 0x20 DUP6 LT PUSH2 0x1DC1 JUMPI JUMPDEST SWAP1 DUP5 SWAP4 SWAP3 SWAP2 JUMPDEST PUSH1 0x1F DUP4 ADD PUSH1 0x5 SHR DUP3 ADD DUP2 LT PUSH2 0x1DB2 JUMPI POP POP PUSH2 0x13C2 JUMP JUMPDEST PUSH1 0x0 DUP2 SSTORE DUP6 SWAP5 POP PUSH1 0x1 ADD PUSH2 0x1D9C JUMP JUMPDEST POP DUP1 PUSH2 0x1D96 JUMP JUMPDEST ADD MLOAD SWAP1 POP DUP4 DUP1 PUSH2 0x137B JUMP JUMPDEST SWAP3 POP PUSH1 0x3 DUP5 ADD PUSH1 0x0 MSTORE DUP1 PUSH1 0x0 KECCAK256 SWAP1 PUSH1 0x0 SWAP4 JUMPDEST PUSH1 0x1F NOT DUP5 AND DUP6 LT PUSH2 0x1E29 JUMPI PUSH1 0x1 SWAP5 POP DUP4 PUSH1 0x1F NOT DUP2 AND LT PUSH2 0x1E10 JUMPI JUMPDEST POP POP POP DUP2 SHL ADD PUSH1 0x3 DUP3 ADD SSTORE PUSH2 0x1393 JUMP JUMPDEST ADD MLOAD PUSH1 0x0 NOT PUSH1 0xF8 DUP5 PUSH1 0x3 SHL AND SHR NOT AND SWAP1 SSTORE DUP4 DUP1 DUP1 PUSH2 0x1E00 JUMP JUMPDEST DUP2 DUP2 ADD MLOAD DUP4 SSTORE PUSH1 0x20 SWAP5 DUP6 ADD SWAP5 PUSH1 0x1 SWAP1 SWAP4 ADD SWAP3 SWAP1 SWAP2 ADD SWAP1 PUSH2 0x1DE5 JUMP JUMPDEST SWAP1 SWAP2 POP PUSH1 0x3 DUP5 ADD PUSH1 0x0 MSTORE PUSH1 0x20 PUSH1 0x0 KECCAK256 PUSH1 0x1F DUP5 ADD PUSH1 0x5 SHR DUP2 ADD PUSH1 0x20 DUP6 LT PUSH2 0x1E90 JUMPI JUMPDEST SWAP1 DUP5 SWAP4 SWAP3 SWAP2 JUMPDEST PUSH1 0x1F DUP4 ADD PUSH1 0x5 SHR DUP3 ADD DUP2 LT PUSH2 0x1E81 JUMPI POP POP PUSH2 0x1364 JUMP JUMPDEST PUSH1 0x0 DUP2 SSTORE DUP6 SWAP5 POP PUSH1 0x1 ADD PUSH2 0x1E6B JUMP JUMPDEST POP DUP1 PUSH2 0x1E65 JUMP JUMPDEST ADD MLOAD SWAP1 POP DUP4 DUP1 PUSH2 0x131C JUMP JUMPDEST SWAP3 POP PUSH1 0x2 DUP5 ADD PUSH1 0x0 MSTORE DUP1 PUSH1 0x0 KECCAK256 SWAP1 PUSH1 0x0 SWAP4 JUMPDEST PUSH1 0x1F NOT DUP5 AND DUP6 LT PUSH2 0x1EF8 JUMPI PUSH1 0x1 SWAP5 POP DUP4 PUSH1 0x1F NOT DUP2 AND LT PUSH2 0x1EDF JUMPI JUMPDEST POP POP POP DUP2 SHL ADD PUSH1 0x2 DUP3 ADD SSTORE PUSH2 0x1334 JUMP JUMPDEST ADD MLOAD PUSH1 0x0 NOT PUSH1 0xF8 DUP5 PUSH1 0x3 SHL AND SHR NOT AND SWAP1 SSTORE DUP4 DUP1 DUP1 PUSH2 0x1ECF JUMP JUMPDEST DUP2 DUP2 ADD MLOAD DUP4 SSTORE PUSH1 0x20 SWAP5 DUP6 ADD SWAP5 PUSH1 0x1 SWAP1 SWAP4 ADD SWAP3 SWAP1 SWAP2 ADD SWAP1 PUSH2 0x1EB4 JUMP JUMPDEST SWAP1 SWAP2 POP PUSH1 0x2 DUP5 ADD PUSH1 0x0 MSTORE PUSH1 0x20 PUSH1 0x0 KECCAK256 PUSH1 0x1F DUP5 ADD PUSH1 0x5 SHR DUP2 ADD PUSH1 0x20 DUP6 LT PUSH2 0x1F5F JUMPI JUMPDEST SWAP1 DUP5 SWAP4 SWAP3 SWAP2 JUMPDEST PUSH1 0x1F DUP4 ADD PUSH1 0x5 SHR DUP3 ADD DUP2 LT PUSH2 0x1F50 JUMPI POP POP PUSH2 0x1305 JUMP JUMPDEST PUSH1 0x0 DUP2 SSTORE DUP6 SWAP5 POP PUSH1 0x1 ADD PUSH2 0x1F3A JUMP JUMPDEST POP DUP1 PUSH2 0x1F34 JUMP JUMPDEST PUSH1 0xC0 MLOAD MLOAD PUSH4 0x23B872DD PUSH1 0xE0 SHL DUP2 MSTORE PUSH2 0x120 MLOAD CALLER PUSH1 0x4 DUP4 ADD MSTORE ADDRESS PUSH1 0x24 DUP4 ADD MSTORE PUSH1 0x1 PUSH1 0x1 PUSH1 0x80 SHL SUB AND PUSH1 0x44 DUP3 ADD MSTORE PUSH1 0x20 DUP2 PUSH1 0x64 DUP2 PUSH1 0x0 PUSH20 0x765DE816845861E75A25FCA122BB6898B8B1282A GAS CALL DUP1 ISZERO PUSH2 0x200C JUMPI PUSH2 0x1FC9 SWAP2 PUSH1 0x0 SWAP2 PUSH2 0x1FED JUMPI JUMPDEST POP PUSH2 0x3522 JUMP JUMPDEST PUSH1 0x1 SLOAD PUSH1 0x0 MSTORE PUSH1 0x3 PUSH1 0x20 MSTORE PUSH1 0x1 PUSH1 0x1 PUSH1 0x80 SHL SUB PUSH2 0x120 MLOAD AND PUSH1 0xC0 MLOAD PUSH1 0x0 KECCAK256 SSTORE PUSH2 0x10E3 JUMP JUMPDEST PUSH2 0x2006 SWAP2 POP PUSH1 0x20 RETURNDATASIZE PUSH1 0x20 GT PUSH2 0x601 JUMPI PUSH2 0x5F3 DUP2 DUP4 PUSH2 0x3380 JUMP JUMPDEST DUP3 PUSH2 0x1FC3 JUMP JUMPDEST PUSH1 0xC0 MLOAD MLOAD RETURNDATASIZE PUSH1 0x0 DUP3 RETURNDATACOPY RETURNDATASIZE SWAP1 REVERT JUMPDEST PUSH1 0xC0 MLOAD MLOAD PUSH4 0x23B872DD PUSH1 0xE0 SHL DUP2 MSTORE PUSH1 0xE0 MLOAD CALLER PUSH1 0x4 DUP4 ADD MSTORE ADDRESS PUSH1 0x24 DUP4 ADD MSTORE PUSH1 0x1 PUSH1 0x1 PUSH1 0x80 SHL SUB AND PUSH1 0x44 DUP3 ADD MSTORE PUSH1 0x20 DUP2 PUSH1 0x64 DUP2 PUSH1 0x0 PUSH20 0x62B8B11039FCFE5AB0C56E502B1C372A3D2A9C7A GAS CALL DUP1 ISZERO PUSH2 0x200C JUMPI PUSH2 0x207B SWAP2 PUSH1 0x0 SWAP2 PUSH2 0x209E JUMPI JUMPDEST POP PUSH2 0x3565 JUMP JUMPDEST PUSH1 0x1 SLOAD PUSH1 0x0 MSTORE PUSH1 0x4 PUSH1 0x20 MSTORE PUSH1 0x1 PUSH1 0x1 PUSH1 0x80 SHL SUB PUSH1 0xE0 MLOAD AND PUSH1 0xC0 MLOAD PUSH1 0x0 KECCAK256 SSTORE PUSH2 0x10D1 JUMP JUMPDEST PUSH2 0x20B7 SWAP2 POP PUSH1 0x20 RETURNDATASIZE PUSH1 0x20 GT PUSH2 0x601 JUMPI PUSH2 0x5F3 DUP2 DUP4 PUSH2 0x3380 JUMP JUMPDEST DUP3 PUSH2 0x2075 JUMP JUMPDEST PUSH1 0xC0 MLOAD MLOAD PUSH3 0x461BCD PUSH1 0xE5 SHL DUP2 MSTORE PUSH1 0x20 PUSH1 0x4 DUP3 ADD MSTORE PUSH1 0xD PUSH1 0x24 DUP3 ADD MSTORE PUSH13 0x125B9D985B1A5908195B585A5B PUSH1 0x9A SHL PUSH1 0x44 DUP3 ADD MSTORE PUSH1 0x64 SWAP1 REVERT JUMPDEST PUSH1 0xC0 MLOAD MLOAD PUSH3 0x461BCD PUSH1 0xE5 SHL DUP2 MSTORE PUSH1 0x20 PUSH1 0x4 DUP3 ADD MSTORE PUSH1 0xB PUSH1 0x24 DUP3 ADD MSTORE PUSH11 0x496E76616C696420616765 PUSH1 0xA8 SHL PUSH1 0x44 DUP3 ADD MSTORE PUSH1 0x64 SWAP1 REVERT JUMPDEST POP PUSH1 0xF0 PUSH1 0x1 PUSH1 0x1 PUSH1 0x80 SHL SUB PUSH2 0x160 MLOAD AND GT ISZERO PUSH2 0x109D JUMP JUMPDEST PUSH1 0xC0 MLOAD MLOAD PUSH3 0x461BCD PUSH1 0xE5 SHL DUP2 MSTORE PUSH1 0x20 PUSH1 0x4 DUP3 ADD MSTORE PUSH1 0xC PUSH1 0x24 DUP3 ADD MSTORE PUSH12 0x496E76616C69642073697A65 PUSH1 0xA0 SHL PUSH1 0x44 DUP3 ADD MSTORE PUSH1 0x64 SWAP1 REVERT JUMPDEST POP PUSH1 0xC8 PUSH1 0x1 PUSH1 0x1 PUSH1 0x80 SHL SUB PUSH2 0x140 MLOAD AND GT ISZERO PUSH2 0x1081 JUMP JUMPDEST PUSH1 0x14 SWAP2 POP GT ISZERO DUP12 PUSH2 0xE21 JUMP JUMPDEST PUSH1 0x64 SWAP2 POP GT ISZERO DUP12 PUSH2 0xE21 JUMP JUMPDEST PUSH1 0xC8 SWAP2 POP GT ISZERO DUP12 PUSH2 0xE21 JUMP JUMPDEST PUSH2 0x1F4 SWAP2 POP GT ISZERO DUP12 PUSH2 0xE21 JUMP JUMPDEST PUSH1 0xA SWAP2 POP GT ISZERO DUP7 PUSH2 0xD25 JUMP JUMPDEST PUSH1 0x40 MLOAD PUSH3 0x461BCD PUSH1 0xE5 SHL DUP2 MSTORE PUSH1 0x20 PUSH1 0x4 DUP3 ADD MSTORE PUSH1 0xF PUSH1 0x24 DUP3 ADD MSTORE PUSH15 0x109BDD5B9D1E481C995C5D5A5C9959 PUSH1 0x8A SHL PUSH1 0x44 DUP3 ADD MSTORE PUSH1 0x64 SWAP1 REVERT JUMPDEST POP PUSH1 0x1 PUSH1 0x1 PUSH1 0x80 SHL SUB PUSH1 0xE0 MLOAD AND ISZERO ISZERO PUSH2 0xC6E JUMP JUMPDEST POP PUSH1 0x1 PUSH1 0x1 PUSH1 0x80 SHL SUB PUSH2 0x120 MLOAD AND ISZERO ISZERO PUSH2 0xC67 JUMP JUMPDEST PUSH1 0x40 MLOAD PUSH3 0x461BCD PUSH1 0xE5 SHL DUP2 MSTORE PUSH1 0x20 PUSH1 0x4 DUP3 ADD MSTORE PUSH1 0x13 PUSH1 0x24 DUP3 ADD MSTORE PUSH19 0x472420626F756E747920746F6F206C61726765 PUSH1 0x68 SHL PUSH1 0x44 DUP3 ADD MSTORE PUSH1 0x64 SWAP1 REVERT JUMPDEST PUSH1 0x40 MLOAD PUSH3 0x461BCD PUSH1 0xE5 SHL DUP2 MSTORE PUSH1 0x20 PUSH1 0x4 DUP3 ADD MSTORE PUSH1 0x15 PUSH1 0x24 DUP3 ADD MSTORE PUSH21 0x6355534420626F756E747920746F6F206C61726765 PUSH1 0x58 SHL PUSH1 0x44 DUP3 ADD MSTORE PUSH1 0x64 SWAP1 REVERT JUMPDEST PUSH1 0x40 MLOAD PUSH3 0x461BCD PUSH1 0xE5 SHL DUP2 MSTORE PUSH1 0x20 PUSH1 0x4 DUP3 ADD MSTORE PUSH1 0x15 PUSH1 0x24 DUP3 ADD MSTORE PUSH21 0x43454C4F20626F756E747920746F6F206C61726765 PUSH1 0x58 SHL PUSH1 0x44 DUP3 ADD MSTORE PUSH1 0x64 SWAP1 REVERT JUMPDEST CALLVALUE PUSH2 0x13F JUMPI PUSH1 0x20 CALLDATASIZE PUSH1 0x3 NOT ADD SLT PUSH2 0x13F JUMPI PUSH1 0x4 CALLDATALOAD PUSH2 0x22FD PUSH1 0x1 SLOAD DUP3 LT PUSH2 0x3495 JUMP JUMPDEST PUSH1 0x1 PUSH1 0x0 SLOAD PUSH2 0x230F PUSH1 0xFF DUP3 AND ISZERO PUSH2 0x34D6 JUMP JUMPDEST PUSH1 0xFF NOT AND OR PUSH1 0x0 SSTORE DUP1 PUSH1 0x0 MSTORE PUSH1 0x2 PUSH1 0x20 MSTORE PUSH1 0x40 PUSH1 0x0 KECCAK256 PUSH1 0xE DUP2 ADD SWAP1 PUSH2 0x233B PUSH1 0xFF DUP4 SLOAD PUSH1 0x80 SHR AND ISZERO PUSH2 0x3664 JUMP JUMPDEST PUSH1 0x1 DUP2 ADD SLOAD PUSH1 0x1 PUSH1 0x1 PUSH1 0xA0 SHL SUB AND CALLER EQ PUSH2 0x23FC JUMPI PUSH1 0xF ADD DUP1 SLOAD PUSH1 0x1 PUSH1 0x1 PUSH1 0xA0 SHL SUB NOT AND CALLER OR SWAP1 SSTORE DUP1 SLOAD PUSH1 0xFF PUSH1 0x90 SHL NOT DUP2 AND PUSH1 0x1 PUSH1 0x90 SHL OR DUP1 DUP4 SSTORE PUSH1 0x88 SHR PUSH1 0xFF AND PUSH2 0x23BB JUMPI JUMPDEST DUP3 PUSH1 0x40 MLOAD SWAP1 PUSH1 0x0 DUP3 MSTORE PUSH32 0xC7DB73A2D1DC7FD351B6549EFAD129BBF568E618DBBE683ABFA0D1550A96E5AE PUSH1 0x20 CALLER SWAP4 LOG3 PUSH1 0x0 DUP1 SLOAD PUSH1 0xFF NOT AND SWAP1 SSTORE STOP JUMPDEST PUSH3 0xFF00FF PUSH1 0x80 SHL NOT AND PUSH3 0x10001 PUSH1 0x80 SHL OR SWAP1 SSTORE CALLER DUP2 PUSH32 0x2C54217AED12A18C71E20E5A6A3F13F8CFDDBB2C3A0A5F409861478C7FD39E81 PUSH1 0x0 DUP1 LOG3 DUP2 DUP1 PUSH2 0x2380 JUMP JUMPDEST PUSH1 0x40 MLOAD PUSH3 0x461BCD PUSH1 0xE5 SHL DUP2 MSTORE PUSH1 0x20 PUSH1 0x4 DUP3 ADD MSTORE PUSH1 0x16 PUSH1 0x24 DUP3 ADD MSTORE PUSH22 0x27BBB732B91031B0B73737BA103132903334B73232B9 PUSH1 0x51 SHL PUSH1 0x44 DUP3 ADD MSTORE PUSH1 0x64 SWAP1 REVERT JUMPDEST CALLVALUE PUSH2 0x13F JUMPI PUSH1 0x40 CALLDATASIZE PUSH1 0x3 NOT ADD SLT PUSH2 0x13F JUMPI PUSH1 0x4 CALLDATALOAD PUSH1 0x24 CALLDATALOAD DUP2 ADD PUSH1 0x0 DUP2 DUP4 GT PUSH2 0x2535 JUMPI DUP2 SWAP1 PUSH1 0x1 SLOAD DUP1 SWAP4 GT PUSH2 0x252D JUMPI JUMPDEST DUP4 JUMPDEST DUP3 DUP2 LT PUSH2 0x24F3 JUMPI POP PUSH2 0x247C SWAP1 PUSH2 0x35CC JUMP JUMPDEST SWAP2 PUSH1 0x0 SWAP4 JUMPDEST DUP3 DUP2 LT PUSH2 0x24AD JUMPI POP PUSH2 0x24A2 SWAP4 POP PUSH1 0x40 MLOAD SWAP4 DUP5 SWAP4 PUSH1 0x40 DUP6 MSTORE PUSH1 0x40 DUP6 ADD SWAP1 PUSH2 0x3281 JUMP JUMPDEST SWAP2 LT PUSH1 0x20 DUP4 ADD MSTORE SUB SWAP1 RETURN JUMPDEST DUP1 PUSH1 0x0 MSTORE PUSH1 0x2 PUSH1 0x20 MSTORE PUSH1 0xFF PUSH1 0xE PUSH1 0x40 PUSH1 0x0 KECCAK256 ADD SLOAD PUSH1 0x80 SHR AND ISZERO PUSH2 0x24D3 JUMPI JUMPDEST PUSH1 0x1 ADD PUSH2 0x2481 JUMP JUMPDEST SWAP4 PUSH2 0x24EB DUP2 DUP7 PUSH2 0x24E5 PUSH1 0x1 SWAP5 DUP9 PUSH2 0x35FE JUMP JUMPDEST MSTORE PUSH2 0x35A6 JUMP JUMPDEST SWAP5 SWAP1 POP PUSH2 0x24CB JUMP JUMPDEST DUP1 PUSH1 0x0 MSTORE PUSH1 0x2 PUSH1 0x20 MSTORE PUSH1 0xFF PUSH1 0xE PUSH1 0x40 PUSH1 0x0 KECCAK256 ADD SLOAD PUSH1 0x80 SHR AND ISZERO PUSH2 0x2519 JUMPI JUMPDEST PUSH1 0x1 ADD PUSH2 0x246B JUMP JUMPDEST SWAP1 PUSH2 0x2525 PUSH1 0x1 SWAP2 PUSH2 0x35A6 JUMP JUMPDEST SWAP2 SWAP1 POP PUSH2 0x2511 JUMP JUMPDEST DUP3 SWAP2 POP PUSH2 0x2469 JUMP JUMPDEST PUSH4 0x4E487B71 PUSH1 0xE0 SHL PUSH1 0x0 MSTORE PUSH1 0x11 PUSH1 0x4 MSTORE PUSH1 0x24 PUSH1 0x0 REVERT JUMPDEST CALLVALUE PUSH2 0x13F JUMPI PUSH1 0x0 CALLDATASIZE PUSH1 0x3 NOT ADD SLT PUSH2 0x13F JUMPI PUSH1 0x20 PUSH1 0x40 MLOAD PUSH10 0x21E19E0C9BAB2400000 DUP2 MSTORE RETURN JUMPDEST CALLVALUE PUSH2 0x13F JUMPI PUSH1 0x0 CALLDATASIZE PUSH1 0x3 NOT ADD SLT PUSH2 0x13F JUMPI PUSH1 0x0 DUP1 PUSH1 0x1 SLOAD SWAP1 JUMPDEST DUP2 DUP2 LT PUSH2 0x259B JUMPI PUSH1 0x20 DUP4 PUSH1 0x40 MLOAD SWAP1 DUP2 MSTORE RETURN JUMPDEST DUP1 PUSH1 0x0 MSTORE PUSH1 0x2 PUSH1 0x20 MSTORE PUSH1 0xFF PUSH1 0xE PUSH1 0x40 PUSH1 0x0 KECCAK256 ADD SLOAD PUSH1 0x80 SHR AND ISZERO PUSH2 0x25C1 JUMPI JUMPDEST PUSH1 0x1 ADD PUSH2 0x2589 JUMP JUMPDEST SWAP2 PUSH2 0x25CD PUSH1 0x1 SWAP2 PUSH2 0x35A6 JUMP JUMPDEST SWAP3 SWAP1 POP PUSH2 0x25B9 JUMP JUMPDEST CALLVALUE PUSH2 0x13F JUMPI PUSH1 0x20 CALLDATASIZE PUSH1 0x3 NOT ADD SLT PUSH2 0x13F JUMPI PUSH1 0x4 CALLDATALOAD PUSH1 0x1 PUSH1 0x1 PUSH1 0xA0 SHL SUB DUP2 AND SWAP1 DUP2 DUP2 SUB PUSH2 0x13F JUMPI PUSH1 0x0 SLOAD SWAP1 PUSH2 0x2617 CALLER PUSH1 0x8 DUP5 SWAP1 SHR PUSH1 0x1 PUSH1 0x1 PUSH1 0xA0 SHL SUB AND EQ PUSH2 0x3445 JUMP JUMPDEST DUP3 ISZERO PUSH2 0x2666 JUMPI PUSH2 0x100 PUSH1 0x1 PUSH1 0xA8 SHL SUB NOT SWAP1 SWAP2 AND PUSH1 0x8 SWAP2 SWAP1 SWAP2 SHL PUSH2 0x100 PUSH1 0x1 PUSH1 0xA8 SHL SUB AND OR PUSH1 0x0 SWAP1 DUP2 SSTORE PUSH32 0x7CE7EC0B50378FB6C0186FFB5F48325F6593FCB4CA4386F21861AF3129188F5C SWAP1 DUP1 LOG2 STOP JUMPDEST PUSH1 0x40 MLOAD PUSH3 0x461BCD PUSH1 0xE5 SHL DUP2 MSTORE PUSH1 0x20 PUSH1 0x4 DUP3 ADD MSTORE PUSH1 0xF PUSH1 0x24 DUP3 ADD MSTORE PUSH15 0x496E76616C69642061646472657373 PUSH1 0x88 SHL PUSH1 0x44 DUP3 ADD MSTORE PUSH1 0x64 SWAP1 REVERT JUMPDEST CALLVALUE PUSH2 0x13F JUMPI PUSH1 0x20 CALLDATASIZE PUSH1 0x3 NOT ADD SLT PUSH2 0x13F JUMPI PUSH1 0x4 CALLDATALOAD DUP1 PUSH1 0x0 MSTORE PUSH1 0x2 PUSH1 0x20 MSTORE PUSH2 0x26D5 PUSH1 0x1 DUP1 PUSH1 0xA0 SHL SUB PUSH1 0x1 PUSH1 0x40 PUSH1 0x0 KECCAK256 ADD SLOAD AND CALLER EQ PUSH2 0x3628 JUMP JUMPDEST PUSH1 0x1 PUSH1 0x0 SLOAD PUSH2 0x26E7 PUSH1 0xFF DUP3 AND ISZERO PUSH2 0x34D6 JUMP JUMPDEST PUSH1 0xFF NOT AND OR PUSH1 0x0 SSTORE DUP1 PUSH1 0x0 MSTORE PUSH1 0x2 PUSH1 0x20 MSTORE PUSH1 0x40 PUSH1 0x0 KECCAK256 PUSH1 0xE DUP2 ADD DUP1 SLOAD SWAP2 PUSH2 0x2714 PUSH1 0xFF DUP5 PUSH1 0x80 SHR AND ISZERO PUSH2 0x3664 JUMP JUMPDEST PUSH1 0xF ADD SLOAD PUSH1 0x1 PUSH1 0x1 PUSH1 0xA0 SHL SUB AND SWAP2 DUP3 ISZERO PUSH2 0x27BE JUMPI PUSH1 0xFF PUSH1 0x88 SHL NOT DUP2 AND PUSH1 0x1 PUSH1 0x88 SHL OR DUP1 DUP4 SSTORE PUSH1 0x90 SHR PUSH1 0xFF AND PUSH2 0x277F JUMPI JUMPDEST DUP4 PUSH1 0x40 MLOAD SWAP1 PUSH1 0x1 DUP3 MSTORE PUSH32 0xC7DB73A2D1DC7FD351B6549EFAD129BBF568E618DBBE683ABFA0D1550A96E5AE PUSH1 0x20 CALLER SWAP4 LOG3 PUSH1 0x0 DUP1 SLOAD PUSH1 0xFF NOT AND SWAP1 SSTORE STOP JUMPDEST PUSH2 0xFFFF PUSH1 0x80 SHL NOT AND PUSH2 0x101 PUSH1 0x80 SHL OR SWAP1 SSTORE DUP2 PUSH32 0x2C54217AED12A18C71E20E5A6A3F13F8CFDDBB2C3A0A5F409861478C7FD39E81 PUSH1 0x0 DUP1 LOG3 DUP2 DUP1 DUP1 PUSH2 0x2744 JUMP JUMPDEST PUSH1 0x40 MLOAD PUSH3 0x461BCD PUSH1 0xE5 SHL DUP2 MSTORE PUSH1 0x20 PUSH1 0x4 DUP3 ADD MSTORE PUSH1 0x12 PUSH1 0x24 DUP3 ADD MSTORE PUSH18 0x139BC8199A5B99195C88185CDCDA59DB9959 PUSH1 0x72 SHL PUSH1 0x44 DUP3 ADD MSTORE PUSH1 0x64 SWAP1 REVERT JUMPDEST CALLVALUE PUSH2 0x13F JUMPI PUSH1 0x0 CALLDATASIZE PUSH1 0x3 NOT ADD SLT PUSH2 0x13F JUMPI PUSH1 0x0 DUP1 PUSH1 0x1 SLOAD SWAP1 JUMPDEST DUP2 DUP2 LT PUSH2 0x2D00 JUMPI POP PUSH2 0x2822 DUP3 PUSH2 0x35CC JUMP JUMPDEST SWAP1 PUSH2 0x282C DUP4 PUSH2 0x35B5 JUMP JUMPDEST SWAP3 PUSH2 0x283A PUSH1 0x40 MLOAD SWAP5 DUP6 PUSH2 0x3380 JUMP JUMPDEST DUP1 DUP5 MSTORE PUSH2 0x2849 PUSH1 0x1F NOT SWAP2 PUSH2 0x35B5 JUMP JUMPDEST ADD PUSH1 0x0 JUMPDEST DUP2 DUP2 LT PUSH2 0x2C4A JUMPI POP POP PUSH1 0x0 DUP1 JUMPDEST DUP3 DUP2 LT PUSH2 0x2A84 JUMPI POP POP POP PUSH2 0x2879 PUSH1 0x40 MLOAD SWAP2 PUSH1 0x40 DUP4 MSTORE PUSH1 0x40 DUP4 ADD SWAP1 PUSH2 0x3281 JUMP JUMPDEST SWAP2 DUP2 DUP4 SUB PUSH1 0x20 DUP4 ADD MSTORE DUP1 MLOAD SWAP3 DUP4 DUP2 MSTORE PUSH1 0x20 DUP2 ADD SWAP1 PUSH1 0x20 DUP1 DUP7 PUSH1 0x5 SHL DUP4 ADD ADD SWAP4 ADD SWAP2 PUSH1 0x0 SWAP2 JUMPDEST DUP7 DUP4 LT PUSH2 0x28AB JUMPI DUP6 DUP6 SUB DUP7 RETURN JUMPDEST SWAP1 SWAP2 SWAP3 SWAP4 PUSH1 0x1F NOT DUP3 DUP3 SUB ADD DUP4 MSTORE DUP5 MLOAD SWAP1 DUP2 MLOAD DUP2 MSTORE PUSH1 0x1 PUSH1 0xA0 SHL PUSH1 0x1 SWAP1 SUB PUSH1 0x20 DUP4 ADD MLOAD AND PUSH1 0x20 DUP3 ADD MSTORE PUSH1 0x40 DUP3 ADD MLOAD PUSH1 0x40 DUP3 ADD PUSH2 0x2A0 SWAP1 MSTORE PUSH2 0x2A0 DUP3 ADD PUSH2 0x28EF SWAP2 PUSH2 0x32D8 JUMP JUMPDEST PUSH1 0x60 DUP4 ADD MLOAD SWAP1 DUP3 DUP2 SUB PUSH1 0x60 DUP5 ADD MSTORE PUSH2 0x2906 SWAP2 PUSH2 0x32D8 JUMP JUMPDEST PUSH1 0x80 DUP4 ADD MLOAD SWAP1 DUP3 DUP2 SUB PUSH1 0x80 DUP5 ADD MSTORE PUSH2 0x291D SWAP2 PUSH2 0x32D8 JUMP JUMPDEST PUSH1 0xA0 DUP4 ADD MLOAD PUSH1 0x1 PUSH1 0x1 PUSH1 0x80 SHL SUB AND PUSH1 0xA0 DUP4 ADD MSTORE PUSH1 0xC0 DUP4 ADD MLOAD PUSH1 0x1 PUSH1 0x1 PUSH1 0x80 SHL SUB AND PUSH1 0xC0 DUP4 ADD MSTORE PUSH1 0xE0 DUP4 ADD MLOAD SWAP1 DUP3 DUP2 SUB PUSH1 0xE0 DUP5 ADD MSTORE PUSH2 0x295A SWAP2 PUSH2 0x32D8 JUMP JUMPDEST PUSH2 0x100 DUP4 ADD MLOAD SWAP1 DUP3 DUP2 SUB PUSH2 0x100 DUP5 ADD MSTORE PUSH2 0x2973 SWAP2 PUSH2 0x32D8 JUMP JUMPDEST PUSH2 0x120 DUP4 ADD MLOAD SWAP1 DUP3 DUP2 SUB PUSH2 0x120 DUP5 ADD MSTORE PUSH2 0x298C SWAP2 PUSH2 0x32D8 JUMP JUMPDEST PUSH2 0x140 DUP4 ADD MLOAD SWAP1 DUP3 DUP2 SUB PUSH2 0x140 DUP5 ADD MSTORE PUSH2 0x29A5 SWAP2 PUSH2 0x32D8 JUMP JUMPDEST PUSH2 0x160 DUP4 ADD MLOAD SWAP1 DUP3 DUP2 SUB PUSH2 0x160 DUP5 ADD MSTORE PUSH2 0x29BE SWAP2 PUSH2 0x32D8 JUMP JUMPDEST PUSH2 0x180 DUP4 ADD MLOAD SWAP1 DUP3 DUP2 SUB PUSH2 0x180 DUP5 ADD MSTORE PUSH2 0x29D7 SWAP2 PUSH2 0x32D8 JUMP JUMPDEST PUSH2 0x1A0 DUP4 ADD MLOAD SWAP1 DUP3 DUP2 SUB PUSH2 0x1A0 DUP5 ADD MSTORE PUSH2 0x29F0 SWAP2 PUSH2 0x32D8 JUMP JUMPDEST SWAP2 PUSH2 0x1C0 DUP2 ADD MLOAD PUSH1 0x1 PUSH1 0x1 PUSH1 0x80 SHL SUB AND PUSH2 0x1C0 DUP4 ADD MSTORE PUSH2 0x1E0 DUP2 ADD MLOAD PUSH1 0x1 PUSH1 0x1 PUSH1 0x80 SHL SUB AND PUSH2 0x1E0 DUP4 ADD MSTORE PUSH2 0x200 DUP2 ADD MLOAD PUSH1 0x1 PUSH1 0x1 PUSH1 0x80 SHL SUB AND PUSH2 0x200 DUP4 ADD MSTORE PUSH2 0x220 DUP2 ADD MLOAD ISZERO ISZERO PUSH2 0x220 DUP4 ADD MSTORE PUSH2 0x240 DUP2 ADD MLOAD ISZERO ISZERO PUSH2 0x240 DUP4 ADD MSTORE PUSH2 0x260 DUP2 ADD MLOAD ISZERO ISZERO PUSH2 0x260 DUP4 ADD MSTORE PUSH1 0x1 PUSH1 0xA0 SHL PUSH1 0x1 SWAP1 SUB SWAP1 PUSH2 0x280 ADD MLOAD AND SWAP1 PUSH2 0x280 ADD MSTORE SWAP4 PUSH1 0x20 ADD SWAP2 PUSH1 0x20 ADD SWAP3 PUSH1 0x1 ADD SWAP2 SWAP3 SWAP1 PUSH2 0x289E JUMP JUMPDEST DUP1 PUSH1 0x0 MSTORE PUSH1 0x2 PUSH1 0x20 MSTORE PUSH1 0xFF PUSH1 0xE PUSH1 0x40 PUSH1 0x0 KECCAK256 ADD SLOAD PUSH1 0x80 SHR AND ISZERO PUSH2 0x2AAA JUMPI JUMPDEST PUSH1 0x1 ADD PUSH2 0x285A JUMP JUMPDEST SWAP1 PUSH2 0x2C42 DUP2 DUP4 PUSH2 0x2ABC PUSH1 0x1 SWAP5 DUP9 PUSH2 0x35FE JUMP JUMPDEST MSTORE DUP4 PUSH1 0x0 MSTORE PUSH1 0x2 PUSH1 0x20 MSTORE PUSH1 0x40 PUSH1 0x0 KECCAK256 PUSH1 0x40 MLOAD SWAP1 PUSH2 0x2AD8 DUP3 PUSH2 0x3364 JUMP JUMPDEST DUP1 SLOAD DUP3 MSTORE DUP5 DUP1 PUSH1 0xA0 SHL SUB DUP6 DUP3 ADD SLOAD AND PUSH1 0x20 DUP4 ADD MSTORE PUSH2 0x2AF8 PUSH1 0x2 DUP3 ADD PUSH2 0x33A1 JUMP JUMPDEST PUSH1 0x40 DUP4 ADD MSTORE PUSH2 0x2B09 PUSH1 0x3 DUP3 ADD PUSH2 0x33A1 JUMP JUMPDEST PUSH1 0x60 DUP4 ADD MSTORE PUSH2 0x2B1A PUSH1 0x4 DUP3 ADD PUSH2 0x33A1 JUMP JUMPDEST PUSH1 0x80 DUP4 ADD MSTORE PUSH1 0x5 DUP2 ADD SLOAD PUSH1 0x1 PUSH1 0x1 PUSH1 0x80 SHL SUB DUP2 AND PUSH1 0xA0 DUP5 ADD MSTORE PUSH1 0x80 SHR PUSH1 0xC0 DUP4 ADD MSTORE PUSH2 0x2B47 PUSH1 0x6 DUP3 ADD PUSH2 0x33A1 JUMP JUMPDEST PUSH1 0xE0 DUP4 ADD MSTORE PUSH2 0x2B58 PUSH1 0x7 DUP3 ADD PUSH2 0x33A1 JUMP JUMPDEST PUSH2 0x100 DUP4 ADD MSTORE PUSH2 0x2B6A PUSH1 0x8 DUP3 ADD PUSH2 0x33A1 JUMP JUMPDEST PUSH2 0x120 DUP4 ADD MSTORE PUSH2 0x2B7C PUSH1 0x9 DUP3 ADD PUSH2 0x33A1 JUMP JUMPDEST PUSH2 0x140 DUP4 ADD MSTORE PUSH2 0x2B8E PUSH1 0xA DUP3 ADD PUSH2 0x33A1 JUMP JUMPDEST PUSH2 0x160 DUP4 ADD MSTORE PUSH2 0x2BA0 PUSH1 0xB DUP3 ADD PUSH2 0x33A1 JUMP JUMPDEST PUSH2 0x180 DUP4 ADD MSTORE PUSH2 0x2BB2 PUSH1 0xC DUP3 ADD PUSH2 0x33A1 JUMP JUMPDEST PUSH2 0x1A0 DUP4 ADD MSTORE PUSH1 0xD DUP2 ADD SLOAD PUSH1 0x1 PUSH1 0x1 PUSH1 0x80 SHL SUB DUP2 AND PUSH2 0x1C0 DUP5 ADD MSTORE PUSH1 0x80 SHR PUSH2 0x1E0 DUP4 ADD MSTORE PUSH1 0xFF PUSH1 0xE DUP3 ADD SLOAD PUSH1 0x1 PUSH1 0x1 PUSH1 0x80 SHL SUB DUP2 AND PUSH2 0x200 DUP6 ADD MSTORE DUP2 DUP2 PUSH1 0x80 SHR AND ISZERO ISZERO PUSH2 0x220 DUP6 ADD MSTORE DUP2 DUP2 PUSH1 0x88 SHR AND ISZERO ISZERO PUSH2 0x240 DUP6 ADD MSTORE PUSH1 0x90 SHR AND ISZERO ISZERO PUSH2 0x260 DUP4 ADD MSTORE PUSH1 0xF DUP6 DUP1 PUSH1 0xA0 SHL SUB SWAP2 ADD SLOAD AND PUSH2 0x280 DUP3 ADD MSTORE PUSH2 0x2C31 DUP3 DUP10 PUSH2 0x35FE JUMP JUMPDEST MSTORE PUSH2 0x2C3C DUP2 DUP9 PUSH2 0x35FE JUMP JUMPDEST POP PUSH2 0x35A6 JUMP JUMPDEST SWAP2 SWAP1 POP PUSH2 0x2AA2 JUMP JUMPDEST PUSH1 0x20 SWAP1 PUSH1 0x40 MLOAD PUSH2 0x2C59 DUP2 PUSH2 0x3364 JUMP JUMPDEST PUSH1 0x0 DUP2 MSTORE PUSH1 0x0 DUP4 DUP3 ADD MSTORE PUSH1 0x60 PUSH1 0x40 DUP3 ADD MSTORE PUSH1 0x60 DUP1 DUP3 ADD MSTORE PUSH1 0x60 PUSH1 0x80 DUP3 ADD MSTORE PUSH1 0x0 PUSH1 0xA0 DUP3 ADD MSTORE PUSH1 0x0 PUSH1 0xC0 DUP3 ADD MSTORE PUSH1 0x60 PUSH1 0xE0 DUP3 ADD MSTORE PUSH1 0x60 PUSH2 0x100 DUP3 ADD MSTORE PUSH1 0x60 PUSH2 0x120 DUP3 ADD MSTORE PUSH1 0x60 PUSH2 0x140 DUP3 ADD MSTORE PUSH1 0x60 PUSH2 0x160 DUP3 ADD MSTORE PUSH1 0x60 PUSH2 0x180 DUP3 ADD MSTORE PUSH1 0x60 PUSH2 0x1A0 DUP3 ADD MSTORE PUSH1 0x0 PUSH2 0x1C0 DUP3 ADD MSTORE PUSH1 0x0 PUSH2 0x1E0 DUP3 ADD MSTORE PUSH1 0x0 PUSH2 0x200 DUP3 ADD MSTORE PUSH1 0x0 PUSH2 0x220 DUP3 ADD MSTORE PUSH1 0x0 PUSH2 0x240 DUP3 ADD MSTORE PUSH1 0x0 PUSH2 0x260 DUP3 ADD MSTORE PUSH1 0x0 PUSH2 0x280 DUP3 ADD MSTORE DUP3 DUP3 DUP9 ADD ADD MSTORE ADD PUSH2 0x284D JUMP JUMPDEST DUP1 PUSH1 0x0 MSTORE PUSH1 0x2 PUSH1 0x20 MSTORE PUSH1 0xFF PUSH1 0xE PUSH1 0x40 PUSH1 0x0 KECCAK256 ADD SLOAD PUSH1 0x80 SHR AND ISZERO PUSH2 0x2D26 JUMPI JUMPDEST PUSH1 0x1 ADD PUSH2 0x2811 JUMP JUMPDEST SWAP2 PUSH2 0x2D32 PUSH1 0x1 SWAP2 PUSH2 0x35A6 JUMP JUMPDEST SWAP3 SWAP1 POP PUSH2 0x2D1E JUMP JUMPDEST CALLVALUE PUSH2 0x13F JUMPI PUSH1 0x0 CALLDATASIZE PUSH1 0x3 NOT ADD SLT PUSH2 0x13F JUMPI PUSH1 0x20 PUSH1 0x40 MLOAD PUSH20 0x765DE816845861E75A25FCA122BB6898B8B1282A DUP2 MSTORE RETURN JUMPDEST CALLVALUE PUSH2 0x13F JUMPI PUSH1 0x20 CALLDATASIZE PUSH1 0x3 NOT ADD SLT PUSH2 0x13F JUMPI PUSH1 0x4 CALLDATALOAD PUSH2 0x2D8A PUSH1 0x1 SLOAD DUP3 LT PUSH2 0x3495 JUMP JUMPDEST PUSH1 0x1 PUSH1 0x0 SLOAD PUSH2 0x2D9C PUSH1 0xFF DUP3 AND ISZERO PUSH2 0x34D6 JUMP JUMPDEST PUSH1 0xFF NOT AND OR PUSH1 0x0 SSTORE DUP1 PUSH1 0x0 MSTORE PUSH1 0x2 PUSH1 0x20 MSTORE PUSH1 0x40 PUSH1 0x0 KECCAK256 SWAP1 PUSH1 0xE DUP3 ADD SWAP2 DUP3 SLOAD SWAP1 PUSH1 0xFF DUP3 PUSH1 0x80 SHR AND ISZERO PUSH2 0x3060 JUMPI PUSH1 0xF DUP2 ADD SLOAD PUSH1 0x1 PUSH1 0x1 PUSH1 0xA0 SHL SUB AND CALLER SUB PUSH2 0x302E JUMPI PUSH1 0xD ADD DUP1 SLOAD PUSH1 0x1 PUSH1 0x1 PUSH1 0x80 SHL SUB DUP2 AND SWAP5 DUP6 ISZERO DUP1 SWAP2 DUP2 ISZERO DUP1 SWAP3 PUSH2 0x3022 JUMPI JUMPDEST DUP1 ISZERO PUSH2 0x3010 JUMPI JUMPDEST ISZERO PUSH2 0x2FDF JUMPI PUSH1 0x0 SWAP5 DUP6 SWAP1 SSTORE DUP1 SLOAD PUSH1 0x1 PUSH1 0x1 PUSH1 0x80 SHL SUB NOT AND SWAP1 SSTORE DUP6 DUP5 MSTORE PUSH1 0x3 PUSH1 0x20 SWAP1 DUP2 MSTORE PUSH1 0x40 DUP1 DUP7 KECCAK256 DUP7 SWAP1 SSTORE PUSH1 0x4 SWAP1 SWAP2 MSTORE DUP5 KECCAK256 SWAP4 SWAP1 SWAP4 SSTORE PUSH1 0x80 SWAP2 SWAP1 SWAP2 SHR SWAP3 PUSH1 0x1 PUSH1 0x1 PUSH1 0x80 SHL SUB AND SWAP2 DUP6 SWAP2 SWAP1 PUSH2 0x2FB8 JUMPI JUMPDEST POP POP DUP2 PUSH2 0x2F44 JUMPI JUMPDEST DUP1 PUSH2 0x2E9D JUMPI JUMPDEST PUSH1 0x40 DUP1 MLOAD SWAP5 DUP6 MSTORE PUSH1 0x20 DUP6 ADD SWAP3 SWAP1 SWAP3 MSTORE SWAP1 DUP4 ADD MSTORE CALLER SWAP2 PUSH32 0xAF63EFACF28433915EA2D25F6E48EB87264E585BEBEF968BCD127A52608ADEC SWAP1 DUP1 PUSH1 0x60 DUP2 ADD PUSH2 0x545 JUMP JUMPDEST PUSH1 0x40 MLOAD SWAP2 PUSH4 0x2000575 PUSH1 0xE5 SHL DUP4 MSTORE CALLER PUSH1 0x4 DUP5 ADD MSTORE DUP2 PUSH1 0x24 DUP5 ADD MSTORE PUSH1 0x60 PUSH1 0x44 DUP5 ADD MSTORE PUSH1 0x0 PUSH1 0x64 DUP5 ADD MSTORE PUSH1 0x20 DUP4 PUSH1 0x84 DUP2 PUSH1 0x0 PUSH20 0x62B8B11039FCFE5AB0C56E502B1C372A3D2A9C7A GAS CALL SWAP3 DUP4 ISZERO PUSH2 0x608 JUMPI PUSH32 0xAF63EFACF28433915EA2D25F6E48EB87264E585BEBEF968BCD127A52608ADEC SWAP4 PUSH2 0x2F1E SWAP2 PUSH1 0x0 SWAP2 PUSH2 0x2F25 JUMPI POP PUSH2 0x3565 JUMP JUMPDEST SWAP2 POP PUSH2 0x2E5C JUMP JUMPDEST PUSH2 0x2F3E SWAP2 POP PUSH1 0x20 RETURNDATASIZE PUSH1 0x20 GT PUSH2 0x601 JUMPI PUSH2 0x5F3 DUP2 DUP4 PUSH2 0x3380 JUMP JUMPDEST DUP8 PUSH2 0x2075 JUMP JUMPDEST PUSH1 0x40 MLOAD PUSH4 0xA9059CBB PUSH1 0xE0 SHL DUP2 MSTORE CALLER PUSH1 0x4 DUP3 ADD MSTORE PUSH1 0x24 DUP2 ADD DUP4 SWAP1 MSTORE PUSH1 0x20 DUP2 PUSH1 0x44 DUP2 PUSH1 0x0 PUSH20 0x765DE816845861E75A25FCA122BB6898B8B1282A GAS CALL DUP1 ISZERO PUSH2 0x608 JUMPI PUSH2 0x2F94 SWAP2 PUSH1 0x0 SWAP2 PUSH2 0x2F99 JUMPI POP PUSH2 0x3522 JUMP JUMPDEST PUSH2 0x2E56 JUMP JUMPDEST PUSH2 0x2FB2 SWAP2 POP PUSH1 0x20 RETURNDATASIZE PUSH1 0x20 GT PUSH2 0x601 JUMPI PUSH2 0x5F3 DUP2 DUP4 PUSH2 0x3380 JUMP JUMPDEST DUP7 PUSH2 0x1FC3 JUMP JUMPDEST PUSH1 0x0 SWAP1 PUSH2 0x2FD6 JUMPI JUMPDEST PUSH1 0x0 DUP1 DUP1 SWAP4 DUP2 SWAP4 CALLER SWAP1 CALL ISZERO PUSH2 0x608 JUMPI DUP4 DUP6 PUSH2 0x2E4E JUMP JUMPDEST POP PUSH2 0x8FC PUSH2 0x2FC0 JUMP JUMPDEST PUSH1 0x40 MLOAD PUSH3 0x461BCD PUSH1 0xE5 SHL DUP2 MSTORE PUSH1 0x20 PUSH1 0x4 DUP3 ADD MSTORE PUSH1 0x9 PUSH1 0x24 DUP3 ADD MSTORE PUSH9 0x4E6F20626F756E7479 PUSH1 0xB8 SHL PUSH1 0x44 DUP3 ADD MSTORE PUSH1 0x64 SWAP1 REVERT JUMPDEST POP PUSH1 0x1 PUSH1 0x1 PUSH1 0x80 SHL SUB DUP7 AND ISZERO ISZERO PUSH2 0x2DFF JUMP JUMPDEST POP DUP4 PUSH1 0x80 SHR ISZERO ISZERO PUSH2 0x2DF8 JUMP JUMPDEST PUSH1 0x40 MLOAD PUSH3 0x461BCD PUSH1 0xE5 SHL DUP2 MSTORE PUSH1 0x20 PUSH1 0x4 DUP3 ADD MSTORE PUSH1 0xA PUSH1 0x24 DUP3 ADD MSTORE PUSH10 0x2737BA103334B73232B9 PUSH1 0xB1 SHL PUSH1 0x44 DUP3 ADD MSTORE PUSH1 0x64 SWAP1 REVERT JUMPDEST PUSH1 0x40 MLOAD PUSH3 0x461BCD PUSH1 0xE5 SHL DUP2 MSTORE PUSH1 0x20 PUSH1 0x4 DUP3 ADD MSTORE PUSH1 0xD PUSH1 0x24 DUP3 ADD MSTORE PUSH13 0x14195D081B9BDD08199BDD5B99 PUSH1 0x9A SHL PUSH1 0x44 DUP3 ADD MSTORE PUSH1 0x64 SWAP1 REVERT JUMPDEST CALLVALUE PUSH2 0x13F JUMPI PUSH1 0x0 CALLDATASIZE PUSH1 0x3 NOT ADD SLT PUSH2 0x13F JUMPI PUSH1 0x20 PUSH1 0x1 SLOAD PUSH1 0x40 MLOAD SWAP1 DUP2 MSTORE RETURN JUMPDEST CALLVALUE PUSH2 0x13F JUMPI PUSH1 0x0 CALLDATASIZE PUSH1 0x3 NOT ADD SLT PUSH2 0x13F JUMPI PUSH1 0x20 PUSH1 0x40 MLOAD PUSH8 0x8AC7230489E80000 DUP2 MSTORE RETURN JUMPDEST CALLVALUE PUSH2 0x13F JUMPI PUSH1 0x20 CALLDATASIZE PUSH1 0x3 NOT ADD SLT PUSH2 0x13F JUMPI PUSH1 0x4 CALLDATALOAD PUSH1 0x1 PUSH1 0x1 PUSH1 0xA0 SHL SUB DUP2 AND DUP2 SUB PUSH2 0x13F JUMPI PUSH2 0x3112 PUSH1 0x1 DUP1 PUSH1 0xA0 SHL SUB PUSH1 0x0 SLOAD PUSH1 0x8 SHR AND CALLER EQ PUSH2 0x3445 JUMP JUMPDEST PUSH1 0x40 MLOAD PUSH4 0x70A08231 PUSH1 0xE0 SHL DUP2 MSTORE ADDRESS PUSH1 0x4 DUP3 ADD MSTORE PUSH1 0x20 DUP2 PUSH1 0x24 DUP2 PUSH20 0x765DE816845861E75A25FCA122BB6898B8B1282A GAS STATICCALL SWAP1 DUP2 ISZERO PUSH2 0x608 JUMPI PUSH1 0x0 SWAP2 PUSH2 0x3205 JUMPI JUMPDEST POP PUSH1 0x40 MLOAD PUSH4 0xA9059CBB PUSH1 0xE0 SHL DUP2 MSTORE PUSH1 0x1 PUSH1 0x1 PUSH1 0xA0 SHL SUB SWAP1 SWAP3 AND PUSH1 0x4 DUP4 ADD MSTORE PUSH1 0x24 DUP3 ADD MSTORE PUSH1 0x20 DUP2 DUP1 PUSH1 0x44 DUP2 ADD JUMPDEST SUB DUP2 PUSH1 0x0 PUSH20 0x765DE816845861E75A25FCA122BB6898B8B1282A GAS CALL SWAP1 DUP2 ISZERO PUSH2 0x608 JUMPI PUSH1 0x0 SWAP2 PUSH2 0x31E6 JUMPI JUMPDEST POP ISZERO PUSH2 0x31AF JUMPI STOP JUMPDEST PUSH1 0x40 MLOAD PUSH3 0x461BCD PUSH1 0xE5 SHL DUP2 MSTORE PUSH1 0x20 PUSH1 0x4 DUP3 ADD MSTORE PUSH1 0xF PUSH1 0x24 DUP3 ADD MSTORE PUSH15 0x151C985B9CD9995C8819985A5B1959 PUSH1 0x8A SHL PUSH1 0x44 DUP3 ADD MSTORE PUSH1 0x64 SWAP1 REVERT JUMPDEST PUSH2 0x31FF SWAP2 POP PUSH1 0x20 RETURNDATASIZE PUSH1 0x20 GT PUSH2 0x601 JUMPI PUSH2 0x5F3 DUP2 DUP4 PUSH2 0x3380 JUMP JUMPDEST DUP2 PUSH2 0x31A7 JUMP JUMPDEST SWAP1 POP PUSH1 0x20 DUP2 RETURNDATASIZE PUSH1 0x20 GT PUSH2 0x3231 JUMPI JUMPDEST DUP2 PUSH2 0x3220 PUSH1 0x20 SWAP4 DUP4 PUSH2 0x3380 JUMP JUMPDEST DUP2 ADD SUB SLT PUSH2 0x13F JUMPI MLOAD PUSH2 0x317D PUSH2 0x3151 JUMP JUMPDEST RETURNDATASIZE SWAP2 POP PUSH2 0x3213 JUMP JUMPDEST CALLVALUE PUSH2 0x13F JUMPI PUSH1 0x20 CALLDATASIZE PUSH1 0x3 NOT ADD SLT PUSH2 0x13F JUMPI PUSH1 0x4 CALLDATALOAD PUSH1 0x0 MSTORE PUSH1 0x3 PUSH1 0x20 MSTORE PUSH1 0x20 PUSH1 0x40 PUSH1 0x0 KECCAK256 SLOAD PUSH1 0x40 MLOAD SWAP1 DUP2 MSTORE RETURN JUMPDEST CALLVALUE PUSH2 0x13F JUMPI PUSH1 0x0 CALLDATASIZE PUSH1 0x3 NOT ADD SLT PUSH2 0x13F JUMPI DUP1 PUSH3 0x76A700 PUSH1 0x20 SWAP3 MSTORE RETURN JUMPDEST SWAP1 PUSH1 0x20 DUP1 DUP4 MLOAD SWAP3 DUP4 DUP2 MSTORE ADD SWAP3 ADD SWAP1 PUSH1 0x0 JUMPDEST DUP2 DUP2 LT PUSH2 0x329F JUMPI POP POP POP SWAP1 JUMP JUMPDEST DUP3 MLOAD DUP5 MSTORE PUSH1 0x20 SWAP4 DUP5 ADD SWAP4 SWAP1 SWAP3 ADD SWAP2 PUSH1 0x1 ADD PUSH2 0x3292 JUMP JUMPDEST PUSH1 0x0 JUMPDEST DUP4 DUP2 LT PUSH2 0x32C8 JUMPI POP POP PUSH1 0x0 SWAP2 ADD MSTORE JUMP JUMPDEST DUP2 DUP2 ADD MLOAD DUP4 DUP3 ADD MSTORE PUSH1 0x20 ADD PUSH2 0x32B8 JUMP JUMPDEST SWAP1 PUSH1 0x20 SWAP2 PUSH2 0x32F1 DUP2 MLOAD DUP1 SWAP3 DUP2 DUP6 MSTORE DUP6 DUP1 DUP7 ADD SWAP2 ADD PUSH2 0x32B5 JUMP JUMPDEST PUSH1 0x1F ADD PUSH1 0x1F NOT AND ADD ADD SWAP1 JUMP JUMPDEST SWAP2 DUP2 PUSH1 0x1F DUP5 ADD SLT ISZERO PUSH2 0x13F JUMPI DUP3 CALLDATALOAD SWAP2 PUSH1 0x1 PUSH1 0x1 PUSH1 0x40 SHL SUB DUP4 GT PUSH2 0x13F JUMPI PUSH1 0x20 DUP4 DUP2 DUP7 ADD SWAP6 ADD ADD GT PUSH2 0x13F JUMPI JUMP JUMPDEST SWAP1 PUSH1 0x1 DUP3 DUP2 SHR SWAP3 AND DUP1 ISZERO PUSH2 0x335A JUMPI JUMPDEST PUSH1 0x20 DUP4 LT EQ PUSH2 0x3344 JUMPI JUMP JUMPDEST PUSH4 0x4E487B71 PUSH1 0xE0 SHL PUSH1 0x0 MSTORE PUSH1 0x22 PUSH1 0x4 MSTORE PUSH1 0x24 PUSH1 0x0 REVERT JUMPDEST SWAP2 PUSH1 0x7F AND SWAP2 PUSH2 0x3339 JUMP JUMPDEST PUSH2 0x2A0 DUP2 ADD SWAP1 DUP2 LT PUSH1 0x1 PUSH1 0x1 PUSH1 0x40 SHL SUB DUP3 GT OR PUSH2 0x1893 JUMPI PUSH1 0x40 MSTORE JUMP JUMPDEST SWAP1 PUSH1 0x1F DUP1 NOT SWAP2 ADD AND DUP2 ADD SWAP1 DUP2 LT PUSH1 0x1 PUSH1 0x1 PUSH1 0x40 SHL SUB DUP3 GT OR PUSH2 0x1893 JUMPI PUSH1 0x40 MSTORE JUMP JUMPDEST SWAP1 PUSH1 0x40 MLOAD SWAP2 DUP3 PUSH1 0x0 DUP3 SLOAD SWAP3 PUSH2 0x33B5 DUP5 PUSH2 0x332A JUMP JUMPDEST DUP1 DUP5 MSTORE SWAP4 PUSH1 0x1 DUP2 AND SWAP1 DUP2 ISZERO PUSH2 0x3423 JUMPI POP PUSH1 0x1 EQ PUSH2 0x33DC JUMPI JUMPDEST POP PUSH2 0x33DA SWAP3 POP SUB DUP4 PUSH2 0x3380 JUMP JUMPDEST JUMP JUMPDEST SWAP1 POP PUSH1 0x0 SWAP3 SWAP2 SWAP3 MSTORE PUSH1 0x20 PUSH1 0x0 KECCAK256 SWAP1 PUSH1 0x0 SWAP2 JUMPDEST DUP2 DUP4 LT PUSH2 0x3407 JUMPI POP POP SWAP1 PUSH1 0x20 PUSH2 0x33DA SWAP3 DUP3 ADD ADD CODESIZE PUSH2 0x33CD JUMP JUMPDEST PUSH1 0x20 SWAP2 SWAP4 POP DUP1 PUSH1 0x1 SWAP2 SLOAD DUP4 DUP6 DUP10 ADD ADD MSTORE ADD SWAP2 ADD SWAP1 SWAP2 DUP5 SWAP3 PUSH2 0x33EE JUMP JUMPDEST SWAP1 POP PUSH1 0x20 SWAP3 POP PUSH2 0x33DA SWAP5 SWAP2 POP PUSH1 0xFF NOT AND DUP3 DUP5 ADD MSTORE ISZERO ISZERO PUSH1 0x5 SHL DUP3 ADD ADD CODESIZE PUSH2 0x33CD JUMP JUMPDEST ISZERO PUSH2 0x344C JUMPI JUMP JUMPDEST PUSH1 0x40 MLOAD PUSH3 0x461BCD PUSH1 0xE5 SHL DUP2 MSTORE PUSH1 0x20 PUSH1 0x4 DUP3 ADD MSTORE PUSH1 0x9 PUSH1 0x24 DUP3 ADD MSTORE PUSH9 0x2737BA1030B236B4B7 PUSH1 0xB9 SHL PUSH1 0x44 DUP3 ADD MSTORE PUSH1 0x64 SWAP1 REVERT JUMPDEST SWAP1 DUP2 PUSH1 0x20 SWAP2 SUB SLT PUSH2 0x13F JUMPI MLOAD DUP1 ISZERO ISZERO DUP2 SUB PUSH2 0x13F JUMPI SWAP1 JUMP JUMPDEST ISZERO PUSH2 0x349C JUMPI JUMP JUMPDEST PUSH1 0x40 MLOAD PUSH3 0x461BCD PUSH1 0xE5 SHL DUP2 MSTORE PUSH1 0x20 PUSH1 0x4 DUP3 ADD MSTORE PUSH1 0x12 PUSH1 0x24 DUP3 ADD MSTORE PUSH18 0x14195D08191BD95CC81B9BDD08195E1A5CDD PUSH1 0x72 SHL PUSH1 0x44 DUP3 ADD MSTORE PUSH1 0x64 SWAP1 REVERT JUMPDEST ISZERO PUSH2 0x34DD JUMPI JUMP JUMPDEST PUSH1 0x40 MLOAD PUSH3 0x461BCD PUSH1 0xE5 SHL DUP2 MSTORE PUSH1 0x20 PUSH1 0x4 DUP3 ADD MSTORE PUSH1 0x1F PUSH1 0x24 DUP3 ADD MSTORE PUSH32 0x5265656E7472616E637947756172643A207265656E7472616E742063616C6C00 PUSH1 0x44 DUP3 ADD MSTORE PUSH1 0x64 SWAP1 REVERT JUMPDEST ISZERO PUSH2 0x3529 JUMPI JUMP JUMPDEST PUSH1 0x40 MLOAD PUSH3 0x461BCD PUSH1 0xE5 SHL DUP2 MSTORE PUSH1 0x20 PUSH1 0x4 DUP3 ADD MSTORE PUSH1 0x14 PUSH1 0x24 DUP3 ADD MSTORE PUSH20 0x18D554D1081D1C985B9CD9995C8819985A5B1959 PUSH1 0x62 SHL PUSH1 0x44 DUP3 ADD MSTORE PUSH1 0x64 SWAP1 REVERT JUMPDEST ISZERO PUSH2 0x356C JUMPI JUMP JUMPDEST PUSH1 0x40 MLOAD PUSH3 0x461BCD PUSH1 0xE5 SHL DUP2 MSTORE PUSH1 0x20 PUSH1 0x4 DUP3 ADD MSTORE PUSH1 0x12 PUSH1 0x24 DUP3 ADD MSTORE PUSH18 0x11C9081D1C985B9CD9995C8819985A5B1959 PUSH1 0x72 SHL PUSH1 0x44 DUP3 ADD MSTORE PUSH1 0x64 SWAP1 REVERT JUMPDEST PUSH1 0x0 NOT DUP2 EQ PUSH2 0x2535 JUMPI PUSH1 0x1 ADD SWAP1 JUMP JUMPDEST PUSH1 0x1 PUSH1 0x1 PUSH1 0x40 SHL SUB DUP2 GT PUSH2 0x1893 JUMPI PUSH1 0x5 SHL PUSH1 0x20 ADD SWAP1 JUMP JUMPDEST SWAP1 PUSH2 0x35D6 DUP3 PUSH2 0x35B5 JUMP JUMPDEST PUSH2 0x35E3 PUSH1 0x40 MLOAD SWAP2 DUP3 PUSH2 0x3380 JUMP JUMPDEST DUP3 DUP2 MSTORE DUP1 SWAP3 PUSH2 0x35F4 PUSH1 0x1F NOT SWAP2 PUSH2 0x35B5 JUMP JUMPDEST ADD SWAP1 PUSH1 0x20 CALLDATASIZE SWAP2 ADD CALLDATACOPY JUMP JUMPDEST DUP1 MLOAD DUP3 LT ISZERO PUSH2 0x3612 JUMPI PUSH1 0x20 SWAP2 PUSH1 0x5 SHL ADD ADD SWAP1 JUMP JUMPDEST PUSH4 0x4E487B71 PUSH1 0xE0 SHL PUSH1 0x0 MSTORE PUSH1 0x32 PUSH1 0x4 MSTORE PUSH1 0x24 PUSH1 0x0 REVERT JUMPDEST ISZERO PUSH2 0x362F JUMPI JUMP JUMPDEST PUSH1 0x40 MLOAD PUSH3 0x461BCD PUSH1 0xE5 SHL DUP2 MSTORE PUSH1 0x20 PUSH1 0x4 DUP3 ADD MSTORE PUSH1 0xD PUSH1 0x24 DUP3 ADD MSTORE PUSH13 0x2737BA103832BA1037BBB732B9 PUSH1 0x99 SHL PUSH1 0x44 DUP3 ADD MSTORE PUSH1 0x64 SWAP1 REVERT JUMPDEST ISZERO PUSH2 0x366B JUMPI JUMP JUMPDEST PUSH1 0x40 MLOAD PUSH3 0x461BCD PUSH1 0xE5 SHL DUP2 MSTORE PUSH1 0x20 PUSH1 0x4 DUP3 ADD MSTORE PUSH1 0xD PUSH1 0x24 DUP3 ADD MSTORE PUSH13 0x105B1C9958591E48199BDD5B99 PUSH1 0x9A SHL PUSH1 0x44 DUP3 ADD MSTORE PUSH1 0x64 SWAP1 REVERT JUMPDEST SWAP3 SWAP2 SWAP3 PUSH1 0x1 PUSH1 0x1 PUSH1 0x40 SHL SUB DUP3 GT PUSH2 0x1893 JUMPI PUSH1 0x40 MLOAD SWAP2 PUSH2 0x36C9 PUSH1 0x1F DUP3 ADD PUSH1 0x1F NOT AND PUSH1 0x20 ADD DUP5 PUSH2 0x3380 JUMP JUMPDEST DUP3 SWAP5 DUP2 DUP5 MSTORE DUP2 DUP4 ADD GT PUSH2 0x13F JUMPI DUP3 DUP2 PUSH1 0x20 SWAP4 DUP5 PUSH1 0x0 SWAP7 ADD CALLDATACOPY ADD ADD MSTORE JUMP JUMPDEST ISZERO PUSH2 0x36EE JUMPI POP JUMP JUMPDEST PUSH1 0x40 MLOAD PUSH3 0x461BCD PUSH1 0xE5 SHL DUP2 MSTORE PUSH1 0x20 PUSH1 0x4 DUP3 ADD MSTORE SWAP1 DUP2 SWAP1 PUSH2 0x3712 SWAP1 PUSH1 0x24 DUP4 ADD SWAP1 PUSH2 0x32D8 JUMP JUMPDEST SUB SWAP1 REVERT JUMPDEST PUSH2 0x3721 SWAP2 CALLDATASIZE SWAP2 PUSH2 0x36A0 JUMP JUMPDEST DUP1 MLOAD SWAP1 PUSH1 0x2 DUP3 LT ISZERO SWAP2 DUP3 PUSH2 0x37E8 JUMPI JUMPDEST POP PUSH1 0x40 MLOAD SWAP2 DUP4 MLOAD SWAP3 DUP1 PUSH1 0x20 DUP7 ADD SWAP5 DUP1 PUSH1 0x20 DUP4 ADD SWAP1 PUSH2 0x374E SWAP2 DUP9 PUSH2 0x32B5 JUMP JUMPDEST DUP2 ADD PUSH1 0x20 DUP2 ADD PUSH15 0x81B195B99DD1A081A5B9D985B1A59 PUSH1 0x8A SHL SWAP1 MSTORE SUB PUSH1 0x20 ADD PUSH1 0x10 NOT DUP2 ADD DUP3 MSTORE PUSH1 0xF ADD PUSH2 0x3781 SWAP1 DUP3 PUSH2 0x3380 JUMP JUMPDEST PUSH2 0x378A SWAP2 PUSH2 0x36E6 JUMP JUMPDEST PUSH2 0x3793 SWAP1 PUSH2 0x38AB JUMP JUMPDEST ISZERO SWAP2 PUSH1 0x40 MLOAD SWAP2 DUP3 SWAP2 MLOAD SWAP1 DUP2 PUSH1 0x20 DUP5 ADD PUSH2 0x37AB SWAP3 PUSH2 0x32B5 JUMP JUMPDEST DUP2 ADD PUSH1 0x20 DUP2 ADD PUSH16 0x2063616E6E6F7420626520626C616E6B PUSH1 0x80 SHL SWAP1 MSTORE SUB PUSH1 0x20 ADD PUSH1 0xF NOT DUP2 ADD DUP3 MSTORE PUSH1 0x10 ADD PUSH2 0x37DF SWAP1 DUP3 PUSH2 0x3380 JUMP JUMPDEST PUSH2 0x33DA SWAP2 PUSH2 0x36E6 JUMP JUMPDEST PUSH1 0x32 LT ISZERO SWAP2 POP CODESIZE PUSH2 0x3730 JUMP JUMPDEST SWAP1 DUP2 MLOAD DUP2 LT ISZERO PUSH2 0x3612 JUMPI ADD PUSH1 0x20 ADD SWAP1 JUMP JUMPDEST PUSH1 0x5 DUP2 MLOAD LT PUSH2 0x38A5 JUMPI PUSH1 0x0 DUP1 SWAP2 DUP2 JUMPDEST DUP2 MLOAD DUP4 LT ISZERO PUSH2 0x3893 JUMPI PUSH1 0x1 PUSH1 0xFE SHL PUSH1 0x1 PUSH1 0x1 PUSH1 0xF8 SHL SUB NOT PUSH2 0x3835 DUP6 DUP6 PUSH2 0x37F4 JUMP JUMPDEST MLOAD AND SUB PUSH2 0x3854 JUMPI PUSH2 0x384C JUMPI PUSH1 0x1 DUP1 SWAP3 JUMPDEST ADD SWAP2 PUSH2 0x3814 JUMP JUMPDEST POP POP POP PUSH1 0x0 SWAP1 JUMP JUMPDEST SWAP2 DUP3 DUP1 PUSH2 0x3872 JUMPI JUMPDEST PUSH2 0x3869 JUMPI JUMPDEST PUSH1 0x1 SWAP1 PUSH2 0x3845 JUMP JUMPDEST PUSH1 0x1 SWAP4 POP PUSH2 0x3861 JUMP JUMPDEST POP PUSH1 0x17 PUSH1 0xF9 SHL PUSH1 0x1 PUSH1 0x1 PUSH1 0xF8 SHL SUB NOT PUSH2 0x388B DUP4 DUP6 PUSH2 0x37F4 JUMP JUMPDEST MLOAD AND EQ PUSH2 0x385C JUMP JUMPDEST SWAP3 SWAP2 POP POP DUP2 PUSH2 0x38A0 JUMPI POP SWAP1 JUMP JUMPDEST SWAP1 POP SWAP1 JUMP JUMPDEST POP PUSH1 0x0 SWAP1 JUMP JUMPDEST PUSH1 0x0 JUMPDEST DUP2 MLOAD DUP2 LT ISZERO PUSH2 0x38E5 JUMPI PUSH1 0x1 PUSH1 0xFD SHL PUSH1 0x1 PUSH1 0x1 PUSH1 0xF8 SHL SUB NOT PUSH2 0x38CF DUP4 DUP6 PUSH2 0x37F4 JUMP JUMPDEST MLOAD AND SUB PUSH2 0x38DE JUMPI PUSH1 0x1 ADD PUSH2 0x38AE JUMP JUMPDEST POP POP PUSH1 0x0 SWAP1 JUMP JUMPDEST POP POP PUSH1 0x1 SWAP1 JUMP INVALID LOG2 PUSH5 0x6970667358 0x22 SLT KECCAK256 DUP10 CODESIZE 0x4E PUSH26 0xE4A59260EBC3A86AA8F4E77656E509CBB01474FC26FE3DCB1414 ISZERO 0x1F PUSH5 0x736F6C6343 STOP ADDMOD SHR STOP CALLER "
        },
        "methodIdentifiers": {
          "BOUNTY_TIMEOUT()": "0b5d39fa",
          "CUSD_ADDRESS()": "465c66e9",
          "GDOLLAR_ADDRESS()": "ee7afb1c",
          "MAX_CELO_BOUNTY()": "3fa8be32",
          "MAX_CUSD_BOUNTY()": "9dc5ac72",
          "admin()": "f851a440",
          "cancelAndRefund(uint256)": "d32bfb6c",
          "claimBounty(uint256)": "44021ad7",
          "confirmFoundByOwner(uint256)": "5e23985b",
          "emergencyWithdrawCUSD(address)": "3f26decd",
          "escrowedCUSD(uint256)": "1850e3a7",
          "escrowedGDOLLAR(uint256)": "d25a6f05",
          "getAllLostPets()": "543df5a3",
          "getLostPetIds(uint256,uint256)": "a06e0061",
          "getLostPetsCount()": "8b504c17",
          "getPetDetails(uint256)": "d89fd4b4",
          "markAsFound(uint256)": "b3035b64",
          "nextPetId()": "403f8cc7",
          "pets(uint256)": "cfb869bf",
          "postLostPet(string,string,string,uint128,uint128,string,string,string,string,string,string,string,uint128,uint128)": "ce2ed0e2",
          "postTime(uint256)": "d74a48a4",
          "transferAdmin(address)": "75829def"
        }
      }
    }
  }
}